:020000040800F2
:100000000000032055640008592600085B260008FC
:100010005D2600085F260008612600080000000039
:1000200000000000000000000000000071B40008A3
:100030006326000800000000C1B4000815B60008DF
:10004000A5640008A5640008A5640008A56400086C
:10005000A5640008A5640008A5640008A56400085C
:10006000A5640008A5640008A5640008A56400084C
:10007000A5640008A5640008A5640008A56400083C
:10008000A5640008A5640008A5640008A56400082C
:10009000A5640008A5640008A5640008812600087E
:1000A000A5640008A5640008A5640008A56400080C
:1000B000A5640008A5640008A5640008A5640008FC
:1000C000A5640008A5640008A5640008A5640008EC
:1000D000A5640008A5640008A56400087D5F000809
:1000E000A5640008A5640008A5640008A5640008CC
:1000F000A5640008A5640008A5640008A5640008BC
:10010000A5640008A5640008A5640008A5640008AB
:10011000A5640008A5640008A56400086526000819
:10012000A5640008A5640008A5640008A56400088B
:10013000A5640008A5640008A5640008A56400087B
:10014000A5640008A5640008A564000875260008D9
:10015000A5640008A5640008A5640008A56400085B
:10016000A5640008A5640008A5640008A56400084B
:10017000A5640008A5640008A5640008A56400083B
:10018000A5640008A5640008A5640008A56400082B
:10019000A5640008A5640008A5640008A56400081B
:0C01A000A5640008A5640008A564000820
:1001B00080F0004002E000BF81F0004142001FBF1C
:1001C0005FEA410392EA030F7FEA226C7FEA236C25
:1001D0006AD04FEA1262D2EB1363C1BFD21841401A
:1001E00048404140B8BF5B42192B88BF704710F0B0
:1001F000004F40F4000020F07F4018BF404211F053
:10020000004F41F4000121F07F4118BF494292EABA
:10021000030F3FD0A2F1010241FA03FC10EB0C00E6
:10022000C3F1200301FA03F100F0004302D5494273
:1002300060EB4000B0F5000F13D3B0F1807F06D320
:1002400040084FEA310102F10102FE2A51D2B1F118
:10025000004F40EBC25008BF20F0010040EA03000D
:100260007047490040EB0000013A28BFB0F5000F8D
:10027000EDD2B0FA80FCACF1080CB2EB0C0200FA43
:100280000CF0AABF00EBC25052421843BCBFD04092
:100290001843704792F0000F81F4000106BF80F40C
:1002A00000000132013BB5E74FEA41037FEA226CCF
:1002B00018BF7FEA236C21D092EA030F04D092F09A
:1002C000000F08BF0846704790EA010F1CBF0020CE
:1002D000704712F07F4F04D1400028BF40F000402B
:1002E000704712F100723CBF00F50000704700F04B
:1002F000004343F0FE4040F4000070477FEA226272
:1003000016BF08467FEA23630146420206BF5FEA42
:10031000412390EA010F40F4800070474FF0000342
:1003200004E000BF10F0004348BF40425FEA000C09
:1003300008BF704743F0964301464FF000001CE0B1
:1003400050EA010208BF70474FF000030AE000BF07
:1003500050EA010208BF704711F0004302D5404245
:1003600061EB41015FEA010C02BF844601460020B7
:1003700043F0B64308BFA3F18053A3F50003BCFAD2
:100380008CF2083AA3EBC25310DB01FA02FC63447F
:1003900000FA02FCC2F12002BCF1004F20FA02F286
:1003A00043EB020008BF20F00100704702F1200279
:1003B00001FA02FCC2F1200250EA4C0021FA02F2DA
:1003C00043EB020008BF20EADC7070474FF0FF0CDF
:1003D0001CEAD0521EBF1CEAD15392EA0C0F93EADA
:1003E0000C0F6FD01A4480EA010C400218BF5FEA7C
:1003F00041211ED04FF0006343EA501043EA5111EF
:10040000A0FB01310CF00040B1F5000F3EBF4900E8
:1004100041EAD3715B0040EA010062F17F02FD2AEC
:100420001DD8B3F1004F40EBC25008BF20F00100CF
:10043000704790F0000F0CF0004C08BF49024CEAE6
:10044000502040EA51207F3AC2BFD2F1FF0340EA78
:10045000C250704740F400004FF00003013A5DDCE9
:1004600012F1190FDCBF00F000407047C2F100022A
:10047000410021FA02F1C2F1200200FA02FC5FEA17
:10048000310040F1000053EA4C0308BF20EADC7061
:10049000704792F0000F00F0004C02BF400010F4D3
:1004A000000F013AF9D040EA0C0093F0000F01F080
:1004B000004C02BF490011F4000F013BF9D041EAA2
:1004C0000C018FE70CEAD15392EA0C0F18BF93EAA4
:1004D0000C0F0AD030F0004C18BF31F0004CD8D1CE
:1004E00080EA010000F00040704790F0000F17BF55
:1004F00090F0004F084691F0000F91F0004F14D09B
:1005000092EA0C0F01D142020FD193EA0C0F03D1F2
:100510004B0218BF084608D180EA010000F00040F5
:1005200040F0FE4040F40000704740F0FE4040F4D0
:10053000400070474FF0FF0C1CEAD0521EBF1CEA6F
:10054000D15392EA0C0F93EA0C0F69D0A2EB03028D
:1005500080EA010C49024FEA402037D04FF0805327
:1005600043EA111143EA10130CF000408B4238BFEC
:100570005B0042F17D024FF4000C8B4224BF5B1AFA
:1005800040EA0C00B3EB510F24BFA3EB510340EA48
:100590005C00B3EB910F24BFA3EB910340EA9C00F6
:1005A000B3EBD10F24BFA3EBD10340EADC001B0166
:1005B00018BF5FEA1C1CE0D1FD2A3FF650AF8B420A
:1005C00040EBC25008BF20F0010070470CF0004C17
:1005D0004CEA50207F32C2BFD2F1FF0340EAC25042
:1005E000704740F400004FF00003013A37E792F003
:1005F000000F00F0004C02BF400010F4000F013A61
:10060000F9D040EA0C0093F0000F01F0004C02BF5B
:10061000490011F4000F013BF9D041EA0C0195E7C4
:100620000CEAD15392EA0C0F08D142027FF47DAF5D
:1006300093EA0C0F7FF470AF084676E793EA0C0F4D
:1006400004D14B023FF44CAF08466EE730F0004C4B
:1006500018BF31F0004CCAD130F000427FF45CAFDB
:1006600031F000437FF43CAF5FE700BF4FF0FF3C49
:1006700006E000BF4FF0010C02E000BF4FF0010C9C
:100680004DF804CD4FEA40024FEA41037FEA226C65
:1006900018BF7FEA236C11D001B052EA530C18BF87
:1006A00090EA010F58BFB2EB030088BFC81738BFEC
:1006B0006FEAE17018BF40F0010070477FEA226CDA
:1006C00002D15FEA402C05D17FEA236CE4D15FEAD6
:1006D000412CE1D05DF8040B704700BF844608460A
:1006E0006146FFE70FB5FFF7C9FF002848BF10F1CB
:1006F000000F0FBD4DF808EDFFF7F4FF0CBF012010
:1007000000205DF808FB00BF4DF808EDFFF7EAFF99
:1007100034BF012000205DF808FB00BF4DF808ED54
:10072000FFF7E0FF94BF012000205DF808FB00BF49
:100730004DF808EDFFF7D2FF94BF012000205DF8CF
:1007400008FB00BF4DF808EDFFF7C8FF34BF0120DC
:1007500000205DF808FB00BF4FEA4002B2F1FE4FF7
:100760000FD34FF09E03B3EB12620DD94FEA002373
:1007700043F0004310F0004F23FA02F018BF40424C
:1007800070474FF00000704712F1610F01D1420233
:1007900005D110F0004008BF6FF0004070474FF0E7
:1007A0000000704753B94AB9002908BF00281CBF90
:1007B0004FF0FF314FF0FF3000F00CB8ADF1080CF6
:1007C0006DE904CE2DF066FFDDF804E0DDE90223DB
:1007D00004B07047704700BF10F8012B11F8013BBF
:1007E000012A28BF9A42F7D0D01A7047034613F85F
:1007F000012B002AFBD1181A0138704700000000B5
:1008000001F0FF01102A2BDB10F0070F08D010F8C1
:10081000013B013A8B422DD010F0070F42B3F6D1C5
:10082000F0B441EA012141EA014122F007047FF0DE
:1008300000070023F0E80256083C85EA010586EA35
:10084000010685FA47F5A3FA87F586FA47F6A5FA71
:1008500087F68EB9EED1F0BC01F0FF0102F007027D
:1008600032B110F8013B013A83EA010313B1F8D128
:100870000020704701387047002D06BF3546033809
:10088000073815F0010F07D1013015F4807F02BF42
:10089000013015F4C03F0130F0BC0138704700BF93
:1008A0000348044B834202D0034B03B118477047FF
:1008B000CC010020CC010020000000000548064BC0
:1008C0001B1AD90F01EBA301491002D0034B03B14E
:1008D00018477047CC010020CC0100200000000028
:1008E00010B5064C237843B9FFF7DAFF044B13B178
:1008F0000448AFF300800123237010BDD001002015
:100900000000000088F6020808B5054B1BB1054938
:100910000548AFF30080BDE80840FFF7CFBF00BF38
:1009200000000000D401002088F60208002310B562
:100930000446C0E90033C0E9043383608181436623
:10094000C2818361194608225C3000F0F6F80D4B35
:1009500063620D4BA3620D4BE3620D4B23630D4BA2
:1009600024629C4206D003F16802944202D0D03344
:100970009C4205D104F15800BDE8104000F050B988
:1009800010BD00BFB30A0008D50A00080D0B00080F
:10099000330B0008EC010020024A0349034800F031
:1009A0006BB800BF000000200D0F000810000020F1
:1009B00041680C4B994210B5044601D000F0A6FAEC
:1009C000A168094B994202D0204600F09FFAE168E5
:1009D000064B994204D02046BDE8104000F096BA7C
:1009E00010BD00BFEC01002054020020BC0200201A
:1009F00010B50A4B0A4A1A600A4800220421FFF780
:100A000095FF094801220921FFF790FFBDE810403A
:100A1000064802221221FFF789BF00BF24030020ED
:100A200099090008EC01002054020020BC020020BB
:100A3000014800F0F6B800BF2D030020014800F087
:100A4000F1B800BF2D03002010B50446FFF7F0FFFA
:100A5000236A1BB1BDE81040FFF7F0BF044B2362CF
:100A6000044B1B68002BF5D1FFF7C2FFF2E700BF74
:100A7000B1090008240300202DE9F8438046894687
:100A800014460026D4E90175013F05D52468002CE1
:100A9000F8D13046BDE8F883AB89012B07D9B5F909
:100AA0000E30013303D029464046C8470643683517
:100AB000EAE710B50C46B1F90E1000F069F800280D
:100AC000ABBF636DA3891B1823F48053ACBF636570
:100AD000A38110BD2DE9F0411F468B89DB0505463A
:100AE0000C46164605D5B1F90E100223002200F07F
:100AF0003DF8A389B4F90E1023F48053A381324644
:100B00003B462846BDE8F04100F054B810B50C460D
:100B1000B1F90E1000F02AF8B4F90C30421C0BBFEA
:100B200023F4805343F48053A381A38118BF6065ED
:100B300010BDB1F90E1000F009B80244034693420B
:100B400000D1704703F8011BF9E7000038B5064CE7
:100B5000002305460846236001F0BEFD431C02D178
:100B6000236803B12B6038BD2803002038B5074C3B
:100B7000054608461146002222601A4601F0B1FDE2
:100B8000431C02D1236803B12B6038BD2803002029
:100B900038B5074C054608461146002222601A4621
:100BA00001F09DFD431C02D1236803B12B6038BDC9
:100BB0002803002038B5074C054608461146002298
:100BC00022601A4601F076FD431C02D1236803B16E
:100BD0002B6038BD2803002070B50D4B0D4C00264E
:100BE0001D1BB6EBA50F09D12EF04EFD0A4C0B4B89
:100BF00000261D1BB6EBA50F05D170BD54F8043BB4
:100C000098470136EDE754F8043B98470136F1E781
:100C10004CFC03084CFC03084CFC030850FC030884
:100C2000704770477047000037B5002944D051F82D
:100C3000043C0190002BA1F10404B8BFE41800F0BB
:100C4000DDF81E4A0198136833B96360146003B07D
:100C5000BDE8304000F0D8B8A34208D92568611932
:100C60008B4201BF19685B6849192160EDE71A469C
:100C70005B680BB1A342FAD911685518A5420BD194
:100C8000246821445418A3421160E0D11C685B68B9
:100C900053600C441460DAE702D90C230360D6E7F2
:100CA000256861198B4204BF19685B68636004BFE3
:100CB000491921605460CAE703B030BD34030020F5
:100CC00070B50F4C0E462168054611B900F046F983
:100CD00020603146284600F041F9431C03D14FF013
:100CE000FF34204670BDC41C24F00304A042F8D099
:100CF000211A284600F032F90130F2D1EFE700BFA7
:100D0000300300202DE9F843CD1C25F003050835FC
:100D10000C2D38BF0C25002D064601DBA94204D955
:100D20000C2333600020BDE8F883334F00F066F8F1
:100D30003B681C463CBB29463046FFF7C1FF431CBD
:100D4000044656D13C68A046B8F1000F40D1002CB3
:100D500049D023684146304604EB030900F0FEF811
:100D6000814540D121686D1A29463046FFF7A8FF1A
:100D7000013038D023682B4423603B685A685ABB43
:100D8000C7F800800EE02268521B1ED40B2A16D929
:100D90006119A342256018BF5960636808BF3960B4
:100DA00062514B60304600F02FF804F10B00231D18
:100DB00020F00700C21A1CBF1B1AA350B3E76268D9
:100DC000A3420CBF3A605A60ECE723466468B1E77F
:100DD0004446D8F80480B7E71A465B68A342FBD1C3
:100DE00000235360DEE70C233360304600F00CF83C
:100DF00098E70560D6E700BF340300200148FFF7FD
:100E000010BF00BF2C0300200148FFF70BBF00BF3D
:100E10002C030020B1F90C20F8B5160705460C4646
:100E200051D44B68002B02DC0B6C002B49DDE66AC9
:100E3000002E46D0002312F480522F682B6031D050
:100E4000626DA389590705D56368D21A636B0BB12C
:100E5000236CD21A0023E66A216A2846B047421C56
:100E6000B4F90C3006D129681D2944D8264ACA4055
:100E7000D60740D500226260D9042269226004D5D9
:100E8000421C01D12B6803B96065616B2F60C1B151
:100E900004F14403994202D02846FFF7C5FE00231F
:100EA00063630EE0216A01232846B0470246501CC6
:100EB000C7D12B68002BC4D01D2B01D0162B19D104
:100EC0002F6000201CE00F69002FFAD093070E68F6
:100ED00008BF4B690F6018BF0023F61B8B60002E04
:100EE000EFDD216AD4F828C033463A462846E04769
:100EF000002806DCA38943F04003A3814FF0FF30B4
:100F0000F8BD0744361AEAE70100402038B50B69FE
:100F100005460C4613B91D46284638BD18B1036A6C
:100F20000BB9FFF791FDB4F90C30002BF3D0626ED2
:100F3000D00704D4990502D4A06DFFF772FE2846AD
:100F40002146FFF767FF636EDA070546E4D4A389FD
:100F50009B05E1D4A06DFFF765FEDDE738B5064CD3
:100F6000002305460846236001F092FB431C02D192
:100F7000236803B12B6038BD28030020030A42090F
:100F800023F4FF6323F0070302F4FC6213439BB2D4
:100F9000C0F3C4001843704703280DD006D80128B9
:100FA0000CD002280CD068B90948704704280BD02F
:100FB00005280BD107487047074870470748704716
:100FC000074870470748704707487047054870470B
:100FD000FCF6020838F7020820F7020808F70208B2
:100FE00014F7020840F702082CF7020810B5064B68
:100FF0005C6844B1054B1878FFF7CEFF0246044900
:1010000020462CF0DEFF10BD5C030020D80A002033
:1010100048F702082DE9F04182B007468846154698
:1010200000211046FFF770FB48BB2C462046FFF717
:1010300093FB0646FFF776F901462046FFF7BCF81A
:101040001149FFF7C3F94FF07C51FFF7B7F8FFF7ED
:1010500083FB0446632802DDA0F16404013600210D
:101060002846FFF751FB68B9084B01940096084ADF
:10107000414638462DF006FD02B0BDE8F08105F18D
:101080000044D3E7034BF0E70000C84244070308DD
:1010900058F70208B8F702082DE9F04391B08146ED
:1010A000884617460CAC1A4610212046FFF7B2FFBF
:1010B00008AD189A10212846FFF7ACFF04AE199A24
:1010C00010213046FFF7A6FF1A9B03930296019565
:1010D00000943B46034A414648462DF0D3FC11B0EC
:1010E000BDE8F08364F7020870B5A6B018A801F057
:1010F000E9F9434B586AA8B19DF86030002B4FD0F6
:10110000BDF862203F492CF05CFF3D4CBDF86420E7
:101110003D49A06A2CF055FFBDF866203B49E06AC6
:101120002CF04FFF364B186B002858D09DF86830D4
:10113000002B48D004AC364B02931D9B01931C9BA3
:1011400000931B9B334A50212046FFF7A5FF214601
:101150002B4D286B2CF0F8FE2F4B0293209B019314
:101160001F9B00931E9B2D4A50212046FFF794FFA2
:101170002146686B2CF0E8FE9DF86930EBB1284BF6
:101180000293239B0193229B0093219B254A50218C
:101190002046FFF781FF2146A86B2CF0D5FE1EE00C
:1011A00021492CF0D1FE164C2049A06A2CF0CCFE2F
:1011B0001F49E06A2CF0C8FEB4E71E49104B986B3B
:1011C0002CF0C2FE0BE01C492CF0BEFE0C4C1B495F
:1011D000606B2CF0B9FE1A49A06B2CF0B5FE084BE1
:1011E000DC6B5CB1249D259B1E4604F0E7FD00905E
:1011F00033462A46134920462CF0E3FE26B070BD44
:101200005C0300207CF702088CF70208A0F70208B4
:10121000E4F70208D8F70208F4F70208E8F7020832
:1012200000F80208F8F70208ACF70208BCF7020859
:10123000CCF7020804F8020820F8020830F8020887
:1012400040F802084CF8020810B5002027F0B6F963
:101250001C4C2080002027F0C8F91B4B1880B4F9E3
:101260000030002B15DD002816DD174BB3F800C049
:10127000ACF16A031BB21D2B00DC1E23143B134987
:1012800081FB0321A1EBE37109B2114B198000220C
:101290000FE001222280E6E70B4B01221A80E4E7EF
:1012A00001F10A0312FB03F32A330A4820F8123033
:1012B0000132022AF4DDACF1380C074BA3F800C070
:1012C00010BD00BF44030020420300205655555571
:1012D0003A0300203C0300203803002008B527F023
:1012E00067F912F0F5FC08BD70B504460D461646C8
:1012F00019F0F0FF32462946204619F0F2FF324637
:101300002946204619F0D8FF32462946204619F0D2
:10131000DAFF70BD38B50446102115F053FC0025E6
:101320002A464FF00001204619F0E2FF2A46FF212D
:10133000204619F0E4FF2A4629462046FFF7D4FF4D
:1013400038BDF8B50F4616461D462CF057FA044630
:10135000002229461AF004F80698FFF70FFE01460E
:101360000022204619F0F5FF00221146204619F010
:10137000C6FF002211462046FFF7B6FF0799204618
:101380002CF0E2FD32463946204616F035FC204668
:10139000F8BD000030B583B00D4606990191009369
:1013A00013462A460021FFF7CCFF0446084BB3F949
:1013B000001016F02BFC00220221204619F0D7FF66
:1013C0002A460021204616F017FC204603B030BD07
:1013D0004403002010B582B0FFF780FF15F0E6FB54
:1013E0000446124A002119F0E4FD2222104BB3F901
:1013F0000010204616F038FC00221146204616F058
:10140000FBFB002241F2A301204619F071FF0022EC
:10141000FF21204619F073FF064B0093064B074A45
:1014200005212046FFF7B6FF02B010BDFFFF0F00F9
:101430004403002080F80208DCD6D20038410308BB
:10144000F0B583B00F4616461D4615F0AFFB0446B7
:101450001D4A002119F0ADFD1C4B19881839324680
:1014600009B2204616F000FC3A460C21204616F040
:10147000C3FB002241F2A301204619F039FF0022EC
:10148000FF21204619F03BFF002248F2524120463E
:1014900019F03CFF00220121204619F03EFF0022F6
:1014A00011462046FFF720FF1021204615F08AFB49
:1014B0000195074B0093074B062208212046FFF7B2
:1014C00040FF204603B0F0BDFFFF0F0044030020A3
:1014D000DCD6D200544103082DE9F04782B0FFF773
:1014E000FDFE8246DFF8DC80374F384BB8F900202C
:1014F000B7F90010FFF7A4FF8146354C354B019337
:10150000354E0096234620220821FFF71AFF334D5F
:101510006862334B019300962346382208214846DF
:10152000FFF70FFFA8622F4B01930096234650222E
:1015300008214846FFF705FFE8622B4BB8F9002069
:10154000B7F902105046FFF77BFF8146274B019306
:101550000096234620220821FFF7F3FE2863244B40
:10156000019300962346382208214846FFF7E9FEFA
:101570006863204B01930096234650220821484679
:10158000FFF7DFFEA8631C4BB8F90020B7F9041081
:101590005046FFF755FF0646184B0193184F00972A
:1015A000234620220821FFF7CCFEE863154B019368
:1015B00000972346382208213046FFF7C2FE02B0CA
:1015C000BDE8F0873A0300203C03002098F80208A9
:1015D00054410308ACF70208DCD6D2005C030020BB
:1015E000BCF70208CCF70208B4F8020820F8020899
:1015F00030F8020840F80208D0F80208E0F80208C3
:1016000090888000ECF802082DE9F04F8DB0FFF7CC
:1016100065FE03905B4B5C4AB2F900205B49B1F96F
:101620000010FFF70DFF074602F0F4F9002800F064
:10163000A680038804AD564A202128462DF022FAC0
:10164000544C0195544D00952346202208213846DC
:10165000FFF777FE514B019300952346382208216E
:101660003846FFF76EFE4E4E30604E4B01930095AC
:101670002346502208213846FFF763FE4A4B019368
:10168000DFF828A1CDF800A02346682208213846BB
:10169000FFF757FEDFF8F090DFF8F0B0444BB9F9F0
:1016A0000020BBF902100398FFF7CAFE0746414B22
:1016B00001930095234620220821FFF742FE706027
:1016C0003D4B019300952346382208213846FFF709
:1016D00038FEB060DFF8E480CDF804800095234642
:1016E000502208213846FFF72CFE0290F06005F0EA
:1016F00085F9334BA3FB0032920C324902982CF04F
:1017000060FC314B0193009523466822082138463E
:10171000FFF717FE30612D4B0193CDF800A0234653
:10172000802208213846FFF70CFE7061284BB9F97A
:101730000020BBF904100398FFF782FE0746254BF3
:1017400001930095234620220821FFF7FAFDB0619E
:10175000CDF8048000952346382208213846FFF74B
:10176000F0FDF061CDF80480009523465022082159
:101770003846FFF7E6FD30620DB0BDE8F08F034656
:1017800058E700BF10F902083A0300203C0300208C
:1017900020F9020854410308DCD6D2003CF90208C3
:1017A0005C03002048F9020864F902089088800070
:1017B0007CF902088CF902089CF902084407030826
:1017C00083DE1B43A8F90208B8F90208CCF9020825
:1017D000E8F90208F8F902082DE9F0410D469046B3
:1017E0001F462BF05DFF0446304E3246002119F0B3
:1017F000E0FB2C224821204616F036FA42462946C4
:10180000204616F0F9F9002241F60511204619F09C
:101810006FFD0022FF21204619F071FD002248F2E1
:101820005241204619F072FD00220121204619F094
:1018300074FD00220421204619F0A0FD002211466B
:101840002046FFF751FD1021204615F0BBF9204638
:101850002CF00AFF05463246002119F0AAFB14229B
:101860001146284616F000FA0C221A21284616F0D6
:10187000C3F900220321284619F056FD00224DF23B
:10188000BB61284619F05EFD00220121284619F0AF
:1018900052FD0322394628462CF0F2FE022128464A
:1018A00015F090F92046BDE8F08100BFFFFF0F0062
:1018B00070B582B0FFF712FD3A4B1D88A5F11803F1
:1018C0001EB215F073F90446374A002119F071FB76
:1018D00030223146204616F0C7F9344BB3F90020C8
:1018E0000C21204616F088F9002241F2A30120467F
:1018F00019F0FEFC0022FF21204619F000FD002215
:1019000048F25241204619F001FD002201212046F3
:1019100019F003FD002211462046FFF7E5FC1021D7
:10192000204615F04FF9224B022206212046FFF7F0
:1019300053FF204E4FF0FF330722314612F040FB99
:10194000A5F166011C4B022209B22046FFF744FFB5
:1019500001230722314612F033FB184B0193184B39
:101960000093184B0E2200212046FFF7EAFC164C8C
:101970002064A5F1C00109B216F048F90E225421E5
:10198000206C16F039F900220221206C19F0EFFCCE
:101990000E4B1A68022301320D49206C2CF011FB0A
:1019A00002B070BD44030020FFFF0F003803002089
:1019B0005C0C0308211D0008500C030844070308B1
:1019C00090888000544103085C03002048030020F5
:1019D00008FA020810B5FFF781FC0446FFF734FC53
:1019E0002046FFF797FCFFF7F5FC074B1B68012B20
:1019F00007D0FFF709FEFFF75BFF044B01221A70C7
:101A000010BDFFF769FDF6E7480300204D030020F5
:101A100008B5FFF763FC19F0A1FD4422002104483A
:101A2000FFF78BF8034B00221A70FFF7D3FF08BDB6
:101A30005C0300204D0300200C4B1B68A3B110B5C4
:101A400000F080FC50B1094B1B681C4600F080FC84
:101A50000246074920462CF0B4FA10BD0549034B55
:101A600018682CF071FAF8E7704700BF5C0300209B
:101A700010FA02082CFA020810B503F0CBF904465C
:101A800003F060F903460D4A9068A0B154B11B7889
:101A9000312B0DD0302B0FD004F01E031E2B05D0A0
:101AA000074906E007492CF04FFA04E0064900E038
:101AB00006492CF049FA10BD0549FAE75C030020FD
:101AC000B8FA0208D0FA020894FA020844FA0208A6
:101AD0006CFA020800B585B0002303930293164BFD
:101AE0001869C8B1154B1A68154BA3FB023C154980
:101AF000A1FB02E35B09A1FB03E14909C1EB011171
:101B0000C3EB031EA2EB8E020092A3EB81034FEA0C
:101B1000DC220D492CF055FA074B5B6953B102A941
:101B200003A804F0C9FB029B039A084902484069D4
:101B30002CF047FA05B000BD5C03002054030020E0
:101B4000C5B3A29189888888E4FA0208FCFA0208E1
:101B500008B504F0CFFC0F4B1B68C31AB3F57A7FAE
:101B600005D30C4B18600C4A1368013313600B4B00
:101B70001B6863B9FFF73AFAFFF7ACFF084B1B7815
:101B80003BB1FFF779FF064B00221A7001E0FFF727
:101B9000ABFA08BD50030020540300204803002086
:101BA0004C03002008B50A4B186820B129F0C4F98D
:101BB000074B00221A60FFF791FB19F0CFFC44227B
:101BC00000210448FEF7B9FF034B00221A7008BD3C
:101BD000580300205C0300204D03002008B5194B7A
:101BE0001B78BBB10023184A1360184A136004F035
:101BF00081FC174B1860174B01221A70FFF71CFF6E
:101C0000FFF73AFFFFF7F2F9FFF764FF124B1B688B
:101C100073B108BDFFF718FBFFF760FB19F09EFCDE
:101C2000442200210D48FEF788FFFFF7D3FED9E7D5
:101C30001A464FF4FA710A4829F05EF9064B18600B
:101C4000E7E700BF4D0300204803002054030020B5
:101C5000500300204C030020580300205C030020A8
:101C6000511B000830B583B00446FFF737FB05462B
:101C7000FFF798FFFFF7E8FA2846FFF74BFB6CB138
:101C80000094074B074A00212846FFF783FB0023F7
:101C90001A46092116F046F803B030BD024CEFE7B2
:101CA000DCD6D2003841030844070308034B1B78F5
:101CB00013B1034B01221A70704700BF4D0300207F
:101CC0004C030020144B1B68181800F0010048BF9B
:101CD0004042002819DB83421CD010B50E4B1C4635
:101CE0001860FFF795FE23688BB9FFF77FF9FFF7C0
:101CF000A3FEFFF7C1FEFFF7EDFE074B19680222B6
:101D0000013106482CF04EFE10BD0230E3E7FFF72C
:101D1000EBF9F2E7704700BF480300201CFB020804
:101D200008B512F037F9FFF7CDFF08BD024B0022CE
:101D30001A700120704700BFA005002008B502E01E
:101D4000012008F00BFA024B1B78002BF8D108BDDC
:101D5000A005002008B5012008F0F2FE024B186033
:101D6000003818BF012008BDA405002008B5044BA9
:101D7000186818B14FF0FF3109F068F808BD00BFCE
:101D8000A405002008B5044B186820B100231A46AA
:101D9000194608F011FE08BDA405002010B518B1C1
:101DA00001280BD0012010BD04460130C0B20CF058
:101DB0000BF908B12046F6E70220F4E703F01EFB1A
:101DC00008B10020EFE70220EDE708B510B10128C7
:101DD00001D0012008BD03F011FB08B10020F9E794
:101DE0000220F7E72DE9F04184B00E4617461D4664
:101DF000804628B1012816D0042004B0BDE8F08147
:101E000001301B4B01221A7000210291194B0193E2
:101E1000ADB200953B463246C0B20CF04BFAFFF72C
:101E20008DFF4046E9E7FDB111F0030F11D000240A
:101E3000AC4217D20122E1190F4803F0E5FAA8B924
:101E40004FF400720C4906EB44202CF025FF0134BE
:101E5000EEE72A463946304603F0D6FA0028CCD0C1
:101E60004046CAE70020C8E70420C6E74046C4E76A
:101E7000A00500202D1D0008A00300202DE9F0433F
:101E800085B00F4690461D46814628B1012816D0E0
:101E9000042005B0BDE8F08301301C4B01221A700C
:101EA000002102911A4B0193ADB2009543463A4688
:101EB000C0B20CF05BFAFFF741FF4846E9E70DB30B
:101EC00011F0030F13D00024AC4219D2114E4FF47D
:101ED000007207EB442130462CF0DEFE012204EBB9
:101EE0000801304603F0BCFA70B90134ECE72A4629
:101EF0004146384603F0B4FA0028CAD04846C8E73D
:101F00000020C6E70420C4E74846C2E7A005002039
:101F10002D1D0008A003002070B582B00C461646A7
:101F20000546F0B90130C0B2022914D00BD80029FF
:101F300044D0012905D100210CF02AF83060284650
:101F400012E0042010E0032903D101231360284686
:101F50000AE0042008E000210CF028F83080284630
:101F600002E0012802D0042002B070BD00230193DA
:101F70004FF40073ADF80230022904D84BB253B9C4
:101F8000C1B90846F0E7032903D1012313600020FB
:101F9000EAE70420E8E70DF1020101A803F08CFA5A
:101FA00050B9012C03D0BDF802303380DCE7019B2F
:101FB0003360D9E70420D7E72846D5E70846D3E7BA
:101FC00010B500240FE0002002F0A4FF16E0052B5E
:101FD00026D1012002F09EFF02E0012002F072FFF4
:101FE000642008F0BBF801340F4A82FB0432E31787
:101FF000C3EB620303EB83039C42E4D00B4B1A78E0
:10200000D3B2042AE9D0042BE1D8023BDBB2012B86
:1020100006D814F0030FE3D1012002F07BFFDFE7C5
:10202000012002F063FFDBE767666666D80A0020DE
:1020300000B583B072B6012002F06CFF002301935B
:10204000019A034B9A42F6D8019B01330193F7E7BB
:10205000FEFF010010B594B008AC302200212046EC
:10206000FEF76BFD002303930493059306930793F8
:102070000193204A116C41F080511164126C02F0FE
:1020800080520192019A02931B4B1A6842F440421B
:102090001A601B6803F440430293029B01230893D8
:1020A0004FF48033099302230E934FF480020F9272
:1020B000192210924FF4A8721192129307231393CE
:1020C000204604F09DFA88B90F230393022304935A
:1020D00005904FF4A05306934FF4805307930521C6
:1020E00003A804F0DFFC18B914B010BDFFF7A0FF7F
:1020F000FFF79EFF003802400070004000B583B03B
:1021000004F0D2F9FFF7A6FF02F0AEFE002002F0C5
:10211000EDFE012002F0EAFE03F056FE36482CF0F8
:10212000A9FC01F043FA01F08DFA7F2003F0CCF80E
:1021300032482CF09FFC32482CF09CFC03F03CFB16
:1021400020B130482CF096FCFFF772FF2E482CF09F
:1021500091FC2E4809F07AFC2D482CF08BFCFFF7FF
:10216000F9FD20B92B482CF085FCFFF761FF00F04A
:1021700043FE20B928482CF07DFCFFF759FF274883
:102180002CF078FC002401940323009323464FF4A1
:1021900080622349234807F0EFFD01940423009354
:1021A00023464FF400722049204807F0E5FD0194D2
:1021B00001231D46009323464FF400721C491D481D
:1021C00007F0DAFD0194009523464FF480721A4916
:1021D0001A4807F0D1FD01940223009323464FF4DF
:1021E000C0621749174807F0C7FD84F3118862B62B
:1021F00007F002FEFFF71CFF38FB020848FB02084D
:1022000060FB020870FB020884FB02085C000020EF
:1022100094FB0208C4FB0208DCFB0208F4FB020882
:1022200010FC0208392E000818FC0208F5260008E8
:1022300020FC02080125000828FC0208C11F000834
:102240002CFC0208C527000808B5FFF7F1FE08B509
:10225000FFF7EEFE08B5FFF7EBFE0000003818BFF1
:102260000120014B18607047A805002010B582B00E
:1022700000230193ADF802301E4B1B6823B10023ED
:102280001C46204602B010BD03F07EF848B11A4B40
:102290001B6813B101231C46F3E718482CF0EAFB36
:1022A000F8E70DF1020101A803F006F90199890A86
:1022B000BDF8022002FB01F1890A11482CF072FBE3
:1022C000FFF754FD01220F490F4810F02FFD04467F
:1022D000FFF758FD34B9074B01221A600B482CF068
:1022E000C9FBCEE721460A482CF05CFB01231C46C3
:1022F000C7E700BFAC050020A805002030FC02089D
:1023000054FC020880FC0208B0050020A8FC02086A
:1023100084FC020808B5094B1B6813B903F062F886
:1023200008BDFFF723FD00220549104610F0FEFC12
:10233000FFF728FD014B00221A60EFE7AC050020F3
:1023400080FC0208014B1868704700BFAC050020F4
:1023500000B583B0002301934FF40073ADF8023051
:102360000A4B1B6813B9184603B000BD0DF10201FA
:1023700001A803F0A1F838B90198800ABDF802302D
:1023800003FB00F0800AEFE70020EDE7AC0500203A
:1023900008B5034608461146D3F800C0BCF1000F4B
:1023A00005D0064A1268A2EB0C02772A04D9034A28
:1023B00012681A602CF0F6FA08BD00BFF80700207A
:1023C000154B1B881BB1013B134A1380704700B5A6
:1023D00083B0684600F0BEFD68B9BDF804200F4B1D
:1023E0005A80BDF800209A80BDF80220DA800122D0
:1023F0001A7003B000BD094B00221A705A6B0132EB
:102400005A63054B04221A804FF0FF3204490548F5
:10241000FFF7BEFFEDE700BFEE070020FC0700203E
:10242000BCFC0208F4070020214B1B881BB1013BB8
:102430001F4A1380704700B58BB001A802F0A6FEBA
:1024400010F1030F18D81B4B0199D960029919613B
:1024500003995961049999610599D961069919629D
:1024600001211972C0B9079A5A62089A9A62099AA8
:10247000DA6259720BB000BD0E4B0021197259720D
:10248000596B013159630A4B0421198002460A49EC
:102490000A48FFF77DFFEDE7064B00215972596BA3
:1024A00001315963024606490448FFF771FFE1E72D
:1024B000EC070020FC070020F8FC0208F0070020D1
:1024C00034FD0208C8B110B5044609F06BF8A44603
:1024D000DFF828E0BEE80F00ACE80F00BEE80F0010
:1024E000ACE80F00BEE80F00ACE80F009EE8030068
:1024F0008CE8030009F078F810BD7047FC07002055
:1025000038B51A482CF0B6FA00F00AFD054668B94D
:10251000174918482CF046FA02F0CCFD044650B199
:1025200010F1020F04D01449144A06E01249F0E7F2
:102530001149134A01E00E49104A12482CF032FAB0
:102540000AE00CB9FFF770FF0F4B1A680F4B1A63C4
:102550004FF4FA7007F002FE0B4A13680133136060
:10256000002DEED1FFF72CFFEBE700BFB4FD020812
:1025700084FD0208E0FD020888FD0208A4FD0208AF
:1025800090FD0208FCFD0208F8070020FC0700206F
:1025900030B589B0054600230193244B1A6C42F0F4
:1025A00020021A641B6C03F020030193019B02A913
:1025B00003A804F04DFB069BFBB904F029FB03467E
:1025C0001B4AA2FB03239B0C013B1A481A4A0260D8
:1025D00040F2E732C260436000230361836083619D
:1025E000436105F083FE044658B1372004F004F837
:1025F000C4B90F2D0ED9012415E004F009FB4300E6
:10260000DEE70C4C204605F033FD204605F0EEFCDD
:102610000446EAE722462946372003F0DDFF074B50
:102620001D6000E00124204609B030BD00380240A2
:1026300083DE1B4334080020001400406C0100209E
:1026400008B50268034B9A4200D008BD03F046FF6C
:10265000FBE700BF00140040FEE7FEE7FEE7FEE7F1
:10266000FEE7704708B5024805F01FFD08BD00BF32
:102670003408002008B5012100200DF0A9FF08BD95
:1026800008B5024804F0B6FC08BD00BF541A00208B
:102690000346064A126822B1044A106803441360D4
:1026A0007047024A02491160F6E700BF7C0800202B
:1026B0005052002010B5431E012B06D80846144680
:1026C000114603F0D5FB204610BD2CF0D7FA0923A4
:1026D00003604FF0FF30F7E74FF0FF307047002006
:1026E0007047002070474FF400534B600020704744
:1026F00001207047F8B521482CF0BCF903F058FAD6
:1027000038B11F482CF0B6F94FF47A7007F026FD67
:10271000FAE71C482CF0AEF9002702E00024022C56
:1027200013D903F045FB05464FF47A7003F0C0FA65
:1027300006460028F2D0002FF0D103F039FB014605
:1027400011482CF02FF90127E8E703F0BFFA002821
:102750000FDD0EB100240DE003F02AFBA84201D0EA
:10276000002407E009482CF085F94FF0FF35344686
:1027700000E001340F2007F0F1FCD0E71CFE020856
:102780006CFE020898FE0208D4FE020804FF02084C
:1027900010B5044602F0DAFA50B902F03BFB0246EB
:1027A000214606482CF0FEF803F060FD012010BD24
:1027B000214603482CF0F6F80020F8E774FF0208E1
:1027C00050FF020830B583B072482CF053F902F084
:1027D0006DF938B170482CF04DF94FF47A7007F06C
:1027E000BDFCFAE7044614F0B5F903F0C5FD03F0AB
:1027F00019FE002025F0E2FE0546002025F0F5FE3A
:102800000246294665482CF0CDF86548FFF72AFABC
:1028100028F0D8FB63482CF02DF907F029FB624B18
:102820001860A0F5FA70614B186054E0FFF73EFAAB
:102830005FE040F6B8336DE05C4B1D60FFF716FDBE
:1028400018B95B4B01221A7066E00120FFF706FD04
:1028500062E0584B01221A7057482CF00BF9574888
:10286000FFF796FF50B1FFF7B9F9554B01221A70E7
:10287000544B1D6054482CF0FDF854E0FFF74AFD1E
:102880004B4B00221A704EE0504B01221A705048F8
:102890002CF0F0F84F48FFF77BFF00284ED0FFF7F1
:1028A0009DF9474B01221A70464B1D604A482CF097
:1028B000E1F843E04948FFF7D5F9414B02221A708D
:1028C0003A4B1D6046482CF0D5F841E028F07AFBE1
:1028D000052007F043FC07F0CBFA0546414B1B7877
:1028E000A34206D03F4B1C78E4B2354B1B78012B3A
:1028F0009CD0334B1B78012B2AD02D4A12785AB921
:102900002C4A127842B9294A1268AA1A022B90D08E
:102910004FF4FA739A428FD2254B1B781BB1254B8B
:102920001B78002B95D0264B1B78012B06D0274B0C
:102930001B781BB92B4B1B78042BA5D0204B1B7885
:1029400033B9194B1B68EB1A42F20F729342B1D89C
:102950001B4B1B78012BB9D1234B1B78002BB5D116
:10296000184B18680028B1D0281A40F2DB5398425F
:10297000ACD90023009301931B4B01221A7001A9CB
:10298000684603F099FC019A009918482CF00AF85F
:102990009CE700BF94FF0208BCFF0208ECFF02089E
:1029A0002400030840000308880800208C08002049
:1029B00092080020910800207000030880FC0208A3
:1029C0009308002084080020980003089008002045
:1029D000BC000308E0000308E40003080801030842
:1029E00028010308D80A00208008002058010308A5
:1029F00070B5ADF51C7D1D4810F0F0FF1C4810F0BF
:102A0000EDFF96AC1B4D0FCD0FC495E8030084E895
:102A10000300002404E0294617482BF0C3FF0134CB
:102A2000022C1FD89CAB03EBC40353F8185C0A229A
:102A3000294602A810F0A6F902460028EBD19CAB6B
:102A400003EBC40353F8146C3046FDF7CFFE024687
:102A500002AD01AB3146284610F01DFC284610F0AF
:102A6000E7FDDCE70DF51C7D70BD00BFA401030888
:102A7000AC010308A0F60208B801030870B590B0D5
:102A800006460D46002423460AE0591C03F1400087
:102A90000DEB000C0CF8402C3F2B0ED001340B46F4
:102AA000AC420FD2325D1F2AEFD80D2AEDD00A2A90
:102AB000EBD0092AE9D02E22E7E7684603F0D8F9DF
:102AC0000021EBE70BB910B070BD1946684603F062
:102AD000CFF9F8E770B5ADF5267D0C46B1F5006F7E
:102AE00015D8314B1B68B3F5804F16D2C3F5804320
:102AF000994216D80122014612A810F043F9014666
:102B000098B9214629482BF04DFF002416E04FF4D8
:102B1000006227482BF046FF38E026482BF0AAFF3A
:102B200034E024482BF0A6FF30E023482BF03AFF96
:102B30002CE001A8FFF7A2FF119B1C4411AB40221F
:102B400001A912A810F0C0FA054688B9119969B117
:102B50000B19B3F5006FECD9C4F5006101A8FFF7BC
:102B60008DFF01231E464FF4006403E00E4601E092
:102B700000231E466DB912A810F05AFD76B90F4811
:102B80002BF078FF084A1368234413600DF5267D67
:102B900070BD29460A482BF005FFECE74FF40061B1
:102BA00008482BF0FFFEEAE79408002044020308DF
:102BB000D8010308000203082C020308A00203083E
:102BC0006402030880020308F0B5ADF52F7D1D46B1
:102BD000052902DD0DF52F7DF0BD04460F46164692
:102BE00001469AA810F069FE024600BB52A99AA8B5
:102BF00010F0C3FE0146F8B99DF86231FBB12949D6
:102C00000DF5B170FDF7E8FD0028EFD026490DF570
:102C1000B170FDF7E1FD0028E8D02046FDF7E6FDA4
:102C200088B1431EE35C2F2B2DD0204A0CE02146B7
:102C30001F482BF0B7FECDE71E482BF0B3FE9AA835
:102C400010F091FEC6E7194A0DF5B1730193009299
:102C50002346194A4FF4A07102A82BF013FF9DF8E8
:102C6000543113F0100F10D02B6801332B6002A9E0
:102C700012482BF097FE2B4632463946013102A806
:102C8000FFF7A2FFB2E70E4ADEE733680133336095
:102C9000529A02A90B482BF085FE529902A8FFF721
:102CA00019FFA3E7F0020308F4020308B0020308C7
:102CB000B4020308D4020308F8020308000303085F
:102CC000440703080C03030810B582B000240194E4
:102CD000009411482BF0CEFEFFF78AFE0F482BF030
:102CE000C9FE0F4B1C606B4601AA21460D48FFF739
:102CF0006BFF019A00990C482BF054FE202008F03D
:102D0000C1FD38B10446014608482BF04BFE204671
:102D100008F05CFE02B010BD280303083C03030862
:102D200094080020680303086C030308A003030849
:102D300000B583B0174B1B68ADF804301B0C8DF841
:102D4000063007E014482BF02DFE144B05221A70B4
:102D5000FFF718F84FF0FF31114B186808F076F8BC
:102D600001200BF031F90028F4D00C4B03221A702B
:102D7000FEF7FCFF012201A90A480FF0D7FF014628
:102D80000028DFD1054B04221A70FFF79DFFFEF7E4
:102D9000F9FFDFE7E0000308D0030308D80A0020AA
:102DA000980800209C08002008B507482BF062FE18
:102DB000064B02221A70064B186820B100231A46EF
:102DC000194607F0F9FD08BDE8030308D80A0020FA
:102DD0009808002008B505482BF04CFE0020044B55
:102DE0001870024603490FF0A1FF08BD080403084C
:102DF000D80A0020E000030800B583B003220021B8
:102E0000012007F0ADFD094B186060B1002301936C
:102E1000022200924FF400620549064806F0ACFF1A
:102E2000012800D0002003B000BD00BF980800209A
:102E30001C040308312D000800B583B003F0A2F88C
:102E40000B4B1B8BADF8043001A9002008F078FE75
:102E500040B108482BF00EFE00214FF0FF3009F082
:102E6000DFFDF9E704482BF005FEFFF7E1F8F0E796
:102E7000A0F6020838040308240403080E4AD2F816
:102E8000FC3043F08073C2F8FC30A2F55D42136859
:102E900043F00103136000235360084B1B6808498B
:102EA000A1FB03139B0C03FB00F05268054B5B680E
:102EB0009B1A8342FAD3704700ED00E064010020C2
:102EC00083DE1B43001000E000B587B002468DF89A
:102ED00017100A230293012301930DF117010091AA
:102EE0003C21044804F054FE08B907B000BD4FF07F
:102EF000FF30FAE7E40A002000B585B002460A2355
:102F000002930123019300913C21044804F0F2FE56
:102F100008B905B000BD4FF0FF30FAE7E40A002021
:102F200008B542F21070FFF7A9FF04210020FFF757
:102F3000CBFF48B944F62060FFF7A0FF0321002033
:102F4000FFF7C2FF18B908BD4FF0FF30FBE74FF0A5
:102F5000FF30F8E730B583B005460024052C09DCC6
:102F6000E0B20A3069462144C0B2FFF7C5FF60BB3A
:102F70000134F3E79DF800309DF90020002A16DBAC
:102F80009DF8012003F0030343EA8203AB809DF820
:102F900003209DF8023043EA02232B809DF8042091
:102FA00012F0400F06D00020688003B030BD00232F
:102FB000AB80ECE79DF805301B0103F47C7302F055
:102FC0000F0213436B800020EFE74FF0FF30ECE778
:102FD0000E4AD2F8FC3043F08073C2F8FC30A2F500
:102FE0005D42136843F00103136000235360084BF4
:102FF0001B680849A1FB03139B0C03FB00F05268FC
:10300000054B5B689B1A8342FAD3704700ED00E0E2
:103010006401002083DE1B43001000E0F8B5044685
:103020000E46154602F08EFC194B1878400000F051
:10303000FE0002F09BFC20BB200A02F097FC00BBC4
:10304000E0B202F093FCE0B902F07CFC104B18787F
:103050004000C0B240F0010002F088FC074680B991
:10306000044608E0681E201A18BF012002F0A5FCE3
:1030700030550134A4B2AC42F4D302F06DFC3846B2
:10308000F8BD02F069FC4FF0FF331F46F7E700BFC1
:10309000E00A0020F8B504460E46154602F052FC40
:1030A000124B1878400000F0FE0002F05FFCA8B957
:1030B000200A02F05BFC88B9E0B202F057FC074638
:1030C00060B90446AC4206D2305D02F04FFC28B92C
:1030D0000134A4B2F6E702F03FFC04E002F03CFC4D
:1030E0004FF0FF331F463846F8BD00BFE00A00200E
:1030F00000B583B000231A4604E01349C95C0A44B2
:1031000001339BB2B72BF8D952428DF8042090B10D
:1031100001238DF80530B8220B4948F24700FFF72C
:10312000B9FF50B9022201A948F2FF00FFF7B2FF30
:1031300030B903B000BD0346EBE74FF0FF30F8E7CE
:103140004FF0FF30F5E700BF6C0C03082DE9F047A6
:103150008AB00024984B1C70984B1C70984B1C70C4
:10316000984B1C601C713F221A700094964B1A6B8E
:1031700042F080021A631A6B02F080020092009AF9
:1031800001941A6B42F480721A631B6B03F4807310
:103190000193019B01250695079502230893099445
:1031A0004FF48078CDF8148005AE884F314638460C
:1031B00003F06CFD069407954FF0800ACDF814A03B
:1031C000DFF80C923146484603F060FD02F072FBD6
:1031D00022464146384603F070FE42F21070FFF777
:1031E000F7FE2A464146384603F067FE42F2107069
:1031F000FFF7EEFE06940794CDF814A0314648463A
:1032000003F044FD7348FFF7E3FE012C11DC724B21
:103210001A5D6A4B1A7000230493042204A948F231
:103220004010FFF7FBFE20B1644B00221A700134FE
:10323000EBE7644B049A1A6000221A715F4B1C780A
:10324000002C3FD065495F48FDF7C6FA002841D100
:1032500022460124624B5B4962482BF0A3FB002C01
:1032600060D0052202A948F24700FFF7D7FE98B9BF
:103270009DF80820524B1A709DF80A209DF80930DD
:1032800043EA0223584A13809DF80C209DF80B3026
:1032900043EA0223554A1380544B1B88524A128832
:1032A0004749097852482BF07DFB4C494548FDF7CA
:1032B00093FA00283CD0404B01221A7000200AB03B
:1032C000BDE8F0875D2214214A482BF06BFB4FF0DC
:1032D000FF30F4E748493B48FDF77EFA18B922462B
:1032E00001243F4BB7E745493648FDF775FA18B951
:1032F000224601243A4BAEE741493248FDF76CFAC9
:1033000018B922460124364BA5E73E492D48FDF762
:1033100063FA18B922460124314B9CE72246002467
:10332000394B98E739482BF0A5FB6FF00100C6E751
:1033300002238DF80F3001220DF10F0148F24000F9
:10334000FFF7A8FE58B91E4B1B785F2B21D8012030
:10335000FFF7CEFE48B12E482BF08CFB1CE02D4829
:103360002BF088FB6FF00100A9E74FF448734FF48E
:10337000F072B82128482BF015FB114B60221A700F
:10338000194B4FF4F0721A80184B4FF448721A80A0
:1033900002E022482BF06EFB00238DF80F30012253
:1033A0000DF10F0148F24000FFF774FE42F2107079
:1033B000FFF70EFE7FE700BFDF0A0020E00A0020D3
:1033C000DE0A00206C00002000380240002002408D
:1033D000001C0240A0860100680C03084405030895
:1033E000E404030864050308DC0A0020DA0A00206C
:1033F000CC050308F80403084C050308500503082E
:103400005805030860050308EC0403089405030845
:103410002C060308080603084C0603088406030864
:10342000024B1878003818BF01207047DF0A0020CF
:10343000004870476C000020014B1878704700BFAF
:10344000E00A0020014B1878704700BFDE0A002018
:10345000014B1888704700BFDC0A0020014B188818
:10346000704700BFDA0A002070B584B000238DF8E1
:103470000F308DF807302C4B1B78002B48D00646B8
:103480000D46002847D0002948D001220DF10F0138
:1034900048F24E10FFF7C2FD002842D19DF80F30D0
:1034A00003F00F03052B00D90523AB4200D81D46BE
:1034B0004DB901220DF1070148F24E10FFF7EAFD68
:1034C000284604B070BD0024A5421DD9A4F6D670CC
:1034D00080B2C00080B2042202A9FFF79FFDA8B904
:1034E0009DF809109DF8083006EB840243EA012399
:1034F00026F824309DF80B109DF80A3043EA01238A
:1035000053800134E4B2DFE72546D2E72546D0E711
:103510004FF0FF30D5E74FF0FF30D2E74FF0FF30EC
:10352000CFE74FF0FF30CCE7DF0A002084B00190F6
:10353000019B03EBC3035B00039300E000BF039B0D
:103540005A1E0392002BF9D104B0704700B587B022
:1035500001A9002301934B608B60CB600B611023AA
:1035600001930123029303230493024803F08EFB8B
:1035700007B000BD001C024000B587B001A90023C0
:1035800001934B608B60CB600B613023019312235E
:103590000293012303930323049304230593024816
:1035A00003F074FB07B000BD001C024010B588B0EA
:1035B00003A9002403944C608C60CC600C610194DE
:1035C0001B4B1A6C42F480021A641A6C02F48002DB
:1035D0000192019A02941A6B42F080021A631B6BEB
:1035E00003F080030293029B30230393122304937E
:1035F0000123059303230693042307930D4803F047
:1036000045FB0D480D4B03600D4B43608460C46067
:103610004FF48043036144618461C461046204F037
:10362000F1F808B908B010BDFEF702FDFAE700BFD7
:1036300000380240001C0240E40A0020005800400C
:10364000A0860100424B1B685A699B694149096980
:10365000C3F3400311F0200F04D002F4E0620BB971
:10366000002A6AD0F0B587B0FFF770FF0122102161
:10367000384803F022FC0A20FFF758FF0025082DE8
:1036800016DC344C00221021204603F016FC0A20E0
:10369000FFF74CFF01221021204603F00EFC0A2008
:1036A000FFF744FF236913F0200F01D10135E6E74E
:1036B00001A9002401944C608C60CC600C61202630
:1036C00001960127029703230493224D284603F015
:1036D000DDFA22463146284603F0EFFB0A20FFF7C9
:1036E00025FF3A463146284603F0E7FB0A20FFF75C
:1036F0001DFF174D284604F072F9284604F082F8A1
:10370000FFF73AFF144B6B60AC60EC604FF4804302
:103710002B616C61AC61EC612C62284604F072F89C
:1037200068B92B689B6913F0020F0BD1094B1B6919
:1037300013F0200F09D007B0F0BD104670474FF0CE
:10374000FF30F8E74FF0FF30F5E74FF0FF30F2E7DA
:10375000E40A0020001C0240A0860100002206E0CE
:1037600000BF01339BB2042BFAD9013292B28242DC
:1037700001D20023F7E7704700BF024BA3F8FE0019
:10378000704700BF00FF076082B000BF054BB3F871
:1037900000319BB2ADF80630BDF8060080B202B031
:1037A000704700BF00FF076000BF024BA3F8000195
:1037B000704700BF00FF076000BF034BA3F8FE0087
:1037C000A3F80011704700BF00FF076010B5042880
:1037D00068D05FD8022867D0032867D0012867D156
:1037E000802421464FF45850FFF7E6FF14F0200FD5
:1037F00066D0384AD3681269934203D23549CA6009
:103800009BB20B61334CE088FFF7B6FF0020FFF757
:10381000CBFFE088013080B2FFF7AEFF0020FFF75A
:10382000C3FFE088023080B2FFF7A6FFE0680138EE
:10383000C0F30F20FFF7B8FFE088033080B2FFF736
:103840009BFFA0890138C0B2FFF7AEFF2089FFF7C8
:1038500093FF0020FFF7A8FF2089013080B2FFF717
:103860008BFF0020FFF7A0FF2089023080B2FFF716
:1038700083FF20690138C0F30F20FFF795FF2089EF
:10388000033080B2FFF778FF208A0138C0B2FFF71B
:103890008BFF10BD06280DD007280DD005280DD1AF
:1038A00060249EE720249CE740249AE7C02498E700
:1038B000002496E7A02494E7E02492E7002490E710
:1038C000044AD368126993429CD90249CA609BB2E8
:1038D0000B6197E73C0B002008B50020FFF776FF4F
:1038E00008BD00002DE9F04794B00DAE00240D9402
:1038F0000E940F94109411941294139406AF06949E
:103900000794089409940A940B940C9401AD0194C3
:103910000294039404940594DFF8E0A02246202149
:10392000504603F0CAFA202301934FF00108CDF866
:103930000880CDF80C804FF00209CDF81090294690
:10394000504603F0A3F9CDF80890039403230493A1
:103950000C2305934FF6B37301932946284803F0CF
:1039600095F94FF6807301932946264803F08EF9A6
:103970004FF23F0301932946234803F087F93F2381
:1039800001932946214803F081F921484FF0204353
:10399000036003F5827343608460C4600461102295
:1039A00042618461C461046244624FF48053836263
:1039B000C4624FF48043036344638463C463446418
:1039C0000F230D930E9346210F91CDF84080119255
:1039D000112112911394069307930893CDF8248034
:1039E0000A920B910C943A46314604F008FD10B946
:1039F00014B0BDE8F0874046FAE700BF000402407B
:103A0000000C024000100240001402400018024066
:103A1000500B0020004870473C0B0020024B1878E8
:103A2000003818BF01207047380B002070B50546DC
:103A30000E460F4CE088FFF79FFE280AFFF7B4FE02
:103A4000E088013080B2FFF797FEE8B2FFF7ACFEE6
:103A50002089FFF791FE300AFFF7A6FE208901308A
:103A600080B2FFF789FEF0B2FFF79EFE70BD00BF87
:103A70003C0B0020034B9A88034BA3F8FE2000BFA9
:103A8000704700BF3C0B002000FF076038B50546BB
:103A90000A4BDA681C6902FB04F400210846FFF7B0
:103AA000C5FFFFF7E7FF002204E0ABB20449A1F82D
:103AB00000310132A242F8D338BD00BF3C0B0020D8
:103AC00000FF076010B582B04FF45B40FFF754FE73
:103AD000FFF75AFE04468DF804004FF45C40FFF7F0
:103AE0004BFEFFF751FE8DF80500C1B2E0B241EA8E
:103AF0000021284C218028482AF054FF2388B3F560
:103B0000004F55D025482AF0B5FF0120FFF734FEBD
:103B10000A20FFF723FE7820FFF720FE1120FFF791
:103B20002BFE7820FFF71AFE55213A20FFF744FEBE
:103B300000213620FFF740FE2920FFF71DFE14204C
:103B4000FFF70CFE164B5A6822F00F025A605A68B3
:103B500022F470625A605A6842F004025A605A684D
:103B600042F480625A600020FFF7B6FE0020FFF7A3
:103B70008DFF012220210B4803F09FF90A4B0122FF
:103B80001A70044B1A69D96808482AF00BFF02B072
:103B900010BD00BF3C0B0020B4060308D406030888
:103BA000000100A000040240380B00200C070308AD
:103BB00055214FF47040FFF7FFFDAA214FF201009D
:103BC000FFF7FAFD52214FF20200FFF7F5FD082141
:103BD0004FF20300FFF7F0FD01214FF20400FFF761
:103BE000EBFD0D214FF43040FFF7E6FD0D214BF2C8
:103BF0000100FFF7E1FD0D214BF20200FFF7DCFDB4
:103C000034214FF43640FFF7D7FD34214BF20160E9
:103C1000FFF7D2FD34214BF20260FFF7CDFD0D21FD
:103C20004FF43140FFF7C8FD0D214BF20110FFF7B3
:103C3000C3FD0D214BF20210FFF7BEFD34214FF4FE
:103C40003740FFF7B9FD34214BF20170FFF7B4FDA7
:103C500034214BF20270FFF7AFFD00214FF43240E8
:103C6000FFF7AAFD00214BF20120FFF7A5FD00217F
:103C70004BF20220FFF7A0FD24214FF43840FFF75C
:103C80009BFD24214BF60100FFF796FD24214BF606
:103C90000200FFF791FD01214FF43F40FFF78CFD3B
:103CA0000F214FF43340FFF787FD0F214BF2013016
:103CB000FFF782FD0F214BF20230FFF77DFD34212B
:103CC0004FF43940FFF778FD34214BF60110FFF730
:103CD00073FD34214BF60210FFF76EFD08214FF4FF
:103CE0003540FFF769FD08214BF20150FFF764FDF5
:103CF00008214BF20250FFF75FFD03214FF44240D1
:103D0000FFF75AFD24214FF43A40FFF755FD2421D7
:103D10004BF60120FFF750FD24214BF60220FFF760
:103D20004BFD00214FF43C40FFF746FD78214BF658
:103D30000140FFF741FD00214BF60240FFF73CFD3B
:103D400000214FF43D40FFF737FD78214BF601503D
:103D5000FFF732FD00214BF60250FFF72DFD002149
:103D60004FF43E40FFF728FD64214BF60160FFF75A
:103D700023FD00214FF45140FFF71EFD33214DF28A
:103D80000110FFF719FD00214DF20210FFF714FD9D
:103D900034214DF20310FFF70FFD00214DF2041006
:103DA000FFF70AFD3A214DF20510FFF705FD00214E
:103DB0004DF20610FFF700FD4A214DF20710FFF704
:103DC000FBFC00214DF20810FFF7F6FC5C214DF2E0
:103DD0000910FFF7F1FC00214DF20A10FFF7ECFC8F
:103DE00081214DF20B10FFF7E7FC00214DF20C1082
:103DF000FFF7E2FCA6214DF20D10FFF7DDFC0021DC
:103E00004DF20E10FFF7D8FCE5214DF20F10FFF731
:103E1000D3FC01214DF21010FFF7CEFC13214DF21F
:103E20001110FFF7C9FC01214DF21210FFF7C4FC7D
:103E300054214DF21310FFF7BFFC01214DF2141075
:103E4000FFF7BAFC82214DF21510FFF7B5FC0121F6
:103E50004DF21610FFF7B0FCCA214DF21710FFF714
:103E6000ABFC02214DF21810FFF7A6FC00214DF229
:103E70001910FFF7A1FC02214DF21A10FFF79CFC6C
:103E800001214DF21B10FFF797FC02214DF21C108F
:103E9000FFF792FC34214DF21D10FFF78DFC02213B
:103EA0004DF21E10FFF788FC67214DF21F10FFF73F
:103EB00083FC02214DF22010FFF77EFC84214DF29D
:103EC0002110FFF779FC02214DF22210FFF774FC5C
:103ED000A4214DF22310FFF76FFC02214DF22410B4
:103EE000FFF76AFCB7214DF22510FFF765FC0221B0
:103EF0004DF22610FFF760FCCF214DF22710FFF79F
:103F00005BFC02214DF22810FFF756FCDE214DF23A
:103F10002910FFF751FC02214DF22A10FFF74CFC4B
:103F2000F2214DF22B10FFF747FC02214DF22C102D
:103F3000FFF742FCFE214DF22D10FFF73DFC03215F
:103F40004DF22E10FFF738FC10214DF22F10FFF725
:103F500033FC03214DF23010FFF72EFC33214DF2DC
:103F60003110FFF729FC03214DF23210FFF724FC3A
:103F70006D214DF23310FFF71FFC00214FF452402A
:103F8000FFF71AFC33214DF20120FFF715FC002149
:103F90004DF20220FFF710FC34214DF20320FFF711
:103FA0000BFC00214DF20420FFF706FC3A214DF2F4
:103FB0000520FFF701FC00214DF20620FFF7FCFB76
:103FC0004A214DF20720FFF7F7FB00214DF20820B0
:103FD000FFF7F2FB5C214DF20920FFF7EDFB00211A
:103FE0004DF20A20FFF7E8FB81214DF20B20FFF78D
:103FF000E3FB00214DF20C20FFF7DEFBA6214DF282
:104000000D20FFF7D9FB00214DF20E20FFF7D4FB66
:10401000E5214DF20F20FFF7CFFB01214DF21020DB
:10402000FFF7CAFB13214DF21120FFF7C5FB012159
:104030004DF21220FFF7C0FB54214DF21320FFF781
:10404000BBFB01214DF21420FFF7B6FB82214DF29C
:104050001520FFF7B1FB01214DF21620FFF7ACFB55
:10406000CA214DF21720FFF7A7FB02214DF21820BD
:10407000FFF7A2FB00214DF21920FFF79DFB022163
:104080004DF21A20FFF798FB01214DF21B20FFF79C
:1040900093FB02214DF21C20FFF78EFB34214DF2E1
:1040A0001D20FFF789FB02214DF21E20FFF784FB44
:1040B00067214DF21F20FFF77FFB02214DF22020E8
:1040C000FFF77AFB84214DF22120FFF775FB0221D7
:1040D0004DF22220FFF770FBA4214DF22320FFF7C1
:1040E0006BFB02214DF22420FFF766FBB7214DF256
:1040F0002520FFF761FB02214DF22620FFF75CFB34
:10410000CF214DF22720FFF757FB02214DF2282047
:10411000FFF752FBDE214DF22920FFF74DFB022174
:104120004DF22A20FFF748FBF2214DF22B20FFF73A
:1041300043FB02214DF22C20FFF73EFBFE214DF206
:104140002D20FFF739FB03214DF22E20FFF734FB22
:1041500010214DF22F20FFF72FFB03214DF23020CD
:10416000FFF72AFB33214DF23120FFF725FB032116
:104170004DF23220FFF720FB6D214DF23320FFF787
:104180001BFB00214FF45340FFF716FB33214DF288
:104190000130FFF711FB00214DF20230FFF70CFB5D
:1041A00034214DF20330FFF707FB00214DF20430BC
:1041B000FFF702FB3A214DF20530FFF7FDFA00212F
:1041C0004DF20630FFF7F8FA4A214DF20730FFF7BB
:1041D000F3FA00214DF20830FFF7EEFA5C214DF2C0
:1041E0000930FFF7E9FA00214DF20A30FFF7E4FA4F
:1041F00081214DF20B30FFF7DFFA00214DF20C3038
:10420000FFF7DAFAA6214DF20D30FFF7D5FA0021BB
:104210004DF20E30FFF7D0FAE5214DF20F30FFF7E7
:10422000CBFA01214DF21030FFF7C6FA13214DF2FF
:104230001130FFF7C1FA01214DF21230FFF7BCFA3D
:1042400054214DF21330FFF7B7FA01214DF214302B
:10425000FFF7B2FA82214DF21530FFF7ADFA0121D6
:104260004DF21630FFF7A8FACA214DF21730FFF7CA
:10427000A3FA02214DF21830FFF79EFA00214DF209
:104280001930FFF799FA02214DF21A30FFF794FA2C
:1042900001214DF21B30FFF78FFA02214DF21C3045
:1042A000FFF78AFA34214DF21D30FFF785FA02211B
:1042B0004DF21E30FFF780FA67214DF21F30FFF7F5
:1042C0007BFA02214DF22030FFF776FA84214DF27D
:1042D0002130FFF771FA02214DF22230FFF76CFA1C
:1042E000A4214DF22330FFF767FA02214DF224306A
:1042F000FFF762FAB7214DF22530FFF75DFA022190
:104300004DF22630FFF758FACF214DF22730FFF754
:1043100053FA02214DF22830FFF74EFADE214DF21A
:104320002930FFF749FA02214DF22A30FFF744FA0B
:10433000F2214DF22B30FFF73FFA02214DF22C30E3
:10434000FFF73AFAFE214DF22D30FFF735FA03213F
:104350004DF22E30FFF730FA10214DF22F30FFF7DB
:104360002BFA03214DF23030FFF726FA33214DF2BC
:104370003130FFF721FA03214DF23230FFF71CFAFA
:104380006D214DF23330FFF717FA00214FF45440FE
:10439000FFF712FA33214DF20140FFF70DFA002129
:1043A0004DF20240FFF708FA34214DF20340FFF7C7
:1043B00003FA00214DF20440FFF7FEF93A214DF2D5
:1043C0000540FFF7F9F900214DF20640FFF7F4F937
:1043D0004A214DF20740FFF7EFF900214DF2084066
:1043E000FFF7EAF95C214DF20940FFF7E5F90021FA
:1043F0004DF20A40FFF7E0F981214DF20B40FFF743
:10440000DBF900214DF20C40FFF7D6F9A6214DF261
:104410000D40FFF7D1F900214DF20E40FFF7CCF926
:10442000E5214DF20F40FFF7C7F901214DF2104091
:10443000FFF7C2F913214DF21140FFF7BDF9012139
:104440004DF21240FFF7B8F954214DF21340FFF737
:10445000B3F901214DF21440FFF7AEF982214DF27C
:104460001540FFF7A9F901214DF21640FFF7A4F915
:10447000CA214DF21740FFF79FF902214DF2184073
:10448000FFF79AF900214DF21940FFF795F9022143
:104490004DF21A40FFF790F901214DF21B40FFF752
:1044A0008BF902214DF21C40FFF786F934214DF2C1
:1044B0001D40FFF781F902214DF21E40FFF77CF904
:1044C00067214DF21F40FFF777F902214DF220409E
:1044D000FFF772F984214DF22140FFF76DF90221B7
:1044E0004DF22240FFF768F9A4214DF22340FFF777
:1044F00063F902214DF22440FFF75EF9B7214DF236
:104500002540FFF759F902214DF22640FFF754F9F3
:10451000CF214DF22740FFF74FF902214DF22840FD
:10452000FFF74AF9DE214DF22940FFF745F9022154
:104530004DF22A40FFF740F9F2214DF22B40FFF7F0
:104540003BF902214DF22C40FFF736F9FE214DF2E6
:104550002D40FFF731F903214DF22E40FFF72CF9E2
:1045600010214DF22F40FFF727F903214DF2304083
:10457000FFF722F933214DF23140FFF71DF90321F6
:104580004DF23240FFF718F96D214DF23340FFF73D
:1045900013F900214FF45540FFF70EF933214DF286
:1045A0000150FFF709F900214DF20250FFF704F91D
:1045B00034214DF20350FFF7FFF800214DF2045073
:1045C000FFF7FAF83A214DF20550FFF7F5F8002110
:1045D0004DF20650FFF7F0F84A214DF20750FFF771
:1045E000EBF800214DF20850FFF7E6F85C214DF2A0
:1045F0000950FFF7E1F800214DF20A50FFF7DCF80F
:1046000081214DF20B50FFF7D7F800214DF20C50ED
:10461000FFF7D2F8A6214DF20D50FFF7CDF800219B
:104620004DF20E50FFF7C8F8E5214DF20F50FFF79D
:10463000C3F801214DF21050FFF7BEF813214DF2DF
:104640001150FFF7B9F801214DF21250FFF7B4F8FD
:1046500054214DF21350FFF7AFF801214DF21450E1
:10466000FFF7AAF882214DF21550FFF7A5F80121B6
:104670004DF21650FFF7A0F8CA214DF21750FFF780
:104680009BF802214DF21850FFF796F800214DF2E9
:104690001950FFF791F802214DF21A50FFF78CF8EC
:1046A00001214DF21B50FFF787F802214DF21C50FB
:1046B000FFF782F834214DF21D50FFF77DF80221FB
:1046C0004DF21E50FFF778F867214DF21F50FFF7AB
:1046D00073F802214DF22050FFF76EF884214DF25D
:1046E0002150FFF769F802214DF22250FFF764F8DC
:1046F000A4214DF22350FFF75FF802214DF2245020
:10470000FFF75AF8B7214DF22550FFF755F802216F
:104710004DF22650FFF750F8CF214DF22750FFF70A
:104720004BF802214DF22850FFF746F8DE214DF2FA
:104730002950FFF741F802214DF22A50FFF73CF8CB
:10474000F2214DF22B50FFF737F802214DF22C5099
:10475000FFF732F8FE214DF22D50FFF72DF803211F
:104760004DF22E50FFF728F810214DF22F50FFF791
:1047700023F803214DF23050FFF71EF833214DF29C
:104780003150FFF719F803214DF23250FFF714F8BA
:104790006D214DF23350FFF70FF800214FF45640D2
:1047A000FFF70AF833214DF20160FFF705F8002109
:1047B0004DF20260FFF700F834214DF20360FEF77E
:1047C000FBFF00214DF20460FEF7F6FF3A214DF2A7
:1047D0000560FEF7F1FF00214DF20660FEF7ECFFE9
:1047E0004A214DF20760FEF7E7FF00214DF2086015
:1047F000FEF7E2FF5C214DF20960FEF7DDFF0021CC
:104800004DF20A60FEF7D8FF81214DF20B60FEF7F2
:10481000D3FF00214DF20C60FEF7CEFFA6214DF232
:104820000D60FEF7C9FF00214DF20E60FEF7C4FFD8
:10483000E5214DF20F60FEF7BFFF01214DF2106040
:10484000FEF7BAFF13214DF21160FEF7B5FF01210B
:104850004DF21260FEF7B0FF54214DF21360FEF7E7
:10486000ABFF01214DF21460FEF7A6FF82214DF24D
:104870001560FEF7A1FF01214DF21660FEF79CFFC7
:10488000CA214DF21760FEF797FF02214DF2186022
:10489000FEF792FF00214DF21960FEF78DFF022115
:1048A0004DF21A60FEF788FF01214DF21B60FEF702
:1048B00083FF02214DF21C60FEF77EFF34214DF292
:1048C0001D60FEF779FF02214DF21E60FEF774FFB6
:1048D00067214DF21F60FEF76FFF02214DF220604D
:1048E000FEF76AFF84214DF22160FEF765FF022189
:1048F0004DF22260FEF760FFA4214DF22360FEF727
:104900005BFF02214DF22460FEF756FFB7214DF206
:104910002560FEF751FF02214DF22660FEF74CFFA5
:10492000CF214DF22760FEF747FF02214DF22860AC
:10493000FEF742FFDE214DF22960FEF73DFF022126
:104940004DF22A60FEF738FFF2214DF22B60FEF7A0
:1049500033FF02214DF22C60FEF72EFFFE214DF2B7
:104960002D60FEF729FF03214DF22E60FEF724FF94
:1049700010214DF22F60FEF71FFF03214DF2306032
:10498000FEF71AFF33214DF23160FEF715FF0321C8
:104990004DF23260FEF710FF6D214DF23360FEF7ED
:1049A0000BFF55214FF47040FEF706FFAA214FF28E
:1049B0000100FEF701FF52214FF20200FEF7FCFE5C
:1049C00008214FF20300FEF7F7FE00214FF204002A
:1049D000FEF7F2FECC214FF43140FEF7EDFE002150
:1049E0004BF20110FEF7E8FE05214FF43640FEF7CA
:1049F000E3FE70214FF43740FEF7DEFE70214BF2EC
:104A00000170FEF7D9FE01214FF43840FEF7D4FEC5
:104A100003214BF60100FEF7CFFE03214BF6020007
:104A2000FEF7CAFE03214BF60300FEF7C5FE022186
:104A30004FF43C40FEF7C0FE00214BF60140FEF76C
:104A4000BBFE00214BF60240FEF7B6FED0214FF42C
:104A50004940FEF7B1FE02214CF60110FEF7ACFE14
:104A600050214CF60210FEF7A7FE50214CF6031021
:104A7000FEF7A2FE50214CF60410FEF79DFE002129
:104A80004FF45450FEF798FE55214FF46850FEF74E
:104A900093FE4FF48850FEF76FFE7820FEF75EFE1F
:104AA0004FF42450FEF768FEFFF74CB810B5124BD8
:104AB00000221A605A609A60DA601A614FF44872F4
:104AC000DA604FF4F0721A614FF430529A804FF46A
:104AD0002852DA804FF42C521A81FEF703FF044665
:104AE00030B9142001F00CFDFEF7ECFF204610BD9C
:104AF000024829F0BFFFF9E73C0B002048070308F4
:104B00002DE9F04383B00A9D03FB02F62DB18146E7
:104B1000884614460AB1009313B903B0BDE8F08388
:104B20002E4FF888FEF728FECDF804904A46100A6A
:104B3000FEF73AFEF888013080B2FEF71DFEDDF880
:104B400004905FFA89F0FEF72FFEF888023080B2F9
:104B5000FEF712FE4C44601EC0F30F20FEF724FE49
:104B6000F888033080B2FEF707FEA4B2601EC0B220
:104B7000FEF71AFE3889FEF7FFFD4446200AFEF7CD
:104B800013FE3889013080B2FEF7F6FD5FFA88F037
:104B9000FEF70AFE3889023080B2FEF7EDFD009B79
:104BA00043441C46581EC0F30F20FEF7FDFD388914
:104BB000033080B2FEF7E0FDA0B20138C0B2FEF7CC
:104BC000F3FDFEF757FF0023B342A6D235F81310CA
:104BD000034AA2F800110133F6E700BF3C0B0020A6
:104BE00000FF076018280AD005D80C2809D0102823
:104BF00009D102207047202807D1042070470320E4
:104C0000704701207047FF207047FF207047000069
:104C100010B5FDF7ABF8002401E00134E4B2042C38
:104C200010D80D4B234493F8D03D002BF5D04FF412
:104C3000147304FB03F303F51073074818440EF0D4
:104C4000F7FCEAE7FDF79EF840F6D852002102484B
:104C5000FBF773FF10BD00BFA80B002008B50A8941
:104C6000531E9BB2BF2B00D9C0220021FBF765FF6A
:104C700008BD0000F0B583B016461289531E9BB2E2
:104C8000BF2B4BD80F46037841787F33DBB27D2BA7
:104C900049D83F294AD9FF294BD07E2916D8402030
:104CA000091ABE2000FB03F353FA81F102FB01F560
:104CB000F088FFF797FF0446FF283DD0204B0344C0
:104CC00093F8D03D23B901231C4629E04120E7E7B2
:104CD000FDF74CF84FF41473204603FB00F000F589
:104CE0001070174BC31818461C462A4600230EF0B6
:104CF000AFFC70B901AB3289394620460EF0E4F9B9
:104D00000446FDF73FF834B93289019B9A4207D037
:104D100001E0FDF737F801231C4601E001231C46A2
:104D2000204603B0F0BD01231C46F9E701231C46D1
:104D3000F6E701231C46F3E701231C46F0E700BF1A
:104D4000A80B002000487047A00B0020002853D07B
:104D500070B58EB00646FFF75BFF0024274B1C7032
:104D6000FDF704F806E0264B2344012283F8D02DFA
:104D70000134E4B2042C1ED802AD224B53F8243087
:104D800000933346204A3021284629F07BFE4FF419
:104D9000147304FB03F303F510730122294618482A
:104DA00018440DF0EFFF02460028DCD002A9174896
:104DB00029F0F8FDDCE7FCF7E5FF114B93F8D13D56
:104DC0006BB90F4B93F8D23D4BB90D4B93F8D33DD4
:104DD0002BB90B4B93F8D43D0BB901200AE0084BDB
:104DE000012283F8D52D3346094A0421034829F0CE
:104DF00049FE00200EB070BD01207047A00B0020BE
:104E0000A80B0020240D0308680703087007030897
:104E100054F702080023184601E00133DBB2042BEB
:104E200009D8054A1A4492F8D02D002AF5D001225B
:104E30009A401043F1E77047A80B002070B138B5D5
:104E40000C46154661B16AB1FFF714FF00B938BDD1
:104E500029462046FFF702FF0120F8E701207047AE
:104E60000120F4E70120F2E730B587B001A9002363
:104E700001934B608B60CB600B6100930F4B1A6BFF
:104E800042F002021A631B6B03F002030093009BC3
:104E900003230193012402940394094D284601F051
:104EA000F5FE22460221284602F007F82246214656
:104EB000284602F002F807B030BD00BF00380240BB
:104EC0000004024008B540B90246022100F18040CA
:104ED00000F5013001F0F1FF08BD00220121024878
:104EE00001F0EBFFF8E700BF0004024008B540B94D
:104EF0000122022100F1804000F5013001F0DDFFC8
:104F000008BD01221146024801F0D7FFF8E700BFB3
:104F10000004024008B538B9022100F1804000F5D4
:104F2000013001F0D0FF08BD0121024801F0CBFFA4
:104F3000F9E700BF000402400E4AD2F8FC3043F00B
:104F40008073C2F8FC30A2F55D42136843F00103A0
:104F5000136000235360084B1B680849A1FB03132F
:104F60009B0C03FB00F05268054B5B689B1A834265
:104F7000FAD3704700ED00E06401002083DE1B439C
:104F8000001000E00378407840EA032000B2704748
:104F900000B585B002460A230293012301930091D4
:104FA000D021044802F0A6FE08B905B000BD4FF0BC
:104FB000FF30FAE7E40A002000B587B002468DF81A
:104FC00017100A230293012301930DF11701009199
:104FD000D021044802F0DCFD08B907B000BD4FF055
:104FE000FF30FAE7E40A0020F8B504460E461546FD
:104FF00019212520FFF7E0FFE0B921462620FFF721
:10500000DBFFD8B945F080012720FFF7D5FF074621
:10501000C0B94FF4FA60FFF78FFF0024AC4218D2FA
:1050200004F149003119C0B2FFF7B2FF70B9013481
:10503000E4B2F3E74FF0FF331F460AE04FF0FF33CF
:105040001F4606E04FF0FF331F4602E04FF0FF33EC
:105050001F463846F8BD38B504460D4618212520B0
:10506000FFF7AAFFA8B921462620FFF7A5FFA0B9A0
:1050700029466320FFF7A0FF98B981212720FFF779
:105080009BFF044688B94FF4FA60FFF755FF2046AE
:1050900038BD4FF0FF331C46F9E74FF0FF331C4695
:1050A000F5E74FF0FF331C46F1E74FF0FF331C46A6
:1050B000EDE7000010B582B000238DF807300DF148
:1050C00007017520FFF764FF002853D19DF80730D2
:1050D000712B52D101466B20FFF76EFF42F2107028
:1050E000FFF72AFF07211920FFF766FF03211A2087
:1050F000FFF762FF18211B20FFF75EFF10211C2025
:10510000FFF75AFF20216A20FFF756FF0D212420C8
:10511000FFF752FF41F28830FFF70EFF032201A98B
:105120001020FFF761FF044608B316210A20FFF79D
:1051300092FF28BB02B010BD04F108036B4413F8C2
:10514000040CFBF7EFF84FF08641FBF735F84FF012
:105150007C51FBF73BF94FF07051FBF737F94FF0FB
:105160007E51FBF72BF8084B43F824000134022C46
:10517000E2DDDAE74FF0FF30DCE74FF0FF30D9E750
:105180006FF00100D6E700BFA400002070B586B024
:1051900004460A2302930623019304AB00930123E0
:1051A0003B22D021444802F0A5FD002878D104AD6F
:1051B0002846FFF7E7FEFBF7B5F84FF06651FBF71F
:1051C00005F920600DF11200FFF7DCFEFBF7AAF8ED
:1051D0004FF06651FBF7FAF8606005A8FFF7D2FEC2
:1051E000FBF7A0F84FF06651FBF7F0F8A0600A2338
:1051F000029306230193009501234322D0212E48D8
:1052000002F078FD00284FD12846FFF7BBFEFBF7E0
:1052100089F82A49FBF78EF9E0600DF11200FFF7DB
:10522000B1FEFBF77FF82549FBF784F9206105A85B
:10523000FFF7A8FEFBF776F82049FBF77BF96061E2
:10524000062229460320FFF7CFFE064680BB2846EC
:10525000FFF798FEFBF766F81949FBF7B7F8194D09
:105260002968FBF7B3F8A0610DF11200FFF78AFE81
:10527000FBF758F81249FBF7A9F86968FBF7A6F89D
:10528000E06105A8FFF77EFEFBF74CF80C49FBF741
:105290009DF8A968FBF79AF82062304606B070BD09
:1052A0004FF0FF331E46F8E76FF001031E46F4E7A8
:1052B0006FF002031E46F0E7E40A00203333834117
:1052C0009A99193EA400002000B585B08DF80F0012
:1052D0006423009301230DF10F024021024802F0E4
:1052E00097FB05B000BD00BFE40A002010B588B0F0
:1052F00003AC0022039204920592069207921F4B80
:10530000596A41F400615962596A21F40061596295
:105310000092596C41F400615964596C01F40061C8
:10532000009100990192196B41F004011963196B06
:1053300001F004010191019902921A6B42F00802F6
:105340001A631B6B03F008030293029B4FF4F8539C
:1053500003930223049301230593032306930C2351
:1053600007932146064801F091FC0423039321464C
:10537000044801F08BFC08B010BD00BF00380240AB
:1053800000080240000C024008B5FFF7AFFF1248CA
:10539000124B0360002343608360C3600361436179
:1053A0000223836103F0F0FE20B10D4B00221A604E
:1053B000012008BD4FF40061074803F013FF18B93E
:1053C000074B01221A60F4E7034803F0F0FA044B9C
:1053D00000221A600120ECE784190020002C014013
:1053E0008019002008B5034803F0E1FA024B0022BF
:1053F0001A6008BD8419002080190020014B18682C
:10540000704700BF8019002070B582B0124B1B6836
:1054100023B901231E46304602B070BD4FF47A73A3
:10542000009313460A4601460C4803F0D3FA064699
:105430000028F0D10446094803F036FF0428EAD0DA
:10544000651CB4F57A7F04D2012001F059F82C468E
:10545000F1E703231E46DEE78019002084190020AF
:1054600070B582B0124B1B6823B901231E4630462B
:1054700002B070BD4FF47A73009313460A4601469A
:105480000C4803F0CBFB06460028F0D1044609483F
:1054900003F00AFF0428EAD0651CB4F57A7F04D231
:1054A000012001F02DF82C46F1E703231E46DEE72C
:1054B00080190020841900200C4B1B680BB90120B7
:1054C000704730B589B004460D466946084803F078
:1054D00076FE40B90CB1049B236015B1BDF81430C1
:1054E0002B8009B030BD0120FBE700BF80190020F0
:1054F000841900200E4AD2F8FC3043F08073C2F8C1
:10550000FC30A2F55D42136843F0010313600023F1
:105510005360084B1B680849A1FB03139B0C03FB5A
:1055200000F05268054B5B689B1A8342FAD37047C0
:1055300000ED00E06401002083DE1B43001000E06A
:1055400010B485B0204B0FCB04AC04E90F004FF032
:10555000000CBCF1020F30DC1C4B53F82C2022F065
:10556000030202F14042002303E0002142F823102D
:1055700001333F2BF9DD002003281BDC002307E06B
:1055800004A901EB800151F8101C42F823100133EB
:105590003F2BF5DD00233F2B0ADC52F8234004A902
:1055A00001EB800151F8101C8C4208D10133F2E765
:1055B0000130E1E70CF1010CCBE7002001E04FF0F6
:1055C000FF3005B010BC7047BCF60208380D030868
:1055D000F0B593B00BAE00240B940C940D940E9484
:1055E0000F941094119406AD0694079408940994AE
:1055F0000A940094464B9A6B42F001029A639A6BAC
:1056000002F001020092009A01941A6B42F020020B
:105610001A631A6B02F020020192019A02941A6B2B
:1056200042F004021A631A6B02F004020292029A18
:1056300003941A6B42F040021A631A6B02F04002A4
:105640000392039A04941A6B42F010021A631A6BC5
:1056500002F010020492049A05941A6B42F00802B8
:105660001A631B6B03F008030593059B022707973A
:10567000032309930C230A934FF63F03069329460D
:10568000244801F003FB0D2306932946224801F02C
:10569000FDFA48F2371306932946204801F0F6FA3E
:1056A0004FF68373069329461D4801F0EFFA4CF23A
:1056B0000373069329461B4801F0E8FA1A481B4B6E
:1056C00003604460012383600823C36010220261E9
:1056D000402242614FF4C0728261C4614FF40062A3
:1056E00002624FF4805242624FF4005282620B9782
:1056F0000C9306230D930E930F9710971197314635
:1057000002F023FE08B913B0F0BD4FF0FF30FAE706
:105710000038024000140240000802400018024015
:1057200000100240000C0240081A0020400100A0B6
:1057300000B585B094461A46002300930193029366
:105740000393009168B910230193CDF808C0039228
:105750004FF480526946054802F017FE18B905B0AB
:1057600000BD0823F0E74FF0FF30F8E7081A0020EB
:1057700010B50023012211461846FFF7D9FF044651
:105780004FF47A70FFF7B6FE00230122022118467B
:10579000FFF7CEFF04430023012203211846FFF741
:1057A000C7FF04434FF40C73012204210020FFF7CC
:1057B000BFFF204310BD000008B5FFF709FF58B92F
:1057C000FFF7D6FF58B940F2AB21084802F0FEFDC2
:1057D000FFF7B6FE30B908BD4FF0FF30FBE74FF0E2
:1057E000FF30F8E74FF0FF30F5E700BF081A002060
:1057F0000E4AD2F8FC3043F08073C2F8FC30A2F5B8
:105800005D42136843F00103136000235360084BAB
:105810001B680849A1FB03139B0C03FB00F05268B3
:10582000054B5B689B1A8342FAD3704700ED00E09A
:105830006401002083DE1B43001000E008B5012254
:105840000821034801F039FB0120FFF7D1FF08BD13
:105850000020024008B501224021034801F02DFB41
:105860000320FFF7C5FF08BD001C024008B5002259
:105870000821034801F021FB0120FFF7B9FF08BD13
:105880000020024008B500224021034801F015FB2A
:105890000320FFF7ADFF08BD001C024008B508213A
:1058A000034801F003FB012814BF0020012008BDBC
:1058B000002002402DE9F04389B0002201921E4BE6
:1058C000196B41F080011963196B01F0800101919E
:1058D00001990292196B41F4807119631B6B03F4F7
:1058E00080730293029B11230493012405940223E5
:1058F000069307924FF04008CDF80C800DF10C098B
:105900000E4F4946384601F0C1F9082603960C4D62
:105910004946284601F0BAF922464146384601F088
:10592000CCFA22463146284601F0C7FA1420FFF788
:105930005FFF09B0BDE8F08300380240001C024060
:105940000020024008B5FFF779FFFFF783FFFFF75C
:105950008DFFFFF797FF08BD08B5FFF793FFFFF72F
:1059600085FFFFF777FFFFF769FF08BD38B50446ED
:10597000002507E0FFF762FFFFF76CFF6400E4B269
:105980000135EDB2072D07D8FFF77CFF14F0800F2B
:10599000F0D1FFF76BFFEFE7FFF774FFFFF74EFF64
:1059A000FFF758FFFFF77AFF0446FFF76BFF0CB9CC
:1059B000204638BD4FF0FF34FAE770B50646FFF7D2
:1059C00061FFFFF73BFF0024254601E00135EDB202
:1059D000072D0FD8FFF756FF0320FFF709FFFFF74A
:1059E00039FF6400E4B2FFF759FF0028EED044F01D
:1059F0000104EBE7FFF746FF4EB1FFF737FFFFF774
:105A000029FFFFF73FFFFFF719FF204670BDFFF7A3
:105A100015FFF4E710B51C4603468C46DFF864E03A
:105A2000BEF800E0BEF1010F08D9174B1B88013BFF
:105A300003FB00F00EF1FF3EB0FBFEF313480088BD
:105A400001280AD9DFF848C0BCF800C00CF1FF3CBF
:105A500001FB0CFC0138BCFBF0FC0B4909889942A6
:105A600001D859B14B1E0A490988614502D839B19C
:105A700001F1FF3C1380A4F800C010BD0B46F2E713
:105A80008C46F7E73E1A0020B20000203C1A0020A6
:105A9000B000002030B587B0194D1A4C2946204679
:105AA00001F0A1FA02950123039302230493072333
:105AB000059302A9204601F00FFAD8B9124A01460F
:105AC000204601F089FAC0B902460621172000F0ED
:105AD00083FD172000F090FD0C4BD96803F580631F
