:020000040800F2
:1000000000000320296500081127000813270008B5
:10001000152700081727000819270008000000000E
:1000200000000000000000000000000041B50008D2
:100030001B2700080000000091B50008E5B6000885
:100040007965000879650008796500087965000818
:100050007965000879650008796500087965000808
:1000600079650008796500087965000879650008F8
:1000700079650008796500087965000879650008E8
:1000800079650008796500087965000879650008D8
:100090007965000879650008796500083927000846
:1000A00079650008796500087965000879650008B8
:1000B00079650008796500087965000879650008A8
:1000C0007965000879650008796500087965000898
:1000D00079650008796500087965000851600008B5
:1000E0007965000879650008796500087965000878
:1000F0007965000879650008796500087965000868
:100100007965000879650008796500087965000857
:100110007965000879650008796500081D270008E1
:100120007965000879650008796500087965000837
:100130007965000879650008796500087965000827
:100140007965000879650008796500082D270008A1
:100150007965000879650008796500087965000807
:1001600079650008796500087965000879650008F7
:1001700079650008796500087965000879650008E7
:1001800079650008796500087965000879650008D7
:1001900079650008796500087965000879650008C7
:0C01A000796500087965000879650008A1
:1001B00080F0004002E000BF81F0004142001FBF1C
:1001C0005FEA410392EA030F7FEA226C7FEA236C25
:1001D0006AD04FEA1262D2EB1363C1BFD21841401A
:1001E00048404140B8BF5B42192B88BF704710F0B0
:1001F000004F40F4000020F07F4018BF404211F053
:10020000004F41F4000121F07F4118BF494292EABA
:10021000030F3FD0A2F1010241FA03FC10EB0C00E6
:10022000C3F1200301FA03F100F0004302D5494273
:1002300060EB4000B0F5000F13D3B0F1807F06D320
:1002400040084FEA310102F10102FE2A51D2B1F118
:10025000004F40EBC25008BF20F0010040EA03000D
:100260007047490040EB0000013A28BFB0F5000F8D
:10027000EDD2B0FA80FCACF1080CB2EB0C0200FA43
:100280000CF0AABF00EBC25052421843BCBFD04092
:100290001843704792F0000F81F4000106BF80F40C
:1002A00000000132013BB5E74FEA41037FEA226CCF
:1002B00018BF7FEA236C21D092EA030F04D092F09A
:1002C000000F08BF0846704790EA010F1CBF0020CE
:1002D000704712F07F4F04D1400028BF40F000402B
:1002E000704712F100723CBF00F50000704700F04B
:1002F000004343F0FE4040F4000070477FEA226272
:1003000016BF08467FEA23630146420206BF5FEA42
:10031000412390EA010F40F4800070474FF0000342
:1003200004E000BF10F0004348BF40425FEA000C09
:1003300008BF704743F0964301464FF000001CE0B1
:1003400050EA010208BF70474FF000030AE000BF07
:1003500050EA010208BF704711F0004302D5404245
:1003600061EB41015FEA010C02BF844601460020B7
:1003700043F0B64308BFA3F18053A3F50003BCFAD2
:100380008CF2083AA3EBC25310DB01FA02FC63447F
:1003900000FA02FCC2F12002BCF1004F20FA02F286
:1003A00043EB020008BF20F00100704702F1200279
:1003B00001FA02FCC2F1200250EA4C0021FA02F2DA
:1003C00043EB020008BF20EADC7070474FF0FF0CDF
:1003D0001CEAD0521EBF1CEAD15392EA0C0F93EADA
:1003E0000C0F6FD01A4480EA010C400218BF5FEA7C
:1003F00041211ED04FF0006343EA501043EA5111EF
:10040000A0FB01310CF00040B1F5000F3EBF4900E8
:1004100041EAD3715B0040EA010062F17F02FD2AEC
:100420001DD8B3F1004F40EBC25008BF20F00100CF
:10043000704790F0000F0CF0004C08BF49024CEAE6
:10044000502040EA51207F3AC2BFD2F1FF0340EA78
:10045000C250704740F400004FF00003013A5DDCE9
:1004600012F1190FDCBF00F000407047C2F100022A
:10047000410021FA02F1C2F1200200FA02FC5FEA17
:10048000310040F1000053EA4C0308BF20EADC7061
:10049000704792F0000F00F0004C02BF400010F4D3
:1004A000000F013AF9D040EA0C0093F0000F01F080
:1004B000004C02BF490011F4000F013BF9D041EAA2
:1004C0000C018FE70CEAD15392EA0C0F18BF93EAA4
:1004D0000C0F0AD030F0004C18BF31F0004CD8D1CE
:1004E00080EA010000F00040704790F0000F17BF55
:1004F00090F0004F084691F0000F91F0004F14D09B
:1005000092EA0C0F01D142020FD193EA0C0F03D1F2
:100510004B0218BF084608D180EA010000F00040F5
:1005200040F0FE4040F40000704740F0FE4040F4D0
:10053000400070474FF0FF0C1CEAD0521EBF1CEA6F
:10054000D15392EA0C0F93EA0C0F69D0A2EB03028D
:1005500080EA010C49024FEA402037D04FF0805327
:1005600043EA111143EA10130CF000408B4238BFEC
:100570005B0042F17D024FF4000C8B4224BF5B1AFA
:1005800040EA0C00B3EB510F24BFA3EB510340EA48
:100590005C00B3EB910F24BFA3EB910340EA9C00F6
:1005A000B3EBD10F24BFA3EBD10340EADC001B0166
:1005B00018BF5FEA1C1CE0D1FD2A3FF650AF8B420A
:1005C00040EBC25008BF20F0010070470CF0004C17
:1005D0004CEA50207F32C2BFD2F1FF0340EAC25042
:1005E000704740F400004FF00003013A37E792F003
:1005F000000F00F0004C02BF400010F4000F013A61
:10060000F9D040EA0C0093F0000F01F0004C02BF5B
:10061000490011F4000F013BF9D041EA0C0195E7C4
:100620000CEAD15392EA0C0F08D142027FF47DAF5D
:1006300093EA0C0F7FF470AF084676E793EA0C0F4D
:1006400004D14B023FF44CAF08466EE730F0004C4B
:1006500018BF31F0004CCAD130F000427FF45CAFDB
:1006600031F000437FF43CAF5FE700BF4FF0FF3C49
:1006700006E000BF4FF0010C02E000BF4FF0010C9C
:100680004DF804CD4FEA40024FEA41037FEA226C65
:1006900018BF7FEA236C11D001B052EA530C18BF87
:1006A00090EA010F58BFB2EB030088BFC81738BFEC
:1006B0006FEAE17018BF40F0010070477FEA226CDA
:1006C00002D15FEA402C05D17FEA236CE4D15FEAD6
:1006D000412CE1D05DF8040B704700BF844608460A
:1006E0006146FFE70FB5FFF7C9FF002848BF10F1CB
:1006F000000F0FBD4DF808EDFFF7F4FF0CBF012010
:1007000000205DF808FB00BF4DF808EDFFF7EAFF99
:1007100034BF012000205DF808FB00BF4DF808ED54
:10072000FFF7E0FF94BF012000205DF808FB00BF49
:100730004DF808EDFFF7D2FF94BF012000205DF8CF
:1007400008FB00BF4DF808EDFFF7C8FF34BF0120DC
:1007500000205DF808FB00BF4FEA4002B2F1FE4FF7
:100760000FD34FF09E03B3EB12620DD94FEA002373
:1007700043F0004310F0004F23FA02F018BF40424C
:1007800070474FF00000704712F1610F01D1420233
:1007900005D110F0004008BF6FF0004070474FF0E7
:1007A0000000704753B94AB9002908BF00281CBF90
:1007B0004FF0FF314FF0FF3000F00CB8ADF1080CF6
:1007C0006DE904CE2DF0CEFFDDF804E0DDE9022373
:1007D00004B07047704700BF10F8012B11F8013BBF
:1007E000012A28BF9A42F7D0D01A7047034613F85F
:1007F000012B002AFBD1181A0138704700000000B5
:1008000001F0FF01102A2BDB10F0070F08D010F8C1
:10081000013B013A8B422DD010F0070F42B3F6D1C5
:10082000F0B441EA012141EA014122F007047FF0DE
:1008300000070023F0E80256083C85EA010586EA35
:10084000010685FA47F5A3FA87F586FA47F6A5FA71
:1008500087F68EB9EED1F0BC01F0FF0102F007027D
:1008600032B110F8013B013A83EA010313B1F8D128
:100870000020704701387047002D06BF3546033809
:10088000073815F0010F07D1013015F4807F02BF42
:10089000013015F4C03F0130F0BC0138704700BF93
:1008A0000348044B834202D0034B03B118477047FF
:1008B000C4010020C4010020000000000548064BD0
:1008C0001B1AD90F01EBA301491002D0034B03B14E
:1008D00018477047C4010020C40100200000000038
:1008E00010B5064C237843B9FFF7DAFF044B13B178
:1008F0000448AFF300800123237010BDC80100201D
:10090000000000003CF2020808B5054B1BB1054988
:100910000548AFF30080BDE80840FFF7CFBF00BF38
:1009200000000000CC0100203CF202080244034613
:10093000934200D1704703F8011BF9E770B50D4BE6
:100940000D4C00261D1BB6EBA50F09D12EF076FC31
:100950000A4C0B4B00261D1BB6EBA50F05D170BD35
:1009600054F8043B98470136EDE754F8043B9847A8
:100970000136F1E754FA030854FA030854FA03085D
:1009800058FA03087047704737B5002944D051F82A
:10099000043C0190002BA1F10404B8BFE41800F05E
:1009A000DDF81E4A0198136833B96360146003B020
:1009B000BDE8304000F0D8B8A34208D925686119D5
:1009C0008B4201BF19685B6849192160EDE71A463F
:1009D0005B680BB1A342FAD911685518A5420BD137
:1009E000246821445418A3421160E0D11C685B685C
:1009F00053600C441460DAE702D90C230360D6E795
:100A0000256861198B4204BF19685B68636004BF85
:100A1000491921605460CAE703B030BD28030020A3
:100A200070B50F4C0E462168054611B900F0A2F8CA
:100A300020603146284600F09DF8431C03D14FF05A
:100A4000FF34204670BDC41C24F00304A042F8D03B
:100A5000211A284600F08EF80130F2D1EFE700BFEE
:100A6000240300202DE9F843CD1C25F003050835AB
:100A70000C2D38BF0C25002D064601DBA94204D9F8
:100A80000C2333600020BDE8F883334F00F066F894
:100A90003B681C463CBB29463046FFF7C1FF431C60
:100AA000044656D13C68A046B8F1000F40D1002C56
:100AB00049D023684146304604EB030900F05AF858
:100AC000814540D121686D1A29463046FFF7A8FFBD
:100AD000013038D023682B4423603B685A685ABBE6
:100AE000C7F800800EE02268521B1ED40B2A16D9CC
:100AF0006119A342256018BF5960636808BF396057
:100B000062514B60304600F02FF804F10B00231DBA
:100B100020F00700C21A1CBF1B1AA350B3E762687B
:100B2000A3420CBF3A605A60ECE723466468B1E721
:100B30004446D8F80480B7E71A465B68A342FBD165
:100B400000235360DEE70C233360304600F00CF8DE
:100B500098E70560D6E700BF280300200148FFF7AB
:100B600011BF00BF200300200148FFF70CBF00BFEA
:100B70002003002038B5064C0023054608462360B4
:100B800001F0E2FD431C02D1236803B12B6038BDA4
:100B90001C030020030A420923F4FF6323F0070328
:100BA00002F4FC6213439BB2C0F3C40018437047C5
:100BB00003280DD006D801280CD002280CD068B923
:100BC0000948704704280BD005280BD10748704707
:100BD00007487047074870470748704707487047FD
:100BE0000748704705487047B0F20208ECF2020867
:100BF000D4F20208BCF20208C8F20208F4F20208B9
:100C0000E0F2020808B5164B186D70B1154B1B7851
:100C1000F3B115492DF000FA114B986C28B1114B26
:100C20001B78BBB111492DF0F7F90D4B586D70B120
:100C30000F4B1B7883B10F492DF0EEF9084BD86CA0
:100C400028B10B4B1B784BB10B492DF0E5F908BDD2
:100C50000A49DFE70A49E6E70A49EDE70A49F4E706
:100C6000500300203B030020FCF2020824F302089A
:100C70003A03002034F302085CF3020810F3020880
:100C80002CF3020848F302086CF3020810B5064B77
:100C90005C6844B1054B1878FFF78AFF02460449A7
:100CA00020462DF0F6F910BD50030020EC0A00207C
:100CB0007CF302082DE9F04182B0074688461546CC
:100CC00000211046FFF720FD48BB2C462046FFF7C9
:100CD00043FD0646FFF726FB01462046FFF76CFA68
:100CE0001149FFF773FB4FF07C51FFF767FAFFF7ED
:100CF00033FD0446632802DDA0F1640401360021BF
:100D00002846FFF701FD68B9084B01940096084A90
:100D1000414638462DF0AEFE02B0BDE8F08105F147
:100D20000044D3E7034BF0E70000C8424C0503083A
:100D30008CF30208ECF302082DE9F04391B08146F0
:100D4000884617460CAC1A4610212046FFF7B2FF22
:100D500008AD189A10212846FFF7ACFF04AE199A87
:100D600010213046FFF7A6FF1A9B039302960195C8
:100D700000943B46034A414648462DF07BFE11B0A5
:100D8000BDE8F08398F3020870B5A6B018A801F08A
:100D9000E9FB434B586AA8B19DF86030002B4FD057
:100DA000BDF862203F492DF074F93D4CBDF8642038
:100DB0003D49A06A2DF06DF9BDF866203B49E06A17
:100DC0002DF067F9364B186B002858D09DF8683025
:100DD000002B48D004AC364B02931D9B01931C9B07
:100DE00000931B9B334A50212046FFF7A5FF214665
:100DF0002B4D286B2DF010F92F4B0293209B019364
:100E00001F9B00931E9B2D4A50212046FFF794FF05
:100E10002146686B2DF000F99DF86930EBB1284B45
:100E20000293239B0193229B0093219B254A5021EF
:100E30002046FFF781FF2146A86B2DF0EDF81EE05C
:100E400021492DF0E9F8164C2049A06A2DF0E4F86C
:100E50001F49E06A2DF0E0F8B4E71E49104B986B8B
:100E60002DF0DAF80BE01C492DF0D6F80C4C1B499C
:100E7000606B2DF0D1F81A49A06B2DF0CDF8084B1E
:100E8000DC6B5CB1249D259B1E4604F0CBFF0090DB
:100E900033462A46134920462DF0FBF826B070BD94
:100EA00050030020B0F30208C0F30208D4F3020894
:100EB00018F402080CF4020828F402081CF40208D2
:100EC00034F402082CF40208E0F30208F0F30208FC
:100ED00000F4020838F4020854F4020864F402082A
:100EE00074F4020880F4020810B5002027F0CEFB4D
:100EF0001C4C2080002027F0E0FB1B4B1880B4F92D
:100F00000030002B15DD002816DD174BB3F800C0AC
:100F1000ACF16A031BB21D2B00DC1E23143B1349EA
:100F200081FB0321A1EBE37109B2114B198000226F
:100F30000FE001222280E6E70B4B01221A80E4E752
:100F400001F10A0312FB03F32A330A4820F8123096
:100F50000132022AF4DDACF1380C074BA3F800C0D3
:100F600010BD00BF380300203603002056555555EC
:100F70002E030020300300202C03002008B527F0AA
:100F80007FFB12F00DFF08BD70B504460D461646F6
:100F90001AF008FA3246294620461AF00AFA324672
:100FA000294620461AF0F0F93246294620461AF022
:100FB000F2F970BD38B50446102115F06BFE00251E
:100FC0002A464FF0000120461AF0FAF92A46FF217E
:100FD00020461AF0FCF92A4629462046FFF7D4FF9E
:100FE00038BDF8B50F4616461D462CF06FFC04467A
:100FF000002229461AF01CFA0698FFF7CBFD01469D
:10100000002220461AF00DFA0022114620461AF05E
:10101000DEF9002211462046FFF7B6FF0799204669
:101020002CF0FAFF32463946204616F04DFE204697
:10103000F8BD000030B583B00D46069901910093CC
:1010400013462A460021FFF7CCFF0446084BB3F9AC
:10105000001016F043FE0022022120461AF0EFF99C
:101060002A460021204616F02FFE204603B030BD50
:101070003803002010B582B0FFF780FF15F0FEFDA9
:101080000446124A002119F0FCFF2222104BB3F94A
:101090000010204616F050FE00221146204616F0A1
:1010A00013FE002241F2A30120461AF089F9002222
:1010B000FF2120461AF08BF9064B0093064B074A96
:1010C00005212046FFF7B6FF02B010BDFFFF0F005D
:1010D00038030020B4F40208DCD6D200403F0308F5
:1010E000F0B583B00F4616461D4615F0C7FD044601
:1010F0001D4A002119F0C5FF1C4B198818393246CA
:1011000009B2204616F018FE3A460C21204616F089
:10111000DBFD002241F2A30120461AF051F9002222
:10112000FF2120461AF053F9002248F2524120468E
:101130001AF054F90022012120461AF056F9002233
:1011400011462046FFF720FF1021204615F0A2FD92
:101150000195074B0093074B062208212046FFF715
:1011600040FF204603B0F0BDFFFF0F003803002012
:10117000DCD6D2005C3F03082DE9F04782B0FFF7D0
:10118000FDFE8246DFF8DC80374F384BB8F900208F
:10119000B7F90010FFF7A4FF8146354C354B01939A
:1011A000354E0096234620220821FFF71AFF334DC3
:1011B0006862334B01930096234638220821484643
:1011C000FFF70FFFA8622F4B019300962346502292
:1011D00008214846FFF705FFE8622B4BB8F90020CD
:1011E000B7F902105046FFF77BFF8146274B01936A
:1011F0000096234620220821FFF7F3FE2863244BA4
:10120000019300962346382208214846FFF7E9FE5D
:101210006863204B019300962346502208214846DC
:10122000FFF7DFFEA8631C4BB8F90020B7F90410E4
:101230005046FFF755FF0646184B0193184F00978D
:10124000234620220821FFF7CCFEE863154B0193CB
:1012500000972346382208213046FFF7C2FE02B02D
:10126000BDE8F0872E03002030030020CCF40208F4
:101270005C3F0308E0F30208DCD6D20050030020F4
:10128000F0F3020800F40208E8F4020854F402083B
:1012900064F4020874F4020804F5020814F5020864
:1012A0009088800020F50208F8B50D4617461E46C6
:1012B0002CF05EFA0446304A002119F0E2FEBDF936
:1012C00018203146204616F037FD3A46294620467A
:1012D00016F0FAFC002241F6051120461AF070F8CB
:1012E0000022FF2120461AF072F8002248F25241F3
:1012F00020461AF073F80022012120461AF075F8F2
:101300000022062120461AF0A1F8002211462046AC
:10131000FFF73AFE1021204615F0BCFC20462CF0C9
:10132000D5FA0546002215491AF082F800224DF23E
:10133000BB6128461AF075F80022114628461AF0BB
:1013400046F8002211462846FFF71EFE0799284658
:101350002CF062FE00231A460921284616F04AFDA9
:101360000221284615F096FC089B072204492046D6
:1013700012F08EFE2846F8BDFFFF0F00403F030825
:10138000BD1400082DE9F04184B0FFF7F7FD0746D2
:10139000394BB3F90040243C04EBD474631044F39C
:1013A0004F0418330FFA83F801230293334B019350
:1013B000C826009623463A220C21FFF775FF304DD0
:1013C000A8641AF04AF82864022302932D4B019373
:1013D000009623463A2241463846FFF765FFE86407
:1013E0001AF03BF86864284B1A88A2F5A67212B26C
:1013F0001D2A00DC1E22254B4FF486713846FFF76C
:101400006FFE0446224B1B78002B31D0214B0193F9
:10141000214B0093214B202208212046FFF7E1FDBC
:10142000174B18651E4B1B7823B31E4B1B4D0193A6
:10143000194B00932B46382208212046FFF7D1FD97
:101440000F4B5865184B0193184E00962B465022AF
:1014500008212046FFF7C5FD154B019300962B464A
:10146000682208212046FFF7BCFD04B0BDE8F081EA
:10147000104BCCE7104BD9E73803002044F50208A5
:101480005003002048F502083603002054F50208F6
:101490003B030020FCF20208DCD6D2005C3F0308CC
:1014A0003A03002034F302085CF5020890888000BB
:1014B00080F5020810F3020848F3020810B512F094
:1014C000D1FD0446012824D0274B1878B0FA80F0CB
:1014D0004009187003F054FF244BD86C30B1224BF4
:1014E0001B78002B3BD022492CF096FD1F4B586DEA
:1014F00030B11D4B1B78002B33D01E492CF08CFDD6
:10150000194B1B781C4A127821461C4800F048FDF4
:1015100010BD194A1378B3FA83F35B091370B3B1A2
:10152000012003F02FFD114B986C28B1124B1B7852
:101530008BB113492CF070FD0C4B186D0028DFD0D7
:101540000D4B1B784BB10F492CF066FDD8E70120FD
:1015500003F02CFDE7E70C49ECE70C49F4E70C49F4
:10156000C2E70C49CAE700BF3A030020500300203D
:101570005CF3020834F302083B0300209CF50208E8
:1015800024F30208FCF202082CF3020810F302080C
:101590006CF3020848F302082DE9F04F8DB0FFF715
:1015A000EDFC03905B4B5C4AB2F900205B49B1F95A
:1015B0000010FFF795FD074602F08CFA002800F0B6
:1015C000A680038804AD564A202128462DF052FA01
:1015D000544C0195544D009523462022082138464D
:1015E000FFF7FFFC514B0193009523463822082159
:1015F0003846FFF7F6FC4E4E30604E4B0193009597
:101600002346502208213846FFF7EBFC4A4B019352
:10161000DFF828A1CDF800A023466822082138462B
:10162000FFF7DFFCDFF8F090DFF8F0B0444BB9F9DA
:101630000020BBF902100398FFF752FD0746414B0B
:1016400001930095234620220821FFF7CAFC706011
:101650003D4B019300952346382208213846FFF779
:10166000C0FCB060DFF8E480CDF80480009523462C
:10167000502208213846FFF7B4FC0290F06005F0D4
:1016800027FA334BA3FB0032920C324902982CF01C
:1016900000FD314B0193009523466822082138460E
:1016A000FFF79FFC30612D4B0193CDF800A023463E
:1016B000802208213846FFF794FC7061284BB9F965
:1016C0000020BBF904100398FFF70AFD0746254BDD
:1016D00001930095234620220821FFF782FCB06188
:1016E000CDF8048000952346382208213846FFF7BC
:1016F00078FCF061CDF80480009523465022082143
:101700003846FFF76EFC30620DB0BDE8F08F03463F
:1017100058E700BFC4F502082E0300203003002064
:10172000D4F502085C3F0308DCD6D200F0F50208CD
:1017300050030020FCF5020818F60208908880008B
:1017400030F6020840F6020850F602084C0503087D
:1017500083DE1B435CF602086CF6020880F6020882
:101760009CF60208ACF602082DE9F0410D469046C1
:101770001F462BF0FDFF0446304E3246002119F083
:1017800080FC2C224821204616F0D6FA42462946F3
:10179000204616F099FA002241F60511204619F06C
:1017A0000FFE0022FF21204619F011FE002248F210
:1017B0005241204619F012FE00220121204619F064
:1017C00014FE00220421204619F040FE002211469A
:1017D0002046FFF7D9FB1021204615F05BFA204682
:1017E0002CF0AAFF05463246002119F04AFC1422CB
:1017F0001146284616F0A0FA0C221A21284616F0A7
:1018000063FA00220321284619F0F6FD00224DF26A
:10181000BB61284619F0FEFD00220121284619F07F
:10182000F2FD0322394628462CF092FF0221284679
:1018300015F030FA2046BDE8F08100BFFFFF0F0031
:1018400070B582B0FFF79AFB3A4B1D88A5F11803DB
:101850001EB215F013FA0446374A002119F011FCA4
:1018600030223146204616F067FA344BB3F9002097
:101870000C21204616F028FA002241F2A30120464E
:1018800019F09EFD0022FF21204619F0A0FD002244
:1018900048F25241204619F0A1FD002201212046C4
:1018A00019F0A3FD002211462046FFF76DFB102121
:1018B000204615F0EFF9224B022206212046FFF7C1
:1018C00053FF204E4FF0FF330722314612F0E0FB6A
:1018D000A5F166011C4B022209B22046FFF744FF26
:1018E00001230722314612F0D3FB184B0193184B0A
:1018F0000093184B0E2200212046FFF772FB164C76
:10190000A065A5F1C00109B216F0E8F90E22542134
:10191000A06D16F0D9F900220221A06D19F08FFDFB
:101920000E4B1A68032301320D49A06D2CF0B1FB58
:1019300002B070BD38030020FFFF0F002C03002011
:10194000640A0308DD1C0008580A03084C05030854
:10195000908880005C3F0308500300203C03002077
:10196000BCF6020810B5FFF709FB0446FFF7BCFA06
:101970002046FFF71FFBFFF77DFB0A4B1B68012B7F
:1019800009D0022B0AD0FFF707FEFFF759FF064BDD
:1019900001221A7010BDFFF7EFFBF6E7FFF7F2FC2C
:1019A000F3E700BF3C0300204103002008B5FFF728
:1019B000E5FA19F03BFE5C2200210448FEF7B6FF71
:1019C000034B00221A70FFF7CDFF08BD5003002023
:1019D000410300200C4B1B68A3B110B500F0B2FC12
:1019E00050B1094B1B681C4600F0B2FC0246074987
:1019F00020462CF04EFB10BD0549034B18682CF017
:101A00000BFBF8E7704700BF50030020C4F6020844
:101A1000E0F6020810B503F05DFA044603F0F2F9AF
:101A200003460D4A9068A0B154B11B78312B0DD0FC
:101A3000302B0FD004F01E031E2B05D0074906E003
:101A400007492CF0E9FA04E0064900E006492CF0C9
:101A5000E3FA10BD0549FAE7500300206CF70208CD
:101A600084F7020848F70208F8F6020820F702088F
:101A700000B585B0002303930293164B1869C8B1D3
:101A8000154B1A68154BA3FB023C1549A1FB02E359
:101A90005B09A1FB03E14909C1EB0111C3EB031E83
:101AA000A2EB8E020092A3EB81034FEADC220D49E8
:101AB0002CF0EFFA074B5B6953B102A903A804F0BD
:101AC00065FC029B039A0849024840692CF0E1FA40
:101AD00005B000BD5003002048030020C5B3A2910B
:101AE0008988888898F70208B0F7020808B504F0DA
:101AF0006BFD124B1B68C31AB3F57A7F05D30F4BEE
:101B000018600F4A1368013313600E4B1B6823B132
:101B1000022B10D0FFF738F908BDFFF7B7F8FFF731
:101B2000A7FF094B1B78002BF6D0FFF773FF064B7E
:101B300000221A70F0E7FFF765F8EDE74403002094
:101B4000480300203C0300204003002008B50A4B56
:101B5000186820B129F058FA074B00221A60FFF7E5
:101B60000DFA19F063FD5C2200210448FEF7DEFE49
:101B7000034B00221A7008BD4C03002050030020C4
:101B80004103002008B5194B1B78BBB10023184A4C
:101B90001360184A136004F017FD174B1860174BB9
:101BA00001221A70FFF716FFFFF734FFFFF76EF8F8
:101BB000FFF75EFF124B1B6873B108BDFFF794F986
:101BC000FFF7DCF919F032FD5C2200210D48FEF729
:101BD000ADFEFFF7C7FED9E71A464FF4FA710A487F
:101BE00029F0F2F9064B1860E7E700BF4103002037
:101BF0003C03002048030020440300204003002051
:101C00004C03002050030020ED1A000830B583B0CB
:101C10000446FFF7B3F90546FFF798FFFFF764F9AD
:101C20002846FFF7C7F96CB10094074B074A00211B
:101C30002846FFF7FFF900231A46092116F0DAF8C3
:101C400003B030BD024CEFE7DCD6D200403F0308C2
:101C50004C050308034B1B7813B1034B01221A7088
:101C6000704700BF4103002040030020184B1A6852
:101C70001044184B83FB0013A3EBE07303EB430307
:101C8000C31A15D49A4221D010B5114A14461360D4
:101C9000FFF78CFE23686BB1022B14D0FFF774F8AA
:101CA0000B4B1968032201310B4800F079F910BD84
:101CB0000333E7E7FEF7EAFFFFF78CFEFFF7AAFE24
:101CC000FFF7D6FEECE7FEF79DFFE9E7704700BFA0
:101CD0003C03002056555555D0F7020808B512F0C0
:101CE000C1F9FFF7C3FF08BD024B00221A700120A3
:101CF000704700BFAC05002008B502E0012008F0E5
:101D000097FA024B1B78002BF8D108BDAC050020D8
:101D100008B5012008F07EFF024B1860003818BF9C
:101D2000012008BDB005002008B5044B186818B1A3
:101D30004FF0FF3109F0F4F808BD00BFB0050020F6
:101D400008B5044B186820B100231A46194608F05C
:101D50009DFE08BDB005002010B518B101280BD0BC
:101D6000012010BD04460130C0B20CF095F908B155
:101D70002046F6E70220F4E703F09EFB08B10020BE
:101D8000EFE70220EDE708B510B1012801D00120EE
:101D900008BD03F091FB08B10020F9E70220F7E746
:101DA0002DE9F04184B00E4617461D46804628B105
:101DB000012816D0042004B0BDE8F08101301B4B8F
:101DC00001221A7000210291194B0193ADB20095C6
:101DD0003B463246C0B20CF0D5FAFFF78DFF4046C5
:101DE000E9E7FDB111F0030F11D00024AC4217D286
:101DF0000122E1190F4803F065FBA8B94FF4007206
:101E00000C4906EB44202CF0DCFE0134EEE72A46B8
:101E10003946304603F056FB0028CCD04046CAE78E
:101E20000020C8E70420C6E74046C4E7AC05002010
:101E3000E91C0008AC0300202DE9F04385B00F46F3
:101E400090461D46814628B1012816D0042005B0D1
:101E5000BDE8F08301301C4B01221A700021029171
:101E60001A4B0193ADB2009543463A46C0B20CF00E
:101E7000E5FAFFF741FF4846E9E70DB311F0030F1C
:101E800013D00024AC4219D2114E4FF4007207EB6C
:101E9000442130462CF095FE012204EB0801304627
:101EA00003F03CFB70B90134ECE72A464146384662
:101EB00003F034FB0028CAD04846C8E70020C6E734
:101EC0000420C4E74846C2E7AC050020E91C00082E
:101ED000AC03002070B582B00C4616460546F0B93A
:101EE0000130C0B2022914D00BD8002944D00129F6
:101EF00005D100210CF0B4F83060284612E004202F
:101F000010E0032903D10123136028460AE00420CE
:101F100008E000210CF0B2F83080284602E00128E9
:101F200002D0042002B070BD002301934FF400736F
:101F3000ADF80230022904D84BB253B9C1B90846F2
:101F4000F0E7032903D1012313600020EAE704200E
:101F5000E8E70DF1020101A803F00CFB50B9012CD8
:101F600003D0BDF802303380DCE7019B3360D9E752
:101F70000420D7E72846D5E70846D3E700B5B1B037
:101F800002460B46C02168462CF0CEFD011E05DB43
:101F9000BF2900DDBF21684603F0B2FF31B000BDAC
:101FA0000FB400B583B004A951F8040B0191FFF7F9
:101FB000E5FF03B05DF804EB04B0704710B50024F2
:101FC00005E0002003F006F8642008F031F9013440
:101FD000054A82FB0432E317C3EB620303EB83037E
:101FE0009C42EED0F0E700BF6766666610B5044617
:101FF00008F0C6FA022803D0204604F0EBFA10BD20
:10200000E30E6101091B63F100039B0043EA917336
:102010008900091943F10003DC004FF47A720023B0
:10202000C80044EA5171FEF7BDFB08F001F9E6E78C
:1020300000B583B072B6012002F0CCFF00230193FB
:10204000019A034B9A42F6D8019B01330193F7E7BB
:10205000FEFF010010B594B008AC302200212046EC
:10206000FEF764FC00230393049305930693079300
:102070000193204A116C41F080511164126C02F0FE
:1020800080520192019A02931B4B1A6842F440421B
:102090001A601B6803F440430293029B01230893D8
:1020A0004FF48033099302230E934FF480020F9272
:1020B000192210924FF4A8721192129307231393CE
:1020C000204604F007FB88B90F23039302230493EF
:1020D00005904FF4A05306934FF4805307930521C6
:1020E00003A804F049FD18B914B010BDFFF7A0FF14
:1020F000FFF79EFF003802400070004000B583B03B
:1021000004F03CFAFFF7A6FF02F00EFF002002F0F9
:102110004DFF012002F04AFF03F09EFE3648FFF714
:102120003FFF01F0A3FA01F0EDFA7F2003F016F96A
:102130003248FFF735FF3248FFF732FF03F074FBF8
:1021400020B13048FFF72CFFFFF772FF2E48FFF752
:1021500027FF2E4809F0E2FC2D48FFF721FFFFF78B
:10216000D7FD20B92B48FFF71BFFFFF761FF00F0F9
:10217000C3FE20B92848FFF713FFFFF759FF274890
:10218000FFF70EFF002401940323009323464FF42E
:1021900080622349234807F059FE019404230093E9
:1021A00023464FF400722049204807F04FFE019467
:1021B00001231D46009323464FF400721C491D481D
:1021C00007F044FE0194009523464FF480721A49AB
:1021D0001A4807F03BFE01940223009323464FF474
:1021E000C0621749174807F031FE84F3118862B6C0
:1021F00007F06CFEFFF71CFFECF70208FCF7020883
:1022000014F8020828F802083CF8020850000020E0
:102210004CF802087CF8020894F80208ACF80208AE
:10222000C8F80208392F0008D0F802086D27000806
:10223000D8F80208A1250008E0F80208BD1F000830
:10224000E4F80208C528000808B5FFF7F1FE08B554
:10225000FFF7EEFE08B5FFF7EBFE0000003818BFF1
:102260000120014B18607047B405002010B582B002
:1022700000230193ADF802301E4B1B6823B10023ED
:102280001C46204602B010BD03F0DCF848B11A4BE2
:102290001B6813B101231C46F3E71848FFF780FEC3
:1022A000F8E70DF1020101A803F064F90199890A28
:1022B000BDF8022002FB01F1890A1148FFF770FE08
:1022C000FFF732FD01220F490F4810F097FD044639
:1022D000FFF736FD34B9074B01221A600B48FFF7B0
:1022E0005FFECEE721460A48FFF75AFE01231C464F
:1022F000C7E700BFB8050020B4050020E8F80208D1
:1023000010F902083CF90208BC05002064F9020833
:1023100040F9020808B5094B1B6813B903F0C0F86F
:1023200008BDFFF701FD00220549104610F066FDCB
:10233000FFF706FD014B00221A60EFE7B805002009
:102340003CF90208014B1868704700BFB80500202F
:1023500000B583B0002301934FF40073ADF8023051
:102360000A4B1B6813B9184603B000BD0DF10201FA
:1023700001A803F0FFF838B90198800ABDF80230CF
:1023800003FB00F0800AEFE70020EDE7B80500202E
:1023900008B5034608461146D3F800C0BCF1000F4B
:1023A00005D0064A1268A2EB0C02772A04D9034A28
:1023B00012681A60FFF7F4FD08BD00BF0C0800208A
:1023C00008B500F01FFE08BD08B501F09BF938B94B
:1023D000054B1968013119600448FFF7E1FD08BD9C
:1023E0000348FFF7DDFDFAE7F807002078F9020857
:1023F000A4F9020838B504460D4607F09BFD2846AF
:10240000A047044607F066FE204638BD194B1B88DE
:102410001BB1013B174A1380704700B583B0694672
:102420001548FFF7E7FF68B9BDF80420134B5A8041
:10243000BDF800209A80BDF80220DA8001221A70CF
:1024400003B000BDFFF7C0FF69460B48FFF7D2FF9E
:1024500002460028E8D0094B00211970596B013160
:102460005963044B0421198005490648FFF790FF82
:10247000E6E700BF00080020C12300081008002084
:10248000D8F90208080800202D4B1B881BB1013B1E
:102490002B4A1380704700B58BB001A92948FFF77C
:1024A000A9FF10F1030F1AD8274B0199D96002999F
:1024B000196103995961049999610599D96106993E
:1024C000196201211972214B1B780BBB1E4B002294
:1024D0005A7200225A629A62DA620BB000BDFFF7AC
:1024E00073FF01A91748FFF785FF10F1030FDBD930
:1024F000154B002119725972596B01315963104BF8
:1025000004211980024612491248FFF741FFE4E70F
:1025100048B90D4B079A5A62089A9A62099ADA6288
:1025200001225A72D9E7084B00215972596B0131C7
:102530005963024608490748FFF72AFFCDE700BF65
:10254000FE0700205D25000810080020FC07002081
:1025500014FA02080408002050FA020808B502F034
:102560005FFE08BDC8B110B5044609F083F8A44663
:10257000DFF828E0BEE80F00ACE80F00BEE80F006F
:10258000ACE80F00BEE80F00ACE80F009EE80300C7
:102590008CE8030009F090F810BD70471008002087
:1025A00070B52048FFF7FCFC00F014FD054660B94B
:1025B0001D491E48FFF7F4FC02F0B4FD044640B18B
:1025C00010F1030F03D01A4E04E01949F1E7194E38
:1025D00000E0154E02F01EFE034622463146164824
:1025E000FFF7DEFC1CB90123144A13700EE0002330
:1025F000FAE7FFF70BFF0FE0FFF746FF104B1A68F3
:10260000104B1A634FF4FA7007F012FE0C4A13686D
:1026100001331360002DECD0002CEDD014F1030F2A
:10262000ECD1E9E7C4FA0208A0FA0208F4FA0208B9
:10263000A4FA0208ACFA020810FB0208FC0700200A
:102640000C0800201008002030B589B00546002392
:102650000193244B1A6C42F020021A641B6C03F0A5
:1026600020030193019B02A903A804F05BFB069BD6
:10267000FBB904F037FB03461B4AA2FB03239B0C68
:10268000013B1A481A4A026040F2E732C2604360D6
:102690000023036183608361436105F091FE04467A
:1026A00058B1372004F012F8C4B90F2D0ED9012407
:1026B00015E004F017FB4300DEE70C4C204605F064
:1026C00041FD204605F0FCFC0446EAE72246294687
:1026D000372003F0EBFF074B1D6000E0012420468C
:1026E00009B030BD0038024083DE1B43480800209B
:1026F000001400406401002008B50268034B9A42B0
:1027000000D008BD03F054FFFBE700BF00140040F9
:10271000FEE7FEE7FEE7FEE7FEE7704708B5024882
:1027200005F02DFD08BD00BF4808002008B50121B7
:1027300000200DF0B5FF08BD08B5024804F0C4FC48
:1027400008BD00BF681A00200346064A126822B17D
:10275000044A1068034413607047024A024911603A
:10276000F6E700BF90080020685200202DE9F84FDE
:102770004048FFF715FC03F04DFA38B13E48FFF72B
:102780000FFC4FF47A7007F053FDFAE73B48FFF770
:1027900007FC4FF00009C846CA46CB464FE003F09D
:1027A0003BFB01463648FFF7FBFB4FF0010B52E0C5
:1027B00003F00AFFA0EB0800B0F57A7F57D303F0CF
:1027C0002BFBA0EB0901B1F57A7F06D803F0FCFEE4
:1027D000804603F021FB814649E04FF47A72294894
:1027E000FFF7DEFB4FF0010AF0E703F015FBB842FC
:1027F00001D0002507E02448FFF7D2FB4FF0FF3758
:10280000354600E001350F2007F012FD022D0AD8F1
:10281000C72C08D8013403F08BFA0028F2DD002E13
:10282000E3D00025EFE7C72C04D940F6B8311748AC
:10283000FFF7B6FB052007F0FBFC03F0DBF903F024
:10284000EBFA07464FF47A7003F064FA064610B1CB
:10285000BBF1000FA3D0BAF1000F08D1B8F1000FFF
:10286000A6D103F0B1FE804603F0D6FA81460024DB
:102870002546CBE748FB02089CFB0208CCFB02087C
:1028800008FC020838FC02089CFC0208ECFC020868
:1028900010B5044602F0BAFA50B902F01BFB02462A
:1028A00021460648FFF77CFB03F04AFD012010BDDE
:1028B00021460348FFF774FB0020F8E768FD020893
:1028C00044FD020830B583B07248FFF769FB02F09F
:1028D0004DF938B17048FFF763FB4FF47A7007F099
:1028E000A7FCFAE7044614F09DF903F0AFFD03F0EE
:1028F00003FE002025F0CAFE0546002025F0DDFE7F
:10290000024629466548FFF74BFB6548FFF77EF90D
:1029100028F0C0FB6348FFF743FB07F013FB624B53
:102920001860A0F5FA70614B186054E0FFF792F957
:102930005FE040F6B8336DE05C4B1D60FFF796FC3E
:1029400018B95B4B01221A7066E00120FFF786FC84
:1029500062E0584B01221A705748FFF721FB574895
:10296000FFF796FF50B1FFF70DF9554B01221A7092
:10297000544B1D605448FFF713FB54E0FFF7CAFCAB
:102980004B4B00221A704EE0504B01221A705048F7
:10299000FFF706FB4F48FFF77BFF00284ED0FFF7FD
:1029A000F1F8474B01221A70464B1D604A48FFF769
:1029B000F7FA43E04948FFF729F9414B02221A7020
:1029C0003A4B1D604648FFF7EBFA41E028F062FB06
:1029D000052007F02DFC07F0B5FA0546414B1B78A2
:1029E000A34206D03F4B1C78E4B2354B1B78012B39
:1029F0009CD0334B1B78012B2AD02D4A12785AB920
:102A00002C4A127842B9294A1268AA1A022B90D08D
:102A10004FF4FA739A428FD2254B1B781BB1254B8A
:102A20001B78002B95D0264B1B78012B06D0274B0B
:102A30001B781BB92B4B1B78042BA5D0204B1B7884
:102A400033B9194B1B68EB1A42F20F729342B1D89B
:102A50001B4B1B78012BB9D1234B1B78002BB5D115
:102A6000184B18680028B1D0281A40F2DB5398425E
:102A7000ACD90023009301931B4B01221A7001A9CA
:102A8000684603F083FC019A00991848FFF788FA1A
:102A90009CE700BF88FD0208B0FD0208E0FD0208C7
:102AA00018FE020834FE02089C080020A00800203E
:102AB000A6080020A508002064FE02083CF90208D0
:102AC000A7080020980800208CFE0208A408002017
:102AD000B4FE0208D8FE0208DCFE020804FF020869
:102AE00024FF0208EC0A00209408002054FF02088A
:102AF00070B5ADF51C7D1D4810F0D8FF1C4810F0D6
:102B0000D5FF96AC1B4D0FCD0FC495E8030084E8AC
:102B10000300002404E029461748FFF741FA013476
:102B2000022C1FD89CAB03EBC40353F8185C0A2299
:102B3000294602A810F08EF902460028EBD19CAB82
:102B400003EBC40353F8146C3046FDF74FFE024606
:102B500002AD01AB3146284610F005FC284610F0C6
:102B6000CFFDDCE70DF51C7D70BD00BFA0FF0208A6
:102B7000A8FF020854F20208B4FF020870B590B032
:102B800006460D46002423460AE0591C03F1400086
:102B90000DEB000C0CF8402C3F2B0ED001340B46F3
:102BA000AC420FD2325D1F2AEFD80D2AEDD00A2A8F
:102BB000EBD0092AE9D02E22E7E7684603F0A0F916
:102BC0000021EBE70BB910B070BD1946684603F061
:102BD00097F9F8E770B5ADF5267D0C46B1F5006FB5
:102BE00015D8314B1B68B3F5804F16D2C3F580431F
:102BF000994216D80122014612A810F02BF901467D
:102C000098B921462948FFF7CBF9002416E04FF484
:102C100000622748FFF7C4F938E02648FFF7C0F9FB
:102C200034E02448FFF7BCF930E02348FFF7B8F957
:102C30002CE001A8FFF7A2FF119B1C4411AB40221E
:102C400001A912A810F0A8FA054688B9119969B12E
:102C50000B19B3F5006FECD9C4F5006101A8FFF7BB
:102C60008DFF01231E464FF4006403E00E4601E091
:102C700000231E466DB912A810F042FD76B90F4828
:102C8000FFF78EF9084A1368234413600DF5267D7B
:102C900070BD29460A48FFF783F9ECE74FF400615D
:102CA0000848FFF77DF9EAE7A80800204400030878
:102CB000D4FF0208FCFF02082C000308A000030850
:102CC0006400030880000308F0B5ADF52F7D1D46B4
:102CD000052902DD0DF52F7DF0BD04460F46164691
:102CE00001469AA810F051FE024600BB52A99AA8CC
:102CF00010F0ABFE0146F8B99DF86231FBB12949ED
:102D00000DF5B170FDF768FD0028EFD026490DF5EF
:102D1000B170FDF761FD0028E8D02046FDF766FDA3
:102D200088B1431EE35C2F2B2DD0204A0CE02146B6
:102D30001F48FFF735F9CDE71E48FFF731F99AA88C
:102D400010F079FEC6E7194A0DF5B17301930092B0
:102D50002346194A4FF4A07102A82BF08BFE9DF870
:102D6000543113F0100F10D02B6801332B6002A9DF
:102D70001248FFF715F92B4632463946013102A8B1
:102D8000FFF7A2FFB2E70E4ADEE733680133336094
:102D9000529A02A90B48FFF703F9529902A8FFF7CC
:102DA00019FFA3E7F0000308F4000308B0000308CC
:102DB000B4000308D4000308F80003080001030866
:102DC0004C0503080C01030810B582B000240194DF
:102DD00000941148FFF7E4F8FFF78AFE0F48FFF769
:102DE000DFF80F4B1C606B4601AA21460D48FFF728
:102DF0006BFF019A00990C48FFF7D2F8202008F0E9
:102E0000A9FD38B1044601460848FFF7C9F8204635
:102E100008F044FE02B010BD280103083C0103087D
:102E2000A8080020680103086C010308A00103083A
:102E300000B583B0174B1B68ADF804301B0C8DF840
:102E4000063007E01448FFF7ABF8144B05221A7060
:102E5000FEF776FF4FF0FF31114B186808F060F86D
:102E600001200BF019F90028F4D00C4B03221A7042
:102E7000FEF75AFF012201A90A480FF0BFFF0146E1
:102E80000028DFD1054B04221A70FFF79DFFFEF7E3
:102E900057FFDFE7D8FE0208D0010308EC0A002044
:102EA000AC080020B008002008B50748FFF778F804
:102EB000064B02221A70064B186820B100231A46EE
:102EC000194607F0E3FD08BDE8010308EC0A0020FD
:102ED000AC08002008B50548FFF762F80020044B55
:102EE0001870024603490FF089FF08BD0C02030861
:102EF000EC0A0020D8FE020800B583B003220021AE
:102F0000012007F097FD094B186060B10023019381
:102F1000022200924FF400620549064806F096FF2F
:102F2000012800D0002003B000BD00BFAC08002085
:102F300020020308312E000800B583B003F08CF89E
:102F40000B4B1B8BADF8043001A9002008F060FE8C
:102F500040B10848FFF724F800214FF0FF3009F096
:102F6000C7FDF9E70448FFF71BF8FFF761F8F0E742
:102F700054F202083C0203082802030800B587B097
:102F800002468DF8171032230293012301930DF1AD
:102F9000170100913C21044804F064FE08B907B011
:102FA00000BD4FF0FF30FAE7F80A002000B585B009
:102FB0000246322302930123019300913C210448ED
:102FC00004F002FF08B905B000BD4FF0FF30FAE78A
:102FD000F80A002008B50A20FFF708F804210020AD
:102FE000FFF7CCFF40B91420FFF700F803210020C1
:102FF000FFF7C4FF18B908BD4FF0FF30FBE74FF0F3
:10300000FF30F8E730B583B005460024052C09DC15
:10301000E0B20A3069462144C0B2FFF7C7FF60BB87
:103020000134F3E79DF800309DF90020002A16DBFB
:103030009DF8012003F0030343EA8203AB809DF86F
:1030400003209DF8023043EA02232B809DF80420E0
:1030500012F0400F06D00020688003B030BD00237E
:10306000AB80ECE79DF805301B0103F47C7302F0A4
:103070000F0213436B800020EFE74FF0FF30ECE7C7
:103080000E4AD2F8FC3043F08073C2F8FC30A2F54F
:103090005D42136843F00103136000235360084B43
:1030A0001B680849A1FB03139B0C03FB00F052684B
:1030B000054B5B689B1A8342FAD3704700ED00E032
:1030C0005C01002083DE1B43001000E0F8B50446DD
:1030D0000E46154602F048FC194B1878400000F0E7
:1030E000FE0002F055FC20BB200A02F051FC00BBA0
:1030F000E0B202F04DFCE0B902F036FC104B18785B
:103100004000C0B240F0010002F042FC074680B926
:10311000044608E0681E201A18BF012002F05FFC78
:1031200030550134A4B2AC42F4D302F027FC384647
:10313000F8BD02F023FC4FF0FF331F46F7E700BF56
:10314000F40A0020F8B504460E46154602F00CFCC1
:10315000124B1878400000F0FE0002F019FCA8B9EC
:10316000200A02F015FC88B9E0B202F011FC074613
:1031700060B90446AC4206D2305D02F009FC28B9C1
:103180000134A4B2F6E702F0F9FB04E002F0F6FB2A
:103190004FF0FF331F463846F8BD00BFF40A002049
:1031A00000B583B000231A4604E01349C95C0A4401
:1031B00001339BB2B72BF8D952428DF8042090B15D
:1031C00001238DF80530B8220B4948F24700FFF77C
:1031D000B9FF50B9022201A948F2FF00FFF7B2FF80
:1031E00030B903B000BD0346EBE74FF0FF30F8E71E
:1031F0004FF0FF30F5E700BF740A03082DE9F04FE8
:103200008BB000249D4B1C709D4B1C709D4B1C7003
:103210009D4B1C601C713F221A7000949B4B1A6BD3
:1032200042F080021A631A6B02F080020092009A48
:1032300001941A6B42F480721A631B6B03F480735F
:103240000193019B0125069507954FF0020BCDF8E0
:1032500020B009944FF4807ACDF814A005AEDFF8C1
:1032600030923146484603F07BFD069407954FF0B7
:103270008008CDF81480874F3146384603F070FD42
:1032800002F02AFB22465146484603F080FE0A20FF
:10329000FEF7ACFE2A465146484603F078FE0A2067
:1032A000FEF7A4FE06940794CDF814803146384604
:1032B00003F056FD6420FEF799FE06940795CDF8BD
:1032C00014803146384603F04BFD5846FEF78EFE1B
:1032D000012C11DC704B1A5D694B1A7000230493AA
:1032E000042204A948F24010FFF7F0FE20B1644B1D
:1032F00000221A700134EBE7634B049A1A60002233
:103300001A715F4B1C78002C3FD064495E48FDF772
:1033100063FA002841D122460124614B5A49614891
:10332000FEF73EFE002C60D0052202A948F24700BD
:10333000FFF7CCFE98B99DF80820524B1A709DF803
:103340000A209DF8093043EA0223574A13809DF86A
:103350000C209DF80B3043EA0223544A1380534B50
:103360001B88514A1288474909785148FEF718FED0
:103370004A494548FDF730FA00283CD03F4B01222E
:103380001A7000200BB0BDE8F08F5D22142149486F
:10339000FEF706FE4FF0FF30F4E747493A48FDF7E5
:1033A0001BFA18B9224601243D4BB7E7434936487A
:1033B000FDF712FA18B922460124394BAEE740490D
:1033C0003148FDF709FA18B922460124344BA5E724
:1033D0003C492D48FDF700FA18B922460124304B2C
:1033E0009CE722460024384B98E73848FEF7D8FD82
:1033F0006FF00100C6E702238DF80F3001220DF1B6
:103400000F0148F24000FFF79DFE58B91D4B1B7895
:103410005F2B21D80120FFF7C3FE48B12C48FEF7EF
:10342000BFFD1CE02B48FEF7BBFD6FF00100A9E7D4
:103430004FF448734FF4F072B8212748FEF7B0FDFF
:10344000104B60221A70184B4FF4F0721A80174B11
:103450004FF448721A8002E02048FEF7A1FD0023D5
:103460008DF80F3001220DF10F0148F24000FFF7F7
:1034700069FE0A20FEF7BAFD80E700BFF30A0020CC
:10348000F40A0020F20A0020600000200038024008
:1034900000200240001C0240700A03084803030891
:1034A000E802030868030308F00A0020EE0A00207F
:1034B000D4030308FC020308500303085403030861
:1034C0005C03030864030308F0020308980303087D
:1034D0003404030810040308540403088C0403088C
:1034E000024B1878003818BF01207047F30A0020FB
:1034F0000048704760000020014B1878704700BFFB
:10350000F40A0020014B1878704700BFF20A00202F
:10351000014B1888704700BFF00A0020014B188843
:10352000704700BFEE0A002070B584B000238DF80C
:103530000F308DF807302C4B1B78002B48D00646F7
:103540000D46002847D0002948D001220DF10F0177
:1035500048F24E10FFF7BAFD002842D19DF80F3017
:1035600003F00F03052B00D90523AB4200D81D46FD
:103570004DB901220DF1070148F24E10FFF7E2FDAF
:10358000284604B070BD0024A5421DD9A4F6D6700B
:1035900080B2C00080B2042202A9FFF797FDA8B94B
:1035A0009DF809109DF8083006EB840243EA0123D8
:1035B00026F824309DF80B109DF80A3043EA0123C9
:1035C00053800134E4B2DFE72546D2E72546D0E751
:1035D0004FF0FF30D5E74FF0FF30D2E74FF0FF302C
:1035E000CFE74FF0FF30CCE7F30A002084B0019022
:1035F000019B03EBC3035B00039300E000BF039B4D
:103600005A1E0392002BF9D104B0704700B587B061
:1036100001A9002301934B608B60CB600B611023E9
:1036200001930123029303230493024803F098FBC0
:1036300007B000BD001C024000B587B001A90023FF
:1036400001934B608B60CB600B613023019312239D
:103650000293012303930323049304230593024855
:1036600003F07EFB07B000BD001C024010B588B01F
:1036700003A9002403944C608C60CC600C6101941D
:103680001B4B1A6C42F480021A641A6C02F480021A
:103690000192019A02941A6B42F080021A631B6B2A
:1036A00003F080030293029B3023039312230493BD
:1036B0000123059303230693042307930D4803F086
:1036C0004FFB0D480D4B03600D4B43608460C4609D
:1036D0004FF48043036144618461C461046204F077
:1036E000FBF808B908B010BDFEF7A2FCFAE700BF6E
:1036F00000380240001C0240F80A00200058004038
:10370000A0860100424B1B685A699B6941490969BF
:10371000C3F3400311F0200F04D002F4E0620BB9B0
:10372000002A6AD0F0B587B0FFF770FF01221021A0
:10373000384803F02CFC0A20FFF758FF0025082D1D
:1037400016DC344C00221021204603F020FC0A2015
:10375000FFF74CFF01221021204603F018FC0A203D
:10376000FFF744FF236913F0200F01D10135E6E78D
:1037700001A9002401944C608C60CC600C6120266F
:1037800001960127029703230493224D284603F054
:10379000E7FA22463146284603F0F9FB0A20FFF7F4
:1037A00025FF3A463146284603F0F1FB0A20FFF791
:1037B0001DFF174D284604F07CF9284604F08CF8CC
:1037C000FFF73AFF144B6B60AC60EC604FF4804342
:1037D0002B616C61AC61EC612C62284604F07CF8D2
:1037E00068B92B689B6913F0020F0BD1094B1B6959
:1037F00013F0200F09D007B0F0BD104670474FF00E
:10380000FF30F8E74FF0FF30F5E74FF0FF30F2E719
:10381000F80A0020001C0240A0860100002206E0F9
:1038200000BF01339BB2042BFAD9013292B282421B
:1038300001D20023F7E7704700BF024BA3F8FE0058
:10384000704700BF00FF076082B000BF054BB3F8B0
:1038500000319BB2ADF80630BDF8060080B202B070
:10386000704700BF00FF076000BF024BA3F80001D4
:10387000704700BF00FF076000BF034BA3F8FE00C6
:10388000A3F80011704700BF00FF076010B50428BF
:1038900068D05FD8022867D0032867D0012867D195
:1038A000802421464FF45850FFF7E6FF14F0200F14
:1038B00066D0384AD3681269934203D23549CA6048
:1038C0009BB20B61334CE088FFF7B6FF0020FFF797
:1038D000CBFFE088013080B2FFF7AEFF0020FFF79A
:1038E000C3FFE088023080B2FFF7A6FFE06801382E
:1038F000C0F30F20FFF7B8FFE088033080B2FFF776
:103900009BFFA0890138C0B2FFF7AEFF2089FFF707
:1039100093FF0020FFF7A8FF2089013080B2FFF756
:103920008BFF0020FFF7A0FF2089023080B2FFF755
:1039300083FF20690138C0F30F20FFF795FF20892E
:10394000033080B2FFF778FF208A0138C0B2FFF75A
:103950008BFF10BD06280DD007280DD005280DD1EE
:1039600060249EE720249CE740249AE7C02498E73F
:10397000002496E7A02494E7E02492E7002490E74F
:10398000044AD368126993429CD90249CA609BB227
:103990000B6197E7500B002008B50020FFF776FF7A
:1039A00008BD00002DE9F04794B00DAE00240D9441
:1039B0000E940F94109411941294139406AF0694DD
:1039C0000794089409940A940B940C9401AD019403
:1039D0000294039404940594DFF8E0A02246202189
:1039E000504603F0D4FA202301934FF00108CDF89C
:1039F0000880CDF80C804FF00209CDF810902946D0
:103A0000504603F0ADF9CDF80890039403230493D6
:103A10000C2305934FF6B37301932946284803F00E
:103A20009FF94FF6807301932946264803F098F9D1
:103A30004FF23F0301932946234803F091F93F23B6
:103A400001932946214803F08BF921484FF0204388
:103A5000036003F5827343608460C46004611022D4
:103A600042618461C461046244624FF480538362A2
:103A7000C4624FF48043036344638463C463446457
:103A80000F230D930E9346210F91CDF84080119294
:103A9000112112911394069307930893CDF8248073
:103AA0000A920B910C943A46314604F012FD10B97B
:103AB00014B0BDE8F0874046FAE700BF00040240BA
:103AC000000C0240001002400014024000180240A6
:103AD000640B002000487047500B0020024B187800
:103AE000003818BF012070474C0B002070B5054608
:103AF0000E460F4CE088FFF79FFE280AFFF7B4FE42
:103B0000E088013080B2FFF797FEE8B2FFF7ACFE25
:103B10002089FFF791FE300AFFF7A6FE20890130C9
:103B200080B2FFF789FEF0B2FFF79EFE70BD00BFC6
:103B3000500B0020034B9A88034BA3F8FE2000BFD4
:103B4000704700BF500B002000FF076038B50546E6
:103B50000A4BDA681C6902FB04F400210846FFF7EF
:103B6000C5FFFFF7E7FF002204E0ABB20449A1F86C
:103B700000310132A242F8D338BD00BF500B002003
:103B800000FF076010B582B04FF45B40FFF754FEB2
:103B9000FFF75AFE04468DF804004FF45C40FFF72F
:103BA0004BFEFFF751FE8DF80500C1B2E0B241EACD
:103BB0000021284C21802848FEF7F2F92388B3F52C
:103BC000004F55D02548FEF7EBF90120FFF734FEF2
:103BD0000A20FFF723FE7820FFF720FE1120FFF7D1
:103BE0002BFE7820FFF71AFE55213A20FFF744FEFE
:103BF00000213620FFF740FE2920FFF71DFE14208C
:103C0000FFF70CFE164B5A6822F00F025A605A68F2
:103C100022F470625A605A6842F004025A605A688C
:103C200042F480625A600020FFF7B6FE0020FFF7E2
:103C30008DFF012220210B4803F0A9F90A4B012234
:103C40001A70044B1A69D9680848FEF7A9F902B03E
:103C500010BD00BF500B0020BC040308DC040308A7
:103C6000000100A0000402404C0B002014050308D2
:103C700055214FF47040FFF7FFFDAA214FF20100DC
:103C8000FFF7FAFD52214FF20200FFF7F5FD082180
:103C90004FF20300FFF7F0FD01214FF20400FFF7A0
:103CA000EBFD0D214FF43040FFF7E6FD0D214BF207
:103CB0000100FFF7E1FD0D214BF20200FFF7DCFDF3
:103CC00034214FF43640FFF7D7FD34214BF2016029
:103CD000FFF7D2FD34214BF20260FFF7CDFD0D213D
:103CE0004FF43140FFF7C8FD0D214BF20110FFF7F3
:103CF000C3FD0D214BF20210FFF7BEFD34214FF43E
:103D00003740FFF7B9FD34214BF20170FFF7B4FDE6
:103D100034214BF20270FFF7AFFD00214FF4324027
:103D2000FFF7AAFD00214BF20120FFF7A5FD0021BE
:103D30004BF20220FFF7A0FD24214FF43840FFF79B
:103D40009BFD24214BF60100FFF796FD24214BF645
:103D50000200FFF791FD01214FF43F40FFF78CFD7A
:103D60000F214FF43340FFF787FD0F214BF2013055
:103D7000FFF782FD0F214BF20230FFF77DFD34216A
:103D80004FF43940FFF778FD34214BF60110FFF76F
:103D900073FD34214BF60210FFF76EFD08214FF43E
:103DA0003540FFF769FD08214BF20150FFF764FD34
:103DB00008214BF20250FFF75FFD03214FF4424010
:103DC000FFF75AFD24214FF43A40FFF755FD242117
:103DD0004BF60120FFF750FD24214BF60220FFF7A0
:103DE0004BFD00214FF43C40FFF746FD78214BF698
:103DF0000140FFF741FD00214BF60240FFF73CFD7B
:103E000000214FF43D40FFF737FD78214BF601507C
:103E1000FFF732FD00214BF60250FFF72DFD002188
:103E20004FF43E40FFF728FD64214BF60160FFF799
:103E300023FD00214FF45140FFF71EFD33214DF2C9
:103E40000110FFF719FD00214DF20210FFF714FDDC
:103E500034214DF20310FFF70FFD00214DF2041045
:103E6000FFF70AFD3A214DF20510FFF705FD00218D
:103E70004DF20610FFF700FD4A214DF20710FFF743
:103E8000FBFC00214DF20810FFF7F6FC5C214DF21F
:103E90000910FFF7F1FC00214DF20A10FFF7ECFCCE
:103EA00081214DF20B10FFF7E7FC00214DF20C10C1
:103EB000FFF7E2FCA6214DF20D10FFF7DDFC00211B
:103EC0004DF20E10FFF7D8FCE5214DF20F10FFF771
:103ED000D3FC01214DF21010FFF7CEFC13214DF25F
:103EE0001110FFF7C9FC01214DF21210FFF7C4FCBD
:103EF00054214DF21310FFF7BFFC01214DF21410B5
:103F0000FFF7BAFC82214DF21510FFF7B5FC012135
:103F10004DF21610FFF7B0FCCA214DF21710FFF753
:103F2000ABFC02214DF21810FFF7A6FC00214DF268
:103F30001910FFF7A1FC02214DF21A10FFF79CFCAB
:103F400001214DF21B10FFF797FC02214DF21C10CE
:103F5000FFF792FC34214DF21D10FFF78DFC02217A
:103F60004DF21E10FFF788FC67214DF21F10FFF77E
:103F700083FC02214DF22010FFF77EFC84214DF2DC
:103F80002110FFF779FC02214DF22210FFF774FC9B
:103F9000A4214DF22310FFF76FFC02214DF22410F3
:103FA000FFF76AFCB7214DF22510FFF765FC0221EF
:103FB0004DF22610FFF760FCCF214DF22710FFF7DE
:103FC0005BFC02214DF22810FFF756FCDE214DF27A
:103FD0002910FFF751FC02214DF22A10FFF74CFC8B
:103FE000F2214DF22B10FFF747FC02214DF22C106D
:103FF000FFF742FCFE214DF22D10FFF73DFC03219F
:104000004DF22E10FFF738FC10214DF22F10FFF764
:1040100033FC03214DF23010FFF72EFC33214DF21B
:104020003110FFF729FC03214DF23210FFF724FC79
:104030006D214DF23310FFF71FFC00214FF4524069
:10404000FFF71AFC33214DF20120FFF715FC002188
:104050004DF20220FFF710FC34214DF20320FFF750
:104060000BFC00214DF20420FFF706FC3A214DF233
:104070000520FFF701FC00214DF20620FFF7FCFBB5
:104080004A214DF20720FFF7F7FB00214DF20820EF
:10409000FFF7F2FB5C214DF20920FFF7EDFB002159
:1040A0004DF20A20FFF7E8FB81214DF20B20FFF7CC
:1040B000E3FB00214DF20C20FFF7DEFBA6214DF2C1
:1040C0000D20FFF7D9FB00214DF20E20FFF7D4FBA6
:1040D000E5214DF20F20FFF7CFFB01214DF210201B
:1040E000FFF7CAFB13214DF21120FFF7C5FB012199
:1040F0004DF21220FFF7C0FB54214DF21320FFF7C1
:10410000BBFB01214DF21420FFF7B6FB82214DF2DB
:104110001520FFF7B1FB01214DF21620FFF7ACFB94
:10412000CA214DF21720FFF7A7FB02214DF21820FC
:10413000FFF7A2FB00214DF21920FFF79DFB0221A2
:104140004DF21A20FFF798FB01214DF21B20FFF7DB
:1041500093FB02214DF21C20FFF78EFB34214DF220
:104160001D20FFF789FB02214DF21E20FFF784FB83
:1041700067214DF21F20FFF77FFB02214DF2202027
:10418000FFF77AFB84214DF22120FFF775FB022116
:104190004DF22220FFF770FBA4214DF22320FFF700
:1041A0006BFB02214DF22420FFF766FBB7214DF295
:1041B0002520FFF761FB02214DF22620FFF75CFB73
:1041C000CF214DF22720FFF757FB02214DF2282087
:1041D000FFF752FBDE214DF22920FFF74DFB0221B4
:1041E0004DF22A20FFF748FBF2214DF22B20FFF77A
:1041F00043FB02214DF22C20FFF73EFBFE214DF246
:104200002D20FFF739FB03214DF22E20FFF734FB61
:1042100010214DF22F20FFF72FFB03214DF230200C
:10422000FFF72AFB33214DF23120FFF725FB032155
:104230004DF23220FFF720FB6D214DF23320FFF7C6
:104240001BFB00214FF45340FFF716FB33214DF2C7
:104250000130FFF711FB00214DF20230FFF70CFB9C
:1042600034214DF20330FFF707FB00214DF20430FB
:10427000FFF702FB3A214DF20530FFF7FDFA00216E
:104280004DF20630FFF7F8FA4A214DF20730FFF7FA
:10429000F3FA00214DF20830FFF7EEFA5C214DF2FF
:1042A0000930FFF7E9FA00214DF20A30FFF7E4FA8E
:1042B00081214DF20B30FFF7DFFA00214DF20C3077
:1042C000FFF7DAFAA6214DF20D30FFF7D5FA0021FB
:1042D0004DF20E30FFF7D0FAE5214DF20F30FFF727
:1042E000CBFA01214DF21030FFF7C6FA13214DF23F
:1042F0001130FFF7C1FA01214DF21230FFF7BCFA7D
:1043000054214DF21330FFF7B7FA01214DF214306A
:10431000FFF7B2FA82214DF21530FFF7ADFA012115
:104320004DF21630FFF7A8FACA214DF21730FFF709
:10433000A3FA02214DF21830FFF79EFA00214DF248
:104340001930FFF799FA02214DF21A30FFF794FA6B
:1043500001214DF21B30FFF78FFA02214DF21C3084
:10436000FFF78AFA34214DF21D30FFF785FA02215A
:104370004DF21E30FFF780FA67214DF21F30FFF734
:104380007BFA02214DF22030FFF776FA84214DF2BC
:104390002130FFF771FA02214DF22230FFF76CFA5B
:1043A000A4214DF22330FFF767FA02214DF22430A9
:1043B000FFF762FAB7214DF22530FFF75DFA0221CF
:1043C0004DF22630FFF758FACF214DF22730FFF794
:1043D00053FA02214DF22830FFF74EFADE214DF25A
:1043E0002930FFF749FA02214DF22A30FFF744FA4B
:1043F000F2214DF22B30FFF73FFA02214DF22C3023
:10440000FFF73AFAFE214DF22D30FFF735FA03217E
:104410004DF22E30FFF730FA10214DF22F30FFF71A
:104420002BFA03214DF23030FFF726FA33214DF2FB
:104430003130FFF721FA03214DF23230FFF71CFA39
:104440006D214DF23330FFF717FA00214FF454403D
:10445000FFF712FA33214DF20140FFF70DFA002168
:104460004DF20240FFF708FA34214DF20340FFF706
:1044700003FA00214DF20440FFF7FEF93A214DF214
:104480000540FFF7F9F900214DF20640FFF7F4F976
:104490004A214DF20740FFF7EFF900214DF20840A5
:1044A000FFF7EAF95C214DF20940FFF7E5F9002139
:1044B0004DF20A40FFF7E0F981214DF20B40FFF782
:1044C000DBF900214DF20C40FFF7D6F9A6214DF2A1
:1044D0000D40FFF7D1F900214DF20E40FFF7CCF966
:1044E000E5214DF20F40FFF7C7F901214DF21040D1
:1044F000FFF7C2F913214DF21140FFF7BDF9012179
:104500004DF21240FFF7B8F954214DF21340FFF776
:10451000B3F901214DF21440FFF7AEF982214DF2BB
:104520001540FFF7A9F901214DF21640FFF7A4F954
:10453000CA214DF21740FFF79FF902214DF21840B2
:10454000FFF79AF900214DF21940FFF795F9022182
:104550004DF21A40FFF790F901214DF21B40FFF791
:104560008BF902214DF21C40FFF786F934214DF200
:104570001D40FFF781F902214DF21E40FFF77CF943
:1045800067214DF21F40FFF777F902214DF22040DD
:10459000FFF772F984214DF22140FFF76DF90221F6
:1045A0004DF22240FFF768F9A4214DF22340FFF7B6
:1045B00063F902214DF22440FFF75EF9B7214DF275
:1045C0002540FFF759F902214DF22640FFF754F933
:1045D000CF214DF22740FFF74FF902214DF228403D
:1045E000FFF74AF9DE214DF22940FFF745F9022194
:1045F0004DF22A40FFF740F9F2214DF22B40FFF730
:104600003BF902214DF22C40FFF736F9FE214DF225
:104610002D40FFF731F903214DF22E40FFF72CF921
:1046200010214DF22F40FFF727F903214DF23040C2
:10463000FFF722F933214DF23140FFF71DF9032135
:104640004DF23240FFF718F96D214DF23340FFF77C
:1046500013F900214FF45540FFF70EF933214DF2C5
:104660000150FFF709F900214DF20250FFF704F95C
:1046700034214DF20350FFF7FFF800214DF20450B2
:10468000FFF7FAF83A214DF20550FFF7F5F800214F
:104690004DF20650FFF7F0F84A214DF20750FFF7B0
:1046A000EBF800214DF20850FFF7E6F85C214DF2DF
:1046B0000950FFF7E1F800214DF20A50FFF7DCF84E
:1046C00081214DF20B50FFF7D7F800214DF20C502D
:1046D000FFF7D2F8A6214DF20D50FFF7CDF80021DB
:1046E0004DF20E50FFF7C8F8E5214DF20F50FFF7DD
:1046F000C3F801214DF21050FFF7BEF813214DF21F
:104700001150FFF7B9F801214DF21250FFF7B4F83C
:1047100054214DF21350FFF7AFF801214DF2145020
:10472000FFF7AAF882214DF21550FFF7A5F80121F5
:104730004DF21650FFF7A0F8CA214DF21750FFF7BF
:104740009BF802214DF21850FFF796F800214DF228
:104750001950FFF791F802214DF21A50FFF78CF82B
:1047600001214DF21B50FFF787F802214DF21C503A
:10477000FFF782F834214DF21D50FFF77DF802213A
:104780004DF21E50FFF778F867214DF21F50FFF7EA
:1047900073F802214DF22050FFF76EF884214DF29C
:1047A0002150FFF769F802214DF22250FFF764F81B
:1047B000A4214DF22350FFF75FF802214DF224505F
:1047C000FFF75AF8B7214DF22550FFF755F80221AF
:1047D0004DF22650FFF750F8CF214DF22750FFF74A
:1047E0004BF802214DF22850FFF746F8DE214DF23A
:1047F0002950FFF741F802214DF22A50FFF73CF80B
:10480000F2214DF22B50FFF737F802214DF22C50D8
:10481000FFF732F8FE214DF22D50FFF72DF803215E
:104820004DF22E50FFF728F810214DF22F50FFF7D0
:1048300023F803214DF23050FFF71EF833214DF2DB
:104840003150FFF719F803214DF23250FFF714F8F9
:104850006D214DF23350FFF70FF800214FF4564011
:10486000FFF70AF833214DF20160FFF705F8002148
:104870004DF20260FFF700F834214DF20360FEF7BD
:10488000FBFF00214DF20460FEF7F6FF3A214DF2E6
:104890000560FEF7F1FF00214DF20660FEF7ECFF28
:1048A0004A214DF20760FEF7E7FF00214DF2086054
:1048B000FEF7E2FF5C214DF20960FEF7DDFF00210B
:1048C0004DF20A60FEF7D8FF81214DF20B60FEF732
:1048D000D3FF00214DF20C60FEF7CEFFA6214DF272
:1048E0000D60FEF7C9FF00214DF20E60FEF7C4FF18
:1048F000E5214DF20F60FEF7BFFF01214DF2106080
:10490000FEF7BAFF13214DF21160FEF7B5FF01214A
:104910004DF21260FEF7B0FF54214DF21360FEF726
:10492000ABFF01214DF21460FEF7A6FF82214DF28C
:104930001560FEF7A1FF01214DF21660FEF79CFF06
:10494000CA214DF21760FEF797FF02214DF2186061
:10495000FEF792FF00214DF21960FEF78DFF022154
:104960004DF21A60FEF788FF01214DF21B60FEF741
:1049700083FF02214DF21C60FEF77EFF34214DF2D1
:104980001D60FEF779FF02214DF21E60FEF774FFF5
:1049900067214DF21F60FEF76FFF02214DF220608C
:1049A000FEF76AFF84214DF22160FEF765FF0221C8
:1049B0004DF22260FEF760FFA4214DF22360FEF766
:1049C0005BFF02214DF22460FEF756FFB7214DF246
:1049D0002560FEF751FF02214DF22660FEF74CFFE5
:1049E000CF214DF22760FEF747FF02214DF22860EC
:1049F000FEF742FFDE214DF22960FEF73DFF022166
:104A00004DF22A60FEF738FFF2214DF22B60FEF7DF
:104A100033FF02214DF22C60FEF72EFFFE214DF2F6
:104A20002D60FEF729FF03214DF22E60FEF724FFD3
:104A300010214DF22F60FEF71FFF03214DF2306071
:104A4000FEF71AFF33214DF23160FEF715FF032107
:104A50004DF23260FEF710FF6D214DF23360FEF72C
:104A60000BFF55214FF47040FEF706FFAA214FF2CD
:104A70000100FEF701FF52214FF20200FEF7FCFE9B
:104A800008214FF20300FEF7F7FE00214FF2040069
:104A9000FEF7F2FECC214FF43140FEF7EDFE00218F
:104AA0004BF20110FEF7E8FE05214FF43640FEF709
:104AB000E3FE70214FF43740FEF7DEFE70214BF22B
:104AC0000170FEF7D9FE01214FF43840FEF7D4FE05
:104AD00003214BF60100FEF7CFFE03214BF6020047
:104AE000FEF7CAFE03214BF60300FEF7C5FE0221C6
:104AF0004FF43C40FEF7C0FE00214BF60140FEF7AC
:104B0000BBFE00214BF60240FEF7B6FED0214FF46B
:104B10004940FEF7B1FE02214CF60110FEF7ACFE53
:104B200050214CF60210FEF7A7FE50214CF6031060
:104B3000FEF7A2FE50214CF60410FEF79DFE002168
:104B40004FF45450FEF798FE55214FF46850FEF78D
:104B500093FE4FF48850FEF76FFE7820FEF75EFE5E
:104B60004FF42450FEF768FEFFF74CB810B5124B17
:104B700000221A605A609A60DA601A614FF4487233
:104B8000DA604FF4F0721A614FF430529A804FF4A9
:104B90002852DA804FF42C521A81FEF703FF0446A4
:104BA00030B9142001F016FDFEF7ECFF204610BDD1
:104BB0000248FDF7F5F9F9E7500B0020500503080E
:104BC0002DE9F04383B00A9D03FB02F62DB1814627
:104BD000884614460AB1009313B903B0BDE8F083C8
:104BE0002E4FF888FEF728FECDF804904A46100AAA
:104BF000FEF73AFEF888013080B2FEF71DFEDDF8C0
:104C000004905FFA89F0FEF72FFEF888023080B238
:104C1000FEF712FE4C44601EC0F30F20FEF724FE88
:104C2000F888033080B2FEF707FEA4B2601EC0B25F
:104C3000FEF71AFE3889FEF7FFFD4446200AFEF70C
:104C400013FE3889013080B2FEF7F6FD5FFA88F076
:104C5000FEF70AFE3889023080B2FEF7EDFD009BB8
:104C600043441C46581EC0F30F20FEF7FDFD388953
:104C7000033080B2FEF7E0FDA0B20138C0B2FEF70B
:104C8000F3FDFEF757FF0023B342A6D235F8131009
:104C9000034AA2F800110133F6E700BF500B0020D1
:104CA00000FF076018280AD005D80C2809D0102862
:104CB00009D102207047202807D104207047032023
:104CC000704701207047FF207047FF2070470000A9
:104CD00010B5FDF729F8002401E00134E4B2042CFA
:104CE00010D80D4B234493F8D03D002BF5D04FF452
:104CF000147304FB03F303F51073074818440EF014
:104D0000FFFCEAE7FDF71CF840F6D8520021024804
:104D1000FBF70CFE10BD00BFB80B002008B50A89D8
:104D2000531E9BB2BF2B00D9C0220021FBF7FEFD12
:104D300008BD0000F0B583B016461289531E9BB221
:104D4000BF2B4BD80F46037841787F33DBB27D2BE6
:104D500049D83F294AD9FF294BD07E2916D840206F
:104D6000091ABE2000FB03F353FA81F102FB01F59F
:104D7000F088FFF797FF0446FF283DD0204B0344FF
:104D800093F8D03D23B901231C4629E04120E7E7F1
:104D9000FCF7CAFF4FF41473204603FB00F000F544
:104DA0001070174BC31818461C462A4600230EF0F5
:104DB000B7FC70B901AB3289394620460EF0ECF9E8
:104DC0000446FCF7BDFF34B93289019B9A4207D0F3
:104DD00001E0FCF7B5FF01231C4601E001231C465E
:104DE000204603B0F0BD01231C46F9E701231C4611
:104DF000F6E701231C46F3E701231C46F0E700BF5A
:104E0000B80B002000487047B40B0020002853D096
:104E100070B58EB00646FFF75BFF0024274B1C7071
:104E2000FCF782FF06E0264B2344012283F8D02DB5
:104E30000134E4B2042C1ED802AD224B53F82430C6
:104E400000933346204A3021284629F013FE4FF4C0
:104E5000147304FB03F303F5107301222946184869
:104E600018440DF0F7FF02460028DCD002A91748CD
:104E7000FDF796F8DCE7FCF763FF114B93F8D13DA3
:104E80006BB90F4B93F8D23D4BB90D4B93F8D33D13
:104E90002BB90B4B93F8D43D0BB901200AE0084B1A
:104EA000012283F8D52D3346094A0421034829F00D
:104EB000E1FD00200EB070BD01207047B40B002052
:104EC000B80B00202C0B03087005030878050308B5
:104ED00088F302080023184601E00133DBB2042BFB
:104EE00009D8054A1A4492F8D02D002AF5D001229B
:104EF0009A401043F1E77047B80B002070B138B505
:104F00000C46154661B16AB1FFF714FF00B938BD10
:104F100029462046FFF702FF0120F8E701207047ED
:104F20000120F4E70120F2E730B587B001A90023A2
:104F300001934B608B60CB600B6100930F4B1A6B3E
:104F400042F002021A631B6B03F002030093009B02
:104F500003230193012402940394094D284601F090
:104F6000FFFE22460221284602F011F82246214681
:104F7000284602F00CF807B030BD00BF00380240F0
:104F80000004024008B540B90246022100F1804009
:104F900000F5013001F0FBFF08BD002201210248AD
:104FA00001F0F5FFF8E700BF0004024008B540B982
:104FB0000122022100F1804000F5013001F0E7FFFD
:104FC00008BD01221146024801F0E1FFF8E700BFE9
:104FD0000004024008B538B9022100F1804000F514
:104FE000013001F0DAFF08BD0121024801F0D5FFD0
:104FF000F9E700BF000402400378407840EA03204C
:1050000000B2704700B585B00246322302930123F7
:1050100001930091D021044802F0D6FE08B905B0F2
:1050200000BD4FF0FF30FAE7F80A002000B587B066
:1050300002468DF8171032230293012301930DF1DC
:1050400017010091D021044802F00CFE08B907B006
:1050500000BD4FF0FF30FAE7F80A0020F8B504462B
:105060000E46154619212520FFF7E0FFD8B9214645
:105070002620FFF7DBFFD0B945F080012720FFF79E
:10508000D5FF0746B8B91420FCF7B0FF0024AC42A6
:1050900018D204F149003119C0B2FFF7B3FF70B95B
:1050A0000134E4B2F3E74FF0FF331F460AE04FF05C
:1050B000FF331F4606E04FF0FF331F4602E04FF07C
:1050C000FF331F463846F8BD38B504460D46182153
:1050D0002520FFF7ABFFA0B921462620FFF7A6FF4A
:1050E00098B929466320FFF7A1FF90B981212720B5
:1050F000FFF79CFF044680B91420FCF777FF204699
:1051000038BD4FF0FF331C46F9E74FF0FF331C4624
:10511000F5E74FF0FF331C46F1E74FF0FF331C4635
:10512000EDE7000010B582B000238DF807300DF1D7
:1051300007017520FFF766FF00285BD19DF8073057
:10514000712B5AD101466B20FFF770FF0A20FCF744
:105150004DFF07211920FFF769FF03211A20FFF7F0
:1051600065FF18211B20FFF761FF10211C20FFF7AE
:105170005DFF20216A20FFF759FF0D212420FFF752
:1051800055FF0520FCF732FF032201A91020FFF78D
:1051900065FF044658B31D4C0020207001222146B3
:1051A000FFF75CFF2378482B2AD116210A20FFF74E
:1051B0008BFF40BB02B010BD04F108036B4413F831
:1051C000040CFBF7AFF84FF08641FAF7F5FF4FF00C
:1051D0007C51FBF7FBF84FF07051FBF7F7F84FF0FD
:1051E0007E51FAF7EBFF0A4B43F824000134022CFE
:1051F000E2DDD0E74FF0FF30DCE74FF0FF30D9E7DA
:105200006FF00200D6E76FF00100D3E7901900209D
:1052100098000020014B1878704700BF90190020BB
:1052200070B586B00446322302930623019304AB83
:10523000009301233B22D021444802F0C5FD002801
:1052400078D104AD2846FFF7D7FEFBF76BF84FF097
:105250006651FBF7BBF820600DF11200FFF7CCFEA2
:10526000FBF760F84FF06651FBF7B0F8606005A8F7
:10527000FFF7C2FEFBF756F84FF06651FBF7A6F8B2
:10528000A060322302930623019300950123432259
:10529000D0212E4802F098FD00284FD12846FFF774
:1052A000ABFEFBF73FF82A49FBF744F9E0600DF14C
:1052B0001200FFF7A1FEFBF735F82549FBF73AF995
:1052C000206105A8FFF798FEFBF72CF82049FBF7B3
:1052D00031F96061062229460320FFF7BFFE06462A
:1052E00080BB2846FFF788FEFBF71CF81949FBF73F
:1052F0006DF8194D2968FBF769F8A0610DF11200EE
:10530000FFF77AFEFBF70EF81249FBF75FF86968C2
:10531000FBF75CF8E06105A8FFF76EFEFBF702F80B
:105320000C49FBF753F8A968FBF750F820623046A8
:1053300006B070BD4FF0FF331E46F8E76FF0010373
:105340001E46F4E76FF002031E46F0E7F80A00205D
:10535000333383419A99193E9800002000B585B0F7
:105360008DF80F006423009301230DF10F024021FB
:10537000024802F0B7FB05B000BD00BFF80A0020EC
:1053800008B548B1074A137823F001031370054BA1
:105390001878FFF7E3FF08BD024A137843F00103D2
:1053A0001370F4E7A400002010B588B003AC00220D
:1053B000039204920592069207921F4B596A41F498
:1053C00000615962596A21F4006159620092596C76
:1053D00041F400615964596C01F400610091009935
:1053E0000192196B41F004011963196B01F004017A
:1053F0000191019902921A6B42F008021A631B6B29
:1054000003F008030293029B4FF4F8530393022323
:10541000049301230593032306930C23079321464A
:10542000064801F09DFC042303932146044801F043
:1054300097FC08B010BD00BF0038024000080240D1
:10544000000C024008B5FFF7AFFF1248124B036093
:10545000002343608360C36003614361022383616F
:1054600003F0FCFE20B10D4B00221A60012008BDA4
:105470004FF40061074803F01FFF18B9074B0122E2
:105480001A60F4E7034803F0FCFA044B00221A60A8
:105490000120ECE798190020002C0140941900200D
:1054A00008B5034803F0EDFA024B00221A6008BD6C
:1054B0009819002094190020014B1868704700BF0C
:1054C0009419002070B582B0124B1B6823B90123D8
:1054D0001E46304602B070BD4FF47A7300931346F7
:1054E0000A4601460C4803F0DFFA06460028F0D1D0
:1054F0000446094803F042FF0428EAD0651CB4F5CD
:105500007A7F04D2012001F065F82C46F1E70323ED
:105510001E46DEE7941900209819002070B582B06D
:10552000124B1B6823B901231E46304602B070BDE2
:105530004FF47A73009313460A4601460C4803F071
:10554000D7FB06460028F0D10446094803F016FFB1
:105550000428EAD0651CB4F57A7F04D2012001F05A
:1055600039F82C46F1E703231E46DEE794190020A4
:10557000981900200C4B1B680BB90120704730B5FF
:1055800089B004460D466946084803F082FE40B9DA
:105590000CB1049B236015B1BDF814302B8009B009
:1055A00030BD0120FBE700BF9419002098190020AE
:1055B00010B485B0204B0FCB04AC04E90F004FF0C2
:1055C000000CBCF1020F30DC1C4B53F82C2022F0F5
:1055D000030202F14042002303E0002142F82310BD
:1055E00001333F2BF9DD002003281BDC002307E0FB
:1055F00004A901EB800151F8101C42F8231001337B
:105600003F2BF5DD00233F2B0ADC52F8234004A991
:1056100001EB800151F8101C8C4208D10133F2E7F4
:105620000130E1E70CF1010CCBE7002001E04FF085
:10563000FF3005B010BC704770F20208400B030841
:10564000F0B593B00BAE00240B940C940D940E9413
:105650000F941094119406AD06940794089409943D
:105660000A940094464B9A6B42F001029A639A6B3B
:1056700002F001020092009A01941A6B42F020029B
:105680001A631A6B02F020020192019A02941A6BBB
:1056900042F004021A631A6B02F004020292029AA8
:1056A00003941A6B42F040021A631A6B02F0400234
:1056B0000392039A04941A6B42F010021A631A6B55
:1056C00002F010020492049A05941A6B42F0080248
:1056D0001A631B6B03F008030593059B02270797CA
:1056E000032309930C230A934FF63F03069329469D
:1056F000244801F035FB0D2306932946224801F08A
:105700002FFB48F2371306932946204801F028FB67
:105710004FF68373069329461D4801F021FB4CF296
:105720000373069329461B4801F01AFB1A481B4BCA
:1057300003604460012383600823C3601022026178
:10574000402242614FF4C0728261C4614FF4006232
:1057500002624FF4805242624FF4005282620B9711
:105760000C9306230D930E930F97109711973146C4
:1057700002F055FE08B913B0F0BD4FF0FF30FAE764
:1057800000380240001402400008024000180240A5
:1057900000100240000C02401C1A0020400100A032
:1057A00000B585B094461A460023009301930293F6
:1057B0000393009168B910230193CDF808C00392B8
:1057C0004FF480526946054802F049FE18B905B009
:1057D00000BD0823F0E74FF0FF30F8E71C1A002067
:1057E00010B50023012211461846FFF7D9FF0446E1
:1057F0004FF47A70FDF744FC002301220221184681
:10580000FFF7CEFF04430023012203211846FFF7D0
:10581000C7FF04434FF40C73012204210020FFF75B
:10582000BFFF204310BD000008B5FFF709FF58B9BE
:10583000FFF7D6FF58B940F2AB21084802F030FE1E
:10584000FFF7B6FE30B908BD4FF0FF30FBE74FF071
:10585000FF30F8E74FF0FF30F5E700BF1C1A0020DB
:1058600008B501220821034801F091FB0120FDF752
:1058700007FC08BD0020024008B501224021034872
:1058800001F085FB0320FDF7FBFB08BD001C024077
:1058900008B500220821034801F079FB0120FDF73B
:1058A000EFFB08BD0020024008B50022402103485C
:1058B00001F06DFB0320FDF7E3FB08BD001C024077
:1058C00008B50821034801F05BFB012814BF002044
:1058D000012008BD002002402DE9F04389B00022DC
:1058E00001921E4B196B41F080011963196B01F095
:1058F0008001019101990292196B41F48071196341
:105900001B6B03F480730293029B11230493012405
:1059100005940223069307924FF04008CDF80C80BF
:105920000DF10C090E4F4946384601F019FA0826C8
:1059300003960C4D4946284601F012FA224641468C
:10594000384601F024FB22463146284601F01FFB71
:105950001420FDF795FB09B0BDE8F0830038024044
:10596000001C02400020024008B5FFF779FFFFF756
:1059700083FFFFF78DFFFFF797FF08BD08B5FFF71F
:1059800093FFFFF785FFFFF777FFFFF769FF08BD7C
:1059900038B50446002507E0FFF762FFFFF76CFF0C
:1059A0006400E4B20135EDB2072D07D8FFF77CFFA4
:1059B00014F0800FF0D1FFF76BFFEFE7FFF774FFF4
:1059C000FFF74EFFFFF758FFFFF77AFF0446FFF798
:1059D0006BFF0CB9204638BD4FF0FF34FAE770B5C5
:1059E0000646FFF761FFFFF73BFF0024254601E075
:1059F0000135EDB2072D0FD8FFF756FF0320FDF755
:105A00003FFBFFF739FF6400E4B2FFF759FF0028BE
:105A1000EED044F00104EBE7FFF746FF4EB1FFF78D
:105A200037FFFFF729FFFFF73FFFFFF719FF20467A
:105A300070BDFFF715FFF4E7024A136823F08003F7
:105A400013607047003C014010B51C4603468C466D
:105A5000DFF864E0BEF800E0BEF1010F08D9174B93
:105A60001B88013B03FB00F00EF1FF3EB0FBFEF391
:105A70001348008801280AD9DFF848C0BCF800C0E4
:105A80000CF1FF3C01FB0CFC0138BCFBF0FC0B49AA
:105A90000988994201D859B14B1E0A4909886145C4
:105AA00002D839B101F1FF3C1380A4F800C010BD49
:105AB0000B46F2E78C46F7E7521A0020A8000020B8
:105AC000501A0020A600002030B587B0194D1A4C9E
:105AD0002946204601F0F1FA02950123039302239F
