:020000040800F2
:1000000000000320DD3B0008711200087312000895
:10001000751200087712000879120008000000002D
:100020000000000000000000000000005170000807
:100030007B12000800000000A1700008F5710008A4
:100040002D3C00082D3C00082D3C00082D3C0008EC
:100050002D3C00082D3C00082D3C00082D3C0008DC
:100060002D3C00082D3C00082D3C00082D3C0008CC
:100070002D3C00082D3C00082D3C00082D3C0008BC
:100080002D3C00082D3C00082D3C00082D3C0008AC
:100090002D3C00082D3C00082D3C00082D3C00089C
:1000A0002D3C00082D3C00087D1200082D3C000866
:1000B0002D3C00082D3C00082D3C00082D3C00087C
:1000C0002D3C00082D3C00082D3C00082D3C00086C
:1000D0002D3C00082D3C00082D3C0008BD370008D1
:1000E0002D3C00082D3C00082D3C00082D3C00084C
:1000F0002D3C00082D3C00082D3C00082D3C00083C
:100100002D3C00082D3C00082D3C00082D3C00082B
:100110002D3C00082D3C00082D3C00082D3C00081B
:100120002D3C00082D3C00082D3C00082D3C00080B
:100130002D3C00082D3C00082D3C00082D3C0008FB
:100140002D3C00082D3C00082D3C00088D120008B5
:100150002D3C00082D3C00082D3C00082D3C0008DB
:100160002D3C00082D3C00082D3C00082D3C0008CB
:100170002D3C00082D3C00082D3C00082D3C0008BB
:100180002D3C00082D3C00082D3C00082D3C0008AB
:100190002D3C00082D3C00082D3C00082D3C00089B
:0C01A0002D3C00082D3C00082D3C000800
:1001B00053B94AB9002908BF00281CBF4FF0FF31CE
:1001C0004FF0FF3000F00CB8ADF1080C6DE904CE33
:1001D00027F0DAFEDDF804E0DDE9022304B0704721
:1001E000704700BF10F8012B11F8013B012A28BF0E
:1001F0009A42F7D0D01A7047034613F8012B002A11
:10020000FBD1181A01387047000000000000000000
:1002100001F0FF01102A2BDB10F0070F08D010F8B7
:10022000013B013A8B422DD010F0070F42B3F6D1BB
:10023000F0B441EA012141EA014122F007047FF0D4
:1002400000070023F0E80256083C85EA010586EA2B
:10025000010685FA47F5A3FA87F586FA47F6A5FA67
:1002600087F68EB9EED1F0BC01F0FF0102F0070273
:1002700032B110F8013B013A83EA010313B1F8D11E
:100280000020704701387047002D06BF35460338FF
:10029000073815F0010F07D1013015F4807F02BF38
:1002A000013015F4C03F0130F0BC0138704700BF89
:1002B0000348044B834202D0034B03B118477047F5
:1002C0004401002044010020000000000548064BC6
:1002D0001B1AD90F01EBA301491002D0034B03B144
:1002E000184770474401002044010020000000002E
:1002F00010B5064C237843B9FFF7DAFF044B13B16E
:100300000448AFF300800123237010BD4801002092
:10031000000000007C8F020808B5054B1BB10549A1
:100320000548AFF30080BDE80840FFF7CFBF00BF2E
:10033000000000004C0100207C8F0208002310B553
:100340000446C0E90033C0E9043383608181436619
:10035000C2818361194608225C3000F0F6F80D4B2B
:1003600063620D4BA3620D4BE3620D4B23630D4B98
:1003700024629C4206D003F16802944202D0D0333A
:100380009C4205D104F15800BDE8104000F050B97E
:1003900010BD00BFC3040008E50400081D050008E7
:1003A0004305000864010020024A0349034800F0A5
:1003B0006BB800BF000000201D09000810000020DD
:1003C00041680C4B994210B5044601D000F0A6FAE2
:1003D000A168094B994202D0204600F09FFAE168DB
:1003E000064B994204D02046BDE8104000F096BA72
:1003F00010BD00BF64010020CC01002034020020A9
:1004000010B50A4B0A4A1A600A4800220421FFF775
:1004100095FF094801220921FFF790FFBDE8104030
:10042000064802221221FFF789BF00BF9C0200206C
:10043000A903000864010020CC0100203402002040
:10044000014800F0F6B800BFA5020020014800F006
:10045000F1B800BFA502002010B50446FFF7F0FF79
:10046000236A1BB1BDE81040FFF7F0BF044B2362C5
:10047000044B1B68002BF5D1FFF7C2FFF2E700BF6A
:10048000C10300089C0200202DE9F84380468946FC
:1004900014460026D4E90175013F05D52468002CD7
:1004A000F8D13046BDE8F883AB89012B07D9B5F9FF
:1004B0000E30013303D029464046C847064368350D
:1004C000EAE710B50C46B1F90E1000F069F8002803
:1004D000ABBF636DA3891B1823F48053ACBF636566
:1004E000A38110BD2DE9F0411F468B89DB05054630
:1004F0000C46164605D5B1F90E100223002200F075
:100500003DF8A389B4F90E1023F48053A381324639
:100510003B462846BDE8F04100F054B810B50C4603
:10052000B1F90E1000F02AF8B4F90C30421C0BBFE0
:1005300023F4805343F48053A381A38118BF6065E3
:1005400010BDB1F90E1000F009B802440346934201
:1005500000D1704703F8011BF9E7000038B5064CDD
:10056000002305460846236000F0BAFE431C02D172
:10057000236803B12B6038BDA002002038B5074CBA
:10058000054608461146002222601A4600F0ADFEDC
:10059000431C02D1236803B12B6038BDA0020020A8
:1005A00038B5074C054608461146002222601A4617
:1005B00000F099FE431C02D1236803B12B6038BDC3
:1005C000A002002038B5074C054608461146002217
:1005D00022601A4600F072FE431C02D1236803B168
:1005E0002B6038BDA002002070B50D4B0D4C0026CD
:1005F0001D1BB6EBA50F09D128F0C0FC0A4C0B4B14
:1006000000261D1BB6EBA50F05D170BD54F8043BA9
:1006100098470136EDE754F8043B98470136F1E777
:10062000A06E0308A06E0308A06E0308A46E030862
:10063000704770477047000037B5002944D051F823
:10064000043C0190002BA1F10404B8BFE41800F0B1
:10065000DDF81E4A0198136833B96360146003B073
:10066000BDE8304000F0D8B8A34208D92568611928
:100670008B4201BF19685B6849192160EDE71A4692
:100680005B680BB1A342FAD911685518A5420BD18A
:10069000246821445418A3421160E0D11C685B68AF
:1006A00053600C441460DAE702D90C230360D6E7E8
:1006B000256861198B4204BF19685B68636004BFD9
:1006C000491921605460CAE703B030BDAC02002074
:1006D00070B50F4C0E462168054611B900F046F979
:1006E00020603146284600F041F9431C03D14FF009
:1006F000FF34204670BDC41C24F00304A042F8D08F
:10070000211A284600F032F90130F2D1EFE700BF9C
:10071000A80200202DE9F843CD1C25F0030508357B
:100720000C2D38BF0C25002D064601DBA94204D94B
:100730000C2333600020BDE8F883334F00F066F8E7
:100740003B681C463CBB29463046FFF7C1FF431CB3
:10075000044656D13C68A046B8F1000F40D1002CA9
:1007600049D023684146304604EB030900F0FEF807
:10077000814540D121686D1A29463046FFF7A8FF10
:10078000013038D023682B4423603B685A685ABB39
:10079000C7F800800EE02268521B1ED40B2A16D91F
:1007A0006119A342256018BF5960636808BF3960AA
:1007B00062514B60304600F02FF804F10B00231D0E
:1007C00020F00700C21A1CBF1B1AA350B3E76268CF
:1007D000A3420CBF3A605A60ECE723466468B1E775
:1007E0004446D8F80480B7E71A465B68A342FBD1B9
:1007F00000235360DEE70C233360304600F00CF832
:1008000098E70560D6E700BFAC0200200148FFF77B
:1008100010BF00BFA40200200148FFF70BBF00BFBC
:10082000A4020020B1F90C20F8B5160705460C46C5
:1008300051D44B68002B02DC0B6C002B49DDE66ABF
:10084000002E46D0002312F480522F682B6031D046
:10085000626DA389590705D56368D21A636B0BB122
:10086000236CD21A0023E66A216A2846B047421C4C
:10087000B4F90C3006D129681D2944D8264ACA404B
:10088000D60740D500226260D9042269226004D5CF
:10089000421C01D12B6803B96065616B2F60C1B147
:1008A00004F14403994202D02846FFF7C5FE002315
:1008B00063630EE0216A01232846B0470246501CBC
:1008C000C7D12B68002BC4D01D2B01D0162B19D1FA
:1008D0002F6000201CE00F69002FFAD093070E68EC
:1008E00008BF4B690F6018BF0023F61B8B60002EFA
:1008F000EFDD216AD4F828C033463A462846E0475F
:10090000002806DCA38943F04003A3814FF0FF30A9
:10091000F8BD0744361AEAE70100402038B50B69F4
:1009200005460C4613B91D46284638BD18B1036A62
:100930000BB9FFF791FDB4F90C30002BF3D0626EC8
:10094000D00704D4990502D4A06DFFF772FE2846A3
:100950002146FFF767FF636EDA070546E4D4A389F3
:100960009B05E1D4A06DFFF765FEDDE738B5064CC9
:10097000002305460846236000F08EFC431C02D18C
:10098000236803B12B6038BDA0020020030A42098E
:1009900023F4FF6323F0070302F4FC6213439BB2CA
:1009A000C0F3C4001843704703280DD006D80128AF
:1009B0000CD002280CD068B90948704704280BD025
:1009C00005280BD10748704707487047074870470C
:1009D0000748704707487047074870470548704701
:1009E000E08F02081C90020804900208EC8F0208B5
:1009F000F88F0208249002081090020810B5064BE8
:100A00001C68064B1878FFF7CFFF024604492046C2
:100A100026F067FF10BD00BFB80200206C05002063
:100A20002C90020808B521F0CBFA0EF041FF08BD6A
:100A300070B504460D46164614F031FA3246294682
:100A4000204614F033FA32462946204614F019FAAB
:100A500032462946204614F01BFA70BDF8B50F4601
:100A600016461D4626F05AFB04460022294614F07D
:100A700047FA0698FFF78AFF01460022204614F045
:100A800038FA00221146204614F01EFA00221146C0
:100A90002046FFF7CDFF0799204626F0E5FE3246B7
:100AA0003946204610F0FCFE2046F8BD30B583B034
:100AB0000D4606990191009313462A460021FFF73F
:100AC000CDFF04464FF4487110F0F4FE00220221DD
:100AD000204614F01CFA2A460021204610F0E0FEC1
:100AE000204603B030BD0000F0B583B00F46164677
:100AF0001D460FF0BDFE04461C4A002114F045F8C7
:100B000032464FF44271204610F002FF3A460C2163
:100B1000204610F0C5FE002241F2A301204614F049
:100B2000CCF90022FF21204614F0CEF9002248F231
:100B30005241204614F0CFF900220121204614F042
:100B4000D1F9002211462046FFF772FF10212046FE
:100B50000FF09AFE0195064B0093064B06220821E2
:100B60002046FFF77BFF204603B0F0BDFFFF0F00DC
:100B7000DCD6D200A8B302082DE9F04F8BB0FFF706
:100B800051FF064610210FF07FFE002422464FF051
:100B90000001304614F091F92246FF21304614F04E
:100BA00093F9224621463046FFF742FF30460FF0C8
:100BB0005FFE0546634A214613F0E7FF1E224FF40D
:100BC0004871284610F0A4FE22462146284610F01F
:100BD00067FE224641F2A301284614F06EF9224630
:100BE000FF21284614F070F9574B0093574B584A91
:100BF00003212846FFF75AFF564B62222621304632
:100C0000FFF772FF074601F03BF9002800F09880DB
:100C1000038802AD504A2021284627F0ADFB4F4CF7
:100C200001954A4D00952346202208213846FFF7BA
:100C300015FF4B4B01930095234638220821384677
:100C4000FFF70CFF474B0193DFF81CA1CDF800A084
:100C50002346502208213846FFF700FF434B9222DB
:100C600090213046FFF740FF8046414B01930095AD
:100C7000234620220821FFF7F1FE3E4F38603E4B0D
:100C8000019300952346382208214046FFF7E6FEEF
:100C90007860DFF8E890CDF8049000952346502264
:100CA00008214046FFF7DAFE8346B86003F06AFA8F
:100CB000334BA3FB0032920C3249584626F011FE0A
:100CC000314B019300952346682208214046FFF7E7
:100CD000C5FEF8602D4B0193CDF800A0234680227D
:100CE00008214046FFF7BAFE3861294B62224FF4D3
:100CF00095713046FFF7F8FE0646264B01930095A6
:100D000023461E220821FFF7A9FE7861CDF8049042
:100D100000952346362208213046FFF79FFEB86132
:100D2000CDF80490009523464E2208213046FFF767
:100D300095FEF861184B01221A700BB0BDE8F08FD8
:100D4000034666E7FFFF0F003C900208DCD6D200A6
:100D50008CB302085490020864900208A8B30208F9
:100D6000809002089C90020890888000B49002084D
:100D7000C4900208B8020020D49002081496020819
:100D800083DE1B43E0900208F09002080491020801
:100D90002091020830910208B102002008B502F04B
:100DA00011FA38B100F01E031E2B01D0044902E0F5
:100DB000044900E00449054B586826F055FD08BD7C
:100DC000A49102088091020840910208B802002014
:100DD00010B584B0002303930293134B1868134A91
:100DE000A2FB00321249A1FB00435B09A1FB0341B6
:100DF0004909C1EB0111C3EB0314A0EB84000D4CB6
:100E00000090A3EB8103D20A0B49E06826F069FD4C
:100E100002A903A802F04AFE029B039A074920692F
:100E200026F05FFD04B010BDB4020020C5B3A2914E
:100E300089888888B8020020BC910208D4910208F1
:100E400008B5094A136801331360FFF7D7FDFFF7B0
:100E5000BFFF064B1B7803B908BDFFF79FFF034B8D
:100E600000221A70F8E700BFB4020020B002002090
:100E700038B5134B1B7803B3124C1349606926F045
:100E8000F3FC124D2946A06926F0EEFC2946E069E4
:100E900026F0EAFC00240E4B1C600E4B01221A7057
:100EA000FFF7ACFDFFF77AFFFFF792FF22464FF402
:100EB0007A71094823F0BEFC38BDFFF75DFEDBE721
:100EC000B1020020B80200203091020814960208F6
:100ED000B4020020B0020020410E000870B50646A2
:100EE0000D461446134B1B78DBB1134B5869DEB12A
:100EF000337803B9114E314626F0B6FC0E4B986993
:100F0000A5B12B7803B90D4D294626F0ADFC0A4B4F
:100F1000D8696CB1237803B9084C214626F0A4FCAB
:100F200070BDFFF729FEE0E7044EE4E7034DEBE771
:100F3000024CF2E7B1020020B80200201496020829
:100F4000034B1B7813B1034B01221A70704700BF8B
:100F5000B1020020B002002010B500240FE00020F4
:100F600002F0B0F916E0052B26D1012002F0AAF913
:100F700002E0012002F07EF9642004F03FFF01341A
:100F80000F4A82FB0432E317C3EB620303EB8303D4
:100F90009C42E4D00B4B1A78D3B2042AE9D0042B3C
:100FA000E1D8023BDBB2012B06D814F0030FE3D1EA
:100FB000012002F087F9DFE7012002F06FF9DBE79B
:100FC000676666666C05002000B583B072B60120C6
:100FD00002F078F900230193019A034B9A42F6D864
:100FE000019B01330193F7E7FEFF010010B594B0B8
:100FF00008AC302200212046FFF7A7FA0023039314
:1010000004930593069307930193204A116C41F0D2
:1010100080511164126C02F080520192019A029385
:101020001B4B1A6842F440421A601B6803F44043A9
:101030000293029B012308934FF480330993022308
:101040000E934FF480020F92192210924FF4A8725F
:101050001192129307231393204602F095FE88B94C
:101060000F2303930223049305904FF4A053069398
:101070004FF480530793052103A803F0D7F818B95C
:1010800014B010BDFFF7A0FFFFF79EFF003802402D
:101090000070004000B583B002F0CAFDFFF7A6FF64
:1010A00002F0BAF8002002F0F9F8012002F0F6F898
:1010B00002F0AAFA284827F057F900F0ADFC00F03A
:1010C000F7FC7F2002F010F9244827F04DF924485E
:1010D00027F04AF902F07CFA20B1224827F044F9BF
:1010E000FFF772FF204827F03FF9204806F09EFAEC
:1010F0001F4827F039F900F001FC20B91D4827F0FE
:1011000033F9FFF761FF1C4827F02EF90024019402
:101110000323009323464FF480621849184804F0D3
:101120007BFC01940123009323464FF48072154900
:10113000154804F071FC01940223009323464FF4F8
:1011400080621249124804F067FC84F3118862B689
:1011500004F0A2FCFFF738FFF491020804920208A1
:101160001C9202082C920208409202085C000020A7
:10117000509202088092020898920208B4920208E3
:1011800055190008BC920208590F0008C0920208C5
:101190002513000808B5FFF717FF08B5FFF714FF80
:1011A00008B5FFF711FF000030B589B005460023F0
:1011B0000193244B5A6C42F480225A645B6C03F412
:1011C00080230193019B02A903A803F005F9079B63
:1011D000F3B903F0F1F803461B4AA2FB03239B0C6F
:1011E000013B1A481A4A026040F2E732C26043608B
:1011F000002303618360836104F030F8044658B132
:101200001A2002F0BDFDC4B90F2D0ED9012415E03E
:1012100003F0D2F84300DFE70C4C204603F0E0FE79
:10122000204603F09BFE0446EAE7224629461A20A0
:1012300002F096FD074B1D6000E00124204609B036
:1012400030BD00BF0038024083DE1B43D8020020BF
:1012500000480140E400002008B50268034B9A42B0
:1012600000D008BD02F0FEFCFBE700BF00480140D3
:10127000FEE7FEE7FEE7FEE7FEE7704708B5024837
:1012800003F0CBFE08BD00BFD802002008B5012145
:1012900000200AF08DFF08BD0346064A126822B1FD
:1012A000044A1068034413607047024A02491160FF
:1012B000F6E700BF200300204037002010B5431E92
:1012C000012B06D808461446114602F0F1F92046D3
:1012D00010BD27F04DF9092303604FF0FF30F7E709
:1012E0004FF0FF30704700207047002070474FF4E8
:1012F00000534B60002070470120704708B501F093
:1013000061FF28B9044A05490548FFF7E7FD08BD14
:10131000FFF7AEFDFBE700BFC4920208E4920208AB
:101320000093020838B5294827F01EF801F0DEFDC9
:1013300038B1274827F018F84FF47A7004F05EFDB2
:10134000FAE705460FF068FA02F010FC214827F092
:101350000BF8214A21492248FFF7C0FD13E021483C
:1013600027F002F801F0E6FEF8B901F02BFF014684
:101370001D4826F091FFFFF7C1FF254623F0C0FA74
:10138000052004F03BFD194B1B78DCB2AB42F5D0D5
:10139000042CE4D0052C12D00F4A10491048FFF756
:1013A0009DFDFFF7CDFD2546E8E7114826F0DCFF5F
:1013B000104A11491148FFF791FD2546DEE7104A12
:1013C00010491148FFF78AFD2546D7E71893020810
:1013D00040930208709302089C930208B893020895
:1013E000D4930208EC9302081C9402086C050020B8
:1013F000409402085C94020880940208A0940208B9
:10140000B4940208CC940208E0940208024B002233
:101410001A700120704700BF2C03002010B504464D
:1014200002E0012004F0EAFC024B1B5D002BF8D126
:1014300010BD00BF2C03002070B5ADF51C7D1D480C
:101440000EF0BCF81C480EF0B9F896AC1B4D0FCD51
:101450000FC495E8030084E80300002404E0294653
:10146000174826F019FF0134022C1FD89CAB03EB60
:10147000C40353F8185C0A22294602A80DF072FA38
:1014800002460028EBD19CAB03EBC40353F8146C69
:101490003046FEF7B1FE024602AD01AB31462846AA
:1014A0000DF0E9FC28460DF0B3FEDCE70DF51C7DE0
:1014B00070BD00BFEC940208F4940208948F0208F7
:1014C0000095020870B590B006460D4600242346EC
:1014D0000AE0591C03F140000DEB000C0CF8402C05
:1014E0003F2B0ED001340B46AC420FD2325D1F2A87
:1014F000EFD80D2AEDD00A2AEBD0092AE9D02E2206
:10150000E7E7684602F0D4F80021EBE70BB910B02A
:1015100070BD1946684602F0CBF8F8E730B5ADF576
:10152000277D0C460122014612A80DF01BFA28B9AE
:1015300021461E4826F0B0FE002409E001461C4862
:1015400026F0AAFE24E002A8FFF7BCFF019B1C4482
:1015500001AB402202A912A80DF0A6FB054670B906
:10156000019951B10B19B3F5006FECD9C4F50061C5
:1015700002A8FFF7A7FF012402E00C4600E00024C8
:101580004DB912A80DF044FE54B90A4826F0ECFEFD
:101590000DF5277D30BD2946074826F07DFEF0E792
:1015A0004FF40061054826F077FEEEE73895020813
:1015B000209502089495020858950208749502082F
:1015C000F0B5ADF52F7D1D46052902DD0DF52F7D0A
:1015D000F0BD04460F46164601469AA80DF05DFF81
:1015E000024600BB52A99AA80DF0B7FF0146F8B910
:1015F0009DF86231FBB129490DF5B170FEF7F2FD9E
:101600000028EFD026490DF5B170FEF7EBFD00285C
:10161000E8D02046FEF7F0FD88B1431EE35C2F2B97
:101620002DD0204A0CE021461F4826F035FECDE79C
:101630001E4826F031FE9AA80DF085FFC6E7194A2C
:101640000DF5B173019300922346194A4FF4A0712E
:1016500002A826F091FE9DF8543113F0100F10D01F
:101660002B6801332B6002A9124826F015FE2B4689
:1016700032463946013102A8FFF7A2FFB2E70E4A0F
:10168000DEE7336801333360529A02A90B4826F033
:1016900003FE529902A8FFF741FFA3E7E89302086F
:1016A000E4950208A4950208A8950208C8950208C6
:1016B000E8950208F095020814960208FC950208C5
:1016C00010B582B0002401940094104826F04CFE1E
:1016D000FFF7B2FE0E4826F047FE6B4601AA2146F0
:1016E0000C48FFF76DFF019A00990B4826F0D4FDD6
:1016F000202005F0B7FE38B104460146074826F021
:10170000CBFD204605F052FF02B010BD189602082E
:101710002C960208589602085C96020890960208D9
:1017200008B5044B186818B14FF0FF3105F07AF98D
:1017300008BD00BF2403002008B5044B186820B181
:1017400000231A46194604F087FF08BD2403002031
:1017500000B583B0174B1B68ADF804301B0C8DF837
:10176000063007E0144826F097FD144B05221A7046
:10177000FFF7E2FF4FF0FF31114B186805F052F907
:10178000012008F011FA0028F4D00C4B03221A7043
:10179000FFF7C6FF012201A90A480DF0B7F801467C
:1017A0000028DFD1054B04221A70FFF789FFFFF7ED
:1017B000C3FFDFE7D8960208C09602086C05002038
:1017C000280300203003002008B50130C0B208F023
:1017D000EBF908B1002008BD0220FCE700207047AB
:1017E00030B585B0044601300C4D4FF0010C05F8C2
:1017F00004C000250295DFF828C0CDF804C09BB2D4
:10180000009313460A462946C0B208F043FB20461F
:10181000FFF704FE284605B030BD00BF2C030020B2
:101820000D14000830B585B0044601300C4D4FF062
:10183000010C05F804C000250295DFF828C0CDF89A
:1018400004C09BB2009313460A462946C0B208F072
:101850007DFB2046FFF7E2FD284605B030BD00BF06
:101860002C0300200D14000810B514460130C0B23E
:10187000022913D00AD8B9B1012905D1002108F0F5
:1018800077F92060002010BD0420FCE7032903D174
:10189000012313600020F6E70420F4E7002108F09C
:1018A00075F920800020EEE70846ECE708B5074808
:1018B00026F05AFD064B02221A70064B186820B11A
:1018C00000231A46194604F0C7FE08BDDC9602083C
:1018D0006C0500202803002008B5054826F044FDCB
:1018E0000020044B1870024603490DF00FF808BDA4
:1018F000FC9602086C050020D896020800B583B05B
:1019000000210F4B19700322012004F079FE0D4BCA
:10191000186090B1012004F063FF0B4B186060B1B8
:1019200000230193022200924FF400620749084805
:1019300004F072F8012800D0002003B000BD00BF01
:101940002C03002028030020240300201097020805
:101950005117000800B583B001F034FF0B4B1B8B0F
:10196000ADF8043001A9002005F0DAFE40B10848C6
:1019700026F0FAFC00214FF0FF3006F041FEF9E7B7
:10198000044826F0F1FCFFF71FFBF0E7948F0208F4
:101990002C9702081897020884B00190019B03EB72
:1019A000C3035B00039300E000BF039B5A1E039236
:1019B000002BF9D104B0704700B587B001A900230E
:1019C00001934B608B60CB600B611023019301236B
:1019D000029303230493024802F01CFD07B000BDEC
:1019E000001C024000B587B001A9002301934B60A1
:1019F0008B60CB600B613023019312230293012390
:101A000003930323049304230593024802F002FD89
:101A100007B000BD001C024010B588B003A9002427
:101A200003944C608C60CC600C6101941B4B1A6C6D
:101A300042F480021A641A6C02F480020192019A44
:101A400002941A6B42F080021A631B6B03F080034E
:101A50000293029B302303931223049301230593E3
:101A600003230693042307930D4802F0D3FC0D488B
:101A70000D4B03600D4B43608460C4604FF48043A2
:101A8000036144618461C461046203F09FF808B992
:101A900008B010BDFFF798FAFAE700BF003802401F
:101AA000001C02407005002000580040A086010084
:101AB000424B1B685A699B6941490969C3F340035A
:101AC00011F0200F04D002F4E0620BB9002A6AD0B2
:101AD000F0B587B0FFF770FF01221021384802F0FF
:101AE000A9FD0A20FFF758FF0025082D16DC344C0D
:101AF00000221021204602F09DFD0A20FFF74CFF36
:101B000001221021204602F095FD0A20FFF744FF34
:101B1000236913F0200F01D10135E6E701A9002464
:101B200001944C608C60CC600C61202601960127EA
:101B3000029703230493224D284602F06BFC2246B1
:101B40003146284602F076FD0A20FFF725FF3A4687
:101B50003146284602F06EFD0A20FFF71DFF174DA3
:101B6000284603F020F9284603F030F8FFF73AFF43
:101B7000144B6B60AC60EC604FF480432B616C6184
:101B8000AC61EC612C62284603F020F868B92B6840
:101B90009B6913F0020F0BD1094B1B6913F0200F47
:101BA00009D007B0F0BD104670474FF0FF30F8E79E
:101BB0004FF0FF30F5E74FF0FF30F2E770050020FF
:101BC000001C0240A0860100002206E000BF013395
:101BD0009BB2042BFAD9013292B2824201D2002385
:101BE000F7E7704700BF024BA3F8FE00704700BF45
:101BF00000FF076082B000BF054BB3F800319BB215
:101C0000ADF80630BDF8060080B202B0704700BFE4
:101C100000FF076000BF024BA3F80001704700BF40
:101C200000FF076000BF034BA3F8FE00A3F80011FC
:101C3000704700BF00FF076010B5042868D05FD868
:101C4000022867D0032867D0012867D18024214665
:101C50004FF45850FFF7E6FF14F0200F66D0384AD3
:101C6000D3681269934203D23549CA609BB20B61B3
:101C7000334CE088FFF7B6FF0020FFF7CBFFE0888A
:101C8000013080B2FFF7AEFF0020FFF7C3FFE0880E
:101C9000023080B2FFF7A6FFE0680138C0F30F20E2
:101CA000FFF7B8FFE088033080B2FFF79BFFA08901
:101CB0000138C0B2FFF7AEFF2089FFF793FF002085
:101CC000FFF7A8FF2089013080B2FFF78BFF0020CB
:101CD000FFF7A0FF2089023080B2FFF783FF206961
:101CE0000138C0F30F20FFF795FF2089033080B241
:101CF000FFF778FF208A0138C0B2FFF78BFF10BDD5
:101D000006280DD007280DD005280DD160249EE7A8
:101D100020249CE740249AE7C02498E7002496E713
:101D2000A02494E7E02492E7002490E7044AD368D3
:101D3000126993429CD90249CA609BB20B6197E732
:101D4000C405002008B50020FFF776FF08BD00009D
:101D50002DE9F04794B00DAE00240D940E940F942D
:101D6000109411941294139406AF06940794089457
:101D700009940A940B940C9401AD01940294039479
:101D800004940594DFF8E0A022462021504602F09A
:101D900051FC202301934FF00108CDF80880CDF8C5
:101DA0000C804FF00209CDF810902946504602F001
:101DB00031FBCDF808900394032304930C2305937F
:101DC0004FF6B37301932946284802F023FB4FF6E0
:101DD000807301932946264802F01CFB4FF23F0313
:101DE00001932946234802F015FB3F23019329461E
:101DF000214802F00FFB21484FF02043036003F518
:101E0000827343608460C460046110224261846113
:101E1000C461046244624FF480538362C4624FF42D
:101E20008043036344638463C46344640F230D935A
:101E30000E9346210F91CDF84080119211211291FD
:101E40001394069307930893CDF824800A920B917C
:101E50000C943A46314603F08AFA10B914B0BDE842
:101E6000F0874046FAE700BF00040240000C024041
:101E7000001002400014024000180240D805002063
:101E800000487047C405002070B505460E460F4C4B
:101E9000E088FFF7A7FE280AFFF7BCFEE0880130C4
:101EA00080B2FFF79FFEE8B2FFF7B4FE2089FFF78C
:101EB00099FE300AFFF7AEFE2089013080B2FFF7AD
:101EC00091FEF0B2FFF7A6FE70BD00BFC405002072
:101ED000034B9A88034BA3F8FE2000BF704700BF56
:101EE000C405002000FF076038B505460A4BDA68D4
:101EF0001C6902FB04F400210846FFF7C5FFFFF749
:101F0000E7FF002204E0ABB20449A1F8003101323E
:101F1000A242F8D338BD00BFC405002000FF07600F
:101F200010B582B04FF45B40FFF75CFEFFF762FE36
:101F300004468DF804004FF45C40FFF753FEFFF7B2
:101F400059FE8DF80500C1B2E0B241EA0021234CF0
:101F50002180234826F0A0F92388B3F5004F47D00D
:101F6000204826F001FA0120FFF73CFE0A20FFF787
:101F70002BFE7820FFF728FE1120FFF733FE782094
:101F8000FFF722FE55213A20FFF74CFE00213620B4
:101F9000FFF748FE2920FFF725FE1420FFF714FE67
:101FA000114B5A6822F00F025A605A6822F470628C
:101FB0005A605A6842F004025A605A6842F48062D9
:101FC0005A600020FFF7BEFE0020FFF78DFF0122C0
:101FD0002021064802F02EFB02B010BDC4050020EF
:101FE000D8970208F8970208000100A000040240F8
:101FF00055214FF47040FFF715FEAA214FF2010062
:10200000FFF710FE52214FF20200FFF70BFE0821EE
:102010004FF20300FFF706FE01214FF20400FFF725
:1020200001FE0D214FF43040FFF7FCFD0D214BF276
:102030000100FFF7F7FD0D214BF20200FFF7F2FD63
:1020400034214FF43640FFF7EDFD34214BF20160AF
:10205000FFF7E8FD34214BF20260FFF7E3FD0D21AD
:102060004FF43140FFF7DEFD0D214BF20110FFF779
:10207000D9FD0D214BF20210FFF7D4FD34214FF4AE
:102080003740FFF7CFFD34214BF20170FFF7CAFD57
:1020900034214BF20270FFF7C5FD00214FF43240AE
:1020A000FFF7C0FD00214BF20120FFF7BBFD00212F
:1020B0004BF20220FFF7B6FD24214FF43840FFF722
:1020C000B1FD24214BF60100FFF7ACFD24214BF6B6
:1020D0000200FFF7A7FD01214FF43F40FFF7A2FDEB
:1020E0000F214FF43340FFF79DFD0F214BF20130DC
:1020F000FFF798FD0F214BF20230FFF793FD3421DB
:102100004FF43940FFF78EFD34214BF60110FFF7F5
:1021100089FD34214BF60210FFF784FD08214FF4AE
:102120003540FFF77FFD08214BF20150FFF77AFDA4
:1021300008214BF20250FFF775FD03214FF4424096
:10214000FFF770FD24214FF43A40FFF76BFD242187
:102150004BF60120FFF766FD24214BF60220FFF726
:1021600061FD00214FF43C40FFF75CFD78214BF608
:102170000140FFF757FD00214BF60240FFF752FDEB
:1021800000214FF43D40FFF74DFD78214BF6015003
:10219000FFF748FD00214BF60250FFF743FD0021F9
:1021A0004FF43E40FFF73EFD64214BF60160FFF720
:1021B00039FD00214FF45140FFF734FD33214DF23A
:1021C0000110FFF72FFD00214DF20210FFF72AFD4D
:1021D00034214DF20310FFF725FD00214DF20410CC
:1021E000FFF720FD3A214DF20510FFF71BFD0021FE
:1021F0004DF20610FFF716FD4A214DF20710FFF7CA
:1022000011FD00214DF20810FFF70CFD5C214DF28D
:102210000910FFF707FD00214DF20A10FFF702FD3C
:1022200081214DF20B10FFF7FDFC00214DF20C1047
:10223000FFF7F8FCA6214DF20D10FFF7F3FC00218B
:102240004DF20E10FFF7EEFCE5214DF20F10FFF7F7
:10225000E9FC01214DF21010FFF7E4FC13214DF2CF
:102260001110FFF7DFFC01214DF21210FFF7DAFC2D
:1022700054214DF21310FFF7D5FC01214DF214103B
:10228000FFF7D0FC82214DF21510FFF7CBFC0121A6
:102290004DF21610FFF7C6FCCA214DF21710FFF7DA
:1022A000C1FC02214DF21810FFF7BCFC00214DF2D9
:1022B0001910FFF7B7FC02214DF21A10FFF7B2FC1C
:1022C00001214DF21B10FFF7ADFC02214DF21C1055
:1022D000FFF7A8FC34214DF21D10FFF7A3FC0221EB
:1022E0004DF21E10FFF79EFC67214DF21F10FFF705
:1022F00099FC02214DF22010FFF794FC84214DF24D
:102300002110FFF78FFC02214DF22210FFF78AFC0B
:10231000A4214DF22310FFF785FC02214DF2241079
:10232000FFF780FCB7214DF22510FFF77BFC02215F
:102330004DF22610FFF776FCCF214DF22710FFF764
:1023400071FC02214DF22810FFF76CFCDE214DF2EA
:102350002910FFF767FC02214DF22A10FFF762FCFB
:10236000F2214DF22B10FFF75DFC02214DF22C10F3
:10237000FFF758FCFE214DF22D10FFF753FC03210F
:102380004DF22E10FFF74EFC10214DF22F10FFF7EB
:1023900049FC03214DF23010FFF744FC33214DF28C
:1023A0003110FFF73FFC03214DF23210FFF73AFCEA
:1023B0006D214DF23310FFF735FC00214FF45240F0
:1023C000FFF730FC33214DF20120FFF72BFC0021F9
:1023D0004DF20220FFF726FC34214DF20320FFF7D7
:1023E00021FC00214DF20420FFF71CFC3A214DF2A4
:1023F0000520FFF717FC00214DF20620FFF712FC25
:102400004A214DF20720FFF70DFC00214DF2082074
:10241000FFF708FC5C214DF20920FFF703FC0021C7
:102420004DF20A20FFF7FEFB81214DF20B20FFF752
:10243000F9FB00214DF20C20FFF7F4FBA6214DF231
:102440000D20FFF7EFFB00214DF20E20FFF7EAFB16
:10245000E5214DF20F20FFF7E5FB01214DF21020A1
:10246000FFF7E0FB13214DF21120FFF7DBFB012109
:102470004DF21220FFF7D6FB54214DF21320FFF747
:10248000D1FB01214DF21420FFF7CCFB82214DF24C
:102490001520FFF7C7FB01214DF21620FFF7C2FB05
:1024A000CA214DF21720FFF7BDFB02214DF2182083
:1024B000FFF7B8FB00214DF21920FFF7B3FB022113
:1024C0004DF21A20FFF7AEFB01214DF21B20FFF762
:1024D000A9FB02214DF21C20FFF7A4FB34214DF291
:1024E0001D20FFF79FFB02214DF21E20FFF79AFBF4
:1024F00067214DF21F20FFF795FB02214DF22020AE
:10250000FFF790FB84214DF22120FFF78BFB022186
:102510004DF22220FFF786FBA4214DF22320FFF786
:1025200081FB02214DF22420FFF77CFBB7214DF205
:102530002520FFF777FB02214DF22620FFF772FBE3
:10254000CF214DF22720FFF76DFB02214DF228200D
:10255000FFF768FBDE214DF22920FFF763FB022124
:102560004DF22A20FFF75EFBF2214DF22B20FFF700
:1025700059FB02214DF22C20FFF754FBFE214DF2B6
:102580002D20FFF74FFB03214DF22E20FFF74AFBD2
:1025900010214DF22F20FFF745FB03214DF2302093
:1025A000FFF740FB33214DF23120FFF73BFB0321C6
:1025B0004DF23220FFF736FB6D214DF23320FFF74D
:1025C00031FB00214FF45340FFF72CFB33214DF238
:1025D0000130FFF727FB00214DF20230FFF722FB0D
:1025E00034214DF20330FFF71DFB00214DF2043082
:1025F000FFF718FB3A214DF20530FFF713FB0021DE
:102600004DF20630FFF70EFB4A214DF20730FFF77F
:1026100009FB00214DF20830FFF704FB5C214DF26D
:102620000930FFF7FFFA00214DF20A30FFF7FAFAFE
:1026300081214DF20B30FFF7F5FA00214DF20C30FD
:10264000FFF7F0FAA6214DF20D30FFF7EBFA00216B
:102650004DF20E30FFF7E6FAE5214DF20F30FFF7AD
:10266000E1FA01214DF21030FFF7DCFA13214DF2AF
:102670001130FFF7D7FA01214DF21230FFF7D2FAED
:1026800054214DF21330FFF7CDFA01214DF21430F1
:10269000FFF7C8FA82214DF21530FFF7C3FA012186
:1026A0004DF21630FFF7BEFACA214DF21730FFF790
:1026B000B9FA02214DF21830FFF7B4FA00214DF2B9
:1026C0001930FFF7AFFA02214DF21A30FFF7AAFADC
:1026D00001214DF21B30FFF7A5FA02214DF21C300B
:1026E000FFF7A0FA34214DF21D30FFF79BFA0221CB
:1026F0004DF21E30FFF796FA67214DF21F30FFF7BB
:1027000091FA02214DF22030FFF78CFA84214DF22C
:102710002130FFF787FA02214DF22230FFF782FACB
:10272000A4214DF22330FFF77DFA02214DF224302F
:10273000FFF778FAB7214DF22530FFF773FA02213F
:102740004DF22630FFF76EFACF214DF22730FFF71A
:1027500069FA02214DF22830FFF764FADE214DF2CA
:102760002930FFF75FFA02214DF22A30FFF75AFABB
:10277000F2214DF22B30FFF755FA02214DF22C30A9
:10278000FFF750FAFE214DF22D30FFF74BFA0321EF
:102790004DF22E30FFF746FA10214DF22F30FFF7A1
:1027A00041FA03214DF23030FFF73CFA33214DF26C
:1027B0003130FFF737FA03214DF23230FFF732FAAA
:1027C0006D214DF23330FFF72DFA00214FF45440C4
:1027D000FFF728FA33214DF20140FFF723FA0021D9
:1027E0004DF20240FFF71EFA34214DF20340FFF78D
:1027F00019FA00214DF20440FFF714FA3A214DF284
:102800000540FFF70FFA00214DF20640FFF70AFAE4
:102810004A214DF20740FFF705FA00214DF208402A
:10282000FFF700FA5C214DF20940FFF7FBF90021A8
:102830004DF20A40FFF7F6F981214DF20B40FFF708
:10284000F1F900214DF20C40FFF7ECF9A6214DF211
:102850000D40FFF7E7F900214DF20E40FFF7E2F9D6
:10286000E5214DF20F40FFF7DDF901214DF2104057
:10287000FFF7D8F913214DF21140FFF7D3F90121E9
:102880004DF21240FFF7CEF954214DF21340FFF7FD
:10289000C9F901214DF21440FFF7C4F982214DF22C
:1028A0001540FFF7BFF901214DF21640FFF7BAF9C5
:1028B000CA214DF21740FFF7B5F902214DF2184039
:1028C000FFF7B0F900214DF21940FFF7ABF90221F3
:1028D0004DF21A40FFF7A6F901214DF21B40FFF718
:1028E000A1F902214DF21C40FFF79CF934214DF271
:1028F0001D40FFF797F902214DF21E40FFF792F9B4
:1029000067214DF21F40FFF78DF902214DF2204063
:10291000FFF788F984214DF22140FFF783F9022166
:102920004DF22240FFF77EF9A4214DF22340FFF73C
:1029300079F902214DF22440FFF774F9B7214DF2E5
:102940002540FFF76FF902214DF22640FFF76AF9A3
:10295000CF214DF22740FFF765F902214DF22840C3
:10296000FFF760F9DE214DF22940FFF75BF9022104
:102970004DF22A40FFF756F9F2214DF22B40FFF7B6
:1029800051F902214DF22C40FFF74CF9FE214DF296
:102990002D40FFF747F903214DF22E40FFF742F992
:1029A00010214DF22F40FFF73DF903214DF2304049
:1029B000FFF738F933214DF23140FFF733F90321A6
:1029C0004DF23240FFF72EF96D214DF23340FFF703
:1029D00029F900214FF45540FFF724F933214DF236
:1029E0000150FFF71FF900214DF20250FFF71AF9CD
:1029F00034214DF20350FFF715F900214DF2045038
:102A0000FFF710F93A214DF20550FFF70BF90021BD
:102A10004DF20650FFF706F94A214DF20750FFF735
:102A200001F900214DF20850FFF7FCF85C214DF24E
:102A30000950FFF7F7F800214DF20A50FFF7F2F8BE
:102A400081214DF20B50FFF7EDF800214DF20C50B3
:102A5000FFF7E8F8A6214DF20D50FFF7E3F800214B
:102A60004DF20E50FFF7DEF8E5214DF20F50FFF763
:102A7000D9F801214DF21050FFF7D4F813214DF28F
:102A80001150FFF7CFF801214DF21250FFF7CAF8AD
:102A900054214DF21350FFF7C5F801214DF21450A7
:102AA000FFF7C0F882214DF21550FFF7BBF8012166
:102AB0004DF21650FFF7B6F8CA214DF21750FFF746
:102AC000B1F802214DF21850FFF7ACF800214DF299
:102AD0001950FFF7A7F802214DF21A50FFF7A2F89C
:102AE00001214DF21B50FFF79DF802214DF21C50C1
:102AF000FFF798F834214DF21D50FFF793F80221AB
:102B00004DF21E50FFF78EF867214DF21F50FFF770
:102B100089F802214DF22050FFF784F884214DF20C
:102B20002150FFF77FF802214DF22250FFF77AF88B
:102B3000A4214DF22350FFF775F802214DF22450E5
:102B4000FFF770F8B7214DF22550FFF76BF802211F
:102B50004DF22650FFF766F8CF214DF22750FFF7D0
:102B600061F802214DF22850FFF75CF8DE214DF2AA
:102B70002950FFF757F802214DF22A50FFF752F87B
:102B8000F2214DF22B50FFF74DF802214DF22C505F
:102B9000FFF748F8FE214DF22D50FFF743F80321CF
:102BA0004DF22E50FFF73EF810214DF22F50FFF757
:102BB00039F803214DF23050FFF734F833214DF24C
:102BC0003150FFF72FF803214DF23250FFF72AF86A
:102BD0006D214DF23350FFF725F800214FF4564098
:102BE000FFF720F833214DF20160FFF71BF80021B9
:102BF0004DF20260FFF716F834214DF20360FFF743
:102C000011F800214DF20460FFF70CF83A214DF263
:102C10000560FFF707F800214DF20660FFF702F8A4
:102C20004A214DF20760FEF7FDFF00214DF20860DA
:102C3000FEF7F8FF5C214DF20960FEF7F3FF00217B
:102C40004DF20A60FEF7EEFF81214DF20B60FEF7B8
:102C5000E9FF00214DF20C60FEF7E4FFA6214DF2E2
:102C60000D60FEF7DFFF00214DF20E60FEF7DAFF88
:102C7000E5214DF20F60FEF7D5FF01214DF2106006
:102C8000FEF7D0FF13214DF21160FEF7CBFF0121BB
:102C90004DF21260FEF7C6FF54214DF21360FEF7AD
:102CA000C1FF01214DF21460FEF7BCFF82214DF2FD
:102CB0001560FEF7B7FF01214DF21660FEF7B2FF77
:102CC000CA214DF21760FEF7ADFF02214DF21860E8
:102CD000FEF7A8FF00214DF21960FEF7A3FF0221C5
:102CE0004DF21A60FEF79EFF01214DF21B60FEF7C8
:102CF00099FF02214DF21C60FEF794FF34214DF242
:102D00001D60FEF78FFF02214DF21E60FEF78AFF65
:102D100067214DF21F60FEF785FF02214DF2206012
:102D2000FEF780FF84214DF22160FEF77BFF022138
:102D30004DF22260FEF776FFA4214DF22360FEF7EC
:102D400071FF02214DF22460FEF76CFFB7214DF2B6
:102D50002560FEF767FF02214DF22660FEF762FF55
:102D6000CF214DF22760FEF75DFF02214DF2286072
:102D7000FEF758FFDE214DF22960FEF753FF0221D6
:102D80004DF22A60FEF74EFFF2214DF22B60FEF766
:102D900049FF02214DF22C60FEF744FFFE214DF267
:102DA0002D60FEF73FFF03214DF22E60FEF73AFF44
:102DB00010214DF22F60FEF735FF03214DF23060F8
:102DC000FEF730FF33214DF23160FEF72BFF032178
:102DD0004DF23260FEF726FF6D214DF23360FEF7B3
:102DE00021FF55214FF47040FEF71CFFAA214FF23E
:102DF0000100FEF717FF52214FF20200FEF712FF0B
:102E000008214FF20300FEF70DFF00214FF20400EE
:102E1000FEF708FFCC214FF43140FEF703FF0021FD
:102E20004BF20110FEF7FEFE05214FF43640FEF78F
:102E3000F9FE70214FF43740FEF7F4FE70214BF29B
:102E40000170FEF7EFFE01214FF43840FEF7EAFE75
:102E500003214BF60100FEF7E5FE03214BF60200CD
:102E6000FEF7E0FE03214BF60300FEF7DBFE022136
:102E70004FF43C40FEF7D6FE00214BF60140FEF732
:102E8000D1FE00214BF60240FEF7CCFED0214FF4DC
:102E90004940FEF7C7FE02214CF60110FEF7C2FEC4
:102EA00050214CF60210FEF7BDFE50214CF60310E7
:102EB000FEF7B8FE50214CF60410FEF7B3FE0021D9
:102EC0004FF45450FEF7AEFE55214FF46850FEF714
:102ED000A9FE4FF48850FEF785FE7820FEF774FEB9
:102EE0004FF42450FEF77EFEFFF75AB810B5124B90
:102EF00000221A605A609A60DA601A614FF44872D0
:102F0000DA604FF4C8721A614FF430529A804FF46D
:102F10002852DA804FF42C521A81FEF719FF04462A
:102F200030B9142000F0B0FEFEF7FAFF204610BDC5
:102F3000024825F019FAF9E7C40500203098020884
:102F40002DE9F04383B00A9D03FB02F62DB18146C3
:102F5000884614460AB1009313B903B0BDE8F08364
:102F60002E4FF888FEF73EFECDF804904A46100A30
:102F7000FEF750FEF888013080B2FEF733FEDDF830
:102F800004905FFA89F0FEF745FEF888023080B2BF
:102F9000FEF728FE4C44601EC0F30F20FEF73AFEF9
:102FA000F888033080B2FEF71DFEA4B2601EC0B2E6
:102FB000FEF730FE3889FEF715FE4446200AFEF77C
:102FC00029FE3889013080B2FEF70CFE5FFA88F0E6
:102FD000FEF720FE3889023080B2FEF703FE009B28
:102FE00043441C46581EC0F30F20FEF713FE3889D9
:102FF000033080B2FEF7F6FDA0B20138C0B2FEF792
:1030000009FEFEF765FF0023B342A6D235F8131080
:10301000034AA2F800110133F6E700BFC4050020FF
:1030200000FF076018280AD005D80C2809D01028FE
:1030300009D102207047202807D1042070470320BF
:10304000704701207047FF207047FF20704708B588
:103050000A89531E9BB2BF2B00D9C0220021FDF765
:1030600074FA08BDF0B583B016461289531E9BB2A0
:10307000BF2B4BD80F46037841787F33DBB27D2BD3
:1030800049D83F294AD9FF294BD07E2916D840205C
:10309000091ABE2000FB03F353FA81F102FB01F58C
:1030A000F088FFF7BFFF0446FF283DD0204B0344C4
:1030B00093F8D03D23B901231C4629E04120E7E7DE
:1030C000FEF72EFB4FF41473204603FB00F000F5CF
:1030D0001070174BC31818461C462A4600230CF0E4
:1030E000A7F870B901AB3289394620460BF0DCFDF8
:1030F0000446FEF721FB34B93289019B9A4207D07E
:1031000001E0FEF719FB01231C4601E001231C46E8
:10311000204603B0F0BD01231C46F9E701231C46FD
:10312000F6E701231C46F3E701231C46F0E700BF46
:103130002806002010B540F6D85200211F48FDF7A0
:1031400004FAFEF7EDFA002401E00134E4B2042CA5
:1031500015D84FF4147304FB03F303F51073012225
:10316000174951F82410154818440BF0FBFB0028B0
:10317000EBD1124B2344012283F8D02DE5E7FEF773
:10318000DBFA0E4B012283F8D52D93F8D13D6BB9B4
:103190000A4B93F8D23D5BB9084B93F8D33D4BB93A
:1031A000064B93F8D43D3BB9104600E0002010BD1B
:1031B0000020FCE70020FAE70020F8E728060020BE
:1031C000AC9B02080023184601E00133DBB2042B5C
:1031D00009D8054A1A4492F8D02D002AF5D00122C8
:1031E0009A401043F1E770472806002070B138B5C7
:1031F0000C46154661B16AB1FFF734FF00B938BD1E
:1032000029462046FFF723FF0120F8E701207047F9
:103210000120F4E70120F2E730B587B001A90023CF
:1032200001934B608B60CB600B6100930F4B1A6B6B
:1032300042F002021A631B6B03F002030093009B2F
:1032400003230193012402940394094D284601F0BD
:10325000E1F822460221284601F0ECF922462146F7
:10326000284601F0E7F907B030BD00BF0038024042
:103270000004024008B540B90246022100F1804036
:1032800000F5013001F0D6F908BD00220121024805
:1032900001F0D0F9F8E700BF0004024008B540B9DA
:1032A0000122022100F1804000F5013001F0C2F955
:1032B00008BD01221146024801F0BCF9F8E700BF41
:1032C0000004024008B538B9022100F1804000F541
:1032D000013001F0B5F908BD0121024801F0B0F953
:1032E000F9E700BF0004024000B585B08DF80F007B
:1032F0006423009301230DF10F024021024801F0E5
:103300006BFD05B000BD00BF700500200E4AD2F86D
:10331000FC3043F08073C2F8FC30A2F55D421368C4
:1033200043F00103136000235360084B1B680849F6
:10333000A1FB03139B0C03FB00F05268054B5B6879
:103340009B1A8342FAD3704700ED00E0DC000020B6
:1033500083DE1B43001000E010B485B0204B0FCB80
:1033600004AC04E90F004FF0000CBCF1020F30DC9C
:103370001C4B53F82C2022F0030202F140420023A0
:1033800003E0002142F8231001333F2BF9DD002038
:1033900003281BDC002307E004A901EB800151F89E
:1033A000101C42F8231001333F2BF5DD00233F2B87
:1033B0000ADC52F8234004A901EB800151F8101CEB
:1033C0008C4208D10133F2E70130E1E70CF1010C46
:1033D000CBE7002001E04FF0FF3005B010BC704794
:1033E000B08F0208C09B0208F0B593B00BAE00246A
:1033F0000B940C940D940E940F941094119406ADAC
:1034000006940794089409940A940094464B9A6B86
:1034100042F001029A639A6B02F001020092009A54
:1034200001941A6B42F020021A631A6B02F0200218
:103430000192019A02941A6B42F004021A631A6B09
:1034400002F004020292029A03941A6B42F04002C4
:103450001A631A6B02F040020392039A04941A6BE7
:1034600042F010021A631A6B02F010020492049ADE
:1034700005941A6B42F008021A631B6B03F00803F1
:103480000593059B02270797032309930C230A93AF
:103490004FF63F0306932946244800F0BBFF0D2357
:1034A00006932946224800F0B5FF48F237130693E9
:1034B0002946204800F0AEFF4FF683730693294655
:1034C0001D4800F0A7FF4CF20373069329461B48E2
:1034D00000F0A0FF1A481B4B036044600123836087
:1034E0000823C36010220261402242614FF4C0727F
:1034F0008261C4614FF4006202624FF48052426202
:103500004FF4005282620B970C9306230D930E9397
:103510000F9710971197314601F0CFFE08B913B0FD
:10352000F0BD4FF0FF30FAE70038024000140240CF
:10353000000802400018024000100240000C024047
:1035400000140020400100A000B585B094461A4642
:1035500000230093019302930393009168B9102311
:103560000193CDF808C003924FF480526946054894
:1035700001F0C3FE18B905B000BD0823F0E74FF015
:10358000FF30F8E70014002010B500230122114697
:103590001846FFF7D9FF04464FF47A70FFF7B6FEDE
:1035A0000023012202211846FFF7CEFF0443002327
:1035B000012203211846FFF7C7FF04434FF40C73A1
:1035C000012204210020FFF7BFFF204310BD0000AF
:1035D00008B5FFF709FF58B9FFF7D6FF58B940F211
:1035E000AB21084801F0AAFEFFF7B6FE30B908BDCE
:1035F0004FF0FF30FBE74FF0FF30F8E74FF0FF30C0
:10360000F5E700BF0014002010B588B003A900241E
:1036100003944C608C60CC600C6101941F4B1A6C5D
:1036200042F480221A641A6C02F480220192019AF8
:1036300002941A6B42F002021A631B6B03F002033E
:103640000293029B4FF440630393022304930323EA
:10365000069307230793124800F0DCFE1148124B33
:1036600003604FF4E13343608460C46004618461AB
:103670000C234361C46101F0B6F860B90022062151
:10368000272000F06DFB272000F07AFB074B01227A
:103690001A7008B010BDFDF797FCEFE70038024044
:1036A000000402403C160020004800403414002072
:1036B00070B506460D46214B1B78EBB103F062FD59
:1036C00000221446AA4220DA1D4B1B889BB201330C
:1036D000C3F308031B49098889B2994215D01848D9
:1036E000018889B216F802E0DFF85CC00CF801E04E
:1036F000038001340132E5E74FF0FF338AB201461F
:10370000124801F09FF82C4615E0114B1B7883B945
:103710000B4B1A8892B20B4B1B889BB29A4208D073
:103720000B4B01221A70094B1A68D36843F08003CF
:10373000D36003F049FD204670BD00BF3414002063
:1037400038140020361400203C1400203C160020C1
:1037500035140020144B1B681A6812F0800F15D026
:103760001249088880B21249098889B2884212D069
:103770000E48018889B2DFF83CC01CF8011059607E
:10378000018889B20131C1F30801018012F0200FD4
:1037900000D05B687047D96821F08001D960064984
:1037A00000200870F2E700BF3C160020361400200D
:1037B000381400203C1400203514002008B5FFF711
:1037C000C9FF08BD10B588B003A9002403944C605C
:1037D0008C60CC600C61174B5A6B42F080025A63CC
:1037E00001945A6C42F480425A645A6C02F480424A
:1037F0000192019A02941A6B42F001021A631B6B48
:1038000003F001030293029B4FF4C053039302237E
:103810000493032306930A230793074800F0FAFD55
:1038200022460521432000F09BFA432000F0A8FA2D
:1038300008B010BD003802400000024038B50C4608
:103840000169A2F120035E2B12D84A689388D288BE
:10385000A380E380228100236381A381A37B0120D5
:1038600060F30303A373DBB223F01003A37338BD2B
:103870000D46104600F028F90028F8D02A689388F1
:10388000D288E5E72DE9F04706460D4614461F4667
:1038900002F107084FEAD80802FB03F20732D20808
:1038A00000212846FCF751FE0020024626E00CF1DC
:1038B000010C1FFA8CFC0132A4451DD24FEADC0337
:1038C00006EB010E1EF803300CF007094FF0010E55
:1038D0000EFA09FE1EEA030FE9D04FEAD20E15F8E0
:1038E0000E9002F0070A802323FA0AF3DBB249EABA
:1038F000030305F80E30DAE7013080B2B84204D293
:1039000008FB00F14FF0000CD6E7BDE8F0872DE989
:10391000F84F07460D4614469846DE1DF60802FB92
:1039200003F20732D20800212846FCF70EFE4FF0C2
:1039300000094B4620E00CF1010C1FFA8CFC01330E
:10394000A44515D206FB0CFE3A1812F80E200A42C6
:10395000F1D04FEAD30A15F80AE003F0070B8022F2
:1039600022FA0BF2D2B24EEA020E05F80AE0E2E7C2
:1039700009F101091FFA89F9C14509D24FEAD900B5
:1039800009F007028021D140C9B24FF0000CD7E7FF
:10399000BDE8F88F70B582B004460D46808B0130CB
:1039A00080B2A083002301E00133DBB2217D994284
:1039B00011D9E26802EB830132F82320AA42F3D145
:1039C000488028490A6801320A602069228902FB7E
:1039D000030002B070BD4FF0000E7646734601E062
:1039E0000133DBB299420FD9E26802EB830C32F863
:1039F000232042B1BCF80220821A92B29645EFD839
:103A000096461E46ECE71E46174A136801331360BC
:103A10002B0A8DF804308DF805502268134901A84F
:103A2000FFF7E4FBB0B9216920892268D388928826
:103A300000FB06110D48FFF76AFFE36823F82650E4
:103A4000E36803EB8603A28B5A802069238903FB7A
:103A50000600BEE7054D228900212846FCF775FDCA
:103A60002846B6E77827002074270020801600201B
:103A700010B50469A1F1200CBCF15E0F08D908460D
:103A800000F022F8014610B12046FFF783FF10BD79
:103A900062681068B2F808E0D3889288A1690EFBCA
:103AA0000C00FFF7EFFEA069F1E7000010B1044A37
:103AB0001268026011B1034B1B680B60704700BFB6
:103AC0007827002074270020A0F180024FF67F7332
:103AD0009A4227D8A0F59C4345F2A512934206D9F5
:103AE00040F2793C002161451ED200B508E00F4A42
:103AF00032F81300704790B200BD591C61450FD2D7
:103B0000ACEB010301EB5303094A52F823204FEABF
:103B1000124EB0EB124FEED07045EED89C46EDE75A
:103B20000020E9E70020704700207047A8C1020884
:103B3000C4B3020810B582B00446B1F804C00888C6
:103B4000ACEB000C1FFA8CFC0CF1010CCB88498803
:103B50005B1A9BB2013300929BB21FFA8CF2FFF703
:103B6000EFF920461EF06FFA02B010BD38B5144BC5
:103B7000D868C0EB0010C00003F074FC114B186053
:103B8000C8B101460E4DEB68C3EB03139B00002246
:103B90000D481EF065F90D4C20461EF037F9EB6814
:103BA00023802B6963800A4B6361074BE3602046E7
:103BB0001EF064F938BD074824F0D6FBFAE700BFD1
:103BC000C40500207C270020D0270020802700206B
:103BD000353B0008DC98020870470000DFF834D05D
:103BE0000D480E490E4A002302E0D458C450043355
:103BF000C4188C42F9D30B4A0B4C002301E013602C
:103C00000432A242FBD3FFF7E7FFFCF7EDFCFDF720
:103C100041FA70470000032000000020440100200A
:103C2000A86E0308440100203C370020FEE77047DF
:103C300008B50B4B1A6842F400721A601A6842F415
:103C400080621A601A6842F480721A60032000F0E1
:103C500075F80F20FDF7A8FAFFF7E9FF002008BD6F
:103C6000003C0240034A1168034B1B780B4413606D
:103C7000704700BFEC270020E0000020014B1868CF
:103C8000704700BFEC27002038B50446FFF7F6FF69
:103C90000546B4F1FF3F02D0044B1B781C44FFF7EC
:103CA000EDFF401BA042FAD338BD00BFE00000206A
:103CB000002807DB00F01F02400901239340024A5D
:103CC00042F82030704700BF00E100E0002808DB28
:103CD0000901C9B200F1604000F5614080F80013AD
:103CE000704700F00F000901C9B2014B1954704729
:103CF00014ED00E000B500F00700A0F1030CBCF1EA
:103D0000040F07D8C0F1070E0430062806D84FF07C
:103D1000000C03E04FF0040E4FF0000C4FF0FF33A7
:103D200003FA0EF021EA000101FA0CF103FA0CF398
:103D300022EA030241EA020000BD0000074AD368FC
:103D400023F4E0631B041B0C000200F4E060034357
:103D500043F0BF6343F40033D360704700ED00E0ED
:103D600010B50446054BD868C0F30220FFF7C2FF28
:103D700001462046FFF7AAFF10BD00BF00ED00E09E
:103D800008B5FFF795FF08BD002800F0E28170B587
:103D900082B00446036813F0010F3BD09B4B9B6835
:103DA00003F00C03042B2CD0984B9B6803F00C03FE
:103DB000082B21D06368B3F5803F4FD0B3F5A02F17
:103DC00052D0924B1A6822F480321A601A6822F498
:103DD00080221A606368002B50D0FFF74FFF054622
:103DE0008A4B1B6813F4003F14D1FFF747FF401BB9
:103DF0006428F5D90320B3E1844B5B6813F4800F8A
:103E0000D8D0824B1B6813F4003F03D06368002BAB
:103E100000F0A181236813F0020F54D07B4B9B6804
:103E200013F00C0F3ED0794B9B6803F00C03082B6A
:103E300033D0E368002B68D0754B01221A60FFF77E
:103E40001DFF0546714B1B6813F0020F54D1FFF79D
:103E500015FF401B0228F5D9032081E16B4A136846
:103E600043F480331360B5E7684B1A6842F480224C
:103E70001A601A6842F480321A60ABE7FFF7FEFE60
:103E80000546624B1B6813F4003FC3D0FFF7F6FEF4
:103E9000401B6428F5D9032062E15C4B5B6813F496
:103EA000800FC6D1594B1B6813F0020F03D0E36893
:103EB000012B40F05281554A136823F0F803216921
:103EC00043EAC1031360236813F0080F42D063690B
:103ED0006BB34F4B0122C3F8802EFFF7CFFE054690
:103EE0004A4B5B6F13F0020F34D1FFF7C7FE401B44
:103EF0000228F5D9032033E1444A136823F0F8037C
:103F0000216943EAC1031360DDE7414B00221A60D7
:103F1000FFF7B4FE05463D4B1B6813F0020FD2D0ED
:103F2000FFF7ACFE401B0228F5D9032018E1384BFF
:103F30000022C3F8802EFFF7A1FE0546334B5B6FCE
:103F400013F0020F06D0FFF799FE401B0228F5D9A7
:103F5000032005E1236813F0040F79D02B4B1B6C71
:103F600013F0805F34D100230193284B1A6C42F088
:103F700080521A641B6C03F080530193019B012350
:103F80001E46244B1B6813F4807F24D0A368012BAA
:103F900035D0052B40D01D4B1A6F22F001021A6755
:103FA0001A6F22F004021A67A368002B3ED0FFF7B5
:103FB00065FE0546154B1B6F13F0020F47D1FFF747
:103FC0005DFE401B41F288339842F3D90320C7E0DD
:103FD00000231E46D5E70F4A136843F4807313602D
:103FE000FFF74CFE05460B4B1B6813F4807FCDD1C9
:103FF000FFF744FE401B0228F5D90320B0E0034A36
:10400000136F43F001031367CEE700BF003802408F
:104010000000474200700040584B1A6F42F0040203
:104020001A671A6F42F001021A67BDE7FFF726FE12
:104030000546524B1B6F13F0020F08D0FFF71EFE10
:10404000401B41F288339842F3D9032088E0EEB94F
:10405000A369002B00F08380484A926802F00C02AA
:10406000082A51D0022B17D0454B00221A66FFF7C1
:1040700005FE0446414B1B6813F0007F42D0FFF75A
:10408000FDFD001B0228F5D9032069E03B4A136CB3
:1040900023F080531364DBE7394B00221A66FFF7E5
:1040A000EDFD0546354B1B6813F0007F06D0FFF78A
:1040B000E5FD401B0228F5D9032051E0E369226A9F
:1040C0001343626A43EA8213A26A5208013A43EA3E
:1040D0000243E26A43EA0263284A5360284B012202
:1040E0001A66FFF7CBFD0446244B1B6813F0007FD4
:1040F00006D1FFF7C3FD001B0228F5D903202FE0EE
:1041000000202DE000202BE0012B2BD01B4B5B6807
:1041100003F48001E269914226D103F03F02216A53
:104120008A4223D1616A47F6C0721A40B2EB811FFE
:104130001ED103F44031A26A5208013AB1EB024F9A
:1041400018D103F07063E26AB3EB026F14D1002060
:1041500006E001207047012002E0012000E018463F
:1041600002B070BD0120FBE70120F9E70120F7E76D
:104170000120F5E70120F3E70120F1E700380240D4
:104180000000474208B5264B9B6803F00C03042B44
:1041900041D0082B41D1224B5A6802F03F025B68A4
:1041A00013F4800F12D01E4B5968C1F388111D48BB
:1041B0000023A1FB0001FBF7FBFF194B5B68C3F376
:1041C000014301335B00B0FBF3F008BD144B5868AA
:1041D000C0F388104FEA401CBCEB000C6EEB0E0ED7
:1041E0004FEA8E1343EA9C634FEA8C11B1EB0C014A
:1041F00063EB0E03DB0043EA5173C90011EB000CC3
:1042000043F10003990200234FEA8C2041EA9C51BC
:10421000FBF7CEFFD1E70348D7E70348D5E700BF58
:104220000038024040787D010024F400002800F0AE
:104230009B8070B50D4604464F4B1B6803F00F037F
:104240008B4208D2CBB24C4A1370136803F00F03B1
:104250008B4240F08B80236813F0020F17D013F0CD
:10426000040F04D0454A936843F4E05393602368F5
:1042700013F0080F04D0414A936843F460439360FD
:104280003E4A936823F0F003A1680B4393602368D0
:1042900013F0010F32D06368012B21D09A1E012A3E
:1042A00025D9364A126812F0020F61D033498A6864
:1042B00022F0030213438B60FFF7E0FC06462F4B0E
:1042C0009B6803F00C036268B3EB820F16D0FFF714
:1042D000D5FC801B41F288339842F0D9032042E09C
:1042E000264A126812F4003FE0D101203BE0234A45
:1042F000126812F0007FD9D1012034E01E4B1B68F8
:1043000003F00F03AB4207D9EAB21B4B1A701B68CC
:1043100003F00F03AB422DD1236813F0040F06D036
:10432000164A936823F4E053E1680B4393602368D3
:1043300013F0080F07D0114A936823F460432169F2
:1043400043EAC1039360FFF71DFF0C4B9B68C3F367
:1043500003130B4AD35CD8400A4B18600A4B186809
:10436000FCF722FF002070BD012070470120FAE712
:104370000120F8E70120F6E7003C02400038024047
:10438000FC640308DC000020E4000020014B1868F6
:10439000704700BFDC00002008B5FFF7F7FF044BB3
:1043A0009B68C3F38223034AD35CD84008BD00BF97
:1043B00000380240F464030808B5FFF7E7FF044B38
:1043C0009B68C3F34233034AD35CD84008BD00BFA7
:1043D00000380240F46403080F2303600B4B9A6813
:1043E00002F0030242609A6802F0F00282609A686A
:1043F00002F4E052C2609B68DB0803F4E0530361FF
:10440000034B1B6803F00F030B607047003802403A
:10441000003C024030B583B08E46002369E08568D9
:104420004FEA430C032101FA0CF125EA0105DEF8FD
:104430000C1001FA0CF129438160416821EA020164
:10444000DEF80420C2F300129A400A43426065E09D
:10445000D908083150F8212003F00705AD004FF0CE
:104460000F0C0CFA05FC22EA0C0CDEF81020AA4016
:1044700042EA0C0240F8212067E0092200E0002215
:1044800002FA0CF22A430231664D45F82120664AB1
:104490009168E24321EA0405DEF804C01CF4801FA1
:1044A00001D044EA010560498D60C96802EA01054E
:1044B000DEF804C01CF4001F01D044EA01055A498B
:1044C000CD60496802EA0105DEF804C01CF4003F33
:1044D00001D044EA010554494D6009680A40DEF8FC
:1044E000045015F4803F01D044EA01024E490A60AD
:1044F00001330F2B00F2938001229A40DEF8001066
:1045000001EA020432EA0101F2D1DEF8041001F0FE
:10451000030C0CF1FF3CBCF1010F80D9DEF8042044
:1045200002F00302032A0AD0C1685D000322AA40F8
:1045300021EA0201DEF80820AA400A43C260DEF840
:10454000042002F00302022A82D001684FEA430CE1
:10455000032202FA0CF221EA0201DEF8042002F042
:10456000030202FA0CF20A430260DEF8042012F49D
:10457000403FBDD0002201922C4A516C41F4804151
:104580005164526C02F480420192019A99088D1C88
:10459000244A52F8255003F0030C4FEA8C0C0F22EA
:1045A00002FA0CF225EA0205214A90423FF467AF75
:1045B00002F58062904222D002F58062904220D0C3
:1045C00002F5806290421ED002F5806290421CD0BB
:1045D00002F5806290421AD002F58062904218D0B3
:1045E00002F58062904216D002F58062904214D0AB
:1045F00002F5806290423FF440AF0A2240E7012278
:104600003EE702223CE703223AE7042238E705228C
:1046100036E7062234E7072232E7082230E703B004
:1046200030BD00BF00380140003C0140003802406E
:10463000000002400AB1816170470904816170473E
:10464000436901EA030221EA030141EA024181616F
:104650007047000010B504460268136923F4405304
:10466000C1680B431361836802691A4343691A43A3
:10467000C3691A430168CB6823F4164323F00C0383
:104680001343CB600268536923F4407381690B4381
:1046900053610368314A934206D002F58062934227
:1046A00002D0FFF779FE01E0FFF786FEE369B3F57C
:1046B000004F29D00021031849411B1841F1000186
:1046C000C90041EA5371DB00181863684FEA83029E
:1046D0004FEA937341F10001FBF76AFD204AA2FB08
:1046E00000314909642303FB11031B013233A2FB90
:1046F00003235B0903F0F00202EB011203F00F0346
:10470000216813448B6010BD0023021843EB0301A2
:10471000121841F10001C90041EA5271D20010188B
:1047200041F10001626892185B41FBF741FD0C4AC0
:10473000A2FB00314909642303FB1103DB00323380
:10474000A2FB03235B095A0002F4F87202EB011288
:1047500003F00703216813448B60D4E70010014085
:104760001F85EB512DE9F04104460E46154698464B
:10477000069F23681B6836EA03030CBF4FF0010C49
:104780004FF0000CAC452AD1B7F1FF3FF1D02FB16B
:10479000FFF774FA4346C01AB842EAD9226802F118
:1047A0000C0353E8003F23F4D0730C3242E800318D
:1047B0000029F3D1226802F1140353E8003F23F0EB
:1047C0000103143242E800310029F3D1202384F898
:1047D0003D3084F83E3084F83C10032000E0002097
:1047E000BDE8F081704758B310B5044690F83D30ED
:1047F0000BB3242384F83D302268D36823F400539C
:10480000D3602046FFF726FF2268136923F4904304
:1048100013612268536923F02A0353612268D36825
:1048200043F40053D36000202064202384F83D30FB
:1048300084F83E3010BD80F83C30FFF7D3FFD8E756
:10484000012070472DE9F04184B01E4690F83D30BC
:10485000202B55D104460D46002955D00392002A3D
:1048600054D090F83C30012B52D0012380F83C30DA
:1048700000230364212380F83D30FFF7FFF907464A
:10488000039BA384E384A368B3F5805F05D0002372
:104890009846002384F83C3014E0236913B10023C8
:1048A0009846F6E7A8461D46F3E7424632F8023B33
:1048B00090462268C3F308035360E28C92B2013A37
:1048C00092B2E284E38C9BB273B100963B46002225
:1048D00080212046FFF746FFE0B9002DE5D015F80E
:1048E000012B23685A60E8E700963B4600224021EE
:1048F0002046FFF737FF78B9202384F83D3000E0E9
:10490000022004B0BDE8F0810120FAE70120F8E7B9
:104910000220F6E70320F4E70320F2E703685A6970
:1049200012F4806F01D1002070476FF480625A61E9
:1049300000230363202280F83D2080F83E30026C83
:1049400042F00402026480F83C3001207047F8B560
:1049500006460C4617461D4624E0FFF78FF9069BD6
:10496000C01AA84200D8EDB900233363202286F88C
:104970003D2086F83E30326C42F02002326486F8E8
:104980003C3001201EE033689B6924EA030C1FFAC7
:104990008CFCBCFA8CFC4FEA5C1C674511D1B5F16C
:1049A000FF3FDAD1C4F30743012BECD133685B69D5
:1049B00024EA030C1FFA8CFCBCFA8CFC4FEA5C1C4A
:1049C000EBE70020F8BDF8B504460D4616461F4635
:1049D0003CE01A6842F400721A6023686FF4806247
:1049E0005A6100232363202284F83D2084F83E305E
:1049F000226C42F00402226484F83C30012033E04F
:104A0000FFF73CF9C01BB04200D8FEB90023236376
:104A1000202284F83D2084F83E30226C42F02002AF
:104A2000226484F83C3001201EE023689B6925EA5B
:104A300003039BB2003B18BF0123A3B123685A694B
:104A400012F4806FC5D1B6F1FF3FD9D1C5F307434A
:104A5000012BEAD123685B6925EA03039BB2003B83
:104A600018BF0123E9E71846F8BD0000F0B583B090
:104A700004460E4617461D46C36A082B0DD0012B6F
:104A80000BD013F5803F08D0036B122B0AD10268BC
:104A9000136843F48073136004E02268136843F4DE
:104AA0008073136000953B4600224FF001112046B1
:104AB000FFF74DFF80B92369B3F5804F16D1236806
:104AC00006F0FE021A612B463A4613492046FFF7CC
:104AD0007AFFF8B903B0F0BD23681B6813F4807F38
:104AE00002D04FF4007323640320F3E7F31122682C
:104AF00003F0060343F0F00313612B463A460749DF
:104B00002046FFF760FF18B92268F3B21361DAE7B5
:104B10000120DFE70120DDE70200010008000100BD
:104B200070B504460D46164623685B6913F0800F86
:104B30001CD12046FFF7F2FED0B9B5F1FF3FF3D00C
:104B4000FFF79CF8801BA84201D8002DECD1002370
:104B50002363202284F83D2084F83E30226C42F00A
:104B60002002226484F83C30012000E0002070BD67
:104B70000120FCE770B504460D46164623685B69C4
:104B800013F0040F1CD12046FFF7C8FED0B9B5F1D1
:104B9000FF3FF3D0FFF772F8801BA84201D8002D29
:104BA000ECD100232363202284F83D2084F83E309A
:104BB000226C42F02002226484F83C30012000E0A4
:104BC000002070BD0120FCE770470000002800F0C5
:104BD000DB8038B5044690F83D30002B52D02423BA
:104BE00084F83D302268136823F0010313602268C3
:104BF000136843F4004313602268136823F40043EE
:104C00001360FFF7C9FB6268614B9A423FD8614B62
:104C100098428CBF00230123002B40F0B7805E49EF
:104C2000A1FB00318B0CD4F800C0DCF8042022F08A
:104C30003F0242EA9142CCF8042021680A6A22F03D
:104C40003F02DFF84CC1D4F804E0E64525D8013333
:104C500013430B622168CA6922F44F4222F0FF021B
:104C6000D4F804C04A4B9C4522D8431E4FEA4C0C52
:104C7000B3FBFCF3013340F6FC70034254D0C3F3A2
:104C80000B0352E080F83C30FFF79EFFA7E7434B51
:104C900098428CBF00230123BEE74FF4967C0CFBA7
:104CA00003F3DFF8FCC0ACFB03C39B090133CFE780
:104CB000D4F808E0BEF1000F1AD1431E0CEB4C05EE
:104CC000B3FBF5F30133C3F30B03B3FA83F35B09CF
:104CD000002B57D1BEF1000F19D1431E0CEB4C0C29
:104CE000B3FBFCF30133C3F30B0343F400431CE0B9
:104CF0000CEB8C0303EB83031D46431EB3FBF5F360
:104D00000133C3F30B03B3FA83F35B09E0E7431EFC
:104D10000CEB8C0C0CEB8C0CB3FBFCF30133C3F3EE
:104D20000B0343F4404300E004231A43CA612168A3
:104D30000B6823F0C003E269206A024313430B604F
:104D400021688B6823F4034323F0FF032269E068A2
:104D5000024313438B602168CB6823F0FF03626931
:104D6000A06902431343CB602268136843F0010338
:104D7000136000202064202384F83D30206384F8F1
:104D80003E0038BD0123D0E7012070470120F8E73D
:104D9000A08601007F841E0083DE1B43FF083D00C8
:104DA000D34D62107047A8B110B50446242380F893
:104DB0003D300268136823F001031360FFF7F2FF30
:104DC0000020206484F83D00206384F83E0084F8CD
:104DD0003C0010BD012070472DE9F04385B004462A
:104DE0000F46904699460C9EFEF748FF94F83D10FA
:104DF000202905D002231F46384605B0BDE8F083C0
:104E0000054600901923012251492046FFF79FFDD6
:104E1000002840F0938094F83C30012B00F0918002
:104E2000012384F83C3023681A6812F0010F03D183
:104E30001A6842F001021A602268136823F40063C2
:104E40001360212384F83D30102384F83E30002382
:104E50002364C4F82480A4F82A90638D23853D4BF5
:104E6000E3622B46324639462046FFF7FFFD0746F0
:104E7000002869D1039023685A6903929B690393C0
:104E8000039B12E0236C042B02D001231F46B3E7DF
:104E90002268136843F400731360F6E72A4631462C
:104EA0002046FFF767FE00282ED1238D002B37D038
:104EB0002A4631462046FFF733FE0028E2D1626AD7
:104EC000236812781A61606A431C6362618D89B23B
:104ED000013989B26185238D013B9BB2238522680C
:104EE000516911F0040FD9D0002BD7D0437813614A
:104EF000636A01336362638D9BB2013B9BB263853E
:104F0000238D013B2385C9E7236C042B02D00123A9
:104F10001F4671E72268136843F400731360F6E7D5
:104F20002268136843F400731360202384F83D3033
:104F3000002384F83E3084F83C305DE702231F46AE
:104F40005AE702231F4657E701231F4654E700BFD5
:104F5000020010000000FFFF7047000090F83D3095
:104F6000012B37D1022380F83D300268D36843F02B
:104F70000103D3600368194A934220D0B3F1804FF4
:104F80001DD0A2F57C42934219D002F58062934273
:104F900015D002F58062934211D002F57842934217
:104FA0000DD002F57052934209D0A2F5943293428B
:104FB00005D01A6842F001021A60002070479A6812
:104FC00002F00702062A07D01A6842F001021A60AE
:104FD000002070470120704700207047000001400A
:104FE0000268D36823F00103D3600368196A41F2B1
:104FF0001112114208D1196A40F24442114203D100
:105000001A6822F001021A60012380F83D30002066
:105010007047704770477047704710B50446036883
:105020001A6912F0020F11D0DA6812F0020F0DD0D7
:105030006FF002021A610123037703689B6913F082
:10504000030F70D0FFF7E6FF0023237723681A6968
:1050500012F0040F12D0DA6812F0040F0ED06FF0C5
:1050600004021A610223237723689B6913F4407FAB
:105070005FD02046FFF7CEFF0023237723681A690D
:1050800012F0080F12D0DA6812F0080F0ED06FF08D
:1050900008021A61042323772368DB6913F0030FE6
:1050A0004ED02046FFF7B6FF0023237723681A6906
:1050B00012F0100F12D0DA6812F0100F0ED06FF04D
:1050C00010021A61082323772368DB6913F4407FF9
:1050D0003DD02046FFF79EFF0023237723681A69FF
:1050E00012F0010F03D0DA6812F0010F36D12368F5
:1050F0001A6912F0800F03D0DA6812F0800F34D1F1
:1051000023681A6912F0400F03D0DA6812F0400FDA
:1051100032D123681A6912F0200F03D0DA6812F036
:10512000200F30D110BDFFF774FF2046FFF773FF4B
:105130008AE72046FFF76DFF2046FFF76CFF9BE7ED
:105140002046FFF766FF2046FFF765FFACE72046E5
:10515000FFF75FFF2046FFF75EFFBDE76FF001023C
:105160001A612046FCF778F8C1E76FF080021A61F7
:10517000204600F0A0F8C3E76FF040021A61204615
:10518000FFF74AFFC5E76FF020021A61204600F0E2
:1051900091F8C7E70368304A904212D0B0F1804FCF
:1051A0000FD0A2F57C4290420BD002F58062904273
:1051B00007D002F58062904203D002F57842904217
:1051C00003D123F070034A681343234A90422AD044
:1051D000B0F1804F27D0A2F57C42904223D002F557
:1051E000806290421FD002F5806290421BD002F58F
:1051F0007842904217D002F57052904213D002F5D7
:10520000806290420FD002F5806290420BD0A2F5EE
:105210009832904207D002F58062904203D002F5A6
:105220008062904203D123F44073CA68134323F091
:1052300080034A69134303608B68C3620B6883620F
:10524000054B984203D003F58063984201D10B6966
:1052500003630123436170470000014040B310B570
:10526000044690F83D30F3B1022384F83D302146E6
:1052700051F8040BFFF78EFF012384F8463084F8C1
:105280003E3084F83F3084F8403084F8413084F870
:10529000423084F8433084F8443084F8453084F850
:1052A0003D30002010BD80F83C30FFF755FEDBE7B5
:1052B00001207047704770477047E0B138B50D4620
:1052C000044690F82C308BB1022384F82C30214610
:1052D00051F8040B00F016F962682946206800F0C6
:1052E00048F9012384F82C30002038BD80F82D3097
:1052F000FFF7E2FFE8E70120704738B5044690F871
:105300002C30D8B2022B18D0012801D0052813D197
:10531000022384F82C300D46206800F083F92B68B6
:10532000022B04D0012384F82C30002005E0052353
:1053300084F82C30002000E0012038BD10B5044670
:1053400090F82C30D8B2022B04D094F82C30012BDA
:1053500001D0012010BD022384F82C30206800F019
:1053600087F9012384F82C300020F3E7704740B31D
:1053700070B50D461646044690F84930E3B1214613
:1053800051F8080B00F020F8A2682946206800F0C8
:1053900063F8236BA2683146606800F08FF82268DA
:1053A000A16852F8213043F0010342F82130012373
:1053B00084F84930002070BD80F84830FFF7D6FFF0
:1053C000DDE701207047000000B50A6850F8223080
:1053D00023F0010340F822308B68082B2DD04FF0CA
:1053E000000C4A6842EA0C021343CA6813430A6974
:1053F00013434A691343CA6913430A6A13434A6A47
:1054000013438A6A1343CA6A13430A6B13438A69B4
:105410001A434B6B1A43CB6B1A43D1F800C050F8B8
:105420002CE00C4B0EEA0303134340F82C304B6B7B
:10543000B3F5801F04D0002000BD4FF0400CD0E732
:105440000A68002AF7D0026822F48012134303602E
:10545000F1E700BF8000E0FF10B5013250F82230C4
:1054600003F0404C0B684C6843EA04138C6843EA31
:105470000423CC6843EA04430C6904F1FF3E43EA89
:105480000E534C69A4F1020E43EA0E638C69234368
:105490004CEA030340F82230036813F4801F0BD05A
:1054A000426822F470020B69013B42EA03524368EE
:1054B00023F4700313434360002010BD9446B3F5FA
:1054C000804F05D06FF0704340F8223000207047C5
:1054D00010B450F822300A4A1A400B684C6843EA6C
:1054E00004138C6843EA04238C692343C96843EAA4
:1054F0000143134340F82C30002010BC704700BF1C
:105500000000F0CF10B40B68C3B902686FF30E024D
:105510004B688C682343CC6823430C6923434C6954
:1055200023438C692343CC6923430C6A2343496A90
:105530000B4313430360002010BC7047036823F43F
:10554000F843CA690C6A22434C6A2243134303603E
:1055500042686FF30E024B688C682343CC68234388
:105560000C6923434C69234389690B43134343600C
:10557000E1E752BB826802F070420B68013BD1F850
:1055800004C00CF1FF3C43EA0C13D1F808C00CF145
:10559000FF3C43EA0C23D1F80CC00CF1FF3C43EA7A
:1055A0000C33D1F810C00CF1FF3C43EA0C43D1F8A6
:1055B00014C00CF1FF3C43EA0C538969013943EAFA
:1055C00001631343836000207047836823F47003F2
:1055D00023F47043CA6802F1FF3C4A69013A12059C
:1055E00042EA0C3213438360C26802F070420B68D7
:1055F000013BD1F804C00CF1FF3C43EA0C13D1F895
:1056000008C00CF1FF3C43EA0C23D1F810C00CF1A8
:10561000FF3C43EA0C438969013943EA01631343C0
:10562000C360D0E770B50446154602696FF31502F2
:105630000B68486803438868013843EA4013C96827
:1056400043EA412313432361FEF718FB0646A3698F
:1056500013F0200F0AD0B5F1FF3FF8D025B1FEF7C7
:105660000DFB801BA842F2D9032000E0002070BD92
:1056700043696FF34D0343EA4103436100207047E0
:10568000074B1B681B6823B9064B4FF0FF321A60AB
:105690007047034B1B68DB681A68024B1A6070473F
:1056A00060280020F827002010B50446006B01F0A8
:1056B0007DFF204601F07AFF10BD00002DE9F84380
:1056C00080460D4617469946089E0A9C9200A521E1
:1056D000206BFAF73AFF236B07F18042013A03EBA4
:1056E000820323F007078DB14FF0000CBCF10F0FC0
:1056F00009D815F80C3004EB0C0282F8343013B1E1
:105700000CF1010CF2E7002384F84330182E18D86E
:10571000E662E664201D01F0A7FA04F1180001F02A
:10572000A3FA2461C6F11906A66164624A4641469D
:10573000384601F011FD2060099B03B11C60BDE8F3
:10574000F88340F264710248FBF724FD1826DFE776
:105750000C9902082DE9F04385B08146884615462C
:105760001F46900001F07EFE0646F0B15C2001F07D
:1057700079FE0446A8B15C220021FAF7E6FE266312
:105780000023039302940D9B01930C9B00933B46D3
:105790002A4641464846FFF791FF204605B0BDE83E
:1057A000F083304601F002FFF7E70446F5E700001A
:1057B00038B5002407E004EB84000F4B03EB8000B6
:1057C00001F047FA0134182CF5D90C4D284601F0A8
:1057D00040FA0B4C204601F03CFA0A4801F039FA35
:1057E000094801F036FA094801F033FA084B1D6008
:1057F000084B1C6038BD00BF8C2800207828002092
:105800006428002048280020342800201C2800207C
:10581000602800205C28002010B5044601F0B2FC8E
:105820002A4A136801331360294B1B685BB1294B6B
:105830001B686BB9264B1B68DA6AE36A9A4207D881
:10584000234B1C6004E0224B1C601368012B3AD0F0
:10585000214A1368013313606364E36A01229A40AA
:105860001E49086802430A601D4A03EB830302EBEA
:1058700083035B68A3609868E060211D41609960C4
:10588000E36A03EB830102EB8100606152F82110AF
:10589000013103EB830342F8231001F095FC0D4B1B
:1058A0001B687BB10A4B1B68DA6AE36A9A4209D229
:1058B0004FF0E0234FF08052C3F8042DBFF34F8F19
:1058C000BFF36F8F10BDFFF773FFC1E718280020EB
:1058D000802A00200C280020FC270020102800200F
:1058E0008C2800200F4B1B68D3B110B501F04AFC87
:1058F0000D4BDB68DC68201D01F0D5F90B4A1368FD
:10590000013B1360074A1368013B136001F05CFC24
:105910002046FFF7C9FE034B1B68002BE6D110BDE4
:10592000704700BF302800203428002018280020AD
:1059300008B5FFF7D7FF074B1B68012BF9D94FF0CC
:10594000E0234FF08052C3F8042DBFF34F8FBFF315
:105950006F8FEEE78C2800202DE9F0410446884641
:10596000264B1D68264B1B681E46264B1B681F4690
:10597000254B1868043001F096F948B9224B1B6892
:10598000DB6A01229A4021490B6823EA02030B607B
:10599000B4F1FF3F0DD02C441B4B1B685C60A5424B
:1059A0001ED9194B19680431384601F060F9BDE879
:1059B000F0814346002BEED0154A5168124B18680F
:1059C000816018688C68C46018680430606018686A
:1059D000043088601B685A61136801331360E6E77E
:1059E000094B19680431304601F041F9094B1B6835
:1059F000A342DCD9074B1C60D9E700BF1428002064
:105A0000602800205C280020802A00201028002028
:105A10001C280020F827002000B583B0DDF814C052
:105A2000CDF804C0DDF810C0CDF800C0FFF792FE3D
:105A300020B1FFF7F1FE012003B000BD4FF0FF30B1
:105A4000FAE7000010B586B000230F2B17DC0F4AD1
:105A5000D25C03F11801694401F8102C7AB10133CA
:105A6000F3E70B4B03EB84030193002300938022A5
:105A700002A90848FFF7D0FF28B1013401E0002453
:105A80000120002CEDDD06B010BD00BF70990208AA
:105A9000F42700203159000808B5FFF7D3FF01288B
:105AA00005D0B0F1FF3F1BD0104B1B6808BD01F0C3
:105AB000A1FA0128F5D14FF0500383F31188BFF309
:105AC0006F8FBFF34F8F0A4B4FF0FF321A60094BB5
:105AD00001221A60084B00221A6001F0B5FBE3E7CF
