:020000040800F2
:10000000000003209D610008AD230008AF23000815
:10001000B1230008B3230008B52300080000000046
:10002000000000000000000000000000C1B1000856
:10003000B72300080000000011B2000865B30008F3
:10004000ED610008ED610008ED610008ED61000858
:10005000ED610008ED610008ED610008ED61000848
:10006000ED610008ED610008ED610008ED61000838
:10007000ED610008ED610008ED610008ED61000828
:10008000ED610008ED610008ED610008ED61000818
:10009000ED610008ED610008ED610008D52300085E
:1000A000ED610008ED610008ED610008ED610008F8
:1000B000ED610008ED610008ED610008ED610008E8
:1000C000ED610008ED610008ED610008ED610008D8
:1000D000ED610008ED610008ED610008C55C0008F5
:1000E000ED610008ED610008ED610008ED610008B8
:1000F000ED610008ED610008ED610008ED610008A8
:10010000ED610008ED610008ED610008ED61000897
:10011000ED610008ED610008ED610008B9230008F9
:10012000ED610008ED610008ED610008ED61000877
:10013000ED610008ED610008ED610008ED61000867
:10014000ED610008ED610008ED610008C9230008B9
:10015000ED610008ED610008ED610008ED61000847
:10016000ED610008ED610008ED610008ED61000837
:10017000ED610008ED610008ED610008ED61000827
:10018000ED610008ED610008ED610008ED61000817
:10019000ED610008ED610008ED610008ED61000807
:0C01A000ED610008ED610008ED61000851
:1001B00080F0004002E000BF81F0004142001FBF1C
:1001C0005FEA410392EA030F7FEA226C7FEA236C25
:1001D0006AD04FEA1262D2EB1363C1BFD21841401A
:1001E00048404140B8BF5B42192B88BF704710F0B0
:1001F000004F40F4000020F07F4018BF404211F053
:10020000004F41F4000121F07F4118BF494292EABA
:10021000030F3FD0A2F1010241FA03FC10EB0C00E6
:10022000C3F1200301FA03F100F0004302D5494273
:1002300060EB4000B0F5000F13D3B0F1807F06D320
:1002400040084FEA310102F10102FE2A51D2B1F118
:10025000004F40EBC25008BF20F0010040EA03000D
:100260007047490040EB0000013A28BFB0F5000F8D
:10027000EDD2B0FA80FCACF1080CB2EB0C0200FA43
:100280000CF0AABF00EBC25052421843BCBFD04092
:100290001843704792F0000F81F4000106BF80F40C
:1002A00000000132013BB5E74FEA41037FEA226CCF
:1002B00018BF7FEA236C21D092EA030F04D092F09A
:1002C000000F08BF0846704790EA010F1CBF0020CE
:1002D000704712F07F4F04D1400028BF40F000402B
:1002E000704712F100723CBF00F50000704700F04B
:1002F000004343F0FE4040F4000070477FEA226272
:1003000016BF08467FEA23630146420206BF5FEA42
:10031000412390EA010F40F4800070474FF0000342
:1003200004E000BF10F0004348BF40425FEA000C09
:1003300008BF704743F0964301464FF000001CE0B1
:1003400050EA010208BF70474FF000030AE000BF07
:1003500050EA010208BF704711F0004302D5404245
:1003600061EB41015FEA010C02BF844601460020B7
:1003700043F0B64308BFA3F18053A3F50003BCFAD2
:100380008CF2083AA3EBC25310DB01FA02FC63447F
:1003900000FA02FCC2F12002BCF1004F20FA02F286
:1003A00043EB020008BF20F00100704702F1200279
:1003B00001FA02FCC2F1200250EA4C0021FA02F2DA
:1003C00043EB020008BF20EADC7070474FF0FF0CDF
:1003D0001CEAD0521EBF1CEAD15392EA0C0F93EADA
:1003E0000C0F6FD01A4480EA010C400218BF5FEA7C
:1003F00041211ED04FF0006343EA501043EA5111EF
:10040000A0FB01310CF00040B1F5000F3EBF4900E8
:1004100041EAD3715B0040EA010062F17F02FD2AEC
:100420001DD8B3F1004F40EBC25008BF20F00100CF
:10043000704790F0000F0CF0004C08BF49024CEAE6
:10044000502040EA51207F3AC2BFD2F1FF0340EA78
:10045000C250704740F400004FF00003013A5DDCE9
:1004600012F1190FDCBF00F000407047C2F100022A
:10047000410021FA02F1C2F1200200FA02FC5FEA17
:10048000310040F1000053EA4C0308BF20EADC7061
:10049000704792F0000F00F0004C02BF400010F4D3
:1004A000000F013AF9D040EA0C0093F0000F01F080
:1004B000004C02BF490011F4000F013BF9D041EAA2
:1004C0000C018FE70CEAD15392EA0C0F18BF93EAA4
:1004D0000C0F0AD030F0004C18BF31F0004CD8D1CE
:1004E00080EA010000F00040704790F0000F17BF55
:1004F00090F0004F084691F0000F91F0004F14D09B
:1005000092EA0C0F01D142020FD193EA0C0F03D1F2
:100510004B0218BF084608D180EA010000F00040F5
:1005200040F0FE4040F40000704740F0FE4040F4D0
:10053000400070474FF0FF0C1CEAD0521EBF1CEA6F
:10054000D15392EA0C0F93EA0C0F69D0A2EB03028D
:1005500080EA010C49024FEA402037D04FF0805327
:1005600043EA111143EA10130CF000408B4238BFEC
:100570005B0042F17D024FF4000C8B4224BF5B1AFA
:1005800040EA0C00B3EB510F24BFA3EB510340EA48
:100590005C00B3EB910F24BFA3EB910340EA9C00F6
:1005A000B3EBD10F24BFA3EBD10340EADC001B0166
:1005B00018BF5FEA1C1CE0D1FD2A3FF650AF8B420A
:1005C00040EBC25008BF20F0010070470CF0004C17
:1005D0004CEA50207F32C2BFD2F1FF0340EAC25042
:1005E000704740F400004FF00003013A37E792F003
:1005F000000F00F0004C02BF400010F4000F013A61
:10060000F9D040EA0C0093F0000F01F0004C02BF5B
:10061000490011F4000F013BF9D041EA0C0195E7C4
:100620000CEAD15392EA0C0F08D142027FF47DAF5D
:1006300093EA0C0F7FF470AF084676E793EA0C0F4D
:1006400004D14B023FF44CAF08466EE730F0004C4B
:1006500018BF31F0004CCAD130F000427FF45CAFDB
:1006600031F000437FF43CAF5FE700BF4FF0FF3C49
:1006700006E000BF4FF0010C02E000BF4FF0010C9C
:100680004DF804CD4FEA40024FEA41037FEA226C65
:1006900018BF7FEA236C11D001B052EA530C18BF87
:1006A00090EA010F58BFB2EB030088BFC81738BFEC
:1006B0006FEAE17018BF40F0010070477FEA226CDA
:1006C00002D15FEA402C05D17FEA236CE4D15FEAD6
:1006D000412CE1D05DF8040B704700BF844608460A
:1006E0006146FFE70FB5FFF7C9FF002848BF10F1CB
:1006F000000F0FBD4DF808EDFFF7F4FF0CBF012010
:1007000000205DF808FB00BF4DF808EDFFF7EAFF99
:1007100034BF012000205DF808FB00BF4DF808ED54
:10072000FFF7E0FF94BF012000205DF808FB00BF49
:100730004DF808EDFFF7D2FF94BF012000205DF8CF
:1007400008FB00BF4DF808EDFFF7C8FF34BF0120DC
:1007500000205DF808FB00BF4FEA4002B2F1FE4FF7
:100760000FD34FF09E03B3EB12620DD94FEA002373
:1007700043F0004310F0004F23FA02F018BF40424C
:1007800070474FF00000704712F1610F01D1420233
:1007900005D110F0004008BF6FF0004070474FF0E7
:1007A0000000704753B94AB9002908BF00281CBF90
:1007B0004FF0FF314FF0FF3000F00CB8ADF1080CF6
:1007C0006DE904CE2DF00EFEDDF804E0DDE9022334
:1007D00004B07047704700BF10F8012B11F8013BBF
:1007E000012A28BF9A42F7D0D01A7047034613F85F
:1007F000012B002AFBD1181A0138704700000000B5
:1008000001F0FF01102A2BDB10F0070F08D010F8C1
:10081000013B013A8B422DD010F0070F42B3F6D1C5
:10082000F0B441EA012141EA014122F007047FF0DE
:1008300000070023F0E80256083C85EA010586EA35
:10084000010685FA47F5A3FA87F586FA47F6A5FA71
:1008500087F68EB9EED1F0BC01F0FF0102F007027D
:1008600032B110F8013B013A83EA010313B1F8D128
:100870000020704701387047002D06BF3546033809
:10088000073815F0010F07D1013015F4807F02BF42
:10089000013015F4C03F0130F0BC0138704700BF93
:1008A0000348044B834202D0034B03B118477047FF
:1008B000C0010020C0010020000000000548064BD8
:1008C0001B1AD90F01EBA301491002D0034B03B14E
:1008D00018477047C0010020C00100200000000040
:1008E00010B5064C237843B9FFF7DAFF044B13B178
:1008F0000448AFF300800123237010BDC001002025
:1009000000000000BCEE020808B5054B1BB105490C
:100910000548AFF30080BDE80840FFF7CFBF00BF38
:1009200000000000C4010020BCEE0208024403469F
:10093000934200D1704703F8011BF9E770B50D4BE6
:100940000D4C00261D1BB6EBA50F09D12EF0B6FAF3
:100950000A4C0B4B00261D1BB6EBA50F05D170BD35
:1009600054F8043B98470136EDE754F8043B9847A8
:100970000136F1E7D4F50308D4F50308D4F50308EC
:10098000D8F503087047704737B5002944D051F8AF
:10099000043C0190002BA1F10404B8BFE41800F05E
:1009A000DDF81E4A0198136833B96360146003B020
:1009B000BDE8304000F0D8B8A34208D925686119D5
:1009C0008B4201BF19685B6849192160EDE71A463F
:1009D0005B680BB1A342FAD911685518A5420BD137
:1009E000246821445418A3421160E0D11C685B685C
:1009F00053600C441460DAE702D90C230360D6E795
:100A0000256861198B4204BF19685B68636004BF85
:100A1000491921605460CAE703B030BD20030020AB
:100A200070B50F4C0E462168054611B900F0A2F8CA
:100A300020603146284600F09DF8431C03D14FF05A
:100A4000FF34204670BDC41C24F00304A042F8D03B
:100A5000211A284600F08EF80130F2D1EFE700BFEE
:100A60001C0300202DE9F843CD1C25F003050835B3
:100A70000C2D38BF0C25002D064601DBA94204D9F8
:100A80000C2333600020BDE8F883334F00F066F894
:100A90003B681C463CBB29463046FFF7C1FF431C60
:100AA000044656D13C68A046B8F1000F40D1002C56
:100AB00049D023684146304604EB030900F05AF858
:100AC000814540D121686D1A29463046FFF7A8FFBD
:100AD000013038D023682B4423603B685A685ABBE6
:100AE000C7F800800EE02268521B1ED40B2A16D9CC
:100AF0006119A342256018BF5960636808BF396057
:100B000062514B60304600F02FF804F10B00231DBA
:100B100020F00700C21A1CBF1B1AA350B3E762687B
:100B2000A3420CBF3A605A60ECE723466468B1E721
:100B30004446D8F80480B7E71A465B68A342FBD165
:100B400000235360DEE70C233360304600F00CF8DE
:100B500098E70560D6E700BF200300200148FFF7B3
:100B600011BF00BF180300200148FFF70CBF00BFF2
:100B70001803002038B5064C0023054608462360BC
:100B800001F030FC431C02D1236803B12B6038BD57
:100B900014030020030A420923F4FF6323F0070330
:100BA00002F4FC6213439BB2C0F3C40018437047C5
:100BB00003280DD006D801280CD002280CD068B923
:100BC0000948704704280BD005280BD10748704707
:100BD00007487047074870470748704707487047FD
:100BE000074870470548704730EF02086CEF02086D
:100BF00054EF02083CEF020848EF020874EF0208C5
:100C000060EF020810B5064B5C6844B1054B1878DC
:100C1000FFF7CEFF0246044920462DF07AF810BDBA
:100C200048030020CC0A00207CEF02082DE9F041A7
:100C300082B007468846154600211046FFF764FD3E
:100C400048BB2C462046FFF787FD0646FFF76AFBA8
:100C500001462046FFF7B0FA1149FFF7B7FB4FF006
:100C60007C51FFF7ABFAFFF777FD0446632802DDFE
:100C7000A0F16404013600212846FFF745FD68B95C
:100C8000084B01940096084A414638462DF032FD43
:100C900002B0BDE8F08105F10044D3E7034BF0E773
:100CA0000000C842CC0003088CEF0208ECEF0208F9
:100CB0002DE9F04391B08146884617460CAC1A46A0
:100CC00010212046FFF7B2FF08AD189A10212846E0
:100CD000FFF7ACFF04AE199A10213046FFF7A6FFCC
:100CE0001A9B03930296019500943B46034A4146A2
:100CF00048462DF0FFFC11B0BDE8F08398EF0208E4
:100D000070B5A6B018A801F07BFA434B586AA8B199
:100D10009DF86030002B4FD0BDF862203F492CF089
:100D2000F8FF3D4CBDF864203D49A06A2CF0F1FF6E
:100D3000BDF866203B49E06A2CF0EBFF364B186BA0
:100D4000002858D09DF86830002B48D004AC364BB2
:100D500002931D9B01931C9B00931B9B334A5021C4
:100D60002046FFF7A5FF21462B4D286B2CF094FF62
:100D70002F4B0293209B01931F9B00931E9B2D4A98
:100D800050212046FFF794FF2146686B2CF084FF2A
:100D90009DF86930EBB1284B0293239B0193229B72
:100DA0000093219B254A50212046FFF781FF2146D1
:100DB000A86B2CF071FF1EE021492CF06DFF164C42
:100DC0002049A06A2CF068FF1F49E06A2CF064FFFC
:100DD000B4E71E49104B986B2CF05EFF0BE01C49EA
:100DE0002CF05AFF0C4C1B49606B2CF055FF1A4934
:100DF000A06B2CF051FF084BDC6B5CB1249D259B54
:100E00001E4604F049FE009033462A461349204608
:100E10002CF07FFF26B070BD48030020B0EF020821
:100E2000C0EF0208D4EF020818F002080CF0020824
:100E300028F002081CF0020834F002082CF0020826
:100E4000E0EF0208F0EF020800F0020838F00208B4
:100E500054F0020864F0020874F0020880F00208FE
:100E600010B5002027F052FA1C4C2080002027F0FB
:100E700064FA1B4B1880B4F90030002B15DD0028F4
:100E800016DD174BB3F800C0ACF16A031BB21D2B83
:100E900000DC1E23143B134981FB0321A1EBE3710A
:100EA00009B2114B198000220FE001222280E6E7EF
:100EB0000B4B01221A80E4E701F10A0312FB03F352
:100EC0002A330A4820F812300132022AF4DDACF14C
:100ED000380C074BA3F800C010BD00BF3003002042
:100EE0002E030020565555552603002028030020C8
:100EF0002403002008B527F003FA12F091FD08BD85
:100F000070B504460D4616461AF08CF8324629464E
:100F100020461AF08EF83246294620461AF074F818
:100F20003246294620461AF076F870BD38B5044698
:100F3000102115F0EFFC00252A464FF00001204655
:100F40001AF07EF82A46FF2120461AF080F82A4639
:100F500029462046FFF7D4FF38BDF8B50F461646A0
:100F60001D462CF0F3FA0446002229461AF0A0F898
:100F70000698FFF70FFE0146002220461AF091F86E
:100F80000022114620461AF062F80022114620463F
:100F9000FFF7B6FF079920462CF07EFE3246394611
:100FA000204616F0D1FC2046F8BD000030B583B0D5
:100FB0000D4606990191009313462A460021FFF73A
:100FC000CCFF0446084BB3F9001016F0C7FC002212
:100FD000022120461AF073F82A460021204616F016
:100FE000B3FC204603B030BD3003002010B582B002
:100FF000FFF780FF15F082FC0446124A002119F029
:1010000080FE2222104BB3F90010204616F0D4FCCB
:1010100000221146204616F097FC002241F2A3015F
:1010200020461AF00DF80022FF2120461AF00FF892
:10103000064B0093064B074A05212046FFF7B6FFF3
:1010400002B010BDFFFF0F0030030020B4F0020813
:10105000DCD6D200C03A0308F0B583B00F4616467E
:101060001D4615F04BFC04461D4A002119F049FEAF
:101070001C4B19881839324609B2204616F09CFCE0
:101080003A460C21204616F05FFC002241F2A301F3
:10109000204619F0D5FF0022FF21204619F0D7FF86
:1010A000002248F25241204619F0D8FF00220121C7
:1010B000204619F0DAFF002211462046FFF720FFF4
:1010C0001021204615F026FC0195074B0093074B95
:1010D000062208212046FFF740FF204603B0F0BD5E
:1010E000FFFF0F0030030020DCD6D200DC3A0308FB
:1010F0002DE9F04782B0FFF7FDFE8246DFF8DC8085
:10110000374F384BB8F90020B7F90010FFF7A4FFAC
:101110008146354C354B0193354E009623462022AF
:101120000821FFF71AFF334D6862334B0193009695
:101130002346382208214846FFF70FFFA8622F4BAD
:10114000019300962346502208214846FFF705FFE9
:10115000E8622B4BB8F90020B7F902105046FFF7B0
:101160007BFF8146274B01930096234620220821CE
:10117000FFF7F3FE2863244B0193009623463822A1
:1011800008214846FFF7E9FE6863204B019300966B
:101190002346502208214846FFF7DFFEA8631C4B78
:1011A000B8F90020B7F904105046FFF755FF06467E
:1011B000184B0193184F0097234620220821FFF770
:1011C000CCFEE863154B0193009723463822082193
:1011D0003046FFF7C2FE02B0BDE8F08726030020CC
:1011E00028030020CCF00208DC3A0308E0EF0208F4
:1011F000DCD6D20048030020F0EF020800F002081D
:10120000E8F0020854F0020864F0020874F00208E2
:1012100004F1020814F102089088800020F102080D
:101220002DE9F04F8DB0FFF765FE03905B4B5C4AF4
:10123000B2F900205B49B1F90010FFF70DFF074636
:1012400002F096FA002800F0A680038804AD564A02
:10125000202128462DF04EFA544C0195544D00950E
:101260002346202208213846FFF777FE514B019391
:1012700000952346382208213846FFF76EFE4E4E71
:1012800030604E4B0193009523465022082138468A
:10129000FFF763FE4A4B0193DFF828A1CDF800A0C9
:1012A0002346682208213846FFF757FEDFF8F09002
:1012B000DFF8F0B0444BB9F90020BBF902100398F5
:1012C000FFF7CAFE0746414B0193009523462022B3
:1012D0000821FFF742FE70603D4B019300952346C5
:1012E000382208213846FFF738FEB060DFF8E48086
:1012F000CDF8048000952346502208213846FFF798
:101300002CFE0290F06005F01DFA334BA3FB003277
:10131000920C324902982CF0FCFC314B0193009561
:101320002346682208213846FFF717FE30612D4B0F
:101330000193CDF800A02346802208213846FFF70C
:101340000CFE7061284BB9F90020BBF9041003981A
:10135000FFF782FE0746254B019300952346202286
:101360000821FFF7FAFDB061CDF80480009523460F
:10137000382208213846FFF7F0FDF061CDF80480EF
:1013800000952346502208213846FFF7E6FD3062DB
:101390000DB0BDE8F08F034658E700BF44F10208E6
:1013A000260300202803002054F10208DC3A030839
:1013B000DCD6D20070F10208480300207CF102085C
:1013C00098F1020890888000B0F10208C0F102088C
:1013D000D0F10208CC00030883DE1B43DCF10208D5
:1013E000ECF1020800F202081CF202082CF20208DA
:1013F0002DE9F0410D4690461F462BF0F9FF0446BB
:10140000304E3246002119F07CFC2C224821204627
:1014100016F0D2FA42462946204616F095FA0022E6
:1014200041F60511204619F00BFE0022FF2120464F
:1014300019F00DFE002248F25241204619F00EFE2E
:1014400000220121204619F010FE0022042120462E
:1014500019F03CFE002211462046FFF751FD1021F5
:10146000204615F057FA20462CF0A6FF05463246D6
:10147000002119F046FC14221146284616F09CFA69
:101480000C221A21284616F05FFA00220321284672
:1014900019F0F2FD00224DF2BB61284619F0FAFD69
:1014A00000220121284619F0EEFD03223946284684
:1014B0002CF08EFF0221284615F02CFA2046BDE8BC
:1014C000F08100BFFFFF0F0070B582B0FFF712FD83
:1014D0003A4B1D88A5F118031EB215F00FFA044609
:1014E000374A002119F00DFC30223146204616F013
:1014F00063FA344BB3F900200C21204616F024FA8D
:10150000002241F2A301204619F09AFD0022FF219A
:10151000204619F09CFD002248F25241204619F065
:101520009DFD00220121204619F09FFD0022114659
:101530002046FFF7E5FC1021204615F0EBF9224B81
:10154000022206212046FFF753FF204E4FF0FF33C3
:101550000722314612F0DCFBA5F166011C4B02228A
:1015600009B22046FFF744FF01230722314612F05B
:10157000CFFB184B0193184B0093184B0E22002100
:101580002046FFF7EAFC164C2064A5F1C00109B221
:1015900016F0E4F90E225421206C16F0D5F9002241
:1015A0000221206C19F08BFD0E4B1A6802230132C8
:1015B0000D49206C2CF0ADFB02B070BD3003002053
:1015C000FFFF0F0024030020E40503083919000879
:1015D000D8050308CC00030890888000DC3A030893
:1015E00048030020340300203CF2020810B5FFF746
:1015F00081FC0446FFF734FC2046FFF797FCFFF719
:10160000F5FC074B1B68012B07D0FFF709FEFFF71E
:101610005BFF044B01221A7010BDFFF769FDF6E76E
:10162000340300203903002008B5FFF763FC19F0EC
:101630003DFE442200210448FFF778F9034B0022C5
:101640001A70FFF7D3FF08BD4803002039030020BC
:101650000C4B1B68A3B110B500F0C2FC50B1094B94
:101660001B681C4600F0C2FC0246074920462CF0CD
:1016700050FB10BD0549034B18682CF00DFBF8E733
:10168000704700BF4803002044F2020860F20208DD
:1016900010B503F06DFA044603F002FA03460D4A52
:1016A0009068A0B154B11B78312B0DD0302B0FD0E6
:1016B00004F01E031E2B05D0074906E007492CF055
:1016C000EBFA04E0064900E006492CF0E5FA10BD0B
:1016D0000549FAE748030020ECF2020804F3020887
:1016E000C8F2020878F20208A0F2020800B585B03C
:1016F000002303930293164B1869C8B1154B1A685F
:10170000154BA3FB023C1549A1FB02E35B09A1FBBE
:1017100003E14909C1EB0111C3EB031EA2EB8E02E9
:101720000092A3EB81034FEADC220D492CF0F1FA81
:10173000074B5B6953B102A903A804F061FC029B4B
:10174000039A0849024840692CF0E3FA05B000BD4D
:101750004803002040030020C5B3A29189888888EF
:1017600018F3020830F3020808B504F067FD0F4BC8
:101770001B68C31AB3F57A7F05D30C4B18600C4A6B
:101780001368013313600B4B1B6863B9FFF73AFA18
:10179000FFF7ACFF084B1B783BB1FFF779FF064B17
:1017A00000221A7001E0FFF7ABFA08BD3C030020ED
:1017B00040030020340300203803002008B50A4B02
:1017C000186820B129F060FA074B00221A60FFF771
:1017D00091FB19F06BFD442200210448FFF7A6F8A5
:1017E000034B00221A7008BD440300204803002068
:1017F0003903002008B5194B1B78BBB10023184AE8
:101800001360184A136004F019FD174B1860174B4A
:1018100001221A70FFF71CFFFFF73AFFFFF7F2F9FA
:10182000FFF764FF124B1B6873B108BDFFF718FB8D
:10183000FFF760FB19F03AFD442200210D48FFF745
:1018400075F8FFF7D3FED9E71A464FF4FA710A4844
:1018500029F0FAF9064B1860E7E700BF39030020CA
:1018600034030020400300203C0300203803002004
:1018700044030020480300206917000830B583B0F6
:101880000446FFF737FB0546FFF798FFFFF7E8FA36
:101890002846FFF74BFB6CB10094074B074A002129
:1018A0002846FFF783FB00231A46092116F0E2F8C9
:1018B00003B030BD024CEFE7DCD6D200C03A0308DB
:1018C000CC000308034B1B7813B1034B01221A70A1
:1018D000704700BF3903002038030020144B1B68F9
:1018E000181800F0010048BF4042002819DB83426D
:1018F0001CD010B50E4B1C461860FFF795FE2368F0
:101900008BB9FFF77FF9FFF7A3FEFFF7C1FEFFF7E3
:10191000EDFE074B196802220131064800F06EF90E
:1019200010BD0230E3E7FFF7EBF9F2E7704700BFC5
:101930003403002050F3020808B512F0D3F9FFF782
:10194000CDFF08BD024B00221A700120704700BF76
:101950008C05002008B502E0012008F0A3FA024B34
:101960001B78002BF8D108BD8C05002008B501209C
:1019700008F08AFF024B1860003818BF012008BD2C
:101980009005002008B5044B186818B14FF0FF31DE
:1019900009F000F908BD00BF9005002008B5044B10
:1019A000186820B100231A46194608F0A9FE08BDA0
:1019B0009005002010B518B101280BD0012010BDF2
:1019C00004460130C0B20CF0A7F908B12046F6E792
:1019D0000220F4E703F0AAFB08B10020EFE70220A1
:1019E000EDE708B510B1012801D0012008BD03F0D2
:1019F0009DFB08B10020F9E70220F7E72DE9F0414F
:101A000084B00E4617461D46804628B1012816D0E0
:101A1000042004B0BDE8F08101301B4B01221A7094
:101A200000210291194B0193ADB200953B4632461D
:101A3000C0B20CF0E7FAFFF78DFF4046E9E7FDB1D1
:101A400011F0030F11D00024AC4217D20122E1198A
:101A50000F4803F071FBA8B94FF400720C4906EB74
:101A600044202CF0EEFE0134EEE72A46394630469B
:101A700003F062FB0028CCD04046CAE70020C8E74C
:101A80000420C6E74046C4E78C050020451900083D
:101A90008C0300202DE9F04385B00F4690461D468B
:101AA000814628B1012816D0042005B0BDE8F08396
:101AB00001301C4B01221A70002102911A4B019334
:101AC000ADB2009543463A46C0B20CF0F7FAFFF7C4
:101AD00041FF4846E9E70DB311F0030F13D000248E
:101AE000AC4219D2114E4FF4007207EB442130463C
:101AF0002CF0A7FE012204EB0801304603F048FB5E
:101B000070B90134ECE72A464146384603F040FB01
:101B10000028CAD04846C8E70020C6E70420C4E72A
:101B20004846C2E78C050020451900088C030020B8
:101B300070B582B00C4616460546F0B90130C0B209
:101B4000022914D00BD8002944D0012905D1002145
:101B50000CF0C6F83060284612E0042010E003299B
:101B600003D10123136028460AE0042008E0002185
:101B70000CF0C4F83080284602E0012802D004208E
:101B800002B070BD002301934FF40073ADF8023032
:101B9000022904D84BB253B9C1B90846F0E703296A
:101BA00003D1012313600020EAE70420E8E70DF1E8
:101BB000020101A803F018FB50B9012C03D0BDF8B5
:101BC00002303380DCE7019B3360D9E70420D7E79C
:101BD0002846D5E70846D3E700B5B1B002460B4624
:101BE000C02168462CF0E0FD011E05DBBF2900DDA9
:101BF000BF21684603F0BEFF31B000BD0FB400B591
:101C000083B004A951F8040B0191FFF7E5FF03B07D
:101C10005DF804EB04B0704710B500240FE000201D
:101C200003F026F816E0052B26D1012003F020F85A
:101C300002E0012002F0F4FF642008F033F90134DF
:101C40000F4A82FB0432E317C3EB620303EB830307
:101C50009C42E4D00B4B1A78D3B2042AE9D0042B6F
:101C6000E1D8023BDBB2012B06D814F0030FE3D11D
:101C7000012002F0FDFFDFE7012002F0E5FFDBE7D6
:101C800067666666CC0A002010B5044608F0B2FA12
:101C9000022803D0204604F0D7FA10BDE30E6101FC
:101CA000091B63F100039B0043EA91738900091942
:101CB00043F10003DC004FF47A720023C80044EAC9
:101CC0005171FEF76FFD08F0EDF8E6E700B583B05F
:101CD00072B6012002F0CCFF00230193019A034B5E
:101CE0009A42F6D8019B01330193F7E7FEFF01000A
:101CF00010B594B008AC302200212046FEF716FE45
:101D00000023039304930593069307930193204ABA
:101D1000116C41F080511164126C02F080520192FA
:101D2000019A02931B4B1A6842F440421A601B68E6
:101D300003F440430293029B012308934FF4803342
:101D4000099302230E934FF480020F9219221092EE
:101D50004FF4A8721192129307231393204604F0B4
:101D6000F3FA88B90F2303930223049305904FF4E9
:101D7000A05306934FF480530793052103A804F062
:101D800035FD18B914B010BDFFF7A0FFFFF79EFF97
:101D9000003802400070004000B583B004F028FA1B
:101DA000FFF7A6FF02F00EFF002002F04DFF01201A
:101DB00002F04AFF03F08AFE3648FFF71FFF01F0EA
:101DC000A3FA01F0EDFA7F2003F016F93248FFF78D
:101DD00015FF3248FFF712FF03F060FB20B13048D7
:101DE000FFF70CFFFFF772FF2E48FFF707FF2E48A3
:101DF00009F0D4FC2D48FFF701FFFFF7B7FD20B92C
:101E00002B48FFF7FBFEFFF761FF00F0C3FE20B990
:101E10002848FFF7F3FEFFF759FF2748FFF7EEFECC
:101E2000002401940323009323464FF48062234946
:101E3000234807F045FE01940423009323464FF402
:101E400000722049204807F03BFE019401231D4603
:101E5000009323464FF400721C491D4807F030FEE2
:101E60000194009523464FF480721A491A4807F0EE
:101E700027FE01940223009323464FF4C0621749C2
:101E8000174807F01DFE84F3118862B607F058FE6C
:101E9000FFF71CFF6CF302087CF3020894F30208BE
:101EA000A8F30208BCF3020850000020CCF302089B
:101EB000FCF3020814F402082CF4020848F40208A7
:101EC000D52B000850F402080924000858F4020831
:101ED0003D22000860F40208191C000864F402089E
:101EE0006125000808B5FFF7F1FE08B5FFF7EEFE23
:101EF00008B5FFF7EBFE0000003818BF0120014BCA
:101F0000186070479405002010B582B0002301933B
:101F1000ADF802301E4B1B6823B100231C4620463F
:101F200002B010BD03F0C8F848B11A4B1B6813B1DA
:101F300001231C46F3E71848FFF760FEF8E70DF1B0
:101F4000020101A803F050F90199890ABDF80220A5
:101F500002FB01F1890A1148FFF750FEFFF712FD5D
:101F600001220F490F4810F089FD0446FFF716FDC6
:101F700034B9074B01221A600B48FFF73FFECEE74A
:101F800021460A48FFF73AFE01231C46C7E700BF77
:101F9000980500209405002068F4020890F40208D7
:101FA000BCF402089C050020E4F40208C0F4020816
:101FB00008B5094B1B6813B903F0ACF808BDFFF76F
:101FC000E1FC00220549104610F058FDFFF7E6FC41
:101FD000014B00221A60EFE798050020BCF40208CC
:101FE000014B1868704700BF9805002000B583B00A
:101FF000002301934FF40073ADF802300A4B1B68C5
:1020000013B9184603B000BD0DF1020101A803F099
:10201000EBF838B90198800ABDF8023003FB00F0F4
:10202000800AEFE70020EDE79805002008B5034699
:1020300008461146D3F800C0BCF1000F05D0064A8F
:102040001268A2EB0C02772A04D9034A12681A60BC
:10205000FFF7D4FD08BD00BFEC07002008B500F075
:102060001FFE08BD08B501F09BF938B9054B19688A
:10207000013119600448FFF7C1FD08BD0348FFF7AF
:10208000BDFDFAE7D8070020F8F4020824F502089D
:1020900038B504460D4607F087FD2846A04704469C
:1020A00007F052FE204638BD194B1B881BB1013B7F
:1020B000174A1380704700B583B069461548FFF78B
:1020C000E7FF68B9BDF80420134B5A80BDF8002023
:1020D0009A80BDF80220DA8001221A7003B000BD98
:1020E000FFF7C0FF69460B48FFF7D2FF0246002802
:1020F000E8D0094B00211970596B01315963044B29
:102100000421198005490648FFF790FFE6E700BF64
:10211000E00700205D200008F007002058F50208C5
:10212000E80700202D4B1B881BB1013B2B4A138075
:10213000704700B58BB001A92948FFF7A9FF10F13E
:10214000030F1AD8274B0199D96002991961039995
:102150005961049999610599D9610699196201211A
:102160001972214B1B780BBB1E4B00225A720022A6
:102170005A629A62DA620BB000BDFFF773FF01A9E1
:102180001748FFF785FF10F1030FDBD9154B00212E
:1021900019725972596B01315963104B042119801E
:1021A000024612491248FFF741FFE4E748B90D4BD8
:1021B000079A5A62089A9A62099ADA6201225A7256
:1021C000D9E7084B00215972596B01315963024616
:1021D00008490748FFF72AFFCDE700BFDE070020C8
:1021E000F9210008F0070020DC07002094F5020820
:1021F000E4070020D0F5020808B502F05FFE08BD34
:10220000C8B110B5044609F075F8A446DFF828E017
:10221000BEE80F00ACE80F00BEE80F00ACE80F000E
:10222000BEE80F00ACE80F009EE803008CE8030056
:1022300009F082F810BD7047F007002070B5204803
:10224000FFF7DCFC00F014FD054660B91D491E488F
:10225000FFF7D4FC02F0B4FD044640B110F1030FC7
:1022600003D01A4E04E01949F1E7194E00E0154E6B
:1022700002F01EFE0346224631461648FFF7BEFC1A
:102280001CB90123144A13700EE00023FAE7FFF78C
:102290000BFF0FE0FFF746FF104B1A68104B1A6355
:1022A0004FF4FA7007F0FEFD0C4A13680133136017
:1022B000002DECD0002CEDD014F1030FECD1E9E7A8
:1022C00044F6020820F6020874F6020824F6020812
:1022D0002CF6020890F60208DC070020EC0700202C
:1022E000F007002030B589B0054600230193244B48
:1022F0001A6C42F020021A641B6C03F02003019355
:10230000019B02A903A804F047FB069BFBB904F05C
:1023100023FB03461B4AA2FB03239B0C013B1A48E9
:102320001A4A026040F2E732C26043600023036150
:1023300083608361436105F07DFE044658B1372018
:1023400003F0FEFFC4B90F2D0ED9012415E004F0EF
:1023500003FB4300DEE70C4C204605F02DFD204634
:1023600005F0E8FC0446EAE722462946372003F058
:10237000D7FF074B1D6000E00124204609B030BDA7
:102380000038024083DE1B43280800200014004070
:102390006001002008B50268034B9A4200D008BDD6
:1023A00003F040FFFBE700BF00140040FEE7FEE73C
:1023B000FEE7FEE7FEE7704708B5024805F019FDA5
:1023C00008BD00BF2808002008B5012100200DF03D
:1023D000A7FF08BD08B5024804F0B0FC08BD00BF67
:1023E000481A00200346064A126822B1044A1068BF
:1023F000034413607047024A02491160F6E700BFC8
:1024000070080020485200202DE9F84F4048FFF79F
:10241000F5FB03F039FA38B13E48FFF7EFFB4FF414
:102420007A7007F03FFDFAE73B48FFF7E7FB4FF014
:102430000009C846CA46CB464FE003F027FB0146D9
:102440003648FFF7DBFB4FF0010B52E003F0F6FEDE
:10245000A0EB0800B0F57A7F57D303F017FBA0EB91
:102460000901B1F57A7F06D803F0E8FE804603F053
:102470000DFB814649E04FF47A722948FFF7BEFB15
:102480004FF0010AF0E703F001FBB84201D000254C
:1024900007E02448FFF7B2FB4FF0FF37354600E076
:1024A00001350F2007F0FEFC022D0AD8C72C08D8F2
:1024B000013403F077FA0028F2DD002EE3D0002586
:1024C000EFE7C72C04D940F6B8311748FFF796FB61
:1024D000052007F0E7FC03F0C7F903F0D7FA074639
:1024E0004FF47A7003F050FA064610B1BBF1000FBA
:1024F000A3D0BAF1000F08D1B8F1000FA6D103F0B4
:102500009DFE804603F0C2FA814600242546CBE7B3
:10251000C8F602081CF702084CF7020888F7020800
:10252000B8F702081CF802086CF8020810B5044657
:1025300002F0BAFA50B902F01BFB024621460648E7
:10254000FFF75CFB03F036FD012010BD2146034878
:10255000FFF754FB0020F8E7E8F80208C4F8020887
:1025600030B583B07248FFF749FB02F04DF938B13E
:102570007048FFF743FB4FF47A7007F093FCFAE7DB
:10258000044614F08FF903F09BFD03F0EFFD0020EB
:1025900025F0BCFE0546002025F0CFFE0246294668
:1025A0006548FFF72BFB6548FFF768F928F0B2FB99
:1025B0006348FFF723FB07F0FFFA624B1860A0F5B2
:1025C000FA70614B186054E0FFF77CF95FE040F669
:1025D000B8336DE05C4B1D60FFF796FC18B95B4BA0
:1025E00001221A7066E00120FFF786FC62E0584B7A
:1025F00001221A705748FFF701FB5748FFF796FF73
:1026000050B1FFF7F7F8554B01221A70544B1D607B
:102610005448FFF7F3FA54E0FFF7CAFC4B4B002293
:102620001A704EE0504B01221A705048FFF7E6FA3C
:102630004F48FFF77BFF00284ED0FFF7DBF8474BF2
:1026400001221A70464B1D604A48FFF7D7FA43E053
:102650004948FFF713F9414B02221A703A4B1D60AB
:102660004648FFF7CBFA41E028F054FB052007F07D
:1026700019FC07F0A1FA0546414B1B78A34206D08E
:102680003F4B1C78E4B2354B1B78012B9CD0334B6D
:102690001B78012B2AD02D4A12785AB92C4A12786D
:1026A00042B9294A1268AA1A022B90D04FF4FA7341
:1026B0009A428FD2254B1B781BB1254B1B78002BE0
:1026C00095D0264B1B78012B06D0274B1B781BB9C6
:1026D0002B4B1B78042BA5D0204B1B7833B9194BFF
:1026E0001B68EB1A42F20F729342B1D81B4B1B7856
:1026F000012BB9D1234B1B78002BB5D1184B18688F
:102700000028B1D0281A40F2DB539842ACD90023FC
:10271000009301931B4B01221A7001A9684603F034
:102720006FFC019A00991848FFF768FA9CE700BF10
:1027300008F9020830F9020860F9020898F902085D
:10274000B4F902087C0800208008002086080020D8
:1027500085080020E4F90208BCF40208870800207C
:10276000780800200CFA02088408002034FA0208D5
:1027700058FA02085CFA020884FA0208A4FA02086D
:10278000CC0A002074080020D4FA020870B5ADF518
:102790001C7D1D4810F0CAFF1C4810F0C7FF96AC06
:1027A0001B4D0FCD0FC495E8030084E803000024FF
:1027B00004E029461748FFF721FA0134022C1FD8FC
:1027C0009CAB03EBC40353F8185C0A22294602A809
:1027D00010F080F902460028EBD19CAB03EBC40358
:1027E00053F8146C3046FEF701F8024602AD01AB17
:1027F0003146284610F0F7FB284610F0C1FDDCE713
:102800000DF51C7D70BD00BF20FB020828FB0208EF
:10281000D4EE020834FB020870B590B006460D46AF
:10282000002423460AE0591C03F140000DEB000C84
:102830000CF8402C3F2B0ED001340B46AC420FD28B
:10284000325D1F2AEFD80D2AEDD00A2AEBD0092AD3
:10285000E9D02E22E7E7684603F08CF90021EBE788
:102860000BB910B070BD1946684603F083F9F8E75C
:1028700070B5ADF5267D0C46B1F5006F15D8314B1E
:102880001B68B3F5804F16D2C3F58043994216D822
:102890000122014612A810F01DF9014698B92146FF
:1028A0002948FFF7ABF9002416E04FF400622748EF
:1028B000FFF7A4F938E02648FFF7A0F934E02448F0
:1028C000FFF79CF930E02348FFF798F92CE001A8C6
:1028D000FFF7A2FF119B1C4411AB402201A912A8D3
:1028E00010F09AFA054688B9119969B10B19B3F538
:1028F000006FECD9C4F5006101A8FFF78DFF01233B
:102900001E464FF4006403E00E4601E000231E461D
:102910006DB912A810F034FD76B90F48FFF76EF9C3
:10292000084A1368234413600DF5267D70BD2946BF
:102930000A48FFF763F9ECE74FF400610848FFF736
:102940005DF9EAE788080020C4FB020854FB02088E
:102950007CFB0208ACFB020820FC0208E4FB020836
:1029600000FC0208F0B5ADF52F7D1D46052902DDFE
:102970000DF52F7DF0BD04460F46164601469AA878
:1029800010F043FE024600BB52A99AA810F09DFE2B
:102990000146F8B99DF86231FBB129490DF5B170D6
:1029A000FDF71AFF0028EFD026490DF5B170FDF7AD
:1029B00013FF0028E8D02046FDF718FF88B1431E1A
:1029C000E35C2F2B2DD0204A0CE021461F48FFF757
:1029D00015F9CDE71E48FFF711F99AA810F06BFE24
:1029E000C6E7194A0DF5B173019300922346194ABF
:1029F0004FF4A07102A82BF07DFE9DF8543113F026
:102A0000100F10D02B6801332B6002A91248FFF77A
:102A1000F5F82B4632463946013102A8FFF7A2FFEE
:102A2000B2E70E4ADEE7336801333360529A02A9F7
:102A30000B48FFF7E3F8529902A8FFF719FFA3E745
:102A400070FC020874FC020830FC020834FC020826
:102A500054FC020878FC020880FC0208CC00030841
:102A60008CFC020810B582B0002401940094114837
:102A7000FFF7C4F8FFF78AFE0F48FFF7BFF80F4BC8
:102A80001C606B4601AA21460D48FFF76BFF019AB7
:102A900000990C48FFF7B2F8202008F09BFD38B1F0
:102AA000044601460848FFF7A9F8204608F036FE1C
:102AB00002B010BDA8FC0208BCFC02088808002077
:102AC000E8FC0208ECFC020820FD020800B583B017
:102AD000174B1B68ADF804301B0C8DF8063007E06F
:102AE0001448FFF78BF8144B05221A70FEF756FFB7
:102AF0004FF0FF31114B186808F04CF801200BF033
:102B00000BF90028F4D00C4B03221A70FEF73AFFA1
:102B1000012201A90A480FF0B1FF01460028DFD1C8
:102B2000054B04221A70FFF79DFFFEF737FFDFE722
:102B300058FA020850FD0208CC0A00208C08002038
:102B40009008002008B50748FFF758F8064B022206
:102B50001A70064B186820B100231A46194607F070
:102B6000CFFD08BD68FD0208CC0A00208C080020BB
:102B700008B50548FFF742F80020044B18700246DC
:102B800003490FF07BFF08BD8CFD0208CC0A002032
:102B900058FA020800B583B003220021012007F093
:102BA00083FD094B186060B100230193022200925B
:102BB0004FF400620549064806F082FF012800D064
:102BC000002003B000BD00BF8C080020A0FD02085B
:102BD000CD2A000800B583B003F078F80B4B1B8BAF
:102BE000ADF8043001A9002008F052FE40B10848B9
:102BF000FFF704F800214FF0FF3009F0B9FDF9E7C5
:102C00000448FEF7FBFFFFF761F8F0E7D4EE020897
:102C1000BCFD0208A8FD020800B587B002468DF889
:102C2000171032230293012301930DF11701009134
:102C30003C21044804F050FE08B907B000BD4FF035
:102C4000FF30FAE7D80A002000B585B002463223EB
:102C500002930123019300913C21044804F0EEFE0D
:102C600008B905B000BD4FF0FF30FAE7D80A0020E0
:102C700008B50A20FFF708F804210020FFF7CCFF71
:102C800040B91420FFF700F803210020FFF7C4FF2C
:102C900018B908BD4FF0FF30FBE74FF0FF30F8E701
:102CA00030B583B005460024052C09DCE0B20A30BB
:102CB00069462144C0B2FFF7C7FF60BB0134F3E7A8
:102CC0009DF800309DF90020002A16DB9DF80120B8
:102CD00003F0030343EA8203AB809DF803209DF8D1
:102CE000023043EA02232B809DF8042012F0400FAB
:102CF00006D00020688003B030BD0023AB80ECE735
:102D00009DF805301B0103F47C7302F00F0213439E
:102D10006B800020EFE74FF0FF30ECE70E4AD2F86F
:102D2000FC3043F08073C2F8FC30A2F55D421368BA
:102D300043F00103136000235360084B1B680849EC
:102D4000A1FB03139B0C03FB00F05268054B5B686F
:102D50009B1A8342FAD3704700ED00E0580100202F
:102D600083DE1B43001000E0F8B504460E4615460E
:102D700002F034FC194B1878400000F0FE0002F01D
:102D800041FC20BB200A02F03DFC00BBE0B202F097
:102D900039FCE0B902F022FC104B18784000C0B2B8
:102DA00040F0010002F02EFC074680B9044608E01E
:102DB000681E201A18BF012002F04BFC3055013468
:102DC000A4B2AC42F4D302F013FC3846F8BD02F0D2
:102DD0000FFC4FF0FF331F46F7E700BFD40A002077
:102DE000F8B504460E46154602F0F8FB124B18786B
:102DF000400000F0FE0002F005FCA8B9200A02F035
:102E000001FC88B9E0B202F0FDFB074660B9044658
:102E1000AC4206D2305D02F0F5FB28B90134A4B211
:102E2000F6E702F0E5FB04E002F0E2FB4FF0FF33CF
:102E30001F463846F8BD00BFD40A002000B583B055
:102E400000231A4604E01349C95C0A4401339BB2CB
:102E5000B72BF8D952428DF8042090B101238DF898
:102E60000530B8220B4948F24700FFF7B9FF50B9C7
:102E7000022201A948F2FF00FFF7B2FF30B903B008
:102E800000BD0346EBE74FF0FF30F8E74FF0FF30AF
:102E9000F5E700BFF40503082DE9F04F8BB00024DF
:102EA0009D4B1C709D4B1C709D4B1C709D4B1C6062
:102EB0001C713F221A7000949B4B1A6B42F08002E7
:102EC0001A631A6B02F080020092009A01941A6B46
:102ED00042F480721A631B6B03F480730193019BAD
:102EE0000125069507954FF0020BCDF820B0099407
:102EF0004FF4807ACDF814A005AEDFF83092314659
:102F0000484603F067FD069407954FF08008CDF81A
:102F10001480874F3146384603F05CFD02F016FB03
:102F200022465146484603F06CFE0A20FEF7ACFEEE
:102F30002A465146484603F064FE0A20FEF7A4FEE6
:102F400006940794CDF814803146384603F042FDCC
:102F50006420FEF799FE06940795CDF8148031465B
:102F6000384603F037FD5846FEF78EFE012C11DC83
:102F7000704B1A5D694B1A7000230493042204A954
:102F800048F24010FFF7F0FE20B1644B00221A70A7
:102F90000134EBE7634B049A1A6000221A715F4B0D
:102FA0001C78002C3FD064495E48FDF715FC0028D2
:102FB00041D122460124614B5A496148FEF71EFE69
:102FC000002C60D0052202A948F24700FFF7CCFE92
:102FD00098B99DF80820524B1A709DF80A209DF868
:102FE000093043EA0223574A13809DF80C209DF8CC
:102FF0000B3043EA0223544A1380534B1B88514A37
:103000001288474909785148FEF7F8FD4A49454872
:10301000FDF7E2FB00283CD03F4B01221A70002054
:103020000BB0BDE8F08F5D2214214948FEF7E6FDA4
:103030004FF0FF30F4E747493A48FDF7CDFB18B9A8
:10304000224601243D4BB7E743493648FDF7C4FB10
:1030500018B922460124394BAEE740493148FDF703
:10306000BBFB18B922460124344BA5E73C492D4847
:10307000FDF7B2FB18B922460124304B9CE72246EB
:103080000024384B98E73848FEF7B8FD6FF0010090
:10309000C6E702238DF80F3001220DF10F0148F22F
:1030A0004000FFF79DFE58B91D4B1B785F2B21D8C0
:1030B0000120FFF7C3FE48B12C48FEF79FFD1CE03E
:1030C0002B48FEF79BFD6FF00100A9E74FF4487312
:1030D0004FF4F072B8212748FEF790FD104B6022A4
:1030E0001A70184B4FF4F0721A80174B4FF4487255
:1030F0001A8002E02048FEF781FD00238DF80F3092
:1031000001220DF10F0148F24000FFF769FE0A208D
:10311000FEF7BAFD80E700BFD30A0020D40A0020E2
:10312000D20A002060000020003802400020024047
:10313000001C0240F0050308C8FE020868FE0208F1
:10314000E8FE0208D00A0020CE0A002054FF020840
:103150007CFE0208D0FE0208D4FE0208DCFE020853
:10316000E4FE020870FE020818FF0208B4FF02081D
:1031700090FF0208D4FF02080C000308024B1878E5
:10318000003818BF01207047D30A0020004870475C
:1031900060000020014B1878704700BFD40A00205F
:1031A000014B1878704700BFD20A0020014B1888E5
:1031B000704700BFD00A0020014B1888704700BF3D
:1031C000CE0A002070B584B000238DF80F308DF842
:1031D00007302C4B1B78002B48D006460D460028A4
:1031E00047D0002948D001220DF10F0148F24E10BE
:1031F000FFF7BAFD002842D19DF80F3003F00F030E
:10320000052B00D90523AB4200D81D464DB901223C
:103210000DF1070148F24E10FFF7E2FD284604B019
:1032200070BD0024A5421DD9A4F6D67080B2C0009E
:1032300080B2042202A9FFF797FDA8B99DF80910F2
:103240009DF8083006EB840243EA012326F8243077
:103250009DF80B109DF80A3043EA01235380013496
:10326000E4B2DFE72546D2E72546D0E74FF0FF304E
:10327000D5E74FF0FF30D2E74FF0FF30CFE74FF008
:10328000FF30CCE7D30A002084B00190019B03EB10
:10329000C3035B00039300E000BF039B5A1E03922D
:1032A000002BF9D104B0704700B587B001A9002305
:1032B00001934B608B60CB600B6110230193012362
:1032C000029303230493024803F084FB07B000BD7C
:1032D000001C024000B587B001A9002301934B6098
:1032E0008B60CB600B613023019312230293012387
:1032F00003930323049304230593024803F06AFB1A
:1033000007B000BD001C024010B588B003A900241E
:1033100003944C608C60CC600C6101941B4B1A6C64
:1033200042F480021A641A6C02F480020192019A3B
:1033300002941A6B42F080021A631B6B03F0800345
:103340000293029B302303931223049301230593DA
:1033500003230693042307930D4803F03BFB0D481A
:103360000D4B03600D4B43608460C4604FF4804399
:10337000036144618461C461046204F0E7F808B940
:1033800008B010BDFEF7A2FCFAE700BF003802400B
:10339000001C0240D80A002000580040A08601000E
:1033A000424B1B685A699B6941490969C3F3400351
:1033B00011F0200F04D002F4E0620BB9002A6AD0A9
:1033C000F0B587B0FFF770FF01221021384803F0F5
:1033D00018FC0A20FFF758FF0025082D16DC344C96
:1033E00000221021204603F00CFC0A20FFF74CFFBE
:1033F00001221021204603F004FC0A20FFF744FFBD
:10340000236913F0200F01D10135E6E701A900245B
:1034100001944C608C60CC600C61202601960127E1
:10342000029703230493224D284603F0D3FA224641
:103430003146284603F0E5FB0A20FFF725FF3A4610
:103440003146284603F0DDFB0A20FFF71DFF174D2C
:10345000284604F068F9284604F078F8FFF73AFFA8
:10346000144B6B60AC60EC604FF480432B616C617B
:10347000AC61EC612C62284604F068F868B92B68EE
:103480009B6913F0020F0BD1094B1B6913F0200F3E
:1034900009D007B0F0BD104670474FF0FF30F8E795
:1034A0004FF0FF30F5E74FF0FF30F2E7D80A002089
:1034B000001C0240A0860100002206E000BF01338C
:1034C0009BB2042BFAD9013292B2824201D200237C
:1034D000F7E7704700BF024BA3F8FE00704700BF3C
:1034E00000FF076082B000BF054BB3F800319BB20C
:1034F000ADF80630BDF8060080B202B0704700BFDC
:1035000000FF076000BF024BA3F80001704700BF37
:1035100000FF076000BF034BA3F8FE00A3F80011F3
:10352000704700BF00FF076010B5042868D05FD85F
:10353000022867D0032867D0012867D1802421465C
:103540004FF45850FFF7E6FF14F0200F66D0384ACA
:10355000D3681269934203D23549CA609BB20B61AA
:10356000334CE088FFF7B6FF0020FFF7CBFFE08881
:10357000013080B2FFF7AEFF0020FFF7C3FFE08805
:10358000023080B2FFF7A6FFE0680138C0F30F20D9
:10359000FFF7B8FFE088033080B2FFF79BFFA089F8
:1035A0000138C0B2FFF7AEFF2089FFF793FF00207C
:1035B000FFF7A8FF2089013080B2FFF78BFF0020C2
:1035C000FFF7A0FF2089023080B2FFF783FF206958
:1035D0000138C0F30F20FFF795FF2089033080B238
:1035E000FFF778FF208A0138C0B2FFF78BFF10BDCC
:1035F00006280DD007280DD005280DD160249EE7A0
:1036000020249CE740249AE7C02498E7002496E70A
:10361000A02494E7E02492E7002490E7044AD368CA
:10362000126993429CD90249CA609BB20B6197E729
:10363000300B002008B50020FFF776FF08BD000022
:103640002DE9F04794B00DAE00240D940E940F9424
:10365000109411941294139406AF0694079408944E
:1036600009940A940B940C9401AD01940294039470
:1036700004940594DFF8E0A022462021504603F090
:10368000C0FA202301934FF00108CDF80880CDF84F
:103690000C804FF00209CDF810902946504603F0F7
:1036A00099F9CDF808900394032304930C23059310
:1036B0004FF6B37301932946284803F08BF94FF670
:1036C000807301932946264803F084F94FF23F03A3
:1036D00001932946234803F07DF93F2301932946AE
:1036E000214803F077F921484FF02043036003F5A8
:1036F000827343608460C46004611022426184610B
:10370000C461046244624FF480538362C4624FF424
:103710008043036344638463C46344640F230D9351
:103720000E9346210F91CDF84080119211211291F4
:103730001394069307930893CDF824800A920B9173
:103740000C943A46314604F0FEFC10B914B0BDE8C2
:10375000F0874046FAE700BF00040240000C024038
:10376000001002400014024000180240440B0020E8
:1037700000487047300B0020024B1878003818BF03
:10378000012070472C0B002070B505460E460F4CEB
:10379000E088FFF79FFE280AFFF7B4FEE0880130BB
:1037A00080B2FFF797FEE8B2FFF7ACFE2089FFF783
:1037B00091FE300AFFF7A6FE2089013080B2FFF7A4
:1037C00089FEF0B2FFF79EFE70BD00BF300B0020F7
:1037D000034B9A88034BA3F8FE2000BF704700BF3D
:1037E000300B002000FF076038B505460A4BDA6849
:1037F0001C6902FB04F400210846FFF7C5FFFFF730
:10380000E7FF002204E0ABB20449A1F80031013225
:10381000A242F8D338BD00BF300B002000FF076084
:1038200010B582B04FF45B40FFF754FEFFF75AFE2D
:1038300004468DF804004FF45C40FFF74BFEFFF7A1
:1038400051FE8DF80500C1B2E0B241EA0021284CDA
:1038500021802848FEF7D2F92388B3F5004F55D0D0
:103860002548FEF7CBF90120FFF734FE0A20FFF7C9
:1038700023FE7820FFF720FE1120FFF72BFE782093
:10388000FFF71AFE55213A20FFF744FE00213620AB
:10389000FFF740FE2920FFF71DFE1420FFF70CFE66
:1038A000164B5A6822F00F025A605A6822F470626E
:1038B0005A605A6842F004025A605A6842F48062C0
:1038C0005A600020FFF7B6FE0020FFF78DFF0122AF
:1038D00020210B4803F095F90A4B01221A70044B82
:1038E0001A69D9680848FEF789F902B010BD00BF0F
:1038F000300B00203C0003085C000308000100A01E
:10390000000402402C0B00209400030855214FF4C2
:103910007040FFF7FFFDAA214FF20100FFF7FAFD0B
:1039200052214FF20200FFF7F5FD08214FF203008C
:10393000FFF7F0FD01214FF20400FFF7EBFD0D2131
:103940004FF43040FFF7E6FD0D214BF20100FFF789
:10395000E1FD0D214BF20200FFF7DCFD34214FF4B5
:103960003640FFF7D7FD34214BF20160FFF7D2FD5F
:1039700034214BF20260FFF7CDFD0D214FF43140B1
:10398000FFF7C8FD0D214BF20110FFF7C3FD0D211C
:103990004BF20210FFF7BEFD34214FF43740FFF722
:1039A000B9FD34214BF20170FFF7B4FD34214BF225
:1039B0000270FFF7AFFD00214FF43240FFF7AAFD80
:1039C00000214BF20120FFF7A5FD00214BF2022060
:1039D000FFF7A0FD24214FF43840FFF79BFD242181
:1039E0004BF60100FFF796FD24214BF60200FFF78E
:1039F00091FD01214FF43F40FFF78CFD0F214FF463
:103A00003340FFF787FD0F214BF20130FFF782FDB6
:103A10000F214BF20230FFF77DFD34214FF4394086
:103A2000FFF778FD34214BF60110FFF773FD3421C9
:103A30004BF60210FFF76EFD08214FF43540FFF7FB
:103A400069FD08214BF20150FFF764FD08214BF29C
:103A50000250FFF75FFD03214FF44240FFF75AFD8C
:103A600024214FF43A40FFF755FD24214BF6012065
:103A7000FFF750FD24214BF60220FFF74BFD0021FC
:103A80004FF43C40FFF746FD78214BF60140FFF72D
:103A900041FD00214BF60240FFF73CFD00214FF4B1
:103AA0003D40FFF737FD78214BF60150FFF732FD1F
:103AB00000214BF60250FFF72DFD00214FF43E4050
:103AC000FFF728FD64214BF60160FFF723FD00217D
:103AD0004FF45140FFF71EFD33214DF20110FFF767
:103AE00019FD00214DF20210FFF714FD34214DF2B3
:103AF0000310FFF70FFD00214DF20410FFF70AFD40
:103B00003A214DF20510FFF705FD00214DF2061098
:103B1000FFF700FD4A214DF20710FFF7FBFC0021E3
:103B20004DF20810FFF7F6FC5C214DF20910FFF78B
:103B3000F1FC00214DF20A10FFF7ECFC81214DF25F
:103B40000B10FFF7E7FC00214DF20C10FFF7E2FC31
:103B5000A6214DF20D10FFF7DDFC00214DF20E10F5
:103B6000FFF7D8FCE5214DF20F10FFF7D3FC012140
:103B70004DF21010FFF7CEFC13214DF21110FFF79C
:103B8000C9FC01214DF21210FFF7C4FC54214DF283
:103B90001310FFF7BFFC01214DF21410FFF7BAFC20
:103BA00082214DF21510FFF7B5FC01214DF21610E0
:103BB000FFF7B0FCCA214DF21710FFF7ABFC022152
:103BC0004DF21810FFF7A6FC00214DF21910FFF777
:103BD000A1FC02214DF21A10FFF79CFC01214DF2CD
:103BE0001B10FFF797FC02214DF21C10FFF792FC0F
:103BF00034214DF21D10FFF78DFC02214DF21E10F5
:103C0000FFF788FC67214DF21F10FFF783FC0221AC
:103C10004DF22010FFF77EFC84214DF22110FFF7BA
:103C200079FC02214DF22210FFF774FCA4214DF221
:103C30002310FFF76FFC02214DF22410FFF76AFCFE
:103C4000B7214DF22510FFF765FC02214DF2261039
:103C5000FFF760FCCF214DF22710FFF75BFC02213C
:103C60004DF22810FFF756FCDE214DF22910FFF728
:103C700051FC02214DF22A10FFF74CFCF2214DF2CB
:103C80002B10FFF747FC02214DF22C10FFF742FCEE
:103C9000FE214DF22D10FFF73DFC03214DF22E10B9
:103CA000FFF738FC10214DF22F10FFF733FC0321F2
:103CB0004DF23010FFF72EFC33214DF23110FFF79B
:103CC00029FC03214DF23210FFF724FC6D214DF247
:103CD0003310FFF71FFC00214FF45240FFF71AFC8E
:103CE00033214DF20120FFF715FC00214DF2022097
:103CF000FFF710FC34214DF20320FFF70BFC0021ED
:103D00004DF20420FFF706FC3A214DF20520FFF7A3
:103D100001FC00214DF20620FFF7FCFB4A214DF289
:103D20000720FFF7F7FB00214DF20820FFF7F2FB19
:103D30005C214DF20920FFF7EDFB00214DF20A2036
:103D4000FFF7E8FB81214DF20B20FFF7E3FB002199
:103D50004DF20C20FFF7DEFBA6214DF20D20FFF700
:103D6000D9FB00214DF20E20FFF7D4FBE5214DF2E7
:103D70000F20FFF7CFFB01214DF21020FFF7CAFB08
:103D800013214DF21120FFF7C5FB01214DF2122046
:103D9000FFF7C0FB54214DF21320FFF7BBFB0121BD
:103DA0004DF21420FFF7B6FB82214DF21520FFF7EC
:103DB000B1FB01214DF21620FFF7ACFBCA214DF2F9
:103DC0001720FFF7A7FB02214DF21820FFF7A2FBF7
:103DD00000214DF21920FFF79DFB02214DF21A2020
:103DE000FFF798FB01214DF21B20FFF793FB022107
:103DF0004DF21C20FFF78EFB34214DF21D20FFF702
:103E000089FB02214DF21E20FFF784FB67214DF252
:103E10001F20FFF77FFB02214DF22020FFF77AFBE6
:103E200084214DF22120FFF775FB02214DF2222063
:103E3000FFF770FBA4214DF22320FFF76BFB02215B
:103E40004DF22420FFF766FBB7214DF22520FFF746
:103E500061FB02214DF22620FFF75CFBCF214DF2E2
:103E60002720FFF757FB02214DF22820FFF752FBD6
:103E7000DE214DF22920FFF74DFB02214DF22A20D1
:103E8000FFF748FBF2214DF22B20FFF743FB022105
:103E90004DF22C20FFF73EFBFE214DF22D20FFF7C7
:103EA00039FB03214DF22E20FFF734FB10214DF298
:103EB0002F20FFF72FFB03214DF23020FFF72AFBC5
:103EC00033214DF23120FFF725FB03214DF2322043
:103ED000FFF720FB6D214DF23320FFF71BFB002184
:103EE0004FF45340FFF716FB33214DF20130FFF73B
:103EF00011FB00214DF20230FFF70CFB34214DF293
:103F00000330FFF707FB00214DF20430FFF702FBFF
:103F10003A214DF20530FFF7FDFA00214DF206304F
:103F2000FFF7F8FA4A214DF20730FFF7F3FA0021C4
:103F30004DF20830FFF7EEFA5C214DF20930FFF741
:103F4000E9FA00214DF20A30FFF7E4FA81214DF23F
:103F50000B30FFF7DFFA00214DF20C30FFF7DAFAF1
:103F6000A6214DF20D30FFF7D5FA00214DF20E30AB
:103F7000FFF7D0FAE5214DF20F30FFF7CBFA012120
:103F80004DF21030FFF7C6FA13214DF21130FFF752
:103F9000C1FA01214DF21230FFF7BCFA54214DF263
:103FA0001330FFF7B7FA01214DF21430FFF7B2FAE0
:103FB00082214DF21530FFF7ADFA01214DF2163096
:103FC000FFF7A8FACA214DF21730FFF7A3FA022132
:103FD0004DF21830FFF79EFA00214DF21930FFF72D
:103FE00099FA02214DF21A30FFF794FA01214DF2AD
:103FF0001B30FFF78FFA02214DF21C30FFF78AFACF
:1040000034214DF21D30FFF785FA02214DF21E30AA
:10401000FFF780FA67214DF21F30FFF77BFA02218C
:104020004DF22030FFF776FA84214DF22130FFF770
:1040300071FA02214DF22230FFF76CFAA4214DF201
:104040002330FFF767FA02214DF22430FFF762FABE
:10405000B7214DF22530FFF75DFA02214DF22630EF
:10406000FFF758FACF214DF22730FFF753FA02211C
:104070004DF22830FFF74EFADE214DF22930FFF7DE
:1040800049FA02214DF22A30FFF744FAF2214DF2AB
:104090002B30FFF73FFA02214DF22C30FFF73AFAAE
:1040A000FE214DF22D30FFF735FA03214DF22E306F
:1040B000FFF730FA10214DF22F30FFF72BFA0321D2
:1040C0004DF23030FFF726FA33214DF23130FFF751
:1040D00021FA03214DF23230FFF71CFA6D214DF227
:1040E0003330FFF717FA00214FF45440FFF712FA6C
:1040F00033214DF20140FFF70DFA00214DF202404D
:10410000FFF708FA34214DF20340FFF703FA0021CC
:104110004DF20440FFF7FEF93A214DF20540FFF75A
:10412000F9F900214DF20640FFF7F4F94A214DF26A
:104130000740FFF7EFF900214DF20840FFF7EAF9D9
:104140005C214DF20940FFF7E5F900214DF20A40EC
:10415000FFF7E0F981214DF20B40FFF7DBF9002179
:104160004DF20C40FFF7D6F9A6214DF20D40FFF7B6
:10417000D1F900214DF20E40FFF7CCF9E5214DF2C7
:104180000F40FFF7C7F901214DF21040FFF7C2F9C8
:1041900013214DF21140FFF7BDF901214DF21240FC
:1041A000FFF7B8F954214DF21340FFF7B3F901219D
:1041B0004DF21440FFF7AEF982214DF21540FFF7A2
:1041C000A9F901214DF21640FFF7A4F9CA214DF2D9
:1041D0001740FFF79FF902214DF21840FFF79AF9B7
:1041E00000214DF21940FFF795F902214DF21A40D6
:1041F000FFF790F901214DF21B40FFF78BF90221E7
:104200004DF21C40FFF786F934214DF21D40FFF7B7
:1042100081F902214DF21E40FFF77CF967214DF232
:104220001F40FFF777F902214DF22040FFF772F9A6
:1042300084214DF22140FFF76DF902214DF2224019
:10424000FFF768F9A4214DF22340FFF763F902213B
:104250004DF22440FFF75EF9B7214DF22540FFF7FC
:1042600059F902214DF22640FFF754F9CF214DF2C2
:104270002740FFF74FF902214DF22840FFF74AF996
:10428000DE214DF22940FFF745F902214DF22A4087
:10429000FFF740F9F2214DF22B40FFF73BF90221E5
:1042A0004DF22C40FFF736F9FE214DF22D40FFF77D
:1042B00031F903214DF22E40FFF72CF910214DF278
:1042C0002F40FFF727F903214DF23040FFF722F985
:1042D00033214DF23140FFF71DF903214DF23240F9
:1042E000FFF718F96D214DF23340FFF713F9002164
:1042F0004FF45540FFF70EF933214DF20150FFF70F
:1043000009F900214DF20250FFF704F934214DF272
:104310000350FFF7FFF800214DF20450FFF7FAF8C1
:104320003A214DF20550FFF7F5F800214DF2065005
:10433000FFF7F0F84A214DF20750FFF7EBF80021A4
:104340004DF20850FFF7E6F85C214DF20950FFF7F7
:10435000E1F800214DF20A50FFF7DCF881214DF21F
:104360000B50FFF7D7F800214DF20C50FFF7D2F8B1
:10437000A6214DF20D50FFF7CDF800214DF20E5061
:10438000FFF7C8F8E5214DF20F50FFF7C3F8012100
:104390004DF21050FFF7BEF813214DF21150FFF708
:1043A000B9F801214DF21250FFF7B4F854214DF243
:1043B0001350FFF7AFF801214DF21450FFF7AAF8A0
:1043C00082214DF21550FFF7A5F801214DF216504C
:1043D000FFF7A0F8CA214DF21750FFF79BF8022112
:1043E0004DF21850FFF796F800214DF21950FFF7E3
:1043F00091F802214DF21A50FFF78CF801214DF28D
:104400001B50FFF787F802214DF21C50FFF782F88E
:1044100034214DF21D50FFF77DF802214DF21E5060
:10442000FFF778F867214DF21F50FFF773F802216C
:104430004DF22050FFF76EF884214DF22150FFF726
:1044400069F802214DF22250FFF764F8A4214DF2E1
:104450002350FFF75FF802214DF22450FFF75AF87E
:10446000B7214DF22550FFF755F802214DF22650A5
:10447000FFF750F8CF214DF22750FFF74BF80221FC
:104480004DF22850FFF746F8DE214DF22950FFF794
:1044900041F802214DF22A50FFF73CF8F2214DF28B
:1044A0002B50FFF737F802214DF22C50FFF732F86E
:1044B000FE214DF22D50FFF72DF803214DF22E5025
:1044C000FFF728F810214DF22F50FFF723F80321B2
:1044D0004DF23050FFF71EF833214DF23150FFF707
:1044E00019F803214DF23250FFF714F86D214DF207
:1044F0003350FFF70FF800214FF45640FFF70AF84A
:1045000033214DF20160FFF705F800214DF2026002
:10451000FFF700F834214DF20360FEF7FBFF0021A6
:104520004DF20460FEF7F6FF3A214DF20560FEF70A
:10453000F1FF00214DF20660FEF7ECFF4A214DF23B
:104540000760FEF7E7FF00214DF20860FEF7E2FF8B
:104550005C214DF20960FEF7DDFF00214DF20A609B
:10456000FEF7D8FF81214DF20B60FEF7D3FF00214B
:104570004DF20C60FEF7CEFFA6214DF20D60FEF766
:10458000C9FF00214DF20E60FEF7C4FFE5214DF298
:104590000F60FEF7BFFF01214DF21060FEF7BAFF7A
:1045A00013214DF21160FEF7B5FF01214DF21260AB
:1045B000FEF7B0FF54214DF21360FEF7ABFF01216F
:1045C0004DF21460FEF7A6FF82214DF21560FEF752
:1045D000A1FF01214DF21660FEF79CFFCA214DF2AA
:1045E0001760FEF797FF02214DF21860FEF792FF69
:1045F00000214DF21960FEF78DFF02214DF21A6085
:10460000FEF788FF01214DF21B60FEF783FF0221B8
:104610004DF21C60FEF77EFF34214DF21D60FEF767
:1046200079FF02214DF21E60FEF774FF67214DF203
:104630001F60FEF76FFF02214DF22060FEF76AFF58
:1046400084214DF22160FEF765FF02214DF22260C8
:10465000FEF760FFA4214DF22360FEF75BFF02210D
:104660004DF22460FEF756FFB7214DF22560FEF7AC
:1046700051FF02214DF22660FEF74CFFCF214DF293
:104680002760FEF747FF02214DF22860FEF742FF48
:10469000DE214DF22960FEF73DFF02214DF22A6036
:1046A000FEF738FFF2214DF22B60FEF733FF0221B7
:1046B0004DF22C60FEF72EFFFE214DF22D60FEF72D
:1046C00029FF03214DF22E60FEF724FF10214DF249
:1046D0002F60FEF71FFF03214DF23060FEF71AFF37
:1046E00033214DF23160FEF715FF03214DF23260A8
:1046F000FEF710FF6D214DF23360FEF70BFF5521E1
:104700004FF47040FEF706FFAA214FF20100FEF7BA
:1047100001FF52214FF20200FEF7FCFE08214FF28A
:104720000300FEF7F7FE00214FF20400FEF7F2FE51
:10473000CC214FF43140FEF7EDFE00214BF2011089
:10474000FEF7E8FE05214FF43640FEF7E3FE702148
:104750004FF43740FEF7DEFE70214BF20170FEF79A
:10476000D9FE01214FF43840FEF7D4FE03214BF669
:104770000100FEF7CFFE03214BF60200FEF7CAFE52
:1047800003214BF60300FEF7C5FE02214FF43C4027
:10479000FEF7C0FE00214BF60140FEF7BBFE0021F4
:1047A0004BF60240FEF7B6FED0214FF44940FEF72B
:1047B000B1FE02214CF60110FEF7ACFE50214CF682
:1047C0000210FEF7A7FE50214CF60310FEF7A2FEE2
:1047D00050214CF60410FEF79DFE00214FF454507A
:1047E000FEF798FE55214FF46850FEF793FE4FF404
:1047F0008850FEF76FFE7820FEF75EFE4FF42450DF
:10480000FEF768FEFFF74CB810B5124B00221A6095
:104810005A609A60DA601A614FF44872DA604FF4B5
:10482000F0721A614FF430529A804FF42852DA80B5
:104830004FF42C521A81FEF703FF044630B91420BE
:1048400001F002FDFEF7ECFF204610BD0248FDF727
:10485000D5F9F9E7300B0020D00003082DE9F0432B
:1048600083B00A9D03FB02F62DB1814688461446AB
:104870000AB1009313B903B0BDE8F0832E4FF88856
:10488000FEF728FECDF804904A46100AFEF73AFEDD
:10489000F888013080B2FEF71DFEDDF804905FFA63
:1048A00089F0FEF72FFEF888023080B2FEF712FE84
:1048B0004C44601EC0F30F20FEF724FEF88803303E
:1048C00080B2FEF707FEA4B2601EC0B2FEF71AFE69
:1048D0003889FEF7FFFD4446200AFEF713FE3889AB
:1048E000013080B2FEF7F6FD5FFA88F0FEF70AFEAF
:1048F0003889023080B2FEF7EDFD009B43441C4630
:10490000581EC0F30F20FEF7FDFD3889033080B23A
:10491000FEF7E0FDA0B20138C0B2FEF7F3FDFEF7EE
:1049200057FF0023B342A6D235F81310034AA2F86A
:1049300000110133F6E700BF300B002000FF0760D5
:1049400018280AD005D80C2809D0102809D102202F
:104950007047202807D104207047032070470120AA
:104960007047FF207047FF207047000010B5FDF72B
:1049700009F8002401E00134E4B2042C10D80D4BF6
:10498000234493F8D03D002BF5D04FF4147304FB6F
:1049900003F303F51073074818440EF0F1FCEAE73F
:1049A000FCF7FCFF40F6D85200210248FBF7BEFF9F
:1049B00010BD00BF980B002008B50A89531E9BB29A
:1049C000BF2B00D9C0220021FBF7B0FF08BD0000BB
:1049D000F0B583B016461289531E9BB2BF2B4BD83D
:1049E0000F46037841787F33DBB27D2B49D83F29CE
:1049F0004AD9FF294BD07E2916D84020091ABE205B
:104A000000FB03F353FA81F102FB01F5F088FFF795
:104A100097FF0446FF283DD0204B034493F8D03D38
:104A200023B901231C4629E04120E7E7FCF7AAFF50
:104A30004FF41473204603FB00F000F51070174B81
:104A4000C31818461C462A4600230EF0A9FC70B96C
:104A500001AB3289394620460EF0DEF90446FCF7F8
:104A60009DFF34B93289019B9A4207D001E0FCF7DF
:104A700095FF01231C4601E001231C46204603B09C
:104A8000F0BD01231C46F9E701231C46F6E701238C
:104A90001C46F3E701231C46F0E700BF980B0020FB
:104AA00000487047940B0020002853D070B58EB09A
:104AB0000646FFF75BFF0024274B1C70FCF762FFE4
:104AC00006E0264B2344012283F8D02D0134E4B2C2
:104AD000042C1ED802AD224B53F8243000933346E9
:104AE000204A3021284629F005FE4FF4147304FBB8
:104AF00003F303F5107301222946184818440DF0FA
:104B0000E9FF02460028DCD002A91748FDF776F835
:104B1000DCE7FCF743FF114B93F8D13D6BB90F4B2A
:104B200093F8D23D4BB90D4B93F8D33D2BB90B4BBA
:104B300093F8D43D0BB901200AE0084B012283F819
:104B4000D52D3346094A0421034829F0D3FD00201E
:104B50000EB070BD01207047940B0020980B002010
:104B6000AC060308F0000308F800030888EF020809
:104B70000023184601E00133DBB2042B09D8054AB3
:104B80001A4492F8D02D002AF5D001229A40104301
:104B9000F1E77047980B002070B138B50C46154608
:104BA00061B16AB1FFF714FF00B938BD294620464C
:104BB000FFF702FF0120F8E7012070470120F4E72A
:104BC0000120F2E730B587B001A9002301934B60C3
:104BD0008B60CB600B6100930F4B1A6B42F00202AB
:104BE0001A631B6B03F002030093009B03230193E2
:104BF000012402940394094D284601F0EBFE22465D
:104C00000221284601F0FDFF22462146284601F0F8
:104C1000F8FF07B030BD00BF00380240000402407A
:104C200008B540B90246022100F1804000F501308C
:104C300001F0E7FF08BD00220121024801F0E1FF79
:104C4000F8E700BF0004024008B540B90122022184
:104C500000F1804000F5013001F0D3FF08BD0122D2
:104C60001146024801F0CDFFF8E700BF0004024002
:104C700008B538B9022100F1804000F5013001F09B
:104C8000C6FF08BD0121024801F0C1FFF9E700BFDE
:104C9000000402400378407840EA032000B27047E5
:104CA00000B585B00246322302930123019300919F
:104CB000D021044802F0C2FE08B905B000BD4FF093
:104CC000FF30FAE7D80A002000B587B002468DF819
:104CD000171032230293012301930DF11701009164
:104CE000D021044802F0F8FD08B907B000BD4FF02C
:104CF000FF30FAE7D80A0020F8B504460E461546FC
:104D000019212520FFF7E0FFD8B921462620FFF71B
:104D1000DBFFD0B945F080012720FFF7D5FF07461C
:104D2000B8B91420FCF7B0FF0024AC4218D204F14B
:104D300049003119C0B2FFF7B3FF70B90134E4B2D2
:104D4000F3E74FF0FF331F460AE04FF0FF331F46F3
:104D500006E04FF0FF331F4602E04FF0FF331F46DF
:104D60003846F8BD38B504460D4618212520FFF712
:104D7000ABFFA0B921462620FFF7A6FF98B9294628
:104D80006320FFF7A1FF90B981212720FFF79CFF47
:104D9000044680B91420FCF777FF204638BD4FF059
:104DA000FF331C46F9E74FF0FF331C46F5E74FF0A1
:104DB000FF331C46F1E74FF0FF331C46EDE70000E0
:104DC00010B582B000238DF807300DF10701752072
:104DD000FFF766FF00285BD19DF80730712B5AD191
:104DE00001466B20FFF770FF0A20FCF74DFF0721FB
:104DF0001920FFF769FF03211A20FFF765FF18212B
:104E00001B20FFF761FF10211C20FFF75DFF202111
:104E10006A20FFF759FF0D212420FFF755FF0520D9
:104E2000FCF732FF032201A91020FFF765FF0446BB
:104E300058B31D4C0020207001222146FFF75CFF73
:104E40002378482B2AD116210A20FFF78BFF40BB7D
:104E500002B010BD04F108036B4413F8040CFBF717
:104E600061FA4FF08641FBF7A7F94FF07C51FBF751
:104E7000ADFA4FF07051FBF7A9FA4FF07E51FBF7F6
:104E80009DF90A4B43F824000134022CE2DDD0E7FF
:104E90004FF0FF30DCE74FF0FF30D9E76FF0020052
:104EA000D6E76FF00100D3E77019002098000020CA
:104EB000014B1878704700BF7019002070B586B09C
:104EC0000446322302930623019304AB009301238B
:104ED0003B22D021444802F0B1FD002878D104AD36
:104EE0002846FFF7D7FEFBF71DFA4FF06651FBF798
:104EF0006DFA20600DF11200FFF7CCFEFBF712FAFD
:104F00004FF06651FBF762FA606005A8FFF7C2FE3A
:104F1000FBF708FA4FF06651FBF758FAA06032230E
:104F2000029306230193009501234322D0212E48AA
:104F300002F084FD00284FD12846FFF7ABFEFBF7B7
:104F4000F1F92A49FBF7F6FAE0600DF11200FFF7DC
:104F5000A1FEFBF7E7F92549FBF7ECFA206105A86C
:104F6000FFF798FEFBF7DEF92049FBF7E3FA6061F3
:104F7000062229460320FFF7BFFE064680BB2846CF
:104F8000FFF788FEFBF7CEF91949FBF71FFA194D19
:104F90002968FBF71BFAA0610DF11200FFF77AFEFA
:104FA000FBF7C0F91249FBF711FA6968FBF70EFA33
:104FB000E06105A8FFF76EFEFBF7B4F90C49FBF7BB
:104FC00005FAA968FBF702FA2062304606B070BD08
:104FD0004FF0FF331E46F8E76FF001031E46F4E77B
:104FE0006FF002031E46F0E7D80A002033338341F6
:104FF0009A99193E9800002000B585B08DF80F00F1
:105000006423009301230DF10F024021024802F0B6
:10501000A3FB05B000BD00BFD80A002010B588B0C2
:1050200003AC0022039204920592069207921F4B52
:10503000596A41F400615962596A21F40061596268
:105040000092596C41F400615964596C01F400619B
:10505000009100990192196B41F004011963196BD9
:1050600001F004010191019902921A6B42F00802C9
:105070001A631B6B03F008030293029B4FF4F8536F
:1050800003930223049301230593032306930C2324
:1050900007932146064801F09DFC04230393214613
:1050A000044801F097FC08B010BD00BF0038024072
:1050B00000080240000C024008B5FFF7AFFF12489D
:1050C000124B0360002343608360C360036143614C
:1050D0000223836103F0FCFE20B10D4B00221A6015
:1050E000012008BD4FF40061074803F01FFF18B905
:1050F000074B01221A60F4E7034803F0FCFA044B63
:1051000000221A600120ECE778190020002C0140F1
:105110007419002008B5034803F0EDFA024B002291
:105120001A6008BD7819002074190020014B186816
:10513000704700BF7419002070B582B0124B1B6815
:1051400023B901231E46304602B070BD4FF47A7376
:10515000009313460A4601460C4803F0DFFA064660
:105160000028F0D10446094803F042FF0428EAD0A1
:10517000651CB4F57A7F04D2012001F065F82C4655
:10518000F1E703231E46DEE774190020781900209A
:1051900070B582B0124B1B6823B901231E463046FE
:1051A00002B070BD4FF47A73009313460A4601466D
:1051B0000C4803F0D7FB06460028F0D10446094806
:1051C00003F016FF0428EAD0651CB4F57A7F04D2F8
:1051D000012001F039F82C46F1E703231E46DEE7F3
:1051E00074190020781900200C4B1B680BB90120A2
:1051F000704730B589B004460D466946084803F04B
:1052000082FE40B90CB1049B236015B1BDF8143087
:105210002B8009B030BD0120FBE700BF74190020CE
:105220007819002010B485B0204B0FCB04AC04E9F2
:105230000F004FF0000CBCF1020F30DC1C4B53F898
:105240002C2022F0030202F14042002303E000215F
:1052500042F8231001333F2BF9DD002003281BDC2B
:10526000002307E004A901EB800151F8101C42F86B
:10527000231001333F2BF5DD00233F2B0ADC52F8CE
:10528000234004A901EB800151F8101C8C4208D185
:105290000133F2E70130E1E70CF1010CCBE700202C
:1052A00001E04FF0FF3005B010BC7047F0EE02088F
:1052B000C0060308F0B593B00BAE00240B940C9419
:1052C0000D940E940F941094119406AD06940794C7
:1052D000089409940A940094464B9A6B42F0010298
:1052E0009A639A6B02F001020092009A01941A6B81
:1052F00042F020021A631A6B02F020020192019A16
:1053000002941A6B42F004021A631A6B02F0040250
:105310000292029A03941A6B42F040021A631A6BCB
:1053200002F040020392039A04941A6B42F01002B6
:105330001A631A6B02F010020492049A05941A6B15
:1053400042F008021A631B6B03F008030593059BE8
:1053500002270797032309930C230A934FF63F0371
:1053600006932946244801F035FB0D230693294670
:10537000224801F02FFB48F23713069329462048B4
:1053800001F028FB4FF68373069329461D4801F070
:1053900021FB4CF20373069329461B4801F01AFBCC
:1053A0001A481B4B03604460012383600823C360D9
:1053B00010220261402242614FF4C0728261C461D6
:1053C0004FF4006202624FF4805242624FF4005286
:1053D00082620B970C9306230D930E930F971097F1
:1053E0001197314602F055FE08B913B0F0BD4FF0E9
:1053F000FF30FAE700380240001402400008024083
:105400000018024000100240000C0240FC1900206D
:10541000400100A000B585B094461A4600230093D1
:10542000019302930393009168B910230193CDF87F
:1054300008C003924FF480526946054802F049FEC5
:1054400018B905B000BD0823F0E74FF0FF30F8E7CA
:10545000FC19002010B50023012211461846FFF761
:10546000D9FF04464FF47A70FDF758FC002301225F
:1054700002211846FFF7CEFF044300230122032137
:105480001846FFF7C7FF04434FF40C7301220421B1
:105490000020FFF7BFFF204310BD000008B5FFF755
:1054A00009FF58B9FFF7D6FF58B940F2AB210848B9
:1054B00002F030FEFFF7B6FE30B908BD4FF0FF3006
:1054C000FBE74FF0FF30F8E74FF0FF30F5E700BFA4
:1054D000FC19002008B501220821034801F091FBC6
:1054E0000120FDF71BFC08BD0020024008B5012289
:1054F0004021034801F085FB0320FDF70FFC08BDA8
:10550000001C024008B500220821034801F079FB85
:105510000120FDF703FC08BD0020024008B5002271
:105520004021034801F06DFB0320FDF7F7FB08BDA8
:10553000001C024008B50821034801F05BFB01286C
:1055400014BF0020012008BD002002402DE9F043D7
:1055500089B0002201921E4B196B41F08001196342
:10556000196B01F08001019101990292196B41F4CC
:10557000807119631B6B03F480730293029B1123E8
:105580000493012405940223069307924FF04008E8
:10559000CDF80C800DF10C090E4F4946384601F04C
:1055A00019FA082603960C4D4946284601F012FACE
:1055B00022464146384601F024FB22463146284621
:1055C00001F01FFB1420FDF7A9FB09B0BDE8F08333
:1055D00000380240001C02400020024008B5FFF7DE
:1055E00079FFFFF783FFFFF78DFFFFF797FF08BDF8
:1055F00008B5FFF793FFFFF785FFFFF777FFFFF78A
:1056000069FF08BD38B50446002507E0FFF762FFD3
:10561000FFF76CFF6400E4B20135EDB2072D07D847
:10562000FFF77CFF14F0800FF0D1FFF76BFFEFE77F
:10563000FFF774FFFFF74EFFFFF758FFFFF77AFF02
:105640000446FFF76BFF0CB9204638BD4FF0FF341E
:10565000FAE770B50646FFF761FFFFF73BFF00244E
:10566000254601E00135EDB2072D0FD8FFF756FFB3
:105670000320FDF753FBFFF739FF6400E4B2FFF7A7
:1056800059FF0028EED044F00104EBE7FFF746FF96
:105690004EB1FFF737FFFFF729FFFFF73FFFFFF797
:1056A00019FF204670BDFFF715FFF4E7024A1368A3
:1056B00023F0800313607047003C014010B51C4686
:1056C00003468C46DFF864E0BEF800E0BEF1010F4F
:1056D00008D9174B1B88013B03FB00F00EF1FF3E7E
:1056E000B0FBFEF31348008801280AD9DFF848C050
:1056F000BCF800C00CF1FF3C01FB0CFC0138BCFB0A
:10570000F0FC0B490988994201D859B14B1E0A494E
:105710000988614502D839B101F1FF3C1380A4F832
:1057200000C010BD0B46F2E78C46F7E7321A0020A6
:10573000A6000020301A0020A400002030B587B059
:10574000194D1A4C2946204601F0F1FA0295012321
:105750000393022304930723059302A9204601F033
:105760005FFAD8B9124A0146204601F0D9FAC0B909
:1057700002460621172000F0D3FD172000F0E0FDBF
:105780000C4BD96803F580631A68DB68062000902B
:105790000948FCF733FA002007B030BD4FF0FF3066
:1057A000FAE74FF0FF30F7E707000006481A00203D
:1057B000BD570008003801409001030800B583B0D0
:1057C000002301930E4A1368013313600D4A1368D6
:1057D00023F0800313600C4B186870B101A905F029
:1057E000CFF8019B4BB14FF0E0234FF08052C3F84C
:1057F000042DBFF34F8FBFF36F8F03B000BD00BF09
:10580000381A0020003C0140441A002010B5FDF772
:10581000AFFF0446FDF7CAFC0F4B1880FDF7CCFC28
:105820000E4B1880FDF7A8FF80B184B1A2890C4B04
:105830001A80238A0B4A1380094A128812B9084A2F
:105840000121118013B9074B01221A8010BD0123D9
:10585000034A1380EEE700BF321A0020301A0020FE
:10586000A6000020A400002008B505F043FD054B6C
:1058700080225A611A6842F080021A6005F05CFDCD
:1058800008BD00BF003C014070B588B00024FDF7A2
:1058900073FF68B9322004F005FB323442F20F7313
:1058A0009C42F4D92E48FCF7A9F94FF0FF3439E0B7
:1058B00001232C4A13802C4A13802C4B1B68002B8D
:1058C00033D02A4B1868002837D0002105F062F940
:1058D000FDF7E2FA0146002835D1FFF72FFF044615
:1058E000002836D1FFF792FFFDF750FC0646FDF782
:1058F00051FC0546FDF754FC034600220692059232
:105900000492194A12880392164A12880292184A7F
:1059100012880192174A128800922A463146164888
:10592000FCF76CF9204608B070BD0322194601202F
:1059300004F0BAFE0D4B1860C3E71048FCF75EF99F
:105940004FF0FF34EEE70E48FCF758F94FF0FF3404
:10595000E8E70C48FCF752F94FF0FF34E2E700BFEC
:10596000D8010308A6000020A4000020441A00204B
:10597000301A0020321A00206C02030804020308C7
:10598000280203085002030808B50146044B1868B2
:1059900028B105F0FFF8012814BF0020012008BD40
:1059A000441A002010B58AB00023ADF81230ADF8CB
:1059B0001030FDF7E3FB002841D0FFF727FFFFF78A
:1059C00075FE052105A8FDF7FDFB041E3ADB15DC7D
:1059D00005F090FCBDF812201C4B1A80BDF8102079
:1059E0001B4B1A80002C17DD01221A4B1A7005F090
:1059F000A3FC002C12DC20460AB010BD04AB0DF154
:105A00001202BDF81610BDF81400FFF757FE124A37
:105A1000136801331360DBE70022E6E70F4B1B68D6
:105A200002930194BDF810300093BDF81230BDF818
:105A30001620BDF814100A48FCF7E0F8DBE74FF039
:105A4000FF34D8E74FF0FF34D5E700BF401A0020FD
:105A50003E1A00203C1A0020341A0020381A002078
:105A6000D0020308034610B105480088188011B120
:105A7000044B1B880B8012B1034B1B7813707047CB
:105A8000401A00203E1A00203C1A0020014B1868E2
:105A9000704700BF381A0020014B1868704700BFDC
:105AA000341A002008B505F025FC074B1B6823B10C
:105AB00005F042FC044B186808BD012004F0E4FE28
:105AC000014B1860F4E700BF501A002010B588B0F1
:105AD00003A9002403944C608C60CC600C61019499
