:020000040800F2
:1000000000000320D55F0008F5220008F722000851
:10001000F9220008FB220008FD2200080000000071
:10002000000000000000000000000000F1AF000828
:10003000FF2200080000000041B0000895B1000850
:10004000256000082560000825600008256000087C
:10005000256000082560000825600008256000086C
:10006000256000082560000825600008256000085C
:10007000256000082560000825600008256000084C
:10008000256000082560000825600008256000083C
:100090002560000825600008256000081D23000871
:1000A000256000082560000825600008256000081C
:1000B000256000082560000825600008256000080C
:1000C00025600008256000082560000825600008FC
:1000D000256000082560000825600008FD5A00081A
:1000E00025600008256000082560000825600008DC
:1000F00025600008256000082560000825600008CC
:1001000025600008256000082560000825600008BB
:10011000256000082560000825600008012300080C
:10012000256000082560000825600008256000089B
:10013000256000082560000825600008256000088B
:1001400025600008256000082560000811230008CC
:10015000256000082560000825600008256000086B
:10016000256000082560000825600008256000085B
:10017000256000082560000825600008256000084B
:10018000256000082560000825600008256000083B
:10019000256000082560000825600008256000082B
:0C01A000256000082560000825600008AC
:1001B00080F0004002E000BF81F0004142001FBF1C
:1001C0005FEA410392EA030F7FEA226C7FEA236C25
:1001D0006AD04FEA1262D2EB1363C1BFD21841401A
:1001E00048404140B8BF5B42192B88BF704710F0B0
:1001F000004F40F4000020F07F4018BF404211F053
:10020000004F41F4000121F07F4118BF494292EABA
:10021000030F3FD0A2F1010241FA03FC10EB0C00E6
:10022000C3F1200301FA03F100F0004302D5494273
:1002300060EB4000B0F5000F13D3B0F1807F06D320
:1002400040084FEA310102F10102FE2A51D2B1F118
:10025000004F40EBC25008BF20F0010040EA03000D
:100260007047490040EB0000013A28BFB0F5000F8D
:10027000EDD2B0FA80FCACF1080CB2EB0C0200FA43
:100280000CF0AABF00EBC25052421843BCBFD04092
:100290001843704792F0000F81F4000106BF80F40C
:1002A00000000132013BB5E74FEA41037FEA226CCF
:1002B00018BF7FEA236C21D092EA030F04D092F09A
:1002C000000F08BF0846704790EA010F1CBF0020CE
:1002D000704712F07F4F04D1400028BF40F000402B
:1002E000704712F100723CBF00F50000704700F04B
:1002F000004343F0FE4040F4000070477FEA226272
:1003000016BF08467FEA23630146420206BF5FEA42
:10031000412390EA010F40F4800070474FF0000342
:1003200004E000BF10F0004348BF40425FEA000C09
:1003300008BF704743F0964301464FF000001CE0B1
:1003400050EA010208BF70474FF000030AE000BF07
:1003500050EA010208BF704711F0004302D5404245
:1003600061EB41015FEA010C02BF844601460020B7
:1003700043F0B64308BFA3F18053A3F50003BCFAD2
:100380008CF2083AA3EBC25310DB01FA02FC63447F
:1003900000FA02FCC2F12002BCF1004F20FA02F286
:1003A00043EB020008BF20F00100704702F1200279
:1003B00001FA02FCC2F1200250EA4C0021FA02F2DA
:1003C00043EB020008BF20EADC7070474FF0FF0CDF
:1003D0001CEAD0521EBF1CEAD15392EA0C0F93EADA
:1003E0000C0F6FD01A4480EA010C400218BF5FEA7C
:1003F00041211ED04FF0006343EA501043EA5111EF
:10040000A0FB01310CF00040B1F5000F3EBF4900E8
:1004100041EAD3715B0040EA010062F17F02FD2AEC
:100420001DD8B3F1004F40EBC25008BF20F00100CF
:10043000704790F0000F0CF0004C08BF49024CEAE6
:10044000502040EA51207F3AC2BFD2F1FF0340EA78
:10045000C250704740F400004FF00003013A5DDCE9
:1004600012F1190FDCBF00F000407047C2F100022A
:10047000410021FA02F1C2F1200200FA02FC5FEA17
:10048000310040F1000053EA4C0308BF20EADC7061
:10049000704792F0000F00F0004C02BF400010F4D3
:1004A000000F013AF9D040EA0C0093F0000F01F080
:1004B000004C02BF490011F4000F013BF9D041EAA2
:1004C0000C018FE70CEAD15392EA0C0F18BF93EAA4
:1004D0000C0F0AD030F0004C18BF31F0004CD8D1CE
:1004E00080EA010000F00040704790F0000F17BF55
:1004F00090F0004F084691F0000F91F0004F14D09B
:1005000092EA0C0F01D142020FD193EA0C0F03D1F2
:100510004B0218BF084608D180EA010000F00040F5
:1005200040F0FE4040F40000704740F0FE4040F4D0
:10053000400070474FF0FF0C1CEAD0521EBF1CEA6F
:10054000D15392EA0C0F93EA0C0F69D0A2EB03028D
:1005500080EA010C49024FEA402037D04FF0805327
:1005600043EA111143EA10130CF000408B4238BFEC
:100570005B0042F17D024FF4000C8B4224BF5B1AFA
:1005800040EA0C00B3EB510F24BFA3EB510340EA48
:100590005C00B3EB910F24BFA3EB910340EA9C00F6
:1005A000B3EBD10F24BFA3EBD10340EADC001B0166
:1005B00018BF5FEA1C1CE0D1FD2A3FF650AF8B420A
:1005C00040EBC25008BF20F0010070470CF0004C17
:1005D0004CEA50207F32C2BFD2F1FF0340EAC25042
:1005E000704740F400004FF00003013A37E792F003
:1005F000000F00F0004C02BF400010F4000F013A61
:10060000F9D040EA0C0093F0000F01F0004C02BF5B
:10061000490011F4000F013BF9D041EA0C0195E7C4
:100620000CEAD15392EA0C0F08D142027FF47DAF5D
:1006300093EA0C0F7FF470AF084676E793EA0C0F4D
:1006400004D14B023FF44CAF08466EE730F0004C4B
:1006500018BF31F0004CCAD130F000427FF45CAFDB
:1006600031F000437FF43CAF5FE700BF4FF0FF3C49
:1006700006E000BF4FF0010C02E000BF4FF0010C9C
:100680004DF804CD4FEA40024FEA41037FEA226C65
:1006900018BF7FEA236C11D001B052EA530C18BF87
:1006A00090EA010F58BFB2EB030088BFC81738BFEC
:1006B0006FEAE17018BF40F0010070477FEA226CDA
:1006C00002D15FEA402C05D17FEA236CE4D15FEAD6
:1006D000412CE1D05DF8040B704700BF844608460A
:1006E0006146FFE70FB5FFF7C9FF002848BF10F1CB
:1006F000000F0FBD4DF808EDFFF7F4FF0CBF012010
:1007000000205DF808FB00BF4DF808EDFFF7EAFF99
:1007100034BF012000205DF808FB00BF4DF808ED54
:10072000FFF7E0FF94BF012000205DF808FB00BF49
:100730004DF808EDFFF7D2FF94BF012000205DF8CF
:1007400008FB00BF4DF808EDFFF7C8FF34BF0120DC
:1007500000205DF808FB00BF4FEA4002B2F1FE4FF7
:100760000FD34FF09E03B3EB12620DD94FEA002373
:1007700043F0004310F0004F23FA02F018BF40424C
:1007800070474FF00000704712F1610F01D1420233
:1007900005D110F0004008BF6FF0004070474FF0E7
:1007A0000000704753B94AB9002908BF00281CBF90
:1007B0004FF0FF314FF0FF3000F00CB8ADF1080CF6
:1007C0006DE904CE2DF026FDDDF804E0DDE902231D
:1007D00004B07047704700BF10F8012B11F8013BBF
:1007E000012A28BF9A42F7D0D01A7047034613F85F
:1007F000012B002AFBD1181A0138704700000000B5
:1008000001F0FF01102A2BDB10F0070F08D010F8C1
:10081000013B013A8B422DD010F0070F42B3F6D1C5
:10082000F0B441EA012141EA014122F007047FF0DE
:1008300000070023F0E80256083C85EA010586EA35
:10084000010685FA47F5A3FA87F586FA47F6A5FA71
:1008500087F68EB9EED1F0BC01F0FF0102F007027D
:1008600032B110F8013B013A83EA010313B1F8D128
:100870000020704701387047002D06BF3546033809
:10088000073815F0010F07D1013015F4807F02BF42
:10089000013015F4C03F0130F0BC0138704700BF93
:1008A0000348044B834202D0034B03B118477047FF
:1008B000C0010020C0010020000000000548064BD8
:1008C0001B1AD90F01EBA301491002D0034B03B14E
:1008D00018477047C0010020C00100200000000040
:1008E00010B5064C237843B9FFF7DAFF044B13B178
:1008F0000448AFF300800123237010BDC001002025
:1009000000000000ECEC020808B5054B1BB10549DE
:100910000548AFF30080BDE80840FFF7CFBF00BF38
:1009200000000000C4010020ECEC02080244034671
:10093000934200D1704703F8011BF9E770B50D4BE6
:100940000D4C00261D1BB6EBA50F09D12EF0CEF9DC
:100950000A4C0B4B00261D1BB6EBA50F05D170BD35
:1009600054F8043B98470136EDE754F8043B9847A8
:100970000136F1E7DCF20308DCF20308DCF20308DD
:10098000E0F203087047704737B5002944D051F8AA
:10099000043C0190002BA1F10404B8BFE41800F05E
:1009A000DDF81E4A0198136833B96360146003B020
:1009B000BDE8304000F0D8B8A34208D925686119D5
:1009C0008B4201BF19685B6849192160EDE71A463F
:1009D0005B680BB1A342FAD911685518A5420BD137
:1009E000246821445418A3421160E0D11C685B685C
:1009F00053600C441460DAE702D90C230360D6E795
:100A0000256861198B4204BF19685B68636004BF85
:100A1000491921605460CAE703B030BD20030020AB
:100A200070B50F4C0E462168054611B900F0A2F8CA
:100A300020603146284600F09DF8431C03D14FF05A
:100A4000FF34204670BDC41C24F00304A042F8D03B
:100A5000211A284600F08EF80130F2D1EFE700BFEE
:100A60001C0300202DE9F843CD1C25F003050835B3
:100A70000C2D38BF0C25002D064601DBA94204D9F8
:100A80000C2333600020BDE8F883334F00F066F894
:100A90003B681C463CBB29463046FFF7C1FF431C60
:100AA000044656D13C68A046B8F1000F40D1002C56
:100AB00049D023684146304604EB030900F05AF858
:100AC000814540D121686D1A29463046FFF7A8FFBD
:100AD000013038D023682B4423603B685A685ABBE6
:100AE000C7F800800EE02268521B1ED40B2A16D9CC
:100AF0006119A342256018BF5960636808BF396057
:100B000062514B60304600F02FF804F10B00231DBA
:100B100020F00700C21A1CBF1B1AA350B3E762687B
:100B2000A3420CBF3A605A60ECE723466468B1E721
:100B30004446D8F80480B7E71A465B68A342FBD165
:100B400000235360DEE70C233360304600F00CF8DE
:100B500098E70560D6E700BF200300200148FFF7B3
:100B600011BF00BF180300200148FFF70CBF00BFF2
:100B70001803002038B5064C0023054608462360BC
:100B800001F0D4FB431C02D1236803B12B6038BDB4
:100B900014030020030A420923F4FF6323F0070330
:100BA00002F4FC6213439BB2C0F3C40018437047C5
:100BB00003280DD006D801280CD002280CD068B923
:100BC0000948704704280BD005280BD10748704707
:100BD00007487047074870470748704707487047FD
:100BE000074870470548704760ED02089CED020811
:100BF00084ED02086CED020878ED0208A4ED02080D
:100C000090ED020810B5064B5C6844B1054B1878AE
:100C1000FFF7CEFF0246044920462CF092FF10BD9C
:100C200048030020C40A0020ACED02082DE9F04181
:100C300082B007468846154600211046FFF764FD3E
:100C400048BB2C462046FFF787FD0646FFF76AFBA8
:100C500001462046FFF7B0FA1149FFF7B7FB4FF006
:100C60007C51FFF7ABFAFFF777FD0446632802DDFE
:100C7000A0F16404013600212846FFF745FD68B95C
:100C8000084B01940096084A414638462DF04AFC2C
:100C900002B0BDE8F08105F10044D3E7034BF0E773
:100CA0000000C842D4FD0208BCED02081CEE020898
:100CB0002DE9F04391B08146884617460CAC1A46A0
:100CC00010212046FFF7B2FF08AD189A10212846E0
:100CD000FFF7ACFF04AE199A10213046FFF7A6FFCC
:100CE0001A9B03930296019500943B46034A4146A2
:100CF00048462DF017FC11B0BDE8F083C8ED02089E
:100D000070B5A6B018A801F02BFA434B586AA8B1E9
:100D10009DF86030002B4FD0BDF862203F492CF089
:100D200010FF3D4CBDF864203D49A06A2CF009FF3E
:100D3000BDF866203B49E06A2CF003FF364B186B88
:100D4000002858D09DF86830002B48D004AC364BB2
:100D500002931D9B01931C9B00931B9B334A5021C4
:100D60002046FFF7A5FF21462B4D286B2CF0ACFE4B
:100D70002F4B0293209B01931F9B00931E9B2D4A98
:100D800050212046FFF794FF2146686B2CF09CFE13
:100D90009DF86930EBB1284B0293239B0193229B72
:100DA0000093219B254A50212046FFF781FF2146D1
:100DB000A86B2CF089FE1EE021492CF085FE164C14
:100DC0002049A06A2CF080FE1F49E06A2CF07CFECE
:100DD000B4E71E49104B986B2CF076FE0BE01C49D3
:100DE0002CF072FE0C4C1B49606B2CF06DFE1A4906
:100DF000A06B2CF069FE084BDC6B5CB1249D259B3D
:100E00001E4604F065FD009033462A4613492046ED
:100E10002CF097FE26B070BD48030020E0ED0208DC
:100E2000F0ED020804EE020848EE02083CEE02086B
:100E300058EE02084CEE020864EE02085CEE02086E
:100E400010EE020820EE020830EE020868EE0208FA
:100E500084EE020894EE0208A4EE0208B0EE020846
:100E600010B5002027F06AF91C4C2080002027F0E4
:100E70007CF91B4B1880B4F90030002B15DD0028DD
:100E800016DD174BB3F800C0ACF16A031BB21D2B83
:100E900000DC1E23143B134981FB0321A1EBE3710A
:100EA00009B2114B198000220FE001222280E6E7EF
:100EB0000B4B01221A80E4E701F10A0312FB03F352
:100EC0002A330A4820F812300132022AF4DDACF14C
:100ED000380C074BA3F800C010BD00BF3003002042
:100EE0002E030020565555552603002028030020C8
:100EF0002403002008B527F01BF912F0A9FC08BD57
:100F000070B504460D46164619F0A4FF3246294630
:100F1000204619F0A6FF32462946204619F08CFFDC
:100F200032462946204619F08EFF70BD38B504467A
:100F3000102115F007FC00252A464FF0000120463D
:100F400019F096FF2A46FF21204619F098FF2A46FD
:100F500029462046FFF7D4FF38BDF8B50F461646A0
:100F60001D462CF00BFA04460022294619F0B8FF62
:100F70000698FFF70FFE01460022204619F0A9FF50
:100F800000221146204619F07AFF00221146204621
:100F9000FFF7B6FF079920462CF096FD32463946FA
:100FA000204616F0E9FB2046F8BD000030B583B0BE
:100FB0000D4606990191009313462A460021FFF73A
:100FC000CCFF0446084BB3F9001016F0DFFB0022FB
:100FD0000221204619F08BFF2A460021204616F0F8
:100FE000CBFB204603B030BD3003002010B582B0EB
:100FF000FFF780FF15F09AFB0446124A002119F012
:1010000098FD2222104BB3F90010204616F0ECFB9D
:1010100000221146204616F0AFFB002241F2A30148
:10102000204619F025FF0022FF21204619F027FF56
:10103000064B0093064B074A05212046FFF7B6FFF3
:1010400002B010BDFFFF0F0030030020E4EE0208E5
:10105000DCD6D200C8370308F0B583B00F46164679
:101060001D4615F063FB04461D4A002119F061FD81
:101070001C4B19881839324609B2204616F0B4FBC9
:101080003A460C21204616F077FB002241F2A301DC
:10109000204619F0EDFE0022FF21204619F0EFFE58
:1010A000002248F25241204619F0F0FE00220121B0
:1010B000204619F0F2FE002211462046FFF720FFDD
:1010C0001021204615F03EFB0195074B0093074B7E
:1010D000062208212046FFF740FF204603B0F0BD5E
:1010E000FFFF0F0030030020DCD6D200E4370308F6
:1010F0002DE9F04782B0FFF7FDFE8246DFF8DC8085
:10110000374F384BB8F90020B7F90010FFF7A4FFAC
:101110008146354C354B0193354E009623462022AF
:101120000821FFF71AFF334D6862334B0193009695
:101130002346382208214846FFF70FFFA8622F4BAD
:10114000019300962346502208214846FFF705FFE9
:10115000E8622B4BB8F90020B7F902105046FFF7B0
:101160007BFF8146274B01930096234620220821CE
:10117000FFF7F3FE2863244B0193009623463822A1
:1011800008214846FFF7E9FE6863204B019300966B
:101190002346502208214846FFF7DFFEA8631C4B78
:1011A000B8F90020B7F904105046FFF755FF06467E
:1011B000184B0193184F0097234620220821FFF770
:1011C000CCFEE863154B0193009723463822082193
:1011D0003046FFF7C2FE02B0BDE8F08726030020CC
:1011E00028030020FCEE0208E437030810EE020892
:1011F000DCD6D2004803002020EE020830EE0208C0
:1012000018EF020884EE020894EE0208A4EE020829
:1012100034EF020844EF02089088800050EF020883
:101220002DE9F04F8DB0FFF765FE03905B4B5C4AF4
:10123000B2F900205B49B1F90010FFF70DFF074636
:1012400002F0E8F9002800F0A680038804AD564AB1
:10125000202128462DF066F9544C0195544D0095F7
:101260002346202208213846FFF777FE514B019391
:1012700000952346382208213846FFF76EFE4E4E71
:1012800030604E4B0193009523465022082138468A
:10129000FFF763FE4A4B0193DFF828A1CDF800A0C9
:1012A0002346682208213846FFF757FEDFF8F09002
:1012B000DFF8F0B0444BB9F90020BBF902100398F5
:1012C000FFF7CAFE0746414B0193009523462022B3
:1012D0000821FFF742FE70603D4B019300952346C5
:1012E000382208213846FFF738FEB060DFF8E48086
:1012F000CDF8048000952346502208213846FFF798
:101300002CFE0290F06005F039F9334BA3FB00325C
:10131000920C324902982CF014FC314B0193009549
:101320002346682208213846FFF717FE30612D4B0F
:101330000193CDF800A02346802208213846FFF70C
:101340000CFE7061284BB9F90020BBF9041003981A
:10135000FFF782FE0746254B019300952346202286
:101360000821FFF7FAFDB061CDF80480009523460F
:10137000382208213846FFF7F0FDF061CDF80480EF
:1013800000952346502208213846FFF7E6FD3062DB
:101390000DB0BDE8F08F034658E700BF74EF0208B8
:1013A000260300202803002084EF0208E437030806
:1013B000DCD6D200A0EF020848030020ACEF020800
:1013C000C8EF020890888000E0EF0208F0EF020802
:1013D00000F00208D4FD020883DE1B430CF0020873
:1013E0001CF0020830F002084CF002085CF0020821
:1013F0002DE9F0410D4690461F462BF011FF0446A3
:10140000304E3246002119F094FB2C224821204610
:1014100016F0EAF942462946204616F0ADF90022B8
:1014200041F60511204619F023FD0022FF21204638
:1014300019F025FD002248F25241204619F026FD00
:1014400000220121204619F028FD00220421204617
:1014500019F054FD002211462046FFF751FD1021DE
:10146000204615F06FF920462CF0BEFE05463246A8
:10147000002119F05EFB14221146284616F0B4F93B
:101480000C221A21284616F077F90022032128465B
:1014900019F00AFD00224DF2BB61284619F012FD39
:1014A00000220121284619F006FD0322394628466C
:1014B0002CF0A6FE0221284615F044F92046BDE88E
:1014C000F08100BFFFFF0F0070B582B0FFF712FD83
:1014D0003A4B1D88A5F118031EB215F027F90446F2
:1014E000374A002119F025FB30223146204616F0FC
:1014F0007BF9344BB3F900200C21204616F03CF95F
:10150000002241F2A301204619F0B2FC0022FF2183
:10151000204619F0B4FC002248F25241204619F04E
:10152000B5FC00220121204619F0B7FC002211462B
:101530002046FFF7E5FC1021204615F003F9224B69
:10154000022206212046FFF753FF204E4FF0FF33C3
:101550000722314612F0F4FAA5F166011C4B022273
:1015600009B22046FFF744FF01230722314612F05B
:10157000E7FA184B0193184B0093184B0E220021E9
:101580002046FFF7EAFC164C2064A5F1C00109B221
:1015900016F0FCF80E225421206C16F0EDF8002213
:1015A0000221206C19F0A3FC0E4B1A6802230132B1
:1015B0000D49206C2CF0C5FA02B070BD300300203C
:1015C000FFFF0F0024030020EC0203083919000874
:1015D000E0020308D4FD020890888000E437030885
:1015E00048030020340300206CF0020810B5FFF718
:1015F00081FC0446FFF734FC2046FFF797FCFFF719
:10160000F5FC074B1B68012B07D0FFF709FEFFF71E
:101610005BFF044B01221A7010BDFFF769FDF6E76E
:10162000340300203903002008B5FFF763FC19F0EC
:1016300055FD442200210448FFF778F9034B0022AE
:101640001A70FFF7D3FF08BD4803002039030020BC
:101650000C4B1B68A3B110B500F0C2FC50B1094B94
:101660001B681C4600F0C2FC0246074920462CF0CD
:1016700068FA10BD0549034B18682CF025FAF8E705
:10168000704700BF4803002074F0020890F0020881
:1016900010B503F0BFF9044603F054F903460D4AB0
:1016A0009068A0B154B11B78312B0DD0302B0FD0E6
:1016B00004F01E031E2B05D0074906E007492CF055
:1016C00003FA04E0064900E006492CF0FDF910BDDC
:1016D0000549FAE7480300201CF1020834F102082A
:1016E000F8F00208A8F00208D0F0020800B585B0B2
:1016F000002303930293164B1869C8B1154B1A685F
:10170000154BA3FB023C1549A1FB02E35B09A1FBBE
:1017100003E14909C1EB0111C3EB031EA2EB8E02E9
:101720000092A3EB81034FEADC220D492CF009FA69
:10173000074B5B6953B102A903A804F07DFB029B30
:10174000039A0849024840692CF0FBF905B000BD36
:101750004803002040030020C5B3A29189888888EF
:1017600048F1020860F1020808B504F083FC0F4B51
:101770001B68C31AB3F57A7F05D30C4B18600C4A6B
:101780001368013313600B4B1B6863B9FFF73AFA18
:10179000FFF7ACFF084B1B783BB1FFF779FF064B17
:1017A00000221A7001E0FFF7ABFA08BD3C030020ED
:1017B00040030020340300203803002008B50A4B02
:1017C000186820B129F078F9074B00221A60FFF75A
:1017D00091FB19F083FC442200210448FFF7A6F88E
:1017E000034B00221A7008BD440300204803002068
:1017F0003903002008B5194B1B78BBB10023184AE8
:101800001360184A136004F035FC174B1860174B2F
:1018100001221A70FFF71CFFFFF73AFFFFF7F2F9FA
:10182000FFF764FF124B1B6873B108BDFFF718FB8D
:10183000FFF760FB19F052FC442200210D48FFF72E
:1018400075F8FFF7D3FED9E71A464FF4FA710A4844
:1018500029F012F9064B1860E7E700BF39030020B2
:1018600034030020400300203C0300203803002004
:1018700044030020480300206917000830B583B0F6
:101880000446FFF737FB0546FFF798FFFFF7E8FA36
:101890002846FFF74BFB6CB10094074B074A002129
:1018A0002846FFF783FB00231A46092115F0FAFFAB
:1018B00003B030BD024CEFE7DCD6D200C8370308D6
:1018C000D4FD0208034B1B7813B1034B01221A709D
:1018D000704700BF3903002038030020144B1B68F9
:1018E000181800F0010048BF4042002819DB83426D
:1018F0001CD010B50E4B1C461860FFF795FE2368F0
:101900008BB9FFF77FF9FFF7A3FEFFF7C1FEFFF7E3
:10191000EDFE074B196802220131064800F06EF90E
:1019200010BD0230E3E7FFF7EBF9F2E7704700BFC5
:101930003403002080F1020808B512F0EBF8FFF73D
:10194000CDFF08BD024B00221A700120704700BF76
:101950008C05002008B502E0012008F0BFF9024B19
:101960001B78002BF8D108BD8C05002008B501209C
:1019700008F0A6FE024B1860003818BF012008BD11
:101980009005002008B5044B186818B14FF0FF31DE
:1019900009F01CF808BD00BF9005002008B5044BF5
:1019A000186820B100231A46194608F0C5FD08BD85
:1019B0009005002010B518B101280BD0012010BDF2
:1019C00004460130C0B20CF0BFF808B12046F6E77B
:1019D0000220F4E703F0E8FA08B10020EFE7022064
:1019E000EDE708B510B1012801D0012008BD03F0D2
:1019F000DBFA08B10020F9E70220F7E72DE9F04112
:101A000084B00E4617461D46804628B1012816D0E0
:101A1000042004B0BDE8F08101301B4B01221A7094
:101A200000210291194B0193ADB200953B4632461D
:101A3000C0B20CF0FFF9FFF78DFF4046E9E7FDB1BA
:101A400011F0030F11D00024AC4217D20122E1198A
:101A50000F4803F0AFFAA8B94FF400720C4906EB37
:101A600044202CF006FE0134EEE72A463946304683
:101A700003F0A0FA0028CCD04046CAE70020C8E70F
:101A80000420C6E74046C4E78C050020451900083D
:101A90008C0300202DE9F04385B00F4690461D468B
:101AA000814628B1012816D0042005B0BDE8F08396
:101AB00001301C4B01221A70002102911A4B019334
:101AC000ADB2009543463A46C0B20CF00FFAFFF7AC
:101AD00041FF4846E9E70DB311F0030F13D000248E
:101AE000AC4219D2114E4FF4007207EB442130463C
:101AF0002CF0BFFD012204EB0801304603F086FA0A
:101B000070B90134ECE72A464146384603F07EFAC4
:101B10000028CAD04846C8E70020C6E70420C4E72A
:101B20004846C2E78C050020451900088C030020B8
:101B300070B582B00C4616460546F0B90130C0B209
:101B4000022914D00BD8002944D0012905D1002145
:101B50000BF0DEFF3060284612E0042010E003297D
:101B600003D10123136028460AE0042008E0002185
:101B70000BF0DCFF3080284602E0012802D0042070
:101B800002B070BD002301934FF40073ADF8023032
:101B9000022904D84BB253B9C1B90846F0E703296A
:101BA00003D1012313600020EAE70420E8E70DF1E8
:101BB000020101A803F056FA50B9012C03D0BDF878
:101BC00002303380DCE7019B3360D9E70420D7E79C
:101BD0002846D5E70846D3E700B5B1B002460B4624
:101BE000C02168462CF0F8FC011E05DBBF2900DD92
:101BF000BF21684603F0DAFE31B000BD0FB400B576
:101C000083B004A951F8040B0191FFF7E5FF03B07D
:101C10005DF804EB04B0704710B500240FE000201D
:101C200002F078FF16E0052B26D1012002F072FFAA
:101C300002E0012002F046FF642008F04FF8013472
:101C40000F4A82FB0432E317C3EB620303EB830307
:101C50009C42E4D00B4B1A78D3B2042AE9D0042B6F
:101C6000E1D8023BDBB2012B06D814F0030FE3D11D
:101C7000012002F04FFFDFE7012002F037FFDBE732
:101C800067666666C40A002010B5044608F0CEF9FF
:101C9000022803D0204604F0F3F910BDE30E6101E1
:101CA000091B63F100039B0043EA91738900091942
:101CB00043F10003DC004FF47A720023C80044EAC9
:101CC0005171FEF76FFD08F009F8E6E700B583B043
:101CD00072B6012002F01EFF00230193019A034B0C
:101CE0009A42F6D8019B01330193F7E7FEFF01000A
:101CF00010B594B008AC302200212046FEF716FE45
:101D00000023039304930593069307930193204ABA
:101D1000116C41F080511164126C02F080520192FA
:101D2000019A02931B4B1A6842F440421A601B68E6
:101D300003F440430293029B012308934FF4803342
:101D4000099302230E934FF480020F9219221092EE
:101D50004FF4A8721192129307231393204604F0B4
:101D60000FFA88B90F2303930223049305904FF4CD
:101D7000A05306934FF480530793052103A804F062
:101D800051FC18B914B010BDFFF7A0FFFFF79EFF7C
:101D9000003802400070004000B583B004F044F900
:101DA000FFF7A6FF02F060FE002002F09FFE012078
:101DB00002F09CFE03F0A6FD3648FFF71FFF01F07E
:101DC000F5F901F03FFA7F2003F054F83248FFF7AD
:101DD00015FF3248FFF712FF03F09EFA20B130489A
:101DE000FFF70CFFFFF772FF2E48FFF707FF2E48A3
:101DF00009F0ECFB2D48FFF701FFFFF7B7FD20B915
:101E00002B48FFF7FBFEFFF761FF00F023FE20B930
:101E10002848FFF7F3FEFFF759FF2748FFF7EEFECC
:101E2000002401940323009323464FF48062234946
:101E3000234807F061FD01940423009323464FF4E7
:101E400000722049204807F057FD019401231D46E8
:101E5000009323464FF400721C491D4807F04CFDC7
:101E60000194009523464FF480721A491A4807F0EE
:101E700043FD01940223009323464FF4C0621749A7
:101E8000174807F039FD84F3118862B607F074FD36
:101E9000FFF71CFF9CF10208ACF10208C4F1020834
:101EA000D8F10208ECF1020850000020FCF1020811
:101EB0002CF2020844F202085CF2020878F20208EE
:101EC000952A000880F202085123000888F20208CF
:101ED0009D21000890F20208191C000894F20208E3
:101EE0002124000808B5FFF7F1FE08B5FFF7EEFE64
:101EF00008B5FFF7EBFE0000003818BF0120014BCA
:101F0000186070479405002010B582B0002301933B
:101F1000ADF802301E4B1B6823B100231C4620463F
:101F200002B010BD03F006F848B11A4B1B6813B19C
:101F300001231C46F3E71848FFF760FEF8E70DF1B0
:101F4000020101A803F08EF80199890ABDF8022068
:101F500002FB01F1890A1148FFF750FEFFF712FD5D
:101F600001220F490F4810F0A1FC0446FFF716FDAF
:101F700034B9074B01221A600B48FFF73FFECEE74A
:101F800021460A48FFF73AFE01231C46C7E700BF77
:101F9000980500209405002098F20208C0F202087B
:101FA000ECF202089C05002014F30208F0F202088B
:101FB00008B5094B1B6813B902F0EAFF08BDFFF72B
:101FC000E1FC00220549104610F070FCFFF7E6FC2A
:101FD000014B00221A60EFE798050020ECF202089E
:101FE000014B1868704700BF9805002000B583B00A
:101FF000002301934FF40073ADF802300A4B1B68C5
:1020000013B9184603B000BD0DF1020101A803F099
:1020100029F838B90198800ABDF8023003FB00F0B6
:10202000800AEFE70020EDE79805002008B5034699
:1020300008461146D3F800C0BCF1000F05D0064A8F
:102040001268A2EB0C02772A04D9034A12681A60BC
:10205000FFF7D4FD08BD00BFE4070020154B1B8827
:102060001BB1013B134A1380704700B583B068462B
:1020700000F076FD68B9BDF804200F4B5A80BDF81A
:1020800000209A80BDF80220DA8001221A7003B085
:1020900000BD094B00221A705A6B01325A63054B7E
:1020A00004221A804FF0FF3204490548FFF7BEFFB3
:1020B000EDE700BFDA070020E807002028F3020858
:1020C000E0070020214B1B881BB1013B1F4A1380F6
:1020D000704700B58BB001A802F02EFE10F1030F7F
:1020E00018D81B4B0199D96002991961039959615C
:1020F000049999610599D9610699196201211972AA
:10210000C0B9079A5A62089A9A62099ADA625972B1
:102110000BB000BD0E4B002119725972596B013181
:1021200059630A4B0421198002460A490A48FFF7FD
:102130007DFFEDE7064B00215972596B0131596360
:10214000024606490448FFF771FFE1E7D80700207F
:10215000E807002064F30208DC070020A0F302086F
:10216000C8B110B5044608F0DDFFA446DFF828E04A
:10217000BEE80F00ACE80F00BEE80F00ACE80F00AF
:10218000BEE80F00ACE80F009EE803008CE80300F7
:1021900008F0EAFF10BD7047E807002038B51A487C
:1021A000FFF72CFD00F0C4FC054668B91749184834
:1021B000FFF724FD02F056FD044650B110F1020F66
:1021C00004D01449144A06E01249F0E71149134AB1
:1021D00001E00E49104A1248FFF710FD0AE00CB961
:1021E000FFF770FF0F4B1A680F4B1A634FF4FA702A
:1021F00007F074FD0B4A136801331360002DEED114
:10220000FFF72CFFEBE700BF20F40208F0F3020811
:1022100050F40208F4F3020810F40208FCF3020878
:102220006CF40208E4070020E807002030B589B00C
:10223000054600230193244B1A6C42F020021A64D5
:102240001B6C03F020030193019B02A903A804F077
:10225000BFFA069BFBB904F09BFA03461B4AA2FB9C
:1022600003239B0C013B1A481A4A026040F2E732F2
:10227000C26043600023036183608361436105F0B2
:10228000F5FD044658B1372003F076FFC4B90F2D91
:102290000ED9012415E004F07BFA4300DEE70C4C74
:1022A000204605F0A5FC204605F060FC0446EAE760
:1022B00022462946372003F04FFF074B1D6000E000
:1022C0000124204609B030BD0038024083DE1B43A4
:1022D00020080020001400406001002008B50268BA
:1022E000034B9A4200D008BD03F0B8FEFBE700BFE5
:1022F00000140040FEE7FEE7FEE7FEE7FEE770475A
:1023000008B5024805F091FC08BD00BF2008002078
:1023100008B5012100200DF01BFF08BD08B50248DB
:1023200004F028FC08BD00BF3C1A00200346064A02
:10233000126822B1044A1068034413607047024ACD
:1023400002491160F6E700BF6808002038520020FB
:10235000F8B52148FFF752FC03F0B4F938B11F4833
:10236000FFF74CFC4FF47A7007F0B8FCFAE71C4812
:10237000FFF744FC002702E00024022C13D903F0ED
:10238000A1FA05464FF47A7003F01CFA06460028BD
:10239000F2D0002FF0D103F095FA01461148FFF773
:1023A0002DFC0127E8E703F01BFA00280FDD0EB132
:1023B00000240DE003F086FAA84201D0002407E0D3
:1023C0000948FFF71BFC4FF0FF35344600E00134AD
:1023D0000F2007F083FCD0E78CF40208E0F4020839
:1023E00010F502084CF502087CF5020810B5044609
:1023F00002F0ACFA50B902F00DFB02462146064845
:10240000FFF7FCFB03F0F2FC012010BD214603485E
:10241000FFF7F4FB0020F8E7F0F50208CCF502081E
:1024200030B583B07248FFF7E9FB02F03FF938B1ED
:102430007048FFF7E3FB4FF47A7007F04FFCFAE7C0
:10244000044614F047F903F057FD03F0ABFD0020FC
:1024500025F074FE0546002025F087FE0246294639
:102460006548FFF7CBFB6548FFF708FA28F06AFBE1
:102470006348FFF7C3FB07F0BBFA624B1860A0F597
:10248000FA70614B186054E0FFF71CFA5FE040F609
:10249000B8336DE05C4B1D60FFF736FD18B95B4B40
:1024A00001221A7066E00120FFF726FD62E0584B1A
:1024B00001221A705748FFF7A1FB5748FFF796FF14
:1024C00050B1FFF797F9554B01221A70544B1D601C
:1024D0005448FFF793FB54E0FFF76AFD4B4B002293
:1024E0001A704EE0504B01221A705048FFF786FBDD
:1024F0004F48FFF77BFF00284ED0FFF77BF9474B93
:1025000001221A70464B1D604A48FFF777FB43E0F3
:102510004948FFF7B3F9414B02221A703A4B1D604C
:102520004648FFF76BFB41E028F00CFB052007F065
:10253000D5FB07F05DFA0546414B1B78A34206D058
:102540003F4B1C78E4B2354B1B78012B9CD0334BAE
:102550001B78012B2AD02D4A12785AB92C4A1278AE
:1025600042B9294A1268AA1A022B90D04FF4FA7382
:102570009A428FD2254B1B781BB1254B1B78002B21
:1025800095D0264B1B78012B06D0274B1B781BB907
:102590002B4B1B78042BA5D0204B1B7833B9194B40
:1025A0001B68EB1A42F20F729342B1D81B4B1B7897
:1025B000012BB9D1234B1B78002BB5D1184B1868D0
:1025C0000028B1D0281A40F2DB539842ACD900233E
:1025D000009301931B4B01221A7001A9684603F076
:1025E0002BFC019A00991848FFF708FB9CE700BFF5
:1025F00010F6020838F6020868F60208A0F602088B
:10260000BCF6020874080020780800207E0800202C
:102610007D080020ECF60208ECF202087F0800209A
:102620007008002014F702087C0800203CF702081C
:1026300060F7020864F702088CF70208ACF702089A
:10264000C40A00206C080020DCF7020870B5ADF564
:102650001C7D1D4810F082FF1C4810F07FFF96ACD7
:102660001B4D0FCD0FC495E8030084E80300002440
:1026700004E029461748FFF7C1FA0134022C1FD89D
:102680009CAB03EBC40353F8185C0A22294602A84A
:1026900010F038F902460028EBD19CAB03EBC403E1
:1026A00053F8146C3046FEF7A1F8024602AD01ABB8
:1026B0003146284610F0AFFB284610F079FDDCE7E4
:1026C0000DF51C7D70BD00BF28F8020830F8020827
:1026D00004ED02083CF8020870B590B006460D46BD
:1026E000002423460AE0591C03F140000DEB000CC6
:1026F0000CF8402C3F2B0ED001340B46AC420FD2CD
:10270000325D1F2AEFD80D2AEDD00A2AEBD0092A14
:10271000E9D02E22E7E7684603F048F90021EBE70D
:102720000BB910B070BD1946684603F03FF9F8E7E1
:1027300070B5ADF5267D0C46B1F5006F15D8314B5F
:102740001B68B3F5804F16D2C3F58043994216D863
:102750000122014612A810F0D5F8014698B9214689
:102760002948FFF74BFA002416E04FF4006227488F
:10277000FFF744FA38E02648FFF740FA34E02448EF
:10278000FFF73CFA30E02348FFF738FA2CE001A8C5
:10279000FFF7A2FF119B1C4411AB402201A912A814
:1027A00010F052FA054688B9119969B10B19B3F5C1
:1027B000006FECD9C4F5006101A8FFF78DFF01237C
:1027C0001E464FF4006403E00E4601E000231E465F
:1027D0006DB912A810F0ECFC76B90F48FFF70EFAAD
:1027E000084A1368234413600DF5267D70BD294601
:1027F0000A48FFF703FAECE74FF400610848FFF7D7
:10280000FDF9EAE780080020CCF802085CF802082D
:1028100084F80208B4F8020828F90208ECF8020863
:1028200008F90208F0B5ADF52F7D1D46052902DD3A
:102830000DF52F7DF0BD04460F46164601469AA8B9
:1028400010F0FBFD024600BB52A99AA810F055FEFD
:102850000146F8B99DF86231FBB129490DF5B17017
:10286000FDF7BAFF0028EFD026490DF5B170FDF74E
:10287000B3FF0028E8D02046FDF7B8FF88B1431E1B
:10288000E35C2F2B2DD0204A0CE021461F48FFF798
:10289000B5F9CDE71E48FFF7B1F99AA810F023FE6D
:1028A000C6E7194A0DF5B173019300922346194A00
:1028B0004FF4A07102A82BF035FE9DF8543113F0AF
:1028C000100F10D02B6801332B6002A91248FFF7BC
:1028D00095F92B4632463946013102A8FFF7A2FF8F
:1028E000B2E70E4ADEE7336801333360529A02A939
:1028F0000B48FFF783F9529902A8FFF719FFA3E7E6
:1029000078F902087CF9020838F902083CF9020853
:102910005CF9020880F9020888F90208D4FD02086F
:1029200094F9020810B582B0002401940094114873
:10293000FFF764F9FFF78AFE0F48FFF75FF90F4BC7
:102940001C606B4601AA21460D48FFF76BFF019AF8
:1029500000990C48FFF752F9202008F053FD38B1D8
:10296000044601460848FFF749F9204608F0EEFD05
:1029700002B010BDB0F90208C4F9020880080020B6
:10298000F0F90208F4F9020828FA020800B583B049
:10299000174B1B68ADF804301B0C8DF8063007E0B0
:1029A0001448FFF72BF9144B05221A70FEF7F6FFB7
:1029B0004FF0FF31114B186808F008F801200BF0B8
:1029C000C3F80028F4D00C4B03221A70FEF7DAFF8C
:1029D000012201A90A480FF069FF01460028DFD152
:1029E000054B04221A70FFF79DFFFEF7D7FFDFE7C4
:1029F00060F7020858FA0208C40A00208408002080
:102A00008808002008B50748FFF7F8F8064B0222AF
:102A10001A70064B186820B100231A46194607F0B1
:102A20008BFD08BD70FA0208C40A0020840800204B
:102A300008B50548FFF7E2F80020044B187002467D
:102A400003490FF033FF08BD94FA0208C40A0020BE
:102A500060F7020800B583B003220021012007F0CF
:102A60003FFD094B186060B10023019302220092E0
:102A70004FF400620549064806F03EFF012800D0E9
:102A8000002003B000BD00BF84080020A8FA02089F
:102A90008D29000800B583B003F034F80B4B1B8B75
:102AA000ADF8043001A9002008F00AFE40B1084842
:102AB000FFF7A4F800214FF0FF3009F071FDF9E7AE
:102AC0000448FFF79BF8FFF701F9F0E704ED02086F
:102AD000C4FA0208B0FA020800B587B002468DF8C1
:102AE00017100A230293012301930DF1170100919E
:102AF0003C21044804F00CFE08B907B000BD4FF0BB
:102B0000FF30FAE7D00A002000B585B002460A235C
:102B100002930123019300913C21044804F0AAFE92
:102B200008B905B000BD4FF0FF30FAE7D00A002029
:102B300008B50A20FFF7A8F804210020FFF7CCFF12
:102B400040B91420FFF7A0F803210020FFF7C4FFCD
:102B500018B908BD4FF0FF30FBE74FF0FF30F8E742
:102B600030B583B005460024052C09DCE0B20A30FC
:102B700069462144C0B2FFF7C7FF60BB0134F3E7E9
:102B80009DF800309DF90020002A16DB9DF80120F9
:102B900003F0030343EA8203AB809DF803209DF812
:102BA000023043EA02232B809DF8042012F0400FEC
:102BB00006D00020688003B030BD0023AB80ECE776
:102BC0009DF805301B0103F47C7302F00F021343E0
:102BD0006B800020EFE74FF0FF30ECE70E4AD2F8B1
:102BE000FC3043F08073C2F8FC30A2F55D421368FC
:102BF00043F00103136000235360084B1B6808492E
:102C0000A1FB03139B0C03FB00F05268054B5B68B0
:102C10009B1A8342FAD3704700ED00E05801002070
:102C200083DE1B43001000E0F8B504460E4615464F
:102C300002F012FC194B1878400000F0FE0002F080
:102C40001FFC20BB200A02F01BFC00BBE0B202F01C
:102C500017FCE0B902F000FC104B18784000C0B23D
:102C600040F0010002F00CFC074680B9044608E081
:102C7000681E201A18BF012002F029FC30550134CB
:102C8000A4B2AC42F4D302F0F1FB3846F8BD02F036
:102C9000EDFB4FF0FF331F46F7E700BFCC0A0020E3
:102CA000F8B504460E46154602F0D6FB124B1878CE
:102CB000400000F0FE0002F0E3FBA8B9200A02F099
:102CC000DFFB88B9E0B202F0DBFB074660B90446DF
:102CD000AC4206D2305D02F0D3FB28B90134A4B275
:102CE000F6E702F0C3FB04E002F0C0FB4FF0FF3355
:102CF0001F463846F8BD00BFCC0A002000B583B09F
:102D000000231A4604E01349C95C0A4401339BB20C
:102D1000B72BF8D952428DF8042090B101238DF8D9
:102D20000530B8220B4948F24700FFF7B9FF50B908
:102D3000022201A948F2FF00FFF7B2FF30B903B049
:102D400000BD0346EBE74FF0FF30F8E74FF0FF30F0
:102D5000F5E700BFFC0203082DE9F0478AB0002424
:102D6000964B1C70964B1C70964B1C70964B1C60BF
:102D70001C713F221A700094944B1A6B42F080022F
:102D80001A631A6B02F080020092009A01941A6B87
:102D900042F480721A631B6B03F480730193019BEE
:102DA0000125069507950223089309944FF480782E
:102DB000CDF8148005AE864F3146384603F026FD27
:102DC000069407954FF0800ACDF814A0DFF804921E
:102DD0003146484603F01AFD02F0F6FA2246414613
:102DE000384603F02AFE0A20FEF74EFF2A464146E7
:102DF000384603F022FE0A20FEF746FF06940794A9
:102E0000CDF814A03146484603F000FD6420FEF7DB
:102E10003BFF012C11DC704B1A5D694B1A700023CB
:102E20000493042204A948F24010FFF7FDFE20B1EC
:102E3000634B00221A700134EBE7634B049A1A606B
:102E400000221A715E4B1C78002C3FD063495E480B
:102E5000FDF7C2FC002841D122460124604B5A49AB
:102E60006048FEF7CBFE002C60D0052202A948F294
:102E70004700FFF7D9FE98B99DF80820514B1A700A
:102E80009DF80A209DF8093043EA0223564A138030
:102E90009DF80C209DF80B3043EA0223534A13801F
:102EA000524B1B88504A1288464909785048FEF711
:102EB000A5FE4A494448FDF78FFC00283CD03F4B13
:102EC00001221A7000200AB0BDE8F0875D221421AB
:102ED0004848FEF793FE4FF0FF30F4E746493A4882
:102EE000FDF77AFC18B9224601243D4BB7E7434968
:102EF0003548FDF771FC18B922460124384BAEE77E
:102F00003F493148FDF768FC18B922460124344B8B
:102F1000A5E73C492C48FDF75FFC18B9224601247F
:102F20002F4B9CE722460024374B98E73748FEF7A3
:102F300065FE6FF00100C6E702238DF80F30012215
:102F40000DF10F0148F24000FFF7AAFE58B91D4BE2
:102F50001B785F2B21D80120FFF7D0FE48B12C4809
:102F6000FEF74CFE1CE02B48FEF748FE6FF0010018
:102F7000A9E74FF448734FF4F072B8212648FEF7E2
:102F80003DFE104B60221A70174B4FF4F0721A80FE
:102F9000164B4FF448721A8002E02048FEF72EFECE
:102FA00000238DF80F3001220DF10F0148F240008F
:102FB000FFF776FE0A20FEF767FE80E7CB0A0020C7
:102FC000CC0A0020CA0A002060000020003802401D
:102FD00000200240001C0240F8020308D0FB020857
:102FE00070FB0208F0FB0208C80A0020C60A002095
:102FF0005CFC020884FB0208D8FB0208DCFB020828
:10300000E4FB0208ECFB020878FB020820FC020843
:10301000BCFC020898FC0208DCFC020814FD020853
:10302000024B1878003818BF01207047CB0A0020E7
:103030000048704760000020014B1878704700BFBF
:10304000CC0A0020014B1878704700BFCA0A002044
:10305000014B1888704700BFC80A0020014B188830
:10306000704700BFC60A002070B584B000238DF8F9
:103070000F308DF807302C4B1B78002B48D00646BC
:103080000D46002847D0002948D001220DF10F013C
:1030900048F24E10FFF7C8FD002842D19DF80F30CE
:1030A00003F00F03052B00D90523AB4200D81D46C2
:1030B0004DB901220DF1070148F24E10FFF7F0FD66
:1030C000284604B070BD0024A5421DD9A4F6D670D0
:1030D00080B2C00080B2042202A9FFF7A5FDA8B902
:1030E0009DF809109DF8083006EB840243EA01239D
:1030F00026F824309DF80B109DF80A3043EA01238E
:1031000053800134E4B2DFE72546D2E72546D0E715
:103110004FF0FF30D5E74FF0FF30D2E74FF0FF30F0
:10312000CFE74FF0FF30CCE7CB0A002084B001900E
:10313000019B03EBC3035B00039300E000BF039B11
:103140005A1E0392002BF9D104B0704700B587B026
:1031500001A9002301934B608B60CB600B611023AE
:1031600001930123029303230493024803F04EFBCF
:1031700007B000BD001C024000B587B001A90023C4
:1031800001934B608B60CB600B6130230193122362
:10319000029301230393032304930423059302481A
:1031A00003F034FB07B000BD001C024010B588B02E
:1031B00003A9002403944C608C60CC600C610194E2
:1031C0001B4B1A6C42F480021A641A6C02F48002DF
:1031D0000192019A02941A6B42F080021A631B6BEF
:1031E00003F080030293029B302303931223049382
:1031F0000123059303230693042307930D4803F04B
:1032000005FB0D480D4B03600D4B43608460C460AB
:103210004FF48043036144618461C461046204F03B
:10322000B1F808B908B010BDFEF750FDFAE700BFCD
:1032300000380240001C0240D00A00200058004024
:10324000A0860100424B1B685A699B694149096984
:10325000C3F3400311F0200F04D002F4E0620BB975
:10326000002A6AD0F0B587B0FFF770FF0122102165
:10327000384803F0E2FB0A20FFF758FF0025082D2D
:1032800016DC344C00221021204603F0D6FB0A2025
:10329000FFF74CFF01221021204603F0CEFB0A204D
:1032A000FFF744FF236913F0200F01D10135E6E752
:1032B00001A9002401944C608C60CC600C61202634
:1032C00001960127029703230493224D284603F019
:1032D0009DFA22463146284603F0AFFB0A20FFF74D
:1032E00025FF3A463146284603F0A7FB0A20FFF7A0
:1032F0001DFF174D284604F032F9284604F042F825
:10330000FFF73AFF144B6B60AC60EC604FF4804306
:103310002B616C61AC61EC612C62284604F032F8E0
:1033200068B92B689B6913F0020F0BD1094B1B691D
:1033300013F0200F09D007B0F0BD104670474FF0D2
:10334000FF30F8E74FF0FF30F5E74FF0FF30F2E7DE
:10335000D00A0020001C0240A0860100002206E0E6
:1033600000BF01339BB2042BFAD9013292B28242E0
:1033700001D20023F7E7704700BF024BA3F8FE001D
:10338000704700BF00FF076082B000BF054BB3F875
:1033900000319BB2ADF80630BDF8060080B202B035
:1033A000704700BF00FF076000BF024BA3F8000199
:1033B000704700BF00FF076000BF034BA3F8FE008B
:1033C000A3F80011704700BF00FF076010B5042884
:1033D00068D05FD8022867D0032867D0012867D15A
:1033E000802421464FF45850FFF7E6FF14F0200FD9
:1033F00066D0384AD3681269934203D23549CA600D
:103400009BB20B61334CE088FFF7B6FF0020FFF75B
:10341000CBFFE088013080B2FFF7AEFF0020FFF75E
:10342000C3FFE088023080B2FFF7A6FFE0680138F2
:10343000C0F30F20FFF7B8FFE088033080B2FFF73A
:103440009BFFA0890138C0B2FFF7AEFF2089FFF7CC
:1034500093FF0020FFF7A8FF2089013080B2FFF71B
:103460008BFF0020FFF7A0FF2089023080B2FFF71A
:1034700083FF20690138C0F30F20FFF795FF2089F3
:10348000033080B2FFF778FF208A0138C0B2FFF71F
:103490008BFF10BD06280DD007280DD005280DD1B3
:1034A00060249EE720249CE740249AE7C02498E704
:1034B000002496E7A02494E7E02492E7002490E714
:1034C000044AD368126993429CD90249CA609BB2EC
:1034D0000B6197E7280B002008B50020FFF776FF67
:1034E00008BD00002DE9F04794B00DAE00240D9406
:1034F0000E940F94109411941294139406AF0694A2
:103500000794089409940A940B940C9401AD0194C7
:103510000294039404940594DFF8E0A0224620214D
:10352000504603F08AFA202301934FF00108CDF8AA
:103530000880CDF80C804FF00209CDF81090294694
:10354000504603F063F9CDF80890039403230493E5
:103550000C2305934FF6B37301932946284803F0D3
:1035600055F94FF6807301932946264803F04EF92A
:103570004FF23F0301932946234803F047F93F23C5
:1035800001932946214803F041F921484FF0204397
:10359000036003F5827343608460C4600461102299
:1035A00042618461C461046244624FF48053836267
:1035B000C4624FF48043036344638463C46344641C
:1035C0000F230D930E9346210F91CDF84080119259
:1035D000112112911394069307930893CDF8248038
:1035E0000A920B910C943A46314604F0C8FC10B98B
:1035F00014B0BDE8F0874046FAE700BF000402407F
:10360000000C02400010024000140240001802406A
:103610003C0B002000487047280B0020024B187814
:10362000003818BF01207047240B002070B50546F4
:103630000E460F4CE088FFF79FFE280AFFF7B4FE06
:10364000E088013080B2FFF797FEE8B2FFF7ACFEEA
:103650002089FFF791FE300AFFF7A6FE208901308E
:1036600080B2FFF789FEF0B2FFF79EFE70BD00BF8B
:10367000280B0020034B9A88034BA3F8FE2000BFC1
:10368000704700BF280B002000FF076038B50546D3
:103690000A4BDA681C6902FB04F400210846FFF7B4
:1036A000C5FFFFF7E7FF002204E0ABB20449A1F831
:1036B00000310132A242F8D338BD00BF280B0020F0
:1036C00000FF076010B582B04FF45B40FFF754FE77
:1036D000FFF75AFE04468DF804004FF45C40FFF7F4
:1036E0004BFEFFF751FE8DF80500C1B2E0B241EA92
:1036F0000021284C21802848FEF780FA2388B3F562
:10370000004F55D02548FEF779FA0120FFF734FE27
:103710000A20FFF723FE7820FFF720FE1120FFF795
:103720002BFE7820FFF71AFE55213A20FFF744FEC2
:1037300000213620FFF740FE2920FFF71DFE142050
:10374000FFF70CFE164B5A6822F00F025A605A68B7
:1037500022F470625A605A6842F004025A605A6851
:1037600042F480625A600020FFF7B6FE0020FFF7A7
:103770008DFF012220210B4803F05FF90A4B012243
:103780001A70044B1A69D9680848FEF737FA02B074
:1037900010BD00BF280B002044FD020864FD020894
:1037A000000100A000040240240B00209CFD020840
:1037B00055214FF47040FFF7FFFDAA214FF20100A1
:1037C000FFF7FAFD52214FF20200FFF7F5FD082145
:1037D0004FF20300FFF7F0FD01214FF20400FFF765
:1037E000EBFD0D214FF43040FFF7E6FD0D214BF2CC
:1037F0000100FFF7E1FD0D214BF20200FFF7DCFDB8
:1038000034214FF43640FFF7D7FD34214BF20160ED
:10381000FFF7D2FD34214BF20260FFF7CDFD0D2101
:103820004FF43140FFF7C8FD0D214BF20110FFF7B7
:10383000C3FD0D214BF20210FFF7BEFD34214FF402
:103840003740FFF7B9FD34214BF20170FFF7B4FDAB
:1038500034214BF20270FFF7AFFD00214FF43240EC
:10386000FFF7AAFD00214BF20120FFF7A5FD002183
:103870004BF20220FFF7A0FD24214FF43840FFF760
:103880009BFD24214BF60100FFF796FD24214BF60A
:103890000200FFF791FD01214FF43F40FFF78CFD3F
:1038A0000F214FF43340FFF787FD0F214BF201301A
:1038B000FFF782FD0F214BF20230FFF77DFD34212F
:1038C0004FF43940FFF778FD34214BF60110FFF734
:1038D00073FD34214BF60210FFF76EFD08214FF403
:1038E0003540FFF769FD08214BF20150FFF764FDF9
:1038F00008214BF20250FFF75FFD03214FF44240D5
:10390000FFF75AFD24214FF43A40FFF755FD2421DB
:103910004BF60120FFF750FD24214BF60220FFF764
:103920004BFD00214FF43C40FFF746FD78214BF65C
:103930000140FFF741FD00214BF60240FFF73CFD3F
:1039400000214FF43D40FFF737FD78214BF6015041
:10395000FFF732FD00214BF60250FFF72DFD00214D
:103960004FF43E40FFF728FD64214BF60160FFF75E
:1039700023FD00214FF45140FFF71EFD33214DF28E
:103980000110FFF719FD00214DF20210FFF714FDA1
:1039900034214DF20310FFF70FFD00214DF204100A
:1039A000FFF70AFD3A214DF20510FFF705FD002152
:1039B0004DF20610FFF700FD4A214DF20710FFF708
:1039C000FBFC00214DF20810FFF7F6FC5C214DF2E4
:1039D0000910FFF7F1FC00214DF20A10FFF7ECFC93
:1039E00081214DF20B10FFF7E7FC00214DF20C1086
:1039F000FFF7E2FCA6214DF20D10FFF7DDFC0021E0
:103A00004DF20E10FFF7D8FCE5214DF20F10FFF735
:103A1000D3FC01214DF21010FFF7CEFC13214DF223
:103A20001110FFF7C9FC01214DF21210FFF7C4FC81
:103A300054214DF21310FFF7BFFC01214DF2141079
:103A4000FFF7BAFC82214DF21510FFF7B5FC0121FA
:103A50004DF21610FFF7B0FCCA214DF21710FFF718
:103A6000ABFC02214DF21810FFF7A6FC00214DF22D
:103A70001910FFF7A1FC02214DF21A10FFF79CFC70
:103A800001214DF21B10FFF797FC02214DF21C1093
:103A9000FFF792FC34214DF21D10FFF78DFC02213F
:103AA0004DF21E10FFF788FC67214DF21F10FFF743
:103AB00083FC02214DF22010FFF77EFC84214DF2A1
:103AC0002110FFF779FC02214DF22210FFF774FC60
:103AD000A4214DF22310FFF76FFC02214DF22410B8
:103AE000FFF76AFCB7214DF22510FFF765FC0221B4
:103AF0004DF22610FFF760FCCF214DF22710FFF7A3
:103B00005BFC02214DF22810FFF756FCDE214DF23E
:103B10002910FFF751FC02214DF22A10FFF74CFC4F
:103B2000F2214DF22B10FFF747FC02214DF22C1031
:103B3000FFF742FCFE214DF22D10FFF73DFC032163
:103B40004DF22E10FFF738FC10214DF22F10FFF729
:103B500033FC03214DF23010FFF72EFC33214DF2E0
:103B60003110FFF729FC03214DF23210FFF724FC3E
:103B70006D214DF23310FFF71FFC00214FF452402E
:103B8000FFF71AFC33214DF20120FFF715FC00214D
:103B90004DF20220FFF710FC34214DF20320FFF715
:103BA0000BFC00214DF20420FFF706FC3A214DF2F8
:103BB0000520FFF701FC00214DF20620FFF7FCFB7A
:103BC0004A214DF20720FFF7F7FB00214DF20820B4
:103BD000FFF7F2FB5C214DF20920FFF7EDFB00211E
:103BE0004DF20A20FFF7E8FB81214DF20B20FFF791
:103BF000E3FB00214DF20C20FFF7DEFBA6214DF286
:103C00000D20FFF7D9FB00214DF20E20FFF7D4FB6A
:103C1000E5214DF20F20FFF7CFFB01214DF21020DF
:103C2000FFF7CAFB13214DF21120FFF7C5FB01215D
:103C30004DF21220FFF7C0FB54214DF21320FFF785
:103C4000BBFB01214DF21420FFF7B6FB82214DF2A0
:103C50001520FFF7B1FB01214DF21620FFF7ACFB59
:103C6000CA214DF21720FFF7A7FB02214DF21820C1
:103C7000FFF7A2FB00214DF21920FFF79DFB022167
:103C80004DF21A20FFF798FB01214DF21B20FFF7A0
:103C900093FB02214DF21C20FFF78EFB34214DF2E5
:103CA0001D20FFF789FB02214DF21E20FFF784FB48
:103CB00067214DF21F20FFF77FFB02214DF22020EC
:103CC000FFF77AFB84214DF22120FFF775FB0221DB
:103CD0004DF22220FFF770FBA4214DF22320FFF7C5
:103CE0006BFB02214DF22420FFF766FBB7214DF25A
:103CF0002520FFF761FB02214DF22620FFF75CFB38
:103D0000CF214DF22720FFF757FB02214DF228204B
:103D1000FFF752FBDE214DF22920FFF74DFB022178
:103D20004DF22A20FFF748FBF2214DF22B20FFF73E
:103D300043FB02214DF22C20FFF73EFBFE214DF20A
:103D40002D20FFF739FB03214DF22E20FFF734FB26
:103D500010214DF22F20FFF72FFB03214DF23020D1
:103D6000FFF72AFB33214DF23120FFF725FB03211A
:103D70004DF23220FFF720FB6D214DF23320FFF78B
:103D80001BFB00214FF45340FFF716FB33214DF28C
:103D90000130FFF711FB00214DF20230FFF70CFB61
:103DA00034214DF20330FFF707FB00214DF20430C0
:103DB000FFF702FB3A214DF20530FFF7FDFA002133
:103DC0004DF20630FFF7F8FA4A214DF20730FFF7BF
:103DD000F3FA00214DF20830FFF7EEFA5C214DF2C4
:103DE0000930FFF7E9FA00214DF20A30FFF7E4FA53
:103DF00081214DF20B30FFF7DFFA00214DF20C303C
:103E0000FFF7DAFAA6214DF20D30FFF7D5FA0021BF
:103E10004DF20E30FFF7D0FAE5214DF20F30FFF7EB
:103E2000CBFA01214DF21030FFF7C6FA13214DF203
:103E30001130FFF7C1FA01214DF21230FFF7BCFA41
:103E400054214DF21330FFF7B7FA01214DF214302F
:103E5000FFF7B2FA82214DF21530FFF7ADFA0121DA
:103E60004DF21630FFF7A8FACA214DF21730FFF7CE
:103E7000A3FA02214DF21830FFF79EFA00214DF20D
:103E80001930FFF799FA02214DF21A30FFF794FA30
:103E900001214DF21B30FFF78FFA02214DF21C3049
:103EA000FFF78AFA34214DF21D30FFF785FA02211F
:103EB0004DF21E30FFF780FA67214DF21F30FFF7F9
:103EC0007BFA02214DF22030FFF776FA84214DF281
:103ED0002130FFF771FA02214DF22230FFF76CFA20
:103EE000A4214DF22330FFF767FA02214DF224306E
:103EF000FFF762FAB7214DF22530FFF75DFA022194
:103F00004DF22630FFF758FACF214DF22730FFF758
:103F100053FA02214DF22830FFF74EFADE214DF21E
:103F20002930FFF749FA02214DF22A30FFF744FA0F
:103F3000F2214DF22B30FFF73FFA02214DF22C30E7
:103F4000FFF73AFAFE214DF22D30FFF735FA032143
:103F50004DF22E30FFF730FA10214DF22F30FFF7DF
:103F60002BFA03214DF23030FFF726FA33214DF2C0
:103F70003130FFF721FA03214DF23230FFF71CFAFE
:103F80006D214DF23330FFF717FA00214FF4544002
:103F9000FFF712FA33214DF20140FFF70DFA00212D
:103FA0004DF20240FFF708FA34214DF20340FFF7CB
:103FB00003FA00214DF20440FFF7FEF93A214DF2D9
:103FC0000540FFF7F9F900214DF20640FFF7F4F93B
:103FD0004A214DF20740FFF7EFF900214DF208406A
:103FE000FFF7EAF95C214DF20940FFF7E5F90021FE
:103FF0004DF20A40FFF7E0F981214DF20B40FFF747
:10400000DBF900214DF20C40FFF7D6F9A6214DF265
:104010000D40FFF7D1F900214DF20E40FFF7CCF92A
:10402000E5214DF20F40FFF7C7F901214DF2104095
:10403000FFF7C2F913214DF21140FFF7BDF901213D
:104040004DF21240FFF7B8F954214DF21340FFF73B
:10405000B3F901214DF21440FFF7AEF982214DF280
:104060001540FFF7A9F901214DF21640FFF7A4F919
:10407000CA214DF21740FFF79FF902214DF2184077
:10408000FFF79AF900214DF21940FFF795F9022147
:104090004DF21A40FFF790F901214DF21B40FFF756
:1040A0008BF902214DF21C40FFF786F934214DF2C5
:1040B0001D40FFF781F902214DF21E40FFF77CF908
:1040C00067214DF21F40FFF777F902214DF22040A2
:1040D000FFF772F984214DF22140FFF76DF90221BB
:1040E0004DF22240FFF768F9A4214DF22340FFF77B
:1040F00063F902214DF22440FFF75EF9B7214DF23A
:104100002540FFF759F902214DF22640FFF754F9F7
:10411000CF214DF22740FFF74FF902214DF2284001
:10412000FFF74AF9DE214DF22940FFF745F9022158
:104130004DF22A40FFF740F9F2214DF22B40FFF7F4
:104140003BF902214DF22C40FFF736F9FE214DF2EA
:104150002D40FFF731F903214DF22E40FFF72CF9E6
:1041600010214DF22F40FFF727F903214DF2304087
:10417000FFF722F933214DF23140FFF71DF90321FA
:104180004DF23240FFF718F96D214DF23340FFF741
:1041900013F900214FF45540FFF70EF933214DF28A
:1041A0000150FFF709F900214DF20250FFF704F921
:1041B00034214DF20350FFF7FFF800214DF2045077
:1041C000FFF7FAF83A214DF20550FFF7F5F8002114
:1041D0004DF20650FFF7F0F84A214DF20750FFF775
:1041E000EBF800214DF20850FFF7E6F85C214DF2A4
:1041F0000950FFF7E1F800214DF20A50FFF7DCF813
:1042000081214DF20B50FFF7D7F800214DF20C50F1
:10421000FFF7D2F8A6214DF20D50FFF7CDF800219F
:104220004DF20E50FFF7C8F8E5214DF20F50FFF7A1
:10423000C3F801214DF21050FFF7BEF813214DF2E3
:104240001150FFF7B9F801214DF21250FFF7B4F801
:1042500054214DF21350FFF7AFF801214DF21450E5
:10426000FFF7AAF882214DF21550FFF7A5F80121BA
:104270004DF21650FFF7A0F8CA214DF21750FFF784
:104280009BF802214DF21850FFF796F800214DF2ED
:104290001950FFF791F802214DF21A50FFF78CF8F0
:1042A00001214DF21B50FFF787F802214DF21C50FF
:1042B000FFF782F834214DF21D50FFF77DF80221FF
:1042C0004DF21E50FFF778F867214DF21F50FFF7AF
:1042D00073F802214DF22050FFF76EF884214DF261
:1042E0002150FFF769F802214DF22250FFF764F8E0
:1042F000A4214DF22350FFF75FF802214DF2245024
:10430000FFF75AF8B7214DF22550FFF755F8022173
:104310004DF22650FFF750F8CF214DF22750FFF70E
:104320004BF802214DF22850FFF746F8DE214DF2FE
:104330002950FFF741F802214DF22A50FFF73CF8CF
:10434000F2214DF22B50FFF737F802214DF22C509D
:10435000FFF732F8FE214DF22D50FFF72DF8032123
:104360004DF22E50FFF728F810214DF22F50FFF795
:1043700023F803214DF23050FFF71EF833214DF2A0
:104380003150FFF719F803214DF23250FFF714F8BE
:104390006D214DF23350FFF70FF800214FF45640D6
:1043A000FFF70AF833214DF20160FFF705F800210D
:1043B0004DF20260FFF700F834214DF20360FEF782
:1043C000FBFF00214DF20460FEF7F6FF3A214DF2AB
:1043D0000560FEF7F1FF00214DF20660FEF7ECFFED
:1043E0004A214DF20760FEF7E7FF00214DF2086019
:1043F000FEF7E2FF5C214DF20960FEF7DDFF0021D0
:104400004DF20A60FEF7D8FF81214DF20B60FEF7F6
:10441000D3FF00214DF20C60FEF7CEFFA6214DF236
:104420000D60FEF7C9FF00214DF20E60FEF7C4FFDC
:10443000E5214DF20F60FEF7BFFF01214DF2106044
:10444000FEF7BAFF13214DF21160FEF7B5FF01210F
:104450004DF21260FEF7B0FF54214DF21360FEF7EB
:10446000ABFF01214DF21460FEF7A6FF82214DF251
:104470001560FEF7A1FF01214DF21660FEF79CFFCB
:10448000CA214DF21760FEF797FF02214DF2186026
:10449000FEF792FF00214DF21960FEF78DFF022119
:1044A0004DF21A60FEF788FF01214DF21B60FEF706
:1044B00083FF02214DF21C60FEF77EFF34214DF296
:1044C0001D60FEF779FF02214DF21E60FEF774FFBA
:1044D00067214DF21F60FEF76FFF02214DF2206051
:1044E000FEF76AFF84214DF22160FEF765FF02218D
:1044F0004DF22260FEF760FFA4214DF22360FEF72B
:104500005BFF02214DF22460FEF756FFB7214DF20A
:104510002560FEF751FF02214DF22660FEF74CFFA9
:10452000CF214DF22760FEF747FF02214DF22860B0
:10453000FEF742FFDE214DF22960FEF73DFF02212A
:104540004DF22A60FEF738FFF2214DF22B60FEF7A4
:1045500033FF02214DF22C60FEF72EFFFE214DF2BB
:104560002D60FEF729FF03214DF22E60FEF724FF98
:1045700010214DF22F60FEF71FFF03214DF2306036
:10458000FEF71AFF33214DF23160FEF715FF0321CC
:104590004DF23260FEF710FF6D214DF23360FEF7F1
:1045A0000BFF55214FF47040FEF706FFAA214FF292
:1045B0000100FEF701FF52214FF20200FEF7FCFE60
:1045C00008214FF20300FEF7F7FE00214FF204002E
:1045D000FEF7F2FECC214FF43140FEF7EDFE002154
:1045E0004BF20110FEF7E8FE05214FF43640FEF7CE
:1045F000E3FE70214FF43740FEF7DEFE70214BF2F0
:104600000170FEF7D9FE01214FF43840FEF7D4FEC9
:1046100003214BF60100FEF7CFFE03214BF602000B
:10462000FEF7CAFE03214BF60300FEF7C5FE02218A
:104630004FF43C40FEF7C0FE00214BF60140FEF770
:10464000BBFE00214BF60240FEF7B6FED0214FF430
:104650004940FEF7B1FE02214CF60110FEF7ACFE18
:1046600050214CF60210FEF7A7FE50214CF6031025
:10467000FEF7A2FE50214CF60410FEF79DFE00212D
:104680004FF45450FEF798FE55214FF46850FEF752
:1046900093FE4FF48850FEF76FFE7820FEF75EFE23
:1046A0004FF42450FEF768FEFFF74CB810B5124BDC
:1046B00000221A605A609A60DA601A614FF44872F8
:1046C000DA604FF4F0721A614FF430529A804FF46E
:1046D0002852DA804FF42C521A81FEF703FF044669
:1046E00030B9142001F0CCFCFEF7ECFF204610BDE1
:1046F0000248FDF783FAF9E7280B0020D8FD0208ED
:104700002DE9F04383B00A9D03FB02F62DB18146EB
:10471000884614460AB1009313B903B0BDE8F0838C
:104720002E4FF888FEF728FECDF804904A46100A6E
:10473000FEF73AFEF888013080B2FEF71DFEDDF884
:1047400004905FFA89F0FEF72FFEF888023080B2FD
:10475000FEF712FE4C44601EC0F30F20FEF724FE4D
:10476000F888033080B2FEF707FEA4B2601EC0B224
:10477000FEF71AFE3889FEF7FFFD4446200AFEF7D1
:1047800013FE3889013080B2FEF7F6FD5FFA88F03B
:10479000FEF70AFE3889023080B2FEF7EDFD009B7D
:1047A00043441C46581EC0F30F20FEF7FDFD388918
:1047B000033080B2FEF7E0FDA0B20138C0B2FEF7D0
:1047C000F3FDFEF757FF0023B342A6D235F81310CE
:1047D000034AA2F800110133F6E700BF280B0020BE
:1047E00000FF076018280AD005D80C2809D0102827
:1047F00009D102207047202807D1042070470320E8
:10480000704701207047FF207047FF20704700006D
:1048100010B5FDF7B7F8002401E00134E4B2042C30
:1048200010D80D4B234493F8D03D002BF5D04FF416
:10483000147304FB03F303F51073074818440EF0D8
:10484000B7FCEAE7FDF7AAF840F6D8520021024883
:10485000FCF76CF810BD00BF900B002008B50A896A
:10486000531E9BB2BF2B00D9C0220021FCF75EF87B
:1048700008BD0000F0B583B016461289531E9BB2E6
:10488000BF2B4BD80F46037841787F33DBB27D2BAB
:1048900049D83F294AD9FF294BD07E2916D8402034
:1048A000091ABE2000FB03F353FA81F102FB01F564
:1048B000F088FFF797FF0446FF283DD0204B0344C4
:1048C00093F8D03D23B901231C4629E04120E7E7B6
:1048D000FDF758F84FF41473204603FB00F000F581
:1048E0001070174BC31818461C462A4600230EF0BA
:1048F0006FFC70B901AB3289394620460EF0A4F93D
:104900000446FDF74BF834B93289019B9A4207D02F
:1049100001E0FDF743F801231C4601E001231C469A
:10492000204603B0F0BD01231C46F9E701231C46D5
:10493000F6E701231C46F3E701231C46F0E700BF1E
:10494000900B0020004870478C0B0020002853D0AB
:1049500070B58EB00646FFF75BFF0024274B1C7036
:10496000FDF710F806E0264B2344012283F8D02DF2
:104970000134E4B2042C1ED802AD224B53F824308B
:1049800000933346204A3021284629F0CBFD4FF4CE
:10499000147304FB03F303F510730122294618482E
:1049A00018440DF0AFFF02460028DCD002A91748DA
:1049B000FDF724F9DCE7FCF7F1FF114B93F8D13D4B
:1049C0006BB90F4B93F8D23D4BB90D4B93F8D33DD8
:1049D0002BB90B4B93F8D43D0BB901200AE0084BDF
:1049E000012283F8D52D3346094A0421034829F0D2
:1049F00099FD00200EB070BD012070478C0B002087
:104A0000900B0020B4030308F8FD020800FE020822
:104A1000B8ED02080023184601E00133DBB2042B95
:104A200009D8054A1A4492F8D02D002AF5D001225F
:104A30009A401043F1E77047900B002070B138B5F1
:104A40000C46154661B16AB1FFF714FF00B938BDD5
:104A500029462046FFF702FF0120F8E701207047B2
:104A60000120F4E70120F2E730B587B001A9002367
:104A700001934B608B60CB600B6100930F4B1A6B03
:104A800042F002021A631B6B03F002030093009BC7
:104A900003230193012402940394094D284601F055
:104AA000B5FE22460221284601F0C7FF22462146D4
:104AB000284601F0C2FF07B030BD00BF00380240F9
:104AC0000004024008B540B90246022100F18040CE
:104AD00000F5013001F0B1FF08BD002201210248BC
:104AE00001F0ABFFF8E700BF0004024008B540B991
:104AF0000122022100F1804000F5013001F09DFF0C
:104B000008BD01221146024801F097FFF8E700BFF7
:104B10000004024008B538B9022100F1804000F5D8
:104B2000013001F090FF08BD0121024801F08BFF28
:104B3000F9E700BF000402400378407840EA032010
:104B400000B2704700B585B002460A2302930123E4
:104B500001930091D021044802F08CFE08B905B001
:104B600000BD4FF0FF30FAE7D00A002000B587B053
:104B700002468DF817100A230293012301930DF1C9
:104B800017010091D021044802F0C2FD08B907B016
:104B900000BD4FF0FF30FAE7D00A0020F8B5044618
:104BA0000E46154619212520FFF7E0FFD8B921460A
:104BB0002620FFF7DBFFD0B945F080012720FFF763
:104BC000D5FF0746B8B90220FDF75EF80024AC42D5
:104BD00018D204F149003119C0B2FFF7B3FF70B920
:104BE0000134E4B2F3E74FF0FF331F460AE04FF021
:104BF000FF331F4606E04FF0FF331F4602E04FF041
:104C0000FF331F463846F8BD38B504460D46182117
:104C10002520FFF7ABFFA0B921462620FFF7A6FF0E
:104C200098B929466320FFF7A1FF90B98121272079
:104C3000FFF79CFF044680B90220FDF725F82046C7
:104C400038BD4FF0FF331C46F9E74FF0FF331C46E9
:104C5000F5E74FF0FF331C46F1E74FF0FF331C46FA
:104C6000EDE7000010B582B000238DF807300DF19C
:104C700007017520FFF766FF002851D19DF8073026
:104C8000712B50D101466B20FFF770FF0A20FCF713
:104C9000FBFF07211920FFF769FF03211A20FFF707
:104CA00065FF18211B20FFF761FF10211C20FFF773
:104CB0005DFF20216A20FFF759FF0D212420FFF717
:104CC00055FF0520FCF7E0FF032201A91020FFF7A4
:104CD00065FF044608B316210A20FFF795FF28BB9D
:104CE00002B010BD04F108036B4413F8040CFBF789
:104CF00019FB4FF08641FBF75FFA4FF07C51FBF751
:104D000065FB4FF07051FBF761FB4FF07E51FBF7F5
:104D100055FA084B43F824000134022CE2DDDAE7AF
:104D20004FF0FF30DCE74FF0FF30D9E76FF00100C4
:104D3000D6E700BF9800002070B586B004460A236D
:104D400002930623019304AB009301233B22D0215D
:104D5000444802F08FFD002878D104AD2846FFF7C3
:104D6000EBFEFBF7DFFA4FF06651FBF72FFB2060FD
:104D70000DF11200FFF7E0FEFBF7D4FA4FF0665199
:104D8000FBF724FB606005A8FFF7D6FEFBF7CAFA25
:104D90004FF06651FBF71AFBA0600A23029306232B
:104DA0000193009501234322D0212E4802F062FD99
:104DB00000284FD12846FFF7BFFEFBF7B3FA2A4978
:104DC000FBF7B8FBE0600DF11200FFF7B5FEFBF753
:104DD000A9FA2549FBF7AEFB206105A8FFF7ACFE59
:104DE000FBF7A0FA2049FBF7A5FB606106222946E4
:104DF0000320FFF7D3FE064680BB2846FFF79CFE44
:104E0000FBF790FA1949FBF7E1FA194D2968FBF70E
:104E1000DDFAA0610DF11200FFF78EFEFBF782FABA
:104E20001249FBF7D3FA6968FBF7D0FAE06105A8ED
:104E3000FFF782FEFBF776FA0C49FBF7C7FAA96881
:104E4000FBF7C4FA2062304606B070BD4FF0FF3366
:104E50001E46F8E76FF001031E46F4E76FF0020309
:104E60001E46F0E7D00A0020333383419A99193E59
:104E70009800002000B585B08DF80F0064230093E2
:104E800001230DF10F024021024802F081FB05B021
:104E900000BD00BFD00A002010B588B003AC0022CE
:104EA000039204920592069207921F4B596A41F4AD
:104EB00000615962596A21F4006159620092596C8B
:104EC00041F400615964596C01F40061009100994A
:104ED0000192196B41F004011963196B01F004018F
:104EE0000191019902921A6B42F008021A631B6B3E
:104EF00003F008030293029B4FF4F8530393022339
:104F0000049301230593032306930C23079321465F
:104F1000064801F07BFC042303932146044801F07A
:104F200075FC08B010BD00BF003802400008024008
:104F3000000C024008B5FFF7AFFF1248124B0360A8
:104F4000002343608360C360036143610223836184
:104F500003F0DAFE20B10D4B00221A60012008BDDB
:104F60004FF40061074803F0FDFE18B9074B01221A
:104F70001A60F4E7034803F0DAFA044B00221A60DF
:104F80000120ECE76C190020002C0140681900207A
:104F900008B5034803F0CBFA024B00221A6008BDA3
:104FA0006C19002068190020014B1868704700BF79
:104FB0006819002070B582B0124B1B6823B9012319
:104FC0001E46304602B070BD4FF47A73009313460C
:104FD0000A4601460C4803F0BDFA06460028F0D107
:104FE0000446094803F020FF0428EAD0651CB4F504
:104FF0007A7F04D2012001F043F82C46F1E7032325
:105000001E46DEE7681900206C19002070B582B0DA
:10501000124B1B6823B901231E46304602B070BDF7
:105020004FF47A73009313460A4601460C4803F086
:10503000B5FB06460028F0D10446094803F0F4FE0B
:105040000428EAD0651CB4F57A7F04D2012001F06F
:1050500017F82C46F1E703231E46DEE76819002007
:105060006C1900200C4B1B680BB90120704730B540
:1050700089B004460D466946084803F060FE40B911
:105080000CB1049B236015B1BDF814302B8009B01E
:1050900030BD0120FBE700BF681900206C1900201B
:1050A00010B485B0204B0FCB04AC04E90F004FF0D7
:1050B000000CBCF1020F30DC1C4B53F82C2022F00A
:1050C000030202F14042002303E0002142F82310D2
:1050D00001333F2BF9DD002003281BDC002307E010
:1050E00004A901EB800151F8101C42F82310013390
:1050F0003F2BF5DD00233F2B0ADC52F8234004A9A7
:1051000001EB800151F8101C8C4208D10133F2E709
:105110000130E1E70CF1010CCBE7002001E04FF09A
:10512000FF3005B010BC704720ED0208C80303082B
:10513000F0B593B00BAE00240B940C940D940E9428
:105140000F941094119406AD069407940894099452
:105150000A940094464B9A6B42F001029A639A6B50
:1051600002F001020092009A01941A6B42F02002B0
:105170001A631A6B02F020020192019A02941A6BD0
:1051800042F004021A631A6B02F004020292029ABD
:1051900003941A6B42F040021A631A6B02F0400249
:1051A0000392039A04941A6B42F010021A631A6B6A
:1051B00002F010020492049A05941A6B42F008025D
:1051C0001A631B6B03F008030593059B02270797DF
:1051D000032309930C230A934FF63F0306932946B2
:1051E000244801F013FB0D2306932946224801F0C1
:1051F0000DFB48F2371306932946204801F006FBC1
:105200004FF68373069329461D4801F0FFFA4CF2CE
:105210000373069329461B4801F0F8FA1A481B4B02
:1052200003604460012383600823C360102202618D
:10523000402242614FF4C0728261C4614FF4006247
:1052400002624FF4805242624FF4005282620B9726
:105250000C9306230D930E930F97109711973146D9
:1052600002F033FE08B913B0F0BD4FF0FF30FAE79B
:1052700000380240001402400008024000180240BA
:1052800000100240000C0240F0190020400100A074
:1052900000B585B094461A4600230093019302930B
:1052A0000393009168B910230193CDF808C00392CD
:1052B0004FF480526946054802F027FE18B905B040
:1052C00000BD0823F0E74FF0FF30F8E7F0190020A9
:1052D00010B50023012211461846FFF7D9FF0446F6
:1052E0004FF47A70FDF77AFC002301220221184660
:1052F000FFF7CEFF04430023012203211846FFF7E6
:10530000C7FF04434FF40C73012204210020FFF770
:10531000BFFF204310BD000008B5FFF709FF58B9D3
:10532000FFF7D6FF58B940F2AB21084802F00EFE55
:10533000FFF7B6FE30B908BD4FF0FF30FBE74FF086
:10534000FF30F8E74FF0FF30F5E700BFF01900201D
:1053500008B501220821034801F06FFB0120FDF789
:105360003DFC08BD0020024008B501224021034851
:1053700001F063FB0320FDF731FC08BD001C024077
:1053800008B500220821034801F057FB0120FDF772
:1053900025FC08BD0020024008B50022402103483A
:1053A00001F04BFB0320FDF719FC08BD001C024077
:1053B00008B50821034801F039FB012814BF00207B
:1053C000012008BD002002402DE9F04389B00022F1
:1053D00001921E4B196B41F080011963196B01F0AA
:1053E0008001019101990292196B41F48071196356
:1053F0001B6B03F480730293029B1123049301241B
:1054000005940223069307924FF04008CDF80C80D4
:105410000DF10C090E4F4946384601F0F7F9082600
:1054200003960C4D4946284601F0F0F922464146C4
:10543000384601F002FB22463146284601F0FDFACB
:105440001420FDF7CBFB09B0BDE8F0830038024023
:10545000001C02400020024008B5FFF779FFFFF76B
:1054600083FFFFF78DFFFFF797FF08BD08B5FFF734
:1054700093FFFFF785FFFFF777FFFFF769FF08BD91
:1054800038B50446002507E0FFF762FFFFF76CFF21
:105490006400E4B20135EDB2072D07D8FFF77CFFB9
:1054A00014F0800FF0D1FFF76BFFEFE7FFF774FF09
:1054B000FFF74EFFFFF758FFFFF77AFF0446FFF7AD
:1054C0006BFF0CB9204638BD4FF0FF34FAE770B5DA
:1054D0000646FFF761FFFFF73BFF0024254601E08A
:1054E0000135EDB2072D0FD8FFF756FF0320FDF76A
:1054F00075FBFFF739FF6400E4B2FFF759FF00289E
:10550000EED044F00104EBE7FFF746FF4EB1FFF7A2
:1055100037FFFFF729FFFFF73FFFFFF719FF20468F
:1055200070BDFFF715FFF4E710B51C4603468C4627
:10553000DFF864E0BEF800E0BEF1010F08D9174BB8
:105540001B88013B03FB00F00EF1FF3EB0FBFEF3B6
:105550001348008801280AD9DFF848C0BCF800C009
:105560000CF1FF3C01FB0CFC0138BCFBF0FC0B49CF
:105570000988994201D859B14B1E0A4909886145E9
:1055800002D839B101F1FF3C1380A4F800C010BD6E
:105590000B46F2E78C46F7E7261A0020A60000200B
:1055A000241A0020A400002030B587B0194D1A4CF1
:1055B0002946204601F0D7FA0295012303930223DE
:1055C00004930723059302A9204601F045FAD8B9B0
:1055D000124A0146204601F0BFFAC0B90246062130
:1055E000172000F0B9FD172000F0C6FD0C4BD9685C
:1055F00003F580631A68DB68062000900948FCF711
:10560000FDFA002007B030BD4FF0FF30FAE74FF051
:10561000FF30F7E7070000063C1A00202956000873
:105620000038014098FE020800B583B000230193C2
:105630000B4A1368013313600A4B186870B101A953
:1056400005F0BAF8019B4BB14FF0E0234FF08052C8
:10565000C3F8042DBFF34F8FBFF36F8F03B000BDAE
:105660002C1A0020381A002010B5FDF7D3FF04468D
:10567000FDF7EEFC0F4B1880FDF7F0FC0E4B188089
:10568000FDF7CCFF80B184B1A2890C4B1A80238A2C
:105690000B4A1380094A128812B9084A0121118065
:1056A00013B9074B01221A8010BD0123034A13804E
:1056B000EEE700BF261A0020241A0020A6000020D2
:1056C000A400002070B588B00024FDF7A7FF68B9DA
:1056D000322004F003FB323442F20F739C42F4D9BF
:1056E0002E48FCF78BFA4FF0FF3439E001232C4AA7
:1056F00013802C4A13802C4B1B68002B33D02A4B71
:105700001868002837D0002105F060F9FDF724FB68
:105710000146002835D1FFF747FF0446002836D15F
:10572000FFF7A2FFFDF784FC0646FDF785FC054662
:10573000FDF788FC03460022069205920492194A5E
:1057400012880392164A12880292184A128801920D
:10575000174A128800922A4631461648FCF74EFA3C
:10576000204608B070BD03221946012004F0B8FE9F
:105770000D4B1860C3E71048FCF740FA4FF0FF34B8
:10578000EEE70E48FCF73AFA4FF0FF34E8E70C4832
:10579000FCF734FA4FF0FF34E2E700BFE0FE020806
:1057A000A6000020A4000020381A0020241A00209F
:1057B000261A002074FF02080CFF020830FF0208BE
:1057C00058FF020808B50146044B186828B105F0D7
:1057D000FDF8012814BF0020012008BD381A002060
:1057E00010B58AB00023ADF81230ADF81030FDF7D7
:1057F00017FC00283FD0FFF737FF052105A8FDF76C
:1058000033FC041E3ADB15DC05F08CFCBDF81220DD
:105810001C4B1A80BDF810201B4B1A80002C17DD82
:1058200001221A4B1A7005F09FFC002C12DC204656
:105830000AB010BD04AB0DF11202BDF81610BDF890
:105840001400FFF771FE124A136801331360DBE79F
:105850000022E6E70F4B1B6802930194BDF810305D
:105860000093BDF81230BDF81620BDF814100A4898
:10587000FCF7C4F9DBE74FF0FF34D8E74FF0FF3413
:10588000D5E700BF341A0020321A0020301A002059
:10589000281A00202C1A0020D8FF0208034610B155
:1058A00005480088188011B1044B1B880B8012B189
:1058B000034B1B7813707047341A0020321A0020F3
:1058C000301A0020014B1868704700BF2C1A0020C6
:1058D000014B1868704700BF281A002008B505F072
:1058E00021FC074B1B6823B105F03EFC044B1868F4
:1058F00008BD012004F0E4FE014B1860F4E700BF8E
:10590000441A002010B588B003A9002403944C6009
:105910008C60CC600C6101941F4B1A6C42F48022A5
:105920001A641A6C02F480220192019A02941A6B92
:1059300042F002021A631B6B03F002030293029B04
:105940004FF4406303930223049303230693072336
:105950000793124800F05AFF1148124B03604FF4AE
:10596000E13343608460C460046184610C2343615B
:10597000C46101F0DAF960B900220621272000F0A5
:10598000EBFB272000F0F8FB074B01221A7008B050
:1059900010BDFCF79BF9EFE700380240000402401D
:1059A0005022002000480040481A00202DE9F04114
:1059B00007460E46314B1B7833B9304B1B788BBBF7
:1059C0001D462846BDE8F08104F030FB0228F4D1E2
:1059D000FFF784FF804628B14FF0FF3104F0F6FF57
:1059E000012847D105F09EFB00221546B24222DA7B
:1059F000234B1B889BB20133C3F30A032149098857
:105A000089B2994217D01E48018889B217F802E07E
:105A1000DFF874C00CF801E003802B4601331D460B
:105A20000132E3E74FF0FF33B2B23946174801F0D5
:105A3000ABF93546C5E7164B1B7883B9104B1A886E
:105A400092B2104B1B889BB29A4208D0104B012295
:105A50001A700E4B1A68D36843F08003D36005F0C8
:105A600083FB40460028ACD000231A46194604F0B8
:105A700063FDA6E700231D46A3E700BF481A0020E8
:105A80004C1A00204A1A0020501A002050220020F0
:105A9000491A0020144B1B681A6812F0800F15D0A9
:105AA0001249088880B21249098889B2884212D006
:105AB0000E48018889B2DFF83CC01CF8011059601B
:105AC000018889B20131C1F30A01018012F0200F6F
:105AD00000D05B687047D96821F08001D960064921
