:020000040800F2
:1000000000000320AD1A0008890C00088B0C0008C2
:100010008D0C00088F0C0008910C000800000000F7
:10002000000000000000000000000000614D00081A
:10003000930C000800000000B14D0008054F0008B7
:10004000FD1A0008FD1A0008FD1A0008FD1A000834
:10005000FD1A0008FD1A0008FD1A0008FD1A000824
:10006000FD1A0008FD1A0008FD1A0008FD1A000814
:10007000FD1A0008FD1A0008FD1A0008FD1A000804
:10008000FD1A0008FD1A0008FD1A0008FD1A0008F4
:10009000FD1A0008FD1A0008FD1A0008FD1A0008E4
:1000A000FD1A0008FD1A0008950C0008FD1A00084A
:1000B000FD1A0008FD1A0008FD1A0008FD1A0008C4
:1000C000FD1A0008FD1A0008FD1A0008FD1A0008B4
:1000D000FD1A0008FD1A0008FD1A0008291A000878
:1000E000FD1A0008FD1A0008FD1A0008FD1A000894
:1000F000FD1A0008FD1A0008FD1A0008FD1A000884
:10010000FD1A0008FD1A0008FD1A0008FD1A000873
:10011000FD1A0008FD1A0008FD1A0008FD1A000863
:10012000FD1A0008FD1A0008FD1A0008FD1A000853
:10013000FD1A0008FD1A0008FD1A0008FD1A000843
:10014000FD1A0008FD1A0008FD1A0008A50C000899
:10015000FD1A0008FD1A0008FD1A0008FD1A000823
:10016000FD1A0008FD1A0008FD1A0008FD1A000813
:10017000FD1A0008FD1A0008FD1A0008FD1A000803
:10018000FD1A0008FD1A0008FD1A0008FD1A0008F3
:10019000FD1A0008FD1A0008FD1A0008FD1A0008E3
:0C01A000FD1A0008FD1A0008FD1A0008F6
:1001B00053B94AB9002908BF00281CBF4FF0FF31CE
:1001C0004FF0FF3000F00CB8ADF1080C6DE904CE33
:1001D0000DF0A6F8DDF804E0DDE9022304B0704775
:1001E000704700BF10F8012B11F8013B012A28BF0E
:1001F0009A42F7D0D01A7047034613F8012B002A11
:10020000FBD1181A01387047000000000000000000
:1002100001F0FF01102A2BDB10F0070F08D010F8B7
:10022000013B013A8B422DD010F0070F42B3F6D1BB
:10023000F0B441EA012141EA014122F007047FF0D4
:1002400000070023F0E80256083C85EA010586EA2B
:10025000010685FA47F5A3FA87F586FA47F6A5FA67
:1002600087F68EB9EED1F0BC01F0FF0102F0070273
:1002700032B110F8013B013A83EA010313B1F8D11E
:100280000020704701387047002D06BF35460338FF
:10029000073815F0010F07D1013015F4807F02BF38
:1002A000013015F4C03F0130F0BC0138704700BF89
:1002B0000348044B834202D0034B03B118477047F5
:1002C000AC000020AC000020000000000548064BF8
:1002D0001B1AD90F01EBA301491002D0034B03B144
:1002E00018477047AC000020AC0000200000000060
:1002F00010B5064C237843B9FFF7DAFF044B13B16E
:100300000448AFF300800123237010BDAC0000202F
:100310000000000000E3000808B5054B1BB10549CB
:100320000548AFF30080BDE80840FFF7CFBF00BF2E
:1003300000000000B000002000E30008002310B51A
:100340000446C0E90033C0E9043383608181436619
:10035000C2818361194608225C3000F0F6F80D4B2B
:1003600063620D4BA3620D4BE3620D4B23630D4B98
:1003700024629C4206D003F16802944202D0D0333A
:100380009C4205D104F15800BDE8104000F050B97E
:1003900010BD00BFC3040008E50400081D050008E7
:1003A00043050008C8000020024A0349034800F042
:1003B0006BB800BF000000201D09000810000020DD
:1003C00041680C4B994210B5044601D000F0A6FAE2
:1003D000A168094B994202D0204600F09FFAE168DB
:1003E000064B994204D02046BDE8104000F096BA72
:1003F00010BD00BFC800002030010020980100207F
:1004000010B50A4B0A4A1A600A4800220421FFF775
:1004100095FF094801220921FFF790FFBDE8104030
:10042000064802221221FFF789BF00BF0002002008
:10043000A9030008C8000020300100209801002016
:10044000014800F0F6B800BF09020020014800F0A2
:10045000F1B800BF0902002010B50446FFF7F0FF15
:10046000236A1BB1BDE81040FFF7F0BF044B2362C5
:10047000044B1B68002BF5D1FFF7C2FFF2E700BF6A
:10048000C1030008000200202DE9F8438046894698
:1004900014460026D4E90175013F05D52468002CD7
:1004A000F8D13046BDE8F883AB89012B07D9B5F9FF
:1004B0000E30013303D029464046C847064368350D
:1004C000EAE710B50C46B1F90E1000F069F8002803
:1004D000ABBF636DA3891B1823F48053ACBF636566
:1004E000A38110BD2DE9F0411F468B89DB05054630
:1004F0000C46164605D5B1F90E100223002200F075
:100500003DF8A389B4F90E1023F48053A381324639
:100510003B462846BDE8F04100F054B810B50C4603
:10052000B1F90E1000F02AF8B4F90C30421C0BBFE0
:1005300023F4805343F48053A381A38118BF6065E3
:1005400010BDB1F90E1000F009B802440346934201
:1005500000D1704703F8011BF9E7000038B5064CDD
:10056000002305460846236000F0C6FB431C02D169
:10057000236803B12B6038BD0402002038B5074C56
:10058000054608461146002222601A4600F0B9FBD3
:10059000431C02D1236803B12B6038BD0402002044
:1005A00038B5074C054608461146002222601A4617
:1005B00000F0A5FB431C02D1236803B12B6038BDBA
:1005C0000402002038B5074C0546084611460022B3
:1005D00022601A4600F07EFB431C02D1236803B15F
:1005E0002B6038BD0402002070B50D4B0D4C002669
:1005F0001D1BB6EBA50F09D10DF082FE0A4C0B4B6B
:1006000000261D1BB6EBA50F05D170BD54F8043BA9
:1006100098470136EDE754F8043B98470136F1E777
:1006200098EE000898EE000898EE00089CEE00088E
:10063000704770477047000037B5002944D051F823
:10064000043C0190002BA1F10404B8BFE41800F0B1
:10065000DDF81E4A0198136833B96360146003B073
:10066000BDE8304000F0D8B8A34208D92568611928
:100670008B4201BF19685B6849192160EDE71A4692
:100680005B680BB1A342FAD911685518A5420BD18A
:10069000246821445418A3421160E0D11C685B68AF
:1006A00053600C441460DAE702D90C230360D6E7E8
:1006B000256861198B4204BF19685B68636004BFD9
:1006C000491921605460CAE703B030BD1002002010
:1006D00070B50F4C0E462168054611B900F046F979
:1006E00020603146284600F041F9431C03D14FF009
:1006F000FF34204670BDC41C24F00304A042F8D08F
:10070000211A284600F032F90130F2D1EFE700BF9C
:100710000C0200202DE9F843CD1C25F00305083517
:100720000C2D38BF0C25002D064601DBA94204D94B
:100730000C2333600020BDE8F883334F00F066F8E7
:100740003B681C463CBB29463046FFF7C1FF431CB3
:10075000044656D13C68A046B8F1000F40D1002CA9
:1007600049D023684146304604EB030900F0FEF807
:10077000814540D121686D1A29463046FFF7A8FF10
:10078000013038D023682B4423603B685A685ABB39
:10079000C7F800800EE02268521B1ED40B2A16D91F
:1007A0006119A342256018BF5960636808BF3960AA
:1007B00062514B60304600F02FF804F10B00231D0E
:1007C00020F00700C21A1CBF1B1AA350B3E76268CF
:1007D000A3420CBF3A605A60ECE723466468B1E775
:1007E0004446D8F80480B7E71A465B68A342FBD1B9
:1007F00000235360DEE70C233360304600F00CF832
:1008000098E70560D6E700BF100200200148FFF717
:1008100010BF00BF080200200148FFF70BBF00BF58
:1008200008020020B1F90C20F8B5160705460C4661
:1008300051D44B68002B02DC0B6C002B49DDE66ABF
:10084000002E46D0002312F480522F682B6031D046
:10085000626DA389590705D56368D21A636B0BB122
:10086000236CD21A0023E66A216A2846B047421C4C
:10087000B4F90C3006D129681D2944D8264ACA404B
:10088000D60740D500226260D9042269226004D5CF
:10089000421C01D12B6803B96065616B2F60C1B147
:1008A00004F14403994202D02846FFF7C5FE002315
:1008B00063630EE0216A01232846B0470246501CBC
:1008C000C7D12B68002BC4D01D2B01D0162B19D1FA
:1008D0002F6000201CE00F69002FFAD093070E68EC
:1008E00008BF4B690F6018BF0023F61B8B60002EFA
:1008F000EFDD216AD4F828C033463A462846E0475F
:10090000002806DCA38943F04003A3814FF0FF30A9
:10091000F8BD0744361AEAE70100402038B50B69F4
:1009200005460C4613B91D46284638BD18B1036A62
:100930000BB9FFF791FDB4F90C30002BF3D0626EC8
:10094000D00704D4990502D4A06DFFF772FE2846A3
:100950002146FFF767FF636EDA070546E4D4A389F3
:100960009B05E1D4A06DFFF765FEDDE738B5064CC9
:10097000002305460846236000F09AF9431C02D183
:10098000236803B12B6038BD0402002010B5002499
:100990000FE0002000F0CCFD16E0052B26D1012051
:1009A00000F0C6FD02E0012000F09AFD642003F093
:1009B000ADF801340F4A82FB0432E317C3EB620344
:1009C00003EB83039C42E4D00B4B1A78D3B2042A86
:1009D000E9D0042BE1D8023BDBB2012B06D814F09E
:1009E000030FE3D1012000F0A3FDDFE7012000F0B9
:1009F0008BFDDBE767666666A404002000B583B064
:100A000072B6012000F094FD00230193019A034B7C
:100A10009A42F6D8019B01330193F7E7FEFF0100EC
:100A200010B594B008AC302200212046FFF78DFDB0
:100A30000023039304930593069307930193204A9D
:100A4000116C41F080511164126C02F080520192DD
:100A5000019A02931B4B1A6842F440421A601B68C9
:100A600003F440430293029B012308934FF4803325
:100A7000099302230E934FF480020F9219221092D1
:100A80004FF4A8721192129307231393204601F09A
:100A9000CFF888B90F2303930223049305904FF4F2
:100AA000A05306934FF480530793052103A801F048
:100AB00011FB18B914B010BDFFF7A0FFFFF79EFFA0
:100AC000003802400070004000B583B001F018F813
:100AD000FFF7A6FF00F0D6FC002000F015FD012076
:100AE00000F012FD00F0C6FE23480CF009FE00F0F5
:100AF000F1FB00F03BFC7F2000F02CFD1F480CF0C8
:100B0000FFFD1F480CF0FCFD00F098FE20B11D48D1
:100B10000CF0F6FDFFF772FF1B480CF0F1FD1B48CF
:100B200004F00CFC1A480CF0EBFD00F04DFB20B972
:100B300018480CF0E5FDFFF761FF17480CF0E0FDE9
:100B4000002401940323009323464FF48062134949
:100B5000134802F0E9FD01940123009323464FF46A
:100B600080721049104802F0DFFD84F3118862B6EC
:100B700002F01AFEFFF742FF4CE300085CE30008B6
:100B800074E3000884E3000898E300085C00002098
:100B9000A8E30008D8E30008F0E300080CE400082C
:100BA0001112000814E400088D09000808B5FFF7C9
:100BB00025FF08B5FFF722FF08B5FFF71FFF00006C
:100BC00030B589B0054600230193244B5A6C42F49A
:100BD00080225A645B6C03F480230193019B02A979
:100BE00003A801F04DFB079BF3B901F039FB034665
:100BF0001B4AA2FB03239B0C013B1A481A4A0260C2
:100C000040F2E732C2604360002303618360836186
:100C100002F078FA044658B11A2001F005F8C4B978
:100C20000F2D0ED9012415E001F01AFB4300DFE778
:100C30000C4C204602F028F9204602F0E3F8044666
:100C4000EAE7224629461A2000F0DEFF074B1D6026
:100C500000E00124204609B030BD00BF003802404A
:100C600083DE1B4314020020004801407400002072
:100C700008B50268034B9A4200D008BD00F05AFF45
:100C8000FBE700BF00480140FEE7FEE7FEE7FEE7A6
:100C9000FEE7704708B5024802F013F908BD00BF2F
:100CA0001402002008B50121002009F009F908BD4F
:100CB0000346064A126822B1044A106803441360CE
:100CC0007047024A02491160F6E700BF5C0200204B
:100CD0004817002010B5431E012B06D808461446BD
:100CE000114600F01BFE204610BD0CF0F3FD092359
:100CF00003604FF0FF30F7E74FF0FF307047002000
:100D00007047002070474FF400534B60002070473D
:100D100001207047024B00221A700120704700BF6B
:100D20006402002010B5044602E0012002F0EEFE4D
:100D3000024B1B5D002BF8D110BD00BF64020020E8
:100D400070B5ADF51C7D1D480CF080F91C480CF009
:100D50007DF996AC1B4D0FCD0FC495E8030084E8D8
:100D60000300002404E0294617480CF061FC01341C
:100D7000022C1FD89CAB03EBC40353F8185C0A2267
:100D8000294602A80BF0B8FC02460028EBD19CAB28
:100D900003EBC40353F8146C3046FFF72DFA0246F8
:100DA00002AD01AB314628460BF003FF28460CF09C
:100DB000C5F8DCE70DF51C7D70BD00BF18E4000828
:100DC00020E4000818E300082CE4000870B590B097
:100DD00006460D46002423460AE0591C03F1400054
:100DE0000DEB000C0CF8402C3F2B0ED001340B46C1
:100DF000AC420FD2325D1F2AEFD80D2AEDD00A2A5D
:100E0000EBD0092AE9D02E22E7E7684600F086FDFC
:100E10000021EBE70BB910B070BD1946684600F031
:100E20007DFDF8E730B5ADF5277D0C460122014682
:100E300012A80BF061FC28B921461E480CF0F8FB03
:100E4000002409E001461C480CF0F2FB24E002A853
:100E5000FFF7BCFF019B1C4401AB402202A912A872
:100E60000BF0C0FD054670B9019951B10B19B3F5EE
:100E7000006FECD9C4F5006102A8FFF7A7FF0124B9
:100E800002E00C4600E000244DB912A80CF056F820
:100E900054B90A480CF034FC0DF5277D30BD2946C5
:100EA00007480CF0C5FBF0E74FF4006105480CF073
:100EB000BFFBEEE764E400084CE40008C0E400086F
:100EC00084E40008A0E40008F0B5ADF52F7D1D46D0
:100ED000052902DD0DF52F7DF0BD04460F461646AF
:100EE00001469AA80CF03AF8024600BB52A99AA80B
:100EF0000CF080F80146F8B99DF86231FBB1294940
:100F00000DF5B170FFF76EF90028EFD026490DF509
:100F1000B170FFF767F90028E8D02046FFF76CF9B9
:100F200088B1431EE35C2F2B2DD0204A0CE02146D4
:100F30001F480CF07DFBCDE71E480CF079FB9AA80A
:100F40000CF04EF8C6E7194A0DF5B1730193009203
:100F50002346194A4FF4A07102A80CF0D9FB9DF862
:100F6000543113F0100F10D02B6801332B6002A9FD
:100F700012480CF05DFB2B4632463946013102A87F
:100F8000FFF7A2FFB2E70E4ADEE7336801333360B2
:100F9000529A02A90B480CF04BFB529902A8FFF79A
:100FA00041FFA3E710E5000814E50008D0E40008BD
:100FB000D4E40008F4E4000818E5000820E500087F
:100FC00044E500082CE5000810B582B00024019427
:100FD000009410480CF094FBFFF7B2FE0E480CF0A2
:100FE0008FFB6B4601AA21460C48FFF76DFF019A63
:100FF00000990B480CF01CFB202004F0BBF838B122
:101000000446014607480CF013FB204604F056F94D
:1010100002B010BD48E500085CE5000888E500085E
:101020008CE50008C0E5000800B583B0144B1B68D0
:10103000ADF804301B0C8DF8063005E011480CF0BB
:10104000F7FA114B05221A704FF0FF310F4B186859
:1010500003F070FB012006F02FFC0028F4D00A4BAF
:1010600003221A70012201A909480BF019FB01465D
:101070000028E3D1044B04221A70FFF7A5FFE3E731
:1010800008E60008F0E50008A40400206002002043
:101090006802002008B50130C0B206F00DFC08B1AE
:1010A000002008BD0220FCE70020704730B585B065
:1010B000044601300C4D4FF0010C05F804C000252A
:1010C0000295DFF828C0CDF804C09BB20093134608
:1010D0000A462946C0B206F065FD2046FFF722FE0B
:1010E000284605B030BD00BF64020020150D000881
:1010F00030B585B0044601300C4D4FF0010C05F8B9
:1011000004C000250295DFF828C0CDF804C09BB2CA
:10111000009313460A462946C0B206F09FFD2046BA
:10112000FFF700FE284605B030BD00BF6402002076
:10113000150D000810B514460130C0B2022913D0B5
:101140000AD8B9B1012905D1002106F099FB206028
:10115000002010BD0420FCE7032903D10123136004
:101160000020F6E70420F4E7002106F097FB20803A
:101170000020EEE70846ECE708B507480CF0C0FA97
:10118000064B02221A70064B186820B100231A463B
:10119000194603F0E9F808BD0CE60008A404002095
:1011A0006002002008B505480CF0AAFA0020044BA4
:1011B0001870024603490BF073FA08BD2CE60008CC
:1011C000A404002008E6000800B583B000210C4B01
:1011D00019700322012003F09BF80A4B186060B1DC
:1011E00000230193022200924FF40062064907484F
:1011F00002F09AFA012800D0002003B000BD00BF21
:10120000640200206002002040E600082910000867
:1012100000B583B000F00CFC0B4B1B8BADF8043019
:1012200001A9002004F004F940B108480CF068FA64
:1012300000214FF0FF3005F06BF8F9E704480CF09F
:101240005FFAFFF7DBFBF0E718E300085CE6000855
:1012500048E6000884B00190019B03EBC3035B00E8
:10126000039300E000BF039B5A1E0392002BF9D1A9
:1012700004B0704700B587B001A9002301934B600B
:101280008B60CB600B611023019301230293032336
:101290000493024801F012F807B000BD001C0240A0
:1012A00000B587B001A9002301934B608B60CB6030
:1012B0000B61302301931223029301230393032331
:1012C000049304230593024800F0F8FF07B000BD23
:1012D000001C024010B588B003A9002403944C60A0
:1012E0008C60CC600C6101941B4B1A6C42F4800240
:1012F0001A641A6C02F480020192019A02941A6B29
:1013000042F080021A631B6B03F080030293029B7E
:10131000302303931223049301230593032306939D
:10132000042307930D4800F0C9FF0D480D4B0360DF
:101330000D4B43608460C4604FF48043036144619B
:101340008461C461046201F095FB08B908B010BD66
:10135000FFF754FBFAE700BF00380240001C0240D0
:10136000A804002000580040A0860100424B1B68E2
:101370005A699B6941490969C3F3400311F0200F81
:1013800004D002F4E0620BB9002A6AD0F0B587B04D
:10139000FFF770FF01221021384801F09FF80A2062
:1013A000FFF758FF0025082D16DC344C00221021D1
:1013B000204601F093F80A20FFF74CFF012210218C
:1013C000204601F08BF80A20FFF744FF236913F051
:1013D000200F01D10135E6E701A9002401944C60FA
:1013E0008C60CC600C6120260196012702970323B4
:1013F0000493224D284600F061FF224631462846DC
:1014000001F06CF80A20FFF725FF3A4631462846DE
:1014100001F064F80A20FFF71DFF174D284601F080
:1014200016FC284601F026FBFFF73AFF144B6B60D1
:10143000AC60EC604FF480432B616C61AC61EC619B
:101440002C62284601F016FB68B92B689B6913F0E3
:10145000020F0BD1094B1B6913F0200F09D007B005
:10146000F0BD104670474FF0FF30F8E74FF0FF3007
:10147000F5E74FF0FF30F2E7A8040020001C02401F
:10148000A086010030B587B001A9002301934B600D
:101490008B60CB600B6100930F4B1A6B42F0020222
:1014A0001A631B6B03F002030093009B0323019359
:1014B000012402940394094D284600F0FFFE2246C1
:1014C0000221284601F00AF822462146284601F06A
:1014D00005F807B030BD00BF0038024000040240EC
:1014E00008B540B90246022100F1804000F5013004
:1014F00000F0F4FF08BD00220121024800F0EEFFD9
:10150000F8E700BF0004024008B540B901220221FB
:1015100000F1804000F5013000F0E0FF08BD01223D
:101520001146024800F0DAFFF8E700BF000402406D
:1015300008B538B9022100F1804000F5013000F013
:10154000D3FF08BD0121024800F0CEFFF9E700BF3C
:101550000004024000B585B08DF80F0064230093AD
:1015600001230DF10F024021024801F089FB05B073
:1015700000BD00BFA80400200E4AD2F8FC3043F0A2
:101580008073C2F8FC30A2F55D42136843F001039A
:10159000136000235360084B1B680849A1FB031329
:1015A0009B0C03FB00F05268054B5B689B1A83425F
:1015B000FAD3704700ED00E06C00002083DE1B438F
:1015C000001000E010B485B0204B0FCB04AC04E950
:1015D0000F004FF0000CBCF1020F30DC1C4B53F835
:1015E0002C2022F0030202F14042002303E00021FC
:1015F00042F8231001333F2BF9DD002003281BDCC8
:10160000002307E004A901EB800151F8101C42F807
:10161000231001333F2BF5DD00233F2B0ADC52F86A
:10162000234004A901EB800151F8101C8C4208D121
:101630000133F2E70130E1E70CF1010CCBE70020C8
:1016400001E04FF0FF3005B010BC704734E30008F4
:101650008CE90008F0B593B00BAE00240B940C9409
:101660000D940E940F941094119406AD0694079463
:10167000089409940A940094464B9A6B42F0010234
:101680009A639A6B02F001020092009A01941A6B1D
:1016900042F020021A631A6B02F020020192019AB2
:1016A00002941A6B42F004021A631A6B02F00402ED
:1016B0000292029A03941A6B42F040021A631A6B68
:1016C00002F040020392039A04941A6B42F0100253
:1016D0001A631A6B02F010020492049A05941A6BB2
:1016E00042F008021A631B6B03F008030593059B85
:1016F00002270797032309930C230A934FF63F030E
:1017000006932946244800F0D9FD0D230693294667
:10171000224800F0D3FD48F23713069329462048AB
:1017200000F0CCFD4FF68373069329461D4800F068
:10173000C5FD4CF20373069329461B4800F0BEFD1D
:101740001A481B4B03604460012383600823C36075
:1017500010220261402242614FF4C0728261C46172
:101760004FF4006202624FF4805242624FF4005222
:1017700082620B970C9306230D930E930F9710978D
:101780001197314601F0EDFC08B913B0F0BD4FF0F0
:10179000FF30FAE70038024000140240000802401F
:1017A0000018024000100240000C0240FC0400201F
:1017B000400100A000B585B094461A46002300936E
:1017C000019302930393009168B910230193CDF81C
:1017D00008C003924FF480526946054801F0E1FCCD
:1017E00018B905B000BD0823F0E74FF0FF30F8E767
:1017F000FC04002010B50023012211461846FFF713
:10180000D9FF04464FF47A70FFF7B6FE0023012299
:1018100002211846FFF7CEFF0443002301220321D3
:101820001846FFF7C7FF04434FF40C73012204214D
:101830000020FFF7BFFF204310BD000008B5FFF7F1
:1018400009FF58B9FFF7D6FF58B940F2AB21084855
:1018500001F0C8FCFFF7B6FE30B908BD4FF0FF300D
:10186000FBE74FF0FF30F8E74FF0FF30F5E700BF40
:10187000FC04002010B588B003A9002403944C6038
:101880008C60CC600C6101941F4B1A6C42F4802276
:101890001A641A6C02F480220192019A02941A6B63
:1018A00042F002021A631B6B03F002030293029BD5
:1018B0004FF4406303930223049303230693072307
:1018C0000793124800F0FAFC1148124B03604FF4E2
:1018D000E13343608460C460046184610C2343612C
:1018E000C46100F0D4FE60B900220621272000F078
:1018F0008BF9272000F098F9074B01221A7008B0E5
:1019000010BDFFF77BF8EFE700380240000402400B
:1019100038070020004800403005002070B506461A
:101920000D46214B1B78EBB103F0B4FA00221446AC
:10193000AA4220DA1D4B1B889BB20133C3F3080374
:101940001B49098889B2994215D01848018889B283
:1019500016F802E0DFF85CC00CF801E00380013407
:101960000132E5E74FF0FF338AB20146124800F03A
:10197000BDFE2C4615E0114B1B7883B90B4B1A8822
:1019800092B20B4B1B889BB29A4208D00B4B0122A0
:101990001A70094B1A68D36843F08003D36003F0D0
:1019A0009BFA204670BD00BF3005002034050020A2
:1019B00032050020380500203807002031050020BE
:1019C000144B1B681A6812F0800F15D01249088852
:1019D00080B21249098889B2884212D00E48018823
:1019E00089B2DFF83CC01CF801105960018889B247
:1019F0000131C1F30801018012F0200F00D05B68B3
:101A00007047D96821F08001D9600649002008702C
:101A1000F2E700BF3807002032050020340500201F
:101A2000380500203105002008B5FFF7C9FF08BDC3
:101A300010B588B003A9002403944C608C60CC607E
:101A40000C61174B5A6B42F080025A6301945A6C36
:101A500042F480425A645A6C02F480420192019A24
:101A600002941A6B42F001021A631B6B03F001032C
:101A70000293029B4FF4C053039302230493032366
:101A800006930A230793074800F018FC2246052115
:101A9000432000F0B9F8432000F0C6F808B010BDAC
:101AA000003802400000024070470000DFF834D0E8
:101AB0000D480E490E4A002302E0D458C4500433A6
:101AC000C4188C42F9D30B4A0B4C002301E013607D
:101AD0000432A242FBD3FFF7E7FFFEF785FDFEF7D6
:101AE000F3FF70470000032000000020AC0000203E
:101AF000A0EE0008AC00002044170020FEE770476D
:101B000008B50B4B1A6842F400721A601A6842F466
:101B100080621A601A6842F480721A60032000F032
:101B200061F80F20FFF74CF8FFF7E9FF002008BD30
:101B3000003C0240034A1168034B1B780B441360BE
:101B4000704700BF7C07002070000020014B186820
:101B5000704700BF7C070020002807DB00F01F0251
:101B6000400901239340024A42F82030704700BFE9
:101B700000E100E0002808DB0901C9B200F1604083
:101B800000F5614080F80013704700F00F00090174
:101B9000C9B2014B1954704714ED00E000B500F0D4
:101BA0000700A0F1030CBCF1040F07D8C0F1070E29
:101BB0000430062806D84FF0000C03E04FF0040E66
:101BC0004FF0000C4FF0FF3303FA0EF021EA000152
:101BD00001FA0CF103FA0CF322EA030241EA0200D3
:101BE00000BD0000074AD36823F4E0631B041B0C0C
:101BF000000200F4E060034343F0BF6343F40033AA
:101C0000D360704700ED00E010B50446054BD8687E
:101C1000C0F30220FFF7C2FF01462046FFF7AAFFEC
:101C200010BD00BF00ED00E008B5FFF795FF08BD4F
:101C3000002800F0E28170B582B00446036813F01A
:101C4000010F3BD09B4B9B6803F00C03042B2CD063
:101C5000984B9B6803F00C03082B21D06368B3F505
:101C6000803F4FD0B3F5A02F52D0924B1A6822F488
:101C700080321A601A6822F480221A606368002B8E
:101C800050D0FFF763FF05468A4B1B6813F4003FF3
:101C900014D1FFF75BFF401B6428F5D90320B3E1A3
:101CA000844B5B6813F4800FD8D0824B1B6813F40D
:101CB000003F03D06368002B00F0A181236813F07C
:101CC000020F54D07B4B9B6813F00C0F3ED0794B26
:101CD0009B6803F00C03082B33D0E368002B68D01B
:101CE000754B01221A60FFF731FF0546714B1B68E7
:101CF00013F0020F54D1FFF729FF401B0228F5D93A
:101D0000032081E16B4A136843F480331360B5E725
:101D1000684B1A6842F480221A601A6842F48032D2
:101D20001A60ABE7FFF712FF0546624B1B6813F41E
:101D3000003FC3D0FFF70AFF401B6428F5D90320FA
:101D400062E15C4B5B6813F4800FC6D1594B1B6892
:101D500013F0020F03D0E368012B40F05281554A83
:101D6000136823F0F803216943EAC1031360236871
:101D700013F0080F42D063696BB34F4B0122C3F8D5
:101D8000802EFFF7E3FE05464A4B5B6F13F0020F10
:101D900034D1FFF7DBFE401B0228F5D9032033E1E5
:101DA000444A136823F0F803216943EAC10313602E
:101DB000DDE7414B00221A60FFF7C8FE05463D4BA8
:101DC0001B6813F0020FD2D0FFF7C0FE401B0228A1
:101DD000F5D9032018E1384B0022C3F8802EFFF715
:101DE000B5FE0546334B5B6F13F0020F06D0FFF7CD
:101DF000ADFE401B0228F5D9032005E1236813F04E
:101E0000040F79D02B4B1B6C13F0805F34D100236F
:101E10000193284B1A6C42F080521A641B6C03F039
:101E200080530193019B01231E46244B1B6813F42E
:101E3000807F24D0A368012B35D0052B40D01D4BCB
:101E40001A6F22F001021A671A6F22F004021A6751
:101E5000A368002B3ED0FFF779FE0546154B1B6F9C
:101E600013F0020F47D1FFF771FE401B41F2883398
:101E70009842F3D90320C7E000231E46D5E70F4A56
:101E8000136843F480731360FFF760FE05460B4B45
:101E90001B6813F4807FCDD1FFF758FE401B02284A
:101EA000F5D90320B0E0034A136F43F00103136731
:101EB000CEE700BF003802400000474200700040FB
:101EC000584B1A6F42F004021A671A6F42F001026F
:101ED0001A67BDE7FFF73AFE0546524B1B6F13F03A
:101EE000020F08D0FFF732FE401B41F288339842C0
:101EF000F3D9032088E0EEB9A369002B00F08380BA
:101F0000484A926802F00C02082A51D0022B17D0DE
:101F1000454B00221A66FFF719FE0446414B1B6829
:101F200013F0007F42D0FFF711FE001B0228F5D905
:101F3000032069E03B4A136C23F080531364DBE712
:101F4000394B00221A66FFF701FE0546354B1B6828
:101F500013F0007F06D0FFF7F9FD401B0228F5D9EA
:101F6000032051E0E369226A1343626A43EA821361
:101F7000A26A5208013A43EA0243E26A43EA026370
:101F8000284A5360284B01221A66FFF7DFFD0446FA
:101F9000244B1B6813F0007F06D1FFF7D7FD001B11
:101FA0000228F5D903202FE000202DE000202BE0AF
:101FB000012B2BD01B4B5B6803F48001E26991423B
:101FC00026D103F03F02216A8A4223D1616A47F693
:101FD000C0721A40B2EB811F1ED103F44031A26AD5
:101FE0005208013AB1EB024F18D103F07063E26A74
:101FF000B3EB026F14D1002006E0012070470120EE
:1020000002E0012000E0184602B070BD0120FBE7AD
:102010000120F9E70120F7E70120F5E70120F3E7C8
:102020000120F1E7003802400000474208B5264B86
:102030009B6803F00C03042B41D0082B41D1224BA9
:102040005A6802F03F025B6813F4800F12D01E4BF7
:102050005968C1F388111D480023A1FB0001FEF758
:10206000A7F8194B5B68C3F3014301335B00B0FB76
:10207000F3F008BD144B5868C0F388104FEA401CB9
:10208000BCEB000C6EEB0E0E4FEA8E1343EA9C6322
:102090004FEA8C11B1EB0C0163EB0E03DB0043EA5A
:1020A0005173C90011EB000C43F1000399020023A6
:1020B0004FEA8C2041EA9C51FEF77AF8D1E70348B9
:1020C000D7E70348D5E700BF0038024040787D01DC
:1020D0000024F400002800F09B8070B50D460446F3
:1020E0004F4B1B6803F00F038B4208D2CBB24C4A14
:1020F0001370136803F00F038B4240F08B8023684A
:1021000013F0020F17D013F0040F04D0454A936860
:1021100043F4E0539360236813F0080F04D0414A5E
:10212000936843F4604393603E4A936823F0F0035E
:10213000A1680B439360236813F0010F32D06368EA
:10214000012B21D09A1E012A25D9364A126812F095
:10215000020F61D033498A6822F0030213438B6077
:10216000FFF7F4FC06462F4B9B6803F00C036268F4
:10217000B3EB820F16D0FFF7E9FC801B41F28833E6
:102180009842F0D9032042E0264A126812F4003F38
:10219000E0D101203BE0234A126812F0007FD9D140
:1021A000012034E01E4B1B6803F00F03AB4207D93C
:1021B000EAB21B4B1A701B6803F00F03AB422DD120
:1021C000236813F0040F06D0164A936823F4E053F3
:1021D000E1680B439360236813F0080F07D0114A9E
:1021E000936823F46043216943EAC1039360FFF7D6
:1021F0001DFF0C4B9B68C3F303130B4AD35CD84001
:102200000A4B18600A4B1868FEF7DAFC002070BD14
:10221000012070470120FAE70120F8E70120F6E7E6
:10222000003C024000380240A0E900086C00002099
:1022300074000020014B1868704700BF6C0000203C
:1022400008B5FFF7F7FF044B9B68C3F38223034AEB
:10225000D35CD84008BD00BF0038024098E90008B0
:1022600008B5FFF7E7FF044B9B68C3F34233034A0B
:10227000D35CD84008BD00BF0038024098E9000890
:102280000F2303600B4B9A6802F0030242609A68C6
:1022900002F0F00282609A6802F4E052C2609B6829
:1022A000DB0803F4E0530361034B1B6803F00F03E7
:1022B0000B60704700380240003C024030B583B0EC
:1022C0008E46002369E085684FEA430C032101FA3A
:1022D0000CF125EA0105DEF80C1001FA0CF1294396
:1022E0008160416821EA0201DEF80420C2F3001295
:1022F0009A400A43426065E0D908083150F821202D
:1023000003F00705AD004FF00F0C0CFA05FC22EAB4
:102310000C0CDEF81020AA4042EA0C0240F8212002
:1023200067E0092200E0002202FA0CF22A4302319F
:10233000664D45F82120664A9168E24321EA04058A
:10234000DEF804C01CF4801F01D044EA0105604996
:102350008D60C96802EA0105DEF804C01CF4001FA4
:1023600001D044EA01055A49CD60496802EA0105F5
:10237000DEF804C01CF4003F01D044EA01055449D2
:102380004D6009680A40DEF8045015F4803F01D022
:1023900044EA01024E490A6001330F2B00F2938098
:1023A00001229A40DEF8001001EA020432EA01013B
:1023B000F2D1DEF8041001F0030C0CF1FF3CBCF18B
:1023C000010F80D9DEF8042002F00302032A0AD0AC
:1023D000C1685D000322AA4021EA0201DEF808205C
:1023E000AA400A43C260DEF8042002F00302022A77
:1023F00082D001684FEA430C032202FA0CF221EA70
:102400000201DEF8042002F0030202FA0CF20A4391
:102410000260DEF8042012F4403FBDD00022019299
:102420002C4A516C41F480415164526C02F4804258
:102430000192019A99088D1C244A52F8255003F004
:10244000030C4FEA8C0C0F2202FA0CF225EA02056B
:10245000214A90423FF467AF02F58062904222D059
:1024600002F58062904220D002F5806290421ED038
:1024700002F5806290421CD002F5806290421AD030
:1024800002F58062904218D002F58062904216D028
:1024900002F58062904214D002F5806290423FF4CF
:1024A00040AF0A2240E701223EE702223CE7032236
:1024B0003AE7042238E7052236E7062234E7072206
:1024C00032E7082230E703B030BD00BF00380140DA
:1024D000003C014000380240000002400AB1816126
:1024E0007047090481617047436901EA030221EAE8
:1024F000030141EA024181617047000010B50446C2
:102500000268136923F44053C1680B431361836865
:1025100002691A4343691A43C3691A430168CB68C5
:1025200023F4164323F00C031343CB600268536972
:1025300023F4407381690B4353610368314A93422A
:1025400006D002F58062934202D0FFF779FE01E0E7
:10255000FFF786FEE369B3F5004F29D00021031889
:1025600049411B1841F10001C90041EA5371DB00E8
:10257000181863684FEA83024FEA937341F1000130
:10258000FDF716FE204AA2FB00314909642303FB34
:1025900011031B013233A2FB03235B0903F0F0029A
:1025A00002EB011203F00F03216813448B6010BD8E
:1025B0000023021843EB0301121841F10001C90086
:1025C00041EA5271D200101841F10001626892187C
:1025D0005B41FDF7EDFD0C4AA2FB00314909642384
:1025E00003FB1103DB003233A2FB03235B095A0018
:1025F00002F4F87202EB011203F00703216813449E
:102600008B60D4E7001001401F85EB512DE9F041AC
:1026100004460E4615469846069F23681B6836EA10
:1026200003030CBF4FF0010C4FF0000CAC452AD156
:10263000B7F1FF3FF1D02FB1FFF788FA4346C01A38
:10264000B842EAD9226802F10C0353E8003F23F4B0
:10265000D0730C3242E800310029F3D1226802F134
:10266000140353E8003F23F00103143242E8003121
:102670000029F3D1202384F83D3084F83E3084F8DB
:102680003C10032000E00020BDE8F081704758B303
:1026900010B5044690F83D300BB3242384F83D3048
:1026A0002268D36823F40053D3602046FFF726FF47
:1026B0002268136923F4904313612268536923F05D
:1026C0002A0353612268D36843F40053D360002087
:1026D0002064202384F83D3084F83E3010BD80F81B
:1026E0003C30FFF7D3FFD8E7012070472DE9F041D8
:1026F00084B01E4690F83D30202B55D104460D463F
:10270000002955D00392002A54D090F83C30012B78
:1027100052D0012380F83C3000230364212380F849
:102720003D30FFF713FA0746039BA384E384A368B5
:10273000B3F5805F05D000239846002384F83C3031
:1027400014E0236913B100239846F6E7A8461D4616
:10275000F3E7424632F8023B90462268C3F308038F
:102760005360E28C92B2013A92B2E284E38C9BB263
:1027700073B100963B46002280212046FFF746FFBA
:10278000E0B9002DE5D015F8012B23685A60E8E781
:1027900000963B46002240212046FFF737FF78B9DC
:1027A000202384F83D3000E0022004B0BDE8F08131
:1027B0000120FAE70120F8E70220F6E70320F4E71A
:1027C0000320F2E703685A6912F4806F01D10020F8
:1027D00070476FF480625A6100230363202280F8FF
:1027E0003D2080F83E30026C42F00402026480F822
:1027F0003C3001207047F8B506460C4617461D468A
:1028000024E0FFF7A3F9069BC01AA84200D8EDB94F
:1028100000233363202286F83D2086F83E30326C58
:1028200042F02002326486F83C3001201EE033681A
:102830009B6924EA030C1FFA8CFCBCFA8CFC4FEA5F
:102840005C1C674511D1B5F1FF3FDAD1C4F30743F2
:10285000012BECD133685B6924EA030C1FFA8CFC72
:10286000BCFA8CFC4FEA5C1CEBE70020F8BDF8B525
:1028700004460D4616461F463CE01A6842F40072B4
:102880001A6023686FF480625A6100232363202258
:1028900084F83D2084F83E30226C42F00402226429
:1028A00084F83C30012033E0FFF750F9C01BB04200
:1028B00000D8FEB900232363202284F83D2084F849
:1028C0003E30226C42F02002226484F83C30012029
:1028D0001EE023689B6925EA03039BB2003B18BFF7
:1028E0000123A3B123685A6912F4806FC5D1B6F1F0
:1028F000FF3FD9D1C5F30743012BEAD123685B69B8
:1029000025EA03039BB2003B18BF0123E9E7184601
:10291000F8BD0000F0B583B004460E4617461D46CC
:10292000C36A082B0DD0012B0BD013F5803F08D0C4
:10293000036B122B0AD10268136843F4807313608F
:1029400004E02268136843F48073136000953B46EB
:1029500000224FF001112046FFF74DFF80B9236997
:10296000B3F5804F16D1236806F0FE021A612B469C
:102970003A4613492046FFF77AFFF8B903B0F0BD95
:1029800023681B6813F4807F02D04FF40073236424
:102990000320F3E7F311226803F0060343F0F0038A
:1029A00013612B463A4607492046FFF760FF18B9E6
:1029B0002268F3B21361DAE70120DFE70120DDE7E7
:1029C000020001000800010070B504460D461646DD
:1029D00023685B6913F0800F1CD12046FFF7F2FEDD
:1029E000D0B9B5F1FF3FF3D0FFF7B0F8801BA84294
:1029F00001D8002DECD100232363202284F83D2050
:102A000084F83E30226C42F02002226484F83C308C
:102A1000012000E0002070BD0120FCE770B50446F5
:102A20000D46164623685B6913F0040F1CD120463F
:102A3000FFF7C8FED0B9B5F1FF3FF3D0FFF786F836
:102A4000801BA84201D8002DECD100232363202253
:102A500084F83D2084F83E30226C42F0200222644B
:102A600084F83C30012000E0002070BD0120FCE72C
:102A700070470000002800F0DB8038B5044690F86D
:102A80003D30002B52D0242384F83D302268136857
:102A900023F0010313602268136843F400431360BA
:102AA0002268136823F400431360FFF7C9FB6268D0
:102AB000614B9A423FD8614B98428CBF002301235F
:102AC000002B40F0B7805E49A1FB00318B0CD4F89D
:102AD00000C0DCF8042022F03F0242EA9142CCF828
:102AE000042021680A6A22F03F02DFF84CC1D4F8C2
:102AF00004E0E64525D8013313430B622168CA6917
:102B000022F44F4222F0FF02D4F804C04A4B9C4505
:102B100022D8431E4FEA4C0CB3FBFCF3013340F6C2
:102B2000FC70034254D0C3F30B0352E080F83C30F6
:102B3000FFF79EFFA7E7434B98428CBF002301237A
:102B4000BEE74FF4967C0CFB03F3DFF8FCC0ACFB54
:102B500003C39B090133CFE7D4F808E0BEF1000FAF
:102B60001AD1431E0CEB4C05B3FBF5F30133C3F351
:102B70000B03B3FA83F35B09002B57D1BEF1000FAF
:102B800019D1431E0CEB4C0CB3FBFCF30133C3F324
:102B90000B0343F400431CE00CEB8C0303EB8303B7
:102BA0001D46431EB3FBF5F30133C3F30B03B3FA26
:102BB00083F35B09E0E7431E0CEB8C0C0CEB8C0CF5
:102BC000B3FBFCF30133C3F30B0343F4404300E0D6
:102BD00004231A43CA6121680B6823F0C003E26929
:102BE000206A024313430B6021688B6823F403437C
:102BF00023F0FF032269E068024313438B602168DE
:102C0000CB6823F0FF036269A06902431343CB60E2
:102C10002268136843F0010313600020206420231E
:102C200084F83D30206384F83E0038BD0123D0E7AE
:102C3000012070470120F8E7A08601007F841E0074
:102C400083DE1B43FF083D00D34D62107047A8B1DF
:102C500010B50446242380F83D300268136823F041
:102C600001031360FFF7F2FF0020206484F83D00A9
:102C7000206384F83E0084F83C0010BD01207047BA
:102C80002DE9F04385B004460F46904699460C9EC8
:102C9000FEF75CFF94F83D10202905D002231F4663
:102CA000384605B0BDE8F08305460090192301229F
:102CB00051492046FFF79FFD002840F0938094F88B
:102CC0003C30012B00F09180012384F83C302368D4
:102CD0001A6812F0010F03D11A6842F001021A605B
:102CE0002268136823F400631360212384F83D30C5
:102CF000102384F83E3000232364C4F82480A4F811
:102D00002A90638D23853D4BE3622B46324639463C
:102D10002046FFF7FFFD0746002869D1039023688E
:102D20005A6903929B690393039B12E0236C042B63
:102D300002D001231F46B3E72268136843F40073EF
:102D40001360F6E72A4631462046FFF767FE002863
:102D50002ED1238D002B37D02A4631462046FFF74F
:102D600033FE0028E2D1626A236812781A61606A31
:102D7000431C6362618D89B2013989B26185238DFB
:102D8000013B9BB223852268516911F0040FD9D011
:102D9000002BD7D043781361636A01336362638D7C
:102DA0009BB2013B9BB26385238D013B2385C9E721
:102DB000236C042B02D001231F4671E7226813689D
:102DC00043F400731360F6E72268136843F400735A
:102DD0001360202384F83D30002384F83E3084F8CB
:102DE0003C305DE702231F465AE702231F4657E7A0
:102DF00001231F4654E700BF020010000000FFFF40
:102E00007047000090F83D30012B37D1022380F845
:102E10003D300268D36843F00103D3600368194A68
:102E2000934220D0B3F1804F1DD0A2F57C42934253
:102E300019D002F58062934215D002F58062934268
:102E400011D002F5784293420DD002F570529342B0
:102E500009D0A2F59432934205D01A6842F00102DB
:102E60001A60002070479A6802F00702062A07D00D
:102E70001A6842F001021A60002070470120704772
:102E800000207047000001400268D36823F001036E
:102E9000D3600368196A41F21112114208D1196A0C
:102EA00040F24442114203D11A6822F001021A6032
:102EB000012380F83D30002070477047704770470D
:102EC000704710B5044603681A6912F0020F11D05A
:102ED000DA6812F0020F0DD06FF002021A610123BE
:102EE000037703689B6913F0030F70D0FFF7E6FFC9
:102EF0000023237723681A6912F0040F12D0DA68CE
:102F000012F0040F0ED06FF004021A61022323772F
:102F100023689B6913F4407F5FD02046FFF7CEFF04
:102F20000023237723681A6912F0080F12D0DA6899
:102F300012F0080F0ED06FF008021A6104232377F5
:102F40002368DB6913F0030F4ED02046FFF7B6FF6E
:102F50000023237723681A6912F0100F12D0DA6861
:102F600012F0100F0ED06FF010021A6108232377B1
:102F70002368DB6913F4407F3DD02046FFF79EFFB6
:102F80000023237723681A6912F0010F03D0DA684F
:102F900012F0010F36D123681A6912F0800F03D0A6
:102FA000DA6812F0800F34D123681A6912F0400FEA
:102FB00003D0DA6812F0400F32D123681A6912F098
:102FC000200F03D0DA6812F0200F30D110BDFFF7C8
:102FD00074FF2046FFF773FF8AE72046FFF76DFF77
:102FE0002046FFF76CFF9BE72046FFF766FF204671
:102FF000FFF765FFACE72046FFF75FFF2046FFF7CE
:103000005EFFBDE76FF001021A612046FDF730FE5A
:10301000C1E76FF080021A61204600F0A0F8C3E714
:103020006FF040021A612046FFF74AFFC5E76FF0D4
:1030300020021A61204600F091F8C7E70368304A81
:10304000904212D0B0F1804F0FD0A2F57C42904256
:103050000BD002F58062904207D002F58062904268
:1030600003D002F57842904203D123F070034A68FE
:103070001343234A90422AD0B0F1804F27D0A2F5C3
:103080007C42904223D002F5806290421FD002F52C
:10309000806290421BD002F57842904217D002F530
:1030A0007052904213D002F5806290420FD002F528
:1030B000806290420BD0A2F59832904207D002F580
:1030C0008062904203D002F58062904203D123F4E3
:1030D0004073CA68134323F080034A6913430360B3
:1030E0008B68C3620B688362054B984203D003F57B
:1030F0008063984201D10B690363012343617047E8
:103100000000014040B310B5044690F83D30F3B1E3
:10311000022384F83D30214651F8040BFFF78EFF5F
:10312000012384F8463084F83E3084F83F3084F838
:10313000403084F8413084F8423084F8433084F8D9
:10314000443084F8453084F83D30002010BD80F8CC
:103150003C30FFF755FEDBE70120704770477047B2
:103160007047E0B138B50D46044690F82C308BB16D
:10317000022384F82C30214651F8040B00F04AF861
:1031800062682946206800F07CF8012384F82C301E
:10319000002038BD80F82D30FFF7E2FFE8E701207E
:1031A000704738B5044690F82C30D8B2022B18D0AE
:1031B000012801D0052813D1022384F82C300D46B4
:1031C000206800F0B7F82B68022B04D0012384F8A4
:1031D0002C30002005E0052384F82C30002000E08E
:1031E000012038BD10B5044690F82C30D8B2022B1F
:1031F00004D094F82C30012B01D0012010BD022303
:1032000084F82C30206800F0BBF8012384F82C30BF
:103210000020F3E710B40B68C3B902686FF30E0225
:103220004B688C682343CC6823430C6923434C6967
:1032300023438C692343CC6923430C6A2343496AA3
:103240000B4313430360002010BC7047036823F452
:10325000F843CA690C6A22434C6A22431343036051
:1032600042686FF30E024B688C682343CC6823439B
:103270000C6923434C69234389690B43134343601F
:10328000E1E752BB826802F070420B68013BD1F863
:1032900004C00CF1FF3C43EA0C13D1F808C00CF158
:1032A000FF3C43EA0C23D1F80CC00CF1FF3C43EA8D
:1032B0000C33D1F810C00CF1FF3C43EA0C43D1F8B9
:1032C00014C00CF1FF3C43EA0C538969013943EA0D
:1032D00001631343836000207047836823F4700305
:1032E00023F47043CA6802F1FF3C4A69013A1205AF
:1032F00042EA0C3213438360C26802F070420B68EA
:10330000013BD1F804C00CF1FF3C43EA0C13D1F8A7
:1033100008C00CF1FF3C43EA0C23D1F810C00CF1BB
:10332000FF3C43EA0C438969013943EA01631343D3
:10333000C360D0E770B50446154602696FF3150205
:103340000B68486803438868013843EA4013C9683A
:1033500043EA412313432361FEF7F8FB0646A369C2
:1033600013F0200F0AD0B5F1FF3FF8D025B1FEF7DA
:10337000EDFB801BA842F2D9032000E0002070BDC5
:1033800043696FF34D0343EA4103436100207047F3
:10339000074B1B681B6823B9064B4FF0FF321A60BE
:1033A0007047034B1B68DB681A68024B1A60704752
:1033B000F00700208807002010B50446006B01F0DC
:1033C0007DFF204601F07AFF10BD00002DE9F84393
:1033D00080460D4617469946089E0A9C9200A521F4
:1033E000206BFDF7B2F8236B07F18042013A03EB43
:1033F000820323F007078DB14FF0000CBCF10F0FD3
:1034000009D815F80C3004EB0C0282F8343013B1F3
:103410000CF1010CF2E7002384F84330182E18D881
:10342000E662E664201D01F0A7FA04F1180001F03D
:10343000A3FA2461C6F11906A66164624A464146B0
:10344000384601F011FD2060099B03B11C60BDE806
:10345000F88340F264710248FDF7A8FB1826DFE705
:1034600008E700082DE9F04385B0814688461546F7
:103470001F46900001F07EFE0646F0B15C2001F090
:1034800079FE0446A8B15C220021FDF75EF82663B0
:103490000023039302940D9B01930C9B00933B46E6
:1034A0002A4641464846FFF791FF204605B0BDE851
:1034B000F083304601F002FFF7E70446F5E700002D
:1034C00038B5002407E004EB84000F4B03EB8000C9
:1034D00001F047FA0134182CF5D90C4D284601F0BB
:1034E00040FA0B4C204601F03CFA0A4801F039FA48
:1034F000094801F036FA094801F033FA084B1D601B
:10350000084B1C6038BD00BF1C08002008080020C4
:10351000F4070020D8070020C4070020AC070020D3
:10352000F0070020EC07002010B5044601F0B2FCC3
:103530002A4A136801331360294B1B685BB1294B7E
:103540001B686BB9264B1B68DA6AE36A9A4207D894
:10355000234B1C6004E0224B1C601368012B3AD003
:10356000214A1368013313606364E36A01229A40BD
:103570001E49086802430A601D4A03EB830302EBFD
:1035800083035B68A3609868E060211D41609960D7
:10359000E36A03EB830102EB8100606152F82110C2
:1035A000013103EB830342F8231001F095FC0D4B2E
:1035B0001B687BB10A4B1B68DA6AE36A9A4209D23C
:1035C0004FF0E0234FF08052C3F8042DBFF34F8F2C
:1035D000BFF36F8F10BDFFF773FFC1E7A80700208F
:1035E000100A00209C0700208C070020A007002064
:1035F0001C0800200F4B1B68D3B110B501F04AFC2A
:103600000D4BDB68DC68201D01F0D5F90B4A13680F
:10361000013B1360074A1368013B136001F05CFC37
:103620002046FFF7C9FE034B1B68002BE6D110BDF7
:10363000704700BFC0070020C4070020A807002073
:1036400008B5FFF7D7FF074B1B68012BF9D94FF0DF
:10365000E0234FF08052C3F8042DBFF34F8FBFF328
:103660006F8FEEE71C0800202DE9F04104468846E4
:10367000264B1D68264B1B681E46264B1B681F46A3
:10368000254B1868043001F096F948B9224B1B68A5
:10369000DB6A01229A4021490B6823EA02030B608E
:1036A000B4F1FF3F0DD02C441B4B1B685C60A5425E
:1036B0001ED9194B19680431384601F060F9BDE88C
:1036C000F0814346002BEED0154A5168124B186822
:1036D000816018688C68C46018680430606018687D
:1036E000043088601B685A61136801331360E6E791
:1036F000094B19680431304601F041F9094B1B6848
:10370000A342DCD9074B1C60D9E700BFA407002007
:10371000F0070020EC070020100A0020A00700207E
:10372000AC0700208807002000B583B0DDF814C086
:10373000CDF804C0DDF810C0CDF800C0FFF792FE50
:1037400020B1FFF7F1FE012003B000BD4FF0FF30C4
:10375000FAE7000010B586B000230F2B17DC0F4AE4
:10376000D25C03F11801694401F8102C7AB10133DD
:10377000F3E70B4B03EB84030193002300938022B8
:1037800002A90848FFF7D0FF28B1013401E0002466
:103790000120002CEDDD06B010BD00BF6CE7000875
:1037A000840700204136000808B5FFF7D3FF012841
:1037B00005D0B0F1FF3F1BD0104B1B6808BD01F0D6
:1037C000A1FA0128F5D14FF0500383F31188BFF31C
:1037D0006F8FBFF34F8F0A4B4FF0FF321A60094BC8
:1037E00001221A60084B00221A6001F0B5FBE3E7E2
:1037F00040F6A9610548FDF7D9F9DDE7B0E9000811
:10380000880700209C070020A407002008E7000884
:10381000024A136801331360704700BF800700201D
:10382000014B1868704700BFA4070020014B1868BF
:10383000704700BFA807002038B5514B1B68002B0C
:1038400040F098804F4B1C6801341C607CB94E4B93
:103850001B681B680BBB4C4A11684C4B1868106006
:1038600019604B4A136801331360FFF791FD494B10
:103870001B68A34217D90020474B1B68DB6A03EB88
:103880008303464A52F82330012B00D90120444BD0
:103890001B68002B73D0012071E041F25F21414889
:1038A000FDF784F9D7E7002038E03A4B4FF0FF32BC
:1038B0001A60E1E7374B1A60DEE7D968516044E0EF
:1038C00000219962116801391160DA6A0121914081
:1038D000DFF8D4E0DEF800502943CEF800102F497D
:1038E00002EB820201EB820252689A609568DD6009
:1038F000C5F804C0C2F808C0DA6A02EB820C01EB1A
:103900008C055D6151F82C50013541F82C50DA6A74
:10391000214B1B68DB6A9A4200D901201A4B1B68B5
:103920001B68002BC1D0184B1B68DB68DB685A682A
:103930009442BFD35A699D68D968A9609D684D605B
:10394000516803F1040C6145B7D000215961116839
:10395000013911609A6A002AB7D0DD69196AA96035
:10396000DD694D60556803F118018D42A8D1196ACF
:103970005160A5E70D4A136801331360002038BD7C
:1039800080070020A4070020F0070020EC0700209B
:103990009007002088070020100A00201C08002043
:1039A0009407002008E70008A007002098070020DF
:1039B00010B501F06FFA4C4B1B6863B14A4B1A68A3
:1039C000013A1A601B68002B40F08880474B1B6847
:1039D0006BB91C4683E040F68B714548FDF7E6F86D
:1039E000ECE7196A516015E0D968516021E00023C5
:1039F000404A1268002A4CD03E4BDB68DB689A6A6A
:103A0000D869196A8160D8694860506803F1180163
:103A10008842E6D0002199621168013911605A6923
:103A20009868D9688160986848605168181D81421B
:103A3000DAD000215961116801391160DA6A012177
:103A400091402D4CD4F800E041EA0E0121602B4951
:103A500002EB820201EB820252689A609468DC6099
:103A600060609060DA6A02EB820001EB80045C61C6
:103A700051F82000013002EB820241F82200D96A9D
:103A80001F4A1268D26A9142B2D91E4A01211160BE
:103A9000AEE70BB1FFF77CFC1B4B1C6894B9194BCC
:103AA0001C68E4B1164B1B684FF0E0234FF08052C6
:103AB000C3F8042DBFF34F8FBFF36F8F01240EE0C7
:103AC000013C07D0FFF7B8FE0028F9D00D4B0122CA
:103AD0001A60F5E70C4B00221A60E0E7002401F0C1
:103AE000FBF9204610BD00BF80070020A80700207A
:103AF00008E70008D8070020A00700201C080020C5
:103B0000100A0020940700209807002010B550B933
:103B10004FF0E0234FF08052C3F8042DBFF34F8FD6
:103B2000BFF36F8F10BD0446FFF772FE094B1B6891
:103B3000012B08D100212046FFF796FDFFF738FF43
:103B40000028EFD1E4E740F68E110348FDF72EF888
:103B5000F0E700BF8007002008E700082C4B1B6837
:103B60001BB12C4B01221A60704710B5294B002263
:103B70001A60294B1B681B6B1A68B2F1A53F03D171
:103B80005A68B2F1A53F2CD0234B1968186834311C
:103B9000FDF712F8214B1C68B4FA84F4E4B2C4F1C6
:103BA0001F0404EB84021E4B53F8223013B31C494C
:103BB00004EB840301EB83035A6852685A6004EBF8
:103BC00084039B0008330B449A4219D004EB84040D
:103BD000134B03EB84035B68DA680F4B1A601B68B6
:103BE00010BD9A68B2F1A53FCED1DB68B3F1A53F15
:103BF000CAD1CFE741F2FA310A48FCF7D7FFD6E73E
:103C000004EB840201EB8203DA685A60DEE700BF4E
:103C10008007002094070020100A0020A007002041
:103C20001C08002008E7000838B50D46044650B1CE
:103C3000084B19681831204600F0A1FE01212846E2
:103C4000FFF712FD38BD4FF4A4510348FCF7AEFF57
:103C5000EEE700BF100A002008E7000870B50E4626
:103C600014460546D0B16A680F4B1968CA611968D5
:103C700090680862196818314160196818319160BC
:103C80001B689D622B6801332B6014B14FF0FF332A
:103C90001E4621463046FFF7E7FC70BD41F2BE41AB
:103CA0000248FCF783FFDEE7100A002008E700085F
:103CB00010B5C368DC68002C4DD0A36AE169226AA4
:103CC0008A60E16951605A6804F118018A4248D05B
:103CD0000022A2621A68013A1A602C4B1B68002B62
:103CE00045D16369A168E2688A60A16851605A6839
:103CF000211D8A4238D0002262611A68013A1A6096
:103D0000E36A01229A402248D0F800C042EA0C023D
:103D10000260204A03EB830302EB83035B68A3602A
:103D20009868E06041609960E36A03EB830102EB0D
:103D30008100606152F82110013103EB830342F8E6
:103D40002310E26A144B1B68DB6A9A421BD90120DC
:103D5000124B186010BD41F2F5411148FCF726FFE7
:103D6000ABE7226A5A60B3E7E2685A60C3E70D4BDB
:103D70005A68E2619068206241609160A3621A68AB
:103D800001321A60DDE70020E4E700BF8007002071
:103D9000A00700201C080020100A00209407002023
:103DA00008E70008D8070020034B1B680360034B9B
:103DB0001B684360704700BF90070020A4070020E5
:103DC00038B50C460546C0B1ECB101F063F81A4BAA
:103DD00019686B68C81A2268B2F1FF3F27D0DFF874
:103DE0005CC0DCF800C0D5F800E0E64511D08B429D
:103DF0000FD80023236001241AE041F2A551104896
:103E0000FCF7D4FEE0E741F2A6510D48FCF7CEFEE8
:103E1000DBE7824203D800232360012408E05B1A19
:103E2000134423602846FFF7BFFF002400E000246E
:103E300001F052F8204638BDA4070020900700206A
:103E400008E70008014B01221A6070479407002020
:103E5000014B1868704700BF100A0020054B1B6813
:103E600033B1054B1B680BB100207047022070472F
:103E7000012070479C0700208007002000285DD0AB
:103E800038B50446C36A2E4A1268D26A93424BD2AE
:103E90008269002A05DB2A4A1268D26AC2F1190235
:103EA0008261616903EB8303264A02EB8303994233
:103EB00005D0234B1B68DB6AE362012038BD231D5C
:103EC0001D46184600F077FD38B9E36A01229A4092
:103ED0001D490B6823EA02030B60194B1B68DB6A60
:103EE000E362012000FA03F21749D1F800C042EA68
:103EF0000C020A60134A03EB830302EB83035B6843
:103F0000A3609968E1604D609D60E36A03EB830103
:103F100002EB810CC4F814C052F82110014403EBE9
:103F2000830342F82310C9E7C26C054B1B68DB6AA8
:103F30009A4201D30020C1E70120BFE7704700BFCC
:103F4000100A00201C080020A0070020002854D0E0
:103F500038B50446294B1B68834204D041F628211A
:103F60002748FCF723FE236D4BB1236D013B2365EE
:103F7000E16AE26C91423ED03BB1002038BD41F68F
:103F800029211F48FCF712FEEFE7231D1D461846A6
:103F900000F011FD38B9E36A01229A4019490B6813
:103FA00023EA02030B60E36CE362C3F11902A2612E
:103FB000012000FA03F21349D1F800C042EA0C02D2
:103FC0000A60114A03EB830302EB83035B68A3607F
:103FD0009968E1604D609D60E36A03EB830102EB49
:103FE000810CC4F814C052F82110014403EB830380
:103FF00042F82310C2E70020C0E77047100A0020F3
:1040000008E70008A00700201C08002000285CD05A
:1040100070B50E460446036D53B1E56CB54200D24F
:104020003546E36AAB4202D0236D012B06D070BD4A
:1040300041F686212548FCF7B9FDEEE7244B1B68C5
:10404000A3423CD0E36AE562A269002A02DBC5F123
:104050001905A561616903EB83031E4A02EB830323
:104060009942E4D1251D284600F0A5FC38B9E36A41
:1040700001229A4018490B6823EA02030B60E36AA5
:1040800001229A401449086802430A60114A03EB6E
:10409000830302EB83035B68A3609968E1604D6072
:1040A0009D60E36A03EB830102EB8100606152F8DB
:1040B0002110013103EB830342F82310B7E741F6E7
:1040C000A1210248FCF772FDBCE7704708E7000831
:1040D000100A00201C080020A0070020034B1868CD
:1040E00010B1036D01330365704700BF100A002053
:1040F0000346406A18B11B6B1868C0F1190070477D
:1041000010B5044600F0C6FEA26BE36B9A4204D0E1
:10411000002400F0E1FE204610BD0124F9E710B5AF
:10412000044600F0B7FEA36B2BB901231C4600F038
:10413000D3FE204610BD00231C46F8E770B50446A8
:104140001646856B026C5AB903681BB10020013515
:10415000A56370BD8068FFF7F9FE0023A360F6E752
:104160006EB9406809F0BCFB6368226C134463605D
:10417000A268934219D3236863603046E7E7C068BA
:1041800009F0AEFBE368226C51429B1AE36022689F
:10419000934202D2A3680B44E360022E01D00020B8
:1041A000D5E725B1013D0020D1E73046CFE72846CD
:1041B000CDE708B50346026C62B10846D9681144E0
:1041C000D960D3F808C0614501D31968D960D968AE
:1041D00009F086FB08BD38B5054600F05BFE95F892
:1041E000454064B201E0013C64B2002C0ADD6B6A18
:1041F00043B105F12400FFF75BFD0028F3D0FFF782
:1042000021FEF0E7FF2385F8453000F065FE00F061
:1042100041FE95F8444064B201E0013C64B2002CD8
:104220000ADD2B6943B105F11000FFF741FD0028BD
:10423000F3D0FFF707FEF0E7FF2385F8443000F0E6
:104240004BFE38BD38B550B10D460446C36B63B95B
:104250004FF4B6712448FCF7A9FC002038BD40F2A9
:1042600037112148FCF7A2FCF2E7026C0021A2FB07
:104270000323E3B90029EBD100F00CFE2368E26BC5
:10428000216C01FB0230A0600020A0636360013A52
:1042900002FB0133E360FF2384F8443084F84530A7
:1042A000C5B923692BB900F017FE0120D6E701211B
:1042B000E0E704F11000FFF7FBFC0028F3D04FF01B
:1042C000E0234FF08052C3F8042DBFF34F8FBFF3AC
:1042D0006F8FE8E704F1100000F043FB04F12400C5
:1042E00000F03FFBDFE700BF74E7000838B51D466C
:1042F000049C0B4649B92460E063236401212046F5
:10430000FFF7A0FF84F84C5038BD2260F4E70000AE
:10431000F0B583B0E0B10D46174604460023A1FB7B
:1043200000129AB9A3B905FB04F010F1510F0FD890
:10433000503000F01FFF0246064680B100903B4619
:10434000503229462046FFF7D1FF08E00123E9E774
:1043500040F22A210348FCF729FC00231E46304680
:1043600003B0F0BD74E70008F0B585B00F460192C8
:104370001D46044648B177B1022D15D0FFF76EFDFA
:1043800008B9019BCBB900265BE040F2B631514839
:10439000FCF70CFCEFE7236C002BEDD040F2B731BB
:1043A0004C48FCF703FCE7E7E36B012BE6D04FF446
:1043B0006E714848FCF7FAFBE0E740F2BB31454834
:1043C000FCF7F4FBDFE72A4639462046FFF7B6FE46
:1043D000636A7BB948B14FF0E0234FF08052C3F8D5
:1043E000042DBFF34F8FBFF36F8F00F075FD0120D9
:1043F00005B0F0BD04F12400FFF75AFC0028F4D00A
:104400004FF0E0234FF08052C3F8042DBFF34F8FDD
:10441000BFF36F8FE9E700F05FFD0020E8E702A837
:10442000FFF7C2FC012619E0002384F8443021E0A4
:10443000002384F8453023E02046FFF7CCFEFFF749
:10444000B7FA00F027FDA26BE36B9A42BBD3022DB3
:10445000B9D0019B002BDED0002EE0D000F03CFD57
:10446000FFF7D6F900F016FD94F8440040B2B0F121
:10447000FF3FD9D094F8450040B2B0F1FF3FD7D00C
:1044800000F02AFD01A902A8FFF79AFCD8B920463E
:10449000FFF736FE0028CFD0019904F11000FFF796
:1044A000C3FB2046FFF797FEFFF782FA0028C8D12A
:1044B0004FF0E0234FF08052C3F8042DBFF34F8F2D
:1044C000BFF36F8FBDE72046FFF785FEFFF770FA59
:1044D00000208DE774E7000848B108B5002181602D
:1044E0000160C1600B460A46FFF73EFF08BD7047FA
:1044F00010B5024600210120FFF70AFF0446FFF72E
:10450000EBFF204610BD00002DE9F8430F46914611
:104510001D460446D0B1FFB1022D26D000F0D2FDD9
:10452000EFF311834FF0500282F31188BFF36F8FC6
:10453000BFF34F8F9846A26BE36B9A421ED3022DB6
:104540001CD0002088F31188BDE8F8834FF49261F5
:104550002448FCF72BFBDEE7236C002BDCD040F279
:1045600091412048FCF722FBD6E7E36B012BD5D025
:1045700040F292411B48FCF719FBCFE794F8453015
:104580005EB2A36B2A4639462046FFF7D7FDB6F147
:10459000FF3F0ED1636A0BB90120D3E704F1240079
:1045A000FFF786FBC0B14B46C3B10120C9F800003C
:1045B000C8E7FFF73BF9864212D27F2E06D033467A
:1045C00001335BB284F845300120BBE740F21E5155
:1045D0000448FCF7EBFAF2E70120B3E70120B1E76A
:1045E0000120AFE774E70008F0B585B00F460192EF
:1045F000044638B167B1FFF731FC08B9019B83B9B4
:10460000002653E040F2E9514948FCF7CFFAF1E7C0
:10461000236C002BEFD040F2ED514548FCF7C6FA71
:10462000E9E740F2F2514248FCF7C0FAE8E73946C0
:104630002046FFF7BEFD013DA563236923B900F0C5
:104640004BFC012005B0F0BD04F11000FFF730FB7A
:104650000028F4D04FF0E0234FF08052C3F8042D2F
:10466000BFF34F8FBFF36F8FE9E700F035FC2846AB
:10467000E8E702A8FFF798FB012621E0002384F871
:10468000443029E0002384F845302BE02046FFF732
:10469000A2FDFFF78DF909E02046FFF79CFDFFF72B
:1046A00087F92046FFF73BFD00283FD100F0F2FBE1
:1046B000A56B002DBBD1019B002BD6D0002ED8D0EE
:1046C00000F00AFCFFF7A4F800F0E4FB94F8443093
:1046D0005BB2B3F1FF3FD1D094F845305BB2B3F198
:1046E000FF3FCFD000F0F8FB01A902A8FFF768FB5D
:1046F0000028D1D12046FFF712FD0028C6D001992D
:1047000004F12400FFF790FA2046FFF764FDFFF75D
:104710004FF90028CAD14FF0E0234FF08052C3F880
:10472000042DBFF34F8FBFF36F8FBFE7002089E7E2
:1047300074E7000870B584B00191044650B1236C51
:1047400073B9FFF78BFB08B9019B7BB900231E46A9
:104750001D465BE040F282615548FCF727FAEEE720
:1047600040F286615248FCF721FAEAE740F28B6199
:104770004F48FCF71BFAE9E7013BA363236833B119
:10478000236943B900F0A8FB012004B070BDFFF716
:10479000A5FCA060F4E704F11000FFF789FA0028F7
:1047A000F0D04FF0E0234FF08052C3F8042DBFF358
:1047B0004F8FBFF36F8FE5E700F08EFB0020E4E73B
:1047C00002A8FFF7F1FA01252AE0002384F844301B
:1047D00032E0002384F8453034E000F05BFBA06851
:1047E000FFF74CFB064600F077FB3BE02046FFF767
:1047F000F2FCFFF7DDF809E02046FFF7ECFCFFF7DD
:10480000D7F82046FFF78BFC002842D100F042FB8E
:10481000A36B002BB0D1019B002BCDD0002DCFD0AE
:1048200000F05AFBFEF7F4FF00F034FB94F844303C
:104830005BB2B3F1FF3FC8D094F845305BB2B3F13F
:10484000FF3FC6D000F048FB01A902A8FFF7B8FA65
:104850000028D1D12046FFF762FC0028C6D023688B
:10486000002BBAD0019904F12400FFF7DDF92046AE
:10487000FFF7B1FCFFF79CF80028C7D14FF0E02309
:104880004FF08052C3F8042DBFF34F8FBFF36F8FEB
:10489000BCE70EB9002078E700F0FCFA2046FFF7ED
:1048A00027FC0146A068FFF7B1FB00F015FBF1E71C
:1048B00074E7000838B50D46044618B11DB3002052
:1048C00003460AE040F6C9310F48FCF76FF9F5E7F7
:1048D0000E4800EBC30014E00133072B10D80B4A3D
:1048E00002EBC3025268A242F2D00028F4D1074A78
:1048F00052F83320002AEFD1044800EBC300EBE765
:1049000008B10560446038BD74E70008140A00204F
:1049100070B504460D46164600F0BCFA94F84430D3
:104920005BB2B3F1FF3F0DD094F845305BB2B3F109
:10493000FF3F0BD000F0D0FAA36B5BB12046FFF72E
:104940004AFC70BD002384F84430EDE7002384F86E
:104950004530EFE73246294604F12400FFF77EF99F
:10496000ECE700F1080343604FF0FF328260C36060
:10497000036100230360704700230361704700B5A3
:1049800002460846D1F800C0BCF1FF3F11D002F149
:10499000080319465B68D3F800E0E645F9D94B688F
:1049A000436098608160486002611368013313605E
:1049B00000BD1169F3E70369416882688A60416854
:1049C00051605A68824205D000220261186801389D
:1049D0001860704782685A60F6E70000064B1A6854
:1049E00013682BB90123036023B9D3681868704793
:1049F0000023F8E700207047640A002008B54160F2
:104A0000006191420CD8D21A83699A4201D30120E5
:104A100008BD011D094B1868FFF7B1FF0020F7E73B
:104A20009A4201D2994206D2011D054B1868FFF740
:104A3000A6FF0020ECE70120EAE700BF600A0020A3
:104A4000640A002070B504460D46164604E0A369CA
:104A50001D44236A20469847A1692B4632462944C3
:104A60002046FFF7CBFF0028F1D170BD70B5054699
:104A70000E460D4B1B68DB68DC68201DFFF79BFFB3
:104A800094F8283013F0040F07D123F0010384F8C1
:104A90002830236A2046984770BD32462946204672
:104AA000FFF7D0FFF5E700BF640A002008B505E076
:104AB000DB684FF0FF311868FFF7D8FF054B1B6824
:104AC0001A68002AF4D1044A106802490860136089
:104AD00008BD00BF640A0020600A002038B5054602
:104AE000FEF79EFE0446074B1B68834205D8002351
:104AF0002B60044B1C60204638BDFFF7D7FF012315
:104B00002B60F6E7540A002070B582B005460C46CB
:104B1000FEF77EFE01A8FFF7E1FF019B3BBB0646C7
:104B2000E4B9A84213D22246A91B134B1868FFF719
:104B3000EFFEFEF73DFFE0B94FF0E0234FF080526B
:104B4000C3F8042DBFF34F8FBFF36F8F11E0FEF753
:104B50002FFF31462846FFF789FF0AE0074A12680F
:104B6000126812B901231C46DDE71C46DBE7FEF79D
:104B70001FFF02B070BD00BF5C0A0020600A002069
:104B800030B585B00023019302930393002201A95D
:104B90003D4B1868FFF728FD002872D0019B002BC1
:104BA000F4DB039C636913B1201DFFF704FF684623
:104BB000FFF794FF0546019B052B54D034DC032BF3
:104BC00044D01EDC013B012BE0D894F8283043F0A0
:104BD000010384F82830029BA1692A461944204623
:104BE000FFF70CFF0028D1D094F8283013F0040F01
:104BF00024D123F0010384F82830236A2046984703
:104C0000C4E7042BC2D194F8283043F0010384F8A0
:104C10002830029BA36103B3A1692A462B4629448D
:104C20002046FFF7EBFEB1E7082B0FD003DC063B75
:104C3000012BCAD9AAE7092BE5D0A7E7A3692A4621
:104C4000029919442046FFF7FDFED6E794F8283074
:104C500023F0010384F8283098E74FF482610B4871
:104C6000FBF7A4FFD8E794F8283013F0020F04D024
:104C700023F0010384F8283088E7204600F01EFB6B
:104C800084E705B030BD00BF5C0A0020D8E700080B
:104C900000B583B001A8FFF7A1FE0199FFF734FF2B
:104CA000FFF76EFFF6E7000008B500F0F3F80F4BD2
:104CB0001B6813B100F010F908BD0D48FFF751FE55
:104CC0000C48FFF74EFE0C4B094A1A600B4B094A81
:104CD0001A6000220C210A20FFF71AFB034B186010
:104CE0000028E7D00649FFF7E5FDE3E75C0A00206E
:104CF0007C0A0020680A0020640A0020600A002064
:104D000040E8000810B582B0FFF7CEFF0C4B1B68DF
:104D1000A3B10C4B01930423009300234FF4807242
:104D200009490A48FEF700FD044620B94FF4A37173
:104D30000748FBF73BFF204602B010BD1C46F5E7D5
:104D40005C0A0020580A002048E80008914C00083E
:104D5000D8E700080000000000000000000000008C
:104D6000074B19680868B0E8F04F80F30988BFF373
:104D70006F8F4FF0000080F311887047AFF3008011
:104D8000100A002008480068006880F308884FF087
:104D9000000080F3148862B661B6BFF34F8FBFF393
:104DA0006F8F00DF00BF000008ED00E00000000092
:104DB000EFF30980BFF36F8F154B1A681EF0100FC9
:104DC00008BF20ED108A20E9F04F106009B44FF0C1
:104DD000500080F31188BFF34F8FBFF36F8FFEF742
:104DE000BDFE4FF0000080F3118809BC1968086807
:104DF000B0E8F04F1EF0100F08BFB0EC108A80F33F
:104E00000988BFF36F8F7047AFF30080AFF3008066
:104E1000100A0020DFF80C00016841F47001016005
:104E20007047000088ED00E000B583B000230193D7
:104E30000B4B1B68B3F1FF3F0CD14FF0500383F3D2
:104E40001188BFF36F8FBFF34F8F019B002BFCD0F6
:104E500003B000BDF4210348FBF7A8FEEDE700BF57
:104E60007800002050E800084FF0807340F8043CC0
:104E700021F0010140F8081C054B40F80C3C40F8BB
:104E8000202C6FF0020340F8243C4438704700BFE8
:104E9000294E000808B54FF0500383F31188BFF383
:104EA0006F8FBFF34F8F0A4A136801331360012BD2
:104EB00000D008BD4FF0E023D3F8043D13F0FF0FFE
:104EC000F7D04FF4F4710348FBF770FEF1E700BF31
:104ED0007800002050E8000808B5084B1B683BB17B
:104EE000064A1368013B13600BB983F3118808BDB0
:104EF00040F2EF110248FBF759FEF1E7780000207D
:104F000050E8000808B54FF0500383F31188BFF351
:104F10006F8FBFF34F8FFEF78FFC28B14FF0E02368
:104F20004FF08052C3F8042D002383F3118808BD8D
:104F30004FF0E022002313619361054B1B68054984
:104F4000A1FB03139B09013B5361072313617047C6
:104F50006C000020D34D621030B583B04FF0E023D9
:104F6000D3F8002D4E4B9A423CD04FF0E023D3F8BB
:104F7000002D4C4B9A423BD04FF0E023D3F8084D24
:104F8000E26A494B9A4204D040F257114748FBF776
:104F90000DFEA26B464B9A4204D04FF4AC714348CD
:104FA000FBF704FE00230193424B1A78D2B28DF82E
:104FB0000220FF221A701B78DBB28DF803309DF8B7
:104FC000033003F050033C4A1370BBB19DF803302B
:104FD000DB4313F0500F20D040F27F113348FBF732
:104FE000E5FD1AE040F237113048FBF7DFFDBCE782
:104FF0004FF49C712D48FBF7D9FDBDE740F27B11C2
:105000002A48FBF7D3FDE1E7019B013301939DF8AB
:1050100003305B00DBB28DF803309DF8033013F0F2
:10502000800FF1D1019B082B36D0019BC3F1070300
:10503000224A1360214A13681B02136003F4E063E1
:1050400013609DF80230DBB21A4A13704FF0E0246F
:10505000D4F8203D43F47F03C4F8203DD4F8203D2C
:1050600043F07F43C4F8203D0025C4F81C5DFFF7E2
:105070005FFF134B1D60FFF7CDFED4F8343F43F0C4
:105080004043C4F8343FFFF77DFEFEF767FDFFF7AE
:10509000CBFE284603B030BD084B00221A60C9E79A
:1050A00071C20F4170C20F41614D000850E8000805
:1050B000B14D000800E400E0940A0020900A0020AE
:1050C0007800002008B5EFF305830F2B05D90E4AB1
:1050D0009A5C0E4B1B789A420AD34FF0E023D3F828
:1050E0000C3D03F4E0630A4A1268934206D808BDF7
:1050F00040F27A310748FBF759FDEEE740F28A317A
:105100000448FBF753FDF2E7F0E300E0940A0020C7
:10511000900A002050E80008144B1A461B6883428E
:10512000FBD3516802EB010C844509D0416800EBC8
:10513000010C634509D00360904200D010607047B5
:105140004068014451601046F0E7DFF824C0DCF805
:1051500000C0634506D05B681944416013681B6852
:105160000360E9E7C0F800C0E6E700BFAC0A002032
:10517000A80A00202DE9F04105464A4B1B68ABB157
:10518000CDB115F1090F20D8083515F0070305D06A
:10519000C3F10802093BAB421BD31544FEF738FBB1
:1051A000002D0ADAFEF704FC002719E0DA213E4858
:1051B000FBF7FCFCE4E7FEF72BFB75B13B4B1B68F0
:1051C000AB4215D33A4E346818E0FEF721FB0025B8
:1051D000F3E7FEF71DFB0025EFE7FEF7E9FB2F469F
:1051E000FBF7E7FC17F0070F55D13846BDE8F08113
:1051F000FEF7DEFB0027F3E726461C466368AB425A
:1052000002D22368002BF7D1264B1B68A34232D071
:1052100037680837236833606368AB422FD363680D
:105220005B1B102B0ED96319984613F0070F2CD176
:1052300063685B1BC8F8043065603368C8F80030E9
:10524000C6F80080626819490B689B1A0B601949FF
:1052500009688B4201D217490B6042F0004262603C
:1052600000232360144A136801331360FEF7A0FB88
:10527000002FB7D1B4E7FEF79BFB0027B0E740F261
:1052800029110948FBF792FCC9E74FF499710648C8
:10529000FBF78CFCCCE740F273110348FBF786FC6C
:1052A000A3E700BFA80A0020CCE80008A40A002059
:1052B000AC0A0020A00A00209C0A0020002835D05B
:1052C00038B50446A0F108031D4650F8043C002BF5
:1052D0000CDA54F8083C23B14FF4C4711448FBF7BE
:1052E00065FC54F8043C002B06DB38BD40F2871106
:1052F0000F48FBF75BFCECE754F8082C002AF4D1CC
:1053000023F0004344F8043CFEF782FA54F8041CEE
:10531000084A13680B4413602846FFF7FDFE064A4F
:10532000136801331360FEF743FBDEE7704700BFED
:10533000CCE80008A40A0020980A00202DE9F041DA
:105340008046294B1B6823B140F221212748FBF7F7
:105350002DFC4346002637461BE0234B1B6853B306
:10536000214B1B68AB422CD21F4A11686319083BC2
:1053700023F00703136000225A601A602A46581B64
:1053800068602B6001B10D6053681F44013608EB63
:10539000C6035C68DCB11D6815F0070F05D0EB1D76
:1053A00023F00703ED1A2C441D46002ED5D1104BD7
:1053B0001D605E60D8E740F249210C48FBF7F6FB20
:1053C000CEE74FF413710948FBF7F0FBCCE7094B2C
:1053D0001F60094B1F600FB1BDE8F08140F28921C9
:1053E0000248FBF7E3FBF7E7A80A0020CCE8000837
:1053F000AC0A0020A00A0020A40A002008B5FEF78D
:105400000FFAC30E4101091A63F100039B0043EA3E
:1054100091738900091843F100034FEAC30C4FF45C
:105420007A720023C8004CEA5171FAF7C1FE08BD38
:1054300008B5012807D80B782BB10E4A1354022B5C
:105440000BD0012008E04FF0E023D3F8F03D13F03B
:10545000010F00D000BE002008BD00F037FB00287F
:10546000FAD14FF0E023D3F8F03D13F0010FF3D061
:1054700000BEF1E7B40A002070B50446037813F0CB
:10548000050F03D000231D46284670BD08460E4672
:105490004FF0FF31FFF74EF9237803F00503002B9F
:1054A0000CBF012300231D4603D1237843F00403DE
:1054B000237000231A4619463046FEF755FFE3E7EE
:1054C00070B50446064608460D464FF0FF31FFF71B
:1054D00031F9237803F00503042B0CBF01230023CB
:1054E0001C4607D000231A4619462846FEF73CFF03
:1054F000204670BD337803F0FB033370F2E730B51C
:1055000015461C46039BBDF810C09C44634531D230
:1055100093F800E09E44F4452ED393F801E0BEF1E9
:10552000050F06D0BEF1040F0ED093F800E07344CF
:10553000ECE793F802E00EF00F024FEADE1E01EBFB
:10554000420202F80E00F0E793F803E0BEF1000F0C
:10555000EBD193F802E0A64502D205F80E00E4E78D
:105560004FF0E023D3F8F03D13F0010F00D000BE60
:10557000002000E0012030BD0120FCE743694268C3
:105580005A60C2781A70704710B10520042304E0F5
:105590000420002301E00133DBB298420DD903EB74
:1055A0004302C2EB4211064A0A441032127912F049
:1055B000010FF0D10133D8B270470020704700BF0F
:1055C000300D002010B504465D220021FAF7BDFF22
:1055D0004FF0FF33C4F81530C4F819302022FF21F2
:1055E00004F11D00FAF7B1FF10BD000008B5064B2D
:1055F000FF221A700022DA6108B9D87800B908BD14
:1056000001F062FFFBE700BFC40B00202DE9F0476B
:1056100082B00646431EDBB2042B18D8431E03EBB0
:105620004303C3EB43132E4A134499464F880F4458
:105630000B78CC18BC424FD22278A3189F424BD390
:10564000002A49D06278042A04D01C46F2E70023DD
:105650009946EBE73B1B9BB2984600250BE0EB1A03
:10566000DBB2012B05D8C3EBC3031E4A02EB830355
:1056700010E00135EDB21C4B1B78AA465A1CAA4219
:1056800020DBAB42EBD9194B1B68C5EBC50213EB12
:105690008203EED0DB689C4643462246314699F8A9
:1056A0000000E0470828E4D98045E2D38046019015
:1056B0000094082349464A4615321D312846FFF713
:1056C0001EFF4444084B1B7802339A4501D0234601
:1056D000BBE723782344B8E7012002B0BDE8F08798
:1056E000300D0020B4E90008B60A0020B80A0020F6
:1056F00010B588B004468E461A4B0DF1180C93E88D
:1057000003008CE8030000230093019302930393AA
:10571000049305938DF800408DF803E0124B9A8AAC
:1057200092B20192CDF808C09A680392DA680492A6
:105730001A6905929B7D2BB9049B0BB1684698476B
:1057400008B010BD4FF0FF31084C2068FEF7F2FFA3
:105750000021054B99750B460A462068FEF704FEAA
:10576000EAE700BFBC0A0020C40B00202C0D00207B
:10577000704701207047704703460020187070473B
:10578000704770472DE9F04782B005460E46174630
:1057900000238DF8043070E0131D6B44012203F8E0
:1057A000042C99E0A9EB0303DBB2012B07D8C3EB70
:1057B000C303564A02EB83039B692046984709F1CD
:1057C00001095FFA89F9524B1B785A1C4A4509DBDB
:1057D0004B45E7D94F4B1B68C9EBC90213EB82035A
:1057E000EAD1ECE72146284604F0C6F8DFF828A104
:1057F0004FF0FF31DAF80000FEF79CFFDFF81C9154
:1058000009EB040292F82830013382F82830002393
:105810001A461946DAF80000FEF7A6FD99F8173087
:105820009C4207D03D4B1B789C420CD04046FFF772
:10583000C9FE23E099F81630002BF3D00121204651
:10584000FFF756FFEEE7354BFF221A70DA69344B4B
:105850009A42EBD1314B0022DA61E7E7002343B9EA
:1058600003F108026A4412F8042C002A37D10133EC
:10587000F5E70123002B46D19BB30024042CEDD87F
:10588000224604EB4403C3EB4313264903EB010810
:105890000134E4B202EB4203C3EB4313CB5CAB42F3
:1058A000ECD1434610331B7913F0010FE6D01EB143
:1058B00098F80130B342E1D147B102EB4203C3EBA8
:1058C000431318490B449B78BB42D7D1042C3FF6B5
:1058D00063AF2046FFF755FF4FF0000973E7002341
:1058E000C8E703F108026A4412F8042C12B9013324
:1058F000DBB2C1E703F108026A4402F8043C5E1D12
:10590000F6B21F46B9E702B0BDE8F087B4E9000877
:10591000B60A0020B80A00202C0D0020C40B00207D
:10592000196F0008300D002038B5244B1B7823B9BF
:105930000278224B9B789A4205D04279017900780F
:10594000FFF720FF38BD01791C4AD2789142F4D18B
:1059500041791A4A12799142EFD10021184604F098
:105960000BF84FF0FF31164D2868FEF7E3FE134A9F
:1059700092F828300133144682F8283000231A4662
:1059800019462868FEF7F0FCE37D73B10B4B1B78DA
:10599000002BD7D1094BFF221A70DA69094B9A42C2
:1059A000D0D1064B0022DA61CCE7A37D002BEDD0ED
:1059B00001210020FFF79CFEE8E700BFC40B002098
:1059C0002C0D0020196F000838B50C4BDB694BB16A
:1059D0004FF0E023D3F8F03D13F0010F00D000BEEC
:1059E000002038BD0546054CE1612262FFF706FD47
:1059F0002844013060620120F3E700BFC40B00209F
:105A000008B50278054B9A700279DA7042791A71FA
:105A1000002203499620FFF7D7FF08BDC40B0020E2
:105A2000196F000870B1421ED2B2042A10D8431E6A
:105A300003EB4303C3EB4313064A1344187D00F002
:105A400001007047044B1878B0FA80F040097047A5
:105A500000207047300D0020C40B0020431EDBB235
:105A6000042B1BD8013800EB4000C0EB40100D4B5D
:105A70000344A9B100B512220A7001204870D3F87E
:105A800004E0D3F808C0DA681B69C1F802E0C1F885
:105A900006C0C1F80A20C1F80E3000BD00207047D2
:105AA00008467047300D0020034B1B78834214BF1B
:105AB00000200120704700BF7C000020024B1878B6
:105AC000FF3818BF012070477C0000202DE9F0410D
:105AD00007468846FFF7E8FF0646002840F0A38007
