:020000040800F2
:10000000000003205D3A0008C1110008C311000878
:10001000C5110008C7110008C91100080000000040
:10002000000000000000000000000000D16E000889
:10003000CB11000800000000216F00087570000857
:10004000AD3A0008AD3A0008AD3A0008AD3A0008F4
:10005000AD3A0008AD3A0008AD3A0008AD3A0008E4
:10006000AD3A0008AD3A0008AD3A0008AD3A0008D4
:10007000AD3A0008AD3A0008AD3A0008AD3A0008C4
:10008000AD3A0008AD3A0008AD3A0008AD3A0008B4
:10009000AD3A0008AD3A0008AD3A0008AD3A0008A4
:1000A000AD3A0008AD3A0008CD110008AD3A00089D
:1000B000AD3A0008AD3A0008AD3A0008AD3A000884
:1000C000AD3A0008AD3A0008AD3A0008AD3A000874
:1000D000AD3A0008AD3A0008AD3A00083D360008D8
:1000E000AD3A0008AD3A0008AD3A0008AD3A000854
:1000F000AD3A0008AD3A0008AD3A0008AD3A000844
:10010000AD3A0008AD3A0008AD3A0008AD3A000833
:10011000AD3A0008AD3A0008AD3A0008AD3A000823
:10012000AD3A0008AD3A0008AD3A0008AD3A000813
:10013000AD3A0008AD3A0008AD3A0008AD3A000803
:10014000AD3A0008AD3A0008AD3A0008DD110008EC
:10015000AD3A0008AD3A0008AD3A0008AD3A0008E3
:10016000AD3A0008AD3A0008AD3A0008AD3A0008D3
:10017000AD3A0008AD3A0008AD3A0008AD3A0008C3
:10018000AD3A0008AD3A0008AD3A0008AD3A0008B3
:10019000AD3A0008AD3A0008AD3A0008AD3A0008A3
:0C01A000AD3A0008AD3A0008AD3A000886
:1001B00053B94AB9002908BF00281CBF4FF0FF31CE
:1001C0004FF0FF3000F00CB8ADF1080C6DE904CE33
:1001D00027F03CFFDDF804E0DDE9022304B07047BE
:1001E000704700BF10F8012B11F8013B012A28BF0E
:1001F0009A42F7D0D01A7047034613F8012B002A11
:10020000FBD1181A01387047000000000000000000
:1002100001F0FF01102A2BDB10F0070F08D010F8B7
:10022000013B013A8B422DD010F0070F42B3F6D1BB
:10023000F0B441EA012141EA014122F007047FF0D4
:1002400000070023F0E80256083C85EA010586EA2B
:10025000010685FA47F5A3FA87F586FA47F6A5FA67
:1002600087F68EB9EED1F0BC01F0FF0102F0070273
:1002700032B110F8013B013A83EA010313B1F8D11E
:100280000020704701387047002D06BF35460338FF
:10029000073815F0010F07D1013015F4807F02BF38
:1002A000013015F4C03F0130F0BC0138704700BF89
:1002B0000348044B834202D0034B03B118477047F5
:1002C0004401002044010020000000000548064BC6
:1002D0001B1AD90F01EBA301491002D0034B03B144
:1002E000184770474401002044010020000000002E
:1002F00010B5064C237843B9FFF7DAFF044B13B16E
:100300000448AFF300800123237010BD4801002092
:10031000000000004090020808B5054B1BB10549DC
:100320000548AFF30080BDE80840FFF7CFBF00BF2E
:10033000000000004C01002040900208002310B58E
:100340000446C0E90033C0E9043383608181436619
:10035000C2818361194608225C3000F0F6F80D4B2B
:1003600063620D4BA3620D4BE3620D4B23630D4B98
:1003700024629C4206D003F16802944202D0D0333A
:100380009C4205D104F15800BDE8104000F050B97E
:1003900010BD00BFC3040008E50400081D050008E7
:1003A0004305000864010020024A0349034800F0A5
:1003B0006BB800BF000000201D09000810000020DD
:1003C00041680C4B994210B5044601D000F0A6FAE2
:1003D000A168094B994202D0204600F09FFAE168DB
:1003E000064B994204D02046BDE8104000F096BA72
:1003F00010BD00BF64010020CC01002034020020A9
:1004000010B50A4B0A4A1A600A4800220421FFF775
:1004100095FF094801220921FFF790FFBDE8104030
:10042000064802221221FFF789BF00BF9C0200206C
:10043000A903000864010020CC0100203402002040
:10044000014800F0F6B800BFA5020020014800F006
:10045000F1B800BFA502002010B50446FFF7F0FF79
:10046000236A1BB1BDE81040FFF7F0BF044B2362C5
:10047000044B1B68002BF5D1FFF7C2FFF2E700BF6A
:10048000C10300089C0200202DE9F84380468946FC
:1004900014460026D4E90175013F05D52468002CD7
:1004A000F8D13046BDE8F883AB89012B07D9B5F9FF
:1004B0000E30013303D029464046C847064368350D
:1004C000EAE710B50C46B1F90E1000F069F8002803
:1004D000ABBF636DA3891B1823F48053ACBF636566
:1004E000A38110BD2DE9F0411F468B89DB05054630
:1004F0000C46164605D5B1F90E100223002200F075
:100500003DF8A389B4F90E1023F48053A381324639
:100510003B462846BDE8F04100F054B810B50C4603
:10052000B1F90E1000F02AF8B4F90C30421C0BBFE0
:1005300023F4805343F48053A381A38118BF6065E3
:1005400010BDB1F90E1000F009B802440346934201
:1005500000D1704703F8011BF9E7000038B5064CDD
:10056000002305460846236000F062FE431C02D1CA
:10057000236803B12B6038BDA002002038B5074CBA
:10058000054608461146002222601A4600F055FE34
:10059000431C02D1236803B12B6038BDA0020020A8
:1005A00038B5074C054608461146002222601A4617
:1005B00000F041FE431C02D1236803B12B6038BD1B
:1005C000A002002038B5074C054608461146002217
:1005D00022601A4600F01AFE431C02D1236803B1C0
:1005E0002B6038BDA002002070B50D4B0D4C0026CD
:1005F0001D1BB6EBA50F09D128F022FD0A4C0B4BB1
:1006000000261D1BB6EBA50F05D170BD54F8043BA9
:1006100098470136EDE754F8043B98470136F1E777
:100620001C6F03081C6F03081C6F0308206F03086E
:10063000704770477047000037B5002944D051F823
:10064000043C0190002BA1F10404B8BFE41800F0B1
:10065000DDF81E4A0198136833B96360146003B073
:10066000BDE8304000F0D8B8A34208D92568611928
:100670008B4201BF19685B6849192160EDE71A4692
:100680005B680BB1A342FAD911685518A5420BD18A
:10069000246821445418A3421160E0D11C685B68AF
:1006A00053600C441460DAE702D90C230360D6E7E8
:1006B000256861198B4204BF19685B68636004BFD9
:1006C000491921605460CAE703B030BDAC02002074
:1006D00070B50F4C0E462168054611B900F046F979
:1006E00020603146284600F041F9431C03D14FF009
:1006F000FF34204670BDC41C24F00304A042F8D08F
:10070000211A284600F032F90130F2D1EFE700BF9C
:10071000A80200202DE9F843CD1C25F0030508357B
:100720000C2D38BF0C25002D064601DBA94204D94B
:100730000C2333600020BDE8F883334F00F066F8E7
:100740003B681C463CBB29463046FFF7C1FF431CB3
:10075000044656D13C68A046B8F1000F40D1002CA9
:1007600049D023684146304604EB030900F0FEF807
:10077000814540D121686D1A29463046FFF7A8FF10
:10078000013038D023682B4423603B685A685ABB39
:10079000C7F800800EE02268521B1ED40B2A16D91F
:1007A0006119A342256018BF5960636808BF3960AA
:1007B00062514B60304600F02FF804F10B00231D0E
:1007C00020F00700C21A1CBF1B1AA350B3E76268CF
:1007D000A3420CBF3A605A60ECE723466468B1E775
:1007E0004446D8F80480B7E71A465B68A342FBD1B9
:1007F00000235360DEE70C233360304600F00CF832
:1008000098E70560D6E700BFAC0200200148FFF77B
:1008100010BF00BFA40200200148FFF70BBF00BFBC
:10082000A4020020B1F90C20F8B5160705460C46C5
:1008300051D44B68002B02DC0B6C002B49DDE66ABF
:10084000002E46D0002312F480522F682B6031D046
:10085000626DA389590705D56368D21A636B0BB122
:10086000236CD21A0023E66A216A2846B047421C4C
:10087000B4F90C3006D129681D2944D8264ACA404B
:10088000D60740D500226260D9042269226004D5CF
:10089000421C01D12B6803B96065616B2F60C1B147
:1008A00004F14403994202D02846FFF7C5FE002315
:1008B00063630EE0216A01232846B0470246501CBC
:1008C000C7D12B68002BC4D01D2B01D0162B19D1FA
:1008D0002F6000201CE00F69002FFAD093070E68EC
:1008E00008BF4B690F6018BF0023F61B8B60002EFA
:1008F000EFDD216AD4F828C033463A462846E0475F
:10090000002806DCA38943F04003A3814FF0FF30A9
:10091000F8BD0744361AEAE70100402038B50B69F4
:1009200005460C4613B91D46284638BD18B1036A62
:100930000BB9FFF791FDB4F90C30002BF3D0626EC8
:10094000D00704D4990502D4A06DFFF772FE2846A3
:100950002146FFF767FF636EDA070546E4D4A389F3
:100960009B05E1D4A06DFFF765FEDDE738B5064CC9
:10097000002305460846236000F036FC431C02D1E4
:10098000236803B12B6038BDA0020020030A42098E
:1009900023F4FF6323F0070302F4FC6213439BB2CA
:1009A000C0F3C4001843704703280DD006D80128AF
:1009B0000CD002280CD068B90948704704280BD025
:1009C00005280BD10748704707487047074870470C
:1009D0000748704707487047074870470548704701
:1009E000A49002082C920208C8900208B090020855
:1009F000BC900208E0900208D490020810B5064BA3
:100A00001C68064B1878FFF7CFFF024604492046C2
:100A100026F0C9FF10BD00BFB80200205C05002011
:100A2000E890020808B521F02DFB0EF081FE08BD0C
:100A300070B504460D46164614F0E1F932462946D3
:100A4000204614F0E3F932462946204614F0C9F94D
:100A500032462946204614F0CBF970BD38B50D4614
:100A60000FF0A8FE04460D4A002114F03EF80122C2
:100A70004FF44271204610F0FBFE2A460C2120461E
:100A800010F0BEFE002248F25241204614F0C5F993
:100A90000022FF21204614F0C7F938BDFFFF0F00E8
:100AA000F8B50F4616461D4626F09AFB044600226E
:100AB000294614F0C7F90698FFF768FF014600229F
:100AC000204614F0B8F900221146204614F0ACF983
:100AD000002211462046FFF7ABFF0799204626F07B
:100AE00025FF32463946204610F08AFE2046F8BDE2
:100AF00030B583B00D4606990191009313462A46FE
:100B00000021FFF7CDFF04464FF4487110F082FE3C
:100B100000220221204614F09CF92A46002120469A
:100B200010F06EFE204603B030BD000008B502F0A4
:100B300089FA38B100F01E031E2B01D0044902E0EF
:100B4000044900E00449054B586826F0EFFE08BD53
:100B50005C91020838910208F8900208B80200205F
:100B600010B584B0002303930293134B1868134A03
:100B7000A2FB00321249A1FB00435B09A1FB034128
:100B80004909C1EB0111C3EB0314A0EB84000D4C28
:100B90000090A3EB8103D20A0B49E06826F003FF23
:100BA00002A903A802F0C2FE029B039A074920692A
:100BB00026F0F9FE04B010BDB4020020C5B3A29126
:100BC00089888888B8020020749102088C910208F4
:100BD00008B5094A136801331360FFF70FFFFFF7E9
:100BE000BFFF064B1B7803B908BDFFF79FFF034B00
:100BF00000221A70F8E700BFB4020020B002002003
:100C00002DE9F04383B0FFF70DFF044610210FF0EC
:100C1000DDFD00252A464FF00001204614F0FDF8C6
:100C20002A46FF21204614F0FFF82A46294620468E
:100C3000FFF7FEFE20460FF0BDFD0646414A29465D
:100C400013F053FF20224FF44871304610F010FE8D
:100C50002A462946304610F0D3FD2A4641F2A30128
:100C6000304614F0DAF82A46FF21304614F0DCF85A
:100C7000354FDFF8D880364B00933B46424606217D
:100C80003046FFF735FF334B019300974346382238
:100C90000C212046FFF704FF2F4E3060DFF8BC80A8
:100CA0002F4B01930097434664220C212046FFF707
:100CB000F7FE706054212046FFF7D0FE294B0193C8
:100CC0000097434690220C212046FFF7E9FE81461B
:100CD000B06003F097F9244BA3FB0032920C234938
:100CE000484626F060FEA8212046FFF7B7FE204BBD
:100CF000019300974346BC220C212046FFF7D0FE0B
:100D0000F0601C4B01931C4B00934346E8220C21DE
:100D10002046FFF7C5FE30610123184A1370184AB8
:100D20001560184A1370FFF769FEFFF7FFFEFFF723
:100D300017FF2A464FF47A71134823F0DDFD03B004
:100D4000BDE8F083FFFF0F00DCD6D20008B4020834
:100D5000AC910208C4910208B802002024B4020831
:100D6000D4910208AC96020883DE1B43E09102088E
:100D7000F09102080492020890888000B1020020DD
:100D8000B4020020B0020020D10B00082DE9F04190
:100D900082B007460E461546FFF744FE044614F09F
:100DA00047F94FF00008304B83F8008010212046AF
:100DB0000FF00CFD42464FF00001204614F02DF8D4
:100DC0004246FF21204614F02FF8284B0093284B71
:100DD000284A06212046FFF78BFE002F3ED00197C0
:100DE000234B0093244B46220C212046FFF758FE4C
:100DF000002E35D001961E4B00931F4B6E220C2106
:100E00002046FFF74DFE6DB31B4E0195184B009326
:100E1000334696220C212046FFF742FE174B0193E2
:100E2000174D00953346D2220C212046FFF738FE9D
:100E3000144B019300953346F0220C212046FFF716
:100E40002FFE114B0193009533464FF484720C2111
:100E50002046FFF725FE02B0BDE8F0810B4FBEE74C
:100E60000A4EC7E7094DCFE7B102002020920208E1
:100E7000DCD6D20008B4020824B402083492020876
:100E8000908880004892020864920208AC9602089A
:100E9000034B1B7813B1034B01221A70704700BF3C
:100EA000B1020020B002002010B500240FE00020A5
:100EB00002F048F916E0052B26D1012002F042F994
:100EC00002E0012002F016F9642004F0D7FE01349C
:100ED0000F4A82FB0432E317C3EB620303EB830385
:100EE0009C42E4D00B4B1A78D3B2042AE9D0042BED
:100EF000E1D8023BDBB2012B06D814F0030FE3D19B
:100F0000012002F01FF9DFE7012002F007F9DBE71B
:100F1000676666665C05002000B583B072B6012086
:100F200002F010F900230193019A034B9A42F6D87C
:100F3000019B01330193F7E7FEFF010010B594B068
:100F400008AC302200212046FFF7FFFA002303936C
:100F500004930593069307930193204A116C41F083
:100F600080511164126C02F080520192019A029336
:100F70001B4B1A6842F440421A601B6803F440435A
:100F80000293029B012308934FF4803309930223B9
:100F90000E934FF480020F92192210924FF4A87210
:100FA0001192129307231393204602F02DFE88B965
:100FB0000F2303930223049305904FF4A053069349
:100FC0004FF480530793052103A803F06FF818B975
:100FD00014B010BDFFF7A0FFFFF79EFF00380240DE
:100FE0000070004000B583B002F062FDFFF7A6FF7D
:100FF00002F052F8002002F091F8012002F08EF881
:1010000002F042FA284827F011FA00F087FC00F0BD
:10101000D1FC7F2002F0A8F8244827F007FA2448E2
:1010200027F004FA02F014FA20B1224827F0FEF962
:10103000FFF772FF204827F0F9F9204806F036FA4A
:101040001F4827F0F3F900F0E3FB20B91D4827F013
:10105000EDF9FFF761FF1C4827F0E8F9002401943F
:101060000323009323464FF480621849184804F084
:1010700013FC01940123009323464FF48072154919
:10108000154804F009FC01940223009323464FF411
:1010900080621249124804F0FFFB84F3118862B6A3
:1010A00004F03AFCFFF738FF8C9202089C92020889
:1010B000B4920208C4920208D89202085C00002090
:1010C000E892020818930208309302084C93020831
:1010D0005918000854930208A90E000858930208F2
:1010E0007512000808B5FFF717FF08B5FFF714FFE2
:1010F00008B5FFF711FF000030B589B005460023A1
:101100000193244B5A6C42F480225A645B6C03F4C2
:1011100080230193019B02A903A803F09DF8079B7C
:10112000F3B903F089F803461B4AA2FB03239B0C87
:10113000013B1A481A4A026040F2E732C26043603B
:10114000002303618360836103F0C8FF044658B144
:101150001A2002F055FDC4B90F2D0ED9012415E057
:1011600003F06AF84300DFE70C4C204603F078FEFA
:10117000204603F033FE0446EAE7224629461A20B9
:1011800002F02EFD074B1D6000E00124204609B04F
:1011900030BD00BF0038024083DE1B43CC0200207C
:1011A00000480140E400002008B50268034B9A4261
:1011B00000D008BD02F096FCFBE700BF00480140EC
:1011C000FEE7FEE7FEE7FEE7FEE7704708B50248E8
:1011D00003F063FE08BD00BFCC02002008B501216A
:1011E00000200AF025FF08BD0346064A126822B116
:1011F000044A1068034413607047024A02491160B0
:10120000F6E700BF140300203037002010B5431E5E
:10121000012B06D808461446114602F089F92046EB
:1012200010BD27F007FA092303604FF0FF30F7E7FE
:101230004FF0FF30704700207047002070474FF498
:1012400000534B60002070470120704708B501F043
:10125000F9FE28B9044A05490548FFF797FD08BD7E
:10126000FFF7CEFCFBE700BF5C9302087C9302080B
:101270009893020838B5294827F0D8F801F0A6FD60
:1012800038B1274827F0D2F84FF47A7004F0F6FC12
:10129000FAE705460FF062FA02F0A8FB214827F0B2
:1012A000C5F8214A21492248FFF770FD13E0214883
:1012B00027F0BCF801F07AFEF8B901F0C3FE014650
:1012C0001D4827F04BF8FFF7C1FF254623F07AFBB6
:1012D000052004F0D3FC194B1B78DCB2AB42F5D0EF
:1012E000042CE4D0052C12D00F4A10491048FFF707
:1012F0004DFDFFF7CDFD2546E8E7114827F096F8AC
:10130000104A11491148FFF741FD2546DEE7104A12
:1013100010491148FFF73AFD2546D7E7B093020878
:10132000D8930208089402083494020850940208E2
:101330006C94020884940208B49402085C050020AE
:10134000D8940208F4940208189502083895020807
:101350004C9502086495020878950208024B002219
:101360001A700120704700BF1C03002010B504460E
:1013700002E0012004F082FC024B1B5D002BF8D13F
:1013800010BD00BF1C03002070B5ADF51C7D1D48CD
:101390000EF054F81C480EF051F896AC1B4D0FCDD2
:1013A0000FC495E8030084E80300002404E0294604
:1013B000174826F0D3FF0134022C1FD89CAB03EB57
:1013C000C40353F8185C0A22294602A80DF00AFA51
:1013D00002460028EBD19CAB03EBC40353F8146C1A
:1013E0003046FEF709FF024602AD01AB3146284602
:1013F0000DF081FC28460DF04BFEDCE70DF51C7D61
:1014000070BD00BF849502088C95020858900208B0
:101410009895020870B590B006460D460024234604
:101420000AE0591C03F140000DEB000C0CF8402CB5
:101430003F2B0ED001340B46AC420FD2325D1F2A37
:10144000EFD80D2AEDD00A2AEBD0092AE9D02E22B6
:10145000E7E7684602F06CF80021EBE70BB910B043
:1014600070BD1946684602F063F8F8E730B5ADF58F
:10147000277D0C460122014612A80DF0B3F928B9C8
:1014800021461E4826F06AFF002409E001461C4858
:1014900026F064FF24E002A8FFF7BCFF019B1C4478
:1014A00001AB402202A912A80DF03EFB054670B91F
:1014B000019951B10B19B3F5006FECD9C4F5006176
:1014C00002A8FFF7A7FF012402E00C4600E0002479
:1014D0004DB912A80DF0DCFD54B90A4826F0A6FF5C
:1014E0000DF5277D30BD2946074826F037FFF0E788
:1014F0004FF40061054826F031FFEEE7D095020871
:10150000B89502082C960208F09502080C9602087D
:10151000F0B5ADF52F7D1D46052902DD0DF52F7DBA
:10152000F0BD04460F46164601469AA80DF0F5FE9A
:10153000024600BB52A99AA80DF04FFF0146F8B928
:101540009DF86231FBB129490DF5B170FEF74AFEF5
:101550000028EFD026490DF5B170FEF743FE0028B4
:10156000E8D02046FEF748FE88B1431EE35C2F2BEF
:101570002DD0204A0CE021461F4826F0EFFECDE793
:101580001E4826F0EBFE9AA80DF01DFFC6E7194A8B
:101590000DF5B173019300922346194A4FF4A071DF
:1015A00002A826F04BFF9DF8543113F0100F10D015
:1015B0002B6801332B6002A9124826F0CFFE2B4680
:1015C00032463946013102A8FFF7A2FFB2E70E4AC0
:1015D000DEE7336801333360529A02A90B4826F0E4
:1015E000BDFE529902A8FFF741FFA3E780940208CD
:1015F0007C9602083C960208409602086096020813
:101600008096020888960208AC9602089496020812
:1016100010B582B0002401940094104826F006FF13
:10162000FFF7B2FE0E4826F001FF6B4601AA2146E5
:101630000C48FFF76DFF019A00990B4826F08EFECB
:10164000202005F04FFE38B104460146074826F039
:1016500085FE204605F0EAFE02B010BDB0960208F5
:10166000C4960208F0960208F49602082897020829
:1016700000B583B0144B1B68ADF804301B0C8DF81B
:10168000063005E0114826F069FE114B05221A705C
:101690004FF0FF310F4B186805F004F9012008F0F6
:1016A000C3F90028F4D00A4B03221A70012201A9C1
:1016B00009480DF06BF801460028E3D1044B0422E1
:1016C0001A70FFF7A5FFE3E7709702085897020822
:1016D0005C050020180300202003002008B501301D
:1016E000C0B208F0A1F908B1002008BD0220FCE753
:1016F0000020704730B585B0044601300C4D4FF0E6
:10170000010C05F804C000250295DFF828C0CDF8CB
:1017100004C09BB2009313460A462946C0B208F0A3
:10172000F9FA2046FFF722FE284605B030BD00BF7B
:101730001C0300205D13000830B585B0044601305D
:101740000C4D4FF0010C05F804C000250295DFF8A0
:1017500028C0CDF804C09BB2009313460A46294620
:10176000C0B208F033FB2046FFF700FE284605B064
:1017700030BD00BF1C0300205D13000810B51446E7
:101780000130C0B2022913D00AD8B9B1012905D15C
:10179000002108F02DF92060002010BD0420FCE796
:1017A000032903D1012313600020F6E70420F4E7A6
:1017B000002108F02BF920800020EEE70846ECE736
:1017C00008B5074826F032FE064B02221A70064B77
:1017D000186820B100231A46194604F07DFE08BDA2
:1017E000749702085C0500201803002008B505481E
:1017F00026F01CFE0020044B1870024603490CF032
:10180000C5FF08BD949702085C0500207097020888
:1018100000B583B000210C4B19700322012004F0A5
:101820002FFE0A4B186060B1002301930222009240
:101830004FF400620649074804F02EF8012800D052
:10184000002003B000BD00BF1C03002018030020CF
:10185000A89702087116000800B583B001F0F2FEE7
:101860000B4B1B8BADF8043001A9002005F098FE4E
:1018700040B1084826F0DAFD00214FF0FF3006F0B5
:10188000FFFDF9E7044826F0D1FDFFF745FBF0E73F
:1018900058900208C4970208B097020884B00190DB
:1018A000019B03EBC3035B00039300E000BF039BBA
:1018B0005A1E0392002BF9D104B0704700B587B0CF
:1018C00001A9002301934B608B60CB600B61102357
:1018D00001930123029303230493024802F0DAFCEC
:1018E00007B000BD001C024000B587B001A900236D
:1018F00001934B608B60CB600B613023019312230B
:1019000002930123039303230493042305930248C2
:1019100002F0C0FC07B000BD001C024010B588B04A
:1019200003A9002403944C608C60CC600C6101948A
:101930001B4B1A6C42F480021A641A6C02F4800287
:101940000192019A02941A6B42F080021A631B6B97
:1019500003F080030293029B30230393122304932A
:101960000123059303230693042307930D4802F0F4
:1019700091FC0D480D4B03600D4B43608460C460C7
:101980004FF48043036144618461C461046203F0E5
:101990005DF808B908B010BDFFF7BEFAFAE700BF5E
:1019A00000380240001C0240600500200058004042
:1019B000A0860100424B1B685A699B69414909692D
:1019C000C3F3400311F0200F04D002F4E0620BB91E
:1019D000002A6AD0F0B587B0FFF770FF012210210E
:1019E000384802F067FD0A20FFF758FF0025082D50
:1019F00016DC344C00221021204602F05BFD0A2048
:101A0000FFF74CFF01221021204602F053FD0A206F
:101A1000FFF744FF236913F0200F01D10135E6E7FA
:101A200001A9002401944C608C60CC600C612026DC
:101A300001960127029703230493224D284602F0C2
:101A400029FC22463146284602F034FD0A20FFF7E1
:101A500025FF3A463146284602F02CFD0A20FFF7C2
:101A60001DFF174D284603F0DEF8284602F0EEFF72
:101A7000FFF73AFF144B6B60AC60EC604FF48043AF
:101A80002B616C61AC61EC612C62284602F0DEFFD8
:101A900068B92B689B6913F0020F0BD1094B1B69C6
:101AA00013F0200F09D007B0F0BD104670474FF07B
:101AB000FF30F8E74FF0FF30F5E74FF0FF30F2E787
:101AC00060050020001C0240A0860100002206E004
:101AD00000BF01339BB2042BFAD9013292B2824289
:101AE00001D20023F7E7704700BF024BA3F8FE00C6
:101AF000704700BF00FF076082B000BF054BB3F81E
:101B000000319BB2ADF80630BDF8060080B202B0DD
:101B1000704700BF00FF076000BF024BA3F8000141
:101B2000704700BF00FF076000BF034BA3F8FE0033
:101B3000A3F80011704700BF00FF076010B504282C
:101B400065D05CD8022864D0032864D0012864D111
:101B5000802421464FF45850FFF7E6FF14F0200F81
:101B600005D0324BDA681969D96092B21A612F4CEC
:101B7000E088FFF7B9FF0020FFF7CEFFE0880130D3
:101B800080B2FFF7B1FF0020FFF7C6FFE088023008
:101B900080B2FFF7A9FFE0680138C0F30F20FFF71C
:101BA000BBFFE088033080B2FFF79EFFA0890138B9
:101BB000C0B2FFF7B1FF2089FFF796FF0020FFF7C3
:101BC000ABFF2089013080B2FFF78EFF0020FFF7C6
:101BD000A3FF2089023080B2FFF786FF2069013819
:101BE000C0F30F20FFF798FF2089033080B2FFF782
:101BF0007BFF208A0138C0B2FFF78EFF10BD062898
:101C00000DD007280DD005280DD16024A1E7202490
:101C10009FE740249DE7C0249BE7002499E7A02488
:101C200097E7E02495E7002493E700BFB405002080
:101C300008B50020FFF782FF08BD00002DE9F0473E
:101C400094B00DAE00240D940E940F941094119442
:101C50001294139406AF06940794089409940A9476
:101C60000B940C9401AD0194029403940494059494
:101C7000DFF8E0A022462021504602F01BFC202382
:101C800001934FF00108CDF80880CDF80C804FF09B
:101C90000209CDF810902946504602F0FBFACDF823
:101CA00008900394032304930C2305934FF6B37316
:101CB00001932946284802F0EDFA4FF6807301930C
:101CC0002946264802F0E6FA4FF23F0301932946DF
:101CD000234802F0DFFA3F2301932946214802F00E
:101CE000D9FA21484FF02043036003F58273436023
:101CF0008460C4600461102242618461C461046232
:101D000044624FF480538362C4624FF480430363A0
:101D100044638463C46344640F230D930E9346218C
:101D20000F91CDF8408011921121129113940693D6
:101D300007930893CDF824800A920B910C943A46AD
:101D4000314603F054FA10B914B0BDE8F0874046AC
:101D5000FAE700BF00040240000C024000100240FD
:101D60000014024000180240C8050020034B9A8866
:101D7000034BA3F8FE2000BF704700BFB40500204E
:101D800000FF07602DE9F04180461B4EF3689FB2CB
:101D90003469A5B203FB04F4F088FFF7A5FE002028
:101DA000FFF7BAFE0020FFF7B7FE013FC7F30F2091
:101DB000FFF7B2FEF8B2FFF7AFFE3089FFF794FEEF
:101DC0000020FFF7A9FE0020FFF7A6FE013DC5F3A6
:101DD0000F20FFF7A1FEE8B2FFF79EFEFFF7C6FF58
:101DE000002205E01FFA88F30449A1F8003101320E
:101DF000A242F7D3BDE8F081B405002000FF0760E0
:101E000010B582B04FF45B40FFF76EFEFFF774FE33
:101E100004468DF804004FF45C40FFF765FEFFF7C1
:101E20006BFE8DF80500C1B2E0B241EA0021234CFF
:101E30002180234826F092FA2388B3F5004F47D03B
:101E4000204826F0F3FA0120FFF74EFE0A20FFF7A4
:101E50003DFE7820FFF73AFE1120FFF745FE78207F
:101E6000FFF734FE55213A20FFF75EFE00213620B1
:101E7000FFF75AFE2920FFF737FE1420FFF726FE52
:101E8000114B5A6822F00F025A605A6822F47062AD
:101E90005A605A6842F004025A605A6842F48062FA
:101EA0005A600020FFF7C4FE0020FFF76BFF0122FD
:101EB0002021064802F0FEFA02B010BDB405002051
:101EC0007098020890980208000100A000040240E7
:101ED00055214FF47040FFF727FEAA214FF2010071
:101EE000FFF722FE52214FF20200FFF71DFE0821EC
:101EF0004FF20300FFF718FE01214FF20400FFF735
:101F000013FE0D214FF43040FFF70EFE0D214BF272
:101F10000100FFF709FE0D214BF20200FFF704FE5E
:101F200034214FF43640FFF7FFFD34214BF20160BE
:101F3000FFF7FAFD34214BF20260FFF7F5FD0D21AA
:101F40004FF43140FFF7F0FD0D214BF20110FFF788
:101F5000EBFD0D214BF20210FFF7E6FD34214FF4AB
:101F60003740FFF7E1FD34214BF20170FFF7DCFD54
:101F700034214BF20270FFF7D7FD00214FF43240BD
:101F8000FFF7D2FD00214BF20120FFF7CDFD00212C
:101F90004BF20220FFF7C8FD24214FF43840FFF731
:101FA000C3FD24214BF60100FFF7BEFD24214BF6B3
:101FB0000200FFF7B9FD01214FF43F40FFF7B4FDE8
:101FC0000F214FF43340FFF7AFFD0F214BF20130EB
:101FD000FFF7AAFD0F214BF20230FFF7A5FD3421D8
:101FE0004FF43940FFF7A0FD34214BF60110FFF705
:101FF0009BFD34214BF60210FFF796FD08214FF4AC
:102000003540FFF791FD08214BF20150FFF78CFDA1
:1020100008214BF20250FFF787FD03214FF44240A5
:10202000FFF782FD24214FF43A40FFF77DFD242184
:102030004BF60120FFF778FD24214BF60220FFF735
:1020400073FD00214FF43C40FFF76EFD78214BF605
:102050000140FFF769FD00214BF60240FFF764FDE8
:1020600000214FF43D40FFF75FFD78214BF6015012
:10207000FFF75AFD00214BF60250FFF755FD0021F6
:102080004FF43E40FFF750FD64214BF60160FFF72F
:102090004BFD00214FF45140FFF746FD33214DF237
:1020A0000110FFF741FD00214DF20210FFF73CFD4A
:1020B00034214DF20310FFF737FD00214DF20410DB
:1020C000FFF732FD3A214DF20510FFF72DFD0021FB
:1020D0004DF20610FFF728FD4A214DF20710FFF7D9
:1020E00023FD00214DF20810FFF71EFD5C214DF28B
:1020F0000910FFF719FD00214DF20A10FFF714FD3A
:1021000081214DF20B10FFF70FFD00214DF20C1055
:10211000FFF70AFDA6214DF20D10FFF705FD002186
:102120004DF20E10FFF700FDE5214DF20F10FFF705
:10213000FBFC01214DF21010FFF7F6FC13214DF2CC
:102140001110FFF7F1FC01214DF21210FFF7ECFC2A
:1021500054214DF21310FFF7E7FC01214DF214104A
:10216000FFF7E2FC82214DF21510FFF7DDFC0121A3
:102170004DF21610FFF7D8FCCA214DF21710FFF7E9
:10218000D3FC02214DF21810FFF7CEFC00214DF2D6
:102190001910FFF7C9FC02214DF21A10FFF7C4FC19
:1021A00001214DF21B10FFF7BFFC02214DF21C1064
:1021B000FFF7BAFC34214DF21D10FFF7B5FC0221E8
:1021C0004DF21E10FFF7B0FC67214DF21F10FFF714
:1021D000ABFC02214DF22010FFF7A6FC84214DF24A
:1021E0002110FFF7A1FC02214DF22210FFF79CFC09
:1021F000A4214DF22310FFF797FC02214DF2241089
:10220000FFF792FCB7214DF22510FFF78DFC02215C
:102210004DF22610FFF788FCCF214DF22710FFF773
:1022200083FC02214DF22810FFF77EFCDE214DF2E7
:102230002910FFF779FC02214DF22A10FFF774FCF8
:10224000F2214DF22B10FFF76FFC02214DF22C1002
:10225000FFF76AFCFE214DF22D10FFF765FC03210C
:102260004DF22E10FFF760FC10214DF22F10FFF7FA
:102270005BFC03214DF23010FFF756FC33214DF289
:102280003110FFF751FC03214DF23210FFF74CFCE7
:102290006D214DF23310FFF747FC00214FF45240FF
:1022A000FFF742FC33214DF20120FFF73DFC0021F6
:1022B0004DF20220FFF738FC34214DF20320FFF7E6
:1022C00033FC00214DF20420FFF72EFC3A214DF2A1
:1022D0000520FFF729FC00214DF20620FFF724FC22
:1022E0004A214DF20720FFF71FFC00214DF2082084
:1022F000FFF71AFC5C214DF20920FFF715FC0021C5
:102300004DF20A20FFF710FC81214DF20B20FFF760
:102310000BFC00214DF20C20FFF706FCA6214DF22C
:102320000D20FFF701FC00214DF20E20FFF7FCFB12
:10233000E5214DF20F20FFF7F7FB01214DF21020B0
:10234000FFF7F2FB13214DF21120FFF7EDFB012106
:102350004DF21220FFF7E8FB54214DF21320FFF756
:10236000E3FB01214DF21420FFF7DEFB82214DF249
:102370001520FFF7D9FB01214DF21620FFF7D4FB02
:10238000CA214DF21720FFF7CFFB02214DF2182092
:10239000FFF7CAFB00214DF21920FFF7C5FB022110
:1023A0004DF21A20FFF7C0FB01214DF21B20FFF771
:1023B000BBFB02214DF21C20FFF7B6FB34214DF28E
:1023C0001D20FFF7B1FB02214DF21E20FFF7ACFBF1
:1023D00067214DF21F20FFF7A7FB02214DF22020BD
:1023E000FFF7A2FB84214DF22120FFF79DFB022184
:1023F0004DF22220FFF798FBA4214DF22320FFF796
:1024000093FB02214DF22420FFF78EFBB7214DF202
:102410002520FFF789FB02214DF22620FFF784FBE0
:10242000CF214DF22720FFF77FFB02214DF228201C
:10243000FFF77AFBDE214DF22920FFF775FB022121
:102440004DF22A20FFF770FBF2214DF22B20FFF70F
:102450006BFB02214DF22C20FFF766FBFE214DF2B3
:102460002D20FFF761FB03214DF22E20FFF75CFBCF
:1024700010214DF22F20FFF757FB03214DF23020A2
:10248000FFF752FB33214DF23120FFF74DFB0321C3
:102490004DF23220FFF748FB6D214DF23320FFF75C
:1024A00043FB00214FF45340FFF73EFB33214DF235
:1024B0000130FFF739FB00214DF20230FFF734FB0A
:1024C00034214DF20330FFF72FFB00214DF2043091
:1024D000FFF72AFB3A214DF20530FFF725FB0021DB
:1024E0004DF20630FFF720FB4A214DF20730FFF78F
:1024F0001BFB00214DF20830FFF716FB5C214DF26B
:102500000930FFF711FB00214DF20A30FFF70CFBF9
:1025100081214DF20B30FFF707FB00214DF20C300B
:10252000FFF702FBA6214DF20D30FFF7FDFA002167
:102530004DF20E30FFF7F8FAE5214DF20F30FFF7BC
:10254000F3FA01214DF21030FFF7EEFA13214DF2AC
:102550001130FFF7E9FA01214DF21230FFF7E4FAEA
:1025600054214DF21330FFF7DFFA01214DF2143000
:10257000FFF7DAFA82214DF21530FFF7D5FA012183
:102580004DF21630FFF7D0FACA214DF21730FFF79F
:10259000CBFA02214DF21830FFF7C6FA00214DF2B6
:1025A0001930FFF7C1FA02214DF21A30FFF7BCFAD9
:1025B00001214DF21B30FFF7B7FA02214DF21C301A
:1025C000FFF7B2FA34214DF21D30FFF7ADFA0221C8
:1025D0004DF21E30FFF7A8FA67214DF21F30FFF7CA
:1025E000A3FA02214DF22030FFF79EFA84214DF22A
:1025F0002130FFF799FA02214DF22230FFF794FAC9
:10260000A4214DF22330FFF78FFA02214DF224303E
:10261000FFF78AFAB7214DF22530FFF785FA02213C
:102620004DF22630FFF780FACF214DF22730FFF729
:102630007BFA02214DF22830FFF776FADE214DF2C7
:102640002930FFF771FA02214DF22A30FFF76CFAB8
:10265000F2214DF22B30FFF767FA02214DF22C30B8
:10266000FFF762FAFE214DF22D30FFF75DFA0321EC
:102670004DF22E30FFF758FA10214DF22F30FFF7B0
:1026800053FA03214DF23030FFF74EFA33214DF269
:102690003130FFF749FA03214DF23230FFF744FAA7
:1026A0006D214DF23330FFF73FFA00214FF45440D3
:1026B000FFF73AFA33214DF20140FFF735FA0021D6
:1026C0004DF20240FFF730FA34214DF20340FFF79C
:1026D0002BFA00214DF20440FFF726FA3A214DF281
:1026E0000540FFF721FA00214DF20640FFF71CFAE2
:1026F0004A214DF20740FFF717FA00214DF208403A
:10270000FFF712FA5C214DF20940FFF70DFA0021A4
:102710004DF20A40FFF708FA81214DF20B40FFF716
:1027200003FA00214DF20C40FFF7FEF9A6214DF20D
:102730000D40FFF7F9F900214DF20E40FFF7F4F9D3
:10274000E5214DF20F40FFF7EFF901214DF2104066
:10275000FFF7EAF913214DF21140FFF7E5F90121E6
:102760004DF21240FFF7E0F954214DF21340FFF70C
:10277000DBF901214DF21440FFF7D6F982214DF229
:102780001540FFF7D1F901214DF21640FFF7CCF9C2
:10279000CA214DF21740FFF7C7F902214DF2184048
:1027A000FFF7C2F900214DF21940FFF7BDF90221F0
:1027B0004DF21A40FFF7B8F901214DF21B40FFF727
:1027C000B3F902214DF21C40FFF7AEF934214DF26E
:1027D0001D40FFF7A9F902214DF21E40FFF7A4F9B1
:1027E00067214DF21F40FFF79FF902214DF2204073
:1027F000FFF79AF984214DF22140FFF795F9022164
:102800004DF22240FFF790F9A4214DF22340FFF74B
:102810008BF902214DF22440FFF786F9B7214DF2E2
:102820002540FFF781F902214DF22640FFF77CF9A0
:10283000CF214DF22740FFF777F902214DF22840D2
:10284000FFF772F9DE214DF22940FFF76DF9022101
:102850004DF22A40FFF768F9F2214DF22B40FFF7C5
:1028600063F902214DF22C40FFF75EF9FE214DF293
:102870002D40FFF759F903214DF22E40FFF754F98F
:1028800010214DF22F40FFF74FF903214DF2304058
:10289000FFF74AF933214DF23140FFF745F90321A3
:1028A0004DF23240FFF740F96D214DF23340FFF712
:1028B0003BF900214FF45540FFF736F933214DF233
:1028C0000150FFF731F900214DF20250FFF72CF9CA
:1028D00034214DF20350FFF727F900214DF2045047
:1028E000FFF722F93A214DF20550FFF71DF90021BB
:1028F0004DF20650FFF718F94A214DF20750FFF745
:1029000013F900214DF20850FFF70EF95C214DF24A
:102910000950FFF709F900214DF20A50FFF704F9B9
:1029200081214DF20B50FFF7FFF800214DF20C50C2
:10293000FFF7FAF8A6214DF20D50FFF7F5F8002148
:102940004DF20E50FFF7F0F8E5214DF20F50FFF772
:10295000EBF801214DF21050FFF7E6F813214DF28C
:102960001150FFF7E1F801214DF21250FFF7DCF8AA
:1029700054214DF21350FFF7D7F801214DF21450B6
:10298000FFF7D2F882214DF21550FFF7CDF8012163
:102990004DF21650FFF7C8F8CA214DF21750FFF755
:1029A000C3F802214DF21850FFF7BEF800214DF296
:1029B0001950FFF7B9F802214DF21A50FFF7B4F899
:1029C00001214DF21B50FFF7AFF802214DF21C50D0
:1029D000FFF7AAF834214DF21D50FFF7A5F80221A8
:1029E0004DF21E50FFF7A0F867214DF21F50FFF780
:1029F0009BF802214DF22050FFF796F884214DF20A
:102A00002150FFF791F802214DF22250FFF78CF888
:102A1000A4214DF22350FFF787F802214DF22450F4
:102A2000FFF782F8B7214DF22550FFF77DF802211C
:102A30004DF22650FFF778F8CF214DF22750FFF7DF
:102A400073F802214DF22850FFF76EF8DE214DF2A7
:102A50002950FFF769F802214DF22A50FFF764F878
:102A6000F2214DF22B50FFF75FF802214DF22C506E
:102A7000FFF75AF8FE214DF22D50FFF755F80321CC
:102A80004DF22E50FFF750F810214DF22F50FFF766
:102A90004BF803214DF23050FFF746F833214DF249
:102AA0003150FFF741F803214DF23250FFF73CF867
:102AB0006D214DF23350FFF737F800214FF45640A7
:102AC000FFF732F833214DF20160FFF72DF80021B6
:102AD0004DF20260FFF728F834214DF20360FFF752
:102AE00023F800214DF20460FFF71EF83A214DF261
:102AF0000560FFF719F800214DF20660FFF714F8A2
:102B00004A214DF20760FFF70FF800214DF20860EF
:102B1000FFF70AF85C214DF20960FFF705F8002184
:102B20004DF20A60FFF700F881214DF20B60FEF7CD
:102B3000FBFF00214DF20C60FEF7F6FFA6214DF2DF
:102B40000D60FEF7F1FF00214DF20E60FEF7ECFF85
:102B5000E5214DF20F60FEF7E7FF01214DF2106015
:102B6000FEF7E2FF13214DF21160FEF7DDFF0121B8
:102B70004DF21260FEF7D8FF54214DF21360FEF7BC
:102B8000D3FF01214DF21460FEF7CEFF82214DF2FA
:102B90001560FEF7C9FF01214DF21660FEF7C4FF74
:102BA000CA214DF21760FEF7BFFF02214DF21860F7
:102BB000FEF7BAFF00214DF21960FEF7B5FF0221C2
:102BC0004DF21A60FEF7B0FF01214DF21B60FEF7D7
:102BD000ABFF02214DF21C60FEF7A6FF34214DF23F
:102BE0001D60FEF7A1FF02214DF21E60FEF79CFF63
:102BF00067214DF21F60FEF797FF02214DF2206022
:102C0000FEF792FF84214DF22160FEF78DFF022135
:102C10004DF22260FEF788FFA4214DF22360FEF7FB
:102C200083FF02214DF22460FEF77EFFB7214DF2B3
:102C30002560FEF779FF02214DF22660FEF774FF52
:102C4000CF214DF22760FEF76FFF02214DF2286081
:102C5000FEF76AFFDE214DF22960FEF765FF0221D3
:102C60004DF22A60FEF760FFF2214DF22B60FEF775
:102C70005BFF02214DF22C60FEF756FFFE214DF264
:102C80002D60FEF751FF03214DF22E60FEF74CFF41
:102C900010214DF22F60FEF747FF03214DF2306007
:102CA000FEF742FF33214DF23160FEF73DFF032175
:102CB0004DF23260FEF738FF6D214DF23360FEF7C2
:102CC00033FF55214FF47040FEF72EFFAA214FF23B
:102CD0000100FEF729FF52214FF20200FEF724FF08
:102CE00008214FF20300FEF71FFF00214FF20400FE
:102CF000FEF71AFFCC214FF43140FEF715FF0021FB
:102D00004BF20110FEF710FF05214FF43640FEF79D
:102D10000BFF70214FF43740FEF706FF70214BF296
:102D20000170FEF701FF01214FF43840FEF7FCFE71
:102D300003214BF60100FEF7F7FE03214BF60200DC
:102D4000FEF7F2FE03214BF60300FEF7EDFE022133
:102D50004FF43C40FEF7E8FE00214BF60140FEF741
:102D6000E3FE00214BF60240FEF7DEFED0214FF4D9
:102D70004940FEF7D9FE02214CF60110FEF7D4FEC1
:102D800050214CF60210FEF7CFFE50214CF60310F6
:102D9000FEF7CAFE50214CF60410FEF7C5FE0021D6
:102DA0004FF45450FEF7C0FE55214FF46850FEF723
:102DB000BBFE4FF48850FEF797FE7820FEF786FEA4
:102DC0004FF42450FEF790FEFFF75AB810B5124B9F
:102DD00000221A605A609A60DA601A614FF44872F1
:102DE000DA604FF4C8721A614FF430529A804FF48F
:102DF0002852DA804FF42C521A81FEF71FFF044646
:102E000030B9142000F080FEFEF7FAFF204610BD16
:102E1000024825F00BFBF9E7B4050020C89802082A
:102E20002DE9F047089C03FB02F51CB106460F464E
:102E300002B10BB9BDE8F087024492B2013A1FFA21
:102E400082F90B449BB2013B1FFA83FADFF86080E2
:102E5000B8F80600FEF748FE300AFEF75DFEF0B255
:102E6000FEF75AFE4E46300AFEF756FE5FFA89F02C
:102E7000FEF752FEB8F80800FEF736FE380AFEF7F5
:102E80004BFEF8B2FEF748FE5646300AFEF744FE07
:102E90005FFA8AF0FEF740FEFEF768FF0023AB42C0
:102EA000C8D234F81310034AA2F800110133F6E730
:102EB000B405002000FF076018280AD005D80C28A8
:102EC00009D0102809D102207047202807D10420FA
:102ED00070470320704701207047FF207047FF2094
:102EE000704708B50A89531E9BB2BF2B00D9C02278
:102EF0000021FDF72AFB08BD70B582B01446128987
:102F0000531E9BB2BF2B42D80E46037841787F33C5
:102F1000DBB27D2B3ED83F293ED9FF293ED07E290A
:102F200014D84020091ABE2000FB03F353FA81F1A4
:102F300002FB01F5E088FFF7BFFFFF2830D01A4BF6
:102F4000034493F8D03D1BB9012021E04120E9E77B
:102F50004FF4147303FB00F000F51070124BC3180C
:102F600019462A4600230D4608460CF0A1F808B180
:102F700001200DE001AB2289314628460BF0D4FD3B
:102F800080B92289019B9A4202D0012000E00120F1
:102F900002B070BD0120FBE70120F9E70120F7E74F
:102FA0000120F5E70120F3E71806002038B5224C90
:102FB00040F6D85200212046FDF7C7FA01221F49EA
:102FC00020460BF0E3FB98BB044605461A4B012252
:102FD00083F8D52D01E00134E4B2042C15D84FF468
:102FE000147304FB03F303F510730122144951F821
:102FF0002410114818440BF0F5FB0028EBD10E4BC0
:103000002344012283F8D02DE5E70B4B93F8D13D03
:1030100083B9094B93F8D23D63B9074B93F8D33D7D
:1030200043B9054B93F8D43D23B901231D4601E074
:1030300001231D46284638BD180600207097020857
:10304000289C02080023184601E00133DBB2042B60
:1030500009D8054A1A4492F8D02D002AF5D0012249
:103060009A401043F1E770471806002070B138B558
:103070000C46154661B16AB1FFF73EFF00B938BD95
:1030800029462046FFF72DFF0120F8E70120704771
:103090000120F4E70120F2E730B587B001A9002351
:1030A00001934B608B60CB600B6100930F4B1A6BED
:1030B00042F002021A631B6B03F002030093009BB1
:1030C00003230193012402940394094D284601F03F
:1030D000E1F822460221284601F0ECF92246214679
:1030E000284601F0E7F907B030BD00BF00380240C4
:1030F0000004024008B540B90246022100F18040B8
:1031000000F5013001F0D6F908BD00220121024886
:1031100001F0D0F9F8E700BF0004024008B540B95B
:103120000122022100F1804000F5013001F0C2F9D6
:1031300008BD01221146024801F0BCF9F8E700BFC2
:103140000004024008B538B9022100F1804000F5C2
:10315000013001F0B5F908BD0121024801F0B0F9D4
:10316000F9E700BF0004024000B585B08DF80F00FC
:103170006423009301230DF10F024021024801F066
:103180006BFD05B000BD00BF600500200E4AD2F8FF
:10319000FC3043F08073C2F8FC30A2F55D42136846
:1031A00043F00103136000235360084B1B68084978
:1031B000A1FB03139B0C03FB00F05268054B5B68FB
:1031C0009B1A8342FAD3704700ED00E0DC00002038
:1031D00083DE1B43001000E010B485B0204B0FCB02
:1031E00004AC04E90F004FF0000CBCF1020F30DC1E
:1031F0001C4B53F82C2022F0030202F14042002322
:1032000003E0002142F8231001333F2BF9DD0020B9
:1032100003281BDC002307E004A901EB800151F81F
:10322000101C42F8231001333F2BF5DD00233F2B08
:103230000ADC52F8234004A901EB800151F8101C6C
:103240008C4208D10133F2E70130E1E70CF1010CC7
:10325000CBE7002001E04FF0FF3005B010BC704715
:10326000749002083C9C0208F0B593B00BAE0024A9
:103270000B940C940D940E940F941094119406AD2D
:1032800006940794089409940A940094464B9A6B08
:1032900042F001029A639A6B02F001020092009AD6
:1032A00001941A6B42F020021A631A6B02F020029A
:1032B0000192019A02941A6B42F004021A631A6B8B
:1032C00002F004020292029A03941A6B42F0400246
:1032D0001A631A6B02F040020392039A04941A6B69
:1032E00042F010021A631A6B02F010020492049A60
:1032F00005941A6B42F008021A631B6B03F0080373
:103300000593059B02270797032309930C230A9330
:103310004FF63F0306932946244800F0BBFF0D23D8
:1033200006932946224800F0B5FF48F2371306936A
:103330002946204800F0AEFF4FF6837306932946D6
:103340001D4800F0A7FF4CF20373069329461B4863
:1033500000F0A0FF1A481B4B036044600123836008
:103360000823C36010220261402242614FF4C07200
:103370008261C4614FF4006202624FF48052426283
:103380004FF4005282620B970C9306230D930E9319
:103390000F9710971197314601F0CFFE08B913B07F
:1033A000F0BD4FF0FF30FAE7003802400014024051
:1033B000000802400018024000100240000C0240C9
:1033C000F0130020400100A000B585B094461A46D5
:1033D00000230093019302930393009168B9102393
:1033E0000193CDF808C003924FF480526946054816
:1033F00001F0C3FE18B905B000BD0823F0E74FF097
:10340000FF30F8E7F013002010B500230122114629
:103410001846FFF7D9FF04464FF47A70FFF7B6FE5F
:103420000023012202211846FFF7CEFF04430023A8
:10343000012203211846FFF7C7FF04434FF40C7322
:10344000012204210020FFF7BFFF204310BD000030
:1034500008B5FFF709FF58B9FFF7D6FF58B940F292
:10346000AB21084801F0AAFEFFF7B6FE30B908BD4F
:103470004FF0FF30FBE74FF0FF30F8E74FF0FF3041
:10348000F5E700BFF013002010B588B003A90024B1
:1034900003944C608C60CC600C6101941F4B1A6CDF
:1034A00042F480221A641A6C02F480220192019A7A
:1034B00002941A6B42F002021A631B6B03F00203C0
:1034C0000293029B4FF4406303930223049303236C
:1034D000069307230793124800F0DCFE1148124BB5
:1034E00003604FF4E13343608460C460046184612D
:1034F0000C234361C46101F0B6F860B900220621D3
:10350000272000F06DFB272000F07AFB074B0122FB
:103510001A7008B010BDFDF7FFFCEFE7003802405D
:10352000000402402C160020004800402414002013
:1035300070B506460D46214B1B78EBB103F062FDDA
:1035400000221446AA4220DA1D4B1B889BB201338D
:10355000C3F308031B49098889B2994215D018485A
:10356000018889B216F802E0DFF85CC00CF801E0CF
:10357000038001340132E5E74FF0FF338AB20146A0
:10358000124801F09FF82C4615E0114B1B7883B9C7
:103590000B4B1A8892B20B4B1B889BB29A4208D0F5
:1035A0000B4B01221A70094B1A68D36843F0800351
:1035B000D36003F049FD204670BD00BF24140020F5
:1035C00028140020261400202C1400202C16002083
:1035D00025140020144B1B681A6812F0800F15D0B8
:1035E0001249088880B21249098889B2884212D0EB
:1035F0000E48018889B2DFF83CC01CF80110596000
:10360000018889B20131C1F30801018012F0200F55
:1036100000D05B687047D96821F08001D960064905
:1036200000200870F2E700BF2C16002026140020AE
:10363000281400202C1400202514002008B5FFF7C2
:10364000C9FF08BD10B588B003A9002403944C60DD
:103650008C60CC600C61174B5A6B42F080025A634D
:1036600001945A6C42F480425A645A6C02F48042CB
:103670000192019A02941A6B42F001021A631B6BC9
:1036800003F001030293029B4FF4C0530393022300
:103690000493032306930A230793074800F0FAFDD7
:1036A00022460521432000F09BFA432000F0A8FAAF
:1036B00008B010BD003802400000024038B50C468A
:1036C0000169A2F120035E2B12D84A689388D28840
:1036D000A380E380228100236381A381A37B012057
:1036E00060F30303A373DBB223F01003A37338BDAD
:1036F0000D46104600F028F90028F8D02A68938873
:10370000D288E5E72DE9F04706460D4614461F46E8
:1037100002F107084FEAD80802FB03F20732D20889
:1037200000212846FCF711FF0020024626E00CF19C
:10373000010C1FFA8CFC0132A4451DD24FEADC03B8
:1037400006EB010E1EF803300CF007094FF0010ED6
:103750000EFA09FE1EEA030FE9D04FEAD20E15F861
:103760000E9002F0070A802323FA0AF3DBB249EA3B
:10377000030305F80E30DAE7013080B2B84204D214
:1037800008FB00F14FF0000CD6E7BDE8F0872DE90B
:10379000F84F07460D4614469846DE1DF60802FB14
:1037A00003F20732D20800212846FCF7CEFE4FF084
:1037B00000094B4620E00CF1010C1FFA8CFC013390
:1037C000A44515D206FB0CFE3A1812F80E200A4248
:1037D000F1D04FEAD30A15F80AE003F0070B802274
:1037E00022FA0BF2D2B24EEA020E05F80AE0E2E744
:1037F00009F101091FFA89F9C14509D24FEAD90037
:1038000009F007028021D140C9B24FF0000CD7E780
:10381000BDE8F88F70B582B004460D46808B01304C
:1038200080B2A083002301E00133DBB2217D994205
:1038300011D9E26802EB830132F82320AA42F3D1C6
:10384000488028490A6801320A602069228902FBFF
:10385000030002B070BD4FF0000E7646734601E0E3
:103860000133DBB299420FD9E26802EB830C32F8E4
:10387000232042B1BCF80220821A92B29645EFD8BA
:1038800096461E46ECE71E46174A1368013313603E
:103890002B0A8DF804308DF805502268134901A8D1
:1038A000FFF7E4FBB0B9216920892268D3889288A8
:1038B00000FB06110D48FFF76AFFE36823F8265066
:1038C000E36803EB8603A28B5A802069238903FBFC
:1038D0000600BEE7054D228900212846FCF735FE8B
:1038E0002846B6E7682700206427002070160020CD
:1038F00010B50469A1F1200CBCF15E0F08D908468F
:1039000000F022F8014610B12046FFF783FF10BDFA
:1039100062681068B2F808E0D3889288A1690EFB4B
:103920000C00FFF7EFFEA069F1E7000010B1044AB8
:103930001268026011B1034B1B680B60704700BF37
:103940006827002064270020A0F180024FF67F73D3
:103950009A4227D8A0F59C4345F2A512934206D976
:1039600040F2793C002161451ED200B508E00F4AC3
:1039700032F81300704790B200BD591C61450FD258
:10398000ACEB010301EB5303094A52F823204FEA41
:10399000124EB0EB124FEED07045EED89C46EDE7DC
:1039A0000020E9E7002070470020704724C2020889
:1039B00040B4020810B582B00446B1F804C00888CB
:1039C000ACEB000C1FFA8CFC0CF1010CCB88498885
:1039D0005B1A9BB2013300929BB21FFA8CF2FFF785
:1039E0001FFA20461EF091FB02B010BD38B5144BF3
:1039F000D868C0EB0010C00003F074FC114B1860D5
:103A0000C8B101460E4DEB68C3EB03139B000022C7
:103A10000D481EF087FA0D4C20461EF059FAEB684F
:103A200023802B6963800A4B6361074BE360204668
:103A30001EF086FA38BD074824F0F8FCFAE700BF0C
:103A4000B40500206C270020C0270020702700202C
:103A5000B53900085899020870470000DFF834D0E3
:103A60000D480E490E4A002302E0D458C4500433D6
:103A7000C4188C42F9D30B4A0B4C002301E01360AD
:103A80000432A242FBD3FFF7E7FFFCF7ADFDFDF7E1
:103A9000A9FA704700000320000000204401002024
:103AA000246F03084401002030370020FEE77047F0
:103AB00008B50B4B1A6842F400721A601A6842F497
:103AC00080621A601A6842F480721A60032000F063
:103AD00075F80F20FDF710FBFFF7E9FF002008BD88
:103AE000003C0240034A1168034B1B780B441360EF
:103AF000704700BFDC270020E0000020014B186861
:103B0000704700BFDC27002038B50446FFF7F6FFFA
:103B10000546B4F1FF3F02D0044B1B781C44FFF76D
:103B2000EDFF401BA042FAD338BD00BFE0000020EB
:103B3000002807DB00F01F02400901239340024ADE
:103B400042F82030704700BF00E100E0002808DBA9
:103B50000901C9B200F1604000F5614080F800132E
:103B6000704700F00F000901C9B2014B19547047AA
:103B700014ED00E000B500F00700A0F1030CBCF16B
:103B8000040F07D8C0F1070E0430062806D84FF0FE
:103B9000000C03E04FF0040E4FF0000C4FF0FF3329
:103BA00003FA0EF021EA000101FA0CF103FA0CF31A
:103BB00022EA030241EA020000BD0000074AD3687E
:103BC00023F4E0631B041B0C000200F4E0600343D9
:103BD00043F0BF6343F40033D360704700ED00E06F
:103BE00010B50446054BD868C0F30220FFF7C2FFAA
:103BF00001462046FFF7AAFF10BD00BF00ED00E020
:103C000008B5FFF795FF08BD002800F0E28170B508
:103C100082B00446036813F0010F3BD09B4B9B68B6
:103C200003F00C03042B2CD0984B9B6803F00C037F
:103C3000082B21D06368B3F5803F4FD0B3F5A02F98
:103C400052D0924B1A6822F480321A601A6822F419
:103C500080221A606368002B50D0FFF74FFF0546A3
:103C60008A4B1B6813F4003F14D1FFF747FF401B3A
:103C70006428F5D90320B3E1844B5B6813F4800F0B
:103C8000D8D0824B1B6813F4003F03D06368002B2D
:103C900000F0A181236813F0020F54D07B4B9B6886
:103CA00013F00C0F3ED0794B9B6803F00C03082BEC
:103CB00033D0E368002B68D0754B01221A60FFF700
:103CC0001DFF0546714B1B6813F0020F54D1FFF71F
:103CD00015FF401B0228F5D9032081E16B4A1368C8
:103CE00043F480331360B5E7684B1A6842F48022CE
:103CF0001A601A6842F480321A60ABE7FFF7FEFEE2
:103D00000546624B1B6813F4003FC3D0FFF7F6FE75
:103D1000401B6428F5D9032062E15C4B5B6813F417
:103D2000800FC6D1594B1B6813F0020F03D0E36814
:103D3000012B40F05281554A136823F0F8032169A2
:103D400043EAC1031360236813F0080F42D063698C
:103D50006BB34F4B0122C3F8802EFFF7CFFE054611
:103D60004A4B5B6F13F0020F34D1FFF7C7FE401BC5
:103D70000228F5D9032033E1444A136823F0F803FD
:103D8000216943EAC1031360DDE7414B00221A6059
:103D9000FFF7B4FE05463D4B1B6813F0020FD2D06F
:103DA000FFF7ACFE401B0228F5D9032018E1384B81
:103DB0000022C3F8802EFFF7A1FE0546334B5B6F50
:103DC00013F0020F06D0FFF799FE401B0228F5D929
:103DD000032005E1236813F0040F79D02B4B1B6CF3
:103DE00013F0805F34D100230193284B1A6C42F00A
:103DF00080521A641B6C03F080530193019B0123D2
:103E00001E46244B1B6813F4807F24D0A368012B2B
:103E100035D0052B40D01D4B1A6F22F001021A67D6
:103E20001A6F22F004021A67A368002B3ED0FFF736
:103E300065FE0546154B1B6F13F0020F47D1FFF7C8
:103E40005DFE401B41F288339842F3D90320C7E05E
:103E500000231E46D5E70F4A136843F480731360AE
:103E6000FFF74CFE05460B4B1B6813F4807FCDD14A
:103E7000FFF744FE401B0228F5D90320B0E0034AB7
:103E8000136F43F001031367CEE700BF0038024011
:103E90000000474200700040584B1A6F42F0040285
:103EA0001A671A6F42F001021A67BDE7FFF726FE94
:103EB0000546524B1B6F13F0020F08D0FFF71EFE92
:103EC000401B41F288339842F3D9032088E0EEB9D1
:103ED000A369002B00F08380484A926802F00C022C
:103EE000082A51D0022B17D0454B00221A66FFF743
:103EF00005FE0446414B1B6813F0007F42D0FFF7DC
:103F0000FDFD001B0228F5D9032069E03B4A136C34
:103F100023F080531364DBE7394B00221A66FFF766
:103F2000EDFD0546354B1B6813F0007F06D0FFF70B
:103F3000E5FD401B0228F5D9032051E0E369226A20
:103F40001343626A43EA8213A26A5208013A43EABF
:103F50000243E26A43EA0263284A5360284B012283
:103F60001A66FFF7CBFD0446244B1B6813F0007F55
:103F700006D1FFF7C3FD001B0228F5D903202FE06F
:103F800000202DE000202BE0012B2BD01B4B5B6889
:103F900003F48001E269914226D103F03F02216AD5
:103FA0008A4223D1616A47F6C0721A40B2EB811F80
:103FB0001ED103F44031A26A5208013AB1EB024F1C
:103FC00018D103F07063E26AB3EB026F14D10020E2
:103FD00006E001207047012002E0012000E01846C1
:103FE00002B070BD0120FBE70120F9E70120F7E7EF
:103FF0000120F5E70120F3E70120F1E70038024056
:104000000000474208B5264B9B6803F00C03042BC5
:1040100041D0082B41D1224B5A6802F03F025B6825
:1040200013F4800F12D01E4B5968C1F388111D483C
:104030000023A1FB0001FCF7BBF8194B5B68C3F33D
:10404000014301335B00B0FBF3F008BD144B58682B
:10405000C0F388104FEA401CBCEB000C6EEB0E0E58
:104060004FEA8E1343EA9C634FEA8C11B1EB0C01CB
:1040700063EB0E03DB0043EA5173C90011EB000C44
:1040800043F10003990200234FEA8C2041EA9C513E
:10409000FCF78EF8D1E70348D7E70348D5E700BF20
:1040A0000038024040787D010024F400002800F030
:1040B0009B8070B50D4604464F4B1B6803F00F0301
:1040C0008B4208D2CBB24C4A1370136803F00F0333
:1040D0008B4240F08B80236813F0020F17D013F04F
:1040E000040F04D0454A936843F4E0539360236877
:1040F00013F0080F04D0414A936843F4604393607F
:104100003E4A936823F0F003A1680B439360236851
:1041100013F0010F32D06368012B21D09A1E012ABF
:1041200025D9364A126812F0020F61D033498A68E5
:1041300022F0030213438B60FFF7E0FC06462F4B8F
:104140009B6803F00C036268B3EB820F16D0FFF795
:10415000D5FC801B41F288339842F0D9032042E01D
:10416000264A126812F4003FE0D101203BE0234AC6
:10417000126812F0007FD9D1012034E01E4B1B6879
:1041800003F00F03AB4207D9EAB21B4B1A701B684E
:1041900003F00F03AB422DD1236813F0040F06D0B8
:1041A000164A936823F4E053E1680B439360236855
:1041B00013F0080F07D0114A936823F46043216974
:1041C00043EAC1039360FFF71DFF0C4B9B68C3F3E9
:1041D00003130B4AD35CD8400A4B18600A4B18688B
:1041E000FCF78AFF002070BD012070470120FAE72C
:1041F0000120F8E70120F6E7003C024000380240C9
:1042000078650308DC000020E4000020014B1868FA
:10421000704700BFDC00002008B5FFF7F7FF044B34
:104220009B68C3F38223034AD35CD84008BD00BF18
:10423000003802407065030808B5FFF7E7FF044B3C
:104240009B68C3F34233034AD35CD84008BD00BF28
:1042500000380240706503080F2303600B4B9A6817
:1042600002F0030242609A6802F0F00282609A68EB
:1042700002F4E052C2609B68DB0803F4E053036180
:10428000034B1B6803F00F030B60704700380240BC
:10429000003C024030B583B08E46002369E085685B
:1042A0004FEA430C032101FA0CF125EA0105DEF87F
:1042B0000C1001FA0CF129438160416821EA0201E6
:1042C000DEF80420C2F300129A400A43426065E01F
:1042D000D908083150F8212003F00705AD004FF050
:1042E0000F0C0CFA05FC22EA0C0CDEF81020AA4098
:1042F00042EA0C0240F8212067E0092200E0002297
:1043000002FA0CF22A430231664D45F82120664A32
:104310009168E24321EA0405DEF804C01CF4801F22
:1043200001D044EA010560498D60C96802EA0105CF
:10433000DEF804C01CF4001F01D044EA01055A490C
:10434000CD60496802EA0105DEF804C01CF4003FB4
:1043500001D044EA010554494D6009680A40DEF87D
:10436000045015F4803F01D044EA01024E490A602E
:1043700001330F2B00F2938001229A40DEF80010E7
:1043800001EA020432EA0101F2D1DEF8041001F080
:10439000030C0CF1FF3CBCF1010F80D9DEF80420C6
:1043A00002F00302032A0AD0C1685D000322AA407A
:1043B00021EA0201DEF80820AA400A43C260DEF8C2
:1043C000042002F00302022A82D001684FEA430C63
:1043D000032202FA0CF221EA0201DEF8042002F0C4
:1043E000030202FA0CF20A430260DEF8042012F41F
:1043F000403FBDD0002201922C4A516C41F48041D3
:104400005164526C02F480420192019A99088D1C09
:10441000244A52F8255003F0030C4FEA8C0C0F226B
:1044200002FA0CF225EA0205214A90423FF467AFF6
:1044300002F58062904222D002F58062904220D044
:1044400002F5806290421ED002F5806290421CD03C
:1044500002F5806290421AD002F58062904218D034
:1044600002F58062904216D002F58062904214D02C
:1044700002F5806290423FF440AF0A2240E70122F9
:104480003EE702223CE703223AE7042238E705220E
:1044900036E7062234E7072232E7082230E703B086
:1044A00030BD00BF00380140003C014000380240F0
:1044B000000002400AB181617047090481617047C0
:1044C000436901EA030221EA030141EA02418161F1
:1044D0007047000010B504460268136923F4405386
:1044E000C1680B431361836802691A4343691A4325
:1044F000C3691A430168CB6823F4164323F00C0305
:104500001343CB600268536923F4407381690B4302
:1045100053610368314A934206D002F580629342A8
:1045200002D0FFF779FE01E0FFF786FEE369B3F5FD
:10453000004F29D00021031849411B1841F1000107
:10454000C90041EA5371DB00181863684FEA83021F
:104550004FEA937341F10001FBF72AFE204AA2FBC8
:1045600000314909642303FB11031B013233A2FB11
:1045700003235B0903F0F00202EB011203F00F03C7
:10458000216813448B6010BD0023021843EB030124
:10459000121841F10001C90041EA5271D20010180D
:1045A00041F10001626892185B41FBF701FE0C4A81
:1045B000A2FB00314909642303FB1103DB00323302
:1045C000A2FB03235B095A0002F4F87202EB01120A
:1045D00003F00703216813448B60D4E70010014007
:1045E0001F85EB512DE9F04104460E4615469846CD
:1045F000069F23681B6836EA03030CBF4FF0010CCB
:104600004FF0000CAC452AD1B7F1FF3FF1D02FB1EC
:10461000FFF774FA4346C01AB842EAD9226802F199
:104620000C0353E8003F23F4D0730C3242E800310E
:104630000029F3D1226802F1140353E8003F23F06C
:104640000103143242E800310029F3D1202384F819
:104650003D3084F83E3084F83C10032000E0002018
:10466000BDE8F081704758B310B5044690F83D306E
:104670000BB3242384F83D302268D36823F400531D
:10468000D3602046FFF726FF2268136923F4904386
:1046900013612268536923F02A0353612268D368A7
:1046A00043F40053D36000202064202384F83D307D
:1046B00084F83E3010BD80F83C30FFF7D3FFD8E7D8
:1046C000012070472DE9F04184B01E4690F83D303E
:1046D000202B55D104460D46002955D00392002ABF
:1046E00054D090F83C30012B52D0012380F83C305C
:1046F00000230364212380F83D30FFF7FFF90746CC
:10470000039BA384E384A368B3F5805F05D00023F3
:104710009846002384F83C3014E0236913B1002349
:104720009846F6E7A8461D46F3E7424632F8023BB4
:1047300090462268C3F308035360E28C92B2013AB8
:1047400092B2E284E38C9BB273B100963B460022A6
:1047500080212046FFF746FFE0B9002DE5D015F88F
:10476000012B23685A60E8E700963B46002240216F
:104770002046FFF737FF78B9202384F83D3000E06A
:10478000022004B0BDE8F0810120FAE70120F8E73B
:104790000220F6E70320F4E70320F2E703685A69F2
:1047A00012F4806F01D1002070476FF480625A616B
:1047B00000230363202280F83D2080F83E30026C05
:1047C00042F00402026480F83C3001207047F8B5E2
:1047D00006460C4617461D4624E0FFF78FF9069B58
:1047E000C01AA84200D8EDB900233363202286F80E
:1047F0003D2086F83E30326C42F02002326486F86A
:104800003C3001201EE033689B6924EA030C1FFA48
:104810008CFCBCFA8CFC4FEA5C1C674511D1B5F1ED
:10482000FF3FDAD1C4F30743012BECD133685B6956
:1048300024EA030C1FFA8CFCBCFA8CFC4FEA5C1CCB
:10484000EBE70020F8BDF8B504460D4616461F46B6
:104850003CE01A6842F400721A6023686FF48062C8
:104860005A6100232363202284F83D2084F83E30DF
:10487000226C42F00402226484F83C30012033E0D0
:10488000FFF73CF9C01BB04200D8FEB900232363F8
:10489000202284F83D2084F83E30226C42F0200231
:1048A000226484F83C3001201EE023689B6925EADD
:1048B00003039BB2003B18BF0123A3B123685A69CD
:1048C00012F4806FC5D1B6F1FF3FD9D1C5F30743CC
:1048D000012BEAD123685B6925EA03039BB2003B05
:1048E00018BF0123E9E71846F8BD0000F0B583B012
:1048F00004460E4617461D46C36A082B0DD0012BF1
:104900000BD013F5803F08D0036B122B0AD102683D
:10491000136843F48073136004E02268136843F45F
:104920008073136000953B4600224FF00111204632
:10493000FFF74DFF80B92369B3F5804F16D1236887
:1049400006F0FE021A612B463A4613492046FFF74D
:104950007AFFF8B903B0F0BD23681B6813F4807FB9
:1049600002D04FF4007323640320F3E7F3112268AD
:1049700003F0060343F0F00313612B463A46074960
:104980002046FFF760FF18B92268F3B21361DAE737
:104990000120DFE70120DDE702000100080001003F
:1049A00070B504460D46164623685B6913F0800F08
:1049B0001CD12046FFF7F2FED0B9B5F1FF3FF3D08E
:1049C000FFF79CF8801BA84201D8002DECD10023F2
:1049D0002363202284F83D2084F83E30226C42F08C
:1049E0002002226484F83C30012000E0002070BDE9
:1049F0000120FCE770B504460D46164623685B6946
:104A000013F0040F1CD12046FFF7C8FED0B9B5F152
:104A1000FF3FF3D0FFF772F8801BA84201D8002DAA
:104A2000ECD100232363202284F83D2084F83E301B
:104A3000226C42F02002226484F83C30012000E025
:104A4000002070BD0120FCE770470000002800F046
:104A5000DB8038B5044690F83D30002B52D024233B
:104A600084F83D302268136823F001031360226844
:104A7000136843F4004313602268136823F400436F
:104A80001360FFF7C9FB6268614B9A423FD8614BE4
:104A900098428CBF00230123002B40F0B7805E4971
:104AA000A1FB00318B0CD4F800C0DCF8042022F00C
:104AB0003F0242EA9142CCF8042021680A6A22F0BF
:104AC0003F02DFF84CC1D4F804E0E64525D80133B5
:104AD00013430B622168CA6922F44F4222F0FF029D
:104AE000D4F804C04A4B9C4522D8431E4FEA4C0CD4
:104AF000B3FBFCF3013340F6FC70034254D0C3F324
:104B00000B0352E080F83C30FFF79EFFA7E7434BD2
:104B100098428CBF00230123BEE74FF4967C0CFB28
:104B200003F3DFF8FCC0ACFB03C39B090133CFE701
:104B3000D4F808E0BEF1000F1AD1431E0CEB4C056F
:104B4000B3FBF5F30133C3F30B03B3FA83F35B0950
:104B5000002B57D1BEF1000F19D1431E0CEB4C0CAA
:104B6000B3FBFCF30133C3F30B0343F400431CE03A
:104B70000CEB8C0303EB83031D46431EB3FBF5F3E1
:104B80000133C3F30B03B3FA83F35B09E0E7431E7E
:104B90000CEB8C0C0CEB8C0CB3FBFCF30133C3F370
:104BA0000B0343F4404300E004231A43CA61216825
:104BB0000B6823F0C003E269206A024313430B60D1
:104BC00021688B6823F4034323F0FF032269E06824
:104BD000024313438B602168CB6823F0FF036269B3
:104BE000A06902431343CB602268136843F00103BA
:104BF000136000202064202384F83D30206384F873
:104C00003E0038BD0123D0E7012070470120F8E7BE
:104C1000A08601007F841E0083DE1B43FF083D0049
:104C2000D34D62107047A8B110B50446242380F814
:104C30003D300268136823F001031360FFF7F2FFB1
:104C40000020206484F83D00206384F83E0084F84E
:104C50003C0010BD012070472DE9F04385B00446AB
:104C60000F46904699460C9EFEF748FF94F83D107B
:104C7000202905D002231F46384605B0BDE8F08341
:104C8000054600901923012251492046FFF79FFD58
:104C9000002840F0938094F83C30012B00F0918084
:104CA000012384F83C3023681A6812F0010F03D105
:104CB0001A6842F001021A602268136823F4006344
:104CC0001360212384F83D30102384F83E30002304
:104CD0002364C4F82480A4F82A90638D23853D4B77
:104CE000E3622B46324639462046FFF7FFFD074672
:104CF000002869D1039023685A6903929B69039342
:104D0000039B12E0236C042B02D001231F46B3E760
:104D10002268136843F400731360F6E72A463146AD
:104D20002046FFF767FE00282ED1238D002B37D0B9
:104D30002A4631462046FFF733FE0028E2D1626A58
:104D4000236812781A61606A431C6362618D89B2BC
:104D5000013989B26185238D013B9BB2238522688D
:104D6000516911F0040FD9D0002BD7D043781361CB
:104D7000636A01336362638D9BB2013B9BB26385BF
:104D8000238D013B2385C9E7236C042B02D001232B
:104D90001F4671E72268136843F400731360F6E757
:104DA0002268136843F400731360202384F83D30B5
:104DB000002384F83E3084F83C305DE702231F4630
:104DC0005AE702231F4657E701231F4654E700BF57
:104DD000020010000000FFFF7047000090F83D3017
:104DE000012B37D1022380F83D300268D36843F0AD
:104DF0000103D3600368194A934220D0B3F1804F76
:104E00001DD0A2F57C42934219D002F580629342F4
:104E100015D002F58062934211D002F57842934298
:104E20000DD002F57052934209D0A2F5943293420C
:104E300005D01A6842F001021A60002070479A6893
:104E400002F00702062A07D01A6842F001021A602F
:104E5000002070470120704700207047000001408B
:104E60000268D36823F00103D3600368196A41F232
:104E70001112114208D1196A40F24442114203D181
:104E80001A6822F001021A60012380F83D300020E8
:104E90007047704770477047704710B50446036805
:104EA0001A6912F0020F11D0DA6812F0020F0DD059
:104EB0006FF002021A610123037703689B6913F004
:104EC000030F70D0FFF7E6FF0023237723681A69EA
:104ED00012F0040F12D0DA6812F0040F0ED06FF047
:104EE00004021A610223237723689B6913F4407F2D
:104EF0005FD02046FFF7CEFF0023237723681A698F
:104F000012F0080F12D0DA6812F0080F0ED06FF00E
:104F100008021A61042323772368DB6913F0030F67
:104F20004ED02046FFF7B6FF0023237723681A6987
:104F300012F0100F12D0DA6812F0100F0ED06FF0CE
:104F400010021A61082323772368DB6913F4407F7A
:104F50003DD02046FFF79EFF0023237723681A6980
:104F600012F0010F03D0DA6812F0010F36D1236876
:104F70001A6912F0800F03D0DA6812F0800F34D172
:104F800023681A6912F0400F03D0DA6812F0400F5C
:104F900032D123681A6912F0200F03D0DA6812F0B8
:104FA000200F30D110BDFFF774FF2046FFF773FFCD
:104FB0008AE72046FFF76DFF2046FFF76CFF9BE76F
:104FC0002046FFF766FF2046FFF765FFACE7204667
:104FD000FFF75FFF2046FFF75EFFBDE76FF00102BE
:104FE0001A612046FCF7E0F8C1E76FF080021A6111
:104FF000204600F0A0F8C3E76FF040021A61204697
:10500000FFF74AFFC5E76FF020021A61204600F063
:1050100091F8C7E70368304A904212D0B0F1804F50
:105020000FD0A2F57C4290420BD002F580629042F4
:1050300007D002F58062904203D002F57842904298
:1050400003D123F070034A681343234A90422AD0C5
:10505000B0F1804F27D0A2F57C42904223D002F5D8
:10506000806290421FD002F5806290421BD002F510
:105070007842904217D002F57052904213D002F558
:10508000806290420FD002F5806290420BD0A2F570
:105090009832904207D002F58062904203D002F528
:1050A0008062904203D123F44073CA68134323F013
:1050B00080034A69134303608B68C3620B68836291
:1050C000054B984203D003F58063984201D10B69E8
:1050D00003630123436170470000014040B310B5F2
:1050E000044690F83D30F3B1022384F83D30214668
:1050F00051F8040BFFF78EFF012384F8463084F843
:105100003E3084F83F3084F8403084F8413084F8F1
:10511000423084F8433084F8443084F8453084F8D1
:105120003D30002010BD80F83C30FFF755FEDBE736
:1051300001207047704770477047E0B138B50D46A1
:10514000044690F82C308BB1022384F82C30214691
:1051500051F8040B00F016F962682946206800F047
:1051600048F9012384F82C30002038BD80F82D3018
:10517000FFF7E2FFE8E70120704738B5044690F8F2
:105180002C30D8B2022B18D0012801D0052813D119
:10519000022384F82C300D46206800F083F92B6838
:1051A000022B04D0012384F82C30002005E00523D5
:1051B00084F82C30002000E0012038BD10B50446F2
:1051C00090F82C30D8B2022B04D094F82C30012B5C
:1051D00001D0012010BD022384F82C30206800F09B
:1051E00087F9012384F82C300020F3E7704740B39F
:1051F00070B50D461646044690F84930E3B1214695
:1052000051F8080B00F020F8A2682946206800F049
:1052100063F8236BA2683146606800F08FF822685B
:10522000A16852F8213043F0010342F821300123F4
:1052300084F84930002070BD80F84830FFF7D6FF71
:10524000DDE701207047000000B50A6850F8223001
:1052500023F0010340F822308B68082B2DD04FF04B
:10526000000C4A6842EA0C021343CA6813430A69F5
:1052700013434A691343CA6913430A6A13434A6AC8
:1052800013438A6A1343CA6A13430A6B13438A6936
:105290001A434B6B1A43CB6B1A43D1F800C050F83A
:1052A0002CE00C4B0EEA0303134340F82C304B6BFD
:1052B000B3F5801F04D0002000BD4FF0400CD0E7B4
:1052C0000A68002AF7D0026822F4801213430360B0
:1052D000F1E700BF8000E0FF10B5013250F8223046
:1052E00003F0404C0B684C6843EA04138C6843EAB3
:1052F0000423CC6843EA04430C6904F1FF3E43EA0B
:105300000E534C69A4F1020E43EA0E638C692343E9
:105310004CEA030340F82230036813F4801F0BD0DB
:10532000426822F470020B69013B42EA035243686F
:1053300023F4700313434360002010BD9446B3F57B
:10534000804F05D06FF0704340F822300020704746
:1053500010B450F822300A4A1A400B684C6843EAED
:1053600004138C6843EA04238C692343C96843EA25
:105370000143134340F82C30002010BC704700BF9D
:105380000000F0CF10B40B68C3B902686FF30E02CF
:105390004B688C682343CC6823430C6923434C69D6
:1053A00023438C692343CC6923430C6A2343496A12
:1053B0000B4313430360002010BC7047036823F4C1
:1053C000F843CA690C6A22434C6A224313430360C0
:1053D00042686FF30E024B688C682343CC6823430A
:1053E0000C6923434C69234389690B43134343608E
:1053F000E1E752BB826802F070420B68013BD1F8D2
:1054000004C00CF1FF3C43EA0C13D1F808C00CF1C6
:10541000FF3C43EA0C23D1F80CC00CF1FF3C43EAFB
:105420000C33D1F810C00CF1FF3C43EA0C43D1F827
:1054300014C00CF1FF3C43EA0C538969013943EA7B
:1054400001631343836000207047836823F4700373
:1054500023F47043CA6802F1FF3C4A69013A12051D
:1054600042EA0C3213438360C26802F070420B6858
:10547000013BD1F804C00CF1FF3C43EA0C13D1F816
:1054800008C00CF1FF3C43EA0C23D1F810C00CF12A
:10549000FF3C43EA0C438969013943EA0163134342
:1054A000C360D0E770B50446154602696FF3150274
:1054B0000B68486803438868013843EA4013C968A9
:1054C00043EA412313432361FEF718FB0646A36911
:1054D00013F0200F0AD0B5F1FF3FF8D025B1FEF749
:1054E0000DFB801BA842F2D9032000E0002070BD14
:1054F00043696FF34D0343EA410343610020704762
:10550000074B1B681B6823B9064B4FF0FF321A602C
:105510007047034B1B68DB681A68024B1A607047C0
:1055200050280020E827002010B50446006B01F049
:105530007DFF204601F07AFF10BD00002DE9F84301
:1055400080460D4617469946089E0A9C9200A52162
:10555000206BFAF7FAFF236B07F18042013A03EB65
:10556000820323F007078DB14FF0000CBCF10F0F41
:1055700009D815F80C3004EB0C0282F8343013B162
:105580000CF1010CF2E7002384F84330182E18D8F0
:10559000E662E664201D01F0A7FA04F1180001F0AC
:1055A000A3FA2461C6F11906A66164624A4641461F
:1055B000384601F011FD2060099B03B11C60BDE875
:1055C000F88340F264710248FBF78CFD1826DFE790
:1055D000889902082DE9F04385B081468846154632
:1055E0001F46900001F07EFE0646F0B15C2001F0FF
:1055F00079FE0446A8B15C220021FAF7A6FF2663D3
:105600000023039302940D9B01930C9B00933B4654
:105610002A4641464846FFF791FF204605B0BDE8BF
:10562000F083304601F002FFF7E70446F5E700009B
:1056300038B5002407E004EB84000F4B03EB800037
:1056400001F047FA0134182CF5D90C4D284601F029
:1056500040FA0B4C204601F03CFA0A4801F039FAB6
:10566000094801F036FA094801F033FA084B1D6089
:10567000084B1C6038BD00BF7C2800206828002033
:105680005428002038280020242800200C2800203E
:10569000502800204C28002010B5044601F0B2FC30
:1056A0002A4A136801331360294B1B685BB1294BED
:1056B0001B686BB9264B1B68DA6AE36A9A4207D803
:1056C000234B1C6004E0224B1C601368012B3AD072
:1056D000214A1368013313606364E36A01229A402C
:1056E0001E49086802430A601D4A03EB830302EB6C
:1056F00083035B68A3609868E060211D4160996046
:10570000E36A03EB830102EB8100606152F8211030
:10571000013103EB830342F8231001F095FC0D4B9C
:105720001B687BB10A4B1B68DA6AE36A9A4209D2AA
:105730004FF0E0234FF08052C3F8042DBFF34F8F9A
:10574000BFF36F8F10BDFFF773FFC1E7082800207C
:10575000702A0020FC270020EC27002000280020D1
:105760007C2800200F4B1B68D3B110B501F04AFC18
:105770000D4BDB68DC68201D01F0D5F90B4A13687E
:10578000013B1360074A1368013B136001F05CFCA6
:105790002046FFF7C9FE034B1B68002BE6D110BD66
:1057A000704700BF2028002024280020082800205F
:1057B00008B5FFF7D7FF074B1B68012BF9D94FF04E
:1057C000E0234FF08052C3F8042DBFF34F8FBFF397
:1057D0006F8FEEE77C2800202DE9F04104468846D3
:1057E000264B1D68264B1B681E46264B1B681F4612
:1057F000254B1868043001F096F948B9224B1B6814
:10580000DB6A01229A4021490B6823EA02030B60FC
:10581000B4F1FF3F0DD02C441B4B1B685C60A542CC
:105820001ED9194B19680431384601F060F9BDE8FA
:10583000F0814346002BEED0154A5168124B186890
:10584000816018688C68C4601868043060601868EB
:10585000043088601B685A61136801331360E6E7FF
:10586000094B19680431304601F041F9094B1B68B6
:10587000A342DCD9074B1C60D9E700BF04280020F5
:10588000502800204C280020702A002000280020EA
:105890000C280020E827002000B583B0DDF814C0F4
:1058A000CDF804C0DDF810C0CDF800C0FFF792FEBF
:1058B00020B1FFF7F1FE012003B000BD4FF0FF3033
:1058C000FAE7000010B586B000230F2B17DC0F4A53
:1058D000D25C03F11801694401F8102C7AB101334C
:1058E000F3E70B4B03EB8403019300230093802227
:1058F00002A90848FFF7D0FF28B1013401E00024D5
:105900000120002CEDDD06B010BD00BFEC990208AF
:10591000E4270020B157000808B5FFF7D3FF01289E
:1059200005D0B0F1FF3F1BD0104B1B6808BD01F044
:10593000A1FA0128F5D14FF0500383F31188BFF38A
:105940006F8FBFF34F8F0A4B4FF0FF321A60094B36
:1059500001221A60084B00221A6001F0B5FBE3E750
:1059600040F6A9610548FBF7BDFBDDE78865030844
:10597000E8270020FC27002004280020889902083E
:10598000024A136801331360704700BFE02700200C
:10599000014B1868704700BF04280020014B1868AD
:1059A000704700BF0828002038B5514B1B68002BFA
:1059B00040F098804F4B1C6801341C607CB94E4B02
:1059C0001B681B680BBB4C4A11684C4B1868106075
:1059D00019604B4A136801331360FFF791FD494B7F
:1059E0001B68A34217D90020474B1B68DB6A03EBF7
:1059F0008303464A52F82330012B00D90120444B3F
:105A00001B68002B73D0012071E041F25F214148F7
:105A1000FBF768FBD7E7002038E03A4B4FF0FF3246
:105A20001A60E1E7374B1A60DEE7D968516044E05D
:105A300000219962116801391160DA6A01219140EF
:105A4000DFF8D4E0DEF800502943CEF800102F49EB
:105A500002EB820201EB820252689A609568DD6077
:105A6000C5F804C0C2F808C0DA6A02EB820C01EB88
:105A70008C055D6151F82C50013541F82C50DA6AE3
:105A8000214B1B68DB6A9A4200D901201A4B1B6824
:105A90001B68002BC1D0184B1B68DB68DB685A6899
:105AA0009442BFD35A699D68D968A9609D684D60CA
:105AB000516803F1040C6145B7D0002159611168A8
:105AC000013911609A6A002AB7D0DD69196AA960A4
:105AD000DD694D60556803F118018D42A8D1196A3E
