:020000040800F2
:1000000000000320B94C0008AD170008B117000824
:10001000B5170008B9170008BD1700080000000058
:10002000000000000000000000000000C1A4000863
:10003000C11700080000000011A5000855A600081F
:10004000094D0008094D0008094D0008094D000838
:10005000094D0008094D0008094D0008094D000828
:10006000094D0008094D0008094D0008094D000818
:10007000094D0008094D0008094D0008094D000808
:10008000094D0008094D0008094D0008094D0008F8
:10009000094D0008094D0008094D0008094D0008E8
:1000A000094D0008094D0008094D0008094D0008D8
:1000B000094D0008094D0008094D0008094D0008C8
:1000C000094D0008094D0008094D0008094D0008B8
:1000D000094D0008094D0008094D0008E5470008D2
:1000E000094D0008094D0008094D0008094D000898
:1000F000094D0008094D0008094D0008094D000888
:10010000094D0008094D0008094D0008094D000877
:10011000094D0008094D0008094D0008C5170008E1
:10012000094D0008094D0008094D0008094D000857
:10013000094D0008094D0008094D0008094D000847
:10014000094D0008094D0008094D0008D1170008A5
:10015000094D0008094D0008094D0008094D000827
:10016000094D0008094D0008094D0008094D000817
:10017000094D0008094D0008094D0008094D000807
:10018000094D0008094D0008094D0008094D0008F7
:10019000094D0008094D0008094D0008094D0008E7
:0C01A000094D0008094D0008094D000839
:1001B00053B94AB9002908BF00281CBF4FF0FF31CE
:1001C0004FF0FF3000F00CB8ADF1080C6DE904CE33
:1001D00032F074FCDDF804E0DDE9022304B070477E
:1001E000704700BF10F8012B11F8013B012A28BF0E
:1001F0009A42F7D0D01A7047034613F8012B002A11
:10020000FBD1181A01387047000000000000000000
:1002100001F0FF01102A2BDB10F0070F08D010F8B7
:10022000013B013A8B422DD010F0070F42B3F6D1BB
:10023000F0B441EA012141EA014122F007047FF0D4
:1002400000070023F0E80256083C85EA010586EA2B
:10025000010685FA47F5A3FA87F586FA47F6A5FA67
:1002600087F68EB9EED1F0BC01F0FF0102F0070273
:1002700032B110F8013B013A83EA010313B1F8D11E
:100280000020704701387047002D06BF35460338FF
:10029000073815F0010F07D1013015F4807F02BF38
:1002A000013015F4C03F0130F0BC0138704700BF89
:1002B0000348044B834202D0034B03B118477047F5
:1002C000B4010020B4010020000000000548064BE6
:1002D0001B1AD90F01EBA301491002D0034B03B144
:1002E00018477047B4010020B4010020000000004E
:1002F00010B5064C237843B9FFF7DAFF044B13B16E
:100300000448AFF300800123237010BDB801002022
:1003100000000000B03A030808B5054B1BB10549C1
:100320000548AFF30080BDE80840FFF7CFBF00BF2E
:1003300000000000BC010020B03A0308002310B503
:100340000446C0E90033C0E9043383608181436619
:10035000C2818361194608225C3000F0F6F80D4B2B
:1003600063620D4BA3620D4BE3620D4B23630D4B98
:1003700024629C4206D003F16802944202D0D0333A
:100380009C4205D104F15800BDE8104000F050B97E
:1003900010BD00BFC3040008E50400081D050008E7
:1003A00043050008D4010020024A0349034800F035
:1003B0006BB800BF000000201D09000810000020DD
:1003C00041680C4B994210B5044601D000F0A6FAE2
:1003D000A168094B994202D0204600F09FFAE168DB
:1003E000064B994204D02046BDE8104000F096BA72
:1003F00010BD00BFD40100203C020020A402002058
:1004000010B50A4B0A4A1A600A4800220421FFF775
:1004100095FF094801220921FFF790FFBDE8104030
:10042000064802221221FFF789BF00BF0C030020FB
:10043000A9030008D40100203C020020A4020020EF
:10044000014800F0F6B800BF15030020014800F095
:10045000F1B800BF1503002010B50446FFF7F0FF08
:10046000236A1BB1BDE81040FFF7F0BF044B2362C5
:10047000044B1B68002BF5D1FFF7C2FFF2E700BF6A
:10048000C10300080C0300202DE9F843804689468B
:1004900014460026D4E90175013F05D52468002CD7
:1004A000F8D13046BDE8F883AB89012B07D9B5F9FF
:1004B0000E30013303D029464046C847064368350D
:1004C000EAE710B50C46B1F90E1000F069F8002803
:1004D000ABBF636DA3891B1823F48053ACBF636566
:1004E000A38110BD2DE9F0411F468B89DB05054630
:1004F0000C46164605D5B1F90E100223002200F075
:100500003DF8A389B4F90E1023F48053A381324639
:100510003B462846BDE8F04100F054B810B50C4603
:10052000B1F90E1000F02AF8B4F90C30421C0BBFE0
:1005300023F4805343F48053A381A38118BF6065E3
:1005400010BDB1F90E1000F009B802440346934201
:1005500000D1704703F8011BF9E7000038B5064CDD
:10056000002305460846236001F058F9431C02D1D8
:10057000236803B12B6038BD1003002038B5074C49
:10058000054608461146002222601A4601F04CF941
:10059000431C02D1236803B12B6038BD1003002037
:1005A00038B5074C054608461146002222601A4617
:1005B00001F038F9431C02D1236803B12B6038BD28
:1005C0001003002038B5074C0546084611460022A6
:1005D00022601A4601F00EF9431C02D1236803B1D0
:1005E0002B6038BD1003002070B50D4B0D4C00265C
:1005F0001D1BB6EBA50F09D133F05AFA0A4C0B4B71
:1006000000261D1BB6EBA50F05D170BD54F8043BA9
:1006100098470136EDE754F8043B98470136F1E777
:100620000838040808380408083804080C38040896
:10063000704770477047000037B5002944D051F823
:10064000043C0190002BA1F10404B8BFE41800F0B1
:10065000DDF81E4A0198136833B96360146003B073
:10066000BDE8304000F0D8B8A34208D92568611928
:100670008B4201BF19685B6849192160EDE71A4692
:100680005B680BB1A342FAD911685518A5420BD18A
:10069000246821445418A3421160E0D11C685B68AF
:1006A00053600C441460DAE702D90C230360D6E7E8
:1006B000256861198B4204BF19685B68636004BFD9
:1006C000491921605460CAE703B030BD1C03002003
:1006D00070B50F4C0E462168054611B900F046F979
:1006E00020603146284600F041F9431C03D14FF009
:1006F000FF34204670BDC41C24F00304A042F8D08F
:10070000211A284600F032F90130F2D1EFE700BF9C
:10071000180300202DE9F843CD1C25F0030508350A
:100720000C2D38BF0C25002D064601DBA94204D94B
:100730000C2333600020BDE8F883334F00F066F8E7
:100740003B681C463CBB29463046FFF7C1FF431CB3
:10075000044656D13C68A046B8F1000F40D1002CA9
:1007600049D023684146304604EB030900F0FEF807
:10077000814540D121686D1A29463046FFF7A8FF10
:10078000013038D023682B4423603B685A685ABB39
:10079000C7F800800EE02268521B1ED40B2A16D91F
:1007A0006119A342256018BF5960636808BF3960AA
:1007B00062514B60304600F02FF804F10B00231D0E
:1007C00020F00700C21A1CBF1B1AA350B3E76268CF
:1007D000A3420CBF3A605A60ECE723466468B1E775
:1007E0004446D8F80480B7E71A465B68A342FBD1B9
:1007F00000235360DEE70C233360304600F00CF832
:1008000098E70560D6E700BF1C0300200148FFF70A
:1008100010BF00BF140300200148FFF70BBF00BF4B
:1008200014030020B1F90C20F8B5160705460C4654
:1008300051D44B68002B02DC0B6C002B49DDE66ABF
:10084000002E46D0002312F480522F682B6031D046
:10085000626DA389590705D56368D21A636B0BB122
:10086000236CD21A0023E66A216A2846B047421C4C
:10087000B4F90C3006D129681D2944D8264ACA404B
:10088000D60740D500226260D9042269226004D5CF
:10089000421C01D12B6803B96065616B2F60C1B147
:1008A00004F14403994202D02846FFF7C5FE002315
:1008B00063630EE0216A01232846B0470246501CBC
:1008C000C7D12B68002BC4D01D2B01D0162B19D1FA
:1008D0002F6000201CE00F69002FFAD093070E68EC
:1008E00008BF4B690F6018BF0023F61B8B60002EFA
:1008F000EFDD216AD4F828C033463A462846E0475F
:10090000002806DCA38943F04003A3814FF0FF30A9
:10091000F8BD0744361AEAE70100402038B50B69F4
:1009200005460C4613B91D46284638BD18B1036A62
:100930000BB9FFF791FDB4F90C30002BF3D0626EC8
:10094000D00704D4990502D4A06DFFF772FE2846A3
:100950002146FFF767FF636EDA070546E4D4A389F3
:100960009B05E1D4A06DFFF765FEDDE738B5064CC9
:10097000002305460846236000F02EFF431C02D1E9
:10098000236803B12B6038BD1003002070B582B01E
:100990000E460193154631F0D3FE0199044600221C
:1009A0001BF09EFB204600224DF2BB611BF084FB36
:1009B0000022114620461BF05FFB00221146204614
:1009C0001BF03AFB0022114620461BF03BFB0022A5
:1009D000114620461BF024FB0022114620461BF046
:1009E00025FB0699204631F0B9FE20462A463146BD
:1009F00016F0A0FA204602B070BD00BFF0B583B07B
:100A00001D460F46164615F0A1FC244A0446002157
:100A10001AF094FC324620464FF4427116F0B6FAB2
:100A20003A4620460C2116F085FA2046002241F273
:100A3000A3011BF00DFB20460022FF211BF01CFB35
:100A40002046002248F252411BF01CFB20460022A7
:100A500001211BF02BFB0022114620461BF0ECFA73
:100A60000022114620461BF0EDFA002211462046D6
:100A70001BF0D6FA0022114620461BF0D7FA20467A
:100A8000102115F0BDFC064B0095062208212046DA
:100A9000FFF77CFF204603B0F0BD00BFFFFF0F0053
:100AA000F07C030870B50E46154631F049FE174933
:100AB000044600221BF014FB2046002248F252415B
:100AC0001BF0FAFA0022114620461BF0D5FA00224C
:100AD000114620461BF0B0FA0022114620461BF0BA
:100AE000B1FA0022114620461BF09AFA0022114664
:100AF00020461BF09BFA2946204631F02FFE204667
:100B00003246082116F016FA204670BDF07C030824
:100B1000F0B58DB02BF0C4F914F088F9102104461B
:100B200015F06EFC0022114620461BF091FA0022BF
:100B3000FF2120461BF0A0FA0022114620461BF0A0
:100B40007BFA0022114620461BF07CFA0022114657
:100B500020461BF065FA0022114620461BF066FA7B
:100B6000204615F0F3FB634A054600211AF0E6FB28
:100B700028461E224FF4487116F008FA002211464A
:100B8000284616F0D7F92846002241F2A3011BF0AF
:100B90005FFA28460022FF211BF06EFA564A574B97
:100BA0000092002103222846FFF7F0FE4FF448711F
:100BB000054616F017FA0022022128461BF096FA85
:100BC00003220021284616F0B5F94D4B8422282136
:100BD0002046FFF713FF064601F07AFB002800F0DD
:100BE00087800388474A484F04AD2021284632F0C9
:100BF0005DF90095454B464D202208213046FFF710
:100C0000C5FE444A0092414B382208213046FFF786
:100C1000BDFE414B009350223C4B286008213046DA
:100C2000FFF7B4FE3D4A68213046FFF73BFF3C4BDF
:100C3000B422AC212046FFF7E1FE3A4B009320227C
:100C4000324B08210646FFF7A1FE374B00933822AE
:100C500068602E4B08213046FFF798FE2B4B00971B
:100C60005022A86008213046FFF790FEE86003900C
:100C700004F0C8FA2D4B2E490246A3FB023203981A
:100C8000920C31F0FBFD2B4B009368221F4B082187
:100C90003046FFF77BFE284A286180213046FFF767
:100CA00001FF264B68616E2220464FF4B671FFF7B4
:100CB000A5FE234B00932022144B08210446FFF786
:100CC00065FE0097114BA861382208212046FFF7E6
:100CD0005DFE024600970D4BEA6120465022082136
:100CE000FFF754FE174B286201221A700DB0F0BDB9
:100CF000034677E7FFFF0F00243B0308D47C03087B
:100D00003C3B03084C3B03081C450308F07C0308EC
:100D10002C030020683B0308743B0308903B030846
:100D2000A83B0308B83B0308C83B030883DE1B430A
:100D3000D43B0308E43B0308F83B0308143C0308D6
:100D4000243C03082103002030B5314A314D12788C
:100D50002B68314C31496068052A03F1010387B0E3
:100D60002B609BBFD3B22E4A2E4A52F8232031F07B
:100D700085FD2A682C4BA3FB02514909A3FB0153B3
:100D80005B09C3EB0313A1EB8303C1EB0111A2EBDE
:100D9000810100912549264D0020A1FB0212D20AB3
:100DA000244904900590206931F068FD05A904A844
:100DB00003F0F6FEDDE904231F49606931F05EFDB2
:100DC0002B780BB907B030BD03F01CF9039003F08A
:100DD0006FF8039BA46893B10278312A0DD0302AB2
:100DE00012D003F01E031E2B10D01449204631F000
:100DF000B5FC00232B7007B030BD1149F6E711494F
:100E0000204631F0ABFCF4E70F49EFE70F49EDE77F
:100E1000440A0020240300202C030020C83C0308BF
:100E200088480308343C030889888888C5B3A291A0
:100E300020030020D83C0308F03C0308B03C030822
:100E40003C3C0308103D0308643C03088C3C030849
:100E5000F0B5504C504D267885B0002E7BD04F4CCD
:100E60004F49A0694F4F31F079FC4F49E06931F0AB
:100E700075FC4D49206A31F071FC4C4B60684C495F
:100E800000223A6001221A704A4B1B78052BDAB215
:100E900096BF494B494A53F8222031F0EFFC00F04D
:100EA000F9FB2668002845D000F0FAFB44490246C9
:100EB000304631F0E3FC03F0A5F8064602F0F8FFF7
:100EC000A268002E42D00378312B54D0302B54D05E
:100ED00006F01E061E2E5AD03A49104631F03EFC4E
:100EE0003A68394B0021CDE90211A3FB02014909FF
:100EF000A3FB01035B09C3EB0313A1EB8303C1EB6A
:100F00000111A2EB8101009130492069A1FB02127D
:100F1000D20A2F4931F0B2FC03A902A803F040FE27
:100F2000DDE902232B49606931F0A8FC2A6832B35D
:100F300005B0F0BD2849304631F010FC03F062F8EE
:100F4000064602F0B5FFA268002EBCD12349104628
:100F500031F004FCC4E7286810B12EF087FA2E6047
:100F60002AF09EFF13F062FF1BF09AF90023237012
:100F7000FFF7CEFD73E71A49AFE71A49ADE74FF423
:100F80007A7119482EF04EFA286005B0F0BD174965
:100F9000A3E700BF21030020280300202C0300202A
:100FA000243C0308240300201C45030820030020E0
:100FB000C83C0308440A002088480308343C03085E
:100FC000243D0308B03C030889888888C5B3A291F2
:100FD000D83C0308F03C0308403D0308103D0308DB
:100FE0003C3C0308643C0308490D00088C3C0308A2
:100FF00070B582B006462AF053FF13F017FF2B4C52
:101000000546206818B12EF031FA002323602AF03B
:1010100047FF13F00BFF1BF043F9254B0024284634
:1010200010211C7015F0ECF92246214628461BF0D1
:101030000FF822462846FF211BF01EF822462146C3
:1010400028461AF0F9FF2246214628461AF0FAFFF0
:101050002246214628461AF0E3FF2246214628462A
:101060001AF0E4FF134A144BA64218BF324600920E
:10107000214622462846FFF789FC4FF44871054671
:1010800015F0B0FF2246284602211BF02FF8224619
:101090002146284615F04EFF2346224609212846C0
:1010A00002B0BDE8704016F007B800BF280300206A
:1010B000210300201C450308D47C0308034B1B7844
:1010C00013B1034B01221A70704700BF21030020A7
:1010D00020030020024B00221A700120704700BF3D
:1010E0005005002008B5012008F0B6FA034A03466F
:1010F000003818BF0120136008BD00BF5405002050
:10110000034B186818B14FF0FF3108F005BD704768
:1011100054050020044B186820B100231A461946D4
:1011200008F0C8B8704700BF5405002008B520B1CA
:10113000012818BF012008D008BD01200CF040F99B
:1011400080F001004000C0B208BD03F0CFF8B0FA53
:1011500080F04009400008BD18B1012802D00120EC
:101160007047704708B503F0C1F8B0FA80F0400945
:10117000400008BD70B50E4684B0144610B3012877
:1011800002D0042004B070BD002BFAD08A0736D0FC
:10119000C4EBC4521D1901EB4226012221461E4810
:1011A00003F0AAF803461C494FF4007206EB4420F2
:1011B000002B2ED1013431F083FFAC42EDD1002061
:1011C00004B070BD154D02909BB20093144C1346B1
:1011D0000A4601460120287001940CF0B9F92B78D9
:1011E000002BECD0012007F007FC2B78002BE6D079
:1011F000012007F001FC2B78002BF3D1DFE71A4622
:101200002146304603F078F8003818BF012004B0BA
:1012100070BD0120B6E700BF50030020500500203C
:10122000D510000870B50E4684B0144608B30128E6
:1012300002D0042004B070BD002BFAD08A0735D04C
:10124000C4EBC4521D1901EB42264FF4007206EBA9
:1012500044211C4831F034FF1A480122214603F092
:1012600075F800282CD10134AC42EED1002004B036
:1012700070BD154D02909BB20093144C13460A4664
:1012800001460120287001940CF0FAF92B78002B0C
:10129000ECD0012007F0B0FB2B78002BE6D001202A
:1012A00007F0AAFB2B78002BF3D1DFE71A46214683
:1012B000304603F04BF8003818BF012004B070BD71
:1012C0000120B7E75003002050050020D51000088A
:1012D00010B584B028B9032906D8DFE801F01E2A2A
:1012E000211C0128034602D0042004B010BD0C4686
:1012F00000204FF40071022C0390ADF80A1021D8A1
:101300005CB10DF10A0103A8CDE9003203F048F801
:10131000E0B10098E9E701231360002004B010BD9C
:101320000021012000920CF03DF8009A108000206E
:10133000F4E70021012000920CF026F8009A1060DA
:101340000020EBE7032CCFD11360E6E7012C019AD4
:101350000BBF039BBDF80A3013601380DDE700BFAD
:1013600070B5164E164D002407E0023A012A20D827
:10137000A3070FD0642007F03FFB013405FB04F303
:10138000B3F1333F0AD93378042BDAB20DD0ECD95C
:10139000052A0ED1012002F013FFEBE7002002F036
:1013A0000FFF3378042BDAB2F1D1012002F0ECFE0A
:1013B000E0E7012002F0F4FEDCE700BF440A002071
:1013C000CDCCCCCC00B583B072B6084C0025012042
:1013D00002F0F6FE0195019BA342F8D8019B013370
:1013E0000193019BA342F9D9F1E700BFFEFF010081
:1013F00000B597B003F08CFC0023CDE90C33CDE9A8
:101400000E33CDE90533CDE90733514903930993F1
:10141000086C504A40F080500864096C01F080511B
:10142000039103990493136843F4404313601368D2
:1014300001204FF4803103F44043CDE90A010493C5
:101440004FF480010224CDE91041049807210220C5
:10145000CDE9140119224FF4A8730AA8129213932C
:1014600003F0E6FC88BB03460F21CDE905144FF4D9
:10147000A052079305A84FF480530521CDE9082316
:1014800003F0F4FE054600BB02F050FE284602F0D1
:1014900087FE012002F084FE03F0FAF82E4831F0B6
:1014A000FDFC00F009FE00F053FE7F2002F096FEE6
:1014B0002A4831F0F3FC2A4831F0F0FC02F090FFAA
:1014C000054620B1274831F0E9FCFFF77BFF2648AD
:1014D00031F0E4FC254809F0EDFA254831F0DEFC56
:1014E000FFF700FE20B9234831F0D8FCFFF76AFF70
:1014F00000F09EFD20B9204831F0D0FCFFF762FFDC
:101500001E4831F0CBFC0323CDE900351C491D48B2
:101510002B464FF4806207F06DF80123CDE90035CA
:1015200019491A482B464FF4807207F063F8CDE949
:101530000045174917482B464FF4C06207F05AF888
:1015400085F3118862B607F0EBF8FFF73BFF00BFA9
:1015500000380240007000409C3D0308AC3D030889
:10156000C43D0308D43D0308E83D03085C000020A7
:10157000F83D0308283E0308403E0308583E030890
:10158000743E0308752000087C3E030861130008C0
:10159000803E03083D18000808B5FFF713FF00BFA1
:1015A00008B5FFF70FFF00BF08B5FFF70BFF00BF3F
:1015B0000038024B18BF0120186070475805002002
:1015C00010B51E4C84B0226800230393ADF80A3096
:1015D00012B1002004B010BD02F012FE28B1184B69
:1015E0001B681BB3012004B010BD0DF10A0103A854
:1015F00002F0D6FE0399BDF80A201248890A02FBC0
:1016000001F1890A31F0E2FBFFF77AFD0E490F483C
:10161000012212F069FB0190FFF77CFD019949B9A5
:1016200001230B48236031F039FCD2E7094831F03F
:1016300035FCD7E7084831F0C9FBD3E75C0500204B
:1016400058050020A83E0308D43E0308600500208A
:10165000FC3E0308843E0308D83E030808B50B4B44
:101660001A681AB9BDE8084002F034BEFFF748FD19
:1016700000221046064912F037FBFFF74BFD034BE3
:1016800000221A60BDE8084002F024BE5C0500207C
:10169000D43E0308014B1868704700BF5C0500206A
:1016A00000B50E4B83B01B6800214FF4007201910E
:1016B000ADF8022013B9002003B000BD0DF1020106
:1016C00001A802F06DFE0028F5D10198BDF80230A6
:1016D000800A03FB00F0800A03B000BD5C05002017
:1016E00010B58AB0274B002204921A6C42F02002F7
:1016F0001A641B6C03F020030493044603A905A895
:10170000049B03F06DFE089BEBB903F049FE034612
:101710001D4A1E481E49A2FB03239B0C013B0022CD
:10172000C0E9001340F2E733C0E90522026182609C
:10173000C36004F0B3FC50B1372003F06BFB01220F
:1017400010460AB010BD03F02BFE4300E0E70F483F
:1017500004F076FD0D4804F039FD0190372003F0C8
:1017600059FB019A002AEAD10F2CE8D821463720EC
:10177000019203F01DFB019A064B10461C600AB053
:1017800010BD00BF0038024083DE1B43A0070020CD
:101790000014004054010020034B02689A4200D01C
:1017A000704703F0CFBA00BF00140040FEE700BF4F
:1017B000FEE700BFFEE700BFFEE700BFFEE700BF99
:1017C000704700BF014804F05BBD00BFA0070020C8
:1017D000012100200EF008B9044A05491368002BC6
:1017E00008BF0B461844106018467047E8070020F1
:1017F0007851002000B5431E012B83B007D808465E
:101800001146019202F096FF019803B000BD31F03D
:1018100049FC092303604FF0FF30F6E74FF0FF303B
:10182000704700BF00207047002070474FF40053FE
:101830004B600020704700BF012070472DE9F04F3A
:10184000854885B031F02AFB00F084FD38B183482B
:1018500031F024FB4FF47A7007F0CEF8FAE78346B4
:1018600014F048FD03F0F4F97D48DFF8F8A17E4D4F
:101870007E4C7F4FDFF8FC81DFF8FC91FFF7B8FB6F
:101880002DF0BCFC7D4831F009FB07F015F97C4ACE
:10189000CAF80000A0F5FA73136007F00DF92B7871
:1018A0005B4506462FD0237895F800B0012B5FFAF0
:1018B0008BFB00F086803A78002A7BD198F80020D4
:1018C00042B96F4A1268022BA6EB02023AD0B2F577
:1018D000FA7F67D26B4A127812B92A78042A3CD070
:1018E00033B9DAF8003042F20F72F31A93426ED82D
:1018F0002DF084FC052007F07FF807F0DDF82B7849
:101900005B450646CFD12378012BD4D199F800301E
:10191000002BEDD15C4A1268002AE9D0B21A40F2DD
:10192000DB518A42E4D9CDE9023303A9012302A89D
:1019300089F8003003F034F9DDE90212534831F040
:1019400045FAD5E740F6B7339A422BD84D4B1B7872
:10195000002BCDD12B78042BCAD14A4B4C484FF0E9
:1019600001021A7031F09AFA4A4802F0A5FA0028EA
:101970006CD102F047FB47490246474831F026FA4E
:1019800003F0EEF8FFF764FA4FF0010323703E4BCB
:1019900042481E6031F082FA2378002BA1D0012B3F
:1019A000A6D1B3E7364B1E60FFF70AFE002846D1EA
:1019B00001233B7098F80030BBB12378012B89D10B
:1019C000A4E7FFF77BFB2378012B9FD073E7344814
:1019D000FFF70EFB2A4B33481E600223237031F0C1
:1019E0005DFA2378012B83D190E701932E484FF0C5
:1019F000010388F8003031F051FA2C4802F05CFA0B
:101A000098B902F0FFFA29490246234831F0DEF97D
:101A100003F0A6F8FFF71CFA4FF0010323701A4BEE
:101A200023481E6031F03AFAC7E72049214831F0D7
:101A3000CDF9FFF713FE019B3B702378BEE7012031
:101A4000FFF7B6FD3B78002BB7D0B3E71149194833
:101A500031F0BCF9A0E700BF103F0308383F03088E
:101A6000683F0308F4070020440A0020FF07002015
:101A7000FE070020FD070020EC070020843F03083C
:101A8000F8070020FC070020F0070020E0400308D2
:101A90004440030868400308004003086C40030802
:101AA00090400308B0400308B43F0308D43E030845
:101AB00020400308DC3F030870B51C481C4CADF502
:101AC0001C7D12F0F5FF1B4812F0F2FF0FCC0DF158
:101AD000080CACE80F0094E803008CE8030002ACAB
:101AE00008AD26680A223146284612F03DF9024622
:101AF00090B966683046FEF77FFB01AB024631467F
:101B0000284612F067FB0834284612F08DFDAC42DF
:101B1000E7D10DF51C7D70BD07483146083431F022
:101B200055F9AC42DDD10DF51C7D70BD2C4103088B
:101B3000C83A03083441030840410308B1F5006F77
:101B400072D8704B1B68B3F5804F67D2C3F58043E2
:101B5000994263D82DE9F04FADF5377D0C4601224F
:101B6000014622A812F000F90646002861D1664815
:101B7000DFF89891214631F029F90DF1040802AF00
:101B800039464346402222A812F046FA0146002870
:101B900065D1D8F80030002B53D09A19B2F5006FF8
:101BA00064D83D4607EB030B08460DF1480A03E0F5
:101BB0002546AB45084628D02C4614F8013B1F2B80
:101BC00006D8093BDBB2042B94BF19F803302E234F
:101BD0003F280AF8003000F10101E9D1504602F037
:101BE000A9FD5C4516D023781F2B05F1020518D8F6
:101BF000093BDBB2042B94BF19F803302E238AF87B
:101C00000030AB454FF00100D6D118B10146504627
:101C100002F090FDD8F800301E44B1E73C4831F0A6
:101C20003DB98AF80030ECE73A484FF4006231F0F1
:101C3000CDB83146384831F0C9F80DF5377DBDE8EB
:101C4000F08F22A812F0F0FC344831F027F92D4A29
:101C50001368334413600DF5377DBDE8F08F3048CD
:101C600031F0B4F822A812F0DFFCEDE7B6F5006F12
:101C700034D0C6F500680846244E0D460DF1480ADA
:101C800004E0084627460135A84526D93C4614F805
:101C9000013B1F2B05D8093BDBB2042B94BFF35C3F
:101CA0002E233F280AF8003000F10101E9D1504607
:101CB000013502F03FFDA84510D923781F2B07F10D
:101CC000020716D8093BDBB2042B96BF0F492E231F
:101CD000CB5C8AF800300120D5E768B922A812F061
:101CE000A3FC10484FF4006131F070F84FF4006627
:101CF000AAE78AF80030EEE70146504602F01AFDE6
:101D0000ECE700BF00080020CC410308A04803080E
:101D10008841030860410308B441030828420308CE
:101D20000C420308EC410308062900D170472DE955
:101D3000F043ADF52F7D05468946014602A8904641
:101D40001F4612F007FE024600285ED10DF1720612
:101D500016A902A812F070FE0146002836D19DF89F
:101D60007230002B35D033882E2BF1D042F62E6204
:101D7000934235D02846FEF73FFA20B1284410F8A8
:101D8000013C2F2B3FD0234B234ACDE900364FF4A3
:101D9000A0712B465EA831F089F89DF86430DB060F
:101DA00022D53B681D4801333B605EA931F00EF837
:101DB0003B4642465EA809F10101FFF7B5FF16A9AF
:101DC00002A812F039FE01460028C8D0144830F0AD
:101DD000FDFF02A812F014FE0DF52F7DBDE8F08383
:101DE000B378002BB4D0C5E7D8F80030169A0D4868
:101DF00001335EA9C8F8003030F0E8FF16995EA8FC
:101E0000FFF79CFEA4E7084BBEE72946074830F0E1
:101E1000DDFFE1E7384203088042030888420308F7
:101E20005C420308944203081C4503083C42030833
:101E30002DE9F041ADF52E7D05460E4602A82D494F
:101E400012F088FD00284CD12B4F16A902A812F0E1
:101E5000F3FD42F62E68274B284A4FF4A0710DF18E
:101E6000720C00BB9DF8720008B3BCF800E0BEF134
:101E70002E0F5EA8E9D0C64520D0CDE9007C31F018
:101E800015F89DF864301E48DB065EA91CD5336842
:101E90000133336030F09AFF33462A465EA80121B1
:101EA000FFF742FFD1E70146164830F08FFF02A846
:101EB00012F0A6FD0DF52E7DBDE8F0819CF802E044
:101EC000BEF1000FC1D0D8E72B68169A0E48013337
:101ED0005EA92B6030F07AFF16995EA8FFF72EFE00
:101EE000B3E702460349094830F070FF0DF52E7D37
:101EF000BDE8F081B04203081C4503088042030896
:101F0000884203085C420308944203083C420308E9
:101F1000F0B5274B274D1B68274E284F85B01A0C6C
:101F2000ADF804308DF8062028684FF0FF3107F037
:101F3000F3FD01200BF044FA0028F5D003233370A1
:101F4000FFF7DEF81E48012201A911F0CDFE04467C
:101F500004231C4814BB3370CDE9024430F09EFFCB
:101F6000FFF7AAFD184830F099FF03A902A83C60CA
:101F7000FFF75EFFDDE90221144830F027FF202043
:101F800008F07EFC04460146114824B130F01EFFE3
:101F9000204608F00DFDFFF7BDF8C5E721460D48C6
:101FA00030F014FF05233370FFF7B4F8BCE700BF2F
:101FB0006840030804080020440A002000080020AC
:101FC00008080020CC420308E04203080C43030841
:101FD00040430308B442030810B5084830F05EFFE0
:101FE000074A084B106802221A7030B10023BDE87E
:101FF00010401A46194607F05DB910BD704303083A
:1020000004080020440A002008B5064830F046FFC6
:10201000054B064900221A70BDE80840104611F031
:1020200063BE00BF90430308440A002068400308D1
:1020300000B5032283B00021012007F0EBF80A4B22
:10204000186070B100230222CDE900230749084837
:102050004FF4006206F0CEFAA0F10100B0FA80F071
:10206000400903B000BD00BF04080020A4430308DA
:10207000111F000800B583B002F0ECFB0B4B0020F1
:102080001B8BADF8043001A908F084FD40B108486D
:1020900030F004FF00214FF0FF3009F053F9F9E769
:1020A000044830F0FBFEFFF78DF9F0E7C83A03086B
:1020B000C0430308AC4303082DE9104889B01F4B07
:1020C000002400941A6C42F480021A641A6C02F420
:1020D00080020092009A01941A6B42F080021A6307
:1020E0001B6B3020122103F08003CDE90201019324
:1020F0001348019A04234FF0030C02A94FF0010B7F
:102100000693CDE904BC03F08BF90E480E490F4A43
:1021100004624FF48043C0E90012C0E90244C0E900
:102120000434C0E9064403F0EDFC10B909B0BDE881
:102130001088FFF747F909B0BDE810880038024061
:10214000001C0240480A002000580040A086010000
:10215000F0B55C4C5C492268536990690A69950640
:102160008DB002D5810740F1A48010200121002309
:10217000CDE9060103225448089306A9CDE90923B5
:1021800003F04EF901225048102103F04DFBB42317
:102190000193019B5A1E01922BB100BF019B5A1E55
:1021A0000192002BF9D1484D0926B42700221021B5
:1021B000284603F039FB0397039B5A1E03922BB169
:1021C00000BF039B5A1E0392002BF9D1012210215C
:1021D000284603F029FB0297029B5A1E02922BB15C
:1021E00000BF029B5A1E0292002BF9D12B699A065E
:1021F00001D4013EDAD120220123CDE906230025B6
:1022000003233148089506A9CDE9093503F008F9FB
:102210002A462D48202103F007FBB4230593059B94
:102220005A1E05922BB100BF059B5A1E0592002B2A
:10223000F9D101222448202103F0F6FAB4230493B3
:10224000049B5A1E04922BB100BF049B5A1E049299
:10225000002BF9D11B4803F025FD1A4803F052FC6E
:1022600030221223CDE9062301220323CDE90823DE
:102270001548042306A90A9303F0D2F8134911481C
:1022800000234FF48042C4E90113C4E90332C4E9D6
:102290000533C4E9073303F035FC80B923689B6933
:1022A0009B070CD4084B1869C0F3401001380DB0DF
:1022B000F0BD13F4E0607FF458AF0DB0F0BD4FF007
:1022C000FF30F4E7480A0020001C0240A08601000D
:1022D000004870479C0A0020DFF870C0DCE9031258
:1022E00000B5BCF8063002FB01F100BF184AA2F8A5
:1022F000FE3000BF0023A2F80031BCF806E00EF16A
:10230000010E00BFA2F8FEE000BFA2F80031BCF849
:1023100008E000BFA2F8FEE000BFA2F80031BCF860
:1023200008E00EF1010E00BFA2F8FEE000BFBCF80D
:1023300004C0A2F80031A2F8FEC000BF21B10133F1
:102340009942A2F80001FAD100BD00BF9C0A00200A
:1023500000FF07602DE9F04F5C4D5D4A5D4895B088
:1023600000264FF448714FF4F073C5E903136A6017
:102370004FF42C5332462021AE600127CDE9076689
:10238000CDE90966CDE90B66CDE90E66CDE91066AB
:10239000CDE91266CDE90266CDE904662E602B8197
:1023A00006960D960196022403F03EFA2023494832
:1023B000019301A9CDE9027704944FF0030803F0DB
:1023C0002FF80C23CDE9048343484FF6B37301A9DA
:1023D000CDE90246019303F023F84FF680733F489E
:1023E000019301A903F01CF84FF23F033C4801930D
:1023F00001A903F015F83F233A48019301A903F01E
:102400000FF8394B0C964FF010091846C3E90266D5
:10241000C3E90666C3E90866C3E90D661E61DE62AC
:10242000DE635E641396C3F81490304E099711234F
:102430000B9312934FF02043C0E900364FF48053C2
:1024400083624FF480434FF00F0A03630DAA4623C3
:1024500006A9CDE906AACDE90DAA1097CDF83CA0B2
:10246000CDF82890CDF84490089304F01DF800288A
:1024700041F024840646142002F076FC00BF1C4B79
:102480004FF45B42A3F8FE2000BFB3F80021ADF883
:102490001820BDF8180000BF4FF45C42A3F8FE20DE
:1024A00000BFB3F80021ADF83420BDF83410C9B234
:1024B00041EA002189B20F48298030F087FC2A8840
:1024C0000B4BB2F5004F41F0018415E09C0A00204F
:1024D000002C002A00040240000C024000100240C0
:1024E0000014024000180240B00A0020040100A0BD
:1024F00000FF07606C44030800BF4FF200024FF07A
:10250000550EA3F8FE20A3F800E100BF4FF2010032
:102510004FF0AA0CA3F8FE00A3F800C100BF4FF2D1
:10252000020B4FF05202A3F8FEB0A3F8002100BF47
:102530004FF2030CA3F8FEC04FF0080CA3F800C143
:1025400000BF4FF20402A3F8FE20A3F8007100BF01
:102550004FF43042A3F8FE200D22A3F8002100BF63
:102560004BF20101A3F8FE10A3F8002100BF4BF2CB
:102570000201A3F8FE10A3F8002100BF4BF2006097
:102580003421A3F8FE00A3F8001100BF4BF2016054
:10259000A3F8FE00A3F8001100BF4BF20260A3F8FD
:1025A000FE00A3F8001100BF4BF2001BA3F8FEB021
:1025B000A3F8002100BF4BF2011EA3F8FEE0A3F830
:1025C000002100BF4BF20210A3F8FE00A3F8002187
:1025D00000BF4BF20072A3F8FE20A3F8001100BF69
:1025E0004BF2017EA3F8FEE0A3F8001100BF4BF20E
:1025F0000272A3F8FE20A3F8001100BF4FF432428C
:10260000A3F8FE20A3F8006100BF4BF20122A3F85B
:10261000FE20A3F8006100BF4BF20222A3F8FE20C7
:10262000A3F8006100BF4BF60002A3F8FE202422AD
:10263000A3F8002100BF4BF6010BA3F8FEB0A3F8EE
:10264000002100BF4BF6020EA3F8FEE0A3F8002124
:1026500000BF4FF43F40A3F8FE00A3F8007100BF95
:102660004FF43340A3F8FE00A3F800A100BF4BF2E3
:102670000130A3F8FE00A3F800A100BF4BF2023026
:10268000A3F8FE00A3F800A100BF4FF43940A3F85F
:10269000FE00A3F8001100BF4BF60110A3F8FE00E6
:1026A000A3F8001100BF4BF60210A3F8FE00A3F838
:1026B000001100BF4FF43540A3F8FE00A3F800C19D
:1026C00000BF4BF20150A3F8FE00A3F800C100BF09
:1026D0004BF20250A3F8FE00A3F800C100BF4FF474
:1026E0004240A3F8FE00A3F8008100BF4FF43A4037
:1026F000A3F8FE00A3F8002100BF4BF60120A3F8C9
:10270000FE00A3F8002100BF4BF60220A3F8FE0054
:10271000A3F8002100BF4BF6004AA3F8FEA0A3F8DF
:10272000006100BF4BF6014A7822A3F8FEA0A3F88F
:10273000002100BF4BF6024AA3F8FEA0A3F80061F7
:1027400000BF4FF43D40A3F8FE00A3F8006100BFB6
:102750004BF60150A3F8FE00A3F8002100BF4BF692
:102760000252A3F8FE20A3F8006100BF4FF43E42DE
:10277000A3F8FE20A3F8006100BF4BF60162A3F8A6
:10278000FE206422A3F8002100BF4FF45142A3F8B9
:10279000FE20A3F8006100BF4DF201123320A3F820
:1027A000FE20A3F8000100BF4DF20212A3F8FE20A4
:1027B000A3F8006100BF4DF20312A3F8FE20A3F8B6
:1027C000001100BF4DF20412A3F8FE20A3F800612F
:1027D00000BF4DF205124FF03A0BA3F8FE20A3F80C
:1027E00000B100BF4DF20612A3F8FE20A3F800616D
:1027F00000BF4DF207124FF04A0EA3F8FE20A3F8D7
:1028000000E100BF4DF20812A3F8FE20A3F800611A
:1028100000BF4DF209124FF05C0CA3F8FE20A3F8A4
:1028200000C100BF4DF20A12A3F8FE20A3F8006118
:1028300000BF4DF20B12A3F8FE204FF08102A3F867
:10284000002100BF4DF20C12A3F8FE20A3F8006196
:1028500000BF4DF20D124FF0A60AA3F8FE20A3F818
:1028600000A100BF4DF20E12A3F8FE20A3F80061F4
:1028700000BF4DF20F12A3F8FE204FF0E502A3F8BF
:10288000002100BF4DF21012A3F8FE20A3F8007142
:1028900000BF4DF211124FF0130AA3F8FE20A3F867
:1028A00000A100BF4DF21212A3F8FE20A3F80071A0
:1028B00000BF4DF21312A3F8FE204FF05402A3F80C
:1028C000002100BF4DF21412A3F8FE20A3F80071FE
:1028D00000BF4DF215124FF0820AA3F8FE20A3F8B4
:1028E00000A100BF4DF21612A3F8FE20A3F800715C
:1028F00000BF4DF21712A3F8FE204FF0CA02A3F852
:10290000002100BF4DF21812A3F8FE20A3F80041E9
:1029100000BF4DF21912A3F8FE20A3F8006100BF1A
:102920004DF21A12A3F8FE20A3F8004100BF4DF2A9
:102930001B12A3F8FE20A3F8007100BF4DF21C1279
:10294000A3F8FE20A3F8004100BF4DF21D12A3F82A
:10295000FE20A3F8001100BF4DF21E12A3F8FE20C6
:10296000A3F8004100BF4DF21F124FF0670AA3F811
:10297000FE20A3F800A100BF4DF22012A3F8FE2014
:10298000A3F8004100BF4DF22112A3F8FE204FF042
:102990008402A3F8002100BF4DF22212A3F8FE200A
:1029A000A3F8004100BF4DF223124FF0A40AA3F890
:1029B000FE20A3F800A100BF4DF22412A3F8FE20D0
:1029C000A3F8004100BF4DF22512A3F8FE204FF0FE
:1029D000B702A3F8002100BF4DF22612A3F8FE2093
:1029E000A3F8004100BF4DF227124FF0CF0AA3F821
:1029F000FE20A3F800A100BF4DF22812A3F8FE208C
:102A0000A3F8004100BF4DF22912A3F8FE204FF0B9
:102A1000DE02A3F8002100BF4DF22A12A3F8FE2027
:102A2000A3F8004100BF4DF22B124FF0F20AA3F8B9
:102A3000FE20A3F800A100BF4DF22C12A3F8FE2047
:102A4000A3F8004100BF4DF22D12A3F8FE204FF075
:102A5000FE02A3F8002100BF4DF22E12A3F8FE20C3
:102A6000A3F8008100BF4DF22F12A3F8FE20A3F8B7
:102A7000009100BF4DF23012A3F8FE20A3F80081B0
:102A800000BF4DF23112A3F8FE20A3F8000100BFF1
:102A90004DF23212A3F8FE20A3F8008100BF4DF2E0
:102AA00033124FF06D0AA3F8FE20A3F800A100BF77
:102AB0004FF45242A3F8FE20A3F8006100BF4DF28C
:102AC000012CA3F8FEC0A3F8000100BF4DF2022CB8
:102AD000A3F8FEC0A3F8006100BF4DF2032CA3F8D9
:102AE000FEC0A3F8001100BF4DF2042CA3F8FEC0F5
:102AF000A3F8006100BF4DF2052CA3F8FEC0A3F8B7
:102B000000B100BF4DF2062CA3F8FEC0A3F800618F
:102B100000BF4DF2072CA3F8FEC0A3F800E100BFF0
:102B20004DF2082CA3F8FEC0A3F8006100BF4DF2DF
:102B3000092CA3F8FEC04FF05C0CA3F800C100BF45
:102B40004DF20A2CA3F8FEC0A3F8006100BF4DF2BD
:102B50000B2CA3F8FEC04FF0810CA3F800C100BFFE
:102B60004DF20C2CA3F8FEC0A3F8006100BF4DF29B
:102B70000D2CA3F8FEC04FF0A60CA3F800C100BFB7
:102B80004DF20E2CA3F8FEC0A3F8006100BF4DF279
:102B90000F2CA3F8FEC04FF0E50CA3F800C100BF56
:102BA0004DF2102CA3F8FEC0A3F8007100BF4DF247
:102BB000112CA3F8FEC04FF0130CA3F800C100BF06
:102BC0004DF2122CA3F8FEC0A3F8007100BF4DF225
:102BD000132CA3F8FEC04FF0540CA3F800C100BFA3
:102BE0004DF2142CA3F8FEC0A3F8007100BF4DF203
:102BF000152CA3F8FEC04FF0820CA3F800C100BF53
:102C00004DF2162CA3F8FEC0A3F8007100BF4DF2E0
:102C1000172CA3F8FEC04FF0CA0CA3F800C100BFE8
:102C20004DF2182CA3F8FEC0A3F8004100BF4DF2EE
:102C3000192CA3F8FEC0A3F8006100BF4DF21A2CB6
:102C4000A3F8FEC0A3F8004100BF4DF21B2CA3F86F
:102C5000FEC0A3F8007100BF4DF21C2CA3F8FEC00B
:102C6000A3F8004100BF4DF21D2CA3F8FEC0A3F84D
:102C7000001100BF4DF21E2CA3F8FEC0A3F80041C6
:102C800000BF4DF21F2CA3F8FEC04FF0670CA3F855
:102C900000C100BF4DF2202CA3F8FEC0A3F80041F4
:102CA00000BF4DF2212CA3F8FEC04FF0840CA3F816
:102CB00000C100BF4DF2222CA3F8FEC0A3F80041D2
:102CC00000BF4DF2232CA3F8FEC04FF0A40CA3F8D4
:102CD00000C100BF4DF2242CA3F8FEC0A3F80041B0
:102CE00000BF4DF2252CA3F8FEC04FF0B70CA3F89F
:102CF00000C100BF4DF2262CA3F8FEC0A3F800418E
:102D000000BF4DF2272CA3F8FEC04FF0CF0CA3F864
:102D100000C100BF4DF2282CA3F8FEC0A3F800416B
:102D200000BF4DF2292CA3F8FEC04FF0DE0CA3F833
:102D300000C100BF4DF22A2CA3F8FEC0A3F8004149
:102D400000BF4DF22B2CA3F8FEC04FF0F20CA3F8FD
:102D500000C100BF4DF22C2CA3F8FEC0A3F8004127
:102D600000BF4DF22D2CA3F8FEC04FF0FE0CA3F8CF
:102D700000C100BF4DF22E2CA3F8FEC0A3F80081C5
:102D800000BF4DF22F2CA3F8FEC0A3F8009100BFA6
:102D90004DF2302CA3F8FEC0A3F8008100BF4DF225
:102DA000312CA3F8FEC0A3F8000100BF4DF2322C75
:102DB000A3F8FEC0A3F8008100BF4DF2332CA3F8A6
:102DC000FEC0A3F800A100BF4DF2003CA3F8FEC076
:102DD000A3F8006100BF4DF2013CA3F8FEC0A3F8C8
:102DE000000100BF4DF2023CA3F8FEC0A3F8006151
:102DF00000BF4DF2033CA3F8FEC0A3F8001100BFD2
:102E00004DF2043CA3F8FEC0A3F8006100BF4DF2F0
:102E1000053CA3F8FEC0A3F800B100BF4DF2063C8C
:102E2000A3F8FEC0A3F8006100BF4DF2073CA3F871
:102E3000FEC0A3F800E100BF4DF2083CA3F8FEC0BD
:102E4000A3F8006100BF4DF2093CA3F8FEC04FF0AB
:102E50005C0CA3F800C100BF4DF20A3CA3F8FEC011
:102E6000A3F8006100BF4DF20B3CA3F8FEC04FF089
:102E7000810CA3F800C100BF4DF20C3CA3F8FEC0CA
:102E8000A3F8006100BF4DF20D3CA3F8FEC04FF067
:102E9000A60CA3F800C100BF4DF20E3CA3F8FEC083
:102EA000A3F8006100BF4DF20F3CA3F8FEC04FF045
:102EB000E50CA3F800C100BF4DF2103CA3F8FEC022
:102EC000A3F8007100BF4DF2113CA3F8FEC04FF013
:102ED000130CA3F800C100BF4DF2123CA3F8FEC0D2
:102EE000A3F8007100BF4DF2133CA3F8FEC04FF0F1
:102EF000540CA3F800C100BF4DF2143CA3F8FEC06F
:102F0000A3F8007100BF4DF2153CA3F8FEC04FF0CE
:102F1000820CA3F800C100BF4DF2163CA3F8FEC01E
:102F2000A3F8007100BF4DF2173CA3F8FEC04FF0AC
:102F3000CA0CA3F800C100BF4DF2183CA3F8FEC0B4
:102F4000A3F8004100BF4DF2193CA3F8FEC0A3F85E
:102F5000006100BF4DF21A3CA3F8FEC0A3F8004187
:102F600000BF4DF21B3CA3F8FEC0A3F8007100BFE8
:102F70004DF21C3CA3F8FEC0A3F8004100BF4DF287
:102F80001D3CA3F8FEC0A3F8001100BF4DF21E3C8B
:102F9000A3F8FEC0A3F8004100BF4DF21F3CA3F808
:102FA000FEC04FF0670CA3F800C100BF4DF2203CFB
:102FB000A3F8FEC0A3F8004100BF4DF2213CA3F8E6
:102FC000FEC04FF0840CA3F800C100BF4DF2223CBC
:102FD000A3F8FEC0A3F8004100BF4DF2233CA3F8C4
:102FE000FEC04FF0A40CA3F800C100BF4DF2243C7A
:102FF000A3F8FEC0A3F8004100BF4DF2253CA3F8A2
:10300000FEC04FF0B70CA3F800C100BF4DF2263C44
:10301000A3F8FEC0A3F8004100BF4DF2273CA3F87F
:10302000FEC04FF0CF0CA3F800C100BF4DF2283C0A
:10303000A3F8FEC0A3F8004100BF4DF2293CA3F85D
:10304000FEC04FF0DE0CA3F800C100BF4DF22A3CD9
:10305000A3F8FEC0A3F8004100BF4DF22B3CA3F83B
:10306000FEC04FF0F20CA3F800C100BF4DF22C3CA3
:10307000A3F8FEC0A3F8004100BF4DF22D3CA3F819
:10308000FEC04FF0FE0CA3F800C100BF4DF22E3C75
:10309000A3F8FEC0A3F8008100BF4DF22F3CA3F8B7
:1030A000FEC0A3F8009100BF4DF2303CA3F8FEC073
:1030B000A3F8008100BF4DF2313CA3F8FEC0A3F895
:1030C000000100BF4DF2323CA3F8FEC0A3F800811E
:1030D00000BF4DF2333CA3F8FEC0A3F800A100BF2F
:1030E0004DF2004CA3F8FEC0A3F8006100BF4DF202
:1030F000014CA3F8FEC0A3F8000100BF4DF2024C42
:10310000A3F8FEC0A3F8006100BF4DF2034CA3F882
:10311000FEC0A3F8001100BF4DF2044CA3F8FEC09E
:10312000A3F8006100BF4DF2054CA3F8FEC0A3F860
:1031300000B100BF4DF2064CA3F8FEC0A3F8006139
:1031400000BF4DF2074CA3F8FEC0A3F800E100BF9A
:103150004DF2084CA3F8FEC0A3F8006100BF4DF289
:10316000094CA3F8FEC04FF05C0CA3F800C100BFEF
:103170004DF20A4CA3F8FEC0A3F8006100BF4DF267
:103180000B4CA3F8FEC04FF0810CA3F800C100BFA8
:103190004DF20C4CA3F8FEC0A3F8006100BF4DF245
:1031A0000D4CA3F8FEC04FF0A60CA3F800C100BF61
:1031B0004DF20E4CA3F8FEC0A3F8006100BF4DF223
:1031C0000F4CA3F8FEC04FF0E50CA3F800C100BF00
:1031D0004DF2104CA3F8FEC0A3F8007100BF4DF2F1
:1031E000114CA3F8FEC04FF0130CA3F800C100BFB0
:1031F0004DF2124CA3F8FEC0A3F8007100BF4DF2CF
:10320000134CA3F8FEC04FF0540CA3F800C100BF4C
:103210004DF2144CA3F8FEC0A3F8007100BF4DF2AC
:10322000154CA3F8FEC04FF0820CA3F800C100BFFC
:103230004DF2164CA3F8FEC0A3F8007100BF4DF28A
:10324000174CA3F8FEC04FF0CA0CA3F800C100BF92
:103250004DF2184CA3F8FEC0A3F8004100BF4DF298
:10326000194CA3F8FEC0A3F8006100BF4DF21A4C40
:10327000A3F8FEC0A3F8004100BF4DF21B4CA3F819
:10328000FEC0A3F8007100BF4DF21C4CA3F8FEC0B5
:10329000A3F8004100BF4DF21D4CA3F8FEC0A3F8F7
:1032A000001100BF4DF21E4CA3F8FEC0A3F8004170
:1032B00000BF4DF21F4CA3F8FEC04FF0670CA3F8FF
:1032C00000C100BF4DF2204CA3F8FEC0A3F800419E
:1032D00000BF4DF2214CA3F8FEC04FF0840CA3F8C0
:1032E00000C100BF4DF2224CA3F8FEC0A3F800417C
:1032F00000BF4DF2234CA3F8FEC04FF0A40CA3F87E
:1033000000C100BF4DF2244CA3F8FEC0A3F8004159
:1033100000BF4DF2254CA3F8FEC04FF0B70CA3F848
:1033200000C100BF4DF2264CA3F8FEC0A3F8004137
:1033300000BF4DF2274CA3F8FEC04FF0CF0CA3F80E
:1033400000C100BF4DF2284CA3F8FEC0A3F8004115
:1033500000BF4DF2294CA3F8FEC04FF0DE0CA3F8DD
:1033600000C100BF4DF22A4CA3F8FEC0A3F80041F3
:1033700000BF4DF22B4CA3F8FEC04FF0F20CA3F8A7
:1033800000C100BF4DF22C4CA3F8FEC0A3F80041D1
:1033900000BF4DF22D4CA3F8FEC04FF0FE0CA3F879
:1033A00000C100BF4DF22E4CA3F8FEC0A3F800816F
:1033B00000BF4DF22F4CA3F8FEC0A3F8009100BF50
:1033C0004DF2304CA3F8FEC0A3F8008100BF4DF2CF
:1033D000314CA3F8FEC0A3F8000100BF4DF2324CFF
:1033E000A3F8FEC0A3F8008100BF4DF2334CA3F850
:1033F000FEC0A3F800A100BF4DF2005CA3F8FEC020
:10340000A3F8006100BF4DF2015CA3F8FEC0A3F871
:10341000000100BF4DF2025CA3F8FEC0A3F80061FA
:1034200000BF4DF2035CA3F8FEC0A3F8001100BF7B
:103430004DF2045CA3F8FEC0A3F8006100BF4DF29A
:10344000055CA3F8FEC0A3F800B100BF4DF2065C16
:10345000A3F8FEC0A3F8006100BF4DF2075CA3F81B
:10346000FEC0A3F800E100BF4DF2085CA3F8FEC067
:10347000A3F8006100BF4DF2095CA3F8FEC04FF055
:103480005C0CA3F800C100BF4DF20A5CA3F8FEC0BB
:10349000A3F8006100BF4DF20B5CA3F8FEC04FF033
:1034A000810CA3F800C100BF4DF20C5CA3F8FEC074
:1034B000A3F8006100BF4DF20D5CA3F8FEC04FF011
:1034C000A60CA3F800C100BF4DF20E5CA3F8FEC02D
:1034D000A3F8006100BF4DF20F5CA3F8FEC04FF0EF
:1034E000E50CA3F800C100BF4DF2105CA3F8FEC0CC
:1034F000A3F8007100BF4DF2115CA3F8FEC04FF0BD
:10350000130CA3F800C100BF4DF2125CA3F8FEC07B
:10351000A3F8007100BF4DF2135CA3F8FEC04FF09A
:10352000540CA3F800C100BF4DF2145CA3F8FEC018
:10353000A3F8007100BF4DF2155CA3F8FEC04FF078
:10354000820CA3F800C100BF4DF2165CA3F8FEC0C8
:10355000A3F8007100BF4DF2175CA3F8FEC04FF056
:10356000CA0CA3F800C100BF4DF2185CA3F8FEC05E
:10357000A3F8004100BF4DF2195CA3F8FEC0A3F808
:10358000006100BF4DF21A5CA3F8FEC0A3F8004131
:1035900000BF4DF21B5CA3F8FEC0A3F8007100BF92
:1035A0004DF21C5CA3F8FEC0A3F8004100BF4DF231
:1035B0001D5CA3F8FEC0A3F8001100BF4DF21E5C15
:1035C000A3F8FEC0A3F8004100BF4DF21F5CA3F8B2
:1035D000FEC04FF0670CA3F800C100BF4DF2205CA5
:1035E000A3F8FEC0A3F8004100BF4DF2215CA3F890
:1035F000FEC04FF0840CA3F800C100BF4DF2225C66
:10360000A3F8FEC0A3F8004100BF4DF2235CA3F86D
:10361000FEC04FF0A40CA3F800C100BF4DF2245C23
:10362000A3F8FEC0A3F8004100BF4DF2255CA3F84B
:10363000FEC04FF0B70CA3F800C100BF4DF2265CEE
:10364000A3F8FEC0A3F8004100BF4DF2275CA3F829
:10365000FEC04FF0CF0CA3F800C100BF4DF2285CB4
:10366000A3F8FEC0A3F8004100BF4DF2295CA3F807
:10367000FEC04FF0DE0CA3F800C100BF4DF22A5C83
:10368000A3F8FEC0A3F8004100BF4DF22B5CA3F8E5
:10369000FEC04FF0F20CA3F800C100BF4DF22C5C4D
:1036A000A3F8FEC0A3F8004100BF4DF22D5CA3F8C3
:1036B000FEC04FF0FE0CA3F800C100BF4DF22E5C1F
:1036C000A3F8FEC0A3F8008100BF4DF22F5CA3F861
:1036D000FEC0A3F8009100BF4DF2305CA3F8FEC01D
:1036E000A3F8008100BF4DF2315CA3F8FEC0A3F83F
:1036F000000100BF4DF2325CA3F8FEC0A3F80081C8
:1037000000BF4DF2335CA3F8FEC0A3F800A100BFD8
:103710004DF2006CA3F8FEC0A3F8006100BF4DF2AB
:10372000016CA3F8FEC0A3F8000100BF4DF2026CCB
:10373000A3F8FEC0A3F8006100BF4DF2036CA3F82C
:10374000FEC0A3F8001100BF4DF2046CA3F8FEC048
:10375000A3F8006100BF4DF2056CA3F8FEC0A3F80A
:1037600000B100BF4DF2066BA3F8FEB0A3F80061F4
:1037700000BF4DF2076BA3F8FEB0A3F800E100BF55
:103780004DF2086EA3F8FEE0A3F8006100BF4DF211
:10379000096E4FF05C0CA3F8FEE0A3F800C100BF77
:1037A0004DF20A6CA3F8FEC0A3F8006100BF4DF211
:1037B0000B6CA3F8FEC04FF0810CA3F800C100BF52
:1037C0004DF20C6CA3F8FEC0A3F8006100BF4DF2EF
:1037D0000D6CA3F8FEC04FF0A60CA3F800C100BF0B
:1037E0004DF20E6CA3F8FEC0A3F8006100BF4DF2CD
:1037F0000F6CA3F8FEC04FF0E50CA3F800C100BFAA
:103800004DF2106CA3F8FEC0A3F8007100BF4DF29A
:10381000116CA3F8FEC04FF0130CA3F800C100BF59
:103820004DF2126CA3F8FEC0A3F8007100BF4DF278
:10383000136CA3F8FEC04FF0540CA3F800C100BFF6
:103840004DF2146CA3F8FEC0A3F8007100BF4DF256
:10385000156CA3F8FEC04FF0820CA3F800C100BFA6
:103860004DF2166CA3F8FEC0A3F8007100BF4DF234
:10387000176CA3F8FEC04FF0CA0CA3F800C100BF3C
:103880004DF2186CA3F8FEC0A3F8004100BF4DF242
:10389000196CA3F8FEC0A3F8006100BF4DF21A6CCA
:1038A000A3F8FEC0A3F8004100BF4DF21B6CA3F8C3
:1038B000FEC0A3F8007100BF4DF21C6CA3F8FEC05F
:1038C000A3F8004100BF4DF21D6CA3F8FEC0A3F8A1
:1038D000001100BF4DF21E61A3F8FE10A3F80041D5
:1038E00000BF4DF21F614FF0670CA3F8FE10A3F864
:1038F00000C100BF4DF22061A3F8FE10A3F8004103
:1039000000BF4DF221614FF0840CA3F8FE10A3F824
:1039100000C100BF4DF22261A3F8FE10A3F80041E0
:1039200000BF4DF223614FF0A40CA3F8FE10A3F8E2
:1039300000C100BF4DF22461A3F8FE10A3F80041BE
:1039400000BF4DF225614FF0B70CA3F8FE10A3F8AD
:1039500000C100BF4DF22661A3F8FE10A3F800419C
:1039600000BF4DF227614FF0CF0CA3F8FE10A3F873
:1039700000C100BF4DF22861A3F8FE10A3F800417A
:1039800000BF4DF229614FF0DE0CA3F8FE10A3F842
:1039900000C100BF4DF22A61A3F8FE10A3F8004158
:1039A00000BF4DF22B614FF0F20CA3F8FE10A3F80C
:1039B00000C100BF4DF22C61A3F8FE10A3F8004136
:1039C00000BF4DF22D614FF0FE0CA3F8FE10A3F8DE
:1039D00000C100BF4DF22E61A3F8FE10A3F80081D4
:1039E00000BF4DF22F61A3F8FE10A3F8009100BFB5
:1039F0004DF23061A3F8FE10A3F8008100BF4DF234
:103A00003161A3F8FE10A3F8000100BF4DF232614E
:103A1000A3F8FE10A3F8008100BF4DF23361A3F8B4
:103A2000FE10A3F800A100BF4FF200014FF0550EA9
:103A3000A3F8FE10A3F800E100BF4FF201004FF021
:103A4000AA01A3F8FE00A3F8001100BF4FF2020B79
:103A50004FF05201A3F8FEB0A3F8001100BF4FF2DF
:103A600003014FF0080CA3F8FE10A3F800C100BF3B
:103A70004FF20401A3F8FE10A3F8006100BF4BF25F
:103A8000001BCC21A3F8FEB0A3F8001100BF4BF23D
:103A90000111A3F8FE10A3F8006100BF4BF2006013
:103AA0000521A3F8FE00A3F8001100BF4BF200713E
:103AB000A3F8FE107021A3F8001100BF4BF20170B3
:103AC000A3F8FE00A3F8001100BF4BF60001A3F815
:103AD000FE10A3F8007100BF4BF6010BA3F8FEB077
:103AE000A3F8008100BF4BF60201A3F8FE10A3F873
:103AF000008100BF4BF60301A3F8FE10A3F800817C
:103B000000BF4BF6004AA3F8FEA0A3F8004100BF97
:103B10004BF6014AA3F8FEA0A3F8006100BF4BF6E4
:103B2000024AA3F8FEA0A3F8006100BF4FF4494188
:103B3000A3F8FE10D021A3F8001100BF4CF601112C
:103B4000A3F8FE10A3F8004100BF4CF60211A3F841
:103B5000FE105021A3F8001100BF4CF60310A3F88B
:103B6000FE00A3F8001100BF4CF60410A3F8FE00FD
:103B7000A3F8001100BF4FF45451A3F8FE10A3F8AE
:103B8000006100BF4FF46852A3F8FE20A3F800E1E3
:103B900000BF4FF48852A3F8FE20782300BF00BF77
:103BA00000BF00BF00BF013B9BB2002BF6D100BF9E
:103BB0007E4B4FF42452A3F8FE207D4B5A6822F02E
:103BC0000F025A605A6822F470625A605A6842F0D2
:103BD00004025A605A6842F480625A6000BFD5E914
:103BE0000331724A4FF45850A2F8FE008B424FF056
:103BF0000000A2F8000184BF9BB2C5E90313EA8864
:103C000000BF6A4BA3F8FE2000BFEA880020A3F89B
:103C10000001013200BFA3F8FE2000BFEA88A3F82C
:103C20000001023200BFA3F8FE20EA68013A120A3E
:103C300000BFA3F80021EA88033200BFA3F8FE20EA
:103C4000EA68013AD2B200BFA3F800212A8900BF76
:103C5000A3F8FE2000BF2A89A3F80001013200BFAB
:103C6000A3F8FE2000BF2A89A3F80001023200BF9A
:103C7000A3F8FE202A69013A120A00BFA3F8002126
:103C80002A89033200BFA3F8FE202A69013AD2B282
:103C900000BFA3F80021FEF71FFB00F1804000F5F4
:103CA00001300122202101F0BFFDD5E90312414876
:103CB0002FF08CF8304615B0BDE8F08F3E482FF05D
:103CC000EDF83E46304615B0BDE8F08F3B482FF08A
:103CD000E5F800BF354BA3F8FE7000BF00BF00BF82
:103CE00000BF00BF00BF00BF00BF00BF00BF00BFDC
:103CF00000BF00BF00BF00BF00BF00BF00BF00BFCC
:103D000000BF00BF00BF00BF00BF00BF00BF00BFBB
:103D100000BF00BF00BF00BF00BF00BF00BF00BFAB
:103D200000BF00BF00BF00BF00BF00BF00BF00BF9B
:103D300000BF00BF00BF00BF00BF00BF00BF7823AF
:103D400000BF00BF00BF00BF00BF013B9BB2002B04
:103D5000F6D100BF154B1122A3F8FE20782300BF37
:103D600000BF00BF00BF00BF013B9BB2002BF6D1DC
:103D700000BF0E4A3A21A2F8FE105521A2F8001108
:103D800000BF3621A2F8FE10A2F8003100BF29239F
:103D9000A2F8FE30142300BF00BF00BF00BF00BF69
:103DA000013B9BB2002BF6D107E700BF00FF076085
:103DB000000100A0E44403088C440308AC44030859
:103DC00010B5029C002C6ED0002A6CD0002B6AD05B
:103DD000DFF8D4E0BEF8064000BFDFF8D0C0ACF892
:103DE000FE40040A00BFACF80041BEF806400134B2
:103DF00000BFACF8FE40C4B200BFACF80041BEF852
:103E00000640023400BFACF8FE408418013C241286
:103E100000BFACF80041BEF80640033400BF0138D3
:103E20001044ACF8FE40C0B200BFACF80001BEF8D0
:103E3000080000BFACF8FE00080A00BFACF80001A3
:103E4000BEF80800013000BFACF8FE00C8B200BFE9
:103E5000ACF80001BEF80800023000BFACF8FE006C
:103E6000C8180138001200BFACF80001BEF8080005
:103E7000033000BF01391944ACF8FE00C9B200BFDD
:103E8000ACF80011BEF80410ACF8FE1000BF0299A7
:103E900002FB03F3023901EB430331F8022FACF8C4
:103EA00000219942F9D110BD9C0A002000FF076053
:103EB00000487047000B0020002800F08B802DE99F
:103EC000F043DFF814818FB00746FDF719F998F831
:103ED000D03D002B75D198F8D13D002B69D198F8D1
:103EE000D23D002B5DD198F8D33D002B51D198F8ED
:103EF000D43D002B49D1FDF70DF940F6D8520021F1
:103F00003548364D364EFCF720FB364B00221A70F2
:103F1000FDF7F6F805F5396405F6953956F8043BD2
:103F2000314A009330213B4602A82EF0BFFF012208
:103F300002A928460FF018FF0123C8B923700134E5
:103F40004C4505F51475E9D1FDF7E4F8D8F8D03DF6
:103F5000FF2B4FF0010011D988F8D50D234A2148D5
:103F60003B4604212EF0A2FF00200FB0BDE8F083F5
:103F7000024602A91E482EF029FFE0E798F8D43D3A
:103F8000002BE9D10FB0BDE8F0831A4810F04CFBCC
:103F9000B1E7194810F048FB98F8D43D002BAAD09F
:103FA000F3E7164810F040FB98F8D33D002B9ED065
:103FB000EFE7134810F038FB98F8D23D002B92D071
:103FC000EFE708F5107010F02FFB98F8D13D002BAB
:103FD00085D0EEE701207047080B0020480D002037
:103FE000C0480308000B002020450308D43C030808
:103FF000284503088816002038140020E811002006
:10400000980F00200D4B93F8D00D93F8D12D003868
:1040100018BF01200AB140F0020093F8D22D0AB176
:1040200040F0040093F8D32D0AB140F0080093F853
:10403000D43D0BB140F01000704700BF080B0020CA
:10404000002839D0002937D0002A35D0F0B50E46E7
:1040500011894B1EBF2B85B0964617465BD8037857
:104060007F33DBB27D2B0A461FD890F801C0ACF13C
:104070004000C0B2BE2818D8BEF806000C38BCF10B
:104080007E0F80B28CBF4125402514280DD8DFF863
:1040900094E01EF80000FF2807D0234C04EB000E2C
:1040A0009EF8D0EDBEF1000F08D100213046FCF79C
:1040B0004CFA012005B0F0BD01207047ACEB0502C1
:1040C000D2B24FF0BE0C0CFB032201FB02F2CDE991
:1040D0000020FDF715F80198009A4FF4147303FBC4
:1040E000004000F5107100230846009110F0B6FA68
:1040F00098B93A89009803AB31460FF08DFF0090D4
:10410000FDF708F800983A8910B9039B9A42D1D07C
:10411000531EBF2BC9D9C022C7E7FCF7FBFF3A8962
:10412000F6E700BFA8480308080B00202DE9104857
:10413000002289B0CDE90522114B01921A6B11487A
:1041400042F002021A631B6B03F002034FF0010CF2
:104150000124019302A94FF0030BCDE902BC019B9E
:10416000049401F05DF922460648022101F05CFB4F
:1041700004482246214601F057FB09B0BDE81088EB
:1041800000380240000402400246044812B90221ED
:1041900001F04ABB0022012101F046BB00040240AD
:1041A00038B900F1804000F501300122022101F010
:1041B0003BBB01220148114601F036BB000402401E
:1041C00030B900F1804000F50130022101F030BB30
:1041D0000148012101F02CBB0004024000B585B06C
:1041E000642300938DF80F0001230DF10F0240218D
:1041F000024801F075FD05B000BD00BF480A00206F
:1042000070B52E4B2E485A6A42F4006288B05A624A
:104210005A6A002422F400625A6200945A6C42F4F2
:1042200000625A645A6C02F400620092009A01948F
:104230001A6B42F004021A631A6B02F00402019234
:10424000019A02941A6B42F008021A631B6B03F086
:104250000803029303234FF4F85106930C2302261C
:10426000039101250DEB0301029A0793CDE9046543
:1042700001F0D6F804231348039303A901F0D0F802
:10428000114A124B13601046C2E90144C2E90344CB
:10429000C2E9054602F0CCFE28B1002501200C4BF6
:1042A0001D6008B070BD08484FF4006102F0F2FED6
:1042B0000028F4D0044802F0D9FAEEE700380240B2
:1042C00000080240000C0240E8180020002C0140C9
:1042D000E018002008B5034802F0C8FA024B00229B
:1042E0001A6008BDE8180020E0180020014B18688B
:1042F000704700BFE018002030B5124B1B6883B038
:104300001BB90125284603B030BD4FF47A7413461B
:1043100000940A4601460C4802F0BCFA0546002803
:10432000F0D140F2E93401E000F01EFD064802F051
:104330005BFF04284FF00100E4D0013CF4D10325D9
:10434000E0E700BFE0180020E818002030B5124B6D
:104350001B6883B01BB90125284603B030BD4FF45C
:104360007A74134600940A4601460C4802F08EFB0C
:1043700005460028F0D140F2E93401E000F0F4FCF9
:10438000064802F031FF04284FF00100E4D0013C60
:10439000F4D10325E0E700BFE0180020E818002072
:1043A0000D4B1B680BB90120704700B58BB0CDE9F0
:1043B00000010A4802A902F059FE48B9DDE90023CC
:1043C0000AB1069911600BB1079A1A800BB000BDB3
:1043D00001200BB000BD00BFE0180020E81800204D
:1043E0002DE9F041002494B0CDE90C44CDE90E4410
:1043F000CDE91044984B0094129408949A6B42F0C3
:1044000001029A639A6B02F001020092009A0194F1
:104410001A6B42F020021A631A6B02F0200201921A
:10442000019A02941A6B42F004021A631A6B02F0AA
:1044300004020292029A03941A6B42F040021A6339
:104440001A6B02F040020392039A04941A6B42F032
:1044500010021A631A6B02F010020492049A059477
:104460001A6B42F008021A631B6B0321099103F0D7
:1044700008034FF63F000221CDE906010593774876
:10448000059A0C2306A90A9300F0CAFF0D2374486D
:10449000069306A900F0C4FF48F23713714806934B
:1044A00006A900F0BDFF4FF683736F48069306A977
:1044B00000F0B6FF4CF203736C48069306A900F0B7
:1044C000AFFF6B496B4A0A6008230126C1E902630A
:1044D0000D9306234FF40062CDE90E3302230A62E6
:1044E0000C930A46129310274023C2E904734FF439
:1044F000C0734C60CC6193614FF480544FF400530F
:104500004C62104693620CA902220223CDE91023CB
:1045100001F066FF002840F08D80054622460CA978
:1045200053480D970C960E960F9501F07BFF524A5B
:104530005249D2F8FC3043F08073C2F8FC300B686B
:1045400033430B604E4B4D601A684E4BA3FB023257
:104550000446920C4FF47A73486803FB02F24B68EE
:104560001B1A9A42FBD802234FF01008012700269D
:104570004FF480520CA93E480F96CDE90C380E97A7
:1045800001F050FF03234FF480520CA90546384830
:104590000F960C93CDE90D8701F044FF4FF40C7397
:1045A00006460F93324804234FF480520CA9CDE9FC
:1045B0000D870C9301F036FF00283BD12D1A18BF50
:1045C0004FF0FF35361A18BF4FF0FF36241A45EA70
:1045D000060518BF4FF0FF3425432BD140F2AB2125
:1045E000234801F041FF284BDFF8A0C00FCB0CACF3
:1045F00084E80F000CF10C0E2846DCF8003023F0A4
:10460000030303F1404606F58072334643F8040B7A
:104610009A42FBD10CAF3968334643F8041B9A42E7
:10462000FBD1334601E09A420AD01C68A14203F153
:104630000403F8D04FF0FF35284614B0BDE8F081F0
:10464000043710ABBB42E6D10CF1040CF445D4D1D5
:10465000284614B0BDE8F081003802400014024042
:10466000000802400018024000100240000C024006
:1046700070190020400100A000ED00E0001000E0F3
:104680004C01002083DE1B43E43A0308D4480308AE
:1046900010B588B0234B0024009404941A6C42F4A3
:1046A00080221A641A6C02F480220092009A01940B
:1046B0001A6B42F002021A631B6B4FF44060022136
:1046C000CDE9020103F0020300F1804001930322CF
:1046D000072300F5FC3002A9CDE90523DDF804C06D
:1046E00000F09EFE104811494FF4E1320C23C0E95E
:1046F0000012C0E90244C0E90443C0E9064401F0E5
:10470000A3F860B900220621272000F051FB2720E2
:1047100000F080FB064B01221A7008B010BDFCF7B8
:1047200051FEEFE700380240B02100200048004071
:10473000A419002070B5254B1B7882B006460C46A4
:10474000002B36D005F050FF002C3CDD2049DFF86F
:1047500084E0214D06F1FF3C002008E00A881CF8A7
:10476000016F0B8092B201308442AE5408D00B88A6
:10477000BEF800200133C3F30A0392B29A42EDD18E
:10478000164B1A787AB91249124A0988128889B2E6
:1047900092B2914207D0124A012112681970D3686F
:1047A00043F08003D360019005F03EFF019802B012
:1047B00070BD8AB24FF0FF333146094801F0D6F898
:1047C000204602B070BD0020DAE700BFA419002027
:1047D000A8190020A6190020AC190020A519002056
:1047E000B0210020164B1B681A68110616D5DFF899
:1047F00054C01549BCF80000098880B289B28842CB
:1048000010D0BCF80010114889B2415C5960BCF866
:1048100000100131C1F30A01ACF80010920648BF44
:104820005B687047D9680A4821F080014FF0000C9E
:10483000D960920680F800C048BF5B68704700BF2F
:10484000B0210020A6190020A8190020AC190020D2
:10485000A51900202DE9004888B01B4B1B480022F9
:104860000492596B41F0800159630092596C41F4F4
:1048700080415964596C01F4804100910099019282
:10488000196B41F0010119631B6B4FF4C05B4FF0D2
:10489000020C03F001030193CDE902BC0A234FF09F
:1048A000030C02A9CDE905C3DDF804E000F0B8FD72
:1048B00000220521432000F07BFA432000F0AAFAF1
:1048C00008B0BDE8008800BF003802400000024088
:1048D00010B5A2F120035E2B006982B017D843689F
:1048E0009888B3F806C08B7BA1F808C0002260F35B
:1048F0000F0223F01F0360F31F4243F00103002067
:10490000C1F80A004A608B73012002B010BD044652
:104910001046019100F052F90028F6D02368019961
:104920009888B3F806C0DEE72DE9F04FA1F1200624
:104930005E2ED0F810A087B02BD9084600F03EF9C3
:10494000074618B3BAF81C409AF814600134AAF864
:104950001C40002E00F08280DAF80C00354602463A
:10496000002304E00133B34202F104025ED030F8C8
:104970002310B942F6D1774954800A68BAF8084042
:10498000DAF81000013203FB04000A6007B0BDE84A
:10499000F08FDAF80430DAF818509C88D3F80090D9
:1049A0001F89DB88019303FB04F20732D208002140
:1049B0002846FBF7CAFD019B9BB394B3CDE9019355
:1049C000002106FB07FC04F1070B8E464FF001089F
:1049D0008027CDF80CA0019B002203EB0C0AC2F348
:1049E000CC0902F007001AF8099002EB0E0308FA4E
:1049F00000F0DE0819EA000F03F0070302F10102DC
:104A000027FA03F302D0A85D0343AB559442E6D1E5
:104A1000029B01318B42A6440CEBDB0CDBD1DDF8B1
:104A20000CA0DAF8180007B0BDE8F08F0022944619
:104A3000114600F1020E0CE03EF82230E31A9BB260
:104A400001328B4228BFB4468B4228BF1946AA4286
:104A50007DD030F82230D6B2002BEDD13E4A3F490E
:104A600013680133136005A8DAF800207BBAADF8AB
:104A70001430FFF7E5FABAF808208046002860D124
:104A8000DAF80030DAF81050B3F804B0B3F8069052
:104A900002FB06550BFB09F207320146D2082846F5
:104AA0005C46FBF752FDB9F1000F38D0BBF1000FA7
:104AB00035D0CDE902A64046CE46424609F1070967
:104AC0004FF08008BA46254BCDF804B000F0070C33
:104AD000C0F3CC061E4428FA0CFC134696F800B02E
:104AE00003F007011CEA0B0F4FEAD30706EBD906C8
:104AF00003F1010328FA01F104D015F807B041EAE7
:104B00000B01E955A342E9D1DDF804B00130864537
:104B10005A445C44D7D15746039EDDF808A0DAF822
:104B20000C30DAF8100023F8267003EB8602BAF88E
:104B30000830BAF81C10518006FB030007B0BDE82E
:104B4000F08F06480021FBF700FD04481EE766468B
:104B500084E700BFA8410020A4410020F4210020E8
:104B60000C4B70B50FCB84B08DE80F006C4600265F
:104B700054F8045B2A7DE86800219200FBF7E5FC0D
:104B800004AB9C42AE83F3D1034A044B16601E6013
:104B900004B070BDF43A0308A8410020A4410020ED
:104BA00010B1044B1B68036011B1034B1B680B6011
:104BB000704700BFA8410020A4410020A0F180025E
:104BC0004FF67F739A4221D8A0F59C4345F2A51277
:104BD0009342844616D900B540F27931DFF834E0CB
:104BE000002208E05EF82300BCEB104F10D088BF15
:104BF0005A1C00D819468B1A8A4202EB5303F1D390
:104C0000002000BD044A32F81300704700207047AE
:104C100080B200BD0C7D0308F08A030810B582B095
:104C200004460092CB888A88B1F800C049880133D5
:104C300001325B1AA2EB0C0260469BB292B2FFF704
:104C4000BFF8204602B0BDE8104027F061B900BFB0
:104C500038B5134CE068C0EB0010C00005F010FE42
:104C6000C0B1E3680F4DC3EB031301469B00002264
:104C7000284627F065F80C4827F03AF80A480B4B0D
:104C80004361D4E90312C560BDE838400180428029
:104C900027F068B8BDE8384005482EF0FFB800BFDF
:104CA0009C0A0020FC410020AC4100201D4C000863
:104CB000C0450308704700BFDFF834D00D480E49E7
:104CC0000E4A002302E0D458C4500433C4188C4266
:104CD000F9D30B4A0B4C002301E013600432A242CB
:104CE000FBD3FFF7E7FFFBF77FFCFCF781FB704787
:104CF0000000032000000020B40100201038040848
:104D0000B401002074510020FEE70000704700BF8E
:104D100008B50B4B1A6842F400721A601A6842F424
:104D200080621A601A6842F480721A60032000F0F0
:104D30002DF80F20FCF7D4FCFFF7E8FF002008BD9A
:104D4000003C0240034A044B11681B780B4413607B
:104D5000704700BF1842002050010020014B186826
:104D6000704700BF1842002038B50446FFF7F6FF31
:104D7000631C054602D0044B1B781C44FFF7EEFF72
:104D8000401BA042FAD338BD500100200749CA6831
:104D900003024FF6FF0003F4E0630240134343F0C5
:104DA000BF6343F40033CB60704700BF00ED00E009
:104DB000164BDB68C3F30223A3F1030CBCF1040F11
:104DC00000B519D84FF0FF3EC3F107030EFA03F305
:104DD0000EFA0CFE22EA0E02DB43194001FA0CF136
:104DE000114300284FEA01110ADB00F1604000F591
:104DF000614080F8001300BD00220F239446ECE7C9
:104E0000034B00F00F00C318197600BD00ED00E061
:104E1000FCEC00E0002807DB044A4109012300F014
:104E20001F00834042F82130704700BF00E100E0DE
:104E3000002800F06B8170B50368DD0782B004467E
:104E400030D59F498A6802F00C02042A00F0F180F4
:104E50008A6802F00C02082A00F0E7806368B3F564
:104E6000803F00F0F080B3F5A02F00F07C819449E2
:104E70000A6822F480320A600A6822F480220A60FA
:104E8000002B40F0E580FFF769FF054605E0FFF7DE
:104E900065FF401B642800F20781894B1B689E0355
:104EA000F5D423689D0729D5854A916811F00C0F28
:104EB00000F09480916801F00C01082900F08A80CC
:104EC000E368002B00F011817E4B01221A60FFF78E
:104ED00045FF054605E0FFF741FF401B022800F2B1
:104EE000E380774B1B689E07F5D5754922690B68EF
:104EF00023F0F80343EAC2030B6023681A0754D473
:104F00005D0731D56E4A136C13F0805300F0818039
:104F100000266D4B1B68D80540F1B480A368012BB7
:104F200000F0C580052B00F02E8165490A6F22F044
:104F300001020A670A6F22F004020A67002B40F0A0
:104F4000BB80FFF70BFF054607E0FFF707FF41F2C5
:104F50008833401B984200F2A780594B1B6F9B0778
:104F6000F3D4002E40F00981A369DBB1544A926862
:104F700002F00C02082A00F0CB80022B514B4FF0BC
:104F800000021A6600F00981FFF7E8FE044605E01A
:104F9000FFF7E4FE001B022800F28680484B1B68E6
:104FA0009B01F5D4002002B070BD636903B3454B8B
:104FB0000122C3F8802EFFF7D1FE054604E0FFF77B
:104FC000CDFE401B02286FD83D4B5B6F9B07F6D58B
:104FD000236895E7526851023FF572AF384A12686C
:104FE000920743D5E268012A40D0012002B070BD8B
:104FF000344AC2F8803EFFF7B1FE054604E0FFF7F1
:10500000ADFE401B02284FD82D4B5B6F9E07F6D498
:10501000DEE70193136C43F080531364136C03F0C9
:1050200080530193019B012673E74A6851027FF583
:1050300015AF234A126892037FF534AF6268002AE5
:105040007FF430AFD1E71E4A136843F48033136016
:10505000FFF784FE054604E0FFF780FE401B64284E
:1050600022D8174B1B689B03F6D51AE71449206911
:105070000A6822F0F80242EAC0020A601A077FF5C5
:105080003FAF92E7104A136843F480731360FFF751
:1050900065FE05460C4B1B68D9053FF53FAFFFF792
:1050A0005DFE401B0228F5D9032002B070BD044A02
:1050B000136F43F001031367FFF750FE05460CE042
:1050C000003802400000474200700040FFF746FEF3
:1050D00041F28833401B9842E6D8484B1B6F9A0731
:1050E000F4D5002E3FF440AF47E0454A1360FFF788
:1050F00035FE054604E0FFF731FE401B0228D3D8F9
:105100003E4B1B689907F6D42368F7E601207047E9
:10511000012B3FF46AAF394BE2695B6803F480010D
:1051200091427FF462AF226A03F03F0191427FF423
:105130005CAF616A47F6C0721A40B2EB811F7FF420
:1051400054AFA26A520803F44031013AB1EB024F66
:105150007FF44BAFE26A03F07063B3EB026F14BFEE
:10516000012000201FE7254B1A6842F480221A60B4
:105170001A6842F480321A606AE7204A136C23F0FE
:1051800080531364F0E61D4B1A6F42F004021A6755
:105190001A6F42F001021A678EE7FFF7DFFD05463E
:1051A00005E0FFF7DBFD401B02283FF67DAF134B08
:1051B0001B689901F5D4D4E90731626A0B4343EACD
:1051C0008213D4E90A2052080D490C4C43EA0063CB
:1051D000013A0A4843EA0243012243600A66FFF7A4
:1051E000BDFD054605E0FFF7B9FD401B02283FF66F
:1051F0005BAF23689A01F6D5D4E600BF00380240C1
:1052000000004742164908B58B6803F00C03042BD5
:105210001BD0082B01D0134808BD4A684B68496869
:1052200013F4800302F03F0211D10E48C1F388113C
:10523000A1FB0001FAF7BCFF094B5B68C3F3014314
:1052400001335B00B0FBF3F008BD074808BD06481A
:10525000C1F388110023A1FB0001FAF7A9FFEBE7D6
:10526000003802400024F40040787D0158B1474ADC
:10527000136803F00F038B4207D21170136803F019
:105280000F038B4201D00120704703689A072DE974
:10529000F04114D55F0704D53D4CA26842F4E052BA
:1052A000A2601E0704D53A4CA26842F46042A26094
:1052B000374C8568A26822F0F0022A43A260DD071D
:1052C0008846074621D54268012A58D0931E012BF3
:1052D0002F4B1B6850D9990724D52D4CA36823F078
:1052E00003031343A360FFF739FD41F288350646F7
:1052F00004E0FFF733FD801BA84245D8A3687A6815
:1053000003F00C03B3EB820FF3D1204A136803F0D0
:105310000F03434509D982F80080126802F00F029A
:10532000424502D00120BDE8F0813B685A0706D50E
:105330001749F8688A6822F4E05202438A601B0722
:1053400007D5134A3969936823F4604343EAC103DC
:105350009360FFF757FF0E4A0E4C92680E49C2F356
:1053600003120346A25C0D48D34000680B60FCF7B3
:10537000B7F90020BDE8F0819801AED4D2E7044B24
:105380001B689C03A9D4CDE70320CCE7003C024076
:1053900000380240442E04084C0100205401002033
:1053A000044B05499B68054A0868C3F38223D35C14
:1053B000D8407047003802404C0100203C2E0408C1
:1053C000044B05499B68054A0868C3F34233D35C24
:1053D000D8407047003802404C0100203C2E0408A1
:1053E0000D4BDFF838C00F2202609A6802F003020A
:1053F00042609A6802F0F00282609A6802F4E05219
:10540000C2609B68DB0803F4E0530361DCF8003002
:1054100003F00F030B60704700380240003C02406D
:105420002DE9F04FB04A0B68904287B04FF0000270
:1054300000F0E380DFF8B4C24FF0010B8A4603E0CE
:105440000132102A00F0AF800BFA02F101EA0305E5
:105450009943F5D1DAF8044004F00306771E5100B1
:105460004FF0030E012F0EFA01FE63D9032E08D070
:10547000C76827EA0E08DAF808708F4047EA08077D
:10548000C76006FA01F1066826EA0E06314314F4F5
:10549000403F0160D4D0964E00210591716C41F4DB
:1054A00080417164716C01F480410591059922F08D
:1054B000030101F1804101F59C3102F003078E6880
:1054C000BF004FF00F0E0EFA07FE26EA0E06DFF8B9
:1054D00024E270456AD0DFF820E2704500F079815F
:1054E000DFF818E2704500F07A81DFF814E27045C9
:1054F00000F08181DFF80CE2704500F08281DFF876
:1055000008E2704500F07181DFF800E2704500F0BC
:105510007E81DFF8FCE1704500F07F81DFF8F4E187
:1055200070450CBF4FF0090E4FF00A0E0EFA07F748
:105530003E4340E0876827EA0E08DAF80C708F4097
:1055400047EA08078760476827EA0508C4F3001799
:10555000974047EA08074760C76827EA0E08DAF865
:1055600008708F4047EA0807022EC76089D14FEACA
:10557000D20900EB890902F00708D9F820700097DA
:10558000DAF810704FEA880807FA08F701970F2732
:1055900007FA08F8009F27EA0808019F47EA08076A
:1055A000C9F820706DE707B0BDE8F08F4FF0010E2D
:1055B0000EFA07F73E438E60DCF80810E60254BF8F
:1055C000A9432943CCF80810DCF80C10A70254BFFB
:1055D000A9432943CCF80C10DCF80410A60354BFEF
:1055E000A9432943CCF80410DCF80010E40354BFAD
:1055F000A9432943CCF8001022E7DFF8F4B03B4D73
:105600004FF0010902E00132102ACCD009FA02F46D
:1056100003EA04079C43F6D14E6806F0030808F13C
:10562000FF3C54004FF0030EBCF1010F0EFA04FAD8
:1056300072D9B8F1030F0BD0D0F80CE0D1F808C044
:105640002EEA0A0E0CFA04FC4CEA0E0CC0F80CC050
:10565000D0F800C008FA04F42CEA0A0C44EA0C045E
:1056600016F4403F0460CED000240594DBF844409B
:1056700044F48044CBF84440DBF8444004F48044D4
:105680000594059C22F0030404F1804404F59C3445
:1056900002F0030C4FF00F0E4FEA8C0C0EFA0CFCCC
:1056A000D4F808E02EEA0C0CC4F808C016F4801FE9
:1056B000AC6840F08C8024EA0704AC6016F4001F4C
:1056C000EC6840F0828024EA0704EC6016F4003FA6
:1056D0006C6878D124EA07046C60F6032C6870D4F7
:1056E00024EA07042C608EE700000240003C0140E1
:1056F000003802400004024000080240000C024052
:10570000001002400014024000180240001C024039
:105710000020024000240240D0F808E0D1F80CC07C
:105720002EEA0A0E0CFA04FC4CEA0E0CC0F808C073
:10573000D0F804E0C6F3001C2EEA070E0CFA02FCB7
:105740004CEA0E0CC0F804C0D0F80CE0D1F808C048
:105750002EEA0A0E0CFA04FC4CEA0E0CB8F1020F09
:10576000C0F80CC07FF474AF4FEAD20C4FEA8C0C37
:105770000CF1804C02F0070E0CF5003C4FEA8E0E47
:10578000CDE900ECDCF820E0CDF808E0D1F810C05D
:10579000DDF800E00CFA0EFCCDF80CC0DDF800C01E
:1057A0004FF00F0E0EFA0CFEDDF808C02CEA0E0EBC
:1057B000DDF80CC04CEA0E0EDDF804C0CCF820E099
:1057C00046E73C438EE73C4386E73C437DE73C436A
:1057D00073E74FF0020E0EFA07F73E43EBE64FF089
:1057E000030E0EFA07F73E43E5E64FF0060E0EFAFB
:1057F00007F73E43DFE64FF0040E0EFA07F73E438D
:10580000D9E64FF0050E0EFA07F73E43D3E64FF008
:10581000070E0EFA07F73E43CDE64FF0080E0EFADC
:1058200007F73E43C7E600BF02B90904816170472C
:10583000436901EA030221EA030141EA024181616D
:10584000704700BF704700BF002800F0868038B561
:1058500090F83D30044603F0FF02002B78D0236817
:10586000E068242284F83D20DA6822F40052DA60ED
:105870001969A26821F4405101432069196102436A
:105880006069D9680243E06921F4164121F00C01F6
:1058900002430A43DA605A69A069314922F440722E
:1058A00002438B425A6135D02E4A934232D0FFF7E1
:1058B00077FDE2691921B2F5004FD4E90053A0FB4E
:1058C00001012AD09A009B0FFAF772FC264AA2FB2C
:1058D00000C35B09642101FB130000013230A2FB0D
:1058E00000201B0103EB5013AB602B6923F49043A2
:1058F0002B616B6923F02A036B61EB680021202286
:1059000043F40053EB60216484F83D2084F83E208A
:10591000084638BDFFF754FDCBE7DA184FF0000317
:105920005B41FAF745FC104AA2FB00C14909642318
:1059300003FB1103DB003233A2FB0323C3F3421248
:105940001B0902EB011203F4F8731344AB60CCE7BC
:1059500080F83C20FFF776FF81E70120704700BF09
:1059600000100140001401401F85EB512DE9F0416A
:10597000044690F83D00202840F085800D4600291F
:1059800051D01746002A4ED094F83C20012A7AD0F4
:105990001E460123212284F83C300023236484F82E
:1059A0003D20FFF7DBF9A268A784B2F5805F80464F
:1059B000E7846BD00027E28C002392B284F83C305D
:1059C0002368002A68D0711C42D07EB31A68100682
:1059D0002FD4FFF7C3F9A0EB080086422368F5D265
:1059E00003F10C0252E8002F22F4D07203F10C00F4
:1059F00040E800210029F3D103F1140252E8002FFE
:105A000022F0010203F1140040E800210029F3D143
:105A1000202384F83D3084F83E30002384F83C3065
:105A20000320BDE8F0810120BDE8F0811A6811066D
:105A3000D6D5A5B12A785A60E28C013AE284E28C8C
:105A400092B2013542B3721CBFD11A681006F1D46C
:105A50001A681206EDD41A681206F9D5E9E73A88F1
:105A6000C2F308025A60E28C013AE284E28C92B2FC
:105A700002378AB1711CA8D11A681206EFD41A68CD
:105A80001206E8D5D5E70220BDE8F0812269002A98
:105A900090D12F4615468EE7751C23D05EB31B6848
:105AA000590622D4FFF75AF9A0EB08029642236860
:105AB000F5D203F10C0252E8002F22F4D07203F168
:105AC0000C0040E800210029F3D103F1140252E850
:105AD000002F22F0010203F1140040E80021002908
