:020000040800F2
:100000000000032075680008292700082D27000834
:1000100031270008352700083927000800000000B4
:1000200000000000000000000000000061CB00089C
:100030003D27000800000000B1CB0008F5CC000807
:10004000C5680008C5680008C5680008C5680008DC
:10005000C5680008C5680008C5680008C5680008CC
:10006000C5680008C5680008C5680008C5680008BC
:10007000C5680008C5680008C5680008C5680008AC
:10008000C5680008C5680008C5680008C56800089C
:10009000C5680008C5680008C5680008552700083D
:1000A000C5680008C5680008C5680008C56800087C
:1000B000C5680008C5680008C5680008C56800086C
:1000C000C5680008C5680008C5680008C56800085C
:1000D000C5680008C5680008C568000849630008CD
:1000E000C5680008C5680008C5680008C56800083C
:1000F000C5680008C5680008C5680008C56800082C
:10010000C5680008C5680008C5680008C56800081B
:10011000C5680008C5680008C568000841270008D0
:10012000C5680008C5680008C5680008C5680008FB
:10013000C5680008C5680008C5680008C5680008EB
:10014000C5680008C5680008C56800084D27000894
:10015000C5680008C5680008C5680008C5680008CB
:10016000C5680008C5680008C5680008C5680008BB
:10017000C5680008C5680008C5680008C5680008AB
:10018000C5680008C5680008C5680008C56800089B
:10019000C5680008C5680008C5680008C56800088B
:0C01A000C5680008C5680008C5680008B4
:1001B00080F0004002E000BF81F0004142001FBF1C
:1001C0005FEA410392EA030F7FEA226C7FEA236C25
:1001D0006AD04FEA1262D2EB1363C1BFD21841401A
:1001E00048404140B8BF5B42192B88BF704710F0B0
:1001F000004F40F4000020F07F4018BF404211F053
:10020000004F41F4000121F07F4118BF494292EABA
:10021000030F3FD0A2F1010241FA03FC10EB0C00E6
:10022000C3F1200301FA03F100F0004302D5494273
:1002300060EB4000B0F5000F13D3B0F1807F06D320
:1002400040084FEA310102F10102FE2A51D2B1F118
:10025000004F40EBC25008BF20F0010040EA03000D
:100260007047490040EB0000013A28BFB0F5000F8D
:10027000EDD2B0FA80FCACF1080CB2EB0C0200FA43
:100280000CF0AABF00EBC25052421843BCBFD04092
:100290001843704792F0000F81F4000106BF80F40C
:1002A00000000132013BB5E74FEA41037FEA226CCF
:1002B00018BF7FEA236C21D092EA030F04D092F09A
:1002C000000F08BF0846704790EA010F1CBF0020CE
:1002D000704712F07F4F04D1400028BF40F000402B
:1002E000704712F100723CBF00F50000704700F04B
:1002F000004343F0FE4040F4000070477FEA226272
:1003000016BF08467FEA23630146420206BF5FEA42
:10031000412390EA010F40F4800070474FF0000342
:1003200004E000BF10F0004348BF40425FEA000C09
:1003300008BF704743F0964301464FF000001CE0B1
:1003400050EA010208BF70474FF000030AE000BF07
:1003500050EA010208BF704711F0004302D5404245
:1003600061EB41015FEA010C02BF844601460020B7
:1003700043F0B64308BFA3F18053A3F50003BCFAD2
:100380008CF2083AA3EBC25310DB01FA02FC63447F
:1003900000FA02FCC2F12002BCF1004F20FA02F286
:1003A00043EB020008BF20F00100704702F1200279
:1003B00001FA02FCC2F1200250EA4C0021FA02F2DA
:1003C00043EB020008BF20EADC7070474FF0FF0CDF
:1003D0001CEAD0521EBF1CEAD15392EA0C0F93EADA
:1003E0000C0F6FD01A4480EA010C400218BF5FEA7C
:1003F00041211ED04FF0006343EA501043EA5111EF
:10040000A0FB01310CF00040B1F5000F3EBF4900E8
:1004100041EAD3715B0040EA010062F17F02FD2AEC
:100420001DD8B3F1004F40EBC25008BF20F00100CF
:10043000704790F0000F0CF0004C08BF49024CEAE6
:10044000502040EA51207F3AC2BFD2F1FF0340EA78
:10045000C250704740F400004FF00003013A5DDCE9
:1004600012F1190FDCBF00F000407047C2F100022A
:10047000410021FA02F1C2F1200200FA02FC5FEA17
:10048000310040F1000053EA4C0308BF20EADC7061
:10049000704792F0000F00F0004C02BF400010F4D3
:1004A000000F013AF9D040EA0C0093F0000F01F080
:1004B000004C02BF490011F4000F013BF9D041EAA2
:1004C0000C018FE70CEAD15392EA0C0F18BF93EAA4
:1004D0000C0F0AD030F0004C18BF31F0004CD8D1CE
:1004E00080EA010000F00040704790F0000F17BF55
:1004F00090F0004F084691F0000F91F0004F14D09B
:1005000092EA0C0F01D142020FD193EA0C0F03D1F2
:100510004B0218BF084608D180EA010000F00040F5
:1005200040F0FE4040F40000704740F0FE4040F4D0
:10053000400070474FF0FF0C1CEAD0521EBF1CEA6F
:10054000D15392EA0C0F93EA0C0F69D0A2EB03028D
:1005500080EA010C49024FEA402037D04FF0805327
:1005600043EA111143EA10130CF000408B4238BFEC
:100570005B0042F17D024FF4000C8B4224BF5B1AFA
:1005800040EA0C00B3EB510F24BFA3EB510340EA48
:100590005C00B3EB910F24BFA3EB910340EA9C00F6
:1005A000B3EBD10F24BFA3EBD10340EADC001B0166
:1005B00018BF5FEA1C1CE0D1FD2A3FF650AF8B420A
:1005C00040EBC25008BF20F0010070470CF0004C17
:1005D0004CEA50207F32C2BFD2F1FF0340EAC25042
:1005E000704740F400004FF00003013A37E792F003
:1005F000000F00F0004C02BF400010F4000F013A61
:10060000F9D040EA0C0093F0000F01F0004C02BF5B
:10061000490011F4000F013BF9D041EA0C0195E7C4
:100620000CEAD15392EA0C0F08D142027FF47DAF5D
:1006300093EA0C0F7FF470AF084676E793EA0C0F4D
:1006400004D14B023FF44CAF08466EE730F0004C4B
:1006500018BF31F0004CCAD130F000427FF45CAFDB
:1006600031F000437FF43CAF5FE700BF4FF0FF3C49
:1006700006E000BF4FF0010C02E000BF4FF0010C9C
:100680004DF804CD4FEA40024FEA41037FEA226C65
:1006900018BF7FEA236C11D001B052EA530C18BF87
:1006A00090EA010F58BFB2EB030088BFC81738BFEC
:1006B0006FEAE17018BF40F0010070477FEA226CDA
:1006C00002D15FEA402C05D17FEA236CE4D15FEAD6
:1006D000412CE1D05DF8040B704700BF844608460A
:1006E0006146FFE70FB5FFF7C9FF002848BF10F1CB
:1006F000000F0FBD4DF808EDFFF7F4FF0CBF012010
:1007000000205DF808FB00BF4DF808EDFFF7EAFF99
:1007100034BF012000205DF808FB00BF4DF808ED54
:10072000FFF7E0FF94BF012000205DF808FB00BF49
:100730004DF808EDFFF7D2FF94BF012000205DF8CF
:1007400008FB00BF4DF808EDFFF7C8FF34BF0120DC
:1007500000205DF808FB00BF4FEA4002B2F1FE4FF7
:100760000FD34FF09E03B3EB12620DD94FEA002373
:1007700043F0004310F0004F23FA02F018BF40424C
:1007800070474FF00000704712F1610F01D1420233
:1007900005D110F0004008BF6FF0004070474FF0E7
:1007A0000000704753B94AB9002908BF00281CBF90
:1007B0004FF0FF314FF0FF3000F00CB8ADF1080CF6
:1007C0006DE904CE36F07EFDDDF804E0DDE90223BC
:1007D00004B07047704700BF10F8012B11F8013BBF
:1007E000012A28BF9A42F7D0D01A7047034613F85F
:1007F000012B002AFBD1181A0138704700000000B5
:1008000001F0FF01102A2BDB10F0070F08D010F8C1
:10081000013B013A8B422DD010F0070F42B3F6D1C5
:10082000F0B441EA012141EA014122F007047FF0DE
:1008300000070023F0E80256083C85EA010586EA35
:10084000010685FA47F5A3FA87F586FA47F6A5FA71
:1008500087F68EB9EED1F0BC01F0FF0102F007027D
:1008600032B110F8013B013A83EA010313B1F8D128
:100870000020704701387047002D06BF3546033809
:10088000073815F0010F07D1013015F4807F02BF42
:10089000013015F4C03F0130F0BC0138704700BF93
:1008A0000348044B834202D0034B03B118477047FF
:1008B000C0010020C0010020000000000548064BD8
:1008C0001B1AD90F01EBA301491002D0034B03B14E
:1008D00018477047C0010020C00100200000000040
:1008E00010B5064C237843B9FFF7DAFF044B13B178
:1008F0000448AFF300800123237010BDC001002025
:1009000000000000307D030808B5054B1BB1054908
:100910000548AFF30080BDE80840FFF7CFBF00BF38
:1009200000000000C4010020307D0308024403469B
:10093000934200D1704703F8011BF9E770B50D4BE6
:100940000D4C00261D1BB6EBA50F09D137F0F0F9B1
:100950000A4C0B4B00261D1BB6EBA50F05D170BD35
:1009600054F8043B98470136EDE754F8043B9847A8
:100970000136F1E780760408807604088076040862
:10098000847604087047704737B5002944D051F881
:10099000043C0190002BA1F10404B8BFE41800F05E
:1009A000DDF81E4A0198136833B96360146003B020
:1009B000BDE8304000F0D8B8A34208D925686119D5
:1009C0008B4201BF19685B6849192160EDE71A463F
:1009D0005B680BB1A342FAD911685518A5420BD137
:1009E000246821445418A3421160E0D11C685B685C
:1009F00053600C441460DAE702D90C230360D6E795
:100A0000256861198B4204BF19685B68636004BF85
:100A1000491921605460CAE703B030BD20030020AB
:100A200070B50F4C0E462168054611B900F0A2F8CA
:100A300020603146284600F09DF8431C03D14FF05A
:100A4000FF34204670BDC41C24F00304A042F8D03B
:100A5000211A284600F08EF80130F2D1EFE700BFEE
:100A60001C0300202DE9F843CD1C25F003050835B3
:100A70000C2D38BF0C25002D064601DBA94204D9F8
:100A80000C2333600020BDE8F883334F00F066F894
:100A90003B681C463CBB29463046FFF7C1FF431C60
:100AA000044656D13C68A046B8F1000F40D1002C56
:100AB00049D023684146304604EB030900F05AF858
:100AC000814540D121686D1A29463046FFF7A8FFBD
:100AD000013038D023682B4423603B685A685ABBE6
:100AE000C7F800800EE02268521B1ED40B2A16D9CC
:100AF0006119A342256018BF5960636808BF396057
:100B000062514B60304600F02FF804F10B00231DBA
:100B100020F00700C21A1CBF1B1AA350B3E762687B
:100B2000A3420CBF3A605A60ECE723466468B1E721
:100B30004446D8F80480B7E71A465B68A342FBD165
:100B400000235360DEE70C233360304600F00CF8DE
:100B500098E70560D6E700BF200300200148FFF7B3
:100B600011BF00BF180300200148FFF70CBF00BFF2
:100B70001803002038B5064C0023054608462360BC
:100B800001F0EEFD431C02D1236803B12B6038BD98
:100B90001403002010B500202FF0FCFC194C20801D
:100BA00000202FF009FDB4F90020174B002ADCBF0C
:100BB00001222280002818801DDDA0F16A031BB2EB
:100BC0001E2BB8BF1E23114A143B1BB2A2FB0323EA
:100BD0005B0803F10A0238380D4C0E4923804FF0B0
:100BE0002A0C0D4CA1F800C00CEB420362444A8071
:100BF0008B80208010BD01221A806FF036000D22FC
:100C00000323E9E7300300202E030020ABAAAAAAA1
:100C100026030020280300202403002070B582B0A2
:100C2000154601930E4636F075F91C49002204461C
:100C30001FF0C4FD1A496A0901EA152102F4FC6299
:100C40001143C5F3C4052943204600221FF0A2FD2D
:100C50000022114620461FF05DFD0022114620466D
:100C60001FF038FD0022114620461FF039FD0022FA
:100C7000114620461FF022FD0022114620461FF09B
:100C800023FD0199204636F053F9204632460821CB
:100C90001AF016FC204602B070BD00BF68BB030806
:100CA00000F8FFFF70B50D46164636F033F91F49C0
:100CB000044600221FF082FD204600224DF2BB6157
:100CC0001FF068FD0022114620461FF023FD002280
:100CD000114620461FF0FEFC0022114620461FF060
:100CE000FFFC0022114620461FF0E8FC00221146BE
:100CF00020461FF0E9FC3146204636F019F92A4615
:100D0000204600211AF0DCFB094B2046B3F9001005
:100D10001AF02EFC2046002202211FF055FD20462D
:100D20002A4600211AF0CCFB204670BD4CBB0308BC
:100D30003003002070B582B00E460193154619F0BD
:100D4000BDFD244A002104461EF046FE224A1188B9
:100D500018392A46204609B21AF0DEFB32462046F0
:100D60000C211AF0ADFB2046002241F2A3011FF036
:100D7000BDFC20460022FF211FF0CCFC20460022B3
:100D800048F252411FF0CCFC2046002201211FF006
:100D9000DBFC0022114620461FF09CFC002211467D
:100DA00020461FF09DFC0022114620461FF086FCC5
:100DB0000022114620461FF087FC2046102119F022
:100DC000D7FD019B054A06212046FFF727FF204655
:100DD00002B070BDFFFF0F0030030020DCD6D20050
:100DE00070B50D46164635F0E5F9374A0446002140
:100DF0001EF0F2FD20462C2248211AF08DFB2946D8
:100E0000204602221AF05CFB2046002241F6051122
:100E10001FF06CFC20460022FF211FF07BFC2046C7
:100E2000002248F252411FF07BFC204600220121A3
:100E30001FF08AFC2046002204211FF0CBFC002278
:100E4000114620461FF046FC0022114620461FF0A6
:100E500047FC0022114620461FF030FC00221146BC
:100E600020461FF031FC1021204619F081FD20465C
:100E700036F00EFA144A002105461EF0ADFD14228C
:100E8000114628461AF048FB28460C221A211AF06F
:100E900017FB2846002203211FF05CFC2846002295
:100EA0004DF2BB611FF062FC2846002201211FF0B9
:100EB00057FC03223146284636F0F8F9284602212D
:100EC00019F056FD204670BDFFFF0F002DE9F041DF
:100ED000074692B088461046002116461C46FFF78A
:100EE00013FC00287DD13046FFF736FC0546FFF79E
:100EF00019FA01463046FFF75FF96649FFF766FACF
:100F00004FF07C51FFF75AF9FFF726FC632865DCA8
:100F1000614B624ACDE9005006AD1021284636F0FB
:100F200059FB00212046FFF7EFFB002840F08D80A1
:100F30002046FFF711FC0646FFF7F4F9014620466C
:100F4000FFF73AF95349FFF741FA4FF07C51FFF7A9
:100F500035F9FFF701FC63283DDC4F4B4F4A0AACE3
:100F6000CDE900601021204636F034FB18980021AE
:100F7000FFF7CAFB00284DD11898FFF7EDFB064696
:100F8000FFF7D0F901461898FFF716F94149FFF726
:100F90001DFA4FF07C51FFF711F9FFF7DDFB6328D5
:100FA00016DC3D4B3D4ACDE900600EAE10213046C7
:100FB00036F010FB199B3A4ACDE90263CDE90054A3
:100FC00043465021384636F005FB12B0BDE8F081AB
:100FD00064380136E5E764380136BEE76438013528
:100FE00096E706F100463046FFF7B6FB0546FFF7E9
:100FF00099F901463046FFF7DFF82649FFF7E6F991
:101000004FF07C51FFF7DAF8FFF7A6FB632835DCD9
:10101000244B7EE7189B03F1004318460593FFF726
:101020009BFB0646FFF77EF901460598FFF7C4F8DB
:101030001849FFF7CBF94FF07C51FFF7BFF8FFF7E6
:101040008BFB63281EDC174BACE704F10044204601
:10105000FFF782FB0646FFF765F901462046FFF7DA
:10106000ABF80C49FFF7B2F94FF07C51FFF7A6F847
:10107000FFF772FB632809DC0A4B6FE7094B643802
:10108000013546E7074B643801368BE7054B64387A
:10109000013663E70000C842BC820308A47D030850
:1010A000B07D0308047E030810B53F4CA6B004A829
:1010B00001F052F8606AA0B19DF81030002B62D0A8
:1010C000BDF81220394935F0C3FF3949BDF8142065
:1010D000A06A35F0BDFF3749BDF81620E06A35F04B
:1010E000B7FF206B002831D09DF81830002B3ED080
:1010F000099A3149089B019100923049079A12A838
:10110000FFF7E4FE206B12A935F012FF0C9A2C4B6E
:101110002C49019300920B9B0A9A12A8FFF7D6FE66
:10112000606B12A935F004FF9DF81930002B36D002
:101130000F9A25490191009224490E9B0D9A12A8FD
:10114000FFF7C4FEA06B12A935F0F2FEE46B64B1A8
:10115000109A119B0392029305F09EF8DDE902328A
:1011600000901B49204635F073FF26B010BD194989
:1011700035F0DEFE606B184935F0DAFE1749A06BDA
:1011800035F0D6FEE2E7164935F0D2FEA06A1549E1
:1011900035F0CEFE1449E06A35F0CAFEA1E71349E6
:1011A000A06B35F0C5FED1E748030020C87D0308D9
:1011B000D87D0308EC7D0308307E0308247E0308F5
:1011C000407E0308347E03084C7E0308447E0308F7
:1011D000987E03086C7E03087C7E03088C7E0308DF
:1011E000F87D0308087E0308187E0308507E030874
:1011F0002DE9F0478AB02FF0C7F916F067F90446D9
:10120000FFF7C8FC2046102119F0B2FB002211465E
:1012100020461FF06BFA20460022FF211FF07AFAC9
:101220000022114620461FF055FA002211462046A2
:101230001FF056FA0022114620461FF03FFA002206
:10124000114620461FF040FA2FF09EF916F03EF9A5
:1012500019F034FBAE4EAF4AAF4F044600211EF0EA
:10126000BBFBB6F90010222220461AF055F90022E5
:10127000114620461AF024F9002241F2A30120462B
:101280001FF034FA0022FF2120461FF043FAA34A40
:1012900005212046FFF706FD3B68012B00F0768113
:1012A0002FF072F916F012F9DFF87492DFF87482F9
:1012B0009D4BB9F90020B8F900108246FFF73AFDBE
:1012C000044602F007F9002800F0B8810388974A25
:1012D000974D202102A836F07DF9964A02AB2021D5
:1012E0002046FFF79BFC944B924A38212046FFF79B
:1012F00095FC924B8F4A286050212046FFF78EFCC8
:101300008F4B904A20466821FFF788FC8E4BB9F935
:101310000020B8F902105046FFF70CFD8B4B854AB0
:1013200020210446FFF77AFC894B824A6860382105
:101330002046FFF773FC874B7E4AA8605021204669
:10134000FFF76CFCE860019005F03AFD824B8349A1
:101350000246A3FB02320198920C35F079FE804BD5
:10136000744A68212046FFF759FC7E4B754A286174
:1013700080212046FFF752FCB9F90020B8F904108B
:10138000794B68615046FFF7D5FC784B694A2021BC
:101390000446FFF743FC6F4B664AA861382120469C
:1013A000FFF73CFC6B4BE861624A20465021FFF797
:1013B00035FC28622FF0E8F816F088F8368819F026
:1013C0007DFA544A002104461EF006FBA6F11801DE
:1013D000204609B230221AF09FF8654B2046B3F937
:1013E00000200C211AF06CF82046002241F2A301E3
:1013F0001FF07CF920460022FF211FF08BF92046C8
:10140000002248F252411FF08BF9204600220121B0
:101410001FF09AF90022114620461FF05BF90022C6
:10142000114620461FF05CF90022114620461FF0AD
:1014300045F90022114620461FF046F920461021AA
:1014400019F096FA4B4A06212046FFF7C9FC4FF0E7
:10145000FF334949072216F0A7F9A6F16601474A6A
:1014600009B22046FFF7BCFC01234349072216F0CE
:101470009BF9204635F04EFD4149044600221FF0FD
:101480009DF92046002248F252411FF083F90022C4
:10149000114620461FF03EF90022114620461FF05B
:1014A00019F90022114620461FF01AF900221146B0
:1014B00020461FF003F90022114620461FF004F9D0
:1014C0002046244935F034FD0E222046002119F033
:1014D000F7FFA6F1C001204609B22C641AF048F8C3
:1014E000286C0E22542119F0EBFF286C00220221F7
:1014F0001FF06AF93A682349286C0223013235F05B
:10150000A7FD214B01221A700AB0BDE8F08700BF89
:1015100030030020FFFF0F0034030020CC7E0308BF
:1015200026030020280300205C7F03086C7F03084B
:1015300048030020DCD6D200887F0308947F03088C
:10154000B07F030890888000C87F0308D87F030815
:10155000E87F0308BC82030883DE1B43F47F030893
:1015600004800308188003083480030844800308BB
:101570002403002054860308991B000848860308AA
:1015800068BB030854800308390300202EF0FCFFD9
:1015900015F09CFFDFF8A8802A4CB8F90020B4F9B8
:1015A0000010294B294D8146FFF7C4FB284B294ADF
:1015B00020218246FFF732FB274B6862254A3821FB
:1015C0005046FFF72BFB254BA862224A504650217C
:1015D000FFF724FBB8F90020B4F90210E862204BB1
:1015E0004846FFF7A7FB1F4B1A4A20218246FFF708
:1015F00015FB1D4B2863174A38215046FFF70EFB99
:101600001A4B6863134A50465021FFF707FBB8F99D
:101610000020B4F90410A863154B4846FFF78AFB75
:10162000144B154A20210446FFF7F8FA134BE863E0
:10163000114A20463821FFF7F1FABBE6034646E699
:101640002603002028030020E47E0308480300202E
:10165000F87D0308DCD6D200087E0308187E030854
:10166000007F03086C7E03087C7E03088C7E0308E1
:101670001C7F03082C7F030890888000387F0308B4
:1016800030B585B005F048F93C4A1368C31AB3F584
:101690007A7F04D33A4910600B6801330B60394BF1
:1016A0001B68002B3ED1384C606858B1374B384925
:1016B0001B78052BDAB296BF364B374A53F82220F7
:1016C00035F0C6FC20690023CDE90233C8B12C4AAD
:1016D0001268A3F17733A3FB02C14909A3FB01C33D
:1016E0005B09C3EB0313A1EB8303C1EB0111A2EB75
:1016F000810100912949A1FB0212D20A284935F043
:10170000A7FC63694BB103A902A804F0FBFFDDE964
:1017100002232449606935F09BFC234B1A7832B9C7
:1017200005B030BD05B0BDE83040FFF7BDBC03F0EB
:101730005BFD054603F0B4FCA2681B4B72B1ADB172
:101740000178312910D030290CD005F01E011E2956
:1017500012D01649104635F0EBFB134B00221A70DD
:1017600005B030BD1249F5E71249F3E712491046BA
:1017700035F0DEFB0C4BF1E71049EBE73C030020B2
:10178000400300203403002048030020C80A002042
:10179000F0800308308603085C800308C5B3A2917B
:1017A000008103081881030838030020D88003084B
:1017B0008C8003086480030838810308B480030820
:1017C00070B54F4B1C7884B0002C77D04D4A4E4DED
:1017D0004E4C002313602B6005F09EF84C4B4D4A95
:1017E00018602368012111705BB100F08FFC26683E
:1017F000002859D000F090FC47490246304635F0A9
:1018000027FC03F0F1FC064603F04AFCA36873B121
:10181000002E6DD00278312A4BD0302A6DD006F0E0
:101820001E061E2E5AD03D49184635F081FB6068D1
:1018300058B13B4B3B491B78052BDAB296BF3A4B6C
:101840003A4A53F8222035F003FC20690023CDE901
:101850000233C0B12A68A3F17733A3FB02514909CF
:10186000A3FB01535B09C3EB0313A1EB8303C1EBA0
:101870000111A2EB810100912D49A1FB0212D20AB4
:101880002C4935F0E5FB63694BB103A902A804F0CC
:1018900039FFDDE902232849606935F0D9FB274C7F
:1018A0002268EAB104B070BD2549304635F040FBEE
:1018B000A7E72449184635F03BFBB8E7FFF76AF97C
:1018C0002EF062FE15F002FE1FF05EF84422214663
:1018D0000E48FFF72BF8FFF78BFC77E71A49E9E78B
:1018E0004FF4FA71194832F079F9206004B070BDF4
:1018F0001749184635F01CFB99E71649DAE700BF8F
:101900003903002034030020400300204803002056
:101910003C030020380300204C810308D8800308D2
:10192000C80A0020F0800308308603085C800308A2
:10193000C5B3A29100810308188103084403002065
:101940006881030864800308B480030881160008D6
:10195000388103088C80030870B506462EF014FE0B
:1019600015F0B4FD244C0546206818B132F05AF940
:10197000002323602EF008FE15F0A8FD1FF004F8E8
:10198000442200211D48FEF7D1FF1D4B00241C708E
:10199000FFF700F92846102118F0EAFF22462146F9
:1019A00028461EF0A3FE22462846FF211EF0B2FE66
:1019B0002246214628461EF08DFE22462146284614
:1019C0001EF08EFE2246214628461EF077FE224655
:1019D000214628461EF078FE0A4B2146A64214BF37
:1019E00032461A462846FFF75DF92346224609216A
:1019F000BDE8704019F026BE4403002048030020D3
:101A000039030020BC820308034B1B7813B1034B3E
:101A100001221A70704700BF3903002038030020EC
:101A200030B54B4D2B68181800F0010048BF4042FC
:101A3000421C08BF0120834285B071D0454C28600C
:101A40002EF0A2FD15F042FD1EF09EFF4422002163
:101A50002046FEF76BFF404B00221A70FFF7C8FBD1
:101A60002B68002B5ED1606858B13C4B3C491B7819
:101A7000052BDAB296BF3B4B3B4A53F8222035F098
:101A8000E7FA23685BB100F041FB256800284ED0DF
:101A900000F042FB35490246284635F0D9FA03F0FA
:101AA000A3FB054603F0FCFAA36873B1002D45D0F3
:101AB0000278312A40D0302A45D005F01E051E2D6F
:101AC00043D02B49184635F033FA20690023CDE97D
:101AD0000233C8B1274A1268A3F17733A3FB02513E
:101AE0004909A3FB01535B09C3EB0313A1EB830378
:101AF000C1EB0111A2EB810100911F49A1FB021270
:101B0000D20A1E4935F0A4FA63694BB103A902A8B1
:101B100004F0F8FDDDE902231949606935F098FA0F
:101B200005B030BD05B0BDE83040FFF7BDBA15497E
:101B3000284635F0FDF9B2E71349C3E713491846C3
:101B400035F0F6F9C1E71249BCE71249BAE700BF20
:101B5000340300204803002039030020C80A002075
:101B6000F0800308308603085C8003084C8103087A
:101B7000D880030840030020C5B3A2910081030868
:101B8000188103086881030864800308388103080A
:101B90008C800308B480030808B515F0EDFDBDE89E
:101BA0000840FFF73DBF00BF024B00221A70012022
:101BB000704700BF8C05002008B501200AF036F8F8
:101BC000034A0346003818BF0120136008BD00BF58
:101BD00090050020034B186818B14FF0FF310AF050
:101BE000F1BA704790050020044B186820B100231B
:101BF0001A46194609F048BE704700BF90050020FC
:101C000008B520B1012818BF012008D008BD012067
:101C10000DF026FF80F001004000C0B208BD03F0C7
:101C2000C5FEB0FA80F04009400008BD18B1012897
:101C300002D001207047704708B503F0B7FEB0FA34
:101C400080F04009400008BD70B50E4684B01446CF
:101C500010B3012802D0042004B070BD002BFAD0CC
:101C60008A0736D0C4EBC4521D1901EB422601226B
:101C700021461E4803F0A0FE03461C494FF40072A3
:101C800006EB4420002B2ED1013435F014FDAC427C
:101C9000EDD1002004B070BD154D02909BB20093B1
:101CA000144C13460A4601460120287001940DF099
:101CB0009FFF2B78002BECD0012009F087F92B78BF
:101CC000002BE6D0012009F081F92B78002BF3D10D
:101CD000DFE71A462146304603F06EFE003818BF93
:101CE000012004B070BD0120B6E700BF8C030020C6
:101CF0008C050020A91B000870B50E4684B0144660
:101D000008B3012802D0042004B070BD002BFAD023
:101D10008A0735D0C4EBC4521D1901EB42264FF49B
:101D2000007206EB44211C4835F0C5FC1A4801221C
:101D3000214603F06BFE00282CD10134AC42EED1D9
:101D4000002004B070BD154D02909BB20093144C5E
:101D500013460A4601460120287001940DF0E0FF69
:101D60002B78002BECD0012009F030F92B78002BD8
:101D7000E6D0012009F02AF92B78002BF3D1DFE718
:101D80001A462146304603F041FE003818BF0120B4
:101D900004B070BD0120B7E78C0300208C05002043
:101DA000A91B000810B584B028B9032906D8DFE8BC
:101DB00001F01E2A211C0128034602D0042004B091
:101DC00010BD0C4600204FF40071022C0390ADF8BA
:101DD0000A1021D85CB10DF10A0103A8CDE9003247
:101DE00003F03EFEE0B10098E9E701231360002014
:101DF00004B010BD0021012000920DF023FE009AD6
:101E000010800020F4E70021012000920DF00CFE6C
:101E1000009A10600020EBE7032CCFD11360E6E7B7
:101E2000012C019A0BBF039BBDF80A30136013808D
:101E3000DDE700BF70B5164E164D002407E0023AEC
:101E4000012A20D8A3070FD0642009F0BFF801347D
:101E500005FB04F3B3F1333F0AD93378042BDAB22C
:101E60000DD0ECD9052A0ED1012003F09BFAEBE747
:101E7000002003F097FA3378042BDAB2F1D1012075
:101E800003F074FAE0E7012003F07CFADCE700BF1E
:101E9000C80A0020CDCCCCCC10B5044609F04EFBCE
:101EA0000228204603D0BDE8104004F03BBDBDE849
:101EB000104009F08BB800BF00B583B072B6084C73
:101EC0000025012003F06EFA0195019BA342F8D88A
:101ED000019B01330193019BA342F9D9F1E700BFB4
:101EE000FEFF010000B597B004F0F0FC0023CDE93F
:101EF0000C33CDE90E33CDE90533CDE907334B493A
:101F000003930993086C4A4A40F080500864096CB6
:101F100001F08051039103990493136843F4404303
:101F20001360136801204FF4803103F44043CDE97E
:101F30000A0104934FF480010225CDE91051049861
:101F400007210220CDE9140119224FF4A8730AA831
:101F50001292139304F04AFD58BB03460F21CDE9BA
:101F600005154FF4A052079305A84FF4805305219F
:101F7000CDE9082304F058FF0446D0B903F0C8F9AE
:101F8000204603F0FFF9012003F0FCF904F08AF980
:101F900001F094F901F0DEF97F2003F07FFC03F0FB
:101FA0007FFD044628B923480BF0D4F8FFF704FE60
:101FB00008B9FFF781FF00F043FE0028F9D00323A2
:101FC000CDE900341C491D4823464FF4806208F0D7
:101FD000FBFD0423CDE9003419491A4823464FF488
:101FE000007208F0F1FD01231E460093164901948A
:101FF00023464FF40072154808F0E6FD2346CDE96C
:102000000064134913484FF4807208F0DDFDCDE9F8
:1020100000541149114823464FF4C06208F0D4FD22
:1020200084F3118862B608F065FEC2E7003802400A
:102030000070004050000020C4810308852C000877
:10204000CC8103087D270008D48103089D21000866
:10205000DC810308351E0008E081030879280008A8
:1020600008B5FFF729FF00BF08B5FFF725FF00BF40
:1020700008B5FFF721FF00BF704700BF10B5124C35
:1020800084B0226800230393ADF80A3012B1002017
:1020900004B010BD03F014FC98B90DF10A0103A8B7
:1020A00003F0DEFCFFF796FD08490948012214F011
:1020B0006BF90190FFF798FD019810B90123236097
:1020C000E5E7012004B010BD94050020E481030879
:1020D0009805002008B50B4B1A681AB9BDE80840EE
:1020E00003F058BCFFF776FD00221046064914F0B5
:1020F0004BF9FFF779FD034B00221A60BDE8084059
:1021000003F048BC94050020E4810308014B1868E3
:10211000704700BF9405002000B50E4B83B01B68CC
:1021200000214FF400720191ADF8022013B9002094
:1021300003B000BD0DF1020101A803F091FC0028DD
:10214000F5D10198BDF80230800A03FB00F0800A47
:1021500003B000BD94050020E8B100B583B0019044
:102160000AF092FDDFF830E0DDF804C0BEE80F00B1
:10217000ACE80F00BEE80F00ACE80F00BEE80F00AF
:10218000ACE80F009EE803008CE8030003B05DF8A4
:1021900004EB0AF099BD7047EC0700202DE9F04FE1
:1021A0008FB000F087FD0446039003F009F9AC4FAF
:1021B000B0FA80F35B0981463B70002C00F05C8133
:1021C00000285AD1A74BA84CDFF8A0A2DFF8A0B294
:1021D000DFF8A092029305AD0026019041E008F0DF
:1021E00003FE284603F07CFA804608F005FE18F14D
:1021F000030F00F2C2800598CAF80C0007980699F0
:10220000CAF814000998CAF81010CAF81C000899F6
:102210003878CAF818104FF0010C0A99CAF8201043
:102220008AF808C0D9F80010002800F08E80B8F1B4
:10223000000F00F00981019B8AF80930DAF8343088
:102240006344CAF83430DBF8003013B1CB1A772B73
:1022500001D9CBF800104FF4FA70CAF8301008F02A
:10226000B5FED9F8003021880133C9F800300029C3
:10227000B5D0013921801946EDE7DFF8F881DFF8A4
:10228000ECA103E0CAF8303008F0A0FED8F8003026
:1022900019F1030F03F101034FF4FA70C8F800308D
:1022A000F0D1704B0293724B6F4C019305AD002639
:1022B0004FF001090EE0013B2380D8F80030CAF846
:1022C00030304FF4FA7008F081FED8F80030013356
:1022D000C8F800302388002BEDD108F085FD284692
:1022E00003F0FEF9834608F087FD1BF1030F70D859
:1022F000DDF814C00698CAF80CC0CAF81000DDF862
:102300001CC008983978CAF814C0CAF81800DDF85B
:1023100024C00A98D8F80020CAF81CC0CAF82000C7
:102320008AF80890D1B98AF80910CAF82460CAF866
:102330002860CAF82C604FF4FA70CAF8302008F010
:1023400045FED8F800300133C2E78AF80900CAF820
:102350002460CAF82860CAF82C607CE7BBF1000F43
:1023600060D10B9BCAF824300C9BCAF828300D9B17
:102370008AF80990CAF82C30DDE700F0EBFF18B9B5
:10238000029A13680133136008F02EFD284603F00B
:10239000A7F9804608F030FD18F1030F7FF62BAF48
:1023A000019BAAF808304FF004032380DAF8343098
:1023B000D9F800100133CAF83430DBF800301BB113
:1023C000CB1A772B7FF647AFCBF80010D9F8001067
:1023D00041E700F0BFFF18B9029A13680133136098
:1023E00008F002FD284603F07BF9834608F004FD5F
:1023F0001BF1030F7FF67CAFDAF834300133CAF8F3
:102400003430019B00211B68AAF8081004212180A8
:10241000D8F800101BB1CB1A772B7FF64EAF019B7B
:1024200019604AE7DAF834300133CAF83430019BD6
:102430001B6800218AF809101BB1D31A772B7FF68D
:102440007AAF019B1A6076E70B9BCAF824300C9B8D
:10245000CAF828300D9B8AF809C0CAF82C30FAE671
:10246000D8070020D4070020DA070020EC0700205E
:10247000E0070020E8070020714B0293714E724B79
:10248000DFF8C881DFF8C891DFF8C8A1019305AD76
:102490000446DAF800200132CAF800203288002A07
:1024A00043D0013A328054B1E31C08D0DAF800205E
:1024B000C8F830204FF4FA7008F088FDE9E7B9F861
:1024C00000201AB1013AA9F80020EFE708F08CFCCF
:1024D000284603F005F9834608F08EFC1BF1030F34
:1024E0004BD8059AC8F80C20069AC8F81020079A0D
:1024F000C8F81420089AC8F818203878099AC8F83B
:102500001C204FF001030A9AC8F8202088F80830F0
:10251000DAF8002000BB002388F80900C8F824304E
:10252000C8F82830C8F82C30C2E708F05DFC28460F
:1025300000F0F0FB834608F05FFCBBF1000F57D1C1
:10254000BDF81820A8F802204FF00103059A88F87A
:102550000030C8F80420A6E7BBF1000F36D10B9875
:10256000C8F824000C98C8F828004FF001030D9813
:1025700088F80930C8F82C009AE700F0EBFE18B98B
:10258000029B1A6801321A6008F02EFC284603F0FC
:10259000A7F8834608F030FC1BF1030FA1D9039B79
:1025A000D8F83420A8F80830019B0132C8F834204C
:1025B0001A680420A9F80000DAF800001AB1821A9B
:1025C000772A7FF673AF019B18606FE7039BD8F8FB
:1025D000340088F80930019B0130C8F834001868CD
:1025E00018B1101A77287FF663AF019B1A605FE776
:1025F00000F0B0FE18B9029B1A6801321A6008F0A8
:10260000F3FB284600F086FB834608F0F5FBBBF1A0
:10261000000F95D0039BD8F8342088F800300E4B7B
:102620000132C8F834201A6804203080DAF800003B
:102630001AB1821A772A7FF636AF074B186032E755
:10264000D4070020DC070020E0070020EC07002072
:10265000DA070020E8070020E407002010B58AB060
:10266000274B002204921A6C42F020021A641B6C61
:1026700003F020030493044603A905A8049B04F077
:102680008DFC089BEBB904F069FC03461D4A1E480B
:102690001E49A2FB03239B0C013B0022C0E900134F
:1026A00040F2E733C0E9052202618260C36005F0B1
:1026B000DFFF50B1372004F08BF9012210460AB039
:1026C00010BD04F04BFC4300E0E70F4806F0A2F811
:1026D0000D4806F065F80190372004F079F9019A69
:1026E000002AEAD10F2CE8D821463720019204F0C5
:1026F0003DF9019A064B10461C600AB010BD00BFA0
:102700000038024083DE1B432808002000140040EC
:1027100060010020034B02689A4200D0704704F029
:10272000EFB800BF00140040FEE700BFFEE700BFA7
:10273000FEE700BFFEE700BFFEE700BF704700BF37
:10274000014806F087B800BF2808002001210020BA
:102750000FF09ABC014804F0BFBE00BF4C1A002025
:10276000044A05491368002B08BF0B461844106043
:102770001846704770080020485200202DE9F843A1
:1027800003F04EFC50BB80460646074603F07EFD34
:1027900081464FF47A7003F0C3FC04463FB9002E23
:1027A0005DD004F0B9F8801BB0F57A7F4ED2C82511
:1027B000ECB1002403F0C6FC002804F101044FF042
:1027C0000F0039DD0F2008F001FC0024013DF1D19C
:1027D000052008F0FBFB03F013FCD7E74FF47A70F9
:1027E00008F0F4FB4FF47A7008F0F0FBF6E703F022
:1027F000A9FC002804F101044FF00F0012DD03F0E2
:1028000045FD48454FF00F0030D008F0DFFB0024B5
:10281000013DDDD003F096FC002804F101044FF0E7
:102820000F00ECDC08F0D2FB032CF1D1052008F0FE
:10283000CDFB03F0E5FBA9E708F0C8FB032CC5D1ED
:10284000052008F0C3FB03F0DBFB9FE703F01EFD50
:10285000A0EB0807B7F57A7F94BF0027012704F0A3
:102860005BF8064603F012FD8046A0E708F0AEFBD9
:102870004FF0FF390024CBE72DE9F04F85B000F091
:1028800073FE20B14FF47A7008F0A0FBFAE781469E
:1028900017F0E8FF03F08EFF03F0D8FF5D48DFF884
:1028A00078A15E4C5E4D5F4E5F4FDFF88081FFF791
:1028B00053F831F07FF808F0E9FB5D4ACAF80000F0
:1028C000A0F5FA73136008F0E1FB23784B458346CB
:1028D0002DD02B7894F80090012B5FFA89F963D002
:1028E000327852BB3A7842B9514A1268022BABEBAC
:1028F000020229D0B2F5FA7F7BD24E4A127812B981
:102900002278042A2BD03BB9DAF8003042F20F7259
:10291000ABEB030393424DD831F04CF8052008F09F
:1029200055FB08F0B3FB23784B458346D1D12B7878
:10293000012B21D03278002AD4D03B78002B42D012
:102940002B78012BD9D117E040F6B7339A4250D8F3
:10295000384B1B78002BDFD12378042BDCD1354A90
:1029600035480123137002F09FFB002837D02B78E5
:10297000002BC9D0012BCFD198F80030002BCBD140
:102980002E4A1268002AC7D0ABEB020240F2DB519C
:102990008A42C1D9CDE9023303A9012302A888F8EC
:1029A000003003F0AFFEB7E7FFF72EF82B78012BCE
:1029B000E2D0BFE72248FEF7CFFF1D4BC3F800B0BF
:1029C00002232B70A8E701221E4801933A7002F0FF
:1029D0006BFB20B1FFF77EFB019B3370B0E703F088
:1029E00071FEFEF7EDFE154BC3F800B001232B700E
:1029F000C2E70F4BC3F800B0FFF740FB10B901234B
:102A000033709AE70120FFF737FB3378002B97D01C
:102A100093E700BFE88103087C080020C80A002073
:102A20008708002086080020850800207408002000
:102A30008008002084080020048203087808002011
:102A400008820308E481030870B51948194CADF5F4
:102A50001C7D14F07DFB184814F07AFB0FCC0DF1AF
:102A6000080CACE80F0094E803008CE8030002AC0B
:102A700008AD21680A22284613F0C6FC90B96668A2
:102A80003046FDF7B3FE01AB02463146284613F04F
:102A9000F1FE0834284614F017F9AC42E9D10DF5DF
:102AA0001C7D70BD0834AC42E3D10DF51C7D70BDBA
:102AB00028820308487D030830820308062900D1D4
:102AC00070472DE9F043ADF52F7D04468846014659
:102AD00002A89946174614F08DFA002833D10DF15B
:102AE000720616A902A814F0F7FA48BB9DF87230D6
:102AF00033B330882E28F4D042F62E63984226D085
:102B00002046FDF773FE20B1204410F8013C2F2B26
:102B100021D0184B184ACDE900364FF4A071234656
:102B20005EA834F057FD9DF86430DB0615D43B6891
:102B300001333B6016A902A814F0CEFA0028D5D0C4
:102B400002A814F0ADFA0DF52F7DBDE8F083B3783F
:102B5000002BC6D0D4E7094BDCE7D9F800300133AD
:102B6000C9F800305EA84B463A4608F10101FFF76C
:102B7000A5FFB6E73C82030848820308BC8203082D
:102B800070B51C4B1C4D1B681C4E84B01A0CADF864
:102B900004308DF8062028684FF0FF3109F012FB51
:102BA00001200CF05DFF0028F5D003233370FFF700
:102BB00011F81348012201A913F0E6FB042304468F
:102BC00098B9CDE902003370FFF73EFF0D4803AB23
:102BD00002AA2146FFF772FF20200AF0A1F908B1EE
:102BE0000AF036FAFFF700F8D5E705233370FEF751
:102BF000FBFFD0E70482030888080020C80A0020F1
:102C00008C08002050820308054A064B10680222F7
:102C10001A7020B100231A46194608F035BE7047D5
:102C200088080020C80A00200022034B03491A70BC
:102C3000104613F0A9BB00BFC80A00200482030895
:102C400000B5032283B00021012008F0CDFD0A4B1E
:102C5000186070B100230222CDE90023074908481B
:102C60004FF4006207F0B0FFA0F10100B0FA80F06D
:102C7000400903B000BD00BF88080020548203084B
:102C8000812B000800B583B003F096FB084B0020B1
:102C90001B8BADF8043001A90AF0CCFA28B1002151
:102CA0004FF0FF300AF09EFEF9E7FFF705F9F6E76F
:102CB000487D030870B50A2088B0FFF7EDF80124BD
:102CC000042232260DF11F058DF81F20CDE90146A3
:102CD0000F480095234600223C2105F00FFA98B9D1
:102CE00005901420FFF7D8F84FF0030CCDE901460A
:102CF0000748059A009523463C218DF81FC005F032
:102D0000FDF908B908B070BD4FF0FF30FAE700BF19
:102D1000D80A00202DE9F04186B0074604AD0A2408
:102D20004FF032080126CDE901681B4800950123C8
:102D300022463C2105F0E0FA40BB0134A4B2102C3D
:102D400005F10105EFD19DF910209DF81030824268
:102D500005DB9DF8110003F0030343EA80009DF8B2
:102D60001430BDF812203A805A06B8800CD49DF871
:102D70001520120103F00F0302F47C7213430020AC
:102D80007B8006B0BDE8F0810023F8E74FF0FF300C
:102D900006B0BDE8F08100BFD80A00200E490F4AF6
:102DA000D1F8FC30DFF838C043F08073C1F8FC3054
:102DB0001368002143F0010313605160DCF8003018
:102DC0000849A1FB03139B0C516803FB00F05368F7
:102DD0005B1A8342FBD3704700ED00E0001000E077
:102DE0005801002083DE1B4370B51A4C06460D4681
:102DF00002F0CAFF2078400000F0FE0003F014F853
:102E000010BB300A03F010F8F0B9F0B203F00CF880
:102E1000D0B902F0B9FF2078400040F00100C0B204
:102E200003F002F8064678B9013D0446E01E18BFDB
:102E3000012003F04FF80134042C05F8010FF5D1FF
:102E400002F0CAFF304670BD02F0C6FF4FF0FF36F9
:102E5000F8E700BFD00A00202DE9F04F944E954FBF
:102E6000954DDFF858A2964B96488DB000243F222E
:102E7000029434603C702C708AF8004034713270D7
:102E80001A6B42F080021A631A6B02F080020292FF
:102E9000029A03941A6B42F480721A631B6B0A94B1
:102EA00003F480734FF001084FF480794FF0020B68
:102EB000039306A9039BCDF824B0CDF81890CDE973
:102EC000078804F08BF8002380227F48CDF820800B
:102ED00006A9CDE9062304F081F802F013FF494664
:102EE0002246784804F084FA0A20FEF7D5FF4946C6
:102EF00042467448DFF8D49104F07AFA0A20FEF7CB
:102F0000CBFF8022002306A96F480894CDE9062351
:102F100004F064F86420FEF7BFFF802200236A48B3
:102F2000CDF8208006A9CDE9062304F057F85846CD
:102F3000FEF7B2FFCB4499F800302B7001A948F29C
:102F400040100194FFF750FF09F1010940B1CB4552
:102F50002C70F0D1019B336034714FF0FF3855E095
:102F60002B78019A307180463260002BF5D0584999
:102F70004F48FDF731FC28B156494D48FDF72CFC70
:102F8000002847D102F000FF2878400000F0FE0042
:102F900002F04AFF002840F0FD80802002F044FF4C
:102FA000002840F0F780472002F03EFF002840F064
:102FB000F18002F0E9FE2878400040F00100C0B244
:102FC00002F032FF002840F0E580044604AE201FE6
:102FD00018BF012002F07EFF0134052C06F8010B1A
:102FE000F5D102F0F9FE9DF810303B4ABDF8111002
:102FF0008AF80030394B1180BDF813201A8034490B
:103000002B48FDF7E9FBC0B101233B7040460DB0F2
:10301000BDE8F08F32492648FDF7DEFB0028B1D02D
:1030200030492348FDF7D8FB0028ABD02E49204873
:10303000FDF7D2FB0028A5D036E002F0A5FE2878E7
:10304000400000F0FE0002F0EFFE58BB802002F0CE
:10305000EBFE38BB402002F0E7FE18BB022002F076
:10306000E3FE0446F0B902F0B7FE9AF800305F2B99
:103070003CD902F089FE2878400000F0FE0002F002
:10308000D3FE48B9802002F0CFFE28B9402002F0DC
:10309000CBFE08B902F0C8FE02F09EFE0A20FEF741
:1030A000FBFEB1E702F098FE6FF00108AEE700BF4B
:1030B00060000020CF0A0020D00A0020CE0A0020A5
:1030C0000038024000200240001C024060860308D5
:1030D000F882030800830308CC0A0020CA0A0020F3
:1030E000048303080C83030814830308DFF8AC90FF
:1030F00009F1FF3309F1B70113F8012F8B42144492
:10310000FAD102F041FE2878400000F0FE0002F003
:103110008BFE00283BD1802002F086FEB8BB472002
:1031200002F082FE98BB1E4E99F8000002F07CFE71
:1031300068BB09F101094E45F6D102F04DFE02F0DF
:1031400023FE2878400000F0FE0002F06DFEF0B98A
:10315000802002F069FED0B9FF2002F065FEB0B910
:103160006042C0B202F060FE88B9012002F05CFE4D
:1031700068B902F031FE60238AF80030094B4FF441
:10318000F0721A80084B4FF448721A8071E702F00F
:1031900023FE6EE702F020FE31E700BF68860308D9
:1031A00020870308CC0A0020CA0A0020024B1878A6
:1031B000003818BF01207047CF0A0020014B188843
:1031C000704700BFCC0A0020014B1888704700BF31
:1031D000CA0A00202DE9F041364B1B7882B0002B43
:1031E00065D0002863D0002961D0DFF8CC80074685
:1031F0000E4602F0C9FD98F80000400000F0FE0005
:1032000002F012FE002850D1812002F00DFE0028AD
:103210004BD14E2002F008FE002846D102F0B4FD4A
:1032200098F80000400040F00100C0B202F0FCFD40
:103230000546002839D102F04DFE00F00F0402F0DF
:10324000CBFD052E28BF0526A64228BF2646CEB9AF
:1032500002F09AFD98F80000400000F0FE0002F035
:10326000E3FD48B9812002F0DFFD28B94E2002F0CD
:10327000DBFD08B902F0D8FD02F0AEFD284602B031
:10328000BDE8F08148F2501401A92046FFF7ACFDDB
:103290000028DDD10135EDB2019B47F8043B08342D
:1032A000AE42A4B2F0D13546D2E702F095FD4FF020
:1032B000FF35E3E7CF0A0020D00A00202DE91048AF
:1032C00089B01F4B002400941A6C42F480021A64E7
:1032D0001A6C02F480020092009A01941A6B42F078
:1032E00080021A631B6B3020122103F08003CDE9AA
:1032F000020101931348019A04234FF0030C02A921
:103300004FF0010B0693CDE904BC03F067FE0E48B5
:103310000E490F4A04624FF48043C0E90012C0E92D
:103320000244C0E90434C0E9064404F01DFC10B9AD
:1033300009B0BDE81088FEF7BFFD09B0BDE81088F0
:1033400000380240001C0240D80A0020005800400B
:10335000A0860100F0B55C4C5C4922685369906915
:103360000A6995068DB002D5810740F1A48010202E
:1033700001210023CDE9060103225448089306A940
:10338000CDE9092303F02AFE01225048102104F060
:103390002FF8B4230193019B5A1E01922BB100BF59
:1033A000019B5A1E0192002BF9D1484D0926B427E2
:1033B00000221021284604F01BF80397039B5A1E95
:1033C00003922BB100BF039B5A1E0392002BF9D12D
:1033D00001221021284604F00BF80297029B5A1E86
:1033E00002922BB100BF029B5A1E0292002BF9D110
:1033F0002B699A0601D4013EDAD120220123CDE9BE
:103400000623002503233148089506A9CDE909358F
:1034100003F0E4FD2A462D48202103F0E9FFB42300
:103420000593059B5A1E05922BB100BF059B5A1EA2
:103430000592002BF9D101222448202103F0D8FF66
:10344000B4230493049B5A1E04922BB100BF049B27
:103450005A1E0492002BF9D11B4804F055FC1A485F
:1034600004F082FB30221223CDE90623012203233C
:10347000CDE908231548042306A90A9303F0AEFDFD
:103480001349114800234FF48042C4E90113C4E9F1
:103490000332C4E90533C4E9073304F065FB80B99E
:1034A00023689B699B070CD4084B1869C0F3401034
:1034B00001380DB0F0BD13F4E0607FF458AF0DB0EB
:1034C000F0BD4FF0FF30F4E7D80A0020001C0240A6
:1034D000A086010000487047300B0020024B18788E
:1034E000003818BF012070472C0B0020DFF870C097
:1034F000DCE9031200B5BCF8063002FB01F100BFA5
:10350000184AA2F8FE3000BF0023A2F80031BCF830
:1035100006E00EF1010E00BFA2F8FEE000BFA2F827
:103520000031BCF808E000BFA2F8FEE000BFA2F83E
:103530000031BCF808E00EF1010E00BFA2F8FEE079
:1035400000BFBCF804C0A2F80031A2F8FEC000BF62
:1035500021B101339942A2F80001FAD100BD00BFA8
:10356000300B002000FF07602DE9F04FAC4CAD4A56
:10357000AD4895B000264FF448714FF4F073C4E99C
:10358000031362604FF42C5332462021A6600127BA
:10359000CDE90766CDE90966CDE90B66CDE90E6692
:1035A000CDE91066CDE91266CDE90266CDE9046683
:1035B0002660238106960D960196022503F018FFDA
:1035C00020239948019301A9CDE9027704954FF092
:1035D000030903F003FD0C23CDE9049393484FF650
:1035E000B37301A9CDE90256019303F0F7FC4FF63E
:1035F00080738F48019301A903F0F0FC4FF23F0361
:103600008C48019301A903F0E9FC3F238A48019308
:1036100001A903F0E3FC894B0C964FF01008184603
:10362000C3E90266C3E90666C3E90866C3E90D6635
:103630001E61DE62DE635E641396C3F81480804E02
:10364000099711230B9312934FF02043C0E90036E2
:103650004FF4805383624FF480434FF00F0A0363AB
:103660000DAA462306A9CDE906AACDE90DAA109711
:10367000CDF83CA0CDF82880CDF84480089305F023
:10368000FDF9002840F026810646142003F04AF98F
:1036900000BF6C4B4FF45B42A3F8FE2000BFB3F8B1
:1036A0000021ADF81820BDF8181000BF4FF45C429F
:1036B000A3F8FE2000BFB3F80021ADF83420BDF818
:1036C0003420D2B242EA012292B2B2F5004F2280F7
:1036D00000F0088100BFA3F8FE7000BF00BF00BF6C
:1036E00000BF00BF00BF00BF00BF00BF00BF00BFE2
:1036F00000BF00BF00BF00BF00BF00BF00BF00BFD2
:1037000000BF00BF00BF00BF00BF00BF00BF00BFC1
:1037100000BF00BF00BF00BF00BF00BF00BF00BFB1
:1037200000BF00BF00BF00BF00BF00BF00BF00BFA1
:1037300000BF00BF00BF00BF00BF00BF00BF7823B5
:1037400000BF00BF00BF00BF00BF013B9BB2002B0A
:10375000F6D100BF3B4B1122A3F8FE20782300BF17
:1037600000BF00BF00BF00BF013B9BB2002BF6D1E2
:1037700000BF344A3A21A2F8FE105521A2F80011E8
:1037800000BF3621A2F8FE10A2F8003100BF2923A5
:10379000A2F8FE30142300BF00BF00BF00BF00BF6F
:1037A000013B9BB2002BF6D1274B5A6822F00F0247
:1037B0005A605A6822F470625A605A6842F00402F1
:1037C0005A605A6842F480625A6000BFD4E90331FB
:1037D0001C4A4FF45850A2F8FE008B424FF00000F4
:1037E000A2F8000184BF9BB2C4E90313E28800BFC2
:1037F000144BA3F8FE2000BFE2880020A3F80001CC
:10380000013200BFA3F8FE2000BFE288A3F8000148
:10381000023200BFA3F8FE20E268013A120A15E066
:10382000300B0020002C002A00040240000C024053
:10383000001002400014024000180240440B002017
:10384000040100A000FF0760000100A000BFA3F872
:103850000021E288033200BFA3F8FE20E268013AAB
:10386000D2B200BFA3F80021228900BFA3F8FE2036
:1038700000BF2289A3F80001013200BFA3F8FE2097
:1038800000BF2289A3F80001023200BFA3F8FE2086
:103890002269013A120A00BFA3F8002121890331ED
:1038A00000BF2269A3F8FE10013AD2B200BFA3F80C
:1038B0000021FFF71BFE00F1804000F501300122DE
:1038C000202103F095FD064B012230461A7015B0F9
:1038D000BDE8F08F3E46304615B0BDE8F08F00BF22
:1038E0002C0B002000BF4FF200024FF0550EA3F842
:1038F000FE20A3F800E100BF4FF201004FF0AA0C38
:10390000A3F8FE00A3F800C100BF4FF2020B4FF076
:103910005202A3F8FEB0A3F8002100BF4FF2030C3F
:10392000A3F8FEC04FF0080CA3F800C100BF4FF28F
:103930000402A3F8FE20A3F8007100BF4FF4304248
:10394000A3F8FE200D22A3F8002100BF4BF20101D5
:10395000A3F8FE10A3F8002100BF4BF20201A3F868
:10396000FE10A3F8002100BF4BF200603421A3F841
:10397000FE00A3F8001100BF4BF20160A3F8FE00A7
:10398000A3F8001100BF4BF20260A3F8FE00A3F8F9
:10399000001100BF4BF2001BA3F8FEB0A3F80021FA
:1039A00000BF4BF2011EA3F8FEE0A3F8002100BF08
:1039B0004BF20210A3F8FE00A3F8002100BF4BF267
:1039C0000072A3F8FE20A3F8001100BF4BF2017EA5
:1039D000A3F8FEE0A3F8001100BF4BF20272A3F8B7
:1039E000FE20A3F8001100BF4FF43242A3F8FE20DE
:1039F000A3F8006100BF4BF20122A3F8FE20A3F858
:103A0000006100BF4BF20222A3F8FE20A3F8006180
:103A100000BF4BF60002A3F8FE202422A3F80021E9
:103A200000BF4BF6010BA3F8FEB0A3F8002100BFC6
:103A30004BF6020EA3F8FEE0A3F8002100BF4FF4FE
:103A40003F40A3F8FE00A3F8007100BF4FF43340DD
:103A5000A3F8FE00A3F800A100BF4BF20130A3F8C9
:103A6000FE00A3F800A100BF4BF20230A3F8FE0055
:103A7000A3F800A100BF4FF43940A3F8FE00A3F85B
:103A8000001100BF4BF60110A3F8FE00A3F80011CF
:103A900000BF4BF60210A3F8FE00A3F8001100BF10
:103AA0004FF43540A3F8FE00A3F800C100BF4BF26D
:103AB0000150A3F8FE00A3F800C100BF4BF2025072
:103AC000A3F8FE00A3F800C100BF4FF44240A3F8E2
:103AD000FE00A3F8009100BF4FF43A40A3F8FE00A7
:103AE000A3F8002100BF4BF60120A3F8FE00A3F8C5
:103AF000002100BF4BF60220A3F8FE00A3F800212E
:103B000000BF4BF6004AA3F8FEA0A3F8006100BF77
:103B10004BF6014A7822A3F8FEA0A3F8002100BFCB
:103B20004BF6024AA3F8FEA0A3F8006100BF4FF4D1
:103B30003D40A3F8FE00A3F8006100BF4BF6015022
:103B4000A3F8FE00A3F8002100BF4BF60252A3F831
:103B5000FE20A3F8006100BF4FF43E42A3F8FE2010
:103B6000A3F8006100BF4BF60162A3F8FE206422B7
:103B7000A3F8002100BF4FF45142A3F8FE20A3F8A0
:103B8000006100BF4DF201123320A3F8FE20A3F81C
:103B9000000100BF4DF20212A3F8FE20A3F800615D
:103BA00000BF4DF20312A3F8FE20A3F8001100BFDE
:103BB0004DF20412A3F8FE20A3F8006100BF4DF2FD
:103BC00005124FF03A0BA3F8FE20A3F800B100BF96
:103BD0004DF20612A3F8FE20A3F8006100BF4DF2DB
:103BE00007124FF04A0EA3F8FE20A3F800E100BF31
:103BF0004DF20812A3F8FE20A3F8006100BF4DF2B9
:103C000009124FF05C0CA3F8FE20A3F800C100BF1E
:103C10004DF20A12A3F8FE20A3F8006100BF4DF296
:103C20000B12A3F8FE204FF08102A3F8002100BF81
:103C30004DF20C12A3F8FE20A3F8006100BF4DF274
:103C40000D124FF0A60AA3F8FE20A3F800A100BFB2
:103C50004DF20E12A3F8FE20A3F8006100BF4DF252
:103C60000F12A3F8FE204FF0E502A3F8002100BFD9
:103C70004DF21012A3F8FE20A3F8007100BF4DF220
:103C800011124FF0130AA3F8FE20A3F800A100BF01
:103C90004DF21212A3F8FE20A3F8007100BF4DF2FE
:103CA0001312A3F8FE204FF05402A3F8002100BF26
:103CB0004DF21412A3F8FE20A3F8007100BF4DF2DC
:103CC00015124FF0820AA3F8FE20A3F800A100BF4E
:103CD0004DF21612A3F8FE20A3F8007100BF4DF2BA
:103CE0001712A3F8FE204FF0CA02A3F8002100BF6C
:103CF0004DF21812A3F8FE20A3F8005100BF4DF2B8
:103D00001912A3F8FE20A3F8006100BF4DF21A12A9
:103D1000A3F8FE20A3F8005100BF4DF21B12A3F838
:103D2000FE20A3F8007100BF4DF21C12A3F8FE2084
:103D3000A3F8005100BF4DF21D12A3F8FE20A3F816
:103D4000001100BF4DF21E12A3F8FE20A3F800518F
:103D500000BF4DF21F124FF0670AA3F8FE20A3F830
:103D600000A100BF4DF22012A3F8FE20A3F80051DD
:103D700000BF4DF22112A3F8FE204FF08402A3F8F9
:103D8000002100BF4DF22212A3F8FE20A3F800513B
:103D900000BF4DF223124FF0A40AA3F8FE20A3F8AF
:103DA00000A100BF4DF22412A3F8FE20A3F8005199
:103DB00000BF4DF22512A3F8FE204FF0B702A3F882
:103DC000002100BF4DF22612A3F8FE20A3F80051F7
:103DD00000BF4DF227124FF0CF0AA3F8FE20A3F840
:103DE00000A100BF4DF22812A3F8FE20A3F8005155
:103DF00000BF4DF22912A3F8FE204FF0DE02A3F817
:103E0000002100BF4DF22A12A3F8FE20A3F80051B2
:103E100000BF4DF22B124FF0F20AA3F8FE20A3F8D8
:103E200000A100BF4DF22C12A3F8FE20A3F8005110
:103E300000BF4DF22D12A3F8FE204FF0FE02A3F8B2
:103E4000002100BF4DF22E12A3F8FE20A3F800912E
:103E500000BF4DF22F12A3F8FE20A3F8008100BF8F
:103E60004DF23012A3F8FE20A3F8009100BF4DF2EE
:103E70003112A3F8FE20A3F8000100BF4DF2321268
:103E8000A3F8FE20A3F8009100BF4DF233124FF0CB
:103E90006D0AA3F8FE20A3F800A100BF4FF4524220
:103EA000A3F8FE20A3F8006100BF4DF2012CA3F897
:103EB000FEC0A3F8000100BF4DF2022CA3F8FEC023
:103EC000A3F8006100BF4DF2032CA3F8FEC0A3F8D5
:103ED000001100BF4DF2042CA3F8FEC0A3F800614E
:103EE00000BF4DF2052CA3F8FEC0A3F800B100BF3F
:103EF0004DF2062CA3F8FEC0A3F8006100BF4DF2FE
:103F0000072CA3F8FEC0A3F800E100BF4DF2082C77
:103F1000A3F8FEC0A3F8006100BF4DF2092CA3F87E
:103F2000FEC04FF05C0CA3F800C100BF4DF20A2C9C
:103F3000A3F8FEC0A3F8006100BF4DF20B2CA3F85C
:103F4000FEC04FF0810CA3F800C100BF4DF20C2C55
:103F5000A3F8FEC0A3F8006100BF4DF20D2CA3F83A
:103F6000FEC04FF0A60CA3F800C100BF4DF20E2C0E
:103F7000A3F8FEC0A3F8006100BF4DF20F2CA3F818
:103F8000FEC04FF0E50CA3F800C100BF4DF2102CAD
:103F9000A3F8FEC0A3F8007100BF4DF2112CA3F8E6
:103FA000FEC04FF0130CA3F800C100BF4DF2122C5D
:103FB000A3F8FEC0A3F8007100BF4DF2132CA3F8C4
:103FC000FEC04FF0540CA3F800C100BF4DF2142CFA
:103FD000A3F8FEC0A3F8007100BF4DF2152CA3F8A2
:103FE000FEC04FF0820CA3F800C100BF4DF2162CAA
:103FF000A3F8FEC0A3F8007100BF4DF2172CA3F880
:10400000FEC04FF0CA0CA3F800C100BF4DF2182C3F
:10401000A3F8FEC0A3F8005100BF4DF2192CA3F87D
:10402000FEC0A3F8006100BF4DF21A2CA3F8FEC039
:10403000A3F8005100BF4DF21B2CA3F8FEC0A3F85B
:10404000007100BF4DF21C2CA3F8FEC0A3F8005174
:1040500000BF4DF21D2CA3F8FEC0A3F8001100BF55
:104060004DF21E2CA3F8FEC0A3F8005100BF4DF284
:104070001F2CA3F8FEC04FF0670CA3F800C100BFCF
:104080004DF2202CA3F8FEC0A3F8005100BF4DF262
:10409000212CA3F8FEC04FF0840CA3F800C100BF90
:1040A0004DF2222CA3F8FEC0A3F8005100BF4DF240
:1040B000232CA3F8FEC04FF0A40CA3F800C100BF4E
:1040C0004DF2242CA3F8FEC0A3F8005100BF4DF21E
:1040D000252CA3F8FEC04FF0B70CA3F800C100BF19
:1040E0004DF2262CA3F8FEC0A3F8005100BF4DF2FC
:1040F000272CA3F8FEC04FF0CF0CA3F800C100BFDF
:104100004DF2282CA3F8FEC0A3F8005100BF4DF2D9
:10411000292CA3F8FEC04FF0DE0CA3F800C100BFAD
:104120004DF22A2CA3F8FEC0A3F8005100BF4DF2B7
:104130002B2CA3F8FEC04FF0F20CA3F800C100BF77
:104140004DF22C2CA3F8FEC0A3F8005100BF4DF295
:104150002D2CA3F8FEC04FF0FE0CA3F800C100BF49
:104160004DF22E2CA3F8FEC0A3F8009100BF4DF233
:104170002F2CA3F8FEC0A3F8008100BF4DF2302C15
:10418000A3F8FEC0A3F8009100BF4DF2312CA3F8B4
:10419000FEC0A3F8000100BF4DF2322CA3F8FEC010
:1041A000A3F8009100BF4DF2332CA3F8FEC0A3F892
:1041B00000A100BF4DF2003CA3F8FEC0A3F80061CF
:1041C00000BF4DF2013CA3F8FEC0A3F8000100BF00
:1041D0004DF2023CA3F8FEC0A3F8006100BF4DF20F
:1041E000033CA3F8FEC0A3F8001100BF4DF2043C4D
:1041F000A3F8FEC0A3F8006100BF4DF2053CA3F890
:10420000FEC0A3F800B100BF4DF2063CA3F8FEC00B
:10421000A3F8006100BF4DF2073CA3F8FEC0A3F86D
:1042200000E100BF4DF2083CA3F8FEC0A3F8006116
:1042300000BF4DF2093CA3F8FEC04FF05C0CA3F8A0
:1042400000C100BF4DF20A3CA3F8FEC0A3F8006114
:1042500000BF4DF20B3CA3F8FEC04FF0810CA3F859
:1042600000C100BF4DF20C3CA3F8FEC0A3F80061F2
:1042700000BF4DF20D3CA3F8FEC04FF0A60CA3F812
:1042800000C100BF4DF20E3CA3F8FEC0A3F80061D0
:1042900000BF4DF20F3CA3F8FEC04FF0E50CA3F8B1
:1042A00000C100BF4DF2103CA3F8FEC0A3F800719E
:1042B00000BF4DF2113CA3F8FEC04FF0130CA3F861
:1042C00000C100BF4DF2123CA3F8FEC0A3F800717C
:1042D00000BF4DF2133CA3F8FEC04FF0540CA3F8FE
:1042E00000C100BF4DF2143CA3F8FEC0A3F800715A
:1042F00000BF4DF2153CA3F8FEC04FF0820CA3F8AE
:1043000000C100BF4DF2163CA3F8FEC0A3F8007137
:1043100000BF4DF2173CA3F8FEC04FF0CA0CA3F843
:1043200000C100BF4DF2183CA3F8FEC0A3F8005135
:1043300000BF4DF2193CA3F8FEC0A3F8006100BF16
:104340004DF21A3CA3F8FEC0A3F8005100BF4DF295
:104350001B3CA3F8FEC0A3F8007100BF4DF21C3C4B
:10436000A3F8FEC0A3F8005100BF4DF21D3CA3F816
:10437000FEC0A3F8001100BF4DF21E3CA3F8FEC022
:10438000A3F8005100BF4DF21F3CA3F8FEC04FF050
:10439000670CA3F800C100BF4DF2203CA3F8FEC09B
:1043A000A3F8005100BF4DF2213CA3F8FEC04FF02E
:1043B000840CA3F800C100BF4DF2223CA3F8FEC05C
:1043C000A3F8005100BF4DF2233CA3F8FEC04FF00C
:1043D000A40CA3F800C100BF4DF2243CA3F8FEC01A
:1043E000A3F8005100BF4DF2253CA3F8FEC04FF0EA
:1043F000B70CA3F800C100BF4DF2263CA3F8FEC0E5
:10440000A3F8005100BF4DF2273CA3F8FEC04FF0C7
:10441000CF0CA3F800C100BF4DF2283CA3F8FEC0AA
:10442000A3F8005100BF4DF2293CA3F8FEC04FF0A5
:10443000DE0CA3F800C100BF4DF22A3CA3F8FEC079
:10444000A3F8005100BF4DF22B3CA3F8FEC04FF083
:10445000F20CA3F800C100BF4DF22C3CA3F8FEC043
:10446000A3F8005100BF4DF22D3CA3F8FEC04FF061
:10447000FE0CA3F800C100BF4DF22E3CA3F8FEC015
:10448000A3F8009100BF4DF22F3CA3F8FEC0A3F8A3
:10449000008100BF4DF2303CA3F8FEC0A3F80091AC
:1044A00000BF4DF2313CA3F8FEC0A3F8000100BFED
:1044B0004DF2323CA3F8FEC0A3F8009100BF4DF2CC
:1044C000333CA3F8FEC0A3F800A100BF4DF2004C9E
:1044D000A3F8FEC0A3F8006100BF4DF2014CA3F8A1
:1044E000FEC0A3F8000100BF4DF2024CA3F8FEC0CD
:1044F000A3F8006100BF4DF2034CA3F8FEC0A3F87F
:10450000001100BF4DF2044CA3F8FEC0A3F80061F7
:1045100000BF4DF2054CA3F8FEC0A3F800B100BFE8
:104520004DF2064CA3F8FEC0A3F8006100BF4DF2A7
:10453000074CA3F8FEC0A3F800E100BF4DF2084C01
:10454000A3F8FEC0A3F8006100BF4DF2094CA3F828
:10455000FEC04FF05C0CA3F800C100BF4DF20A4C46
:10456000A3F8FEC0A3F8006100BF4DF20B4CA3F806
:10457000FEC04FF0810CA3F800C100BF4DF20C4CFF
:10458000A3F8FEC0A3F8006100BF4DF20D4CA3F8E4
:10459000FEC04FF0A60CA3F800C100BF4DF20E4CB8
:1045A000A3F8FEC0A3F8006100BF4DF20F4CA3F8C2
:1045B000FEC04FF0E50CA3F800C100BF4DF2104C57
:1045C000A3F8FEC0A3F8007100BF4DF2114CA3F890
:1045D000FEC04FF0130CA3F800C100BF4DF2124C07
:1045E000A3F8FEC0A3F8007100BF4DF2134CA3F86E
:1045F000FEC04FF0540CA3F800C100BF4DF2144CA4
:10460000A3F8FEC0A3F8007100BF4DF2154CA3F84B
:10461000FEC04FF0820CA3F800C100BF4DF2164C53
:10462000A3F8FEC0A3F8007100BF4DF2174CA3F829
:10463000FEC04FF0CA0CA3F800C100BF4DF2184CE9
:10464000A3F8FEC0A3F8005100BF4DF2194CA3F827
:10465000FEC0A3F8006100BF4DF21A4CA3F8FEC0E3
:10466000A3F8005100BF4DF21B4CA3F8FEC0A3F805
:10467000007100BF4DF21C4CA3F8FEC0A3F800511E
:1046800000BF4DF21D4CA3F8FEC0A3F8001100BFFF
:104690004DF21E4CA3F8FEC0A3F8005100BF4DF22E
:1046A0001F4CA3F8FEC04FF0670CA3F800C100BF79
:1046B0004DF2204CA3F8FEC0A3F8005100BF4DF20C
:1046C000214CA3F8FEC04FF0840CA3F800C100BF3A
:1046D0004DF2224CA3F8FEC0A3F8005100BF4DF2EA
:1046E000234CA3F8FEC04FF0A40CA3F800C100BFF8
:1046F0004DF2244CA3F8FEC0A3F8005100BF4DF2C8
:10470000254CA3F8FEC04FF0B70CA3F800C100BFC2
:104710004DF2264CA3F8FEC0A3F8005100BF4DF2A5
:10472000274CA3F8FEC04FF0CF0CA3F800C100BF88
:104730004DF2284CA3F8FEC0A3F8005100BF4DF283
:10474000294CA3F8FEC04FF0DE0CA3F800C100BF57
:104750004DF22A4CA3F8FEC0A3F8005100BF4DF261
:104760002B4CA3F8FEC04FF0F20CA3F800C100BF21
:104770004DF22C4CA3F8FEC0A3F8005100BF4DF23F
:104780002D4CA3F8FEC04FF0FE0CA3F800C100BFF3
:104790004DF22E4CA3F8FEC0A3F8009100BF4DF2DD
:1047A0002F4CA3F8FEC0A3F8008100BF4DF2304C9F
:1047B000A3F8FEC0A3F8009100BF4DF2314CA3F85E
:1047C000FEC0A3F8000100BF4DF2324CA3F8FEC0BA
:1047D000A3F8009100BF4DF2334CA3F8FEC0A3F83C
:1047E00000A100BF4DF2005CA3F8FEC0A3F8006179
:1047F00000BF4DF2015CA3F8FEC0A3F8000100BFAA
:104800004DF2025CA3F8FEC0A3F8006100BF4DF2B8
:10481000035CA3F8FEC0A3F8001100BF4DF2045CD6
:10482000A3F8FEC0A3F8006100BF4DF2055CA3F839
:10483000FEC0A3F800B100BF4DF2065CA3F8FEC0B5
:10484000A3F8006100BF4DF2075CA3F8FEC0A3F817
:1048500000E100BF4DF2085CA3F8FEC0A3F80061C0
:1048600000BF4DF2095CA3F8FEC04FF05C0CA3F84A
:1048700000C100BF4DF20A5CA3F8FEC0A3F80061BE
:1048800000BF4DF20B5CA3F8FEC04FF0810CA3F803
:1048900000C100BF4DF20C5CA3F8FEC0A3F800619C
:1048A00000BF4DF20D5CA3F8FEC04FF0A60CA3F8BC
:1048B00000C100BF4DF20E5CA3F8FEC0A3F800617A
:1048C00000BF4DF20F5CA3F8FEC04FF0E50CA3F85B
:1048D00000C100BF4DF2105CA3F8FEC0A3F8007148
:1048E00000BF4DF2115CA3F8FEC04FF0130CA3F80B
:1048F00000C100BF4DF2125CA3F8FEC0A3F8007126
:1049000000BF4DF2135CA3F8FEC04FF0540CA3F8A7
:1049100000C100BF4DF2145CA3F8FEC0A3F8007103
:1049200000BF4DF2155CA3F8FEC04FF0820CA3F857
:1049300000C100BF4DF2165CA3F8FEC0A3F80071E1
:1049400000BF4DF2175CA3F8FEC04FF0CA0CA3F8ED
:1049500000C100BF4DF2185CA3F8FEC0A3F80051DF
:1049600000BF4DF2195CA3F8FEC0A3F8006100BFC0
:104970004DF21A5CA3F8FEC0A3F8005100BF4DF23F
:104980001B5CA3F8FEC0A3F8007100BF4DF21C5CD5
:10499000A3F8FEC0A3F8005100BF4DF21D5CA3F8C0
:1049A000FEC0A3F8001100BF4DF21E5CA3F8FEC0CC
:1049B000A3F8005100BF4DF21F5CA3F8FEC04FF0FA
:1049C000670CA3F800C100BF4DF2205CA3F8FEC045
:1049D000A3F8005100BF4DF2215CA3F8FEC04FF0D8
:1049E000840CA3F800C100BF4DF2225CA3F8FEC006
:1049F000A3F8005100BF4DF2235CA3F8FEC04FF0B6
:104A0000A40CA3F800C100BF4DF2245CA3F8FEC0C3
:104A1000A3F8005100BF4DF2255CA3F8FEC04FF093
:104A2000B70CA3F800C100BF4DF2265CA3F8FEC08E
:104A3000A3F8005100BF4DF2275CA3F8FEC04FF071
:104A4000CF0CA3F800C100BF4DF2285CA3F8FEC054
:104A5000A3F8005100BF4DF2295CA3F8FEC04FF04F
:104A6000DE0CA3F800C100BF4DF22A5CA3F8FEC023
:104A7000A3F8005100BF4DF22B5CA3F8FEC04FF02D
:104A8000F20CA3F800C100BF4DF22C5CA3F8FEC0ED
:104A9000A3F8005100BF4DF22D5CA3F8FEC04FF00B
:104AA000FE0CA3F800C100BF4DF22E5CA3F8FEC0BF
:104AB000A3F8009100BF4DF22F5CA3F8FEC0A3F84D
:104AC000008100BF4DF2305CA3F8FEC0A3F8009156
:104AD00000BF4DF2315CA3F8FEC0A3F8000100BF97
:104AE0004DF2325CA3F8FEC0A3F8009100BF4DF276
:104AF000335CA3F8FEC0A3F800A100BF4DF2006C28
:104B0000A3F8FEC0A3F8006100BF4DF2016CA3F84A
:104B1000FEC0A3F8000100BF4DF2026CA3F8FEC076
:104B2000A3F8006100BF4DF2036CA3F8FEC0A3F828
:104B3000001100BF4DF2046CA3F8FEC0A3F80061A1
:104B400000BF4DF2056CA3F8FEC0A3F800B100BF92
:104B50004DF2066BA3F8FEB0A3F8006100BF4DF262
:104B6000076BA3F8FEB0A3F800E100BF4DF2086E9A
:104B7000A3F8FEE0A3F8006100BF4DF2096E4FF00C
:104B80005C0CA3F8FEE0A3F800C100BF4DF20A6C74
:104B9000A3F8FEC0A3F8006100BF4DF20B6CA3F8B0
:104BA000FEC04FF0810CA3F800C100BF4DF20C6CA9
:104BB000A3F8FEC0A3F8006100BF4DF20D6CA3F88E
:104BC000FEC04FF0A60CA3F800C100BF4DF20E6C62
:104BD000A3F8FEC0A3F8006100BF4DF20F6CA3F86C
:104BE000FEC04FF0E50CA3F800C100BF4DF2106C01
:104BF000A3F8FEC0A3F8007100BF4DF2116CA3F83A
:104C0000FEC04FF0130CA3F800C100BF4DF2126CB0
:104C1000A3F8FEC0A3F8007100BF4DF2136CA3F817
:104C2000FEC04FF0540CA3F800C100BF4DF2146C4D
:104C3000A3F8FEC0A3F8007100BF4DF2156CA3F8F5
:104C4000FEC04FF0820CA3F800C100BF4DF2166CFD
:104C5000A3F8FEC0A3F8007100BF4DF2176CA3F8D3
:104C6000FEC04FF0CA0CA3F800C100BF4DF2186C93
:104C7000A3F8FEC0A3F8005100BF4DF2196CA3F8D1
:104C8000FEC0A3F8006100BF4DF21A6CA3F8FEC08D
:104C9000A3F8005100BF4DF21B6CA3F8FEC0A3F8AF
:104CA000007100BF4DF21C6CA3F8FEC0A3F80051C8
:104CB00000BF4DF21D6CA3F8FEC0A3F8001100BFA9
:104CC0004DF21E61A3F8FE10A3F8005100BF4DF293
:104CD0001F614FF0670CA3F8FE10A3F800C100BFDE
:104CE0004DF22061A3F8FE10A3F8005100BF4DF271
:104CF00021614FF0840CA3F8FE10A3F800C100BF9F
:104D00004DF22261A3F8FE10A3F8005100BF4DF24E
:104D100023614FF0A40CA3F8FE10A3F800C100BF5C
:104D20004DF22461A3F8FE10A3F8005100BF4DF22C
:104D300025614FF0B70CA3F8FE10A3F800C100BF27
:104D40004DF22661A3F8FE10A3F8005100BF4DF20A
:104D500027614FF0CF0CA3F8FE10A3F800C100BFED
:104D60004DF22861A3F8FE10A3F8005100BF4DF2E8
:104D700029614FF0DE0CA3F8FE10A3F800C100BFBC
:104D80004DF22A61A3F8FE10A3F8005100BF4DF2C6
:104D90002B614FF0F20CA3F8FE10A3F800C100BF86
:104DA0004DF22C61A3F8FE10A3F8005100BF4DF2A4
:104DB0002D614FF0FE0CA3F8FE10A3F800C100BF58
:104DC0004DF22E61A3F8FE10A3F8009100BF4DF242
:104DD0002F61A3F8FE10A3F8008100BF4DF23061EF
:104DE000A3F8FE10A3F8009100BF4DF23161A3F8C3
:104DF000FE10A3F8000100BF4DF23261A3F8FE10CF
:104E0000A3F8009100BF4DF23361A3F8FE10A3F8A0
:104E100000A100BF4FF200014FF0550EA3F8FE10A5
:104E2000A3F800E100BF4FF201004FF0AA01A3F880
:104E3000FE00A3F8001100BF4FF2020B4FF0520129
:104E4000A3F8FEB0A3F8001100BF4FF203014FF02A
:104E5000080CA3F8FE10A3F800C100BF4FF2040134
:104E6000A3F8FE10A3F8006100BF4BF2001BCC2199
:104E7000A3F8FEB0A3F8001100BF4BF20111A3F894
:104E8000FE10A3F8006100BF4BF200600521A3F8FB
:104E9000FE00A3F8001100BF4BF20071A3F8FE1052
:104EA0007021A3F8001100BF4BF20170A3F8FE00BF
:104EB000A3F8001100BF4BF60001A3F8FE10A3F801
:104EC000007100BF4BF6010BA3F8FEB0A3F80091F0
:104ED00000BF4BF60201A3F8FE10A3F8009100BF3B
:104EE0004BF60301A3F8FE10A3F8009100BF4BF6A8
:104EF000004AA3F8FEA0A3F8005100BF4BF6014AF8
:104F0000A3F8FEA0A3F8006100BF4BF6024AA3F885
:104F1000FEA0A3F8006100BF4FF44941A3F8FE10C2
:104F2000D021A3F8001100BF4CF60111A3F8FE1028
:104F3000A3F8005100BF4CF60211A3F8FE10502157
:104F4000A3F8001100BF4CF60310A3F8FE00A3F86D
:104F5000001100BF4CF60410A3F8FE00A3F80011E6
:104F600000BF4FF45451A3F8FE10A3F8006100BF36
:104F70004FF46852A3F8FE20A3F800E100BF4FF4FD
:104F80008852A3F8FE20782300BF00BF00BF00BFF7
:104F900000BF013B9BB2002BF6D100BF034B4FF487
:104FA0002452A3F8FE20FEF7FFBB00BF00FF0760FE
:104FB00010B5029C002C6ED0002A6CD0002B6AD059
:104FC000DFF8D4E0BEF8064000BFDFF8D0C0ACF890
:104FD000FE40040A00BFACF80041BEF806400134B0
:104FE00000BFACF8FE40C4B200BFACF80041BEF850
:104FF0000640023400BFACF8FE408418013C241285
:1050000000BFACF80041BEF80640033400BF0138D1
:105010001044ACF8FE40C0B200BFACF80001BEF8CE
:10502000080000BFACF8FE00080A00BFACF80001A1
:10503000BEF80800013000BFACF8FE00C8B200BFE7
:10504000ACF80001BEF80800023000BFACF8FE006A
:10505000C8180138001200BFACF80001BEF8080003
:10506000033000BF01391944ACF8FE00C9B200BFDB
:10507000ACF80011BEF80410ACF8FE1000BF0299A5
:1050800002FB03F3023901EB430331F8022FACF8C2
:1050900000219942F9D110BD300B002000FF0760BC
:1050A00000487047940B0020002800F087802DE90D
:1050B000F047DFF80C818EB00746FCF78BFD98F8BF
:1050C000D03D002B71D198F8D13D002B65D198F8D7
:1050D000D23D002B59D198F8D33D002B4DD198F8F3
:1050E000D43D002B45D1FCF77FFD40F6D85200217E
:1050F0003348344D344EFBF719FC344B00221A7000
:10510000FCF768FD05F5396405F695394FF0010A9D
:1051100056F8043B2E4A009330213B4602A832F059
:1051200059FA012202A9284611F06EF908B984F84B
:1051300000A001344C4505F51475E9D1FCF754FD88
:10514000D8F8D03DFF2B4FF001000BD988F8D50DD2
:10515000204A1E483B46042132F03CFA00200EB0A3
:10516000BDE8F08798F8D43D002BEFD10EB0BDE834
:10517000F087194811F0A8FDB5E7184811F0A4FD13
:1051800098F8D43D002BAED0F3E7154811F09CFD04
:1051900098F8D33D002BA2D0EFE7124811F094FD10
:1051A00098F8D23D002B96D0EFE708F5107011F07B
:1051B0008BFD98F8D13D002B89D0EEE70120704798
:1051C000980B0020D80D002038870308940B00208E
:1051D00018830308FC80030818170020C814002057
:1051E00078120020281000200D4B93F8D00D93F872
:1051F000D12D003818BF01200AB140F0020093F809
:10520000D22D0AB140F0040093F8D32D0AB140F03A
:10521000080093F8D43D0BB140F01000704700BF78
:10522000980B0020002839D0002937D0002A35D02B
:10523000F0B50E4611894B1EBF2B85B0964617461A
:105240005BD803787F33DBB27D2B0A461FD890F8FA
:1052500001C0ACF14000C0B2BE2818D8BEF80600AC
:105260000C38BCF17E0F80B28CBF4125402514283C
:105270000DD8DFF894E01EF80000FF2807D0234C7B
:1052800004EB000E9EF8D0EDBEF1000F08D1002116
:105290003046FBF74BFB012005B0F0BD0120704705
:1052A000ACEB0502D2B24FF0BE0C0CFB032201FBAB
:1052B00002F2CDE90020FCF78DFC0198009A4FF432
:1052C000147303FB004000F51071002308460091A1
:1052D00011F014FD98B93A89009803AB314611F0EA
:1052E000EBF90090FCF780FC00983A8910B9039B19
:1052F0009A42D1D0531EBF2BC9D9C022C7E7FCF7B1
:1053000073FC3A89F6E700BF20870308980B00205A
:105310002DE91048002289B0CDE90522114B0192F8
:105320001A6B114842F002021A631B6B03F002036E
:105330004FF0010C0124019302A94FF0030BCDE9BA
:1053400002BC019B049401F049FE2246064802215A
:1053500002F04EF804482246214602F049F809B00E
:10536000BDE81088003802400004024002460448AC
:1053700012B9022102F03CB80022012102F038B833
:105380000004024038B900F1804000F501300122EC
:10539000022102F02DB801220148114602F028B87E
:1053A0000004024030B900F1804000F501300221D4
:1053B00002F022B80148012102F01EB800040240A8
:1053C0002DE9F04186B001260DF1130300213227AB
:1053D00000938DF81310CDE90167BE48334675225E
:1053E000D02102F089FF002840F06A819DF8133037
:1053F000712B40F065810DF1140833466B22D021EA
:105400008DF81400CDE90167B248CDF8008002F0B4
:1054100075FE0A20FCF740FD0721192233468DF85E
:105420001410CDE90167D021AA48CDF8008002F020
:1054300065FE03211A2233468DF81410CDE9016769
:10544000D021A448CDF8008002F058FE18211B227C
:1054500033468DF81410CDE90167D0219D48CDF871
:10546000008002F04BFE102433461C22D021CDE9EF
:1054700001679848CDF800808DF8144002F03EFE98
:1054800020238DF814306A223346D021CDE90167FC
:105490009048CDF8008002F031FE0D232422D02167
:1054A0008DF81430CDE9016733468A48CDF8008085
:1054B00002F024FE0520FCF7EFFC19238DF81430D0
:1054C000CDE901678348CDF8008033462522D021FD
:1054D00002F014FE002874D1CDE901677D48CDF8B3
:1054E000008033462622D0218DF8144002F006FEBB
:1054F000002866D183228DF81420CDE90167754814
:10550000CDF8008033462722D02102F0F7FD002895
:1055100057D11420FCF7C0FC49244546CDE901676A
:105520006C48009501232246D02102F0E5FE0028B8
:1055300047D10134A4B24C2C05F10105EED19DF800
:105540001400654CFAF7EEFE4FF08641FAF734FE90
:105550004FF07C51FAF73AFF4FF07051FAF736FFEF
:105560004FF07E51FAF72AFE034623609DF815009E
:10557000FAF7D8FE4FF08641FAF71EFE4FF07C5145
:10558000FAF724FF4FF07051FAF720FF4FF07E51E9
:10559000FAF714FE034663609DF81600FAF7C2FEA0
:1055A0004FF08641FAF708FE4FF07C51FAF70EFFF4
:1055B0004FF07051FAF70AFF4FF07E51FAF7FEFDF7
:1055C000A060464ECDF80080012400233225CDE9AD
:1055D0000145337019238DF814303E4823462522A7
:1055E000D02102F08BFD30BB8DF81400CDE90145D0
:1055F0003848CDF8008023462622D02102F07EFDD7
:10560000C8B981238DF81430CDE901453148CDF872
:10561000008023462722D02102F070FD58B91420C3
:10562000FCF73AFCCDE901452A4800964922234679
:10563000D02102F061FE3378482B47D10124182293
:1056400032258DF81420CDE901452248CDF800809F
:1056500023462522D02102F051FDA0BB0A228DF85D
:105660001420CDE901451B48CDF8008023462622B1
:10567000D02102F043FD30BB16228DF81420CDE975
:1056800001451448CDF8008023466322D02102F062
:1056900035FDC0B9CDE9014523460E48CDF800805F
:1056A00081262722D0218DF8146002F027FD0446C0
:1056B00048B91420FCF7F0FB204606B0BDE8F081A5
:1056C0004FF0FF30F9E76FF00100F6E76FF00200EE
:1056D000F3E700BFD80A00209800002070190020CE
:1056E0002DE9F04389B04FF03208062406AD81461B
:1056F000CDE901486548009501233B22D02102F005
:10570000FBFD002840F0BB80BDF81800C0BAFAF7D6
:1057100009FE4FF06651FAF759FEC9F80000BDF8CE
:105720001A00C0BAFAF7FEFD4FF06651FAF74EFEC6
:10573000C9F80400BDF81C00C0BAFAF7F3FD4FF039
:105740006651FAF743FE0123C9F808004322CDE968
:1057500001484E480095D02102F0CEFD002840F0CF
:105760009180BDF81800C0BAFAF7DCFD4849FAF795
:10577000E1FEBDF81A30C9F80C00D8BAFAF7D2FD2C
:105780004349FAF7D7FEBDF81C30C9F81000D8BA63
:10579000FAF7C8FD3E49FAF7CDFE012719230DF1AE
:1057A0001704C9F814008DF81730CDE9017837488F
:1057B00000943B462522D02102F0A0FC00285BD1BA
:1057C00003238DF81730CDE90178304800943B462B
:1057D0002622D02102F092FC00284DD186228DF89D
:1057E00017208DE8900129483B462722D02102F05E
:1057F00085FC002840D11420FCF74EFB4924CDE95C
:1058000001782248009501232246D02102F074FD40
:10581000064688BB0134A4B24F2C05F10105EED138
:10582000BDF818001B4CC0BAFAF77CFD1A49FAF70C
:10583000CDFD2168FAF7CAFDBDF81A30C9F8180085
:10584000D8BAFAF76FFD1449FAF7C0FD6168FAF7A4
:10585000BDFDBDF81C30C9F81C00D8BAFAF762FDCE
:105860000D49FAF7B3FDA168FAF7B0FDC9F82000B9
:10587000304609B0BDE8F0836FF00200F9E74FF061
:10588000FF30F6E76FF00100F3E700BFD80A002011
:1058900033338341980000209A99193E00B585B0B2
:1058A000642300938DF80F0001230DF10F024021B6
:1058B000024802F047FA05B000BD00BFD80A002038
:1058C00070B52E4B2E485A6A42F4006288B05A6274
:1058D0005A6A002422F400625A6200945A6C42F41C
:1058E00000625A645A6C02F400620092009A0194B9
:1058F0001A6B42F004021A631A6B02F0040201925E
:10590000019A02941A6B42F008021A631B6B03F0AF
:105910000803029303234FF4F85106930C23022645
:10592000039101250DEB0301029A0793CDE904656C
:1059300001F054FB04231348039303A901F04EFB29
:10594000114A124B13601046C2E90144C2E90344F4
:10595000C2E9054603F056FE28B1002501200C4B94
:105960001D6008B070BD08484FF4006103F07CFE74
:105970000028F4D0044803F063FAEEE70038024050
:1059800000080240000C024078190020002C014061
:105990007419002008B5034803F052FA024B0022A4
:1059A0001A6008BD7819002074190020014B18688E
:1059B000704700BF7419002030B5124B1B6883B0CC
:1059C0001BB90125284603B030BD4FF47A74134645
:1059D00000940A4601460C4803F046FA05460028A2
:1059E000F0D140F2E93401E000F09CFF064803F0FA
:1059F000E5FE04284FF00100E4D0013CF4D103257A
:105A0000E0E700BF741900207819002030B5124B70
:105A10001B6883B01BB90125284603B030BD4FF485
:105A20007A74134600940A4601460C4803F018FBAA
:105A300005460028F0D140F2E93401E000F072FFA1
:105A4000064803F0BBFE04284FF00100E4D0013CFF
:105A5000F4D10325E0E700BF741900207819002075
:105A60000D4B1B680BB90120704700B58BB0CDE919
:105A700000010A4802A903F0E3FD48B9DDE900236B
:105A80000AB1069911600BB1079A1A800BB000BDDC
:105A900001200BB000BD00BF741900207819002050
:105AA0002DE9F047002494B0CDE90C44CDE90E4433
:105AB000CDE91044894B0094129408949A6B88485D
:105AC00042F001029A639A6B02F001020092009A7E
:105AD00001941A6B42F020021A631A6B02F0200242
