:020000040800F2
:10000000000003209D6400086124000865240008A6
:10001000692400086D240008712400080000000015
:1000200000000000000000000000000091C7000870
:100030007524000800000000E1C7000825C9000879
:10004000ED640008ED640008ED640008ED6400084C
:10005000ED640008ED640008ED640008ED6400083C
:10006000ED640008ED640008ED640008ED6400082C
:10007000ED640008ED640008ED640008ED6400081C
:10008000ED640008ED640008ED640008ED6400080C
:10009000ED640008ED640008ED6400088D2400089C
:1000A000ED640008ED640008ED640008ED640008EC
:1000B000ED640008ED640008ED640008ED640008DC
:1000C000ED640008ED640008ED640008ED640008CC
:1000D000ED640008ED640008ED640008715F00083D
:1000E000ED640008ED640008ED640008ED640008AC
:1000F000ED640008ED640008ED640008ED6400089C
:10010000ED640008ED640008ED640008ED6400088B
:10011000ED640008ED640008ED640008792400082F
:10012000ED640008ED640008ED640008ED6400086B
:10013000ED640008ED640008ED640008ED6400085B
:10014000ED640008ED640008ED64000885240008F3
:10015000ED640008ED640008ED640008ED6400083B
:10016000ED640008ED640008ED640008ED6400082B
:10017000ED640008ED640008ED640008ED6400081B
:10018000ED640008ED640008ED640008ED6400080B
:10019000ED640008ED640008ED640008ED640008FB
:0C01A000ED640008ED640008ED64000848
:1001B00080F0004002E000BF81F0004142001FBF1C
:1001C0005FEA410392EA030F7FEA226C7FEA236C25
:1001D0006AD04FEA1262D2EB1363C1BFD21841401A
:1001E00048404140B8BF5B42192B88BF704710F0B0
:1001F000004F40F4000020F07F4018BF404211F053
:10020000004F41F4000121F07F4118BF494292EABA
:10021000030F3FD0A2F1010241FA03FC10EB0C00E6
:10022000C3F1200301FA03F100F0004302D5494273
:1002300060EB4000B0F5000F13D3B0F1807F06D320
:1002400040084FEA310102F10102FE2A51D2B1F118
:10025000004F40EBC25008BF20F0010040EA03000D
:100260007047490040EB0000013A28BFB0F5000F8D
:10027000EDD2B0FA80FCACF1080CB2EB0C0200FA43
:100280000CF0AABF00EBC25052421843BCBFD04092
:100290001843704792F0000F81F4000106BF80F40C
:1002A00000000132013BB5E74FEA41037FEA226CCF
:1002B00018BF7FEA236C21D092EA030F04D092F09A
:1002C000000F08BF0846704790EA010F1CBF0020CE
:1002D000704712F07F4F04D1400028BF40F000402B
:1002E000704712F100723CBF00F50000704700F04B
:1002F000004343F0FE4040F4000070477FEA226272
:1003000016BF08467FEA23630146420206BF5FEA42
:10031000412390EA010F40F4800070474FF0000342
:1003200004E000BF10F0004348BF40425FEA000C09
:1003300008BF704743F0964301464FF000001CE0B1
:1003400050EA010208BF70474FF000030AE000BF07
:1003500050EA010208BF704711F0004302D5404245
:1003600061EB41015FEA010C02BF844601460020B7
:1003700043F0B64308BFA3F18053A3F50003BCFAD2
:100380008CF2083AA3EBC25310DB01FA02FC63447F
:1003900000FA02FCC2F12002BCF1004F20FA02F286
:1003A00043EB020008BF20F00100704702F1200279
:1003B00001FA02FCC2F1200250EA4C0021FA02F2DA
:1003C00043EB020008BF20EADC7070474FF0FF0CDF
:1003D0001CEAD0521EBF1CEAD15392EA0C0F93EADA
:1003E0000C0F6FD01A4480EA010C400218BF5FEA7C
:1003F00041211ED04FF0006343EA501043EA5111EF
:10040000A0FB01310CF00040B1F5000F3EBF4900E8
:1004100041EAD3715B0040EA010062F17F02FD2AEC
:100420001DD8B3F1004F40EBC25008BF20F00100CF
:10043000704790F0000F0CF0004C08BF49024CEAE6
:10044000502040EA51207F3AC2BFD2F1FF0340EA78
:10045000C250704740F400004FF00003013A5DDCE9
:1004600012F1190FDCBF00F000407047C2F100022A
:10047000410021FA02F1C2F1200200FA02FC5FEA17
:10048000310040F1000053EA4C0308BF20EADC7061
:10049000704792F0000F00F0004C02BF400010F4D3
:1004A000000F013AF9D040EA0C0093F0000F01F080
:1004B000004C02BF490011F4000F013BF9D041EAA2
:1004C0000C018FE70CEAD15392EA0C0F18BF93EAA4
:1004D0000C0F0AD030F0004C18BF31F0004CD8D1CE
:1004E00080EA010000F00040704790F0000F17BF55
:1004F00090F0004F084691F0000F91F0004F14D09B
:1005000092EA0C0F01D142020FD193EA0C0F03D1F2
:100510004B0218BF084608D180EA010000F00040F5
:1005200040F0FE4040F40000704740F0FE4040F4D0
:10053000400070474FF0FF0C1CEAD0521EBF1CEA6F
:10054000D15392EA0C0F93EA0C0F69D0A2EB03028D
:1005500080EA010C49024FEA402037D04FF0805327
:1005600043EA111143EA10130CF000408B4238BFEC
:100570005B0042F17D024FF4000C8B4224BF5B1AFA
:1005800040EA0C00B3EB510F24BFA3EB510340EA48
:100590005C00B3EB910F24BFA3EB910340EA9C00F6
:1005A000B3EBD10F24BFA3EBD10340EADC001B0166
:1005B00018BF5FEA1C1CE0D1FD2A3FF650AF8B420A
:1005C00040EBC25008BF20F0010070470CF0004C17
:1005D0004CEA50207F32C2BFD2F1FF0340EAC25042
:1005E000704740F400004FF00003013A37E792F003
:1005F000000F00F0004C02BF400010F4000F013A61
:10060000F9D040EA0C0093F0000F01F0004C02BF5B
:10061000490011F4000F013BF9D041EA0C0195E7C4
:100620000CEAD15392EA0C0F08D142027FF47DAF5D
:1006300093EA0C0F7FF470AF084676E793EA0C0F4D
:1006400004D14B023FF44CAF08466EE730F0004C4B
:1006500018BF31F0004CCAD130F000427FF45CAFDB
:1006600031F000437FF43CAF5FE700BF4FF0FF3C49
:1006700006E000BF4FF0010C02E000BF4FF0010C9C
:100680004DF804CD4FEA40024FEA41037FEA226C65
:1006900018BF7FEA236C11D001B052EA530C18BF87
:1006A00090EA010F58BFB2EB030088BFC81738BFEC
:1006B0006FEAE17018BF40F0010070477FEA226CDA
:1006C00002D15FEA402C05D17FEA236CE4D15FEAD6
:1006D000412CE1D05DF8040B704700BF844608460A
:1006E0006146FFE70FB5FFF7C9FF002848BF10F1CB
:1006F000000F0FBD4DF808EDFFF7F4FF0CBF012010
:1007000000205DF808FB00BF4DF808EDFFF7EAFF99
:1007100034BF012000205DF808FB00BF4DF808ED54
:10072000FFF7E0FF94BF012000205DF808FB00BF49
:100730004DF808EDFFF7D2FF94BF012000205DF8CF
:1007400008FB00BF4DF808EDFFF7C8FF34BF0120DC
:1007500000205DF808FB00BF4FEA4002B2F1FE4FF7
:100760000FD34FF09E03B3EB12620DD94FEA002373
:1007700043F0004310F0004F23FA02F018BF40424C
:1007800070474FF00000704712F1610F01D1420233
:1007900005D110F0004008BF6FF0004070474FF0E7
:1007A0000000704753B94AB9002908BF00281CBF90
:1007B0004FF0FF314FF0FF3000F00CB8ADF1080CF6
:1007C0006DE904CE36F096FBDDF804E0DDE90223A6
:1007D00004B07047704700BF10F8012B11F8013BBF
:1007E000012A28BF9A42F7D0D01A7047034613F85F
:1007F000012B002AFBD1181A0138704700000000B5
:1008000001F0FF01102A2BDB10F0070F08D010F8C1
:10081000013B013A8B422DD010F0070F42B3F6D1C5
:10082000F0B441EA012141EA014122F007047FF0DE
:1008300000070023F0E80256083C85EA010586EA35
:10084000010685FA47F5A3FA87F586FA47F6A5FA71
:1008500087F68EB9EED1F0BC01F0FF0102F007027D
:1008600032B110F8013B013A83EA010313B1F8D128
:100870000020704701387047002D06BF3546033809
:10088000073815F0010F07D1013015F4807F02BF42
:10089000013015F4C03F0130F0BC0138704700BF93
:1008A0000348044B834202D0034B03B118477047FF
:1008B000C0010020C0010020000000000548064BD8
:1008C0001B1AD90F01EBA301491002D0034B03B14E
:1008D00018477047C0010020C00100200000000040
:1008E00010B5064C237843B9FFF7DAFF044B13B178
:1008F0000448AFF300800123237010BDC001002025
:10090000000000006079030808B5054B1BB10549DC
:100910000548AFF30080BDE80840FFF7CFBF00BF38
:1009200000000000C401002060790308024403466F
:10093000934200D1704703F8011BF9E770B50D4BE6
:100940000D4C00261D1BB6EBA50F09D137F008F89A
:100950000A4C0B4B00261D1BB6EBA50F05D170BD35
:1009600054F8043B98470136EDE754F8043B9847A8
:100970000136F1E7B0720408B0720408B0720408DE
:10098000B47204087047704737B5002944D051F855
:10099000043C0190002BA1F10404B8BFE41800F05E
:1009A000DDF81E4A0198136833B96360146003B020
:1009B000BDE8304000F0D8B8A34208D925686119D5
:1009C0008B4201BF19685B6849192160EDE71A463F
:1009D0005B680BB1A342FAD911685518A5420BD137
:1009E000246821445418A3421160E0D11C685B685C
:1009F00053600C441460DAE702D90C230360D6E795
:100A0000256861198B4204BF19685B68636004BF85
:100A1000491921605460CAE703B030BD20030020AB
:100A200070B50F4C0E462168054611B900F0A2F8CA
:100A300020603146284600F09DF8431C03D14FF05A
:100A4000FF34204670BDC41C24F00304A042F8D03B
:100A5000211A284600F08EF80130F2D1EFE700BFEE
:100A60001C0300202DE9F843CD1C25F003050835B3
:100A70000C2D38BF0C25002D064601DBA94204D9F8
:100A80000C2333600020BDE8F883334F00F066F894
:100A90003B681C463CBB29463046FFF7C1FF431C60
:100AA000044656D13C68A046B8F1000F40D1002C56
:100AB00049D023684146304604EB030900F05AF858
:100AC000814540D121686D1A29463046FFF7A8FFBD
:100AD000013038D023682B4423603B685A685ABBE6
:100AE000C7F800800EE02268521B1ED40B2A16D9CC
:100AF0006119A342256018BF5960636808BF396057
:100B000062514B60304600F02FF804F10B00231DBA
:100B100020F00700C21A1CBF1B1AA350B3E762687B
:100B2000A3420CBF3A605A60ECE723466468B1E721
:100B30004446D8F80480B7E71A465B68A342FBD165
:100B400000235360DEE70C233360304600F00CF8DE
:100B500098E70560D6E700BF200300200148FFF7B3
:100B600011BF00BF180300200148FFF70CBF00BFF2
:100B70001803002038B5064C0023054608462360BC
:100B800001F08AFC431C02D1236803B12B6038BDFD
:100B90001403002010B500202FF014FB194C208006
:100BA00000202FF021FBB4F90020174B002ADCBFF6
:100BB00001222280002818801DDDA0F16A031BB2EB
:100BC0001E2BB8BF1E23114A143B1BB2A2FB0323EA
:100BD0005B0803F10A0238380D4C0E4923804FF0B0
:100BE0002A0C0D4CA1F800C00CEB420362444A8071
:100BF0008B80208010BD01221A806FF036000D22FC
:100C00000323E9E7300300202E030020ABAAAAAAA1
:100C100026030020280300202403002070B582B0A2
:100C2000154601930E4635F08DFF1C4900220446FF
:100C30001FF0DCFB1A496A0901EA152102F4FC6283
:100C40001143C5F3C4052943204600221FF0BAFB17
:100C50000022114620461FF075FB00221146204657
:100C60001FF050FB0022114620461FF051FB0022CE
:100C7000114620461FF03AFB0022114620461FF085
:100C80003BFB0199204635F06BFF20463246082198
:100C90001AF02EFA204602B070BD00BF98B70308C4
:100CA00000F8FFFF70B50D46164635F04BFF1F49A3
:100CB000044600221FF09AFB204600224DF2BB6141
:100CC0001FF080FB0022114620461FF03BFB002254
:100CD000114620461FF016FB0022114620461FF049
:100CE00017FB0022114620461FF000FB0022114690
:100CF00020461FF001FB3146204635F031FF2A46E1
:100D0000204600211AF0F4F9094B2046B3F90010EF
:100D10001AF046FA2046002202211FF06DFB204601
:100D20002A4600211AF0E4F9204670BD7CB703087A
:100D30003003002070B582B00E460193154619F0BD
:100D4000D5FB244A002104461EF05EFC224A11888D
:100D500018392A46204609B21AF0F6F932462046DA
:100D60000C211AF0C5F92046002241F2A3011FF020
:100D7000D5FA20460022FF211FF0E4FA2046002287
:100D800048F252411FF0E4FA2046002201211FF0F0
:100D9000F3FA0022114620461FF0B4FA0022114651
:100DA00020461FF0B5FA0022114620461FF09EFA99
:100DB0000022114620461FF09FFA2046102119F00C
:100DC000EFFB019B054A06212046FFF727FF20463F
:100DD00002B070BDFFFF0F0030030020DCD6D20050
:100DE00070B50D46164634F0FDFF374A0446002123
:100DF0001EF00AFC20462C2248211AF0A5F92946AB
:100E0000204602221AF074F92046002241F605110C
:100E10001FF084FA20460022FF211FF093FA20469B
:100E2000002248F252411FF093FA2046002201218D
:100E30001FF0A2FA2046002204211FF0E3FA00224C
:100E4000114620461FF05EFA0022114620461FF090
:100E50005FFA0022114620461FF048FA0022114690
:100E600020461FF049FA1021204619F099FB204630
:100E700036F026F8144A002105461EF0C5FB142260
:100E8000114628461AF060F928460C221A211AF059
:100E90002FF92846002203211FF074FA2846002269
:100EA0004DF2BB611FF07AFA2846002201211FF0A3
:100EB0006FFA03223146284636F010F82846022100
:100EC00019F06EFB204670BDFFFF0F002DE9F041C9
:100ED000074692B088461046002116461C46FFF78A
:100EE00013FC00287DD13046FFF736FC0546FFF79E
:100EF00019FA01463046FFF75FF96649FFF766FACF
:100F00004FF07C51FFF75AF9FFF726FC632865DCA8
:100F1000614B624ACDE9005006AD1021284636F0FB
:100F200071F900212046FFF7EFFB002840F08D808B
:100F30002046FFF711FC0646FFF7F4F9014620466C
:100F4000FFF73AF95349FFF741FA4FF07C51FFF7A9
:100F500035F9FFF701FC63283DDC4F4B4F4A0AACE3
:100F6000CDE900601021204636F04CF91898002198
:100F7000FFF7CAFB00284DD11898FFF7EDFB064696
:100F8000FFF7D0F901461898FFF716F94149FFF726
:100F90001DFA4FF07C51FFF711F9FFF7DDFB6328D5
:100FA00016DC3D4B3D4ACDE900600EAE10213046C7
:100FB00036F028F9199B3A4ACDE90263CDE900548D
:100FC00043465021384636F01DF912B0BDE8F08195
:100FD00064380136E5E764380136BEE76438013528
:100FE00096E706F100463046FFF7B6FB0546FFF7E9
:100FF00099F901463046FFF7DFF82649FFF7E6F991
:101000004FF07C51FFF7DAF8FFF7A6FB632835DCD9
:10101000244B7EE7189B03F1004318460593FFF726
:101020009BFB0646FFF77EF901460598FFF7C4F8DB
:101030001849FFF7CBF94FF07C51FFF7BFF8FFF7E6
:101040008BFB63281EDC174BACE704F10044204601
:10105000FFF782FB0646FFF765F901462046FFF7DA
:10106000ABF80C49FFF7B2F94FF07C51FFF7A6F847
:10107000FFF772FB632809DC0A4B6FE7094B643802
:10108000013546E7074B643801368BE7054B64387A
:10109000013663E70000C842EC7E0308D4790308F8
:1010A000E0790308347A030810B53F4CA6B004A8D1
:1010B00001F052F8606AA0B19DF81030002B62D0A8
:1010C000BDF81220394935F0DBFD3949BDF814204F
:1010D000A06A35F0D5FD3749BDF81620E06A35F035
:1010E000CFFD206B002831D09DF81830002B3ED06A
:1010F000099A3149089B019100923049079A12A838
:10110000FFF7E4FE206B12A935F02AFD0C9A2C4B58
:101110002C49019300920B9B0A9A12A8FFF7D6FE66
:10112000606B12A935F01CFD9DF81930002B36D0EC
:101130000F9A25490191009224490E9B0D9A12A8FD
:10114000FFF7C4FEA06B12A935F00AFDE46B64B191
:10115000109A119B0392029304F0B2FEDDE9023271
:1011600000901B49204635F08BFD26B010BD194973
:1011700035F0F6FC606B184935F0F2FC1749A06BAE
:1011800035F0EEFCE2E7164935F0EAFCA06A1549B5
:1011900035F0E6FC1449E06A35F0E2FCA1E71349BA
:1011A000A06B35F0DDFCD1E748030020F879030897
:1011B000087A03081C7A0308607A0308547A030843
:1011C000707A0308647A03087C7A0308747A030847
:1011D000C87A03089C7A0308AC7A0308BC7A03082F
:1011E000287A0308387A0308487A0308807A0308C3
:1011F0002DE9F0478AB02EF0DFFF15F07FFF04469F
:10120000FFF7C8FC2046102119F0CAF90022114648
:1012100020461FF083F820460022FF211FF092F89D
:101220000022114620461FF06DF80022114620468C
:101230001FF06EF80022114620461FF057F80022DA
:10124000114620461FF058F82EF0B6FF15F056FF55
:1012500019F04CF9AE4EAF4AAF4F044600211EF0D4
:10126000D3F9B6F900102222204619F06DFF0022B2
:101270001146204619F03CFF002241F2A30120460E
:101280001FF04CF80022FF2120461FF05BF8A34A14
:1012900005212046FFF706FD3B68012B00F0768113
:1012A0002EF08AFF15F02AFFDFF87492DFF87482BF
:1012B0009D4BB9F90020B8F900108246FFF73AFDBE
:1012C000044601F07FFF002800F0B8810388974AA8
:1012D000974D202102A835F095FF964A02AB2021B8
:1012E0002046FFF79BFC944B924A38212046FFF79B
:1012F00095FC924B8F4A286050212046FFF78EFCC8
:101300008F4B904A20466821FFF788FC8E4BB9F935
:101310000020B8F902105046FFF70CFD8B4B854AB0
:1013200020210446FFF77AFC894B824A6860382105
:101330002046FFF773FC874B7E4AA8605021204669
:10134000FFF76CFCE860019005F04EFB824B83498F
:101350000246A3FB02320198920C35F091FC804BBF
:10136000744A68212046FFF759FC7E4B754A286174
:1013700080212046FFF752FCB9F90020B8F904108B
:10138000794B68615046FFF7D5FC784B694A2021BC
:101390000446FFF743FC6F4B664AA861382120469C
:1013A000FFF73CFC6B4BE861624A20465021FFF797
:1013B00035FC28622EF000FF15F0A0FE368819F0EB
:1013C00095F8544A002104461EF01EF9A6F11801B2
:1013D000204609B2302219F0B7FE654B2046B3F91A
:1013E00000200C2119F084FE2046002241F2A301C6
:1013F0001EF094FF20460022FF211EF0A3FF20468E
:10140000002248F252411EF0A3FF20460022012193
:101410001EF0B2FF0022114620461EF073FF00228C
:10142000114620461EF074FF0022114620461EF091
:101430005DFF0022114620461EF05EFF204610216F
:1014400019F0AEF84B4A06212046FFF7C9FC4FF0D1
:10145000FF334949072215F0BFFFA6F16601474A4D
:1014600009B22046FFF7BCFC01234349072215F0CF
:10147000B3FF204635F066FB4149044600221EF0CA
:10148000B5FF2046002248F252411EF09BFF002289
:10149000114620461EF056FF0022114620461EF03F
:1014A00031FF0022114620461EF032FF0022114675
:1014B00020461EF01BFF0022114620461EF01CFF96
:1014C0002046244935F04CFB0E222046002119F01D
:1014D0000FFEA6F1C001204609B22C6419F060FE8F
:1014E000286C0E22542119F003FE286C00220221E0
:1014F0001EF082FF3A682349286C0223013235F03E
:10150000BFFB214B01221A700AB0BDE8F08700BF73
:1015100030030020FFFF0F0034030020FC7A030893
:1015200026030020280300208C7B03089C7B0308F3
:1015300048030020DCD6D200B87B0308C47B030834
:10154000E07B030890888000F87B0308087C030890
:10155000187C0308EC7E030883DE1B43247C03080D
:10156000347C0308487C0308647C0308747C03080B
:101570002403002084820308991B00087882030852
:1015800098B70308847C0308390300202EF014FE6A
:1015900015F0B4FDDFF8A8802A4CB8F90020B4F9A2
:1015A0000010294B294D8146FFF7C4FB284B294ADF
:1015B00020218246FFF732FB274B6862254A3821FB
:1015C0005046FFF72BFB254BA862224A504650217C
:1015D000FFF724FBB8F90020B4F90210E862204BB1
:1015E0004846FFF7A7FB1F4B1A4A20218246FFF708
:1015F00015FB1D4B2863174A38215046FFF70EFB99
:101600001A4B6863134A50465021FFF707FBB8F99D
:101610000020B4F90410A863154B4846FFF78AFB75
:10162000144B154A20210446FFF7F8FA134BE863E0
:10163000114A20463821FFF7F1FABBE6034646E699
:101640002603002028030020147B03084803002001
:10165000287A0308DCD6D200387A0308487A0308CF
:10166000307B03089C7A0308AC7A0308BC7A030831
:101670004C7B03085C7B030890888000687B030830
:1016800030B585B004F05CFF3C4A1368C31AB3F56B
:101690007A7F04D33A4910600B6801330B60394BF1
:1016A0001B68002B3ED1384C606858B1374B384925
:1016B0001B78052BDAB296BF364B374A53F82220F7
:1016C00035F0DEFA20690023CDE90233C8B12C4A97
:1016D0001268A3F17733A3FB02C14909A3FB01C33D
:1016E0005B09C3EB0313A1EB8303C1EB0111A2EB75
:1016F000810100912949A1FB0212D20A284935F043
:10170000BFFA63694BB103A902A804F00FFEDDE93B
:1017100002232449606935F0B3FA234B1A7832B9B1
:1017200005B030BD05B0BDE83040FFF7BDBC03F0EB
:10173000D3FB054603F02CFBA2681B4B72B1ADB185
:101740000178312910D030290CD005F01E011E2956
:1017500012D01649104635F003FA134B00221A70C6
:1017600005B030BD1249F5E71249F3E712491046BA
:1017700035F0F6F90C4BF1E71049EBE73C0300209C
:10178000400300203403002048030020C00A00204A
:10179000207D0308608203088C7C0308C5B3A291F6
:1017A000307D0308487D030838030020087D0308C6
:1017B000BC7C0308947C0308687D0308E47C030870
:1017C00070B54F4B1C7884B0002C77D04D4A4E4DED
:1017D0004E4C002313602B6004F0B2FE4C4B4D4A7C
:1017E00018602368012111705BB100F08FFC26683E
:1017F000002859D000F090FC47490246304635F0A9
:101800003FFA03F069FB064603F0C2FAA36873B11E
:10181000002E6DD00278312A4BD0302A6DD006F0E0
:101820001E061E2E5AD03D49184635F099F96068BB
:1018300058B13B4B3B491B78052BDAB296BF3A4B6C
:101840003A4A53F8222035F01BFA20690023CDE9EB
:101850000233C0B12A68A3F17733A3FB02514909CF
:10186000A3FB01535B09C3EB0313A1EB8303C1EBA0
:101870000111A2EB810100912D49A1FB0212D20AB4
:101880002C4935F0FDF963694BB103A902A804F0B6
:101890004DFDDDE902232849606935F0F1F9274C57
:1018A0002268EAB104B070BD2549304635F058F9D8
:1018B000A7E72449184635F053F9B8E7FFF76AF966
:1018C0002EF07AFC15F01AFC1EF076FE442221461A
:1018D0000E48FFF72BF8FFF78BFC77E71A49E9E78B
:1018E0004FF4FA71194831F091FF206004B070BDD7
:1018F0001749184635F034F999E71649DAE700BF79
:101900003903002034030020400300204803002056
:101910003C030020380300207C7D0308087D030879
:10192000C00A0020207D0308608203088C7C030825
:10193000C5B3A291307D0308487D0308440300200D
:10194000987D0308947C0308E47C03088116000852
:10195000687D0308BC7C030870B506462EF02CFC9D
:1019600015F0CCFB244C0546206818B131F072FF0D
:10197000002323602EF020FC15F0C0FB1EF01CFE9F
:10198000442200211D48FEF7D1FF1D4B00241C708E
:10199000FFF700F92846102118F002FE22462146E2
:1019A00028461EF0BBFC22462846FF211EF0CAFC3A
:1019B0002246214628461EF0A5FC224621462846FE
:1019C0001EF0A6FC2246214628461EF08FFC224629
:1019D000214628461EF090FC0A4B2146A64214BF21
:1019E00032461A462846FFF75DF92346224609216A
:1019F000BDE8704019F03EBC4403002048030020BD
:101A000039030020EC7E0308034B1B7813B1034B12
:101A100001221A70704700BF3903002038030020EC
:101A200030B54B4D2B68181800F0010048BF4042FC
:101A3000421C08BF0120834285B071D0454C28600C
:101A40002EF0BAFB15F05AFB1EF0B6FD4422002121
:101A50002046FEF76BFF404B00221A70FFF7C8FBD1
:101A60002B68002B5ED1606858B13C4B3C491B7819
:101A7000052BDAB296BF3B4B3B4A53F8222035F098
:101A8000FFF823685BB100F041FB256800284ED0C9
:101A900000F042FB35490246284635F0F1F803F0E4
:101AA0001BFA054603F074F9A36873B1002D45D005
:101AB0000278312A40D0302A45D005F01E051E2D6F
:101AC00043D02B49184635F04BF820690023CDE967
:101AD0000233C8B1274A1268A3F17733A3FB02513E
:101AE0004909A3FB01535B09C3EB0313A1EB830378
:101AF000C1EB0111A2EB810100911F49A1FB021270
:101B0000D20A1E4935F0BCF863694BB103A902A89B
:101B100004F00CFCDDE902231949606935F0B0F8E6
:101B200005B030BD05B0BDE83040FFF7BDBA15497E
:101B3000284635F015F8B2E71349C3E713491846AC
:101B400035F00EF8C1E71249BCE71249BAE700BF09
:101B5000340300204803002039030020C00A00207D
:101B6000207D0308608203088C7C03087C7D0308C9
:101B7000087D030840030020C5B3A291307D03080F
:101B8000487D0308987D0308947C0308687D03085A
:101B9000BC7C0308E47C030808B515F005FCBDE82F
:101BA0000840FFF73DBF00BF024B00221A70012022
:101BB000704700BF8C05002008B5012009F04AFEDF
:101BC000034A0346003818BF0120136008BD00BF58
:101BD00090050020034B186818B14FF0FF310AF050
:101BE00005B9704790050020044B186820B1002308
:101BF0001A46194609F05CBC704700BF90050020EA
:101C000008B520B1012818BF012008D008BD012067
:101C10000DF03EFD80F001004000C0B208BD03F0B1
:101C2000F9FCB0FA80F04009400008BD18B1012865
:101C300002D001207047704708B503F0EBFCB0FA02
:101C400080F04009400008BD70B50E4684B01446CF
:101C500010B3012802D0042004B070BD002BFAD0CC
:101C60008A0736D0C4EBC4521D1901EB422601226B
:101C700021461E4803F0D4FC03461C494FF4007271
:101C800006EB4420002B2ED1013435F02CFBAC4266
:101C9000EDD1002004B070BD154D02909BB20093B1
:101CA000144C13460A4601460120287001940DF099
:101CB000B7FD2B78002BECD0012008F09BFF2B7890
:101CC000002BE6D0012008F095FF2B78002BF3D1F4
:101CD000DFE71A462146304603F0A2FC003818BF61
:101CE000012004B070BD0120B6E700BF8C030020C6
:101CF0008C050020A91B000870B50E4684B0144660
:101D000008B3012802D0042004B070BD002BFAD023
:101D10008A0735D0C4EBC4521D1901EB42264FF49B
:101D2000007206EB44211C4835F0DDFA1A48012206
:101D3000214603F09FFC00282CD10134AC42EED1A7
:101D4000002004B070BD154D02909BB20093144C5E
:101D500013460A4601460120287001940DF0F8FD53
:101D60002B78002BECD0012008F044FF2B78002BBF
:101D7000E6D0012008F03EFF2B78002BF3D1DFE7FF
:101D80001A462146304603F075FC003818BF012082
:101D900004B070BD0120B7E78C0300208C05002043
:101DA000A91B000810B584B028B9032906D8DFE8BC
:101DB00001F01E2A211C0128034602D0042004B091
:101DC00010BD0C4600204FF40071022C0390ADF8BA
:101DD0000A1021D85CB10DF10A0103A8CDE9003247
:101DE00003F072FCE0B10098E9E7012313600020E2
:101DF00004B010BD0021012000920DF03BFC009AC0
:101E000010800020F4E70021012000920DF024FC56
:101E1000009A10600020EBE7032CCFD11360E6E7B7
:101E2000012C019A0BBF039BBDF80A30136013808D
:101E3000DDE700BF70B5164E164D002407E0023AEC
:101E4000012A20D8A3070FD0642008F0D3FE013464
:101E500005FB04F3B3F1333F0AD93378042BDAB22C
:101E60000DD0ECD9052A0ED1012003F013F9EBE7D0
:101E7000002003F00FF93378042BDAB2F1D10120FE
:101E800003F0ECF8E0E7012003F0F4F8DCE700BF32
:101E9000C00A0020CDCCCCCC10B5044609F062F9C4
:101EA0000228204603D0BDE8104004F04FBBBDE837
:101EB000104008F09FBE00BF00B583B072B6084C5A
:101EC0000025012003F0E6F80195019BA342F8D814
:101ED000019B01330193019BA342F9D9F1E700BFB4
:101EE000FEFF010000B597B004F004FB0023CDE92C
:101EF0000C33CDE90E33CDE90533CDE907334B493A
:101F000003930993086C4A4A40F080500864096CB6
:101F100001F08051039103990493136843F4404303
:101F20001360136801204FF4803103F44043CDE97E
:101F30000A0104934FF480010225CDE91051049861
:101F400007210220CDE9140119224FF4A8730AA831
:101F50001292139304F05EFB58BB03460F21CDE9A8
:101F600005154FF4A052079305A84FF4805305219F
:101F7000CDE9082304F06CFD0446D0B903F040F825
:101F8000204603F077F8012003F074F803F09EFF79
:101F900001F00CF801F056F87F2003F0B3FA03F0DB
:101FA000B3FB044628B923480AF0ECFEFFF704FE11
:101FB00008B9FFF781FF00F0C3FC0028F9D0032324
:101FC000CDE900341C491D4823464FF4806208F0D7
:101FD0000FFC0423CDE9003419491A4823464FF475
:101FE000007208F005FC01231E4600931649019477
:101FF00023464FF40072154808F0FAFB2346CDE95A
:102000000064134913484FF4807208F0F1FBCDE9E6
:1020100000541149114823464FF4C06208F0E8FB10
:1020200084F3118862B608F079FCC2E700380240F8
:102030000070004050000020F47D0308852900084E
:10204000FC7D0308B5240008047E03089D210008D8
:102050000C7E0308351E0008107E03087925000851
:1020600008B5FFF729FF00BF08B5FFF725FF00BF40
:1020700008B5FFF721FF00BF704700BF10B5124C35
:1020800084B0226800230393ADF80A3012B1002017
:1020900004B010BD03F048FA98B90DF10A0103A885
:1020A00003F012FBFFF796FD08490948012213F0DF
:1020B00083FF0190FFF798FD019810B90123236079
:1020C000E5E7012004B010BD94050020147E03084C
:1020D0009805002008B50B4B1A681AB9BDE80840EE
:1020E00003F08CBAFFF776FD00221046064913F084
:1020F00063FFFFF779FD034B00221A60BDE808403B
:1021000003F07CBA94050020147E0308014B186884
:10211000704700BF9405002000B50E4B83B01B68CC
:1021200000214FF400720191ADF8022013B9002094
:1021300003B000BD0DF1020101A803F0C5FA0028AB
:10214000F5D10198BDF80230800A03FB00F0800A47
:1021500003B000BD94050020E8B100B583B0019044
:102160000AF0AAFBDFF830E0DDF804C0BEE80F009B
:10217000ACE80F00BEE80F00ACE80F00BEE80F00AF
:10218000ACE80F009EE803008CE8030003B05DF8A4
:1021900004EB0AF0B1BB7047E40700202DE9F04FD3
:1021A0008DB000F007FC054602F082FFDFF8CCA1FD
:1021B000DFF8CCB1002840F0978003AB0093714B5F
:1021C000714E724CDFF8C89101934FF0010809E09D
:1021D000791E2180DAF80030CBF830304FF4FA70F5
:1021E00008F008FDDAF800100131CAF8001085B3D4
:1021F0002788002FECD1009803F0A6F8C21CDAF86B
:10220000003039D8DDF80CE0CBF80CE0DDF810E058
:10221000CBF810E0DDF814E0CBF814E0DDF818E0BE
:10222000CBF818E0DDF81CE0CBF81CE0DDF820E08E
:102230008BF80880CBF820E088BB0999CBF82410F4
:102240000A99CBF828100B99CBF82C108BF8098041
:10225000C2E7318811B101393180C9E7009800F037
:10226000D9FB60BBBDF810000399ABF80200CBF8B6
:1022700004108BF80080BBE7DBF83410ABF8087073
:102280000131CBF83410D9F800104FF0040222804D
:1022900011B1591A77299DD9C9F800309AE7DBF8AE
:1022A00034108BF809700131CBF83410D9F80010D4
:1022B00011B1591A77298FD9C9F800308CE7DBF8AA
:1022C0003410019BDAF800008BF800500131CBF894
:1022D000341019684FF00403338011B1411A772983
:1022E00086D9019B186083E75DB1DAF800104FF4DE
:1022F000FA700131CAF80010CBF8301008F07AFCFF
:10230000F3E7204B019303AB1F4E009304250124F8
:102310000BE007F1FF38A6F80080DAF80010CBF8E0
:1023200030104FF4FA7008F065FCDAF800103788C6
:1023300000980131CAF80010002FEAD100F06AFBC2
:1023400048B9BDF81010ABF8021003998BF80040A3
:10235000CBF80410E1E7DBF83410019BDAF8000059
:102360008BF800700131CBF834101968358011B149
:10237000411A7729D1D9019B1860CEE7E0070020E8
:10238000E4070020DC070020D6070020D407002047
:10239000D807002010B58AB0274B002204921A6C8F
:1023A00042F020021A641B6C03F0200304930446DD
:1023B00003A905A8049B04F005FC089BEBB904F0F5
:1023C000E1FB03461D4A1E481E49A2FB03239B0C4A
:1023D000013B0022C0E9001340F2E733C0E90522C7
:1023E00002618260C36005F057FF50B1372004F0EE
:1023F00003F9012210460AB010BD04F0C3FB4300EC
:10240000E0E70F4806F01AF80D4805F0DDFF0190EF
:10241000372004F0F1F8019A002AEAD10F2CE8D80D
:1024200021463720019204F0B5F8019A064B104678
:102430001C600AB010BD00BF0038024083DE1B43A1
:10244000200800200014004060010020034B0268B7
:102450009A4200D0704704F067B800BF00140040F3
:10246000FEE700BFFEE700BFFEE700BFFEE700BFDC
:10247000FEE700BF704700BF014805F0FFBF00BF87
:1024800020080020012100200FF016BC014804F0B4
:1024900037BE00BF441A0020044A05491368002BC8
:1024A00008BF0B46184410601846704768080020A3
:1024B0004052002038B503F0CFFB50B14FF47A7092
:1024C00008F098FBFAE70F20013408F093FB032C87
:1024D0002CD103F0EFFC05464FF47A7003F03CFC7E
:1024E00018B3002403F04AFC00280FDD0F2008F089
:1024F00081FB03F043FC0028F8DC0F2008F07AFB96
:1025000003F03CFC00284FF00104EFDC0F20013405
:1025100008F070FB032CE5D103F0CCFC05464FF42A
:102520007A7003F019FC0028DBD1044603F026FC86
:102530000028C8DD03F0BEFCA8424FF00F000AD00F
:1025400008F058FB03F01AFC0028F3DC0F2008F019
:1025500051FB0124EAE708F04DFB03F00FFC0028D3
:1025600002DD4FF0FF35E5E70F2008F043FB4FF0A9
:10257000FF350124DAE700BF2DE9F04F85B000F008
:102580006BFE20B14FF47A7008F034FBFAE7814615
:1025900017F080FF03F022FF03F06CFF5D48DFF8C7
:1025A00078A15E4C5E4D5F4E5F4FDFF88081FFF794
:1025B000D3F931F017F808F07DFB5D4ACAF8000046
:1025C000A0F5FA73136008F075FB23784B4583463A
:1025D0002DD02B7894F80090012B5FFA89F963D005
:1025E000327852BB3A7842B9514A1268022BABEBAF
:1025F000020229D0B2F5FA7F7BD24E4A127812B984
:102600002278042A2BD03BB9DAF8003042F20F725C
:10261000ABEB030393424DD830F0E4FF052008F004
:10262000E9FA08F047FB23784B458346D1D12B7854
:10263000012B21D03278002AD4D03B78002B42D015
:102640002B78012BD9D117E040F6B7339A4250D8F6
:10265000384B1B78002BDFD12378042BDCD1354A93
:1026600035480123137002F097FB002837D02B78F0
:10267000002BC9D0012BCFD198F80030002BCBD143
:102680002E4A1268002AC7D0ABEB020240F2DB519F
:102690008A42C1D9CDE9023303A9012302A888F8EF
:1026A000003003F043FEB7E7FFF7AEF92B78012BBC
:1026B000E2D0BFE72248FFF74FF91D4BC3F800B047
:1026C00002232B70A8E701221E4801933A7002F002
:1026D00063FB20B1FFF7FEFC019B3370B0E703F012
:1026E00005FEFFF76DF8154BC3F800B001232B7002
:1026F000C2E70F4BC3F800B0FFF7C0FC10B90123CD
:1027000033709AE70120FFF7B7FC3378002B97D09E
:1027100093E700BF187E030874080020C00A002059
:102720007F0800207E0800207D0800206C08002023
:10273000780800207C080020347E03087008002000
:10274000387E0308147E030870B51948194CADF59E
:102750001C7D14F015FB184814F012FB0FCC0DF182
:10276000080CACE80F0094E803008CE8030002AC0E
:1027700008AD21680A22284613F05EFC90B966680D
:102780003046FEF733F801AB02463146284613F0D7
:1027900089FE0834284614F0AFF8AC42E9D10DF5B3
:1027A0001C7D70BD0834AC42E3D10DF51C7D70BDBD
:1027B000587E030878790308607E0308062900D153
:1027C00070472DE9F043ADF52F7D0446884601465C
:1027D00002A89946174614F025FA002833D10DF1C6
:1027E000720616A902A814F08FFA48BB9DF8723041
:1027F00033B330882E28F4D042F62E63984226D088
:102800002046FDF7F3FF20B1204410F8013C2F2BA8
:1028100021D0184B184ACDE900364FF4A071234659
:102820005EA834F0EFFC9DF86430DB0615D43B68FD
:1028300001333B6016A902A814F066FA0028D5D02F
:1028400002A814F045FA0DF52F7DBDE8F083B378AA
:10285000002BC6D0D4E7094BDCE7D9F800300133B0
:10286000C9F800305EA84B463A4608F10101FFF76F
:10287000A5FFB6E76C7E0308787E0308EC7E0308AC
:1028800070B51C4B1C4D1B681C4E84B01A0CADF867
:1028900004308DF8062028684FF0FF3109F0A6FAC1
:1028A00001200CF0F5FE0028F5D003233370FFF76C
:1028B00091F91348012201A913F07EFB0423044679
:1028C00098B9CDE902003370FFF73EFF0D4803AB26
:1028D00002AA2146FFF772FF20200AF039F908B159
:1028E0000AF0CEF9FFF780F9D5E705233370FFF73B
:1028F0007BF9D0E7347E030880080020C00A00205E
:1029000084080020807E0308054A064B10680222D6
:102910001A7020B100231A46194608F0C9BD704745
:1029200080080020C00A00200022034B03491A70CF
:10293000104613F041BB00BFC00A0020347E0308DC
:1029400000B5032283B00021012008F061FD0A4B8D
:10295000186070B100230222CDE90023074908481E
:102960004FF4006207F044FFA0F10100B0FA80F0DC
:10297000400903B000BD00BF80080020847E03082A
:102980008128000800B583B003F02AFB084B002023
:102990001B8BADF8043001A90AF064FA28B10021BC
:1029A0004FF0FF300AF036FEF9E7FFF785FAF6E759
:1029B0007879030870B50A2088B0FFF76DFA012412
:1029C00004220A260DF11F058DF81F20CDE90146CE
:1029D0000F480095234600223C2105F0A3F998B941
:1029E00005901420FFF758FA4FF0030CCDE901468B
:1029F0000748059A009523463C218DF81FC005F035
:102A000091F908B908B070BD4FF0FF30FAE700BF88
:102A1000D00A00202DE9F0410A2486B0074604AD13
:102A2000A0460126CDE901681A48009501232246F7
:102A30003C2105F075FA40BB0134A4B2102C05F11D
:102A40000105EFD19DF910209DF81030824205DB81
:102A50009DF8110003F0030343EA80009DF8143051
:102A6000BDF812203A805A06B8800CD49DF8152083
:102A7000120103F00F0302F47C72134300207B80E9
:102A800006B0BDE8F0810023F8E74FF0FF3006B054
:102A9000BDE8F081D00A00200E490F4AD1F8FC3081
:102AA000DFF838C043F08073C1F8FC3013680021B0
:102AB00043F0010313605160DCF800300849A1FBCA
:102AC00003139B0C516803FB00F053685B1A8342AD
:102AD000FBD3704700ED00E0001000E0580100203B
:102AE00083DE1B4370B51A4C06460D4602F080FF8C
:102AF0002078400000F0FE0002F0CAFF10BB300A50
:102B000002F0C6FFF0B9F0B202F0C2FFD0B902F095
:102B10006FFF2078400040F00100C0B202F0B8FF23
:102B2000064678B9013D0446E01E18BF012003F0B7
:102B300005F80134042C05F8010FF5D102F080FFEF
:102B4000304670BD02F07CFF4FF0FF36F8E700BF63
:102B5000C80A00202DE9F04F914B924C924D934FB3
:102B600093488DB04FF0000A83F800A03F22914BAC
:102B7000CDF808A0C4F800A085F800A087F800A050
:102B800084F804A022701A6B42F080021A631A6B58
:102B900002F080020292029ACDF80CA01A6B42F465
:102BA00080721A631B6BCDF828A003F48073022295
:102BB0004FF4807B0126039306A9039B09924FF0F3
:102BC0000009CDF818B04FF08008CDE9076604F091
:102BD00019F87948089606A9CDE9068904F012F893
:102BE00002F0C4FE59465246714804F015FA0A2014
:102BF000FFF752F9324659466D4804F00DFA0A20A3
:102C0000FFF74AF96C48CDF820A006A9CDE906895E
:102C100003F0F8FF6420DFF8A491FFF73DF909F114
:102C2000020B99F800302B7001A948F24010CDF842
:102C300004A0FFF757FF09F10109804650B1CB45C9
:102C400085F800A0EDD1019B236084F804A04FF02B
:102C5000FF3855E02B78019A20712260002BF6D0C6
:102C600057495048FDF7B8FD28B156494D48FDF782
:102C7000B3FD002848D102F0BBFE2878400000F0E8
:102C8000FE0002F005FF002840F0FC80802002F0EA
:102C9000FFFE002840F0F680472002F0F9FE0028F1
:102CA00040F0F08002F0A4FE2878400040F00100DF
:102CB000C0B202F0EDFE002840F0E48004460DF1C1
:102CC0001009201F18BF012002F038FF0134052C25
:102CD00009F8010BF5D102F0B3FE9DF810303A4A25
:102CE000BDF811103B70394B1180BDF813201A80CC
:102CF00033492C48FDF770FDC8B1294A01231370F0
:102D000040460DB0BDE8F08F31492648FDF764FD1F
:102D10000028B0D02F492348FDF75EFD0028AAD037
:102D20002D492048FDF758FD0028A4D035E002F0D9
:102D30005FFE2878400000F0FE0002F0A9FE50BBC4
:102D4000802002F0A5FE30BB402002F0A1FE10BBA7
:102D5000022002F09DFE0446E8B902F071FE3B78C5
:102D60005F2B3BD902F044FE2878400000F0FE00C3
:102D700002F08EFE48B9802002F08AFE28B9402079
:102D800002F086FE08B902F083FE02F059FE0A2026
:102D9000FFF782F8B1E702F053FE6FF00108AFE7EA
:102DA000C70A002060000020C80A0020C60A0020D0
:102DB0000020024000380240001C024090820308BC
:102DC000287F0308307F0308C40A0020C20A0020BD
:102DD000347F03083C7F0308447F0308DFF8ACA07E
:102DE0000AF1FF330AF1B70113F8012F8B421444A3
:102DF000FAD102F0FDFD2878400000F0FE0002F05C
:102E000047FE00283BD1802002F042FEB8BB47209D
:102E100002F03EFE98BBDFF878909AF8000002F0CE
:102E200037FE60BB0AF1010ACA45F6D102F008FE7E
:102E300002F0DEFD2878400000F0FE0002F028FEDF
:102E4000E8B9802002F024FEC8B9FF2002F020FE7D
:102E5000A8B96042C0B202F01BFE80B9012002F0A6
:102E600017FE60B902F0ECFD60233B70094B4FF494
:102E7000F0721A80084B4FF448721A8072E702F021
:102E8000DFFD6FE702F0DCFD32E700BF9882030848
:102E900050830308C40A0020C20A0020024B18789D
:102EA000003818BF01207047C70A0020014B18885E
:102EB000704700BFC40A0020014B1888704700BF4C
:102EC000C20A00202DE9F041364B1B7882B0002B5E
:102ED00065D0002863D0002961D0DFF8CC80074698
:102EE0000E4602F085FD98F80000400000F0FE005C
:102EF00002F0CEFD002850D1812002F0C9FD00284B
:102F00004BD14E2002F0C4FD002846D102F070FDE6
:102F100098F80000400040F00100C0B202F0B8FD97
:102F20000546002839D102F009FE00F00F0402F036
:102F300087FD052E28BF0526A64228BF2646CEB906
:102F400002F056FD98F80000400000F0FE0002F08C
:102F50009FFD48B9812002F09BFD28B94E2002F068
:102F600097FD08B902F094FD02F06AFD284602B010
:102F7000BDE8F08148F2501401A92046FFF7B2FDE8
:102F80000028DDD10135EDB2019B47F8043B083440
:102F9000AE42A4B2F0D13546D2E702F051FD4FF077
:102FA000FF35E3E7C70A0020C80A00202DE91048D2
:102FB00089B01F4B002400941A6C42F480021A64FA
:102FC0001A6C02F480020092009A01941A6B42F08B
:102FD00080021A631B6B3020122103F08003CDE9BD
:102FE000020101931348019A04234FF0030C02A934
:102FF0004FF0010B0693CDE904BC03F003FE0E482D
:103000000E490F4A04624FF48043C0E90012C0E940
:103010000244C0E90434C0E9064404F0B9FB10B925
:1030200009B0BDE81088FEF747FF09B0BDE8108879
:1030300000380240001C0240D00A00200058004026
:10304000A0860100F0B55C4C5C4922685369906928
:103050000A6995068DB002D5810740F1A480102041
:1030600001210023CDE9060103225448089306A953
:10307000CDE9092303F0C6FD01225048102103F0D9
:10308000CBFFB4230193019B5A1E01922BB100BFC9
:10309000019B5A1E0192002BF9D1484D0926B427F5
:1030A00000221021284603F0B7FF0397039B5A1E06
:1030B00003922BB100BF039B5A1E0392002BF9D140
:1030C00001221021284603F0A7FF0297029B5A1EF7
:1030D00002922BB100BF029B5A1E0292002BF9D123
:1030E0002B699A0601D4013EDAD120220123CDE9D1
:1030F0000623002503233148089506A9CDE90935A3
:1031000003F080FD2A462D48202103F085FFB423DB
:103110000593059B5A1E05922BB100BF059B5A1EB5
:103120000592002BF9D101222448202103F074FFDD
:10313000B4230493049B5A1E04922BB100BF049B3A
:103140005A1E0492002BF9D11B4804F0F1FB1A48D7
:1031500004F01EFB30221223CDE9062301220323B3
:10316000CDE908231548042306A90A9303F04AFD74
:103170001349114800234FF48042C4E90113C4E904
:103180000332C4E90533C4E9073304F001FB80B915
:1031900023689B699B070CD4084B1869C0F3401047
:1031A00001380DB0F0BD13F4E0607FF458AF0DB0FE
:1031B000F0BD4FF0FF30F4E7D00A0020001C0240C1
:1031C000A086010000487047280B0020024B1878A9
:1031D000003818BF01207047240B0020DFF870C0B2
:1031E000DCE9031200B5BCF8063002FB01F100BFB8
:1031F000184AA2F8FE3000BF0023A2F80031BCF844
:1032000006E00EF1010E00BFA2F8FEE000BFA2F83A
:103210000031BCF808E000BFA2F8FEE000BFA2F851
:103220000031BCF808E00EF1010E00BFA2F8FEE08C
:1032300000BFBCF804C0A2F80031A2F8FEC000BF75
:1032400021B101339942A2F80001FAD100BD00BFBB
:10325000280B002000FF07602DE9F04FAC4CAD4A71
:10326000AD4895B000264FF448714FF4F073C4E9AF
:10327000031362604FF42C5332462021A6600127CD
:10328000CDE90766CDE90966CDE90B66CDE90E66A5
:10329000CDE91066CDE91266CDE90266CDE9046696
:1032A0002660238106960D960196022503F0B4FE52
:1032B00020239948019301A9CDE9027704954FF0A5
:1032C000030903F09FFC0C23CDE9049393484FF6C8
:1032D000B37301A9CDE90256019303F093FC4FF6B5
:1032E00080738F48019301A903F08CFC4FF23F03D8
:1032F0008C48019301A903F085FC3F238A48019380
:1033000001A903F07FFC894B0C964FF0100818467A
:10331000C3E90266C3E90666C3E90866C3E90D6648
:103320001E61DE62DE635E641396C3F81480804E15
:10333000099711230B9312934FF02043C0E90036F5
:103340004FF4805383624FF480434FF00F0A0363BE
:103350000DAA462306A9CDE906AACDE90DAA109724
:10336000CDF83CA0CDF82880CDF84480089305F036
:1033700099F9002840F026810646142003F0E6F86B
:1033800000BF6C4B4FF45B42A3F8FE2000BFB3F8C4
:103390000021ADF81820BDF8181000BF4FF45C42B2
:1033A000A3F8FE2000BFB3F80021ADF83420BDF82B
:1033B0003420D2B242EA012292B2B2F5004F22800A
:1033C00000F0088100BFA3F8FE7000BF00BF00BF7F
:1033D00000BF00BF00BF00BF00BF00BF00BF00BFF5
:1033E00000BF00BF00BF00BF00BF00BF00BF00BFE5
:1033F00000BF00BF00BF00BF00BF00BF00BF00BFD5
:1034000000BF00BF00BF00BF00BF00BF00BF00BFC4
:1034100000BF00BF00BF00BF00BF00BF00BF00BFB4
:1034200000BF00BF00BF00BF00BF00BF00BF7823C8
:1034300000BF00BF00BF00BF00BF013B9BB2002B1D
:10344000F6D100BF3B4B1122A3F8FE20782300BF2A
:1034500000BF00BF00BF00BF013B9BB2002BF6D1F5
:1034600000BF344A3A21A2F8FE105521A2F80011FB
:1034700000BF3621A2F8FE10A2F8003100BF2923B8
:10348000A2F8FE30142300BF00BF00BF00BF00BF82
:10349000013B9BB2002BF6D1274B5A6822F00F025A
:1034A0005A605A6822F470625A605A6842F0040204
:1034B0005A605A6842F480625A6000BFD4E903310E
:1034C0001C4A4FF45850A2F8FE008B424FF0000007
:1034D000A2F8000184BF9BB2C4E90313E28800BFD5
:1034E000144BA3F8FE2000BFE2880020A3F80001DF
:1034F000013200BFA3F8FE2000BFE288A3F800015C
:10350000023200BFA3F8FE20E268013A120A15E079
:10351000280B0020002C002A00040240000C02406E
:103520000010024000140240001802403C0B002032
:10353000040100A000FF0760000100A000BFA3F885
:103540000021E288033200BFA3F8FE20E268013ABE
:10355000D2B200BFA3F80021228900BFA3F8FE2049
:1035600000BF2289A3F80001013200BFA3F8FE20AA
:1035700000BF2289A3F80001023200BFA3F8FE2099
:103580002269013A120A00BFA3F800212189033100
:1035900000BF2269A3F8FE10013AD2B200BFA3F81F
:1035A0000021FFF71BFE00F1804000F501300122F1
:1035B000202103F031FD064B012230461A7015B070
:1035C000BDE8F08F3E46304615B0BDE8F08F00BF35
:1035D000240B002000BF4FF200024FF0550EA3F85D
:1035E000FE20A3F800E100BF4FF201004FF0AA0C4B
:1035F000A3F8FE00A3F800C100BF4FF2020B4FF08A
:103600005202A3F8FEB0A3F8002100BF4FF2030C52
:10361000A3F8FEC04FF0080CA3F800C100BF4FF2A2
:103620000402A3F8FE20A3F8007100BF4FF430425B
:10363000A3F8FE200D22A3F8002100BF4BF20101E8
:10364000A3F8FE10A3F8002100BF4BF20201A3F87B
:10365000FE10A3F8002100BF4BF200603421A3F854
:10366000FE00A3F8001100BF4BF20160A3F8FE00BA
:10367000A3F8001100BF4BF20260A3F8FE00A3F80C
:10368000001100BF4BF2001BA3F8FEB0A3F800210D
:1036900000BF4BF2011EA3F8FEE0A3F8002100BF1B
:1036A0004BF20210A3F8FE00A3F8002100BF4BF27A
:1036B0000072A3F8FE20A3F8001100BF4BF2017EB8
:1036C000A3F8FEE0A3F8001100BF4BF20272A3F8CA
:1036D000FE20A3F8001100BF4FF43242A3F8FE20F1
:1036E000A3F8006100BF4BF20122A3F8FE20A3F86B
:1036F000006100BF4BF20222A3F8FE20A3F8006194
:1037000000BF4BF60002A3F8FE202422A3F80021FC
:1037100000BF4BF6010BA3F8FEB0A3F8002100BFD9
:103720004BF6020EA3F8FEE0A3F8002100BF4FF411
:103730003F40A3F8FE00A3F8007100BF4FF43340F0
:10374000A3F8FE00A3F800A100BF4BF20130A3F8DC
:10375000FE00A3F800A100BF4BF20230A3F8FE0068
:10376000A3F800A100BF4FF43940A3F8FE00A3F86E
:10377000001100BF4BF60110A3F8FE00A3F80011E2
:1037800000BF4BF60210A3F8FE00A3F8001100BF23
:103790004FF43540A3F8FE00A3F800C100BF4BF280
:1037A0000150A3F8FE00A3F800C100BF4BF2025085
:1037B000A3F8FE00A3F800C100BF4FF44240A3F8F5
:1037C000FE00A3F8009100BF4FF43A40A3F8FE00BA
:1037D000A3F8002100BF4BF60120A3F8FE00A3F8D8
:1037E000002100BF4BF60220A3F8FE00A3F8002141
:1037F00000BF4BF6004AA3F8FEA0A3F8006100BF8B
:103800004BF6014A7822A3F8FEA0A3F8002100BFDE
:103810004BF6024AA3F8FEA0A3F8006100BF4FF4E4
:103820003D40A3F8FE00A3F8006100BF4BF6015035
:10383000A3F8FE00A3F8002100BF4BF60252A3F844
:10384000FE20A3F8006100BF4FF43E42A3F8FE2023
:10385000A3F8006100BF4BF60162A3F8FE206422CA
:10386000A3F8002100BF4FF45142A3F8FE20A3F8B3
:10387000006100BF4DF201123320A3F8FE20A3F82F
:10388000000100BF4DF20212A3F8FE20A3F8006170
:1038900000BF4DF20312A3F8FE20A3F8001100BFF1
:1038A0004DF20412A3F8FE20A3F8006100BF4DF210
:1038B00005124FF03A0BA3F8FE20A3F800B100BFA9
:1038C0004DF20612A3F8FE20A3F8006100BF4DF2EE
:1038D00007124FF04A0EA3F8FE20A3F800E100BF44
:1038E0004DF20812A3F8FE20A3F8006100BF4DF2CC
:1038F00009124FF05C0CA3F8FE20A3F800C100BF32
:103900004DF20A12A3F8FE20A3F8006100BF4DF2A9
:103910000B12A3F8FE204FF08102A3F8002100BF94
:103920004DF20C12A3F8FE20A3F8006100BF4DF287
:103930000D124FF0A60AA3F8FE20A3F800A100BFC5
:103940004DF20E12A3F8FE20A3F8006100BF4DF265
:103950000F12A3F8FE204FF0E502A3F8002100BFEC
:103960004DF21012A3F8FE20A3F8007100BF4DF233
:1039700011124FF0130AA3F8FE20A3F800A100BF14
:103980004DF21212A3F8FE20A3F8007100BF4DF211
:103990001312A3F8FE204FF05402A3F8002100BF39
:1039A0004DF21412A3F8FE20A3F8007100BF4DF2EF
:1039B00015124FF0820AA3F8FE20A3F800A100BF61
:1039C0004DF21612A3F8FE20A3F8007100BF4DF2CD
:1039D0001712A3F8FE204FF0CA02A3F8002100BF7F
:1039E0004DF21812A3F8FE20A3F8005100BF4DF2CB
:1039F0001912A3F8FE20A3F8006100BF4DF21A12BD
:103A0000A3F8FE20A3F8005100BF4DF21B12A3F84B
:103A1000FE20A3F8007100BF4DF21C12A3F8FE2097
:103A2000A3F8005100BF4DF21D12A3F8FE20A3F829
:103A3000001100BF4DF21E12A3F8FE20A3F80051A2
:103A400000BF4DF21F124FF0670AA3F8FE20A3F843
:103A500000A100BF4DF22012A3F8FE20A3F80051F0
:103A600000BF4DF22112A3F8FE204FF08402A3F80C
:103A7000002100BF4DF22212A3F8FE20A3F800514E
:103A800000BF4DF223124FF0A40AA3F8FE20A3F8C2
:103A900000A100BF4DF22412A3F8FE20A3F80051AC
:103AA00000BF4DF22512A3F8FE204FF0B702A3F895
:103AB000002100BF4DF22612A3F8FE20A3F800510A
:103AC00000BF4DF227124FF0CF0AA3F8FE20A3F853
:103AD00000A100BF4DF22812A3F8FE20A3F8005168
:103AE00000BF4DF22912A3F8FE204FF0DE02A3F82A
:103AF000002100BF4DF22A12A3F8FE20A3F80051C6
:103B000000BF4DF22B124FF0F20AA3F8FE20A3F8EB
:103B100000A100BF4DF22C12A3F8FE20A3F8005123
:103B200000BF4DF22D12A3F8FE204FF0FE02A3F8C5
:103B3000002100BF4DF22E12A3F8FE20A3F8009141
:103B400000BF4DF22F12A3F8FE20A3F8008100BFA2
:103B50004DF23012A3F8FE20A3F8009100BF4DF201
:103B60003112A3F8FE20A3F8000100BF4DF232127B
:103B7000A3F8FE20A3F8009100BF4DF233124FF0DE
:103B80006D0AA3F8FE20A3F800A100BF4FF4524233
:103B9000A3F8FE20A3F8006100BF4DF2012CA3F8AA
:103BA000FEC0A3F8000100BF4DF2022CA3F8FEC036
:103BB000A3F8006100BF4DF2032CA3F8FEC0A3F8E8
:103BC000001100BF4DF2042CA3F8FEC0A3F8006161
:103BD00000BF4DF2052CA3F8FEC0A3F800B100BF52
:103BE0004DF2062CA3F8FEC0A3F8006100BF4DF211
:103BF000072CA3F8FEC0A3F800E100BF4DF2082C8B
:103C0000A3F8FEC0A3F8006100BF4DF2092CA3F891
:103C1000FEC04FF05C0CA3F800C100BF4DF20A2CAF
:103C2000A3F8FEC0A3F8006100BF4DF20B2CA3F86F
:103C3000FEC04FF0810CA3F800C100BF4DF20C2C68
:103C4000A3F8FEC0A3F8006100BF4DF20D2CA3F84D
:103C5000FEC04FF0A60CA3F800C100BF4DF20E2C21
:103C6000A3F8FEC0A3F8006100BF4DF20F2CA3F82B
:103C7000FEC04FF0E50CA3F800C100BF4DF2102CC0
:103C8000A3F8FEC0A3F8007100BF4DF2112CA3F8F9
:103C9000FEC04FF0130CA3F800C100BF4DF2122C70
:103CA000A3F8FEC0A3F8007100BF4DF2132CA3F8D7
:103CB000FEC04FF0540CA3F800C100BF4DF2142C0D
:103CC000A3F8FEC0A3F8007100BF4DF2152CA3F8B5
:103CD000FEC04FF0820CA3F800C100BF4DF2162CBD
:103CE000A3F8FEC0A3F8007100BF4DF2172CA3F893
:103CF000FEC04FF0CA0CA3F800C100BF4DF2182C53
:103D0000A3F8FEC0A3F8005100BF4DF2192CA3F890
:103D1000FEC0A3F8006100BF4DF21A2CA3F8FEC04C
:103D2000A3F8005100BF4DF21B2CA3F8FEC0A3F86E
:103D3000007100BF4DF21C2CA3F8FEC0A3F8005187
:103D400000BF4DF21D2CA3F8FEC0A3F8001100BF68
:103D50004DF21E2CA3F8FEC0A3F8005100BF4DF297
:103D60001F2CA3F8FEC04FF0670CA3F800C100BFE2
:103D70004DF2202CA3F8FEC0A3F8005100BF4DF275
:103D8000212CA3F8FEC04FF0840CA3F800C100BFA3
:103D90004DF2222CA3F8FEC0A3F8005100BF4DF253
:103DA000232CA3F8FEC04FF0A40CA3F800C100BF61
:103DB0004DF2242CA3F8FEC0A3F8005100BF4DF231
:103DC000252CA3F8FEC04FF0B70CA3F800C100BF2C
:103DD0004DF2262CA3F8FEC0A3F8005100BF4DF20F
:103DE000272CA3F8FEC04FF0CF0CA3F800C100BFF2
:103DF0004DF2282CA3F8FEC0A3F8005100BF4DF2ED
:103E0000292CA3F8FEC04FF0DE0CA3F800C100BFC0
:103E10004DF22A2CA3F8FEC0A3F8005100BF4DF2CA
:103E20002B2CA3F8FEC04FF0F20CA3F800C100BF8A
:103E30004DF22C2CA3F8FEC0A3F8005100BF4DF2A8
:103E40002D2CA3F8FEC04FF0FE0CA3F800C100BF5C
:103E50004DF22E2CA3F8FEC0A3F8009100BF4DF246
:103E60002F2CA3F8FEC0A3F8008100BF4DF2302C28
:103E7000A3F8FEC0A3F8009100BF4DF2312CA3F8C7
:103E8000FEC0A3F8000100BF4DF2322CA3F8FEC023
:103E9000A3F8009100BF4DF2332CA3F8FEC0A3F8A5
:103EA00000A100BF4DF2003CA3F8FEC0A3F80061E2
:103EB00000BF4DF2013CA3F8FEC0A3F8000100BF13
:103EC0004DF2023CA3F8FEC0A3F8006100BF4DF222
:103ED000033CA3F8FEC0A3F8001100BF4DF2043C60
:103EE000A3F8FEC0A3F8006100BF4DF2053CA3F8A3
:103EF000FEC0A3F800B100BF4DF2063CA3F8FEC01F
:103F0000A3F8006100BF4DF2073CA3F8FEC0A3F880
:103F100000E100BF4DF2083CA3F8FEC0A3F8006129
:103F200000BF4DF2093CA3F8FEC04FF05C0CA3F8B3
:103F300000C100BF4DF20A3CA3F8FEC0A3F8006127
:103F400000BF4DF20B3CA3F8FEC04FF0810CA3F86C
:103F500000C100BF4DF20C3CA3F8FEC0A3F8006105
:103F600000BF4DF20D3CA3F8FEC04FF0A60CA3F825
:103F700000C100BF4DF20E3CA3F8FEC0A3F80061E3
:103F800000BF4DF20F3CA3F8FEC04FF0E50CA3F8C4
:103F900000C100BF4DF2103CA3F8FEC0A3F80071B1
:103FA00000BF4DF2113CA3F8FEC04FF0130CA3F874
:103FB00000C100BF4DF2123CA3F8FEC0A3F800718F
:103FC00000BF4DF2133CA3F8FEC04FF0540CA3F811
:103FD00000C100BF4DF2143CA3F8FEC0A3F800716D
:103FE00000BF4DF2153CA3F8FEC04FF0820CA3F8C1
:103FF00000C100BF4DF2163CA3F8FEC0A3F800714B
:1040000000BF4DF2173CA3F8FEC04FF0CA0CA3F856
:1040100000C100BF4DF2183CA3F8FEC0A3F8005148
:1040200000BF4DF2193CA3F8FEC0A3F8006100BF29
:104030004DF21A3CA3F8FEC0A3F8005100BF4DF2A8
:104040001B3CA3F8FEC0A3F8007100BF4DF21C3C5E
:10405000A3F8FEC0A3F8005100BF4DF21D3CA3F829
:10406000FEC0A3F8001100BF4DF21E3CA3F8FEC035
:10407000A3F8005100BF4DF21F3CA3F8FEC04FF063
:10408000670CA3F800C100BF4DF2203CA3F8FEC0AE
:10409000A3F8005100BF4DF2213CA3F8FEC04FF041
:1040A000840CA3F800C100BF4DF2223CA3F8FEC06F
:1040B000A3F8005100BF4DF2233CA3F8FEC04FF01F
:1040C000A40CA3F800C100BF4DF2243CA3F8FEC02D
:1040D000A3F8005100BF4DF2253CA3F8FEC04FF0FD
:1040E000B70CA3F800C100BF4DF2263CA3F8FEC0F8
:1040F000A3F8005100BF4DF2273CA3F8FEC04FF0DB
:10410000CF0CA3F800C100BF4DF2283CA3F8FEC0BD
:10411000A3F8005100BF4DF2293CA3F8FEC04FF0B8
:10412000DE0CA3F800C100BF4DF22A3CA3F8FEC08C
:10413000A3F8005100BF4DF22B3CA3F8FEC04FF096
:10414000F20CA3F800C100BF4DF22C3CA3F8FEC056
:10415000A3F8005100BF4DF22D3CA3F8FEC04FF074
:10416000FE0CA3F800C100BF4DF22E3CA3F8FEC028
:10417000A3F8009100BF4DF22F3CA3F8FEC0A3F8B6
:10418000008100BF4DF2303CA3F8FEC0A3F80091BF
:1041900000BF4DF2313CA3F8FEC0A3F8000100BF00
:1041A0004DF2323CA3F8FEC0A3F8009100BF4DF2DF
:1041B000333CA3F8FEC0A3F800A100BF4DF2004CB1
:1041C000A3F8FEC0A3F8006100BF4DF2014CA3F8B4
:1041D000FEC0A3F8000100BF4DF2024CA3F8FEC0E0
:1041E000A3F8006100BF4DF2034CA3F8FEC0A3F892
:1041F000001100BF4DF2044CA3F8FEC0A3F800610B
:1042000000BF4DF2054CA3F8FEC0A3F800B100BFFB
:104210004DF2064CA3F8FEC0A3F8006100BF4DF2BA
:10422000074CA3F8FEC0A3F800E100BF4DF2084C14
:10423000A3F8FEC0A3F8006100BF4DF2094CA3F83B
:10424000FEC04FF05C0CA3F800C100BF4DF20A4C59
:10425000A3F8FEC0A3F8006100BF4DF20B4CA3F819
:10426000FEC04FF0810CA3F800C100BF4DF20C4C12
:10427000A3F8FEC0A3F8006100BF4DF20D4CA3F8F7
:10428000FEC04FF0A60CA3F800C100BF4DF20E4CCB
:10429000A3F8FEC0A3F8006100BF4DF20F4CA3F8D5
:1042A000FEC04FF0E50CA3F800C100BF4DF2104C6A
:1042B000A3F8FEC0A3F8007100BF4DF2114CA3F8A3
:1042C000FEC04FF0130CA3F800C100BF4DF2124C1A
:1042D000A3F8FEC0A3F8007100BF4DF2134CA3F881
:1042E000FEC04FF0540CA3F800C100BF4DF2144CB7
:1042F000A3F8FEC0A3F8007100BF4DF2154CA3F85F
:10430000FEC04FF0820CA3F800C100BF4DF2164C66
:10431000A3F8FEC0A3F8007100BF4DF2174CA3F83C
:10432000FEC04FF0CA0CA3F800C100BF4DF2184CFC
:10433000A3F8FEC0A3F8005100BF4DF2194CA3F83A
:10434000FEC0A3F8006100BF4DF21A4CA3F8FEC0F6
:10435000A3F8005100BF4DF21B4CA3F8FEC0A3F818
:10436000007100BF4DF21C4CA3F8FEC0A3F8005131
:1043700000BF4DF21D4CA3F8FEC0A3F8001100BF12
:104380004DF21E4CA3F8FEC0A3F8005100BF4DF241
:104390001F4CA3F8FEC04FF0670CA3F800C100BF8C
:1043A0004DF2204CA3F8FEC0A3F8005100BF4DF21F
:1043B000214CA3F8FEC04FF0840CA3F800C100BF4D
:1043C0004DF2224CA3F8FEC0A3F8005100BF4DF2FD
:1043D000234CA3F8FEC04FF0A40CA3F800C100BF0B
:1043E0004DF2244CA3F8FEC0A3F8005100BF4DF2DB
:1043F000254CA3F8FEC04FF0B70CA3F800C100BFD6
:104400004DF2264CA3F8FEC0A3F8005100BF4DF2B8
:10441000274CA3F8FEC04FF0CF0CA3F800C100BF9B
:104420004DF2284CA3F8FEC0A3F8005100BF4DF296
:10443000294CA3F8FEC04FF0DE0CA3F800C100BF6A
:104440004DF22A4CA3F8FEC0A3F8005100BF4DF274
:104450002B4CA3F8FEC04FF0F20CA3F800C100BF34
:104460004DF22C4CA3F8FEC0A3F8005100BF4DF252
:104470002D4CA3F8FEC04FF0FE0CA3F800C100BF06
:104480004DF22E4CA3F8FEC0A3F8009100BF4DF2F0
:104490002F4CA3F8FEC0A3F8008100BF4DF2304CB2
:1044A000A3F8FEC0A3F8009100BF4DF2314CA3F871
:1044B000FEC0A3F8000100BF4DF2324CA3F8FEC0CD
:1044C000A3F8009100BF4DF2334CA3F8FEC0A3F84F
:1044D00000A100BF4DF2005CA3F8FEC0A3F800618C
:1044E00000BF4DF2015CA3F8FEC0A3F8000100BFBD
:1044F0004DF2025CA3F8FEC0A3F8006100BF4DF2CC
:10450000035CA3F8FEC0A3F8001100BF4DF2045CE9
:10451000A3F8FEC0A3F8006100BF4DF2055CA3F84C
:10452000FEC0A3F800B100BF4DF2065CA3F8FEC0C8
:10453000A3F8006100BF4DF2075CA3F8FEC0A3F82A
:1045400000E100BF4DF2085CA3F8FEC0A3F80061D3
:1045500000BF4DF2095CA3F8FEC04FF05C0CA3F85D
:1045600000C100BF4DF20A5CA3F8FEC0A3F80061D1
:1045700000BF4DF20B5CA3F8FEC04FF0810CA3F816
:1045800000C100BF4DF20C5CA3F8FEC0A3F80061AF
:1045900000BF4DF20D5CA3F8FEC04FF0A60CA3F8CF
:1045A00000C100BF4DF20E5CA3F8FEC0A3F800618D
:1045B00000BF4DF20F5CA3F8FEC04FF0E50CA3F86E
:1045C00000C100BF4DF2105CA3F8FEC0A3F800715B
:1045D00000BF4DF2115CA3F8FEC04FF0130CA3F81E
:1045E00000C100BF4DF2125CA3F8FEC0A3F8007139
:1045F00000BF4DF2135CA3F8FEC04FF0540CA3F8BB
:1046000000C100BF4DF2145CA3F8FEC0A3F8007116
:1046100000BF4DF2155CA3F8FEC04FF0820CA3F86A
:1046200000C100BF4DF2165CA3F8FEC0A3F80071F4
:1046300000BF4DF2175CA3F8FEC04FF0CA0CA3F800
:1046400000C100BF4DF2185CA3F8FEC0A3F80051F2
:1046500000BF4DF2195CA3F8FEC0A3F8006100BFD3
:104660004DF21A5CA3F8FEC0A3F8005100BF4DF252
:104670001B5CA3F8FEC0A3F8007100BF4DF21C5CE8
:10468000A3F8FEC0A3F8005100BF4DF21D5CA3F8D3
:10469000FEC0A3F8001100BF4DF21E5CA3F8FEC0DF
:1046A000A3F8005100BF4DF21F5CA3F8FEC04FF00D
:1046B000670CA3F800C100BF4DF2205CA3F8FEC058
:1046C000A3F8005100BF4DF2215CA3F8FEC04FF0EB
:1046D000840CA3F800C100BF4DF2225CA3F8FEC019
:1046E000A3F8005100BF4DF2235CA3F8FEC04FF0C9
:1046F000A40CA3F800C100BF4DF2245CA3F8FEC0D7
:10470000A3F8005100BF4DF2255CA3F8FEC04FF0A6
:10471000B70CA3F800C100BF4DF2265CA3F8FEC0A1
:10472000A3F8005100BF4DF2275CA3F8FEC04FF084
:10473000CF0CA3F800C100BF4DF2285CA3F8FEC067
:10474000A3F8005100BF4DF2295CA3F8FEC04FF062
:10475000DE0CA3F800C100BF4DF22A5CA3F8FEC036
:10476000A3F8005100BF4DF22B5CA3F8FEC04FF040
:10477000F20CA3F800C100BF4DF22C5CA3F8FEC000
:10478000A3F8005100BF4DF22D5CA3F8FEC04FF01E
:10479000FE0CA3F800C100BF4DF22E5CA3F8FEC0D2
:1047A000A3F8009100BF4DF22F5CA3F8FEC0A3F860
:1047B000008100BF4DF2305CA3F8FEC0A3F8009169
:1047C00000BF4DF2315CA3F8FEC0A3F8000100BFAA
:1047D0004DF2325CA3F8FEC0A3F8009100BF4DF289
:1047E000335CA3F8FEC0A3F800A100BF4DF2006C3B
:1047F000A3F8FEC0A3F8006100BF4DF2016CA3F85E
:10480000FEC0A3F8000100BF4DF2026CA3F8FEC089
:10481000A3F8006100BF4DF2036CA3F8FEC0A3F83B
:10482000001100BF4DF2046CA3F8FEC0A3F80061B4
:1048300000BF4DF2056CA3F8FEC0A3F800B100BFA5
:104840004DF2066BA3F8FEB0A3F8006100BF4DF275
:10485000076BA3F8FEB0A3F800E100BF4DF2086EAD
:10486000A3F8FEE0A3F8006100BF4DF2096E4FF01F
:104870005C0CA3F8FEE0A3F800C100BF4DF20A6C87
:10488000A3F8FEC0A3F8006100BF4DF20B6CA3F8C3
:10489000FEC04FF0810CA3F800C100BF4DF20C6CBC
:1048A000A3F8FEC0A3F8006100BF4DF20D6CA3F8A1
:1048B000FEC04FF0A60CA3F800C100BF4DF20E6C75
:1048C000A3F8FEC0A3F8006100BF4DF20F6CA3F87F
:1048D000FEC04FF0E50CA3F800C100BF4DF2106C14
:1048E000A3F8FEC0A3F8007100BF4DF2116CA3F84D
:1048F000FEC04FF0130CA3F800C100BF4DF2126CC4
:10490000A3F8FEC0A3F8007100BF4DF2136CA3F82A
:10491000FEC04FF0540CA3F800C100BF4DF2146C60
:10492000A3F8FEC0A3F8007100BF4DF2156CA3F808
:10493000FEC04FF0820CA3F800C100BF4DF2166C10
:10494000A3F8FEC0A3F8007100BF4DF2176CA3F8E6
:10495000FEC04FF0CA0CA3F800C100BF4DF2186CA6
:10496000A3F8FEC0A3F8005100BF4DF2196CA3F8E4
:10497000FEC0A3F8006100BF4DF21A6CA3F8FEC0A0
:10498000A3F8005100BF4DF21B6CA3F8FEC0A3F8C2
:10499000007100BF4DF21C6CA3F8FEC0A3F80051DB
:1049A00000BF4DF21D6CA3F8FEC0A3F8001100BFBC
:1049B0004DF21E61A3F8FE10A3F8005100BF4DF2A6
:1049C0001F614FF0670CA3F8FE10A3F800C100BFF1
:1049D0004DF22061A3F8FE10A3F8005100BF4DF284
:1049E00021614FF0840CA3F8FE10A3F800C100BFB2
:1049F0004DF22261A3F8FE10A3F8005100BF4DF262
:104A000023614FF0A40CA3F8FE10A3F800C100BF6F
:104A10004DF22461A3F8FE10A3F8005100BF4DF23F
:104A200025614FF0B70CA3F8FE10A3F800C100BF3A
:104A30004DF22661A3F8FE10A3F8005100BF4DF21D
:104A400027614FF0CF0CA3F8FE10A3F800C100BF00
:104A50004DF22861A3F8FE10A3F8005100BF4DF2FB
:104A600029614FF0DE0CA3F8FE10A3F800C100BFCF
:104A70004DF22A61A3F8FE10A3F8005100BF4DF2D9
:104A80002B614FF0F20CA3F8FE10A3F800C100BF99
:104A90004DF22C61A3F8FE10A3F8005100BF4DF2B7
:104AA0002D614FF0FE0CA3F8FE10A3F800C100BF6B
:104AB0004DF22E61A3F8FE10A3F8009100BF4DF255
:104AC0002F61A3F8FE10A3F8008100BF4DF2306102
:104AD000A3F8FE10A3F8009100BF4DF23161A3F8D6
:104AE000FE10A3F8000100BF4DF23261A3F8FE10E2
:104AF000A3F8009100BF4DF23361A3F8FE10A3F8B4
:104B000000A100BF4FF200014FF0550EA3F8FE10B8
:104B1000A3F800E100BF4FF201004FF0AA01A3F893
:104B2000FE00A3F8001100BF4FF2020B4FF052013C
:104B3000A3F8FEB0A3F8001100BF4FF203014FF03D
:104B4000080CA3F8FE10A3F800C100BF4FF2040147
:104B5000A3F8FE10A3F8006100BF4BF2001BCC21AC
:104B6000A3F8FEB0A3F8001100BF4BF20111A3F8A7
:104B7000FE10A3F8006100BF4BF200600521A3F80E
:104B8000FE00A3F8001100BF4BF20071A3F8FE1065
:104B90007021A3F8001100BF4BF20170A3F8FE00D2
:104BA000A3F8001100BF4BF60001A3F8FE10A3F814
:104BB000007100BF4BF6010BA3F8FEB0A3F8009103
:104BC00000BF4BF60201A3F8FE10A3F8009100BF4E
:104BD0004BF60301A3F8FE10A3F8009100BF4BF6BB
:104BE000004AA3F8FEA0A3F8005100BF4BF6014A0B
:104BF000A3F8FEA0A3F8006100BF4BF6024AA3F899
:104C0000FEA0A3F8006100BF4FF44941A3F8FE10D5
:104C1000D021A3F8001100BF4CF60111A3F8FE103B
:104C2000A3F8005100BF4CF60211A3F8FE1050216A
:104C3000A3F8001100BF4CF60310A3F8FE00A3F880
:104C4000001100BF4CF60410A3F8FE00A3F80011F9
:104C500000BF4FF45451A3F8FE10A3F8006100BF49
:104C60004FF46852A3F8FE20A3F800E100BF4FF410
:104C70008852A3F8FE20782300BF00BF00BF00BF0A
:104C800000BF013B9BB2002BF6D100BF034B4FF49A
:104C90002452A3F8FE20FEF7FFBB00BF00FF076011
:104CA00010B5029C002C6ED0002A6CD0002B6AD06C
:104CB000DFF8D4E0BEF8064000BFDFF8D0C0ACF8A3
:104CC000FE40040A00BFACF80041BEF806400134C3
:104CD00000BFACF8FE40C4B200BFACF80041BEF863
:104CE0000640023400BFACF8FE408418013C241298
:104CF00000BFACF80041BEF80640033400BF0138E5
:104D00001044ACF8FE40C0B200BFACF80001BEF8E1
:104D1000080000BFACF8FE00080A00BFACF80001B4
:104D2000BEF80800013000BFACF8FE00C8B200BFFA
:104D3000ACF80001BEF80800023000BFACF8FE007D
:104D4000C8180138001200BFACF80001BEF8080016
:104D5000033000BF01391944ACF8FE00C9B200BFEE
:104D6000ACF80011BEF80410ACF8FE1000BF0299B8
:104D700002FB03F3023901EB430331F8022FACF8D5
:104D800000219942F9D110BD280B002000FF0760D7
:104D9000004870478C0B0020002800F087802DE928
:104DA000F047DFF80C818EB00746FCF713FF98F848
:104DB000D03D002B71D198F8D13D002B65D198F8EA
:104DC000D23D002B59D198F8D33D002B4DD198F806
:104DD000D43D002B45D1FCF707FF40F6D852002107
:104DE0003348344D344EFBF7A1FD344B00221A708A
:104DF000FCF7F0FE05F5396405F695394FF0010A28
:104E000056F8043B2E4A009330213B4602A832F06C
:104E1000F9F9012202A9284611F00EF908B984F81F
:104E200000A001344C4505F51475E9D1FCF7DCFE12
:104E3000D8F8D03DFF2B4FF001000BD988F8D50DE5
:104E4000204A1E483B46042132F0DCF900200EB017
:104E5000BDE8F08798F8D43D002BEFD10EB0BDE847
:104E6000F087194811F048FDB5E7184811F044FDE6
:104E700098F8D43D002BAED0F3E7154811F03CFD77
:104E800098F8D33D002BA2D0EFE7124811F034FD83
:104E900098F8D23D002B96D0EFE708F5107011F08E
:104EA0002BFD98F8D13D002B89D0EEE7012070470B
:104EB000900B0020D00D0020688303088C0B00208D
:104EC000487F03082C7D030810170020C014002021
:104ED00070120020201000200D4B93F8D00D93F895
:104EE000D12D003818BF01200AB140F0020093F81C
:104EF000D22D0AB140F0040093F8D32D0AB140F04E
:104F0000080093F8D43D0BB140F01000704700BF8B
:104F1000900B0020002839D0002937D0002A35D046
:104F2000F0B50E4611894B1EBF2B85B0964617462D
:104F30005BD803787F33DBB27D2B0A461FD890F80D
:104F400001C0ACF14000C0B2BE2818D8BEF80600BF
:104F50000C38BCF17E0F80B28CBF4125402514284F
:104F60000DD8DFF894E01EF80000FF2807D0234C8E
:104F700004EB000E9EF8D0EDBEF1000F08D1002129
:104F80003046FBF7D3FC012005B0F0BD012070478F
:104F9000ACEB0502D2B24FF0BE0C0CFB032201FBBE
:104FA00002F2CDE90020FCF715FE0198009A4FF4BB
:104FB000147303FB004000F51071002308460091B4
:104FC00011F0B4FC98B93A89009803AB314611F05E
:104FD0008BF90090FCF708FE00983A8910B9039B02
:104FE0009A42D1D0531EBF2BC9D9C022C7E7FCF7C4
:104FF000FBFD3A89F6E700BF50830308900B0020C1
:105000002DE91048002289B0CDE90522114B01920B
:105010001A6B114842F002021A631B6B03F0020381
:105020004FF0010C0124019302A94FF0030BCDE9CD
:1050300002BC019B049401F0E5FD224606480221D2
:1050400001F0EAFF04482246214601F0E5FF09B0DD
:10505000BDE81088003802400004024002460448BF
:1050600012B9022101F0D8BF0022012101F0D4BF02
:105070000004024038B900F1804000F501300122FF
:10508000022101F0C9BF01220148114601F0C4BF4D
:105090000004024030B900F1804000F501300221E7
:1050A00001F0BEBF0148012101F0BABF0004024077
:1050B0002DE9F04186B001260DF1130300210A27E6
:1050C00000938DF81310CDE901679D483346752292
:1050D000D02102F025FF002840F02C819DF81330EC
:1050E000712B40F027810DF1140833466B22D0213B
:1050F0008DF81400CDE901679148CDF8008002F0E9
:1051000011FE3846FCF7C8FE0721192233468DF8F8
:105110001410CDE90167D0218948CDF8008002F054
:1051200001FE03211A2233468DF81410CDE90167E0
:10513000D0218348CDF8008002F0F4FD18211B2215
:1051400033468DF81410CDE90167D0217C48CDF8A5
:10515000008002F0E7FD102433461C22D021CDE967
:1051600001677748CDF800808DF8144002F0DAFD31
:1051700020238DF814306A223346D021CDE901670F
:105180006F48CDF8008002F0CDFD0D232422D02100
:105190008DF81430CDE9016733466948CDF80080B9
:1051A00002F0C0FD0520FCF777FE19238DF81430BE
:1051B000CDE901676248CDF8008033462522D02131
:1051C00002F0B0FD002874D1CDE901675C48CDF84C
:1051D000008033462622D0218DF8144002F0A2FD33
:1051E000002866D183228DF81420CDE90167544848
:1051F000CDF8008033462722D02102F093FD00280D
:1052000057D10220FCF748FE49244546CDE9016705
:105210004B48009501232246D02102F081FE002850
:1052200047D10134A4B24C2C05F10105EED19DF813
:105230001400444CFBF776F84FF08641FAF7BCFFB8
:105240004FF07C51FBF7C2F84FF07051FBF7BEF8FE
:105250004FF07E51FAF7B2FF034623609DF8150028
:10526000FBF760F84FF08641FAF7A6FF4FF07C514C
:10527000FBF7ACF84FF07051FBF7A8F84FF07E51F8
:10528000FAF79CFF034663609DF81600FBF74AF8A7
:105290004FF08641FAF790FF4FF07C51FBF796F8FC
:1052A0004FF07051FBF792F84FF07E51FAF786FFFE
:1052B000A060012418220A258DF81420CDE90145AB
:1052C0001F48CDF8008023462522D02102F02AFD78
:1052D00098BBCDE901451A48CDF800802346262227
:1052E000D0218DF8145002F01DFD30BB16228DF830
:1052F0001420CDE901451248CDF8008023466322F1
:10530000D02102F00FFDC0B9CDE9014523460C487C
:10531000CDF8008081262722D0218DF8146002F07C
:1053200001FD044648B90220FCF7B6FD204606B050
:10533000BDE8F0814FF0FF30F9E76FF00100F6E7CC
:10534000D00A0020980000202DE9F04389B04FF0EA
:105350000A08062406AD8146CDE901486548009556
:1053600001233B22D02102F0DBFD002840F0BB806E
:10537000BDF81800C0BAFAF7D5FF4FF06651FBF739
:1053800025F8C9F80000BDF81A00C0BAFAF7CAFF3C
:105390004FF06651FBF71AF8C9F80400BDF81C007D
:1053A000C0BAFAF7BFFF4FF06651FBF70FF80123C1
:1053B000C9F808004322CDE901484E480095D021A4
:1053C00002F0AEFD002840F09180BDF81800C0BA90
:1053D000FAF7A8FF4849FBF7ADF8BDF81A30C9F84D
:1053E0000C00D8BAFAF79EFF4349FBF7A3F8BDF8C3
:1053F0001C30C9F81000D8BAFAF794FF3E49FBF701
:1054000099F8012719230DF11704C9F814008DF834
:105410001730CDE90178374800943B462522D0214A
:1054200002F080FC00285BD103238DF81730CDE912
:105430000178304800943B462622D02102F072FCCD
:1054400000284DD186228DF817208DE8900129483B
:105450003B462722D02102F065FC002840D10220E3
:10546000FCF71AFD4924CDE9017822480095012373
:105470002246D02102F054FD064688BB0134A4B276
:105480004F2C05F10105EED1BDF818001B4CC0BA38
:10549000FAF748FF1A49FAF799FF2168FAF796FFD9
:1054A000BDF81A30C9F81800D8BAFAF73BFF14490A
:1054B000FAF78CFF6168FAF789FFBDF81C30C9F86C
:1054C0001C00D8BAFAF72EFF0D49FAF77FFFA16842
:1054D000FAF77CFFC9F82000304609B0BDE8F08338
:1054E0006FF00200F9E74FF0FF30F6E76FF00100D0
:1054F000F3E700BFD00A0020333383419800002037
:105500009A99193E00B585B0642300938DF80F0079
:1055100001230DF10F024021024802F027FA05B0E5
:1055200000BD00BFD00A002070B52E4B2E485A6A2D
:1055300042F4006288B05A625A6A002422F400627F
:105540005A6200945A6C42F400625A645A6C02F433
:1055500000620092009A01941A6B42F004021A63EE
:105560001A6B02F004020192019A02941A6B42F043
:1055700008021A631B6B03F00803029303234FF422
:10558000F85106930C230226039101250DEB03012C
:10559000029A0793CDE9046501F034FB0423134814
:1055A000039303A901F02EFB114A124B136010461E
:1055B000C2E90144C2E90344C2E9054603F036FEEC
:1055C00028B1002501200C4B1D6008B070BD0848B3
:1055D0004FF4006103F05CFE0028F4D0044803F0AF
:1055E00043FAEEE70038024000080240000C024097
:1055F00070190020002C01406819002008B50348EC
:1056000003F032FA024B00221A6008BD7019002024
:1056100068190020014B1868704700BF6819002006
:1056200030B5124B1B6883B01BB90125284603B067
:1056300030BD4FF47A74134600940A4601460C4874
:1056400003F026FA05460028F0D140F2E93401E0E3
:1056500000F07CFF064803F0C5FE04284FF001006F
:10566000E4D0013CF4D10325E0E700BF6819002035
:105670007019002030B5124B1B6883B01BB901258F
:10568000284603B030BD4FF47A74134600940A469E
:1056900001460C4803F0F8FA05460028F0D140F224
:1056A000E93401E000F052FF064803F09BFE0428B5
:1056B0004FF00100E4D0013CF4D10325E0E700BF46
:1056C00068190020701900200D4B1B680BB90120D0
:1056D000704700B58BB0CDE900010A4802A903F07C
:1056E000C3FD48B9DDE900230AB1069911600BB189
:1056F000079A1A800BB000BD01200BB000BD00BF9F
:1057000068190020701900202DE9F047002494B09A
:10571000CDE90C44CDE90E44CDE91044894B009409
:10572000129408949A6B884842F001029A639A6B2B
:1057300002F001020092009A01941A6B42F02002DA
:105740001A631A6B02F020020192019A02941A6BFA
:1057500042F004021A631A6B02F004020292029AE7
:1057600003941A6B42F040021A631A6B02F0400273
:105770000392039A04941A6B42F010021A631A6B94
:1057800002F010020492049A05941A6B42F0080287
:105790001A631B6B03F0080305930C23059A0A9305
:1057A0004FF63F02022306A90326CDE906230996F8
:1057B00001F028FA0D236548069306A901F022FAA4
:1057C00048F237136248069306A901F01BFA4FF618
:1057D00083736048069306A901F014FA4CF2037330
:1057E0005D48069306A901F00DFA5C4A5C4B136014
:1057F0004FF4006313620823D3600D930623CDE9B1
:105800000E334FF010084023C2E904834FF4C073F5
:10581000936101254FF400534FF480575460D461D5
:1058200093620224956057621046022302220CA95B
:10583000CDE910230C94129402F0D0FE00286ED112
:1058400081463A460CA9CDE90E504448CDE90C58A2
:1058500002F0E6FE82464FF47A70FDF71DF93A46F3
:105860000CA93E48CDE90C48CDE90E5902F0D8FE0E
:105870003A460CA9044639480C96CDE90D85CDF879
:105880003C9002F0CDFE042306460C9333484FF4BF
:105890000C733A460CA9CDE90D850F9302F0C0FEBA
:1058A00000283CD1231A18BF4FF0FF33BAEB000297
:1058B00018BF4FF0FF32351A43EA020318BF4FF00A
:1058C000FF351D432BD140F2AB21244802F0CAFE24
:1058D000244BDFF894C00FCB0CAC84E80F000CF124
:1058E0000C0E2846DCF8003023F0030303F1404699
:1058F00006F58072334643F8040B9A42FBD10CAF95
:105900003968334643F8041B9A42FBD1334601E021
:105910009A420AD01C68A14203F10403F8D04FF068
:10592000FF35284614B0BDE8F087043710ABBB4202
:10593000E6D10CF1040CE645D4D1284614B0BDE8FC
:10594000F08700BF00380240001402400008024007
:105950000018024000100240000C0240F81900201C
:10596000400100A0947903087C83030810B588B037
:105970001C4B1D4800220092196B41F080011963F5
:10598000196B01F08001009100990192196B41F4AB
:10599000807119631B6B069203F48073019340229C
:1059A0001123CDE902230824012202A90223CDE913
:1059B0000423019B01F026F90DEB04010B4802942E
:1059C00001F020F908480122402101F025FB0122C5
:1059D0002146064801F020FB1420FDF75DF808B0D1
:1059E00010BD00BF00380240001C024000200240F1
:1059F00008B501220821104801F00EFB0120FDF737
:105A00004BF8012240210D4801F006FB0320FDF771
:105A100043F800220821084801F0FEFA0120FDF7B2
:105A20003BF806480022402101F0F6FABDE80840A4
:105A30000320FDF731B800BF00200240001C0240E7
:105A400008B500224021104801F0E6FA0320FDF7D6
:105A500023F8002208210D4801F0DEFA0120FDF7AD
:105A60001BF801224021084801F0D6FA0320FDF777
:105A700013F806480122082101F0CEFABDE80840DB
:105A80000120FDF709B800BF001C024000200240C1
:105A900038B50546082400E06D0000224021254865
:105AA00001F0BAFA0320FCF7F7FF2B064FF00002D3
:105AB0004FF0080148BF01221F4801F0ADFA012054
:105AC000FCF7EAFF1B480122402101F0A5FA013C46
:105AD0000320FCF7E1FF14F0FF04DDD10022402198
