:020000040800F2
:10000000000008242D040008B50D0008BD0D0008EF
:10001000BF0D0008C10D0008C30D0008000000005E
:10002000000000000000000000000000C50D0008F6
:10003000C70D000800000000C90D0008CB0D000826
:10004000810400088104000881040008810400087C
:10005000810400088104000881040008810400086C
:10006000810400088104000881040008810400085C
:10007000810400088104000881040008810400084C
:10008000810400088104000881040008810400083C
:10009000810400088104000881040008810400082C
:1000A000810400088104000881040008810400081C
:1000B000810400088104000881040008810400080C
:1000C00081040008810400088104000881040008FC
:1000D00081040008E50D000881040008810400087F
:1000E0008104000881040008000000008104000869
:1000F00081040008810400088104000881040008CC
:1001000081040008D50D000881040008810400085E
:1001100081040008810400088104000881040008AB
:10012000810400088104000881040008810400089B
:10013000810400088104000881040008810400088B
:1001400000000000000000000000000000000000AF
:10015000810400088104000881040008810400086B
:10016000810400088104000881040008810400085B
:1001700081040008810400088104000800000000D8
:10018000810400088104000881040008810400083B
:10019000810400088104000881040008810400082B
:1001A000810400088104000881040008810400081B
:1001B000810400088104000881040008810400080B
:1001C00081040008810400088104000881040008FB
:1001D00081040008810400088104000881040008EB
:1001E00081040008810400088104000881040008DB
:1001F00081040008810400088104000881040008CB
:1002000081040008810400088104000881040008BA
:1002100081040008810400088104000881040008AA
:100220008104000881040008810400080000000027
:100230008104000881040008000000008104000817
:10024000810400088104000881040008810400087A
:10025000810400088104000881040008810400086A
:10026000810400088104000881040008810400085A
:1002700081040008810400088104000800000000D7
:1002800081040008810400088104000800000000C7
:080290000000000081040008D9
:1002A00053B94AB9002908BF00281CBF4FF0FF31DD
:1002B0004FF0FF3000F00CB8ADF1080C6DE904CE42
:1002C0002AF084F9DDF804E0DDE9022304B0704788
:1002D000704700BF10F8012B11F8013B012A28BF1D
:1002E0009A42F7D0D01A7047034613F8012B002A20
:1002F000FBD1181A01387047000000000000000010
:1003000001F0FF01102A2BDB10F0070F08D010F8C6
:10031000013B013A8B422DD010F0070F42B3F6D1CA
:10032000F0B441EA012141EA014122F007047FF0E3
:1003300000070023F0E80256083C85EA010586EA3A
:10034000010685FA47F5A3FA87F586FA47F6A5FA76
:1003500087F68EB9EED1F0BC01F0FF0102F0070282
:1003600032B110F8013B013A83EA010313B1F8D12D
:100370000020704701387047002D06BF354603380E
:10038000073815F0010F07D1013015F4807F02BF47
:10039000013015F4C03F0130F0BC0138704700BF98
:1003A0000348044B834202D0034B03B11847704704
:1003B000A0300024A0300024000000000548064BB7
:1003C0001B1AD90F01EBA301491002D0034B03B153
:1003D00018477047A0300024A0300024000000001F
:1003E00010B5064C237843B9FFF7DAFF044B13B17D
:1003F0000448AFF300800123237010BDA030002417
:1004000000000000D0B3020808B5054B1BB1054938
:100410000548AFF30080BDE80840FFF7CFBF00BF3D
:1004200000000000A4300024D0B30208DFF838D068
:1004300000F098F900F026F80C480D490D4A002309
:1004400002E0D458C4500433C4188C42F9D30A4A89
:100450000A4C002301E013600432A242FBD32AF0CD
:1004600015FB00F00BFBFEE7000008240000002451
:10047000A030002444420508A030002424B0042405
:10048000FEE70000314AD2F8883043F47003C2F826
:1004900088302F4B1B6803F00F03062B06D82C4A1D
:1004A000136823F00F0343F007031360294B1A6806
:1004B00042F001021A6000221A611968264A0A40B5
:1004C0001A60234B1B6813F0080F06D0204A1368EC
:1004D00023F00F0343F0070313601E4B00229A61C1
:1004E000DA611A621D4999621D49D9621D49196371
:1004F0005A639963DA6319645A64196821F4802194
:1005000019601A66184B1B686FF30F03B3F1005F95
:1005100003D2164B0122C3F808210E4BD3F8D43076
:1005200013F4805F10D10B4BD3F8D42042F48052E7
:10053000C3F8D4200E4A43F2D2011160D3F8D4207C
:1005400022F48052C3F8D420704700BF00ED00E0D1
:1005500000200052004402587FEDF6EA0002020239
:100560000000FF01800201010010005C00800051CA
:1005700000400052714B1B6903F03803102B00F050
:10058000DB8006D8002B58D0082B40F0CE806C4A78
:1005900059E0182B40F0C980684B996A01F00301BB
:1005A000D3F828C0CCF30512D86A00F001005B6BC9
:1005B000C3F3CC0300FB03F307EE903AF8EE677A3F
:1005C0001CF47C7F3FD0012951D002296CD0002936
:1005D00040F0878059480168C1F3C101594BCB40B5
:1005E00007EE103AF8EE476A07EE102AB8EE476AAF
:1005F00086EE867A036BC3F3080306EE903AF8EEB4
:10060000666A9FED516A67EE867A76EEA77AF7EE14
:10061000006A77EEA67A27EE277A484B1B6BC3F366
:100620004623013307EE903AF8EE677AC7EE276A61
:10063000FCEEE67A17EE902A05E0404B1B68C3F308
:10064000C103404ADA403D488369C3F303233F496D
:10065000CB5CDA40836903F00F03CB5C03F01F032C
:1006600022FA03F33A490B603A4B1A60704707EEDF
:10067000102AF8EE476A9FED386A86EE267A2F4BED
:100680001B6BC3F3080306EE903AF8EE666A9FED23
:100690002E6A67EE867A76EEA77AF7EE006A77EE34
:1006A000A67A27EE277AB8E707EE102AF8EE476A0F
:1006B0009FED2A6A86EE267A204B1B6BC3F3080354
:1006C00006EE903AF8EE666A9FED1F6A67EE867A4C
:1006D00076EEA77AF7EE006A77EEA67A27EE277A0B
:1006E0009BE716480168C1F3C101164BCB4007EEEA
:1006F000103AF8EE476A07EE102AB8EE476A86EE1F
:10070000867A036BC3F3080306EE903AF8EE666A46
:100710009FED0D6A67EE867A76EEA77AF7EE006AAD
:1007200077EEA67A27EE277A77E7044B1B68C3F3A8
:10073000C103044ADA4086E7094A84E700440258C4
:1007400000093D000090D0030000003918B40208F1
:1007500000000024040000240024744A20BCBE4B86
:1007600040787D01704730B585B000240094019435
:10077000029403940BF03EF901238DF800308DF8BC
:1007800001404FF01052019212228DF808208DF88E
:1007900009408DF80A4003228DF80B208DF80C409B
:1007A0008DF80D408DF80E308DF80F4068460BF037
:1007B0003FF904200BF02CF905B030BD70B58AB0BC
:1007C00005AD002405940694079408940994284BD9
:1007D000D3F8E02042F00102C3F8E020D3F8E02093
:1007E00002F001020092009AD3F8E02042F00402E5
:1007F000C3F8E020D3F8E02002F004020192019A4D
:10080000D3F8E02042F00802C3F8E020D3F8E0205B
:1008100002F008020292029AD3F8E02042F040026D
:10082000C3F8E020D3F8E02002F040020392039ADC
:10083000D3F8E02042F08002C3F8E020D3F8E030A3
:1008400003F080030493049B0A4E224649F2800180
:1008500030460DF0DDFD49F2800305930123069338
:1008600007940894294630460DF00AFC0AB070BD82
:10087000004402580018025808B50748074B0360A7
:100880000023436083604FF48042C260036104230D
:1008900043610EF042FD08BDC030002400700052DC
:1008A00008B5044B02221A70034B01221A70FFF79D
:1008B00061FE08BDBD300024BC30002472B6FEE7E6
:1008C00008B51548154B03604FF4E133436000232E
:1008D0008360C36003610C2242618361C361036270
:1008E0004362836210F054F970B901460A4810F06F
:1008F000CCF958B90146084810F0ECF940B906485F
:1009000010F0A4F930B908BDFFF7D8FFFFF7D6FF04
:10091000FFF7D4FFFFF7D2FF3C3100240010014065
:1009200008B51448144B03604FF4800343604FF440
:10093000C02383600723C3600023036143614FF03A
:1009400000528261C361036243628362C3624FF0FB
:100950008042426383632022C263036443648364EE
:10096000C3640365436583650FF0C2FA00B908BD2F
:10097000FFF7A4FFD03100240014005800B59DB04B
:100980004C22002109A82AF042F82022002101A8C7
:100990002AF03DF802200DF053FD00230093344B64
:1009A0009A6942F440429A619B6903F44043009380
:1009B000304BDA6A42F00102DA62DB6A03F00103CB
:1009C0000093009B2A4B9B6913F4005FFAD001232C
:1009D00009934FF480330A93022312931393052251
:1009E0001492C0221592169304221792189308238A
:1009F000199300231A931B9309A80BF045F8D8B953
:100A00001D4B18703F23019303230293002303938C
:100A1000082304934023059306934FF480620792C2
:100A2000089304210DEB01000BF08AFCD0B9124BA6
:100A30001B78CBB11DB000BD01220F4B1A700323F0
:100A4000099300230A930C9240220D9213931023D2
:100A50001493F023159309A80BF016F80028D1D0B1
:100A6000FFF72CFFFFF72AFF0BF068FBE2E700BF60
:100A70000048025800040058BD30002408B5FFF7B4
:100A800072FE2C4B5B6913F4003F13D1BFF34F8F01
:100A9000BFF36F8F274B0022C3F85022BFF34F8F55
:100AA000BFF36F8F5A6942F400325A61BFF34F8F20
:100AB000BFF36F8F1F4B5B6913F4803F27D11D4B32
:100AC0000022C3F88420BFF34F8FD3F880C0CCF34B
:100AD0004E3000E01846CCF3C90243F6E07303EA57
:100AE000401343EA82731349C1F86032013AB2F10C
:100AF000FF3FF2D1431E0028ECD1BFF34F8F4B696B
:100B000043F480334B61BFF34F8FBFF36F8F0AF015
:100B100081FEFFF733FFFFF751FEFFF7D1FE01F033
:100B200025FBFFF7FDFEFFF7A7FE07F081FD07F0AD
:100B30004DFEFCE700ED00E082B0074BD3F8F42057
:100B400042F00202C3F8F420D3F8F43003F00203B9
:100B50000193019B02B070470044025810B5B8B031
:100B60000446002133913491359136913791C0225A
:100B700002A829F04CFF22681C4B9A4201D038B0E1
:100B800010BD4FF480420023CDE9022302A80BF0F0
:100B90007FFE40BB164BD3F8F42042F02002C3F88E
:100BA000F420D3F8F42002F020020092009AD3F847
:100BB000E02042F04002C3F8E020D3F8E03003F038
:100BC00040030193019B4FF4C243339302233493B8
:100BD00000233593032336930523379333A9054820
:100BE0000DF04EFACBE7FFF769FED3E7001400588B
:100BF000004402580018025810B5B8B0044600214D
:100C000033913491359136913791C02202A829F061
:100C1000FEFE22681B4B9A4201D038B010BD012263
:100C20000023CDE9022302A80BF032FE38BB164B9D
:100C3000D3F8F02042F01002C3F8F020D3F8F020EF
:100C400002F010020092009AD3F8E02042F0010274
:100C5000C3F8E020D3F8E03003F001030193019BD7
:100C60004FF4C063339302233493002335933693B8
:100C70000723379333A905480DF002FACDE7FFF7B4
:100C80001DFED4E700100140004402580000025845
:100C9000F0B5BBB0044600213591369137913891BB
:100CA0003991C02204A829F0B2FE22682C4B9A4246
:100CB00001D03BB0F0BD4FF480320023CDE90423D6
:100CC00004A80BF0E5FD002846D1264BD3F8D4202C
:100CD00042F48032C3F8D420D3F8D42002F4803216
:100CE0000192019AD3F8E02042F00402C3F8E02018
:100CF000D3F8E02002F004020292029AD3F8E02036
:100D000042F00802C3F8E020D3F8E03003F0080313
:100D10000393039B4FF4F853359302243694002534
:100D20003795032638960C27399735A90E480DF0CC
:100D3000A7F904233593369437953896399735A912
:100D40000A480DF09DF92A46052131200AF026FEB9
:100D500031200AF033FEACE7FFF7B0FDB5E700BF86
:100D6000007000520044025800080258000C02585B
:100D700008B502680B4B9A4200D008BD0A4AD2F867
:100D8000D43023F48033C2F8D43031200AF01AFE74
:100D90004FF4F85105480DF093FA042104480DF082
:100DA0008FFAEAE700700052004402580008025827
:100DB000000C025808B50BF053FC08BDFEE7FEE737
:100DC000FEE7FEE770477047704708B50AF052FD2E
:100DD00008BD000008B502480EF006FB08BD00BFC4
:100DE000C030002408B501F08FF908BD08B50346EE
:100DF0000B4A126842B10A4A10680344094A9342F6
:100E000006D8074A136008BD054A07491160F2E792
:100E100029F036FE0C2303604FF0FF30F3E700BFEC
:100E2000583200240000082428B0042402685369C2
:100E3000916941F00801916101688A6942F01002EC
:100E40008A6101680A6822F001020A600168D1F82B
:100E500010C0274A0CEA02020A6101688A6822F47B
:100E600040428A6090F88120042A0DD013F0200FB0
:100E70000AD0D0F8842042F08002C0F884200168B3
:100E80008A6942F020028A6190F88120032A0DD0FD
:100E900013F0400F0AD0D0F8842042F00402C0F8CA
:100EA000842001688A6942F040028A6113F4007F5D
:100EB0000AD0D0F8842042F00102C0F884200168F2
:100EC0008A6942F400728A6113F4807F0AD0D0F8F4
:100ED000843043F00803C0F884300268936943F417
:100EE000807393610023A0F86230A0F86A307047E5
:100EF00090FCFFFF00B583B08DF8070001224FF48E
:100F0000004106480DF084FA4FF47A7301220DF186
:100F1000070103480FF0B4F803B000BD00180258F1
:100F2000D031002400B583B08DF8070000224FF4C3
:100F3000004106480DF06CFA4FF47A7301220DF16E
:100F4000070103480FF09CF803B000BD00180258D9
:100F5000D031002410B582B0044601224FF4004184
:100F600008480DF055FA230A8DF804308DF8054035
:100F70004FF47A73022201A903480FF081F802B0FE
:100F800010BD00BF00180258D03100242DE9F041F7
:100F900080460F4616461D462A20FFF7C3FF0F4C1A
:100FA000A37B4046184480B2FFF7D4FFA07B3044B7
:100FB00080B2FFF7CFFF2B20FFF7B4FFE07B384470
:100FC00080B2FFF7C7FFE07B284480B2FFF7C2FF83
:100FD0002C20FFF7A7FFBDE8F08100BF603200249E
:100FE0002DE9F04107460E4615469846069C00E05E
:100FF000B4B13B685B6936EA03030CBF01230023ED
:10100000AB420AD10AF042FCA0EB0800A042EFD3A9
:10101000B4F1FF3FECD0032000E00020BDE8F081F8
:101020000320FBE72DE9F04383B090F88030012BDB
:1010300000F0AF8004460E461546012380F880304C
:101040000AF024FC074694F881305FFA83F8012BFC
:1010500028D185B3032384F881300023C4F8843079
:1010600006EB064291466366A4F86830A4F86A303D
:1010700063672367A368B3F5C02F1FD02268536846
:101080006FF30F0353602268136843F0010313608A
:101090006368B3F5800F19D12268136843F40073B5
:1010A000136013E0002384F880304FF002084046BC
:1010B00003B0BDE8F08384F88050F8E72268136835
:1010C00043F400631360D9E71E84013D35B3236800
:1010D0005A6912F0020F0BD0B4F8622092B2012AC2
:1010E000F2D9E26B002AEFD0C3F82090023DEDE781
:1010F0000AF0CCFBC01BB0F57A7FE7D32046FFF7A0
:1011000095FE002384F88030D4F8843043F4807353
:10111000C4F88430012384F88130C8E74FF47A732F
:1011200000933B462A464FF480512046FFF758FF74
:1011300028B1D4F8843043F02003C4F88430226806
:10114000136843F4806313604FF47A7300933B4653
:1011500000224FF400612046FFF742FF28B1D4F887
:10116000843043F02003C4F884302046FFF75EFE4D
:101170002268936943F400639361002384F880300C
:10118000012384F88130D4F88430002B8FD1984625
:101190008DE74FF002088AE72DE9F04182B090F820
:1011A0008030012B00F0AC8004460E46154601232A
:1011B00080F880300AF06AFB074694F881305FFAC5
:1011C00083F8012B25D16DB3032384F881300023EC
:1011D000C4F884306366A4F86830A4F86A306367A2
:1011E0002367A368B3F5C02F1FD0226853686FF33D
:1011F0000F0353602268136843F0010313606368B0
:10120000B3F5800F1BD12268136843F40073136099
:1012100015E0002384F880304FF00208404602B009
:10122000BDE8F08184F88050F8E72268136843F441
:1012300000631360D9E736F8023B1384013D25B300
:101240002268516911F0020F09D0012DF3D9E36B27
:10125000002BF0D056F8043B1362023DEFE70AF092
:1012600015FBC21BB2F57A7FE9D32046FFF7DEFDFE
:10127000002384F88030D4F8843043F48073C4F8B9
:101280008430012384F88130C8E74FF47A730093E7
:101290003B462A464FF480512046FFF7A1FE28B175
:1012A000D4F8843043F02003C4F8843022681368F3
:1012B00043F4806313604FF47A7300933B4600223B
:1012C0004FF400612046FFF78BFE28B1D4F884303C
:1012D00043F02003C4F884302046FFF7A7FD2268BE
:1012E000936943F400639361002384F88030012301
:1012F00084F88130D4F88430002B8FD198468DE764
:101300004FF002088AE70000014B1860704700BFE9
:101310005C320024014B1872704700BF6032002419
:1013200008B5224B587230B1022812D001281ED0C5
:1013300003282BD008BD3620FFF7F4FD7020FFF7FF
:10134000D9FD1A4B00229A73DA73F0225A819A81DE
:10135000F0E73620FFF7E6FD0020FFF7CBFD134B4B
:1013600000229A73DA73F0225A819A81E2E73620DA
:10137000FFF7D8FDA020FFF7BDFD0C4B50229A735C
:101380000022DA73F0225A819A81D3E73620FFF7E0
:10139000C9FDC020FFF7AEFD044B00229A73502216
:1013A000DA73F0225A819A81C4E700BF60320024C8
:1013B000C0F30F2303F47843C0F34F1202F4FC622E
:1013C000C0F3C40013431843014B5860704700BF7B
:1013D00060320024C0F30F2303F47843C0F34F12AC
:1013E00002F4FC62C0F3C40013431843014B1860BD
:1013F000704700BF6032002438B5124D6A89AB894E
:10140000013B013A9BB292B200210846FFF7BEFDB4
:1014100001224FF400410C480CF0FAFF0B4C0F2353
:10142000E36020460EF064FD6B89AA8903FB02F29B
:10143000A9882046FFF7F6FD0723E36020460EF05B
:1014400057FD38BD6032002400180258D031002406
:1014500008B50A200AF020FA3620FFF763FD0020C5
:10146000FFF748FD3A20FFF75DFD0520FFF742FD3D
:10147000B220FFF757FD0C20FFF73CFD0C20FFF7D3
:1014800039FD0020FFF736FD3320FFF733FD332011
:10149000FFF730FDB720FFF745FD3520FFF72AFDA8
:1014A000BB20FFF73FFD1920FFF724FDC020FFF709
:1014B00039FD2C20FFF71EFDC220FFF733FD012070
:1014C000FFF718FDC320FFF72DFD1220FFF712FDD7
:1014D000C420FFF727FD2020FFF70CFDC620FFF7F3
:1014E00021FD0F20FFF706FDD020FFF71BFDA420F4
:1014F000FFF700FDA120FFF7FDFCE020FFF712FD44
:10150000D020FFF7F7FC0420FFF7F4FC0D20FFF7D5
:10151000F1FC1120FFF7EEFC1320FFF7EBFC2B2072
:10152000FFF7E8FC3F20FFF7E5FC5420FFF7E2FC63
:101530004C20FFF7DFFC1820FFF7DCFC0D20FFF745
:10154000D9FC0B20FFF7D6FC1F20FFF7D3FC23208C
:10155000FFF7D0FCE120FFF7E5FCD020FFF7CAFC45
:101560000420FFF7C7FC0C20FFF7C4FC1120FFF795
:10157000C1FC1320FFF7BEFC2C20FFF7BBFC3F2073
:10158000FFF7B8FC4420FFF7B5FC5120FFF7B2FC91
:101590002F20FFF7AFFC1F20FFF7ACFC1F20FFF749
:1015A000A9FC2020FFF7A6FC2320FFF7A3FC2120A5
:1015B000FFF7B8FC1120FFF7B5FC78200AF06CF9B2
:1015C0002920FFF7AFFC0220FFF7AAFE0020FFF75B
:1015D000EFFE6FF07F40FFF7FDFEFFF70DFF0748BE
:1015E000FFF792FE0020FFF795FE01224FF4805195
:1015F00003480CF00DFF002008BD00BF20000024B0
:101600000018025870B514461D4600EB020C1FFA74
:101610008CFC01EB030E1FFA8EFE0EF1FF3E0CF167
:10162000FF3C1FFA8EF31FFA8CF2FFF7AFFC01228A
:101630004FF400410A480CF0EBFE0A4E0F23F36012
:1016400030460EF055FC05FB04F204993046FFF7D6
:10165000A3FD0723F36030460EF04AFC70BD00BFC7
:1016600000180258D031002418280AD005D80C28B8
:1016700009D0102809D102207047202807D1042062
:1016800070470320704701207047FF207047FF20FC
:10169000704708B50A89531E9BB2BF2B00D9C022E0
:1016A000002129F0B4F908BD70B582B00E46118949
:1016B0004B1E9BB2BF2B42D81446037842787F332F
:1016C000DBB27D2B3ED8A2F14000C0B2BE283BD891
:1016D0007E2A14D84020121ABE2000FB03F353FACE
:1016E00082F201FB02F5E088FFF7BEFFFF282DD054
:1016F000184B034493F8FC3C1BB9012020E0412027
:10170000E9E74FF40A7303FB00F000F50C70114B8E
:101710001844031D29461D46184609F0F3FD08B17B
:1017200001200DE001AB22893146284609F0BDFCBD
:1017300070B92289019B9A4202D0012000E0012069
:1017400002B070BD0120FBE70120F9E70120F7E7B7
:101750000120F5E77032002438B5234C40F60452DE
:101760000021204629F053F901222049204609F0A2
:1017700051FB002834D1044605461B4B012283F857
:10178000012D01E00134E4B2042C16D84FF40A70A4
:1017900004FB00F000F50C70134B18440122144BAD
:1017A00053F82410043009F061FB0028EAD10E4BF5
:1017B0002344012283F8FC2CE4E70B4B93F8FD3C17
:1017C00083B9094B93F8FE3C63B9074B93F8FF3C90
:1017D00043B9054B93F8003D23B901231D4601E0B1
:1017E00001231D46284638BD703200241CE802083B
:1017F000F8F702080023184601E00133DBB2042B9E
:1018000009D8054A1A4492F8FC2C002AF5D0012286
:101810009A401043F1E7704770320024002918BF46
:1018200000280DD038B515460C465AB1FFF73CFFDD
:1018300000B938BD29462046FFF72BFF0120F8E705
:10184000012070470120F4E710B50AF01FF80446A4
:1018500007480DF051FD042807D00AF017F8001BC7
:10186000B0F57A7FF4D9032000E0002010BD00BF5E
:10187000C030002408B510480DF025F808B101204B
:1018800008BD0D480D4B03600023436083604FF497
:101890008042C2600361042343610DF03EFD08B144
:1018A0000120EDE74FF4804103480DF075FC00285E
:1018B000E6D00120E4E700BFC030002400700052F1
:1018C00070B582B006460D461446FFF7BDFF60B9FD
:1018D0004FF47A73009323462A46314604480DF0AC
:1018E00005F818B9FFF7B0FF00E0032002B070BDA3
:1018F000C030002470B582B006460D461446FFF78E
:10190000A3FF60B94FF47A73009323462A46314609
:1019100004480DF0EFF818B9FFF796FF00E0032038
:1019200002B070BDC030002410B58CB0002302930B
:101930000193002836D004462022194629F067F882
:1019400003A91B480DF016FC40B99DF80C30A3709C
:10195000099A0A9BA2FB0323A260E36002AA01A9E1
:10196000144809F02CFEF8B9029BFBB11B78637098
:1019700002998B69023B4A89A3FB0232520242EA76
:10198000D3525B0223616261019A4B89A2FB03235C
:101990005B0243EAD2535202A261E3610123237046
:1019A0000CB010BD0120FBE70120F9E70120F7E7AB
:1019B000C03000241CE80208002B18BF002A3AD0CF
:1019C00030B583B084468E46104619460022144630
:1019D00012E0CCF309039A00D2182CBF0123002394
:1019E00092185B41920A42EA83524FEA9C2C4CEADD
:1019F0008E5C4FEA9E2E0134BCF5806F7EF10003B1
:101A00002CBF01230023032C8CBF002501250BB123
:101A1000002DDED12CB96346074A28F067FF03B0DA
:101A200030BD064B53F82430019300926346044ABC
:101A300028F05CFFF3E77047ACE802080CF80208F6
:101A4000B4E8020803280AD005D8012809D00228E2
:101A500009D107487047042807D10648704706484F
:101A6000704706487047064870470548704700BFF2
:101A7000C8E80208D8E80208D0E80208C0E802086E
:101A8000E4F5020818B1012803D103487047034860
:101A900070470348704700BFE8E80208E0E8020822
:101AA000F4E8020810B50CF0C3FC204B1B6F13F0D8
:101AB000020F01D0012010BD1C4A136F43F0010337
:101AC000136709F0E3FE0446184B1B6F13F0020F77
:101AD0000ED109F0DBFE001BB0F57A7FF4D9134B71
:101AE0001A6F22F001021A671A6F22F004021A67B5
:101AF0000E4B1B6F13F0020F01D00120DBE70B4AE6
:101B0000536F43F00103536709F0C0FE0446074BCF
:101B10005B6F13F0020F06D109F0B8FE001B6428BA
:101B2000F5D90020C7E70220C5E700BF00440258EE
:101B3000034601F1FF3C5FFA8CFCBCF10B0F1ED891
:101B4000022900D8431E03EB9300DFF844C0ACFB2E
:101B500003C3A0EB531000EBD31301390A48415CD7
:101B60000B441A440948A0FB0230131A00EB53003F
:101B70008008C0EBC000101A03D0C0B2704701202B
:101B800070470720704700BF80F80208254992245B
:101B90001F85EB5110B5044601238370002301E03B
:101BA0000133DBB20B2B10D803EB43020F49895CE6
:101BB0005329F5D1511C0D48415C6529F0D1023201
:101BC000825C702AECD10133A3701E22E27040F2D5
:101BD000EA702080102363710223A3711823E3713C
:101BE000A178FFF7A5FF207110BD00BF20F8020803
:101BF000431EDBB2062B04D80138034B53F82000F8
:101C000070470248704700BF64F8020808E90208FC
:101C1000431EDBB2062B04D80138034B53F82000D7
:101C200070470248704700BF48F80208F4E802080D
:101C30002DE9F04186B000230193029303930493AE
:101C40000593009300284ED00446324B93F824307D
:101C5000002B4AD081784B1EDBB20B2B49D8C278BF
:101C6000002A48D01F2A48D840790546172846D868
:101C7000A07906463B2844D8E07907463B2842D85D
:101C80002088B0F5FA6F40D340F6330398423ED82F
:101C900023799846013BDBB2062B02D9FFF748FFB8
:101CA00080468DF804508DF805608DF8067000228E
:101CB00001A918480FF0F4F808B1012016E08DF8DA
:101CC0000080A3788DF80130E3788DF80230238806
:101CD00030338DF80330024669460E480FF048F95C
:101CE00020B1012002E0012000E0012006B0BDE8A3
:101CF000F0810120FAE70120F8E70120F6E7012052
:101D0000F4E70120F2E70120F0E70120EEE70120EF
:101D1000ECE700BF743F002410B5B2B0C022002130
:101D200002A828F074FE354C002384F8253084F88E
:101D30002630FFF7B7FE84F82400002859D04FF46E
:101D400080020023CDE90223012828D04FF400733C
:101D50002F9302A80AF09CFD20BB294A136F43F47D
:101D600000431367254BA2F501321A6058607F22A9
:101D70009A6093F82430012B1AD0F9231F48C360CE
:101D80000023036143618361C3610FF02BF80446B4
:101D900080B11A4B002283F8242001242AE04FF45A
:101DA0008073D5E7154B002283F82420012421E01D
:101DB000FF23E3E7014611480FF080F9114B9842E9
:101DC00004D10E4B012283F8252013E06846FFF76B
:101DD000E1FE6846FFF72CFF08B101240AE0094A3A
:101DE000014606480FF065F90123044A82F82630BF
:101DF000E7E70124204632B010BD00BF743F002445
:101E0000004402580CC1F73210B586B0002301938C
:101E10000293039304930593009368B30446184B0D
:101E200093F8243013B9012006B010BD002201A997
:101E300013480FF0FAF808B10120F5E702466946A9
:101E40000F480FF018F9C8B99DF8043063719DF878
:101E50000530A3719DF80630E3719DF8033003F55A
:101E6000FA6323809DF80130A3709DF80230E3707F
:101E70009DF800302371D7E70120D5E70120D3E793
:101E8000743F0024014B93F824007047743F0024F2
:101E9000014B93F826007047743F002400207047E0
:101EA0000020704708B5A1F500115202490228F040
:101EB0001BFE002008BD08B5A1F500135202014623
:101EC000580228F011FE002008BD012806D0032882
:101ED00002D14FF400730B60002070474FF4805321
:101EE0000B60F9E7034B1B78012B01D000207047F2
:101EF000012070479C3F002400207047154B1B7841
:101F0000012B23D02DE9F04106460F4690460024D0
:101F10000AE00134E4B2FFF7ADFC0DE0032C8CBF06
:101F20000023012375B16BB1424639463046FFF7B5
:101F3000C7FC05460028ECD1042CEFD1054B01224B
:101F40001A70EBE725B92846BDE8F08101207047FB
:101F50000120F9E79C3F0024154B1B78012B23D06F
:101F60002DE9F04106460F46904600240AE0013470
:101F7000E4B2FFF77FFC0DE0032C8CBF00230123AC
:101F800075B16BB1424639463046FFF7B3FC0546A2
:101F90000028ECD1042CEFD1054B01221A70EBE79D
:101FA00025B92846BDE8F081012070470120F9E7F6
:101FB0009C3F002410B58AB00C46022814D00CD8DF
:101FC00080B1012807D101A90D480DF0D3F880B9DF
:101FD000079B236006E0042004E003280DD10123C1
:101FE0000B6000200AB010BD4FF400730B8000207E
:101FF000F8E7044B23600020F4E70420F2E700BF79
:10200000C0300024A0ACB903002070470020704706
:1020100000207047002070470020704708B5094B2A
:1020200093F8073403B108BD1A460521252009F0AD
:10203000B5FC252009F0C2FC024B012283F80724DD
:10204000F1E700BFA03F0024002818BF002901DCF1
:102050000020704738B505460C46FFF7DFFF284BD8
:102060001A68136823F080031360002015E0254AE6
:10207000B2F800349BB2295CD154B2F800349BB260
:102080000133C3F30903A2F80034B2F804349BB25D
:1020900001339BB2A2F804340130A04206DA194B96
:1020A000B3F804349BB2B3F5806FE0D3154B93F8CB
:1020B0000634F3B9134BB3F804349BB2CBB1114BD4
:1020C000012283F80624B3F8022492B20C4909686D
:1020D0009A5C8A62B3F8022492B20132C2F3090216
:1020E000A3F80224B3F8042492B2013A92B2A3F8FE
:1020F0000424034B1A68136843F08003136038BD4F
:102100003C310024A03F0024164B1B68DA6912F012
:10211000800F26D01A6812F0800F22D0124AB2F82F
:10212000042492B2AAB1104AB2F8021489B2515CE6
:102130009962B2F802349BB20133C3F30903A2F8E7
:102140000234B2F804349BB2013B9BB2A2F80434CF
:1021500070471A6822F080021A60034B002283F84D
:10216000062470473C310024A03F002408B5FFF747
:1021700055FF08BD00B5C1B002460B464FF4807153
:10218000684628F00DFC011E05DBFF2900DDFF215C
:102190006846FFF759FF41B000BD0FB400B583B0EA
:1021A00004A951F8040B0191FFF7E4FF03B05DF8B7
:1021B00004EB04B0704710B582B00446B1F804C017
:1021C0000888ACEB000C1FFA8CFC0CF1010CCB88DE
:1021D00049885B1A9BB2013300929BB21FFA8CF2C2
:1021E000FFF710FA204622F0BCF802B010BD000044
:1021F00038B50C49A1F180044FF461530022204608
:1022000021F0BCFF04F11C05284621F08DFFF023CE
:10221000A383E383044B2363A462284621F0BCFF1D
:1022200038BD00BF40440024B7210008002300E06F
:1022300001330F2B1DD803EB431C0F4A02EB0C128A
:1022400092F82C2F002AF3D00B4A02EB0C12D2F892
:10225000202F8242ECD1084A02EB0C12D2F8242F34
:102260008A42E5D16346180100F55260024B1844DA
:1022700070470020704700BF6800002400B54FF091
:10228000FF3E1548002306E00B0103F55263134897
:10229000184400BD01330F2BFBD803EB43110F4A49
:1022A00002EB011292F82C2F002AEDD00B4A02F516
:1022B0000051D1F8241E03EB431C02EB0C12D2F8A0
:1022C000282F8A1A7245E5D86146090101F5526145
:1022D000024808449646DDE7880D00246800002483
:1022E0004B6913600020704708B508461146012B62
:1022F00004D0022B08D01BB10B2004E04369194421
:1023000009F000F818B908BDC3681944F8E70C20B3
:10231000F9E70000F0B583B004460F4600230193AF
:10232000D0F82C02FFF782FF064678B1244AD2F893
:10233000283E0133C2F8283ED2F8243E0133C2F8C9
:10234000243EC0F80832304603B0F0BD1C4AD2F833
:102350002C3E0133C2F82C3EFFF790FF0546790270
:10236000204608F0CFFF0028EDD101AB4FF40072FA
:102370002946204608F099FEB0B90198B0F5007FD3
:1023800016D3D4F82C32C5F80032C5F804720123F4
:1023900085F80C320A4AD2F8243E0133C2F8243EB2
:1023A000C5F808322E46CEE7002385F80C32CAE77E
:1023B000C0F500720021284428F029FBE1E700BFA6
:1023C000682000242DE9F047894617469A464D6952
:1023D0001E460CE04846FFF79DFF014698B1224695
:1023E0004144384628F080FB27442544361B86B1FB
:1023F000690AA5EB4128C5EB412404F50074A64207
:10240000E8D23446E6E753469E1B089B1E600C202C
:1024100007E02946484608F075FF089BC3F800A06E
:102420003046BDE8F087000010B50C46084608F0BD
:1024300059FF002384F8283200E001330F2B18D80D
:1024400003EB43100C4A02EB001292F82C2F002AE7
:10245000F3D0094A02EB0012D2F8201FD4F82C2244
:102460009142EAD1044A02EB0012002182F82C1FAB
:10247000E3E7002010BD00BF6800002438B5022A41
:1024800044D10D46002944D00B78002B43D00023C3
:10249000052B37D8244A4FF40C7C0CFB032292F80E
:1024A00028220AB10133F3E71F4A0CFB03231C4621
:1024B0002846FDF719FF0230B0F5837F2DD81B4B5E
:1024C0001B681B4A13801B0C93702946104628F08A
:1024D000A6FA01221649204608F0C8FC00BB0123D9
:1024E00084F82832134BD3F8202E511CC3F8201E39
:1024F000C4F82C22D3F8203E33B90E4B0122C3F886
:10250000202E01E000231C46204638BD00231C4637
:10251000FAE70C46F8E71C46F6E700231C46F3E70B
:1025200000231C46F0E700BF680000241CE80208F6
:10253000982E00246820002438B5174C4FF45262BE
:102540000021204628F063FA4FF40452002104F5DC
:10255000526028F05CFA04F500500123C0F8203ED8
:102560000025C0F8245EC0F8285EC0F82C5E0B4C35
:10257000204622F0CFFE312323706580084BA360F4
:10258000084BE360084B2361084BA361084BE361F0
:10259000204622F0C5FE38BD68000024C0B40024E7
:1025A0007D24000829240008C5230008E92200082A
:1025B000E122000838B50C460169A2F120035E2B28
:1025C00012D84A689388D288A380E38022810023AE
:1025D0006381A381A37B012060F30303A373DBB2B8
:1025E00023F01003A37338BD0D46104600F0E6FA41
:1025F0000028F8D02A689388D288E5E72DE9F047CB
:1026000006460D4614461F4602F107084FEAD80851
:1026100002FB03F20732D2080021284628F0F7F91E
:102620000020024626E00CF1010C1FFA8CFC01325E
:10263000A4451DD24FEADC0306EB010E1EF8033061
:102640000CF007094FF0010E0EFA09FE1EEA030F07
:10265000E9D04FEAD20E15F80E9002F0070A802357
:1026600023FA0AF3DBB249EA030305F80E30DAE78E
:10267000013080B2B84204D208FB00F14FF0000CE8
:10268000D6E7BDE8F0872DE9F84F07460D4614461A
:102690009846DE1DF60802FB03F20732D20800213D
:1026A000284628F0B4F94FF000094B4620E00CF121
:1026B000010C1FFA8CFC0133A44515D206FB0CFE5D
:1026C0003A1812F80E200A42F1D04FEAD30A15F850
:1026D0000AE003F0070B802222FA0BF2D2B24EEA94
:1026E000020E05F80AE0E2E709F101091FFA89F98B
:1026F000C14509D24FEAD90009F007028021D14033
:10270000C9B24FF0000CD7E7BDE8F88F70B582B0C2
:1027100004460D46808B013080B2A083002301E087
:102720000133DBB2217D994211D9E26802EB8301CA
:1027300032F82320AA42F3D1488028490A6801329E
:102740000A602069228902FB030002B070BD4FF0CD
:10275000000E7646734601E00133DBB299420FD991
:10276000E26802EB830C32F8232042B1BCF802206D
:10277000821A92B29645EFD896461E46ECE71E4660
:10278000174A1368013313602B0A8DF804308DF853
:1027900005502268134901A8FFF740F8B0B9216934
:1027A00020892268D388928800FB06110D48FFF724
:1027B0006AFFE36823F82650E36803EB8603A28BE5
:1027C0005A802069238903FB0600BEE7054D228954
:1027D0000021284628F01BF92846B6E7A4D4002497
:1027E000A0D40024F0B4002410B50469A1F1200C99
:1027F000BCF15E0F08D9084600F0E0F9014610B1BF
:102800002046FFF783FF10BD62681068B2F808E049
:10281000D3889288A1690EFB0C00FFF7EFFEA06938
:10282000F1E7000010B1044A1268026011B1034BD5
:102830001B680B60704700BFA4D40024A0D4002400
:1028400010B1044A1268026011B1024B5B680B6060
:10285000704700BFA8D40024182805D0202805D030
:102860000C2805D103487047034870470348704758
:1028700003487047E0F80208A8F802088CF802083C
:10288000C4F8020870B506460D46FDF72DFD042874
:1028900012D90446431CAB4210D8043809493044CD
:1028A000FDF718FD60B9E21E7423B354A21EB354A1
:1028B000013C6623335500E0012070BD0120FCE798
:1028C0000120FAE7A8E9020810B58AB002A805F0CD
:1028D0006FFC049B0093039B029A05990D48FFF738
:1028E0005CFC9DF8263073B1069B1C4605F078FC15
:1028F000024621460848FFF750FC08990748FFF7B1
:102900004CFC0AB010BD079A06990548FFF745FC34
:10291000F3E700BFB0E90208F0E9020874EA020830
:1029200040EA02082DE9F041ADF57E7D002918BF8F
:10293000002800F0868013461546064688461F2B61
:1029400002D801231C467EE0002303700B70424B2B
:102950000093424B424A802102A827F0C7FFACA94E
:1029600002A808F004FE40B13C49F2A808F08DFD31
:1029700060B100231C46002C6AD002A8FDF7B4FC0D
:102980002C46A84236D301231C465CE0ACA9F2A831
:1029900008F0BFFD30BB9DF8C63233B39DF8B832A6
:1029A00013F0100FF2D10DF2C620FDF79DFC0428A4
:1029B000ECD90C30ACAB18442A490630FDF78AFC40
:1029C00004460028E2D10DF2C6230093234B264A89
:1029D000802102A827F08AFF7F2808DDF2A808F0EE
:1029E0008EFDC8E700231C46F8E71C46F6E70123E6
:1029F0001C46F3E76B1E1F461A4602A9304628F014
:102A00002BF84FF00005F5553A4602A9404628F04C
:102A100023F808F8075021464046FFF733FF10B16E
:102A200001231C460FE00122414622A808F01EFAAD
:102A3000044610B101231C4605E022A808F052FC10
:102A400001E001231C4620460DF57E7DBDE8F081A6
:102A500001231C46F7E700BFC4EA02089CEA02080B
:102A6000B8EA0208A8E90208E0EA020810B58022E4
:102A700015491648FFF756FFB8B91349134805F032
:102A800097F90446C0B9124B02221A701148FFF799
:102A900084FB0E491048FFF780FB0B490F48FFF7F6
:102AA0007CFBFFF711FF204610BD0D490D48FFF7D5
:102AB00074FB01231C46F6E704490B48FFF76DFB46
:102AC00001231C46EFE700BFB0D4002430D500241A
:102AD000B0D5002424EB020848EB02085CEB0208A6
:102AE0009CEA0208E8EA020808EB020808B5FFF7CA
:102AF000BDFF00B908BD044B00221A700348FFF760
:102B00004CFB0120F6E700BFB0D5002470EB0208B3
:102B1000014B1878704700BFB0D50024054B1B78D7
:102B2000012B03D0022B03D10348704703487047A1
:102B300003487047B0D5002490EB02089CEB0208D4
:102B4000A8EB020810B50446064B1B78022B03D0F5
:102B50002046FFF781FE10BD05F0D0F90028FAD11C
:102B6000F6E700BFB0D5002408B51020FFF7EAFF54
:102B700008BD000008B5044B1B78022B00D008BD2F
:102B800005F012F9FBE700BFB0D5002408B5044BEF
:102B90001B78022B00D008BD05F0EAF8FBE700BF68
:102BA000B0D5002408B5044B1B78022B01D00020BF
:102BB00008BD05F0D7F8FBE7B0D50024A0F18002EE
:102BC0004FF67F739A4227D8A0F59C4345F2A51291
:102BD000934206D940F2793C002161451ED200B5EE
:102BE00008E00F4A32F81300704790B200BD591C3C
:102BF00061450FD2ACEB010301EB5303094A52F8D4
:102C000023204FEA124EB0EB124FEED07045EED8B3
:102C10009C46EDE70020E9E7002070470020704760
:102C2000E0060308FCF80208002300E00133C26854
:102C30009A4206D91A1D50F822208A42F6D1184627
:102C400070474FF0FF30704700B5024600204FF04C
:102C5000FF3C8646034606E003F1140152F821C00A
:102C60009E4601200133D16899420FD9191D52F8AF
:102C70002110B1F1FF3F08D00028EDD003F114017D
:102C800052F821106145EDD2E6E79E46704600BD40
:102C900000B58E461146082B1CD81A46DBB9012216
:102CA00019E04FEA5C0C0133BCF1010FF9D8C0F810
:102CB00000E041608360C26000230367019A4267BD
:102CC000029A8267C367C0F88030C0F88430C0F8C9
:102CD000883012E008228C460023E5E71A1D4FF0E9
:102CE000FF3140F8221003F10C01002240F82120AE
:102CF00003F1140140F821200133072BEED900BD68
:102D00002DE9F04F87B0044688469146039343E08F
:102D1000002305932046FFF797FF0546226805AB81
:102D20000093534600FB0A220BFA07F1606FA76F6E
:102D3000B847B8B92B1D44F823B0059B05F10C0228
:102D400044F82230D4F880200132C4F88020D4F82E
:102D500084200132C4F88420D4F888201344C4F8B5
:102D600088302EE02B1D4FF0FF3244F823200C3525
:102D7000002344F82530012038E02168636805FB12
:102D8000036652463144484627F0AEFED044D14453
:102D9000039BA3EB0A030393039B33B3A3681F4670
:102DA00028FA03FBD4F804A00AF1FF3606EA080665
:102DB00059462046FFF738FF051EA9DBE36F0133B4
:102DC000E367236F0133236705F1140244F82230CF
:102DD00005F10C0354F82330B3420AD9A3EB060AD9
:102DE000039B5345C9D29A46C7E7184607B0BDE8CA
:102DF000F08F0120FAE700230EE01A1D4FF0FF319B
:102E000040F8221003F10C01002240F8212003F1C8
:102E1000140140F821200133072BEED9704700B58B
:102E2000DDF804C019B18E46C16FCEF8001012B1A2
:102E3000D0F88010116013B1D0F884201A60BCF172
:102E4000000F03D0D0F88830CCF8003000BD00006F
:102E5000094B1B6813F0010F0DD1084AD2F8FC3062
:102E600043F08073C2F8FC30034B00225A601A68AA
:102E700042F001021A607047001000E000ED00E02F
:102E8000F0B583B0044617461E46002301931A4B43
:102E90005D6808F037FA10B1012003B0F0BD1649A3
:102EA0004A68521BD4F8C8321344C4F8C8324D687B
:102EB00001AB32463946204608F0F7F8D0B90E4B40
:102EC0005A68521BD4F8CC321344C4F8CC32D4F82C
:102ED000BC320133C4F8BC32D4F8C0320133C4F878
:102EE000C032D4F8C432019A1344C4F8C432089BE7
:102EF0001A60D2E70120D0E7001000E0F0B583B0FF
:102F000004460D4616461F46002084F82802C4F8E1
:102F10002C02C4F8BC02C4F8C002C4F8C402C4F84D
:102F2000C802C4F8CC02FFF793FF002D18BF002C95
:102F30001BD02946F6B10122204607F097FF05462F
:102F400010B101231D4612E0E368C4F82C320B4B8C
:102F500001930094089B3A46314604F50C70FFF744
:102F600097FE012384F8283201E001231D462846FC
:102F700003B0F0BD01231D46F9E700BF812E000814
:102F800088B110B5044690F828324BB904F50C709E
:102F9000FFF731FF002384F82832C4F82C3210BD2B
:102FA00008F0A0F9F2E77047A0B1844690F8280233
:102FB00090B19BB1A2B1DCF82C02884212D3401A26
:102FC000984201D20120704708B50CF50C70FFF74C
:102FD00097FE08BD012070470120704718467047D2
:102FE000012070470120704750B100B583B084467E
:102FF000049800900CF50C70FFF711FF03B000BDB2
:1030000070470B4619B140B1D0F8C81219601AB117
:1030100028B1D0F8CC32136070470146F6E703467A
:10302000F9E700F05503400800F05500034403F0B1
:1030300033009B0803F03303034403F00F0000EB5D
:1030400013107047F8B507460D460024264605E0E4
:103050003B19187AFFF7E5FF06440134EB08B4EB9F
:10306000D50FF5D315F0070508D01F44387A012392
:10307000AB40013B1840FFF7D4FF06443046F8BD93
:103080004FF0000C0DE041F300000B4B034083EACE
:1030900051010132072AF6D9084B43F82C100CF1E4
:1030A000010CBCF1FF0F02D861460022F2E7044B8D
:1030B00001221A60704700BF2083B8EDB8D9002400
:1030C000B4D9002400B596464FF0000C0AE011F880
:1030D0000C304340DBB2054A52F8233083EA10201B
:1030E0000CF1010CF445F2D300BD00BFB8D90024A7
:1030F000AAB110B5044694460022A1FB0C0EBEF105
:10310000000F0AD16AB901FB0CFC9C450BD8A3EB5C
:103110000C03A34209D3012004E00122F2E7104688
:103120007047002010BD0020FCE70020FAE770B5D2
:1031300082B0064615461C460023019308F0E2F8CB
:1031400010B1012002B070BD01AB224629463046C5
:1031500007F0ABFF18B9019A069B1A60F2E701204D
:10316000F0E70000002918BF002800F026812DE9B3
:10317000F04F03460A460078597840EA01209978D2
:1031800040EA0140D97840EA0160106093F8049069
:10319000597949EA0129A2F8049093F806A0D9794F
:1031A0004AEA012AA2F806A0197A5C7A41EA0421C7
:1031B0009C7A41EA0441DC7A41EA04619160197B1E
:1031C0005C7B41EA04219C7B41EA0441DC7B41EACF
:1031D0000461D160197C5C7C41EA04219C7C41EA59
:1031E0000441DC7C41EA0461116193F814E0597DEB
:1031F0004EEA012E997D4EEA014ED97D4EEA016ECE
:10320000C2F814E0197E5C7E41EA04219C7E41EA0A
:103210000441DC7E41EA046191611E7F597F46EAE8
:103220000126997F46EA0146D97F46EA0166D661C2
:1032300093F8201093F8214041EA042193F82240AA
:1032400041EA044193F8234041EA0461116293F892
:10325000241093F8254041EA042193F8264041EADE
:10326000044193F8274041EA0461516293F82840F1
:1032700093F8295044EA052493F82A5044EA054477
:1032800093F82B5044EA0564946293F82C7093F8F9
:103290002D4047EA042793F82E4047EA044793F865
:1032A0002F4047EA0467D76293F8304093F83150D3
:1032B00044EA052493F8325044EA054493F8335025
:1032C00044EA0564146393F8345093F8354045EAB2
:1032D000042593F8364045EA044593F8374045EA1B
:1032E0000465556393F838C093F839404CEA042CD0
:1032F00093F83A404CEA044C93F83B404CEA046C97
:10330000C2F838C093F83C4093F83D8044EA082462
:1033100093F83E8044EA084493F83F8044EA086406
:10332000D46393F8408093F841B048EA0B28A2F8A0
:10333000408093F8428093F843B048EA0B28A2F803
:10334000428093F8448093F845B048EA0B28A2F8ED
:10335000448093F8468093F847B048EA0B28A2F8D7
:10336000468093F8488093F849B048EA0B2893F8D0
:103370004AB048EA0B4893F84B3048EA0363936439
:10338000204B98421CD1B9F1010F1CD1BAF1500F5A
:103390001CD1BCF1180F1CD1BEF1000F1CD1F4B12F
:1033A00001B3B1F5807F20D815B3402E23D8B7F5EF
:1033B000803F23D87046BDE8F08F4FF0FF30704754
:1033C0004FF0FF30F7E74FF0FF30F4E74FF0FF30FA
:1033D000F1E74FF0FF30EEE74FF0FF30EBE74FF053
:1033E000FF30E8E74FF0FF30E5E74FF0FF30E2E76E
:1033F0004FF0FF30DFE74FF0FF30DCE74FF0FF30FA
:10340000D9E700BF435446310378427843EA0223A8
:10341000827843EA0243C27843EA02630B6003798D
:10342000427943EA0223827943EA0243C27943EABA
:1034300002634B60037A427A43EA0223827A43EAC8
:103440000243C27A43EA02638B6070470378427892
:1034500043EA0223827843EA0243C27843EA0263E2
:103460000B600379427943EA02238B80704730B5C1
:1034700083B00546002400E00134D5F85432A3425D
:1034800020D9D5F80803694600EBC400FFF7DEFF3A
:10349000009A002AF0D0BDF804100029ECD0D5F82D
:1034A00058329A420BD3D01AD5F820C6844506D399
:1034B00001EB81019B1A6344B3EBC10FDCD2002006
:1034C00003B030BD0120FBE700B50378427843EA42
:1034D0000223827843EA0243C27843EA02630B6024
:1034E0000379427943EA02238B808379C27943EAE4
:1034F0000223CB80D0F808E0D0F80CC00269436901
:10350000C1F808E0C1F80CC00A614B61D0F818E0BE
:10351000D0F81CC0026A436AC1F818E0C1F81CC0A8
:103520000A624B6200BD0378427843EA0223827844
:1035300043EA0243C27843EA02630B6003794279AB
:1035400043EA0223827943EA0243C27943EA0263EF
:103550004B60037A427A43EA02230B81837AC27A70
:1035600043EA02234B81037B427B43EA02238B81A4
:10357000837BC27B43EA0223CB81037C427C43EA08
:1035800002230B82837CC27C43EA02234B82037DAD
:10359000427D43EA02238B82837DC27D43EA02237C
:1035A000CB8270472DE9F04397B0002918BF00285F
:1035B00000F0A9801646984604460F46002A00F0FF
:1035C000A780002580F82852C0F82C521F98C4F814
:1035D000080384F80C53C4F8105684F81456C4F841
:1035E0001856C4F81C56C4F8205684F8245684F89B
:1035F0002556C4F82856C4F82C56C4F85856C4F8B2
:103600005C56C4F86056C4F86456C4F8685604F5AD
:103610000C7081464C22294627F0F9F94FF440728C
:10362000294604F5447027F0F2F901223946204674
:1036300007F01CFC08B1012566E0E368C4F82C32F1
:1036400004F51F710D460F46324B019300941E9BEB
:10365000424631462846FFF71BFB502302AA0021B1
:103660002846FFF74DFB054600283DD1494602A8F4
:10367000FFF778FDE8BBD4F82C321E460C22D4F8B4
:103680004C12D4F84802FFF733FDB8B3D4F8500217
:103690008046D4F85412894633460822FFF728FDA5
:1036A00060B333462822D4F85C12D4F85802FFF7EE
:1036B0001FFD18B333461822D4F86412D4F8600200
:1036C000FFF716FDD0B11F9B53B14B46DB001F9A8D
:1036D00041463846FFF714FB10B9012384F80C3338
:1036E000012384F828320FE0204607F0FBFD012576
:1036F0000AE0204607F0F6FD012505E0204607F028
:10370000F1FD012500E00125284617B0BDE8F08352
:103710000125F9E72F310008002918BF002800D142
:10372000704738B505460C4620220021204627F078
:103730006EF995F81436237723B1D5F8103603EBDC
:1037400043039B00236095F80C236277EAB1D5F818
:103750005412C900616095F82426A277BAB1D5F851
:103760002006A060D5F85C2202EB8202D200226122
:10377000D5F81C266261D5F8642202EB4202D20021
:10378000A2610B440344E36038BD1146E2E71046F2
:10379000E7E72DE9F04184B0002800F081800E4673
:1037A00017469846044690F82832002B7AD000231A
:1037B000C0F8103680F81436D0F84C32013B3F2B5D
:1037C00030D8012380F8143600250BE005EB4500C6
:1037D000800000F54470211801A8FFF715FE01359F
:1037E000C4F81056D4F84C32AB4219D9D4F8480278
:1037F00005EB45010C2301AA00EB810104F51F70C4
:10380000FFF77EFA0028E1D0D4F860360133C4F81F
:103810006036002384F81436C4F81036012502E01F
:10382000002500E00025C4F818663946C4F81C7667
:103830000023C4F8203684F8243666B194F80C339B
:103840004BB1D4F85C3233B103EB8303DA00174693
:10385000B1EBC30F07D241462046FFF75DFF284674
:1038600004B0BDE8F08113463246D4F8581204F58E
:103870001F70FFF745FA30B1D4F860360133C4F851
:1038800060360125E7E7C4F820762046FFF7EFFD14
:1038900018B1012384F82436DDE7C4F82006DAE7FE
:1038A0000125DCE70125DAE7D8B110B5044690F828
:1038B00028329BB904F51F70FFF79DFA002384F8A6
:1038C000283284F80C3384F8253684F82436C4F87A
:1038D000203684F81436C4F8103610BD07F002FD07
:1038E000E8E7704710B100F50C70704770472DE99C
:1038F000F0478EB0002800F0EC800E4617460446D4
:1039000090F82832002B00F0E780002A00F0E780D2
:10391000D0F858360133C0F85836B1F1807F80F0C6
:10392000E180C1F307429046C1F307210D46F3B28F
:103930009946D0F85432934240F2DA8090F80C3332
:10394000002B4BD0D0F808030CA900EBC200FFF706
:103950007DFD0C98002800F0CE80BDF83430002B9F
:1039600000F0CC80AB4240F2CC8094F825361BB1FD
:10397000D4F82836434549D094F82436002B4DD04E
:10398000D4F85832C31A05EB850203EBC203D4F80E
:10399000180604F5C662924611461844FFF794FDD6
:1039A000C4F82886C4F82C56012384F82536D4F8A8
:1039B00064360133C4F864360AEBD9031A7A06F088
:1039C000070342FA03F313F0010F4ED1D4F85C362B
:1039D0000133C4F85C3601231E4685E0D0F850124E
:1039E00008236A4601EBC80104F51F70FFF788F948
:1039F00020B90CA96846FFF729FDAAE7D4F860367C
:103A00000133C4F8603602231E466DE0D4F82C362C
:103A1000AB42B1D104F5C6639A46CDE705EB85010B
:103A2000282302AA00EBC10104F51F70FFF768F913
:103A300098B904F5C6639A46194602A8FFF744FDF3
:103A4000C4F82886C4F82C56012384F82536D4F807
:103A500068360133C4F86836AEE7D4F8603601330F
:103A6000C4F8603602231E463EE05046DAF80050A5
:103A70004946FFF7E7FAD4F8683203FB0051D4F85F
:103A80002C328B4240D35B1A172B40D9182302AA41
:103A900004F51F70FFF734F9064690B9394602A8BD
:103AA000FFF741FDFB8A13F0100F02D113F0080F4E
:103AB0001AD1D4F85C360133C4F85C3601231E46B3
:103AC00012E0D4F860360133C4F8603602231E4693
:103AD0000AE005231E4607E005231E4604E00223F4
:103AE0001E4601E001231E4630460EB0BDE8F087B9
:103AF00001231E46F8E701231E46F5E701231E4673
:103B0000F2E701231E46EFE704231E46ECE70423F9
:103B10001E46E9E770B5ADF50C7D00284BD0164682
:103B2000044690F82832002B48D000294CD00122BE
:103B300002A807F09BF90546002848D1059BD4F858
:103B40003C229A4219D196B3D4F840327BB3214B30
:103B50001B68C3B14FF0FF331D4601AB4FF48062C9
:103B60001D4902A807F0A1FA80B9019AA2B11A4929
:103B70002846FFF7A7FA0546EFE702A807F0B2FBD1
:103B800001231D461CE0FFF77BFAE3E702A807F0DC
:103B9000A9FB01231D4613E002A807F0A3FBE8439D
:103BA000D4F840321B1A18BF01231D4608E002A8B2
:103BB00007F098FB04E001231D4601E001231D46A8
:103BC00028460DF50C7D70BD01231D46F8E7012345
:103BD0001D46F5E7B4D90024B4D50024844658B175
:103BE00011B1D0F85806086012B1DCF85C1611600B
:103BF00013B1DCF860261A607047034638B111B182
:103C0000D0F86406086012B1D3F8683613607047C4
:103C1000074B03F5A04100220A604FF448324A6086
:103C200003F5C0430121C3F80814C3F80C247047FE
:103C3000C4DD002470B506460D464E4BD3F808444B
:103C4000002300E00133A34207D203F520624A4972
:103C500051F83220B242F5D900E02346A4469C45F3
:103C60000FD9454A0CF5206E0CF6FF1102EBCE0E73
:103C700002EBC10292E803008EE803000CF1FF3C66
:103C8000EDE73D4A03F5206142F8316002EBC101E6
:103C90004D6002F5C042611CC2F808146BB103F11B
:103CA000FF3CA2F5C04203F6FF1052F8301002EBC1
:103CB000C00250680A18B2421DD02E4AD2F80864D9
:103CC000013E9E4210D9A2F5C04003F5206250F893
:103CD000321000EBC202546821445A1C03F6012C36
:103CE00050F83C00814223D0224AD2F80C342B44B5
:103CF000C2F80C3470BD0CF520611F4A02EBC10202
:103D0000284450600DE01C4A03F5206603F60121AB
:103D100002EBC60602EBC10292E8030086E803004C
:103D20000133A342EFD3134BC3F808446346C4E7FF
:103D3000114902F5206001EBC000406803F52063E3
:103D400001EBC30104444C600DE00B4B02F5206411
:103D500002F6012103EBC40403EBC10393E8030063
:103D600084E8030001329642EFD8024BC3F808649E
:103D7000BAE700BFC43D0124C4DD0024002300E0F5
:103D800001330A4AD2F808249A420DD903F5206C6F
:103D9000074A02EBCC0252688242F1D3044A52F83D
:103DA0003C300B600120704700207047C43D012467
:103DB000C4DD002410B582B0044601A9FFF7DEFF80
:103DC000002844D00023254AD2F808C49C4509D9CC
:103DD00003F52062224951F83210019A914201D034
:103DE0000133F0E79C4535D903F520611C4A02EB0D
:103DF000C1025268A24222D9194903F5206351F841
:103E00003300204441F8330001EBC301121B4A6028
:103E1000124AD2F80C341B1BC2F80C34019802B0C1
:103E200010BD0F4A03F5206E03F6012102EBCE0E02
:103E300002EBC10292E803008EE8030001330CF1AB
:103E4000FF329A42EDD8054BC3F80824E0E74FF063
:103E5000FF30E4E74FF0FF30E1E700BFC43D01244D
:103E6000C4DD002408B5FFF7E5FE08BD00B58446B3
:103E70008E46002300E00133B3F5207F0ED20848C0
:103E800000EB4310027F002AF5D05A0104498A58FA
:103E90006245F0D182887245EDD100E0002000BD7E
:103EA000C4DD00240023B3F5207F0AD2064A02EBCA
:103EB0004312127F0AB10133F5E7034800EB4310C8
:103EC00070470020704700BFC4DD002410B50A4CC5
:103ED0004FF4A0420021204626F099FDFFF798FEFE
:103EE00004F5C0440023C4F81034C4F81434034A61
:103EF00013605360936010BDC4DD0024B8DD00245E
:103F000010B5074C4FF4A0420021204626F07FFD5B
:103F1000FFF77EFE04F5C0440023C4F8103410BD42
:103F2000C4DD0024024B00221A605A609A60704778
:103F3000B8DD0024034AD2F814340133C2F8143433
:103F4000704700BFC43D012438B514461D46FFF735
:103F50008DFFC0B10E4BD3F814248261D3F8101436
:103F60000131C3F810144161C388238003892B8079
:103F70000269049B1A60074A136801331360C06822
:103F8000054B184438BD034A536801335360F9E7C1
:103F9000C43D0124B8DD0024000000302DE9F047C5
:103FA00082B081468A4617469846FFF75FFF04466F
:103FB00098B1424AD2F814348361D2F810340133F4
:103FC000C2F81034436103690A9A1360C4683C4B19
:103FD0001C44204602B0BDE8F08708FB07F5033516
:103FE00035F0030531D1F4E7364B03EB41135E693D
:103FF0008C4672460131B1F5207F16D2314800EB74
:104000004110037F002BF5D02E4B806903F5C04390
:10401000D3F814349842EDD0002AE5D1294B03EBB4
:1040200041135B69B342E5D2DEE7BCF1000FD0DBA0
:10403000244E06EB4C163169F068FFF713FF00239E
:104040003377214A93680133936001A92846FFF72B
:1040500095FE864628B9012206464FF0FF3C0146F0
:10406000C9E72846FFF7A6FE06460190B0F1FF3FDC
:10407000AFD0FFF717FF0446D0B1C4F80090A4F802
:1040800004A0E780A4F808800199C16005610B4A8B
:10409000D2F810340133C2F810344361D2F814342A
:1040A0008361012303770A9B1D60054C0C4490E754
:1040B00029463046FFF7D6FE8BE700BFC43D0124FA
:1040C00000000030C4DD0024B8DD002400B59C46AB
:1040D000DDF804E018B1034618480068186011B113
:1040E000164B5B680B6012B1144B9B681360BEF1FA
:1040F000000F08BFBCF1000F11D100BD0132B2F5B5
:10410000207F10D20E4901EB4211097F0029F5D022
:104110000B4901EB421109690B440130EEE7002025
:1041200003460246EBE7BCF1000F01D0CCF80030AB
:10413000BEF1000FE1D0CEF80000DEE7B8DD0024CC
:10414000C4DD0024416070470346B8B1073323F053
:1041500007030E4A1268C2F5104199420FD30C486A
:1041600010441A44094B1A600A490B6801330B606A
:10417000094B1B689A4201D9074B1A607047074ADE
:104180001368013313600020704700BF9042012480
:10419000984201248C420124884201248442012453
:1041A000064B1B6813B1013B044A1360034B1B68A9
:1041B00013B9034B00221A60704700BF8C420124E0
:1041C00090420124C3688B4202DB002900DB0B46CE
:1041D0008360704708B583681944FFF7F3FF08BD93
:1041E000016000214160C26081607047F8B50546FA
:1041F0000F4614461E4600221146FFF7F1FF54EA0F
:1042000006030BD4FB68A34208DB1B1BB34205DB90
:104210003B682B607B681C446C60EE602846F8BDF0
:10422000017302804380BDF900308380BDF9043002
:10423000C380704770B582B0054643B38AB94B1C42
:104240001E46C1EBC100099B0193089B0093079B8D
:10425000069A032105EB4000FFF7E2FF304602B06B
:1042600070BD4C1CC1EBC1000A9B089A9A180B9BAD
:1042700009990B440B9901910A9900915B10521016
:10428000032105EB4000FFF7CBFF2146D7E77AB1CA
:104290004B1C1E46C1EBC1000B9B01930A9B009374
:1042A000079B069A032105EB4000FFF7B9FFD5E70E
:1042B0004B1C1E46C1EBC10001920092079B069A5F
:1042C000022105EB4000FFF7ABFFC7E7C3698B4254
:1042D00001DB436803B9C161436A934201DB436870
:1042E00003B9426283698B4201DC436803B981618F
:1042F000036A934201DC436803B90262012343600D
:10430000704730B583B004460D46114602687AB155
:104310001A46FFF7DBFF042D28D1079A069920469D
:10432000FFF7D4FF099A08992046FFF7CFFF1DE059
:10433000C06AC0EBC000079A0192069A00920A4632
:104340002946A56A05EB4000FFF76AFFA26AE36A07
:10435000C3EBC30302EB4302089B1381A26AE36A27
:10436000C3EBC30302EB4302099B5381E36A0133AE
:10437000E36203B030BDD0ED027A90ED047AF4EE42
:10438000477AF1EE10FA08D1D0ED036A90ED057A84
:10439000F4EE476AF1EE10FA15D000B585B090ED55
:1043A000037A00230393029301930093BDEEC77A2F
:1043B00017EE103AFDEEE77A17EE902A0221FFF78A
:1043C000A0FF05B000BD704710B52DED028B84B085
:1043D0000446B0EE408AF0EE608AFFF7CCFFD4EDE1
:1043E000047A37EE880A84ED040A84ED020AD4EDDB
:1043F000057A77EEA80AC4ED050AC4ED030A002386
:104400000393029301930093FDEEE07A17EE903A46
:10441000FDEEC07A17EE902A01212046FFF771FFCA
:1044200004B0BDEC028B10BD00B585B0D0ED047AB0
:1044300037EE800A80ED040AD0ED057A77EEA00A07
:10444000C0ED050A00230393029301930093FDEE50
:10445000E07A17EE903AFDEEC07A17EE902A02212C
:10446000FFF74FFF05B000BD00B585B0D0ED047A71
:1044700037EE800AD0ED057A77EEA00A30EE011A09
:1044800070EEA11A31EE022A80ED042A71EEA22A02
:10449000C0ED052ABDEEC00AFDEEE00ABDEEC11A70
:1044A000FDEEE11ACDED031A8DED021ACDED010AF4
:1044B0008DED000AFDEEE27A17EE903AFDEEC27A3B
:1044C00017EE902A0421FFF71CFF05B000BD70B560
:1044D0000446406810B10368636070BD0E46A3686F
:1044E0009BB91F2903D97F2918D8202300E0402336
:1044F0001D4606FB03F011460430FFF725FE002899
:10450000EBD0236803602060A560A368013BA36033
:10451000206806FB03F304331844DEE71023E7E7C3
:1045200043680B604160704738B50D46006804E091
:1045300004682946FFF734FE20460028F8D138BD2C
:1045400010B52DED028B82B00C460192B0EE408A80
:104550001A461C21FFF7BBFF94ED027AD4ED007AD6
:1045600037EE677AD4ED037AD4ED016A77EEE67A16
:10457000C7EE276A034658B3C0ED026AF5EE406AFB
:10458000F1EE10FA29D0B7EE007AC7EE267AC3ED25
:10459000037AD4ED007A94ED017A38EE470A20EEE2
:1045A000260A77EE807AC3ED017A9DED017AB8EEA6
:1045B000C77A77EEC77AC3ED017A226982B14FF0EC
:1045C0007E521A6162685A61E2689A6100221A603A
:1045D000184602B0BDEC028B10BDDFED027AD6E7C3
:1045E000014AEEE700000000000080BFF4EE610A1F
:1045F000F1EE10FA7DD0D2ED067AF4EEE07AF1EE2B
:1046000010FA76D492ED057AB4EEE17AF1EE10FA72
:104610006FDCB4EEE07AF1EE10FA0DDD71EE406A77
:1046200037EE606A66EE866A71EEE00A86EEA06A90
:1046300030EE060AF0EE470AF4EEE17AF1EE10FAF7
:104640000DD531EE407A77EEE16A27EE267A71EEEB
:10465000E01AC7EE216A31EE261AF0EE671A07EE6D
:10466000901AF8EEE77AF4EEC07AF1EE10FA13DB66
:10467000F4EEC17AF1EE10FA0EDB00EB8100D0ED22
:10468000007A92ED047A71EEE01A27EE217A77EE45
:10469000877AC0ED007A70474B1C07EE103AB8EEEF
:1046A000C77AB4EEC07AF1EE10FA04D8B4EEC17A4B
:1046B000F1EE10FA1DD900EB8101D1ED006A92ED07
:1046C000047A71EEE01A27EE217A30EE670A31EEB5
:1046D000671A30EE010AF6EE007A20EE270AF7EEAE
:1046E000007A77EEC07A67EE277A76EEA77AC1ED88
:1046F000007A704770EE810AF6EE007A60EEA70A43
:1047000020EE800A704708B5F0EE417A32EE611A69
:1047100077EEE00AFFF7EEFF08BD20EE200AF6EE86
:10472000007A20EE270A70472DE9F0472DED0C8B1B
:104730000746894690461D46B0EE40BAB7EE00CA1D
:1047400030EE0CCA1FE0FDEEC87A17EE904AF0EE8C
:104750004C1AB0EE481AF0EE4B0AB0EE480A2A4660
:1047600021463846FFF742FFF0EE4C1AB0EE481AE9
:10477000F0EE4B0AB0EE480A2A46611CA9F104008B
:10478000FFF734FF2D68002D00F06282D5ED02BAEC
:10479000F5EE40BAF1EE10FA1ED195ED018A07EE62
:1047A000908AF8EEE77AF4EEC87AF1EE10FAE9DDD5
:1047B000B5EEC08AF1EE10FAC5DAF0EE4C1AB0EEA2
:1047C000481AF0EE4B0AB0EE480A2A460021A9F139
:1047D0000400FFF70BFFD5E795ED018A7BEE889A81
:1047E000D5ED03CA95ED059AB4EECB9AF1EE10FA29
:1047F00006DD79EE4B0A6BEEA00A70EE880A03E044
:10480000B0EE4B9AF0EE480A95ED06AAB4EECCAAAB
:10481000F1EE10FA06D57AEE4B8A6BEEA88A78EEA6
:10482000888A03E0B0EE4CAAF0EE698AF5EEC00A81
:10483000F1EE10FAC0F20482F5EEC08AF1EE10FA41
:10484000C0F2008207EE908AF8EEE77AF4EEE07AA2
:10485000F1EE10FA40F3F881F4EEE87AF1EE10FA96
:1048600040F3F481FDEEE07A17EE904AFDEEE87A2F
:1048700017EE903A9C4226D13AEE499AD5ED047A49
:1048800029EE279A07EE904AB8EEE71AF7EE007A7B
:1048900031EE271AB0EE412AF0EE681AB0EE490A5E
:1048A000FFF731FF07EB8403D3ED007A77EE807AD0
:1048B000C3ED007A09EB8404D4ED007A77EE897AAF
:1048C000C4ED007A5EE7F4EEE80AF1EE10FA11DDCD
:1048D00079EE4B7A3AEE4B9A3CEE499AF1EE6CCA7D
:1048E0003CEE67AA10EE903AF0EE680A08EE903AB5
:1048F000B0EE698AFDEEE07A17EE90AABDEEE87A96
:1049000017EE106A17EE903A5C1C07EE904AF8EE2C
:10491000E77A37EEC8DA2DEE2CDA3DEE0BDAF8EE58
:10492000C7AA7AEEC8BA6BEEACBA7BEE8BBAB4EE1D
:10493000CDCAF1EE10FA01D5B0EE4CDAD5ED049AFD
:104940003DEE498A28EE298A77EEE00AB0EE480A61
:10495000FFF7E3FE07EB8A03D3ED007A77EE807A68
:10496000C3ED007AB4EEEBCAF1EE10FA0AD53CEED4
:104970004DDA331B07EE903AF8EEE77ACDEE27CA10
:10498000F0EE4CBA6CEEA96A10E007EB840393EDED
:10499000007AF6EE007A66EEA77A77EE887A77EEFE
:1049A000277AC3ED007A38EE268A0134B442ECDB74
:1049B000B7EE001A3AEE811AB0EE412AF0EE681A0C
:1049C000F0EE6A0A3AEE6B0AFFF79DFE60EE297A76
:1049D00077EE887A07EB860393ED007A77EE277AF5
:1049E000C3ED007A09EB8603D3ED007A3AEE49AACB
:1049F0002AEE29AA77EE8A7AC3ED007AC2E6F0EEB3
:104A00004A1AB0EE681AF0EE4B0AB0EE480A2A468F
:104A100021463846FFF7EAFDF0EE6A1AB0EE491A71
:104A2000F0EE4A0AB0EE680A2A4621463846FFF7F9
:104A3000DDFDF0EE4C1AB0EE691AF0EE6A0AB0EE47
:104A4000490A2A4621463846FFF7D0FD74E0F0EEC9
:104A50006A1AB0EE491AF0EE4B0AB0EE480A2A463E
:104A600021463846FFF7C2FDF0EE4A1AB0EE681A4A
:104A7000F0EE6A0AB0EE490A2A4621463846FFF7A8
:104A8000B5FDF0EE4C1AB0EE691AF0EE4A0AB0EE3F
:104A9000680A2A4621463846FFF7A8FD4CE0F0EEAA
:104AA0004A1AB0EE681AF0EE4B0AB0EE480A2A46EF
:104AB00021463846FFF79AFDF0EE4C1AB0EE691A1F
:104AC000F0EE4A0AB0EE680A2A4621463846FFF759
:104AD0008DFD31E0F0EE4A1AB0EE681AF0EE4B0AA6
:104AE000B0EE480A2A4621463846FFF77FFDF0EE31
:104AF0004C1AB0EE691AF0EE4A0AB0EE680A2A467D
:104B000021463846FFF772FD16E0F4EEC99AF1EE41
:104B100010FA04D5B4EEC98AF1EE10FA75DCF0EEA5
:104B20004C1AB0EE691AF0EE4B0AB0EE480A2A466B
:104B300021463846FFF75AFD34464445BFF622AEBB
:104B400007EE904AF8EEE78A661C07EE906AB8EE28
:104B5000E79A78EEC87A87EEABAA3AEE0BAA79EE1E
:104B6000487AC7EEAB0A70EE8BAAB4EEE88AF1EE93
:104B700010FA05D5F4EEC99AF1EE10FA3FF73FAFFF
:104B8000F4EEE89AF1EE10FA05D5B4EEC98AF1EE2A
:104B900010FA3FF75CAFB4EEE88AF1EE10FA05D5F3
:104BA000F4EEE89AF1EE10FA3FF779AFF4EEE89AF6
:104BB000F1EE10FA04D5B4EEE88AF1EE10FA89DCD1
:104BC000B4EEC98AF1EE10FA9FD5F4EEC99AF1EE6F
:104BD00010FA9ADDF0EE6A1AB0EE491AF0EE4B0ABE
:104BE000B0EE480A2A4621463846FFF7FFFCF0EEB1
:104BF0004C1AB0EE691AF0EE6A0AB0EE490A2A467B
:104C000021463846FFF7F2FC96E7F0EE6A1AB0EE5E
:104C1000491AF0EE4B0AB0EE480A2A4621463846B9
:104C2000FFF7E4FCF0EE4C1AB0EE691AF0EE6A0AF7
:104C3000B0EE490A2A4621463846FFF7D7FC7BE703
:104C400000247AE7002478E7002476E7002474E75C
:104C5000BDEC0C8BBDE8F087F0B587B005460F467C
:104C600001262CE004EB840E05EB8E0EBCE80F0051
:104C7000AEE80F00DCF80030CEF80030013C002C2C
:104C80000EDD04F1FF3C0CEB8C0C05EB8C0CDCED29
:104C9000017A9DED027AB4EEE77AF1EE10FAE1D4F2
:104CA000A6420BD004EB840405EB84040DF1040C44
:104CB000BCE80F000FC4DCF8003023600136BE42B0
:104CC0000DDA06EB86040DF1040C05EB84040FCC21
:104CD000ACE80F002368CCF800303446CFE707B0CB
:104CE000F0BD2DE9F04387B005460E460C2E40F38B
:104CF000B3807410D5ED016A04EB840405EB8404E1
:104D0000D4ED017AF4EEE76AF1EE10FA4CBF01221D
:104D10000022731E03EB830305EB830393ED017AFB
:104D2000F4EEC77AF1EE10FA4CBF012300239A4249
:104D300028D0F4EEC76AF1EE10FA4CBF012200222F
:104D4000934238D0771E07EB870705EB87070DF1F5
:104D5000040CBE46BEE80F00ACE80F00DEF80030E1
:104D6000CCF80030A446BCE80F000FC7DCF80030D8
:104D70003B6027460DF1040CBCE80F000FC7DCF8C0
:104D800000303B6001AFAC46BCE80F000FC7DCF859
:104D900000303B602F46A446BCE80F000FC7DCF88C
:104DA00000303B6001AF0FCF0FC43B682360741E1F
:104DB0004FF0010830E00027C5E704EB840C05EB59
:104DC0008C0CDCED017AB4EEE77AF1EE10FA01D545
:104DD000013CF2E7A0452FDA0DF1040EB946B9E81F
:104DE0000F00AEE80F00D9F80030CEF80030BE4614
:104DF00067460FCFAEE80F003B68CEF800300DF1EC
:104E0000040EBEE80F00ACE80F00DEF80030CCF86E
:104E1000003008F10108013C08EB880E05EB8E0715
:104E2000D7ED017A95ED017AF4EEC77AF1EE10FA3A
:104E3000C3D508F10108EFE7A6EB0806A64205DD99
:104E400021462846FFF74DFF3D464FE7314638469D
:104E5000FFF747FF264649E707B0BDE8F08338B5BE
:104E600005460C46FFF73DFF21462846FFF7F4FEB6
:104E700038BD28B100EBC10181ED000AC1ED010A86
:104E8000704770B52DED088B31EE018A38EE008A3F
:104E900038EE028AF5EE007A28EE278A71EEA18AB2
:104EA00078EEA08A78EEA28A68EEA78A70EE027A7F
:104EB000F6EE006A67EEA67A77EEC87A30EEA27A4E
:104EC00027EE267A37EE687A102A40DC05460C4633
:104ED000B0EE419AF0EE619AB0EE42AAF0EE62AA0C
:104EE00067EEA77A27EE077A77EE877AB0EE43BAB5
:104EF000F4EEC37AF1EE10FA2DDD31EE001A71EE08
:104F0000A01A531C1E461A46F0EE682AB0EE482A34
:104F1000F0EE66BA61EEA61A21EE261AFFF7B1FF8F
:104F200039EE0A1A79EEAA1A3246B0EE4B3AF0EE92
:104F30006A2AB0EE4A2A61EEAB1A21EE2B1AF0EE85
:104F4000680AB0EE480A21462846FFF79AFF01207A
:104F5000BDEC088B70BDF0EE620AB0EE420A096843
:104F6000FFF787FF236801332360F0E702B970473A
:104F700070B505460E46144613460A464168006859
:104F8000FEF712F818B96B6823446B6070BD2246B7
:104F90000021304625F03BFDF5E710B582B0044610
:104FA000FFF7D0F804220DEB02012046FFF7DEFFE9
:104FB0009DF80430312B0DD0742B19D04F2B25D0F8
:104FC0001BB99DF80520012A2ED0742B36D0002065
:104FD00002B010BD9DF80520002AEDD19DF80620F5
:104FE000002AE9D19DF80720002AE5D10120EFE74A
:104FF0009DF80520792AE1D19DF80620702ADDD19F
:105000009DF80720312AD9D10120E1E79DF805203C
:10501000542AD5D19DF80620542AD1D19DF80720D5
:105020004F2ACDD10120D3E79DF80620002ACCD10C
:105030009DF80720002AC8D10120C9E79DF8053056
:10504000722B01D00020C3E79DF80630752B01D0EC
:105050000020BDE79DF80730652B01D00020B7E7A1
:105060000120B5E710B582B00446FFF76BF80422C3
:105070000DEB02012046FFF779FF9DF804209DF813
:1050800005301B0403EB02639DF8062003EB0223AB
:105090009DF80700184402B010BD10B582B0044658
:1050A000FFF750F804220DEB02012046FFF75EFFE8
:1050B0009DF804209DF805301B0403EB02639DF866
:1050C000062003EB02239DF80700184402B010BD30
:1050D00030B583B004460D460021FFF75EFF28B1CE
:1050E0000DB9284636E04FF0FF3033E00146204648
:1050F000FFF728F804220DEB02012046FFF736FFE8
:105100009DF80430742B27D19DF80530742B26D1DF
:105110009DF80630632B25D19DF80730662B24D1EE
:1051200004212046FFF7B9FFB0F5803F06D00421E7
:105130002046FFF7B2FFB0F5003F19D10821204605
:10514000FFF790FF2B46A84215DD03339900204658
:10515000FFF7A3FF03B030BD4FF0FF30FAE74FF089
:10516000FF30F7E74FF0FF30F4E74FF0FF30F1E7A3
:105170004FF0FF30EEE74FF0FF30EBE708B5FFF7F9
:10518000A7FF08BD8368C268934201DB0020704717
:1051900010B582B00446416819440068FEF7D2FF9A
:1051A00001220DF107012068FFF7E0FEA36801333B
:1051B000A3609DF8070002B010BDF8B507460E4683
:1051C0000025284605E004023846FFF7DBFF2043B0
:1051D0000135B542F7DBF8BD10B504460021FEF7F6
:1051E000F1FF02212046FFF7E8FF10BD84B02DE952
:1051F000F041074607AD85E80E0000212846FEF77E
:10520000E1FF02212846FFF7D8FF80462846FFF736
:10521000B9FF04460B9900FB01F12846FEF7DAFFBF
:1052200021462846FFF7C9FF064621462846FFF7D4
:10523000C4FF08FB0444A21C831B324429463846A1
:10524000FEF7D4FF3846BDE8F04104B0704784B0A3
:1052500010B582B0044605A880E80E00FFF7BCFF39
:1052600048F26B43984204DCB0F59B6F17DA6B226F
:1052700001E04FF40042099B1A449042CCBF002346
:10528000012353EAD2730DD0002211462046FEF7C7
:10529000A7FF204602B0BDE8104004B0704740F2BE
:1052A0006B42E8E70192089B009305AB0ECB2046CA
:1052B000FFF79CFFEDE738B50546FFF763FFA0F168
:1052C0002003D62B0DD9A0F1F703032B0BD9A0F1A6
:1052D000FB03032B0ED91C2815D01D2818D0002045
:1052E00000E08B3838BD1C022846FFF74BFF2044F6
:1052F0006C30F7E7C0F1FB031C022846FFF742FFC2
:10530000201A6C38EEE702212846FFF756FFE9E73E
:1053100004212846FFF751FFE4E72DE9F041074655
:105320000C468D6802212046FFF747FF48B9A36865
:105330005B1B2A4621463846FEF758FF3846BDE833
:10534000F08180462046FFF71DFF0646434600FBDE
:1053500003F319462046FEF73DFF31462046FFF78E
:105360002CFF411E2046FEF735FFE0E78368C26848
:10537000934201DB0020704710B582B004464168BB
:1053800019440068FEF7DEFE01220DF107012068D6
:10539000FFF7ECFD9DF8070002B010BD10B5044604
:1053A000FFF7E4FF1E2803D02046FFF784FF10BD5F
:1053B00001212046FEF70EFFA268E3689A42F6DA62
:1053C0002046FFF7DFFE00F00F030F2BEFD0001198
:1053D0000F28F1D1EBE72DE9F04180460C46164647
:1053E00000212046FEF7EEFE10E02046FFF7D6FF34
:1053F0002046FFF7BBFF1B28F7D8A7682046FFF71A
:10540000C1FE03460C280ED0B34212D0A568E36853
:105410009D42EDDB00231A4621464046FEF7E6FE9C
:105420004046BDE8F0812046FFF7ACFE40F48073B3
:10543000EAE77B1B2A4621464046FEF7D7FEEFE708
:1054400070B584B015461E460A4601466846FFF709
:10545000C2FF002405E06846FFF72DFF46F8240050
:105460000134AC4203DA029803998842F3DB04B0BA
:1054700070BD84B010B58CB004460FA880E80E0053
:1054800000230B9309930A9309AB0222122113A85C
:10549000FFF7D6FF0A9A0AB1099B53B900221146B9
:1054A0002046FEF79DFE20460CB0BDE8104004B03B
:1054B00070470FA96846FEF799FE0DF1140C9DE8A0
:1054C0000F008CE80F000BAB012213216046FFF7A1
:1054D000B7FF0B9B2BB91A4619462046FEF780FEF4
:1054E000E1E70A9919440FA8FEF76CFE0FA92046C0
:1054F000FFF713FFD7E72DE9F04F8FB082460C4638
:10550000164606AD01F188030FCB85E80F00002198
:105510002846FEF757FE2846FFF734FEF8B1032869
:1055200026D04FF0FF350AAE0195D4F884300093B1
:1055300004F178030ECB3046FFF758FE01AD96E834
:105540000F0085E80F00636C0093383494E80E0078
:105550005046FFF78EFF50460FB0BDE8F08F314642
:105560002846FEF737FE2846FFF70CFE0546DAE729
:1055700006AD02212846FFF720FE83460221284679
:10558000FFF71BFE8146002701E0013781465F459A
:1055900014DA0DF118084046FFF7F4FD0546022124
:1055A0004046FFF70AFE4B46B145CCBF002301231E
:1055B000B042D8BF0023002BE7D0B4E74FF0FF354F
:1055C000B1E700002DE9F04F2DED068BEFB08146DD
:1055D0000F46059116460EAC00F168030FCB84E828
:1055E0000F000AAD06AC0197D9F85430009309F1C9
:1055F00048030ECB2046FFF7F9FD94E80F0085E83D
:105600000F00002303931D4698469B4601239A46AC
:105610000C9A0D9B9A4280F2D8830AA8FFF7B2FD3C
:10562000044612283CD069D8082800F0CD8140D823
:10563000052800F0658119D9062800F0788107282F
:1056400040F09683002D40F3CA8300246EAB03EB39
:10565000840353ED340A9FEDC00A3046FEF7E4FEA2
:105660000134A54200F367810025D1E7042810D159
:10567000002D40F3AE83013D6EAB03EB850555ED88
:10568000340A9FEDB50A3046FEF79EFE0025AA4675
:10569000BEE700F26D83012802D0032840F0688342
:1056A0002B46002DC0F219810BEB63039B460025AE
:1056B000AEE70C2800F05A8214D80A2800F03E8287
:1056C0000B2840F05583B8F1000F40F3A08308F198
:1056D000FF380AAC12AB03EB08130FCB84E80F00C2
:1056E0000023B6E00E2840F043833046FEF743FE29
:1056F00001206FB0BDEC068BBDE8F08F192800F0DB
:10570000A18164D8162800F0EA802FD8142816D971
:10571000152840F02D83012D40F35983AB1E013D28
:105720006EAA02EB850502EB830355ED340A13EDF7
:10573000340A3046FEF748FE0025AA4668E71328DB
:10574000C0F01683534633B12B46002DC0F2C18002
:105750000BEB63039B465B46D91D00F1BC80C9106F
:105760000AA8FEF737FD0025AA4651E7172897D06B
:10577000182840F0FD82072D40F33B830024631D71
:10578000AA1E934280F24C81621CA11CE01C271DC2
:105790000DF5DC7C0CEB83030CEB87070CEB800036
:1057A0000CEB81010CEB82020CEB840C53ED342AE0
:1057B00017ED342A50ED341A11ED341A52ED340A33
:1057C0001CED340A3046FEF74FFE0634D7E71E289C
:1057D00000F0C4804FD81B2840D91D2840F0C88253
:1057E000002D40F31083013D6EAB03EB850353EDB9
:1057F000347AFDEEE77AB8F1090F00F3068308F179
:105800000103049312AF07EB08170AAB0FCB87E82D
:105810000F000A2C00F0A48109F158030FCB6EACE5
:1058200004E90F000AAF06ACCDED017A6D9B009341
:105830006AAB0ECB2046FFF70AFD94E80F0087E81D
:105840000F001846002B3FF454AF0023BB60DDF877
:105850001080002B3FF4DCAE0025D9E61A28C0F0FA
:105860008782032D40F3CD8215F0010700F061819E
:105870009DED3A0A3DE11F2840F07A82032D40F366
:10588000B28200276EAB03EB870313ED340A7B1C57
:105890006EAA02EB830313ED341ABB1C02EB8303E5
:1058A00053ED341AEB1B052B00F088809FED2A2A5C
:1058B000FB1C6EAA02EB830353ED342ADFED260AAC
:1058C0003046FEF7D1FD3C1D0737AF424ADB0025CD
:1058D0009EE66B1C3CE7073141E76B1CE4E6002DBC
:1058E00040F37982013D6EAB03EB8505DFED1A0ACB
:1058F00015ED340A3046FEF767FD0025AA4687E617
:10590000012D40F36A820024631CAB420DDA6EAABB
:1059100002EB830302EB840253ED340A12ED340AE6
:105920003046FEF781FD0234EEE7012391E7002DBA
:1059300040F3578200246EAB03EB8403DFED060ACD
:1059400013ED340A3046FEF76FFD0134A5423FF7F0
:105950007DAE00255CE600BF00000000032D40F393
:10596000448200246EAB03EB840353ED340A631CC2
:105970006EAA02EB830313ED341AA31C02EB83031C
:1059800053ED341AE31C02EB830313ED342A2B1B73
:10599000052B0DD05FED102A1FED110A3046FEF7E2
:1059A00063FD271D0734AC42FFF66CAF00252FE6E0
:1059B000231D02EB830353ED342AEDE73B1D02EB7D
:1059C000830313ED342A73E7052D40F3108200247E
:1059D00021E0621CA11CE01C271D0DF5DC7C0CEBFA
:1059E00083030CEB87070CEB80000CEB81010CEBC5
:1059F00082020CEB840C53ED342A17ED342A50ED5F
:105A0000341A11ED341A52ED340A1CED340A3046C2
:105A1000FEF72AFD0634631DAB42DADB012318E7EB
:105A2000631CAB4280F2E7816EAA02EB830302EBB8
:105A3000840453ED340A14ED340A3046FEF7F4FCC6
:105A40000025E5E5072D40F3D8810024631CAA1F3B
:105A500093420DDA6EAA02EB830302EB840253ED4C
:105A6000340A12ED340A3046FEF7DEFC0234EDE76C
:105A7000621DAA4280F2C381A01CE51C271D6EA9ED
:105A800001EB82016EAA02EB870702EB850502EBB0
:105A9000800002EB830302EB840251ED342A17ED00
:105AA000342A55ED341A10ED341A53ED340A12ED40
:105AB000340A3046FEF7D8FC0025A9E57A1CB91C4B
:105AC0006EA800EB830300EB810100EB820253ED33
:105AD000342A1FED5F2A51ED341A12ED341A00EB0F
