:020000040800F2
:1000000000000320B97700084D5300085153000841
:1000100055530008595300085D53000800000000C4
:10002000000000000000000000000000B1740108A2
:1000300061530008000000000175010845760108C1
:10004000097800080978000809780008097800088C
:10005000097800080978000809780008097800087C
:10006000097800080978000809780008097800086C
:10007000097800080978000809780008097800085C
:10008000097800080978000809780008097800084C
:10009000097800080978000809780008097800083C
:1000A000097800080978000809780008097800082C
:1000B000097800080978000809780008097800081C
:1000C000097800080978000809780008097800080C
:1000D00009780008FD76000809780008097800080A
:1000E00009780008097800080978000809780008EC
:1000F00009780008097800080978000809780008DC
:1001000009780008097800080978000809780008CB
:100110000978000809780008097800086553000884
:1001200009780008097800080978000809780008AB
:100130000978000871530008097800080978000858
:10014000097800080978000809780008097800088B
:10015000097800080978000809780008097800087B
:10016000097800080978000809780008097800086B
:10017000097800080978000809780008097800085B
:10018000097800080978000809780008097800084B
:10019000097800080978000809780008097800083B
:0C01A000097800080978000809780008B8
:1001B00001F0FF01102A2BDB10F0070F08D010F818
:1001C000013B013A8B422DD010F0070F42B3F6D11C
:1001D000F0B441EA012141EA014122F007047FF035
:1001E00000070023F0E80256083C85EA010586EA8C
:1001F000010685FA47F5A3FA87F586FA47F6A5FAC8
:1002000087F68EB9EED1F0BC01F0FF0102F00702D3
:1002100032B110F8013B013A83EA010313B1F8D17E
:100220000020704701387047002D06BF354603385F
:10023000073815F0010F07D1013015F4807F02BF98
:10024000013015F4C03F0130F0BC0138704700BFE9
:10025000034613F8012B002AFBD1181A0138704706
:1002600010F8012B11F8013B012A28BF9A42F7D060
:10027000D01A704781F0004102E000BF83F00043D4
:1002800030B54FEA41044FEA430594EA050F08BF31
:1002900090EA020F1FBF54EA000C55EA020C7FEAF5
:1002A000645C7FEA655C00F0E2804FEA5454D4EB72
:1002B0005555B8BF6D420CDD2C4480EA020281EA3C
:1002C000030382EA000083EA010180EA020281EA74
:1002D0000303362D88BF30BD11F0004F4FEA0131C6
:1002E0004FF4801C4CEA113102D0404261EB4101D5
:1002F00013F0004F4FEA03334CEA133302D052425B
:1003000063EB430394EA050F00F0A780A4F1010416
:10031000D5F1200E0DDB02FA0EFC22FA05F2801850
:1003200041F1000103FA0EF2801843FA05F3594136
:100330000EE0A5F120050EF1200E012A03FA0EFCB5
:1003400028BF4CF0020C43FA05F3C01851EBE371DF
:1003500001F0004507D54FF0000EDCF1000C7EEBFC
:1003600000006EEB0101B1F5801F1BD3B1F5001F3A
:100370000CD349085FEA30004FEA3C0C04F1010459
:100380004FEA445212F5800F80F09A80BCF1004F82
:1003900008BF5FEA500C50F1000041EB045141EA04
:1003A000050130BD5FEA4C0C404141EB0101013CCD
:1003B00028BFB1F5801FE9D291F0000F04BF0146BC
:1003C0000020B1FA81F308BF2033A3F10B03B3F18E
:1003D00020020CDA0C3208DD02F1140CC2F10C021E
:1003E00001FA0CF021FA02F10CE002F11402D8BF7C
:1003F000C2F1200C01FA02F120FA0CFCDCBF41EA48
:100400000C019040E41AA2BF01EB0451294330BD16
:100410006FEA04041F3C1CDA0C340EDC04F11404F3
:10042000C4F1200220FA04F001FA02F340EA0300CA
:1004300021FA04F345EA030130BDC4F10C04C4F110
:10044000200220FA02F001FA04F340EA03002946F0
:1004500030BD21FA04F0294630BD94F0000F83F43A
:10046000801306BF81F480110134013D4EE77FEA1D
:10047000645C18BF7FEA655C29D094EA050F08BF69
:1004800090EA020F05D054EA000C04BF194610464A
:1004900030BD91EA030F1EBF0021002030BD5FEA8E
:1004A000545C05D14000494128BF41F0004130BDB6
:1004B00014F580043CBF01F5801130BD01F000450A
:1004C00045F0FE4141F470014FF0000030BD7FEA7D
:1004D000645C1ABF194610467FEA655C1CBF0B4678
:1004E000024650EA013406BF52EA033591EA030F8F
:1004F00041F4002130BD00BF90F0000F04BF002187
:10050000704730B54FF4806404F132044FF00005B9
:100510004FF0000150E700BF90F0000F04BF002132
:10052000704730B54FF4806404F1320410F0004598
:1005300048BF40424FF000013EE700BF42004FEA93
:10054000E2014FEA31014FEA02701FBF12F07F4310
:1005500093F07F4F81F06051704732F07F4208BFC7
:10056000704793F07F4F04BF41F40021704730B5CE
:100570004FF4607401F0004521F000411CE700BF1A
:1005800050EA010208BF704730B54FF000050AE09D
:1005900050EA010208BF704730B511F0004502D59E
:1005A000404261EB41014FF4806404F132045FEAA0
:1005B000915C3FF4D8AE4FF003025FEADC0C18BF49
:1005C00003325FEADC0C18BF033202EBDC02C2F13B
:1005D000200300FA03FC20FA02F001FA03FE40EACD
:1005E0000E0021FA02F11444BDE600BF70B54FF0D1
:1005F000FF0C4CF4E06C1CEA11541DBF1CEA1355AF
:1006000094EA0C0F95EA0C0F00F0DEF82C4481EA16
:10061000030621EA4C5123EA4C5350EA013518BF36
:1006200052EA033541F4801143F4801338D0A0FB23
:1006300002CE4FF00005E1FB02E506F00042E0FBD0
:1006400003E54FF00006E1FB03569CF0000F18BFD6
:100650004EF0010EA4F1FF04B6F5007F64F540747E
:1006600004D25FEA4E0E6D4146EB060642EAC62111
:1006700041EA55514FEAC52040EA5E504FEACE2E7E
:10068000B4F1FD0C88BFBCF5E06F1ED8BEF1004F81
:1006900008BF5FEA500E50F1000041EB045170BDFD
:1006A00006F0004646EA010140EA020081EA030141
:1006B000B4EB5C04C2BFD4EB0C0541EA045170BD3D
:1006C00041F480114FF0000E013C00F3AB8014F1B7
:1006D000360FDEBF002001F0004170BDC4F1000400
:1006E000203C35DA0C341BDC04F11404C4F1200581
:1006F00000FA05F320FA04F001FA05F240EA0200DC
:1007000001F0004221F0004110EBD37021FA04F611
:1007100042EB06015EEA430E08BF20EAD37070BDCB
:10072000C4F10C04C4F1200500FA04F320FA05F02A
:1007300001FA04F240EA020001F0004110EBD3702C
:1007400041F100015EEA430E08BF20EAD37070BD9C
:10075000C4F1200500FA05F24EEA020E20FA04F375
:1007600001FA05F243EA020321FA04F001F0004124
:1007700021FA04F220EA020000EBD3705EEA430E95
:1007800008BF20EAD37070BD94F0000F0FD101F0C4
:100790000046400041EB010111F4801F08BF013CFD
:1007A000F7D041EA060195F0000F18BF704703F03B
:1007B0000046520043EB030313F4801F08BF013DC2
:1007C000F7D043EA0603704794EA0C0F0CEA13557E
:1007D00018BF95EA0C0F0CD050EA410618BF52EA38
:1007E0004306D1D181EA030101F000414FF000003E
:1007F00070BD50EA410606BF1046194652EA43064C
:1008000019D094EA0C0F02D150EA013613D195EABF
:100810000C0F05D152EA03361CBF104619460AD107
:1008200081EA030101F0004141F0FE4141F4700111
:100830004FF0000070BD41F0FE4141F4780170BD01
:1008400070B54FF0FF0C4CF4E06C1CEA11541DBF66
:100850001CEA135594EA0C0F95EA0C0F00F0A7F868
:10086000A4EB050481EA030E52EA03354FEA013195
:1008700000F088804FEA03334FF0805545EA1313A8
:1008800043EA12634FEA022245EA111545EA106570
:100890004FEA00260EF000419D4208BF964244F107
:1008A000FD0404F5407402D25B084FEA3202B61A26
:1008B00065EB03055B084FEA32024FF480104FF4FA
:1008C000002CB6EB020E75EB030E22BFB61A75466E
:1008D00040EA0C005B084FEA3202B6EB020E75EB01
:1008E000030E22BFB61A754640EA5C005B084FEA69
:1008F0003202B6EB020E75EB030E22BFB61A754636
:1009000040EA9C005B084FEA3202B6EB020E75EB40
:10091000030E22BFB61A754640EADC0055EA060E01
:1009200018D04FEA051545EA16754FEA06164FEA44
:10093000C30343EA52734FEAC2025FEA1C1CC0D1F0
:1009400011F4801F0BD141EA00014FF000004FF07D
:10095000004CB6E711F4801F04BF01430020B4F13E
:10096000FD0C88BFBCF5E06F3FF6AFAEB5EB030CF6
:1009700004BFB6EB020C5FEA500C50F1000041EBF3
:10098000045170BD0EF0004E4EEA113114EB5C04C0
:10099000C2BFD4EB0C0541EA045170BD41F4801193
:1009A0004FF0000E013C90E645EA060E8DE60CEA9B
:1009B000135594EA0C0F08BF95EA0C0F3FF43BAFB8
:1009C00094EA0C0F0AD150EA01347FF434AF95EA6F
:1009D0000C0F7FF425AF104619462CE795EA0C0F53
:1009E00006D152EA03353FF4FDAE1046194622E720
:1009F00050EA410618BF52EA43067FF4C5AE50EAFA
:100A000041047FF40DAF52EA43057FF4EBAE12E7E9
:100A10004FF0FF3C06E000BF4FF0010C02E000BFCA
:100A20004FF0010C4DF804CD4FEA410C7FEA6C5CAD
:100A30004FEA430C18BF7FEA6C5C1BD001B050EA50
:100A4000410C0CBF52EA430C91EA030F02BF90EA3B
:100A5000020F0020704710F1000F91EA030F58BFFA
:100A6000994208BF90422CBFD8176FEAE37040F05C
:100A7000010070474FEA410C7FEA6C5C02D150EAFA
:100A8000013C07D14FEA430C7FEA6C5CD6D152EAB5
:100A9000033CD3D05DF8040B704700BF844610467A
:100AA00062468C461946634600E000BF01B5FFF779
:100AB000B7FF002848BF10F1000F01BD4DF808ED49
:100AC000FFF7F4FF0CBF012000205DF808FB00BF1A
:100AD0004DF808EDFFF7EAFF34BF012000205DF874
:100AE00008FB00BF4DF808EDFFF7E0FF94BF0120C1
:100AF00000205DF808FB00BF4DF808EDFFF7CEFFC2
:100B000094BF012000205DF808FB00BF4DF808ED00
:100B1000FFF7C4FF34BF012000205DF808FB00BFD1
:100B20004FEA410C7FEA6C5C02D150EA013C0AD1E9
:100B30004FEA430C7FEA6C5C02D152EA033C02D1DB
:100B40004FF0000070474FF0010070474FEA41023C
:100B500012F5001215D211D56FF47873B3EB62520F
:100B600012D94FEAC12343F0004343EA505311F036
:100B7000004F23FA02F018BF404270474FF00000C8
:100B8000704750EA013005D111F0004008BF6FF006
:100B9000004070474FF00000704700BF80F00040F9
:100BA00002E000BF81F0004142001FBF5FEA410345
:100BB00092EA030F7FEA226C7FEA236C6AD04FEA45
:100BC0001262D2EB1363C1BFD2184140484041408A
:100BD000B8BF5B42192B88BF704710F0004F40F43C
:100BE000000020F07F4018BF404211F0004F41F458
:100BF000000121F07F4118BF494292EA030F3FD024
:100C0000A2F1010241FA03FC10EB0C00C3F1200336
:100C100001FA03F100F0004302D5494260EB4000C5
:100C2000B0F5000F13D3B0F1807F06D340084FEA30
:100C3000310102F10102FE2A51D2B1F1004F40EB25
:100C4000C25008BF20F0010040EA0300704749008D
:100C500040EB0000013A28BFB0F5000FEDD2B0FA2A
:100C600080FCACF1080CB2EB0C0200FA0CF0AABF4D
:100C700000EBC25052421843BCBFD04018437047EB
:100C800092F0000F81F4000106BF80F400000132F1
:100C9000013BB5E74FEA41037FEA226C18BF7FEAC8
:100CA000236C21D092EA030F04D092F0000F08BF0A
:100CB0000846704790EA010F1CBF0020704712F0F1
:100CC0007F4F04D1400028BF40F00040704712F130
:100CD00000723CBF00F50000704700F0004343F095
:100CE000FE4040F4000070477FEA226216BF0846CB
:100CF0007FEA23630146420206BF5FEA412390EA8E
:100D0000010F40F4800070474FF0000304E000BF83
:100D100010F0004348BF40425FEA000C08BF704734
:100D200043F0964301464FF000001CE050EA0102F8
:100D300008BF70474FF000030AE000BF50EA01020D
:100D400008BF704711F0004302D5404261EB4101FA
:100D50005FEA010C02BF84460146002043F0B6431F
:100D600008BFA3F18053A3F50003BCFA8CF2083A44
:100D7000A3EBC25310DB01FA02FC634400FA02FC4D
:100D8000C2F12002BCF1004F20FA02F243EB020054
:100D900008BF20F00100704702F1200201FA02FCB6
:100DA000C2F1200250EA4C0021FA02F243EB0200A9
:100DB00008BF20EADC7070474FF0FF0C1CEAD052ED
:100DC0001EBF1CEAD15392EA0C0F93EA0C0F6FD0AE
:100DD0001A4480EA010C400218BF5FEA41211ED08C
:100DE0004FF0006343EA501043EA5111A0FB013178
:100DF0000CF00040B1F5000F3EBF490041EAD3714D
:100E00005B0040EA010062F17F02FD2A1DD8B3F1C8
:100E1000004F40EBC25008BF20F00100704790F037
:100E2000000F0CF0004C08BF49024CEA502040EA89
:100E300051207F3AC2BFD2F1FF0340EAC25070474F
:100E400040F400004FF00003013A5DDC12F1190F8D
:100E5000DCBF00F000407047C2F10002410021FAFF
:100E600002F1C2F1200200FA02FC5FEA310040F117
:100E7000000053EA4C0308BF20EADC70704792F090
:100E8000000F00F0004C02BF400010F4000F013AC8
:100E9000F9D040EA0C0093F0000F01F0004C02BFC3
:100EA000490011F4000F013BF9D041EA0C018FE732
:100EB0000CEAD15392EA0C0F18BF93EA0C0F0AD038
:100EC00030F0004C18BF31F0004CD8D180EA01005E
:100ED00000F00040704790F0000F17BF90F0004FF7
:100EE000084691F0000F91F0004F14D092EA0C0FD9
:100EF00001D142020FD193EA0C0F03D14B0218BF6C
:100F0000084608D180EA010000F0004040F0FE40B1
:100F100040F40000704740F0FE4040F4400070474D
:100F20004FF0FF0C1CEAD0521EBF1CEAD15392EACC
:100F30000C0F93EA0C0F69D0A2EB030280EA010CBC
:100F400049024FEA402037D04FF0805343EA111155
:100F500043EA10130CF000408B4238BF5B0042F1B3
:100F60007D024FF4000C8B4224BF5B1A40EA0C0058
:100F7000B3EB510F24BFA3EB510340EA5C00B3EB8A
:100F8000910F24BFA3EB910340EA9C00B3EBD10F78
:100F900024BFA3EBD10340EADC001B0118BF5FEACA
:100FA0001C1CE0D1FD2A3FF650AF8B4240EBC250F3
:100FB00008BF20F0010070470CF0004C4CEA5020B4
:100FC0007F32C2BFD2F1FF0340EAC250704740F403
:100FD00000004FF00003013A37E792F0000F00F0F5
:100FE000004C02BF400010F4000F013AF9D040EA73
:100FF0000C0093F0000F01F0004C02BF490011F407
:10100000000F013BF9D041EA0C0195E70CEAD153FE
:1010100092EA0C0F08D142027FF47DAF93EA0C0FE5
:101020007FF470AF084676E793EA0C0F04D14B02C9
:101030003FF44CAF08466EE730F0004C18BF31F07B
:10104000004CCAD130F000427FF45CAF31F0004375
:101050007FF43CAF5FE700BF4FF0FF3C06E000BF0E
:101060004FF0010C02E000BF4FF0010C4DF804CD31
:101070004FEA40024FEA41037FEA226C18BF7FEA41
:10108000236C11D001B052EA530C18BF90EA010F43
:1010900058BFB2EB030088BFC81738BF6FEAE170D2
:1010A00018BF40F0010070477FEA226C02D15FEA6E
:1010B000402C05D17FEA236CE4D15FEA412CE1D0DA
:1010C0005DF8040B704700BF844608466146FFE7A1
:1010D0000FB5FFF7C9FF002848BF10F1000F0FBD83
:1010E0004DF808EDFFF7F4FF0CBF012000205DF87C
:1010F00008FB00BF4DF808EDFFF7EAFF34BF012001
:1011000000205DF808FB00BF4DF808EDFFF7E0FF99
:1011100094BF012000205DF808FB00BF4DF808EDEA
:10112000FFF7D2FF94BF012000205DF808FB00BF4D
:101130004DF808EDFFF7C8FF34BF012000205DF82F
:1011400008FB00BF4FEA4002B2F1FE4F0FD34FF051
:101150009E03B3EB12620DD94FEA002343F0004324
:1011600010F0004F23FA02F018BF404270474FF0D2
:101170000000704712F1610F01D1420205D110F059
:10118000004008BF6FF0004070474FF0000070470C
:1011900053B94AB9002908BF00281CBF4FF0FF31DE
:1011A0004FF0FF3000F00CB8ADF1080C6DE904CE43
:1011B00028F0A4FBDDF804E0DDE9022304B0704769
:1011C000704700BF0348044B834202D0034B03B176
:1011D000184770471C0200201C020020000000007D
:1011E0000548064B1B1AD90F01EBA301491002D089
:1011F000034B03B1184770471C0200201C0200205B
:101200000000000010B5064C237843B9FFF7DAFF61
:10121000044B13B10448AFF300800123237010BDC9
:1012200020020020000000006CAB020808B5054B4E
:101230001BB105490548AFF30080BDE80840FFF742
:10124000CFBF00BF00000000240200206CAB0208EA
:1012500008B5064B044613B10021AFF30080044BE0
:101260001B6803B19847204604F0BAF8000000005C
:10127000740300202DE9F04788B0002B149F109EC6
:10128000DDF84CA01D461446BCBF03F100431446D4
:1012900027F02007129AB6BF1D4600232D23462FA4
:1012A000137004D0452F00D10136022300E0032340
:1012B00007AA049206AACDE902A2CDE90036224689
:1012C0002B4600F049FE472F80461AD1119BDB07C1
:1012D0000ED500EB06090022002320462946FFF721
:1012E000EDFB08B1CDF81C903022079B4B451ED377
:1012F000079B159AA3EB08034046136008B0BDE8AE
:10130000F087462F00EB0609E5D10378302B0AD190
:101310000022002320462946FFF7D0FB18B9C6F16A
:101320000106CAF80060DAF800309944D3E7591C86
:1013300007911A70D9E7F7B50029BABF49422D23A2
:101340002B230929027043702ADD0DF10704871C45
:10135000A6460A26A446B1FBF6F506FB1512303266
:10136000632904F1FF340CF8012C2946F2DC3031FA
:10137000ACF1020204F8011C411C144672450AD368
:101380000DF10903A3EB0C03A64538BF00233B4432
:10139000181A03B0F0BD12F8013B01F8013FEDE768
:1013A000302330318370C170031DF1E72DE9F04F18
:1013B00093B00C46DDF8708016461F46054600F0D7
:1013C000D1FC03680B931846FEF742FF00231093ED
:1013D000D8F8003094F818A0D4F800B00C90073377
:1013E00023F00703F3E80212CDE90812C8F8003031
:1013F00013460A46C4E91223DDE9088323F00049B5
:101400004FF0FF329B4B40464946FFF789FB70BBCC
:10141000984B4FF0FF3240464946FFF763FB30BB25
:10142000DDE9080100220023FFF752FB10B12D2354
:1014300084F84330904A914BBAF1470F8CBF9046E5
:101440009846032323612BF0040323604FF0000927
:101450000097334611AA2146284600F0D1F9013001
:1014600040F08F804FF0FF3013B0BDE8F08FDDE922
:10147000082310461946FFF753FB40B1099B804AE9
:10148000002BBCBF2D2384F843307E4BD4E7636828
:101490005A1C0AF0DF093ED1062363604BF48063D7
:1014A00000222360069210AACDE904A20FAA03929B
:1014B0000DF13B02CDE90132636800932846DDE976
:1014C0000823FFF7D7FEB9F1470F0F99804629D1BE
:1014D000C81C02DB63688B4241DAAAF1020A5FFA98
:1014E0008AFA0139524604F150000F91FFF723FFA9
:1014F000109A1318012A8146236102DC2268D20760
:1015000001D5013323619DF83B30002BA0D02D2362
:1015100084F843309CE7B9F1470FBFD1002BBDD110
:101520000123BAE7BAF1650FDBD9BAF1660F18D11A
:10153000002963680BDD216113B92268D00702D549
:1015400001330B442361A1654FF00009DBE713B9B8
:101550002268D20701D50233F4E70123F2E74FF006
:10156000670A109B8B4205DC23682161D807EAD506
:101570004B1CE7E70029D4BFC1F10202012213444A
:10158000E0E723685A0507D42369424631462846D6
:10159000B847013028D165E7BAF1650F40F2DC8029
:1015A000D4E9120100220023FFF788FA90B3364AEB
:1015B000012331462846B84701303FF453AFDDE9F7
:1015C0000F38434502DB2368D8070DD5DDE90B232F
:1015D00031462846B84701303FF444AF4FF0000988
:1015E00008F1FF38C84509DC23689B0700F1058135
:1015F000E068119B9842B8BF184635E7012304F113
:101600001A0231462846B84701303FF42BAF09F1A2
:101610000109E7E70F9B834238DC1B4A012331466F
:101620002846B84701303FF41DAFDDE90F3959EACC
:10163000030302D12368D907D6D5DDE90B23314650
:101640002846B84701303FF40DAF4FF0000A0F9B1A
:101650005B42534501DC4B4697E7012304F11A0234
:1016600031462846B84701303FF4FCAE0AF1010A82
:10167000EDE700BFFFFFEF7FB8AB0208B4AB020895
:10168000C0AB0208BCAB0208C1AD0208A36DDDF817
:1016900040B05B45A8BF5B46002B089337DC4FF09A
:1016A000000904F11A02089BD4F858A0002BACBF23
:1016B000AAEB030353464B4531DC0F9B9B453ADCB9
:1016C0002368DA0737D40F9BABEB0309ABEB0A03B4
:1016D0009945A8BF9946B9F1000F34DC4FF00008D6
:1016E0000F9BB9F1000FABEB0303A8BFA3EB0903FA
:1016F00043457FF779AF012304F11A0231462846AA
:10170000B84701303FF4AEAE08F10108E8E7089BA6
:10171000424631462846B8470130C0D1A2E60123EF
:10172000314628460D92B84701303FF49BAE0D9AE2
:1017300009F10109B7E7DDE90B2331462846B8472F
:101740000130C0D18EE64B4608EB0A0231462846EE
:10175000B8470130C2D185E6DDF840A0BAF1010FEB
:1017600001DCDB0735D50123424631462846B84720
:1017700001303FF477AEDDE90B2331462846B84708
:1017800001303FF46FAED4E91201002200230AF1C8
:10179000FF3AFFF793F9C8B9534608F10102314601
:1017A0002846B84701300DD15CE6012304F11A0246
:1017B00031462846B84701303FF454AE08F10108DD
:1017C000D045F2DB4B4604F15002DFE64FF0000853
:1017D000F6E701234246E2E7012304F1190231460C
:1017E0002846B84701303FF43DAE08F10108E368F0
:1017F00011995B1A4345EFDCFAE64FF00008F6E773
:101800002DE9F047914698468A680B69089E9342F5
:10181000B8BF1346C9F8003091F8432007460C467C
:1018200012B10133C9F800302368990642BFD9F8D4
:1018300000300233C9F80030256815F0060507D1DD
:1018400004F1190AE368D9F800209B1AAB4229DC9D
:1018500094F843302268003B18BF012392062ED42F
:1018600004F1430241463846B047013021D0236895
:10187000A168226903F00603042B01BFE568D9F8CB
:101880000030ED1A25EAE57518BF00258B1A2B44A8
:101890009142C8BF1D464FF000091A344D451AD178
:1018A000002008E00123524641463846B047013047
:1018B00003D14FF0FF30BDE8F0870135C2E7E118F2
:1018C0005A1C302081F84300224494F8451082F8D5
:1018D00043100233C4E70123224641463846B0474D
:1018E0000130E6D009F10109D8E700002DE9F04305
:1018F00098460B7E85B0782B174606460C9A0C4608
:1019000009D8622B01F1430108D8002B00F0DC80DC
:10191000582B00F0BD8004F1420539E0A3F16300CB
:101920001528F8D801A555F820F000BF8519000842
:101930009919000817190008171900081719000845
:101940001719000899190008171900081719000835
:101950001719000817190008A91A0008C519000866
:10196000571A00081719000817190008D11A00089B
:1019700017190008C51900081719000817190008D9
:101980005F1A00081368191D1B68116004F14205F5
:1019900084F842300123A8E013682568181D106000
:1019A000280601D51B6803E06A06FBD5B3F90030B1
:1019B000002B03DA2D225B4284F84320DFF878C144
:1019C0000A2213E02568106815F0800F50F8043BD8
:1019D00002D16D0648BF9BB21060227EDFF858C16D
:1019E0006F2A5DD10822002084F843006568A56055
:1019F000002D05DB20681D4320F00400206051D03D
:101A00000D46B3FBF2F002FB103E9A421CF80EE0CA
:101A100005F801ED0346F4D9082A0BD12368DA074B
:101A200008D5236962689A42DEBF302305F8013C7D
:101A300005F1FF35491B2161CDF800803B4603AA23
:101A400021463046FFF7DCFE013053D14FF0FF3026
:101A500005B0BDE8F083236843F020032360DFF87E
:101A6000DCC0782384F845302068156810F0800FBA
:101A700055F8043B03D110F0400F18BF9BB215601E
:101A8000C50744BF40F02000206023B11022AAE720
:101A9000DFF8A4C0E6E7226822F020022260F5E722
:101AA0000A22A0E70D46B7E71368D4F800C06069C2
:101AB0001D1D15601CF0800F1B6801D0186003E02D
:101AC0001CF0400FFAD01880002323610D46B3E7C5
:101AD0001368191D11601D68626800212846FEF711
:101AE00067FB08B1401B606063682361002384F8D2
:101AF0004330A1E723692A4639463046C0470130C2
:101B0000A4D023689B0714D4E068039B9842B8BF15
:101B100018469DE7012304F1190239463046C047B3
:101B2000013093D00135E36803995B1AAB42F1DCD5
:101B3000EAE70025F7E700BFC4AB0208D5AB02080F
:101B4000002310B50446C0E90033C0E904338360C4
:101B500081814366C2818361194608225C3000F0AE
:101B6000F8F80D4B63620D4BA3620D4BE3620D4B16
:101B700023630D4B24629C4206D003F16802944219
:101B800002D0D0339C4205D104F15800BDE810408A
:101B900000F056B910BD00BFC71C0008ED1C0008BE
:101BA000251D00084B1D00083C020020024A034985
:101BB000034800F06BB800BF000000204935000862
:101BC0001000002041680C4B994210B5044601D02A
:101BD00001F0BAFCA168094B994202D0204601F0FD
:101BE000B3FCE168064B994204D02046BDE81040A2
:101BF00001F0AABC10BD00BF3C020020A4020020DE
:101C00000C03002010B50A4B0A4A1A600A48002249
:101C10000421FFF795FF094801220921FFF790FFF2
:101C2000BDE81040064802221221FFF789BF00BF1D
:101C300074030020AD1B00083C020020A402002019
:101C40000C030020014800F0FCB800BF7D03002019
:101C5000014800F0F7B800BF7D03002010B504462E
:101C6000FFF7F0FF236A1BB1BDE81040FFF7F0BF9C
:101C7000044B2362044B1B68002BF5D1FFF7C2FF16
:101C8000F2E700BFC51B0008740300202DE9F843EC
:101C90008046894614460026D4E90175013F05D5E2
:101CA0002468002CF8D13046BDE8F883AB89012BBD
:101CB00007D9B5F90E30013303D029464046C8474D
:101CC00006436835EAE710B50C46B1F90E1000F08E
:101CD0006FF80028ABBF636DA3891B1823F48053F2
:101CE000ACBF6365A38110BD002070472DE9F041B2
:101CF0001F468B89DB0505460C46164605D5B1F90E
:101D00000E100223002200F041F8A389B4F90E104E
:101D100023F48053A38132463B462846BDE8F04178
:101D200000F058B810B50C46B1F90E1000F02EF8BE
:101D3000B4F90C30421C0BBF23F4805343F480539E
:101D4000A381A38118BF606510BDB1F90E1000F02A
:101D50000DB802440346934200D1704703F8011BBB
:101D6000F9E70000004870474C01002038B5064CE8
:101D7000002305460846236003F022FB431C02D1E2
:101D8000236803B12B6038BD7803002038B5074CB9
:101D9000054608461146002222601A4603F016FB4B
:101DA000431C02D1236803B12B6038BD78030020A7
:101DB00038B5074C054608461146002222601A46EF
:101DC00003F002FB431C02D1236803B12B6038BD32
:101DD0007803002038B5074C054608461146002216
:101DE00022601A4603F0D8FA431C02D1236803B1DB
:101DF0002B6038BD7803002070B50D4B0D4C0026CC
:101E00001D1BB6EBA50F09D128F0B0FE0A4C0B4BF9
:101E100000261D1BB6EBA50F05D170BD54F8043B81
:101E200098470136EDE754F8043B98470136F1E74F
:101E3000246804082468040824680408286804083E
:101E40007047704770472DE9F74F03690C69A3424B
:101E500080467EDB013C01F11407A30000F114056C
:101E6000009305EB8403019357F8243055F82420A0
:101E700001339A4207EB8409B2FBF3F62ED34FF0FD
:101E8000000ABC46AE46D3465CF8043B98B206FB5B
:101E900000A0020C1B0C06FB0323DEF8002080B21E
:101EA00092B2121A5A44DEF800004FEA134A9BB26B
:101EB000C3EB224303EB104392B242EA0342E145F3
:101EC0004EF8042B4FEA234BDED2009BEB582BB984
:101ED000019B1A1F954230D3C8F81040404601F0CC
:101EE000ABF9002825DB01362946002057F8042BE2
:101EF000D1F800C01FFA82FE1FFA8CF3A3EB0E0389
:101F00000344120CC2EB234202EB1C429BB243EA95
:101F10000243B94541F8043B4FEA2240E6D255F866
:101F2000242005EB840322B9043B9D420BD3C8F85F
:101F30001040304603B0BDE8F08F1368002BCBD1C2
:101F4000043A013CC6E71A68002AF0D1043B013C80
:101F5000EBE70020EEE700002DE9F04F164699B0C0
:101F6000C269259C1F46CDE90E67814682B91020C3
:101F700000F01CFE0246C9F81C0020B9A24BEF215C
:101F8000A24801F027FB0023C0E901330360C360CE
:101F9000116859B152684A60012393408B604846EA
:101FA00000F0FCFED9F81C3000221A60B7F10008DE
:101FB000B5BF0123002323602360954BBCBF28F0ED
:101FC0000048CDF83C8033EA08031AD1249AC8F3BC
:101FD000130842F20F7358EA0608136000F06C858C
:101FE000269B53B98B4B21E08B4B03930833269AE6
:101FF0001360039819B0BDE8F08F864B0393033349
:10200000F5E7DDE90E34CDE90A34DDE90A01002205
:102010000023FEF753FD824650B1249A012313603A
:10202000269B13B1269A7D4B13607D4B0393E0E70B
:1020300016AB019317AB00934846DDE90A2301F084
:10204000AFF95FEA1854169D04907BD00B9BCDF836
:1020500050A0C3F31303DDE90A0143F07F5343F4B7
:102060004013A4F2FF34194600226E4BFEF706F926
:102070005FA3D3E90023FEF7B9FA5FA3D3E90023F6
:10208000FEF7FEF8064620460F46FEF745FA5CA32B
:10209000D3E90023FEF7AAFA02460B46304639463A
:1020A000FEF7EEF806460F46FEF750FD002280468A
:1020B000002330463946FEF70BFD48B14046FEF797
:1020C0002BFA32463B46FEF7F9FC08B908F1FF3817
:1020D000B8F1160F53D8544B03EBC803D3E90023D0
:1020E000DDE90A01FEF7F4FC00284AD008F1FF38C8
:1020F000002311932D1B6B1E099343BF0023C5F1D1
:10210000010709930027B8F1000F3CDB099BCDF8CC
:1021100040804344099300230C93229B092B00F237
:102120008780052BC4BF043B2293229BA3F10203AB
:10213000CCBF00240124032B00F28680DFE803F0EB
:102140005153362B179C2C4404F23243202BC1BF31
:10215000C3F1400308FA03F804F2124326FA03F32A
:10216000D6BFC3F1200348EA030006FA03F0FEF7E6
:10217000C3F90122A1F1F873013C149273E7012322
:10218000B7E71190B6E7C8F100030C930023A7EB63
:1021900008071093C1E701230D93239B4344089341
:1021A0000133012B0593B8BF012306E001230D93F2
:1021B000239B002B4BDD08930593D9F81C000021CD
:1021C000042202F114059D4246D94160484600F0C0
:1021D000A7FD0390002842D1144B024640F2AF11F4
:1021E000CEE60023E3E70023D6E700BFAFF300808D
:1021F00061436F63A787D23FB3C8608B288AC63F0D
:10220000FB799F501344D33FF3AB02080AAC02089A
:102210000000F07FEFAB0208E6AB0208C2AD020897
:10222000C1AD02080000F83F00AE020872AC02081F
:102230000124002322930D944FF0FF3300220893D2
:10224000059323921223B8E701230D93F4E70123AA
:10225000089305932393B0E701315200B1E7D9F811
:102260001C30039A1A60059B0E2B75D8002C73D076
:10227000B8F1000F40F3C4809F4B08F00F0203EB4E
:10228000C20318F4807FD3E900AB4FEA281500F0B1
:10229000A3809A4BDDE90A01D3E90823FEF7D0FABF
:1022A000CDE9060105F00F050324944E002D40F002
:1022B000998052465B46DDE90601FEF7C1FA824687
:1022C0008B46119B002B00F0C3808D4B00225046A3
:1022D0005946FEF7FDFB002800F0BA80059B002B55
:1022E00000F0B680089B002B36DD08F1FF33069323
:1022F00050465946834B0022FEF778F9089E8246E5
:102300008B4601342046FEF707F952465B46FEF73E
:102310006DF97D4B0022FDF7B3FF0446A1F1507526
:10232000CDE91245002E40F09780784B00225046B0
:102330005946FDF7A3FF22462B4682468B46FEF701
:10234000E5FB002840F0C182224605F100435046DB
:102350005946FEF7BDFB20BB179B002BC0F29181B5
:10236000B8F10E0F00F38D81634B03EBC803D3E983
:1023700000AB239B002B80F21B81059B002B00F3FD
:1023800017810ED1614B002250465946FEF72EF9B7
:1023900002460B46DDE90A01FEF7A4FB002800F027
:1023A000978200252C46239B039EDB4306932746FA
:1023B00000242946484600F0F1FC002F00F0EE8092
:1023C0002CB1BC4203D02146484600F0E7FC394618
:1023D000484600F0E3FCE1E0DDE90A34CDE90634EB
:1023E000022462E7E90708D550465946D6E900239A
:1023F000FEF7FCF8013482468B466D10083655E72F
:1024000022D0C8F100053C4B3C4E05F00F0203EB17
:10241000C203D3E90023DDE90A01FEF7E7F82D1135
:1024200082468B460224002D3FF44BAFEA0708D5C5
:1024300050465946D6E90023FEF7D8F801348246C3
:102440008B466D100836EEE7DDE90AAB022438E76B
:10245000059ECDF8188055E7274B03EBC60353E9DB
:1024600002010D9B002B55D002460B460020284947
:10247000FEF7E6F9DDE91223FDF700FF039BCDE946
:1024800012019D191E4659465046FEF75FFB00F1AA
:102490003004FEF741F802460B4650465946FDF718
:1024A000EDFEDDE9122306F8014B82468B46FEF76E
:1024B0000FFB002872D152465B4611490020FDF700
:1024C000DDFEDDE91223FEF703FB002840F0BA80B1
:1024D000AE423FF441AFDDE912010A4B0022FEF7A4
:1024E00085F8084BCDE91201002250465946FEF707
:1024F0007DF882468B46C6E700AE0208D8AD0208DA
:102500000000F03F0000244000001C400000144088
:102510000000E03FDDE91223FEF768F8039B039C0F
:10252000CDE912013344159359465046FEF70EFB90
:1025300000F13005FDF7F0FF0B46024659465046C4
:10254000FDF79CFE04F8015B159B9C4282468B467E
:1025500027D1039B0022DDE912011E44AC4BFDF79D
:102560008FFE02460B4650465946FEF7CFFA00282A
:1025700068D1DDE91223A6490020FDF77FFE02465F
:102580000B4650465946FEF7A3FA00283FF4E4AE46
:10259000334616F8012D302AFAD01E46DDF8188091
:1025A0003EE09C4B0022FEF721F882468B46BBE7BB
:1025B000039E984D002452465B46DDE90A01FEF772
:1025C0003FF9FEF7C3FA0746FDF7A6FF52465B4602
:1025D000FEF70CF802460B46DDE90A01FDF74EFE58
:1025E00007F1300C06F801CBDDF80CC0DDF814E083
:1025F000A6EB0C0CE64502460B4633D1FDF740FE38
:1026000052465B4604460D46FEF780FAC0B9524674
:102610005B4620462946FEF751FA08B1FB070FD466
:102620000499484600F0BAFB0023249A337008F15D
:1026300001031360269B002B3FF4DBAC1E60D8E443
:10264000CDF8188033461E4613F8012D392A06D1DD
:10265000039A9A42F7D1069A013206923022013249
:102660001A709BE722462B46FDF7C0FF02460B4639
:10267000CDE90A2300220023FEF720FA00289AD091
:10268000CEE70D9A002A00F0DF80229A012A00F39B
:10269000C380149A002A00F0B78003F233430C9DE4
:1026A0003E46099A01211A4448461F44099200F007
:1026B00029FC044656B1099B002B07DDB342099A59
:1026C000A8BF3346FF1AF61AD31A09930C9B0BB313
:1026D0000D9B002B00F0BF80002D00F0B98021463B
:1026E0002A46484600F0DAFC049A01460446484669
:1026F00000F01EFC04998246484600F04FFB0C9BFC
:102700005B1B0C9300F0AA800C9A5146484600F0DF
:10271000C5FC04900121484600F0F4FB109B0546DF
:10272000002B00F0D0811A460146484600F0B6FC66
:10273000229B012B054600F399800E9B002B40F055
:1027400090800F9BC3F31303002B40F08A800F9BF4
:1027500023F000431B0D1B05002B00F08580099B17
:102760000133013709934FF0010A109B002B00F051
:10277000B0812B6905EB8303186900F077FBC0F18A
:102780002000099B184410F01F0076D01B2870DC35
:10279000C0F11C000744064403440993002F05DDE3
:1027A00004993A46484600F0D5FC0490099B002B5A
:1027B00005DD29461A46484600F0CCFC0546119B2B
:1027C000002B5FD00498294600F036FD002859DA26
:1027D00008F1FF330693049900230A22484600F0CB
:1027E000FFFA0D9B0490002B00F075810023214619
:1027F0000A22484600F0F4FA089B002B044671DCDC
:10280000229B022B47DC6DE0169BC3F1360346E7A3
:102810000000E03F00002440059B5D1E0C9BAB4286
:1028200008DB5D1B059B002BBFF63AAF059BFE1A2C
:10283000002336E70C9B109A0C95EB1A1A44109261
:10284000059B3E4600252CE70C9D0D9C3E4631E73E
:10285000DDF810A058E70C9A049957E7CDF810A0BE
:1028600058E74FF0000A80E79A467EE74FF0000AEB
:102870007FE71C2892D0C0F120001C30099B074440
:10288000064489E7059BCDF81880002B24DC0893CB
:10289000229B022B22DD089B002B7FF484AD29466E
:1028A000089B0522484600F09BFA0146054604981D
:1028B00000F0C2FC00287FF776AD039E312306F8B6
:1028C000013B069B0133069371E535462C46F4E740
:1028D000059DCDF81880F9E7059B08930D9B002B0B
:1028E00000F0FD80002E05DD21463246484600F00E
:1028F00031FC0446BAF1000F58D06168484600F038
:102900000FFA064628B9814B024640F2EF21FFF745
:1029100037BB22690232920004F10C010C3000F046
:102920004BFE01223146484600F014FC0746039B4B
:10293000039A03F10108089B13440A930E9B03F0CA
:102940000103099329460498FFF77DFA2146059073
:1029500000F1300B049800F06FFC3A4608902946CD
:10296000484600F085FCC26808F1FF3A0646FAB90D
:102970000146049800F060FC0246314648460C923D
:1029800000F00CFA229B0C9A42EA0301099B1943BE
:1029900046460FD1BBF1390F28D0089B002B02DD32
:1029A000059B03F1310B8AF800B002E52746BEE72C
:1029B0000122E2E7089B002B04DB22990B430999D3
:1029C0000B4320D1002AEEDD04990122484600F095
:1029D000C1FB2946049000F02FFC002803DCE2D163
:1029E0001BF0010FDFD0BBF1390FD9D139238AF8A1
:1029F000003033461E46013B16F8012C392A52D0CE
:102A000001321A70D5E4002A07DDBBF1390FEDD091
:102A10000BF101038AF80030CBE40A9B08F801BCF3
:102A200043452AD0049900230A22484600F0D8F9E9
:102A3000BC4204904FF000034FF00A022146484682
:102A400006D100F0CDF90446074608F1010879E700
:102A500000F0C6F93946044600230A22484600F031
:102A6000BFF90746F1E7089B5E1E002B039BD8BF0A
:102A700000265A1C27461644002404990122484681
:102A800000F068FB2946049000F0D6FB0028B0DC7B
:102A900002D11BF0010FACD133461E4613F8012DB5
:102AA000302AFAD085E4039A9A42A3D1069B0133D7
:102AB0000693312313707CE4269B002B7FF494AAA9
:102AC000134BFFF7B3BA229B012B7FF736AEDDF82D
:102AD00040A0012055E6089B002B7FF7D9AE039E4E
:102AE00004982946FFF7AFF900F1300B039B06F875
:102AF00001BBF21A089B9342B5DD049900230A2218
:102B0000484600F06DF90490EAE700BF72AC020895
:102B1000E6AB020837B5002944D051F8043C0190D7
:102B2000002BA1F10404B8BFE41800F0EDF81E4A30
:102B30000198136833B96360146003B0BDE8304096
:102B400000F0E8B8A34208D9256861198B4201BF9B
:102B500019685B6849192160EDE71A465B680BB19B
:102B6000A342FAD911685518A5420BD12468214413
:102B70005418A3421160E0D11C685B6853600C4498
:102B80001460DAE702D90C230360D6E725686119DF
:102B90008B4204BF19685B68636004BF49192160F8
:102BA0005460CAE703B030BD84030020024B0146E5
:102BB000186800F02DB800BF0C000020024B014641
:102BC0001868FFF7A7BF00BF0C00002070B50F4CBE
:102BD0000E462168054611B900F0DEFC2060314642
:102BE000284600F0D9FC431C03D14FF0FF342046A7
:102BF00070BDC41C24F00304A042F8D0211A28465A
:102C000000F0CAFC0130F2D1EFE700BF80030020E2
:102C10002DE9F843CD1C25F0030508350C2D38BFF0
:102C20000C25002D064601DBA94204D90C23336094
:102C30000020BDE8F883334F00F066F83B681C467F
:102C40003CBB29463046FFF7C1FF431C044656D122
:102C50003C68A046B8F1000F40D1002C49D0236851
:102C60004146304604EB030900F096FC814540D113
:102C700021686D1A29463046FFF7A8FF013038D089
:102C800023682B4423603B685A685ABBC7F800800E
:102C90000EE02268521B1ED40B2A16D96119A342DA
:102CA000256018BF5960636808BF396062514B6086
:102CB000304600F02FF804F10B00231D20F0070030
:102CC000C21A1CBF1B1AA350B3E76268A3420CBF11
:102CD0003A605A60ECE723466468B1E74446D8F8A6
:102CE0000480B7E71A465B68A342FBD10023536018
:102CF000DEE70C233360304600F00CF898E70560FF
:102D0000D6E700BF840300200148FFF79AB800BF50
:102D10007C0300200148FFF795B800BF7C0300202A
:102D200070B5C46905460E4684B91020FFF73EFF12
:102D30000446E86128B90246164B17486B2100F09B
:102D400049FC0023C0E901330360C360E36853B961
:102D500021220421284600F05BFCEB69E060DB687F
:102D60000BB9002070BD53F8260030B1026843F85B
:102D700026200023C0E90333F4E7012101FA06F419
:102D8000621D9200284600F043FC0028E9D0C0E90B
:102D90000164EEE7F3AB020883AC020870B5C469C6
:102DA00006460D4674B91020FFF700FF0246F06199
:102DB00020B9094B09488F2100F00CFCC0E90144FF
:102DC0000460C4603DB1F3696A68DB6853F822109F
:102DD000296043F8225070BDF3AB020883AC0208AF
:102DE0002DE9F0410D6907460C461E4601F1140C11
:102DF0000020DCF8003099B202FB01611E0C0B0CC4
:102E000002FB063389B2013001EB034185424CF8E5
:102E1000041B4FEA1346ECDC0EB3A368AB4219DC8B
:102E2000616838460131FFF77BFF804628B90246CA
:102E30000C4B0D48BA2100F0CDFB2269023204F19F
:102E40000C0192000C3000F0B7FB21463846FFF72A
:102E5000A5FF444604EB850301355E6125612046EC
:102E6000BDE8F08172AC020883AC0208B0F5803F87
:102E7000034636BF030400201020B3F1807F3CBF1F
:102E80001B020830B3F1805F3CBF1B010430B3F17B
:102E9000804F3CBF9B000230002B04DB5B0001D560
:102EA0000130704720207047036813F00702014685
:102EB0000BD0DA0722D4980749BF5B089B08012092
:102EC0000B605CBF0B600220704798B2A0B91B0C6E
:102ED0001020DAB20AB908301B0A1A0704BF1B090E
:102EE00004309A0704BF9B080230DA0702D45B085B
:102EF00006D001300B6070471046EAE700207047AB
:102F00002020704710B50C460121FFF709FF02464B
:102F100028B9054B054840F2451100F05BFB012341
:102F20004461036110BD00BF72AC020883AC0208AB
:102F30002DE9F04FD1F81080D2F81090C84585B037
:102F40000E46144604DB4B460C46C14616469846D0
:102F5000A368616809EB0807BB42B8BF0131FFF7FE
:102F6000DFFE30B902464B4B4B484FF4B17100F0D5
:102F700031FB00F1140505EB870B2B4600225B4566
:102F800022D306F1140101EB880304F1140C0CEBBD
:102F9000890C029304F1150363458CBF00230123C0
:102FA0000093ACEB0403153B9B080193029B039138
:102FB0008B420CD8002F03DD5BF8043D002B67D05B
:102FC000076105B0BDE8F08F43F8042BD7E7B1F8EF
:102FD00000A0BAF1000F28D004F11408A9464FF060
:102FE000000E58F8042BD9F8003096B29BB20AFBB9
:102FF0000633D9F80060120C360C73440AFB0266E3
:1030000006EB13469BB243EA0643C44549F8043B2A
:103010004FEA164EE5D8009A019B002A4FEA830337
:1030200008BF00232B44C3F804E0039BB3F802E07D
:103030000431BEF1000F29D02B6804F11406984624
:10304000A9464FF0000A32880EFB02A202EB18429A
:103050009BB243EA024349F8043B56F8043BD9F8D3
:1030600000804FEA134A1FFA88F30EFB0A3303EB82
:103070001243B4454FEA134AE5D8009E019A002E48
:103080004FEA820208BF00222A44536004358DE7CC
:10309000013F8FE772AC020883AC02082DE9F843C8
:1030A000174612F0030280460D4607D0264C013A1F
:1030B000002354F82220FFF793FE0546BF103FD0AF
:1030C000D8F81C4094B91020FFF770FD0446C8F8EA
:1030D0001C0030B902461D4B1D4840F2B31100F0F0
:1030E00079FA0023C0E901330360C360A66846B9DA
:1030F00040F271214046FFF705FF0023A06006461D
:1031000003602C464FF0000907F001037F1053B114
:10311000294632464046FFF70BFF2146054640460A
:10312000FFF73CFE67B1306838B932463146404659
:10313000FFF7FEFE3060C0F8009006462C46E3E73D
:103140002846BDE8F88300BFC8AD0208F3AB02080B
:1031500083AC02082DE9F84F0C4649682669A3683C
:1031600006EB6216074691464FEA621A06F101081D
:1031700043450BDB3846FFF7D3FD054648B9024609
:103180002B4B2C484FF4EF7100F024FA01315B0017
:10319000EEE700F1140100230A461846534539DBD7
:1031A00020692AEAEA7A01EB8A0104F1140319F092
:1031B0001F098C4603EB800030D0C9F1200A4FF084
:1031C000000E1A68E34602FA09F242EA0E02CBF850
:1031D000002053F8042B98420CF1040C22FA0AFE4A
:1031E000EFD8031B153B23F0030304F115029042B3
:1031F00038BF00231944C1F804E0BEF1000F00D12C
:10320000B0463846C5F810802146FFF7C7FD28466E
:10321000BDE8F88F42F8040B0133BFE753F8041BF5
:10322000CCF8001098420CF1040CF7D8E8E700BF86
:1032300072AC020883AC020803690A699B1A30B5B4
:103240000ED11430143100EB820401EB820154F8EA
:10325000045D51F8042D954204D006D24FF0FF339F
:10326000184630BDA042F2D3FAE70123F8E7000088
:103270002DE9F74F8A460646114650461446FFF799
:10328000DBFF051E12D129463046FFF749FD0246F5
:1032900028B9414B40F23721404800F09BF9012307
:1032A000C0E90435104603B0BDE8F08FBCBF5346FB
:1032B000A2463046DAF80410BABF1C4601250025A4
:1032C000FFF72EFD024618B9334B40F24521E3E7E4
:1032D000DAF810702669C5600AF1140904F1140EB9
:1032E00000F114050AF1100309EB87080EEB8606BE
:1032F0000193AB464FF0000C019B5EF8040B53F8B2
:1033000004AF019381B21FFA8AF35B1A000C634485
:10331000C0EB1A4000EB23409BB243EA00437645E2
:103320004BF8043B4FEA204CE6D8331B153B1534D1
:1033300023F00303A64238BF0023E8184B441C1DAA
:1033400004302646A5EB090546450ED308F10301D6
:10335000091B21F003010133984538BF00210144C6
:1033600051F8043DABB117619CE706EB050E56F82A
:10337000041BE2464FEA11491CFA81FC514409EB57
:103380002C4989B241EA09414FEA294CCEF8001094
:10339000DAE7013FE4E700BF72AC020883AC020841
:1033A0002DE973430121089E90469946FFF7B8FC2A
:1033B000054630B90246244B244840F20F3100F054
:1033C00009F9C9F30A54C9F313030CB143F4801388
:1033D0000193B8F1000324D068460093FFF764FD21
:1033E0000099E0B1019AC0F1200302FA03F30B4304
:1033F000C2406B610192019BAB61002B0CBF0122AB
:1034000002222A61ACB1A4F2334404443460C0F116
:103410003500099B1860284602B0BDE870836961D9
:10342000E9E701A8FFF740FD019B6B612030012215
:10343000E7E705EB8203A0F2324030601869FFF73E
:1034400015FDC0EB4210E4E772AC020883AC020841
:10345000B1F90C20F8B5160705460C4651D44B6857
:10346000002B02DC0B6C002B49DDE66A002E46D0F7
:10347000002312F480522F682B6031D0626DA38933
:10348000590705D56368D21A636B0BB1236CD21A46
:103490000023E66A216A2846B047421CB4F90C3082
:1034A00006D129681D2944D8264ACA40D60740D5E6
:1034B00000226260D9042269226004D5421C01D135
:1034C0002B6803B96065616B2F60C1B104F14403DF
:1034D000994202D02846FFF71DFB002363630EE0EC
:1034E000216A01232846B0470246501CC7D12B68E9
:1034F000002BC4D01D2B01D0162B19D12F6000201A
:103500001CE00F69002FFAD093070E6808BF4B69C3
:103510000F6018BF0023F61B8B60002EEFDD216AC1
:10352000D4F828C033463A462846E047002806DC4F
:10353000A38943F04003A3814FF0FF30F8BD074457
:10354000361AEAE70100402038B50B6905460C46FB
:1035500013B91D46284638BD18B1036A0BB9FEF7EA
:103560007DFBB4F90C30002BF3D0626ED00704D48D
:10357000990502D4A06DFEF764FC28462146FFF7AA
:1035800067FF636EDA070546E4D4A3899B05E1D49F
:10359000A06DFEF757FCDDE738B5064C0023054665
:1035A0000846236001F0EAFE431C02D1236803B100
:1035B0002B6038BD780300200A44914200F1FF33AC
:1035C00000D1704710B511F8014B03F8014F91423B
:1035D000F9D110BD1FB51D46094B1B680646D868BA
:1035E00052B1084C0091CDE90142074933462A46C1
:1035F00000F042F800F052F8044C2246F2E700BF17
:103600000C000020F6AC020803AD020831AD020840
:1036100070B5A1FB026535B93146FFF7F9FA0446EA
:1036200028B9204670BD0C2303600024F9E7324618
:103630002946FEF78EFBF4E782B001B901A942B139
:103640004BB113780B601278101E18BF012002B026
:1036500070471046FBE76FF00100F8E749B1FF2A19
:1036600085BF8A2303600A704FF0FF3098BF0120A6
:1036700070470846704700000EB403B5014603AB1F
:10368000054853F8042B0068019300F035F802B0A8
:103690005DF804EB03B070470C00002008B506206D
:1036A00000F012FA012001F09BFE9368013B002B11
:1036B00010B4936007DA9469A34201DB0A2902D1AE
:1036C00010BC00F02DB91368581C10601970084622
:1036D00010BC7047F8B506460F461446D518AC42E4
:1036E00001D1002007E014F8011B3A463046FFF7ED
:1036F000DCFF431CF3D1F8BD2DE9F04706469CB032
:103700000D4614461F4618B1036A0BB9FEF7A6FA18
:103710006B6ED90705D4AB899A0502D4A86DFEF764
:1037200090FBAB891B0701D52B699BB92946304615
:1037300000F034F970B16B6EDE0704D54FF0FF3046
:103740001CB0BDE8F087AB899C05F7D4A86DFEF7E7
:1037500079FBF3E70023099320238DF829300397A1
:1037600030236A4F8DF82A304FF0010823461A782B
:1037700099461AB1252A03F10103F8D1B9EB040ADD
:103780000BD05346224629463046FFF7A3FF0130AF
:1037900000F0A380099A5244099299F80030002B56
:1037A00000F09B8000224FF0FF33CDE9053209F194
:1037B0000109049207928DF853201A924C46052273
:1037C00014F8011B5148FCF7F3FC049AD0B9D00659
:1037D00044BF20238DF85330110744BF2B238DF8AD
:1037E000533099F800302A2B13D007994B4600200C
:1037F0004FF00A0C1A78303A092A1C464AD9A8B167
:10380000079113E0C01B08FA00F010430490A14692
:10381000D4E7039B191D1B680391002BBBBF5B42C0
:1038200042F0020207930793B8BF049223782E2B2D
:103830000AD163782A2B32D1039B1A1D1B6803928D
:1038400043EAE37302340593DFF8C490217803223E
:103850004846FCF7ADFC38B1049BA0EB09004022C0
:10386000824013430134049321782A488DF82810AC
:103870000622FCF79DFC00283ED0274818BB039B7E
:10388000073323F0070308330393099B03440134F0
:1038900009936BE701330CFB01210120AAE7002308
:1038A0000593611C18464FF00A0C0A78303A092A31
:1038B0000C4603D9002BC7D00590C5E701310CFB9E
:1038C00000200123F1E703AB00932A46134B04A920
:1038D0003046FDF76BFD431CD7D16B6ED90705D47D
:1038E000AB899A0502D4A86DFEF7ACFAAB895B06EA
:1038F0003FF524AF099823E703AB00932A46074B13
:1039000004A93046FDF7F2FFE5E700BF32AD02083B
:1039100038AD02083CAD0208AD130008D5360008EA
:10392000F8B505460F46144618B1036A0BB9FEF701
:1039300095F9A369A360A3891A0701D5236943B93F
:103940002146284600F02AF818B14FF0FF363046DD
:10395000F8BD23692068C01A6369834205DC2146EB
:103960002846FFF7F1FD0028EFD1A368013BA360D3
:1039700023685A1C22601F70636901308342FEB2C3
:1039800004D0A389DB07E2D50A2EE0D121462846E0
:10399000FFF7DAFD0028DAD0D7E7000038B5284B6A
:1039A000054618680C4618B1036A0BB9FEF756F9BC
:1039B000B4F90C30190720D4DA0607D409222A609A
:1039C00043F04003A3814FF0FF3031E0580711D599
:1039D000616B41B104F14403994202D02846FFF7DC
:1039E00099F8002363630022A38962602269226040
:1039F00023F0240343F00803A38123694BB9A3896F
:103A000003F42073B3F5007F03D02146284600F06D
:103A1000C9F8B4F90C3013F001020AD00022A260F8
:103A200062695242A261226942B913F08000C7D193
:103A300038BD990758BF6269A260F4E70020F7E734
:103A40000C000020884210B501EB020402D9844228
:103A5000234607D8431EA14207D011F8012B03F8D3
:103A6000012FF8E70244824200D110BD13F8011D76
:103A700002F8011DF7E71F2938B505460C4604D9A1
:103A8000162303604FF0FF3038BDC26B12B152F8FD
:103A900021304BB9284600F031F82246014628462D
:103AA000BDE8384000F018B8012B0AD0591C03D1EA
:103AB000162303600120E7E7002142F82410204686
:103AC00098470020E0E70000024B01461868FFF726
:103AD000D2BF00BF0C00002038B5074C00230546BC
:103AE00008461146236001F07DFC431C02D1236887
:103AF00003B12B6038BD00BF7803002001F076BC15
:103B00002DE9F041074615460C4621B9BDE8F041C4
:103B10001146FFF77DB82AB9FEF7FCFF2C46204678
:103B2000BDE8F08100F09AF88542064602D8B5EB70
:103B3000500FF4D829463846FFF76AF8804608B98E
:103B40004446ECE7B5422A46214628BF3246FFF7F5
:103B500033FD21463846FEF7DDFFF1E770B50E462E
:103B6000B1F90E10002996B014461D460ADAB28942
:103B700012F0800213D14FF4806100202A6021608E
:103B800016B070BD6A4600F047F80028EFDB019AD6
:103B900002F47042A2F500535A425A41EBE7002268
:103BA0004021EAE78B8973B59E0705460C4607D589
:103BB00004F14703236023610123636102B070BDF8
:103BC00001AB6A46FFF7CAFF009E28463146FFF761
:103BD0001FF8B4F90C3038B99A05EFD423F0030379
:103BE00043F00203A381E3E743F08003A381019B39
:103BF0002060C4E90406002BE0D0B4F90E1028467A
:103C000000F01CF80028D9D0A38923F0030343F067
:103C10000103A381D2E7000038B5074C0023054615
:103C200008461146236001F0D3FB431C02D12368F0
:103C300003B12B6038BD00BF7803002038B5064CB7
:103C4000002305460846236001F0C8FB431C02D14F
:103C5000236803B12B6038BD7803002051F8043C81
:103C6000181F002BBCBF0B58C018704708B506487A
:103C700000F06CF94FF0500383F31188BFF36F8F9E
:103C8000BFF34F8FFEE700BFCCAF020808B5064870
:103C900000F05CF94FF0500383F31188BFF36F8F8E
:103CA000BFF34F8FFEE700BF00B002080A4608B519
:103CB0000146064800F04AF94FF0500383F311889B
:103CC000BFF36F8FBFF34F8FFEE700BF28B002082E
:103CD0002DE9F04F484EA1B04FF000084EE000250E
:103CE000002F72D02C46CDF81080CDF80C80CDF886
:103CF0000880CDF80480CDF80080C146C246C34696
:103D000043462A46CDE9062396F82D7096F82E6094
:103D100011F0C6FD059013F05FFC079B1593009B07
:103D20001993019B069A1A93049B1395ADF85020A2
:103D3000CDF858B01D930DF14C0C029B1B93BCE8C1
:103D40000F002D4D8DF87840039C1C94059C8DF838
:103D50007A60CDF85CA0CDF860908DF879701F94F2
:103D60002E460FC5BCE80F000FC5BCE80F000FC5FD
:103D70002C6013F051FCC82011F032FD02F02AFD36
:103D800008A802F0DBFD04460AA803F073F8074612
:103D900002F034FD2A2200210DF15200FDF7D9FF77
:103DA000002C9CD1089DBDF8242087B1CDF810804F
:103DB000CDF80C80CDF80880CDF80480CDF80080D7
:103DC000C146C246C34643469CE73D463A460E9925
:103DD00000910F9901911099029111990391B4FAF0
:103DE00084F412990A9BDDF82CB0DDF830A0DDF8E0
:103DF00034900491640985E78803002030B51B4B9B
:103E00001B4C1C4983B01022C4E9001304F10800C4
:103E1000194926F00BF9184B10221D46991804F188
:103E2000180026F003F905F12001102204F1280002
:103E300026F0FCF805F13001122204F1380026F0DA
:103E4000F5F811F033FD3422E06400210B48FDF752
:103E500080FF00230222CDE90023094909484FF4DD
:103E6000807211F035FA03B030BD00BF58B00208BF
:103E7000C003002048B002085894002088030020A6
:103E800060B00208D13C000800B583B0019013F087
:103E9000A3FB054901985022FFF78EFB03B05DF8A4
:103EA00004EB13F0B9BB00BFC003002000B583B022
:103EB000019013F091FBDFF830E0DDF804C0BEE8BC
:103EC0000F00ACE80F00BEE80F00ACE80F00BEE842
:103ED0000F00ACE80F00DEF80030CCF8003003B083
:103EE0005DF804EB13F098BB8803002010B504467E
:103EF00013F072FB221E084B18BF012283F82D20FD
:103F000013F08AFB01201CB1BDE8104002F0D2BDC5
:103F1000BDE8104002F0DABD8803002010B5044669
:103F200013F05AFB221E084B18BF012283F82E20E3
:103F300013F072FB1CB1BDE8104003F0F7B8BDE808
:103F4000104003F00FB900BF880300200FB400B584
:103F5000ABB02CABA02153F8042B019302A826F0A0
:103F600039F8011E05DB9F29A8BF9F2102A803F095
:103F7000DFFA2BB05DF804EB04B070470020704707
:103F800003F06CBC844608B5054813460A466146F2
:103F900006F01EF9003818BF0120404208BD00BFDE
:103FA00054040020844608B5054813460A46614675
:103FB00006F0E8F8003818BF0120404208BD00BFF5
:103FC0005404002008B5024806F086FA002008BD17
:103FD0005404002010B58CB00C46302200216846F5
:103FE000FDF7B7FE14B3D4E900316289CDE90012C0
:103FF000E3B1D3E900205989049103AB0390029304
:10400000A2B1D2E900305189079106AA0690059223
:1040100063B1D3E9002059890A9109AB099008934B
:1040200022B16FF00B0420460CB010BD0B48218963
:1040300041600023014643631422C0F808D00848B9
:1040400005F090FE0028064814BF6FF00B04002412
:1040500005F0E0FF20460CB010BD00BF1C0400209E
:104060005404002008B5014604480AF091FF044BAF
:104070001A78012A04BF00221A7008BD84F30208CE
:10408000440600202DE9F043C5B064220021794D9B
:10409000044611A8FDF75DFE774B2B602FAB039311
:1040A0002EAB02932DAB01932CAB00937349744854
:1040B0002BAB2AAA25F03AFF062804AB00F0BC80FF
:1040C000704A04920022ADF814206B604FF4000394
:1040D000AB606D4BEB606D4B2B6166484FF4C0637A
:1040E0006B6105F06DFB6422814600212AA8FDF773
:1040F00030FE2C22002106A8FDF72BFE01262AA95E
:104100004FF480475B488DF8C6604FF400688DF827
:10411000AC608DF80861CDE92F7806F0E7F84FF430
:104120008073ADF83430ADF83C3040F20113ADF897
:10413000243008230E934FF4803308934FF4800308
:1041400006A98DF826608DF81C600C9300264FF4AC
:10415000005348480A930B978DF8366010960696E0
:1041600006F052F9314634224948FDF7F2FD484A3B
:104170004848212342F8043C0AF060FE062384F8F4
:1041800030306B6894F83120197884F82A10597807
:1041900084F82B10997884F82C10D97884F82D1095
:1041A000197984F82E105B7984F82F3042F00A02D6
:1041B00040F2DC533849394884F83120238500F037
:1041C00031FA364800F04CFAB9F1000F2FD13348DC
:1041D00000F07CFA002844DD013802283FD8304B3B
:1041E00053F820602F4B53F82070224811A906F095
:1041F00013F811A91F481796169706F077F81D486F
:1042000005F016FC2A6802F580522046D36923F493
:10421000204323F08003D3610BF018F820460BF005
:1042200053F8214B01221A7045B0BDE8F08300F02D
:10423000D7FB45B0BDE8F083DDE92A01002260F339
:10424000070261F30F222C9961F317422D9961F354
:104250001F621A602E9A1A712F9A5A7135E74646D4
:10426000C3E720460BF064F820460BF011F845B088
:10427000BDE8F083540400200080024068B00208CA
:10428000889400200080E10004050020A40500209F
:104290002004002084F30208C80100201804002034
:1042A00078F302086CF3020814040020704700BF82
:1042B00070B59AB06422002106466846FDF749FDB4
:1042C00003F0CCFA414A1368C31AB3F5FA7F01D25E
:1042D0001AB070BD10603E4800F0F8F93D4B002860
:1042E0001A7839DD012AF3D00138022847D83A4A32
:1042F00052F82040394A694652F82050384805F0B3
:104300008BFF69463648CDE9055405F0EFFF344888
:1043100005F08EFB324B196801F580513046CA69B1
:1043200022F4204222F08002CA610AF08FFF304658
:104330000AF0CAFFB5F5804F264B4FF0010214BFBB
:104340000A216421B4F5006F1A703DD0254A264831
:10435000FFF7FCFD1AB070BD002AB9D0204805F067
:104360008FFC30460AF0E4FF30460AF091FF194B0B
:104370001E4800221A70FFF7E9FD1AB070BD6946A9
:10438000174805F049FF4FF48042694605921448EA
:104390004FF40062069205F0A9FF114805F048FBB2
:1043A0000F4B196801F580513046CA6922F420424A
:1043B00022F08002CA610AF049FF30460AF084FF09
:1043C000044B012264211A70094AC0E7100400203E
:1043D000180400201404002078F302086CF302088B
:1043E0005404002088B0020894B00208B0B002085B
:1043F0007CB0020810B5044668B10B4A0B4B0C4860
:10440000606247F273412046C4E905236186FFF7E5
:1044100039FE002010BD074B0749084840F26112E1
:1044200025F01EFDE9E700BF39D50008D53F00089B
:104430004CB10208C4B0020814B1020824B1020849
:1044400000B50C4B83B01B78002201920BB103B076
:1044500000BD094801A905F007FD01980028F6D024
:10446000064908F015F90028F1D001980BF082F800
:1044700003B000BD4406002054040020F08000205A
:1044800010B5044682B00D480AF01EFD80B100F15F
:1044900020030B4923604FF4C06201610021CDE984
:1044A00000320346412208460AF08EFF02B010BDDA
:1044B000044B206001221A7002B010BD84F3020880
:1044C00065400008440600204FF0000C00B542F89B
:1044D00020CC8E4622F8163CA2F1200122F818CCFE
:1044E00002686AB1DEF800201160CEF800100268A0
:1044F0002AB11189194411811268002AF9D100BD2D
:104500000160F2E708B10BF035B8704700B50168FB
:104510003F4B8FB000229942CDE90822CDE90A2213
:104520000C9201D00FB000BDA3F590430192196B1E
:1045300041F000711963196B01F00071019101994B
:104540000292196B41F080611963196B01F080616F
:10455000029102990392196B41F000611963196B82
:1045600001F00061039103990492196B41F0040179
:104570001963196B01F00401049104990592196BF8
:1045800041F001011963196B01F0010105910599D1
:104590000692196B41F002011963196B01F00201D7
:1045A000069106990792196B41F0400119631B6B44
:1045B000322003F0400302214FF0030CCDE9080143
:1045C000079308A90B231348DDF81CE0CDE90BC3C2
:1045D00003F0ACFC862308A90F48089303F0A6FC5F
:1045E0004FF4006308A90D48089303F09FFC4FF4B3
:1045F000C04308A90A48089303F098FC002205214B
:104600003D2003F055F93D2003F084F90FB000BDC3
:104610000080024000080240000002400004024006
:104620000018024010B5B0B1A9B18B689BB1CB683E
:104630008BB10B687BB100238C4603601C46BCE841
:104640000F00DFF818E0AEE80F00DCF80030CEF81D
:104650000030204610BD4FF0FF34FAE7D080002034
:1046600070B5194C82B0002623680196054698471C
:10467000B0421BDBE36828684FF40042314698479C
:10468000002813DB23699847064608E0019B1B04BA
:1046900010D523699847801BB0F5FA7F0AD2A3682A
:1046A000286801AA002198470028EFDA4FF0FF3070
:1046B00002B070BD4FF49052E36828680192002167
:1046C0009847C01702B070BDD080002070B5144E5E
:1046D00082B00024CDE90044B36805466A4600680C
:1046E00001219847A04215DB009810F004000FD07C
:1046F000B368286801AA1F219847A0420DDB009BE0
:104700009B060AD5019B074A03F00C0352F82300CD
:1047100002B070BD204602B070BD042002B070BD72
:10472000D080002090F3020810B504462046FFF721
:10473000BFFD4FF4FA7011F053F8F7E730B50021E0
:1047400085B0084608F02CF8002585F3118862B67C
:104750001A491B481B4C09F0D1FB1B491B4809F0A7
:10476000CDFB1B491B4809F0C9FB1B491B4A184BD1
:104770000095CDE901212046134A10490AF0CEFCEC
:1047800020460AF05DFD94F831305B07204612D5D3
:104790000AF05CFD12490B480AF0E4FD00240222F5
:1047A000CDE90024074B0F490F484FF4807210F0F9
:1047B0008FFD05B030BD0AF06BFDEBE7EC8000200B
:1047C00058940020F0800020E880002068940020A9
:1047D000E48000207894002091C60008F54300088A
:1047E000AD42000858B102082947000808B5EFF3A8
:1047F00005830BB912F0F0FE002008BDEFF305832E
:104800000BB912F009BF704710B5002204460846E4
:10481000042111F0F3FBB0FA80F35B0920605842E9
:1048200010BD00BF026852B100B583B001901046C0
:1048300012F08CFA019B00221A6003B000BD704791
:1048400000B585B00191EFF3058300684BB91A46B6
:1048500001A911F023FC013818BF4FF0FF3005B05B
:1048600000BD002303AA01A9039311F03DFE012816
:1048700003D04FF0FF3005B000BD039B4BB14FF0AC
:10488000E0234FF08052C3F8042DBFF34F8FBFF3E6
:104890006F8F0020E3E700BF002A08B508BF4FF084
:1048A000FF3209B100230B60006811F04BFF0138A3
:1048B00018BF4FF0FF3008BD08B50022006811F0A6
:1048C00041FF013818BF4FF0FF3008BD38B5032253
:1048D00004460D460120002111F090FB206040B1FC
:1048E0000DB9002038BD00231A46194611F0D6FB39
:1048F000F7E74FF0FF3038BD026852B100B583B022
:104900000190104612F022FA019B00221A6003B0B7
:1049100000BD7047EFF3058300681BB91A461946BE
:1049200011F0BCBB00B583B0002301A9019311F0C5
:104930009DFE019B4BB14FF0E0234FF08052C3F836
:10494000042DBFF34F8FBFF36F8F03B000BD00BFC7
:10495000002908BF4FF0FF3108B5006812F05AF87F
:10496000013818BF4FF0FF3008BD00BF10B5044636
:10497000042011F065FDB0FA80F35B092060584215
:1049800010BD00BF00684FF0FF3112F0C3B900BF87
:10499000006811F08BBD00BF10B584B00446084616
:1049A00011461A46069B00930B46214603AC019420
:1049B0000024039410F08CFC01280CBF03982046BF
:1049C00004B010BD10F06CBF704700BF08B50020E8
:1049D00002F08CF84FF4FA7010F002FFF7E700BF16
:1049E00000B583B072B6084C0025012002F07EF8B5
:1049F0000195019BA342F8D8019B01330193019BD0
:104A0000A342F9D9F1E700BFFEFF010000B597B05E
:104A100002F0FEFE0023CDE90C33CDE90E33CDE9E3
:104A20000533CDE90733494903930993086C484A94
:104A300040F080500864096C01F0805103910399A3
:104A40000493136843F440431360136801204FF448
:104A5000803103F44043CDE90A0104934FF480010F
:104A60000224CDE91041049808210220CDE9140167
:104A700019224FF4B4730AA81292139302F058FF4C
:104A8000002859D105F066FD0346002854D10F22B5
:104A9000CDE905244FF4A05C4FF4805205A8052110
:104AA000CDE9073C099203F061F9002844D102F0F6
:104AB00075FB002840D102F0C9FC2648FFF746FAF2
:104AC00000F0CEFB01F0C8FF012001F0FFFF01F074
:104AD00077FF02F0CBFA2048FFF738FA01F09AFE90
:104AE00001F0C4FE50B31D48FFF730FA02F00CF895
:104AF00040BB1B48FFF72AFAFFF720FE002484F38F
:104B0000118862B600F0F4FD84F3118862B600F0FB
:104B1000B1FF84F3118862B6FFF770F91148FFF70F
:104B200015FA0123CDE900340F49104823468022AD
:104B300010F0CEFB10F0E8FCFFF752FF0C48FFF737
:104B400005FAD3E70B48FFF701FAD5E70038024032
:104B50000070004060B1020898B10208D8B10208A4
:104B6000F0B102081CB2020814C10208CD490008C5
:104B7000C4B1020804B2020801207047F0B50378FE
:104B8000C9B00146002B40F0B1803F2214A825F0A7
:104B90004DFA00238DF88F3014AA1178202914467D
:104BA00002F10102F9D00929F7D0002936D02546B3
:104BB00001E0092B04D015F8013F63B1202BF8D197
:104BC0002B46002203F8012B1D4613F8012B202A47
:104BD000FAD0092AF8D02378682B21D0A0492046A2
:104BE000FBF73EFB002800F09F809E492046FBF724
:104BF00037FB002849D09C492046FBF731FB0028B1
:104C000040F06681994802F0FBFC994802F0F8FCFC
:104C1000984802F0F5FC964802F0F2FC49B0F0BD6D
:104C20006378772BDAD1A378002BD7D124A8FFF7AC
:104C30002BF9914802F0E4FC8D4802F0E1FC8F4A28
:104C4000249B302108A825F01DF908A802F0D8FC03
:104C5000874802F0D5FC8A4A259B302108A825F018
:104C600011F908A802F0CCFC814802F0C9FC854A81
:104C7000379B302108A825F005F908A802F0C0FCF0
:104C80007B4802F0BDFC49B0F0BD24A8FFF7FCF85A
:104C90007D4802F0B5FC764802F0B2FC7B4A302138
:104CA00026AB08A825F0EEF808A802F0A9FC704889
:104CB00002F0A6FC764A30212AAB08A825F0E2F8DB
:104CC00008A802F09DFC6A4802F09AFC714A302163
:104CD0002EAB08A825F0D6F808A802F091FC64488D
:104CE00002F08EFC6C4A302132ABC3E76B4D6C4B4B
:104CF0002C7807903F2203EB841025F097F9694B3D
:104D000007990022013480F83F20A3FB042303F419
:104D1000FF7202EB5303644AE41A13782C70022BDF
:104D20009CBF0133137030E724A8FFF7BFF85F483A
:104D300002F066FC4E4802F063FC5D4A9DF8BC3010
:104D4000302108A825F09EF808A802F059FC484830
:104D500002F056FCBDF89400BDF89230554A30215F
:104D6000CDE90030BDF8903008A825F08BF808A8F0
:104D700002F046FC3E4802F043FC2898FBF7DEFBBD
:104D800002460B462798CDE90423FBF7D7FB0B46D9
:104D900002462698CDE90223FBF7D0FB464ACDE92F
:104DA0000001302108A825F06DF808A802F028FCC1
:104DB0002F4802F025FC2B98FBF7C0FB02460B4660
:104DC0002A98CDE90423FBF7B9FB0B460246299844
:104DD000CDE90223FBF7B2FB384ACDE900013021CF
:104DE00008A825F04FF808A802F00AFC204802F0B5
:104DF00007FC2E98FBF7A2FB02460B462D98CDE947
:104E00000423FBF79BFB0B4602462C98CDE90223BB
:104E1000FBF794FB2A4ACDE90001302108A825F0D0
:104E200031F808A802F0ECFB114802F0E9FB9DF80C
:104E3000BD30002B7BD0234B234A302108A825F01E
:104E400021F808A802F0DCFB094802F0D9FB9DF824
:104E5000BE30002B69D01B4B1C4A30210AE700BF33
:104E6000A0B202087CB30208DCB40208C0B3020896
:104E7000D8BA0208E4B3020858B2020868B20208BD
:104E800078B2020888B2020880B3020890B3020820
:104E90009CB30208A8B30208B4B30208288100201A
:104EA0002C810020ABAAAAAA29810020A4B2020862
:104EB000B4B20208C8B20208ECB2020814B3020885
:104EC0003CB3020850B2020864B3020870B302088F
:104ED00074492046FBF7C4F900285BD0724920468C
:104EE000FBF7BEF9064620B370492046FBF7B8F938
:104EF000002800F092806E492046FBF7B1F90028A7
:104F000040F0C2802B786F2B7BD16B786E2B78D1E1
:104F1000AB78002B75D10120FEF7E8FF654802F061
:104F20006FFB654802F06CFB78E6644B94E7634BDB
:104F300082E76348634D02F063FB5F4802F060FB69
:104F40002B78002B00F08780022B88BF5E4B5F4FD1
:104F500088BF1E7800245E4B3219A3FB023121F07A
:104F6000010303EB5103D21A9021013407EB8212A3
:104F700023460DEB01000092564A24F083FF24A83B
:104F800002F03EFB4C4802F03BFB2A78E3B29A4227
:104F9000E1D843E6504802F033FB474802F030FBCB
:104FA0004E4802F02DFB444802F02AFB4C4802F028
:104FB00027FB414802F024FB4A4802F021FB3E480F
:104FC00002F01EFB484802F01BFB3B4802F018FBB6
:104FD000464802F015FB384802F012FB444802F044
:104FE0000FFB354802F00CFB424802F009FB324847
:104FF00002F006FB404802F003FB2F4802F000FBE2
:105000000CE63E492846FBF72BF958B33C4802F022
:10501000F7FA294802F0F4FA00E62B786F2B0ED14C
:105020006B786E2B0BD1AB784BB90120FEF776FF76
:10503000344802F0E5FA204802F0E2FAEEE52F49A2
:105040002846FBF70DF9B0B12F4802F0D9FA1A48FB
:1050500002F0D6FAE2E52D4802F0D2FA164802F044
:10506000CFFADBE5FEF742FF294802F0C9FA124801
:1050700002F0C6FAD2E5FEF751FF264802F0C0FA68
:105080000D4802F0BDFAC9E59021234A23460DEBF5
:10509000010024F0F7FE24A802F0B2FA064802F05C
:1050A000AFFABBE584B502088CB50208BCB50208AE
:1050B00014C10208F0B50208D8BA020854B20208B6
:1050C00094B5020829810020288100202C8100202D
:1050D000ABAAAAAAB0B5020804B4020810B4020828
:1050E00048B4020884B40208C0B40208E4B4020858
:1050F00010B5020844B502086CB50208CCB5020828
:1051000010B60208C4B50208DCB50208A4B502084E
:1051100000B60208D0B5020824B6020830B54C48E3
:1051200093B002F06DFA4B4802F06AFA002425466B
:105130000DF1070002F0CEFA90B3012C0DD19DF8CD
:105140000740A4F15B04B4FA84F464090DF107008C
:10515000640002F0BFFA00286CD0022C19D09DF830
:1051600007301B2B11D8072B11D9A3F10802132AE2
:105170000DD8DFE802F0410C190C0C190C0C0C0CCA
:105180000C0C0C0C0C0C0C0C0C4E7F2B34D03E2D4C
:1051900028DD0DF1070002F09DFA0028DFD104465A
:1051A000052010F01DFBC3E72B48002402F028FA6D
:1051B00005F14803A5426B4402A804DD03F8404C06
:1051C000FFF7DCFC2546234802F01AFA0DF1070030
:1051D00002F080FA0028E2D09DF807301B2B33D86C
:1051E000072BC2D80DEB050201210DF107000D447C
:1051F000137202F09DF9CCE7002DCADD174802F0CA
:10520000FFF90DF10700013D02F064FA0028A6D174
:10521000C5E70DF1070002F05DFA00288FD10520E7
:1052200010F0DEFA0DF1070002F054FA002886D1E2
:105230000124B5E7052010F0D3FA0DF1070002F0C4
:1052400049FA002889D1ABE77F2BA2D0CAE700BF7B
:1052500038B6020870B60208D8BA02087CB602084E
:1052600000B5002383B00222CDE90023034904489E
:105270004FF4806210F02CF803B000BD80B6020835
:105280001D51000810B58AB0264B002204921A6CFA
:1052900042F020021A641B6C03F0200304930446BE
:1052A00003A905A8049B02F021FE089BE3B902F0C4
:1052B000FDFD03461C4A1D481D49A2FB03239B0C10
:1052C000013B0022C0E9001340F2E7330261826033
:1052D0008261C36005F07CF950B1372002F01AFBFF
:1052E000012210460AB010BD02F0E0FD4300E1E7E4
:1052F0000E4805F03FFA0D4805F002FA01903720FC
:1053000002F008FB019A002AEAD10F2CE8D82146C6
:105310003720019202F0CCFA019A064B10461C602D
:105320000AB010BD0038024083DE1B43EC81002030
:1053300000140040F4010020034B02689A4200D0A0
:10534000704702F07FBA00BF00140040FEE700BFC4
:10535000FEE700BFFEE700BFFEE700BFFEE700BFBD
:10536000704700BF014805F025BA00BFEC8100205E
:10537000014804F083BE00BF54040020044A0549DC
:105380001368002B08BF0B4618441060184670477E
:10539000348200203815012000B5431E012B83B054
:1053A00007D808461146019202F0C2F8019803B0EE
:1053B00000BD24F085FE092303604FF0FF30F6E7BF
:1053C0004FF0FF30704700BF00207047002070474B
:1053D0004FF400534B600020704700BF012070471E
:1053E000FEE700BF4FF0FF30704700BF012070475D
:1053F0002DE9F041151E82B01EDD0E4607464FF026
:105400000008B5F5806F2C46A8BF4FF480640123D7
:10541000CDF8008022463146384605F0FFFD0346B0
:10542000022023B92D1B9D4206DD2644E9E7013306
:1054300006D110F0D5F9E4E7002002B0BDE8F08114
:105440004FF0FF3002B0BDE8F08100BF2DE9F04F12
:10545000ADF62C0D0024224621461020079405F0BD
:10546000F5FB07AF0490002800F02A8199495022EB
:1054700005F06AFC0546002840F01481049C0521D3
:10548000204605F08FFC059068B101469248FEF772
:105490005DFD204605F036FC28460FF0AFFF0DF607
:1054A0002C0DBDE8F08F8D485021FEF74FFD08AC64
:1054B00009AD0DF128080498394605F097FC00283D
:1054C000F9D183462060039040F2FE7A029038685A
:1054D000214605F0F5FCA0B9206890B10DF11A0243
:1054E000294607F037F818B9BDF81A30002B33D128
:1054F000206807F017F83868214605F0E1FC00281D
:10550000EAD0029E059B08F80630002E59DC386868
:1055100005F0FEFD059B2B6010F0C2F906463868C9
:10552000294605F0CDFC48B9286858B106F0FAFFC5
:1055300010F0B6F9801BB0F5FA6FF0D9386805F0B5
:10554000E1FBB8E710F0ACF9801BB0F5FA6FE6D9D3
:10555000386805F0D7FBAEE7029E2968C6F5FF6202
:1055600007329A42A8BF1A4608EB06000292FEF7DD
:1055700023F8029A98F80010B3180293039B002BAB
:1055800033D051B343460D29587803F1010220D19D
:105590000A281ED151780D297ED192780A2A7BD112
:1055A000029AA3EB08030433D31A5B4518DA206888
:1055B00006F0B8FF029B534589DD1E46059B08F89F
:1055C000063000963A6846494346104600F038FBDC
:1055D0009DE7014613460029D5D1029B5B45E6DBDA
:1055E0002068029E06F09EFF8CE70029DFD042462D
:1055F0000D29507802F1010344D10A2842D159788B
:105600000D2944D19B780A2B41D1A2EB0802161D2B
:105610000396C34633480BF1FF3E4FF0000C632264
:105620001EF8013FA2F1410602F12001F6B2C9B213
:10563000192E98BF0A46A3F1410603F12001F6B2E4
:10564000C9B20CF1010CB3B1192E98BF0B469342AD
:1056500011D1BCF10F0F10F8012FE1D10BF10F00A8
:10566000039E24F0D3FA8346029B9B1B9B45B7DD28
:10567000012303939BE71BF8012F002ACAD1039E45
:105680009346F1E701461A460029B1D18FE712F897
:10569000021F0029ACD18AE713F8021F00297FF40A
:1056A00072AF9AE729461048FEF750FC049805F0BF
:1056B00029FB20460FF0A2FE0DF62C0DBDE8F08F61
:1056C0000A48FEF743FC04980FF098FE0DF62C0DE7
:1056D000BDE8F08FE0590408CCB60208F0B6020825
:1056E000F153000824B70208ACB6020888B60208D5
:1056F00000B5002383B00322CDE900230749084801
:105700004FF400620FF0E4FD012801D103B000BDA9
:10571000044803B05DF804EBFEF718BC34B7020888
:105720004D5400083CB7020810B5134CD4E90030C2
:10573000F2B10A44013A01394FEA403C4CEAD34CF9
:1057400083EA433E8CEA00004FEADE1380EAD01C75
:1057500043EA406383EA0E034FEA4C4040EAD33009
:1057600080EA0C0001F8010F8A4283EA4343E3D147
:10577000C4E90030002010BD40920020F0B5ADF625
:10578000141D074606A81FF0D1FF374906A81FF0D1
:10579000D1FF00283FD1354B354A0090394606A845
:1057A00020F02CF806A820F079F80446002851D102
:1057B00040F2FF7544AE2A46311906A81FF05CFA84
:1057C000002806DD0444032C2FDCC4F5FF650735F3
:1057D000F1E710F5D24FEED000239C42335531DC77
:1057E00006A81FF0A9FB06A820F00EF9002303A9C4
:1057F00002A8CDE90233CDE904331BF0A7FE05A9C9
:1058000004A81BF09BFE1B48049A0299FEF79EFB1E
:105810000DF6141DF0BD41421748FEF797FB06A890
:1058200020F0F2F80DF6141DF0BD0423134A2146B2
:10583000304624F024FC40F2FE7308B99C42C4DDDB
:10584000002333550E490094334606AA384600F02B
:10585000F7F9C5E761420B48FEF778FB06A820F090
:10586000D3F80DF6141DF0BDE4930020D1590008C3
:105870007559000898B7020860B70208B8BB02085B
:10588000355900087CB7020830B5002585B02A4696
:1058900029461020039505F0D9F90446002835D093
:1058A0001E4940F2BB1205F04FFA20BB01900521C2
:1058B000204605F077FA50B11948FEF747FB20461D
:1058C00005F020FA01980FF099FD05B030BD15499B
:1058D0001548FEF73BFB03A9204605F087FA002890
:1058E000F9D10398FFF74AFF039805F011FC0398DC
:1058F00005F008FAEFE70D48FEF728FB204605F013
:1059000001FA28460FF07AFD05B030BD0848FEF7D1
:105910001DFB20460FF072FD05B030BDE0590408B4
:10592000FCB7020814B802081CB80208E0B7020865
:10593000C4B7020870B5141E06460D4617DD224690
:10594000294630461FF09EFA002820F0800304DD2F
:10595000241A002C0BDD0544F1E713F5D24F02D0D9
:105960004FF0FF3070BD02200FF03AFFE7E7002054
:1059700070BD00BF2DE9F043914683B0F2B10746F8
:105980000E4615464FF00008B5F5806F2C4628BF2F
:105990004FF480640123CDF800802246314638461A
:1059A00005F03CFB034602201BB92D1B06D0264404
:1059B000EAE7013306D10FF013FFE5E7484603B0ED
:1059C000BDE8F083014803B0BDE8F0830094FFFF19
:1059D000F0B5234C234D238817462A88934285B07F
:1059E0000E4626D3002303A92B802380039305F0C2
:1059F00067FA034600282FD1039A002A2ED01A49AD
:105A000010684FF480520AF051F80190039806F0A4
:105A100089FD019B14492B809F423A46304628BF9E
:105A20001A460192FDF7C8FD019A2280104605B082
:105A3000F0BDD21A92B297420B4901933D4628BF5E
:105A40001546194430462A46FDF7B6FD019B284607
:105A50002B44238005B0F0BD0448E8E70448E6E79E
:105A6000388200203A8200203C820020808DFFFF97
:105A70000097FFFF10B5424886B04FF400411BF07D
:105A80006DFD4049404BD1F8FC20002042F080726F
:105A9000C1F8FC2058601A6842F001021A605C6884
:105AA00001F0DCFE394A3A493A4BDFF8ECC0A0FB82
:105AB00002024B406040624508BF984207BF374B27
:105AC000374A434082EA0C023648C1E9003223F0EB
:105AD00063F935481BF09AFE344820F019F8344930
