:020000040800F2
:1000000000000320813D0008D11C0008D51C000819
:10001000D91C0008DD1C0008E11C000800000000DD
:10002000000000000000000000000000713A01081C
:10003000E51C000800000000C13A0108053C010869
:10004000D13D0008D13D0008D13D0008D13D000858
:10005000D13D0008D13D0008D13D0008D13D000848
:10006000D13D0008D13D0008D13D0008D13D000838
:10007000D13D0008D13D0008D13D0008D13D000828
:10008000D13D0008D13D0008D13D0008D13D000818
:10009000D13D0008D13D0008D13D0008D13D000808
:1000A000D13D0008D13D0008D13D0008D13D0008F8
:1000B000D13D0008D13D0008D13D0008D13D0008E8
:1000C000D13D0008D13D0008D13D0008D13D0008D8
:1000D000D13D0008D13D0008D13D0008D13D0008C8
:1000E000D13D0008D13D0008D13D0008D13D0008B8
:1000F000D13D0008D13D0008D13D0008D13D0008A8
:10010000D13D0008D13D0008D13D0008D13D000897
:10011000D13D0008D13D0008D13D0008E91C000890
:10012000D13D0008D13D0008D13D0008D13D000877
:10013000D13D0008F51C0008D13D0008D13D000864
:10014000D13D0008D13D0008D13D0008D13D000857
:10015000D13D0008D13D0008D13D0008D13D000847
:10016000D13D0008D13D0008D13D0008D13D000837
:10017000D13D0008D13D0008D13D0008D13D000827
:10018000D13D0008D13D0008D13D0008D13D000817
:10019000D13D0008D13D0008D13D0008D13D000807
:0C01A000D13D0008D13D0008D13D000811
:1001B00080F0004002E000BF81F0004142001FBF1C
:1001C0005FEA410392EA030F7FEA226C7FEA236C25
:1001D0006AD04FEA1262D2EB1363C1BFD21841401A
:1001E00048404140B8BF5B42192B88BF704710F0B0
:1001F000004F40F4000020F07F4018BF404211F053
:10020000004F41F4000121F07F4118BF494292EABA
:10021000030F3FD0A2F1010241FA03FC10EB0C00E6
:10022000C3F1200301FA03F100F0004302D5494273
:1002300060EB4000B0F5000F13D3B0F1807F06D320
:1002400040084FEA310102F10102FE2A51D2B1F118
:10025000004F40EBC25008BF20F0010040EA03000D
:100260007047490040EB0000013A28BFB0F5000F8D
:10027000EDD2B0FA80FCACF1080CB2EB0C0200FA43
:100280000CF0AABF00EBC25052421843BCBFD04092
:100290001843704792F0000F81F4000106BF80F40C
:1002A00000000132013BB5E74FEA41037FEA226CCF
:1002B00018BF7FEA236C21D092EA030F04D092F09A
:1002C000000F08BF0846704790EA010F1CBF0020CE
:1002D000704712F07F4F04D1400028BF40F000402B
:1002E000704712F100723CBF00F50000704700F04B
:1002F000004343F0FE4040F4000070477FEA226272
:1003000016BF08467FEA23630146420206BF5FEA42
:10031000412390EA010F40F4800070474FF0000342
:1003200004E000BF10F0004348BF40425FEA000C09
:1003300008BF704743F0964301464FF000001CE0B1
:1003400050EA010208BF70474FF000030AE000BF07
:1003500050EA010208BF704711F0004302D5404245
:1003600061EB41015FEA010C02BF844601460020B7
:1003700043F0B64308BFA3F18053A3F50003BCFAD2
:100380008CF2083AA3EBC25310DB01FA02FC63447F
:1003900000FA02FCC2F12002BCF1004F20FA02F286
:1003A00043EB020008BF20F00100704702F1200279
:1003B00001FA02FCC2F1200250EA4C0021FA02F2DA
:1003C00043EB020008BF20EADC7070474FF0FF0CDF
:1003D0001CEAD0521EBF1CEAD15392EA0C0F93EADA
:1003E0000C0F6FD01A4480EA010C400218BF5FEA7C
:1003F00041211ED04FF0006343EA501043EA5111EF
:10040000A0FB01310CF00040B1F5000F3EBF4900E8
:1004100041EAD3715B0040EA010062F17F02FD2AEC
:100420001DD8B3F1004F40EBC25008BF20F00100CF
:10043000704790F0000F0CF0004C08BF49024CEAE6
:10044000502040EA51207F3AC2BFD2F1FF0340EA78
:10045000C250704740F400004FF00003013A5DDCE9
:1004600012F1190FDCBF00F000407047C2F100022A
:10047000410021FA02F1C2F1200200FA02FC5FEA17
:10048000310040F1000053EA4C0308BF20EADC7061
:10049000704792F0000F00F0004C02BF400010F4D3
:1004A000000F013AF9D040EA0C0093F0000F01F080
:1004B000004C02BF490011F4000F013BF9D041EAA2
:1004C0000C018FE70CEAD15392EA0C0F18BF93EAA4
:1004D0000C0F0AD030F0004C18BF31F0004CD8D1CE
:1004E00080EA010000F00040704790F0000F17BF55
:1004F00090F0004F084691F0000F91F0004F14D09B
:1005000092EA0C0F01D142020FD193EA0C0F03D1F2
:100510004B0218BF084608D180EA010000F00040F5
:1005200040F0FE4040F40000704740F0FE4040F4D0
:10053000400070474FF0FF0C1CEAD0521EBF1CEA6F
:10054000D15392EA0C0F93EA0C0F69D0A2EB03028D
:1005500080EA010C49024FEA402037D04FF0805327
:1005600043EA111143EA10130CF000408B4238BFEC
:100570005B0042F17D024FF4000C8B4224BF5B1AFA
:1005800040EA0C00B3EB510F24BFA3EB510340EA48
:100590005C00B3EB910F24BFA3EB910340EA9C00F6
:1005A000B3EBD10F24BFA3EBD10340EADC001B0166
:1005B00018BF5FEA1C1CE0D1FD2A3FF650AF8B420A
:1005C00040EBC25008BF20F0010070470CF0004C17
:1005D0004CEA50207F32C2BFD2F1FF0340EAC25042
:1005E000704740F400004FF00003013A37E792F003
:1005F000000F00F0004C02BF400010F4000F013A61
:10060000F9D040EA0C0093F0000F01F0004C02BF5B
:10061000490011F4000F013BF9D041EA0C0195E7C4
:100620000CEAD15392EA0C0F08D142027FF47DAF5D
:1006300093EA0C0F7FF470AF084676E793EA0C0F4D
:1006400004D14B023FF44CAF08466EE730F0004C4B
:1006500018BF31F0004CCAD130F000427FF45CAFDB
:1006600031F000437FF43CAF5FE700BF4FF0FF3C49
:1006700006E000BF4FF0010C02E000BF4FF0010C9C
:100680004DF804CD4FEA40024FEA41037FEA226C65
:1006900018BF7FEA236C11D001B052EA530C18BF87
:1006A00090EA010F58BFB2EB030088BFC81738BFEC
:1006B0006FEAE17018BF40F0010070477FEA226CDA
:1006C00002D15FEA402C05D17FEA236CE4D15FEAD6
:1006D000412CE1D05DF8040B704700BF844608460A
:1006E0006146FFE70FB5FFF7C9FF002848BF10F1CB
:1006F000000F0FBD4DF808EDFFF7F4FF0CBF012010
:1007000000205DF808FB00BF4DF808EDFFF7EAFF99
:1007100034BF012000205DF808FB00BF4DF808ED54
:10072000FFF7E0FF94BF012000205DF808FB00BF49
:100730004DF808EDFFF7D2FF94BF012000205DF8CF
:1007400008FB00BF4DF808EDFFF7C8FF34BF0120DC
:1007500000205DF808FB00BF4FEA4002B2F1FE4FF7
:100760000FD34FF09E03B3EB12620DD94FEA002373
:1007700043F0004310F0004F23FA02F018BF40424C
:1007800070474FF00000704712F1610F01D1420233
:1007900005D110F0004008BF6FF0004070474FF0E7
:1007A0000000704753B94AB9002908BF00281CBF90
:1007B0004FF0FF314FF0FF3000F00CB8ADF1080CF6
:1007C0006DE904CE25F07AFBDDF804E0DDE90223D3
:1007D00004B07047704700BF10F8012B11F8013BBF
:1007E000012A28BF9A42F7D0D01A704700000000B3
:1007F00001F0FF01102A2BDB10F0070F08D010F8D2
:10080000013B013A8B422DD010F0070F42B3F6D1D5
:10081000F0B441EA012141EA014122F007047FF0EE
:1008200000070023F0E80256083C85EA010586EA45
:10083000010685FA47F5A3FA87F586FA47F6A5FA81
:1008400087F68EB9EED1F0BC01F0FF0102F007028D
:1008500032B110F8013B013A83EA010313B1F8D138
:100860000020704701387047002D06BF3546033819
:10087000073815F0010F07D1013015F4807F02BF52
:10088000013015F4C03F0130F0BC0138704700BFA3
:10089000034613F8012B002AFBD1181A01387047C0
:1008A0000348044B834202D0034B03B118477047FF
:1008B000B0000020B0000020000000000548064BFA
:1008C0001B1AD90F01EBA301491002D0034B03B14E
:1008D00018477047B0000020B00000200000000062
:1008E00010B5064C237843B9FFF7DAFF044B13B178
:1008F0000448AFF300800123237010BDB000002036
:1009000000000000507B020808B5054B1BB10549EB
:100910000548AFF30080BDE80840FFF7CFBF00BF38
:1009200000000000B4000020507B020808B5064B10
:10093000044613B10021AFF30080044B1B6803B1E0
:100940009847204601F0FAF9000000000402002058
:10095000002310B50446C0E90033C0E904338360C6
:1009600081814366C2818361194608225C3000F0B0
:10097000F8F80D4B63620D4BA3620D4BE3620D4B18
:1009800023630D4B24629C4206D003F1680294421B
:1009900002D0D0339C4205D104F15800BDE810408C
:1009A00000F052B910BD00BFD70A0008FD0A0008C8
:1009B000350B00085B0B0008CC000020024A0349FD
:1009C000034800F06BB800BF00000020350F00089E
:1009D0001000002041680C4B994210B5044601D02C
:1009E00000F0A8FAA168094B994202D0204600F015
:1009F000A1FAE168064B994204D02046BDE81040B8
:100A000000F098BA10BD00BFCC00002034010020D7
:100A10009C01002010B50A4B0A4A1A600A480022BD
:100A20000421FFF795FF094801220921FFF790FFF4
:100A3000BDE81040064802221221FFF789BF00BF1F
:100A400004020020BD090008CC0000203401002071
:100A50009C010020014800F0F8B800BF0D02002002
:100A6000014800F0F3B800BF0D02002010B50446A5
:100A7000FFF7F0FF236A1BB1BDE81040FFF7F0BF9E
:100A8000044B2362044B1B68002BF5D1FFF7C2FF18
:100A9000F2E700BFD5090008040200202DE9F84361
:100AA0008046894614460026D4E90175013F05D5E4
:100AB0002468002CF8D13046BDE8F883AB89012BBF
:100AC00007D9B5F90E30013303D029464046C8474F
:100AD00006436835EAE710B50C46B1F90E1000F090
:100AE0006BF80028ABBF636DA3891B1823F48053F8
:100AF000ACBF6365A38110BD002070472DE9F041B4
:100B00001F468B89DB0505460C46164605D5B1F90F
:100B10000E100223002200F03DF8A389B4F90E1054
:100B200023F48053A38132463B462846BDE8F0417A
:100B300000F054B810B50C46B1F90E1000F02AF8C8
:100B4000B4F90C30421C0BBF23F4805343F48053A0
:100B5000A381A38118BF606510BDB1F90E1000F02C
:100B600009B802440346934200D1704703F8011BC1
:100B7000F9E7000038B5064C002305460846236017
:100B800001F0CCF8431C02D1236803B12B6038BDBF
:100B90000802002038B5074C0546084611460022D9
:100BA00022601A4601F0C0F8431C02D1236803B149
:100BB0002B6038BD0802002038B5074C05460846B2
:100BC0001146002222601A4601F0ACF8431C02D103
:100BD000236803B12B6038BD0802002038B5074CEC
:100BE000054608461146002222601A4603F0B0F876
:100BF000431C02D1236803B12B6038BD08020020DA
:100C000070B50D4B0D4C00261D1BB6EBA50F09D181
:100C100026F09EFF0A4C0B4B00261D1BB6EBA50FC2
:100C200005D170BD54F8043B98470136EDE754F800
:100C3000043B98470136F1E7D4290408D429040875
:100C4000D4290408D8290408704770477047000069
:100C500037B5002944D051F8043C0190002BA1F194
:100C60000404B8BFE41800F0DDF81E4A01981368C8
:100C700033B96360146003B0BDE8304000F0D8B809
:100C8000A34208D9256861198B4201BF19685B68C6
:100C900049192160EDE71A465B680BB1A342FAD906
:100CA00011685518A5420BD1246821445418A34259
:100CB0001160E0D11C685B6853600C441460DAE793
:100CC00002D90C230360D6E7256861198B4204BF63
:100CD00019685B68636004BF491921605460CAE702
:100CE00003B030BD1402002070B50F4C0E462168D1
:100CF000054611B900F046F920603146284600F05B
:100D000041F9431C03D14FF0FF34204670BDC41C91
:100D100024F00304A042F8D0211A284600F032F94A
:100D20000130F2D1EFE700BF100200202DE9F843B7
:100D3000CD1C25F0030508350C2D38BF0C25002DE2
:100D4000064601DBA94204D90C2333600020BDE82C
:100D5000F883334F00F066F83B681C463CBB2946DD
:100D60003046FFF7C1FF431C044656D13C68A046FD
:100D7000B8F1000F40D1002C49D0236841463046DD
:100D800004EB030900F0FEF8814540D121686D1A9B
:100D900029463046FFF7A8FF013038D023682B449E
:100DA00023603B685A685ABBC7F800800EE022688F
:100DB000521B1ED40B2A16D96119A342256018BFF5
:100DC0005960636808BF396062514B60304600F07B
:100DD0002FF804F10B00231D20F00700C21A1CBFDE
:100DE0001B1AA350B3E76268A3420CBF3A605A6073
:100DF000ECE723466468B1E74446D8F80480B7E7D7
:100E00001A465B68A342FBD100235360DEE70C2344
:100E10003360304600F00CF898E70560D6E700BF75
:100E2000140200200148FFF710BF00BF0C02002091
:100E30000148FFF70BBF00BF0C020020B1F90C20E6
:100E4000F8B5160705460C4651D44B68002B02DC5A
:100E50000B6C002B49DDE66A002E46D0002312F40D
:100E600080522F682B6031D0626DA389590705D558
:100E70006368D21A636B0BB1236CD21A0023E66A43
:100E8000216A2846B047421CB4F90C3006D12968C3
:100E90001D2944D8264ACA40D60740D500226260A0
:100EA000D9042269226004D5421C01D12B6803B900
:100EB0006065616B2F60C1B104F14403994202D0B7
:100EC0002846FFF7C5FE002363630EE0216A012375
:100ED0002846B0470246501CC7D12B68002BC4D00F
:100EE0001D2B01D0162B19D12F6000201CE00F699B
:100EF000002FFAD093070E6808BF4B690F6018BF28
:100F00000023F61B8B60002EEFDD216AD4F828C089
:100F100033463A462846E047002806DCA38943F0DA
:100F20004003A3814FF0FF30F8BD0744361AEAE7CB
:100F30000100402038B50B6905460C4613B91D4623
:100F4000284638BD18B1036A0BB9FFF78FFDB4F915
:100F50000C30002BF3D0626ED00704D4990502D474
:100F6000A06DFFF772FE28462146FFF767FF636E0C
:100F7000DA070546E4D4A3899B05E1D4A06DFFF709
:100F800065FEDDE738B5064C0023054608462360BC
:100F900000F0B6FE431C02D1236803B12B6038BDBC
:100FA0000802002008B5064825F0D8FA4FF0500393
:100FB00083F31188BFF36F8FBFF34F8FFEE700BF3E
:100FC000947B020808B5064825F060FA4FF05003FC
:100FD00083F31188BFF36F8FBFF34F8FFEE700BF1E
:100FE000C47B02080A4608B50146064825F04EFAB9
:100FF0004FF0500383F31188BFF36F8FBFF34F8F10
:10100000FEE700BFEC7B02080020704702F00ABF39
:10101000844608B5054813460A46614605F0BCFB00
:10102000003818BF0120404208BD00BF5C0200200C
:10103000844608B5054813460A46614605F086FB16
:10104000003818BF0120404208BD00BF5C020020EC
:1010500008B5024805F024FD002008BD5C02002010
:1010600010B58CB00C46302200216846FFF779FDA0
:1010700014B3D4E900316289CDE90012E3B1D3E9B8
:1010800000205989049103AB03900293A2B1D2E9E5
:1010900000305189079106AA0690059263B1D3E901
:1010A000002059890A9109AB0990089322B16FF089
:1010B0000B0420460CB010BD0B4821894160002371
:1010C000014643631422C0F808D0084805F02EF901
:1010D0000028064814BF6FF00B04002405F07EFAC8
:1010E00020460CB010BD00BF240200205C0200208E
:1010F00008B5014604480AF02FFA044B1A78012A71
:1011000004BF00221A7008BD88BB02084C040020EE
:101110002DE9F043C5B064220021794D044611A8A1
:10112000FFF71FFD774B2B602FAB03932EAB029382
:101130002DAB01932CAB0093734974482BAB2AAAB7
:1011400025F068FA062804AB00F0BC80704A0492CF
:101150000022ADF814206B604FF40003AB606D4BC0
:10116000EB606D4B2B6166484FF4C0636B6104F01C
:101170000BFE6422814600212AA8FFF7F2FC2C22F4
:10118000002106A8FFF7EDFC01262AA94FF48047AD
:101190005B488DF8C6604FF400688DF8AC608DF840
:1011A0000861CDE92F7805F085FB4FF48073ADF829
:1011B0003430ADF83C3040F20113ADF82430082350
:1011C0000E934FF4803308934FF4800306A98DF8F3
:1011D00026608DF81C600C9300264FF4005348489D
:1011E0000A930B978DF836601096069605F0F0FB83
:1011F000314634224948FFF7B4FC484A4848212385
:1012000042F8043C0AF0FEF8062384F830306B689C
:1012100094F83120197884F82A10597884F82B1022
:10122000997884F82C10D97884F82D10197984F8DD
:101230002E105B7984F82F3042F00A0240F2DC5322
:101240003849394884F83120238500F031FA36488E
:1012500000F04CFAB9F1000F2FD1334800F07CFABE
:10126000002844DD013802283FD8304B53F8206075
:101270002F4B53F82070224811A905F0B1FA11A99B
:101280001F481796169705F015FB1D4804F0B4FE8D
:101290002A6802F580522046D36923F4204323F0C4
:1012A0008003D3610AF0B6FA20460AF0F1FA214B26
:1012B00001221A7045B0BDE8F08300F0D7FB45B0BD
:1012C000BDE8F083DDE92A01002260F3070261F343
:1012D0000F222C9961F317422D9961F31F621A6056
:1012E0002E9A1A712F9A5A7135E74646C3E720465F
:1012F0000AF002FB20460AF0AFFA45B0BDE8F083E1
:101300005C020020008002400C7C0208C891002092
:101310000080E1000C030020AC0300202802002024
:1013200088BB02085C000020200200207CBB020871
:1013300070BB02081C020020704700BF70B59AB055
:101340006422002106466846FFF70BFC02F06AFDA6
:10135000414A1368C31AB3F5FA7F01D21AB070BDBF
:1013600010603E4800F0F8F93D4B00281A7839DD4E
:10137000012AF3D00138022847D83A4A52F82040CF
:10138000394A694652F82050384805F029FA69462A
:101390003648CDE9055405F08DFA344804F02CFEAA
:1013A000324B196801F580513046CA6922F4204257
:1013B00022F08002CA610AF02DFA30460AF068FA7B
:1013C000B5F5804F264B4FF0010214BF0A2164216E
:1013D000B4F5006F1A703DD0254A264825F056F81E
:1013E0001AB070BD002AB9D0204804F02DFF304655
:1013F0000AF082FA30460AF02FFA194B1E480022F2
:101400001A7025F0ABF81AB070BD6946174805F0A0
:10141000E7F94FF480426946059214484FF40062A0
:10142000069205F047FA114804F0E6FD0F4B1968E3
:1014300001F580513046CA6922F4204222F0800230
:10144000CA610AF0E7F930460AF022FA044B012299
:1014500064211A70094AC0E7180200202002002007
:101460001C0200207CBB020870BB02085C0200204A
:101470002C7C0208387C0208547C0208207C02087C
:1014800010B5044668B10B4A0B4B0C48606247F23A
:1014900073412046C4E905236186FFF739FE002029
:1014A00010BD074B074908484FF4B07224F0EEFF17
:1014B000E9E700BF019B000861100008EC7C02080E
:1014C000647C0208B47C0208C47C020800B50C4BA2
:1014D00083B01B78002201920BB103B000BD094814
:1014E00001A904F0A5FF01980028F6D0064907F0ED
:1014F000B3FB0028F1D001980AF020FB03B000BD37
:101500004C0400205C020020F87E002010B5044648
:1015100082B00D4809F0BCFF80B100F120030B49F7
:1015200023604FF4C06201610021CDE9003203461F
:10153000412208460AF02CFA02B010BD044B20608C
:1015400001221A7002B010BD88BB0208F110000819
:101550004C0400204FF0000C00B542F820CC8E4621
:1015600022F8163CA2F1200122F818CC02686AB1D8
:10157000DEF800201160CEF8001002682AB111894F
:10158000194411811268002AF9D100BD0160F2E707
:1015900008B10AF0D3BA704700B501683F4B8FB06D
:1015A00000229942CDE90822CDE90A220C9201D00D
:1015B0000FB000BDA3F590430192196B41F000718B
:1015C0001963196B01F00071019101990292196B75
:1015D00041F080611963196B01F0806102910299F9
:1015E0000392196B41F000611963196B01F00061FE
:1015F000039103990492196B41F004011963196B6B
:1016000001F00401049104990592196B41F0010164
:101610001963196B01F00101059105990692196B87
:1016200041F002011963196B01F00201069106995C
:101630000792196B41F0400119631B6B322003F0D4
:10164000400302214FF0030CCDE90801079308A9DC
:101650000B231348DDF81CE0CDE90BC302F04AFF71
:10166000862308A90F48089302F044FF4FF4006353
:1016700008A90D48089302F03DFF4FF4C04308A9A4
:101680000A48089302F036FF002205213D2002F0AF
:10169000F3FB3D2002F022FC0FB000BD00800240B1
:1016A000000802400000024000040240001802400E
:1016B00010B5B0B1A9B18B689BB1CB688BB10B6889
:1016C0007BB100238C4603601C46BCE80F00DFF8AA
:1016D00018E0AEE80F00DCF80030CEF8003020460D
:1016E00010BD4FF0FF34FAE7D87E002070B5194CDA
:1016F00082B000262368019605469847B0421BDB5E
:10170000E36828684FF4004231469847002813DB0D
:1017100023699847064608E0019B1B0410D52369FE
:101720009847801BB0F5FA7F0AD2A368286801AAFF
:10173000002198470028EFDA4FF0FF3002B070BD6B
:101740004FF49052E3682868019200219847C0172F
:1017500002B070BDD87E002070B5144E82B0002457
:10176000CDE90044B36805466A4600680121984700
:10177000A04215DB009810F004000FD0B368286871
:1017800001AA1F219847A0420DDB009B9B060AD5AA
:10179000019B074A03F00C0352F8230002B070BD0E
:1017A000204602B070BD042002B070BDD87E00207B
:1017B00094BB020810B504462046FFF7BFFD4FF466
:1017C000FA7010F0F1FAF7E730B5002185B008465D
:1017D00007F0CAFA002585F3118862B61A491B483A
:1017E0001B4C08F06FFE1B491B4808F06BFE1B49A1
:1017F0001B4808F067FE1B491B4A184B0095CDE9B2
:1018000001212046134A104909F06CFF204609F0D7
:10181000FBFF94F831305B07204612D509F0FAFF40
:1018200012490B480AF082F800240222CDE9002474
:10183000074B0F490F484FF4807210F02DF805B098
:1018400030BD0AF009F8EBE7F47E00209891002003
:10185000F87E0020F07E0020A8910020EC7E002081
:10186000B8910020598C0008811400083913000831
:10187000F87C0208B517000808B5EFF305830BB92B
:1018800012F08AF9002008BDEFF305830BB912F0BE
:10189000A3B9704710B5002204460846042110F091
:1018A00091FEB0FA80F35B092060584210BD00BF82
:1018B000026852B100B583B00190104611F02AFDC4
:1018C000019B00221A6003B000BD704700B585B0CF
:1018D0000191EFF3058300684BB91A4601A910F096
:1018E000C1FE013818BF4FF0FF3005B000BD002326
:1018F00003AA01A9039311F0DBF8012803D04FF0EC
:10190000FF3005B000BD039B4BB14FF0E0234FF01B
:101910008052C3F8042DBFF34F8FBFF36F8F0020A9
:10192000E3E700BF002A08B508BF4FF0FF3209B156
:1019300000230B60006811F0E9F9013818BF4FF07F
:10194000FF3008BD08B50022006811F0DFF901384A
:1019500018BF4FF0FF3008BD38B5032204460D46CE
:101960000120002110F02EFE206040B10DB90020B2
:1019700038BD00231A46194610F074FEF7E74FF001
:10198000FF3038BD026852B100B583B001901046F7
:1019900011F0C0FC019B00221A6003B000BD70472B
:1019A000EFF3058300681BB91A46194610F05ABEBA
:1019B00000B583B0002301A9019311F03BF9019B0D
:1019C0004BB14FF0E0234FF08052C3F8042DBFF32A
:1019D0004F8FBFF36F8F03B000BD00BF002908BF5A
:1019E0004FF0FF3108B5006811F0F8FA013818BF60
:1019F0004FF0FF3008BD00BF10B50446042011F0C1
:101A000003F8B0FA80F35B092060584210BD00BFB4
:101A100000684FF0FF3111F061BC00BF006811F0A9
:101A200029B800BF10B584B00446084611461A46CE
:101A3000069B00930B46214603AC019400240394BB
:101A40000FF02AFF01280CBF0398204604B010BDF8
:101A500010F00ABA704700BF08B5002001F062FC20
:101A60004FF4FA7010F0A0F9F7E700BF00B583B0AB
:101A700072B6084C0025012001F054FC0195019B31
:101A8000A342F8D8019B01330193019BA342F9D9EA
:101A9000F1E700BFFEFF010000B597B002F09CF92E
:101AA0000023CDE90C33CDE90E33CDE90533CDE983
:101AB0000733484903930993086C474A40F0805024
:101AC0000864096C01F08051039103990493136831
:101AD00043F440431360136801204FF4803103F452
:101AE0004043CDE90A0104934FF480010224CDE97B
:101AF0001041049808210220CDE9140119224FF465
:101B0000B4730AA81292139302F0F6F9C0BB05F061
:101B100005F80346A0BB0F22CDE905244FF4A05CD5
:101B20004FF4805205A80521CDE9073C099202F047
:101B300001FC28BB02F0C6F8284824F00FFD01F094
:101B4000A7FB012001F0D2FB01F056FB01F0AAFE39
:101B5000234824F003FD01F079FA01F0A3FAA0BBB9
:101B6000204824F0FBFC01F0EBFB50BB1E4824F0A6
:101B7000F5FC01F02FFF044620B11C4824F0EEFCD8
:101B8000FFF774FFFFF720FE84F3118862B600F0C0
:101B9000C1F984F3118862B600F07EFB84F31188EA
:101BA00062B6134824F0DAFC01231249124880225D
:101BB000CDE9003423460FF06FFE0FF089FFFFF7E9
:101BC00055FF0E4824F0CAFCD3E70D4824F0C6FCAC
:101BD000C9E700BF0038024000700040007D0208E5
:101BE000347D02085C7D0208847D0208AC7D020819
:101BF000D07D020818890208591A0008987D020849
:101C0000707D02080120704710B58AB0264B002273
:101C100004921A6C42F020021A641B6C03F0200339
:101C20000493044603A905A8049B02F043FC089B07
:101C3000E3B902F01FFC03461C4A1D481D49A2FBE4
:101C400003239B0C013B0022C0E9001340F2E73361
:101C5000026182608261C36004F09EFF50B1372050
:101C600002F03CF9012210460AB010BD02F002FC5D
:101C70004300E1E70E4805F061F80D4805F024F84F
:101C80000190372002F02AF9019A002AEAD10F2C9C
:101C9000E8D821463720019202F0EEF8019A064B6F
:101CA00010461C600AB010BD0038024083DE1B43A2
:101CB000307F00200014004088000020034B0268A1
:101CC0009A4200D0704702F0A1B800BF0014004053
:101CD000FEE700BFFEE700BFFEE700BFFEE700BF74
:101CE000FEE700BF704700BF014805F047B800BFDE
:101CF000307F0020014804F0A5BC00BF5C0200203A
:101D0000044A05491368002B08BF0B4618441060AD
:101D100018467047787F0020701001204FF0FF3088
:101D2000704700BF00207047002070474FF40053F9
:101D30004B600020704700BF01207047FEE700BFE6
:101D40004FF0FF30704700BF012070472DE9F04F82
:101D50000024ADF6240D224621461020059405F0FE
:101D600059FA0390002800F088804C49502205F071
:101D7000CFFA0546002872D1039C0521204605F0C4
:101D8000F5FA014660B1464824F080FB204605F094
:101D90009DFA28460FF016FE0DF6240DBDE8F08FD3
:101DA0004048502124F072FB06AC0DF112070DF1F2
:101DB000200B039805A905F0FDFA0028F9D1206051
:101DC000054640F2FE760598214605F05DFB90B988
:101DD00020683A4607A970B106F0A0FE824608B90D
:101DE0003B88A3B9206806F081FE0598214605F0DE
:101DF0004BFB0028ECD000239D420BF8053026DC7D
:101E0000059805F069FC059805F060FAD1E7C5F57D
:101E1000FF6207329A42A8BF1A460BEB05000799EA
:101E2000029224F03DFD029A1544032DDADD1E4A8C
:101E300004232946584624F00BFD029038BB206845
:101E400006F054FEB542BEDD02980BF80500059A77
:101E5000164900955B46104600F0D0FAD0E72946B7
:101E6000134824F013FB039805F030FA20460FF0D6
:101E7000A9FD0DF6240DBDE8F08F0E4824F06EFB91
:101E800003980FF09FFD0DF6240DBDE8F08F20683C
:101E900006F02CFE0BF805A0D9E700BF8419040852
:101EA000487E02086C7E020824830208B91E0008DE
:101EB000287E0208047E02082DE9F041151E82B03A
:101EC0001EDD0E4607464FF00008B5F5806F2C4624
:101ED000A8BF4FF480640123CDF80080224631462C
:101EE000384605F07FFB0346022023B92D1B9D4297
:101EF00006DD2644E9E7013306D10FF055FFE4E79C
:101F0000002002B0BDE8F0814FF0FF3002B0BDE824
:101F1000F08100BF00B5002383B00322CDE9002388
:101F2000074908484FF400620FF0B6FC012801D1C0
:101F300003B000BD044803B05DF804EB24F00EBB11
:101F4000A07E02084D1D0008A87E020810B5134CA3
:101F5000D4E90030F2B10A44013A01394FEA403C79
:101F60004CEAD34C83EA433E8CEA00004FEADE138E
:101F700080EAD01C43EA406383EA0E034FEA4C40F8
:101F800040EAD33080EA0C0001F8010F8A4283EA6C
:101F90004343E3D1C4E90030002010BD808F00200E
:101FA000F0B5ADF6141D074606A81FF09FFE374991
:101FB00006A81FF09FFE00283FD1354B354A009000
:101FC000394606A81FF0FAFE06A81FF047FF044690
:101FD000002851D140F2FF7544AE2A46311906A8B7
:101FE0001FF02AF9002806DD0444032C2FDCC4F579
:101FF000FF650735F1E710F5D24FEED000239C4284
:10200000335531DC06A81FF077FA06A81FF0DCFF75
:10201000002303A902A8CDE90233CDE904331BF064
:1020200075FD05A904A81BF069FD049A02991A48D8
:1020300024F02CFA0DF6141DF0BD4142174824F08F
:1020400025FA06A81FF0C0FF0DF6141DF0BD0423ED
:10205000134A2146304624F0FBFB40F2FE7308B9D8
:102060009C42C4DD002333550E490094334606AA32
:10207000384600F0C3F9C5E761420B4824F006FA80
:1020800006A81FF0A1FF0DF6141DF0BD249100203D
:10209000F521000899210008047F0208CC7E02087F
:1020A0002483020859210008E87E020830B5002583
:1020B00085B02A4629461020039505F0ABF8044662
:1020C000002835D01E4940F2BB1205F021F920BB93
:1020D00001900521204605F049F950B1194824F036
:1020E0003DFA204605F0F2F801980FF06BFC05B0C0
:1020F00030BD1549154824F0C9F903A9204605F05B
:1021000059F90028F9D10398FFF74AFF039805F021
:10211000E3FA039805F0DAF8EFE70D4824F01EFA29
:10212000204605F0D3F828460FF04CFC05B030BD32
:10213000084824F013FA20460FF044FC05B030BDE7
:1021400084190408647F02087C7F0208847F0208E7
:102150004C7F0208307F020870B5141E06460D46FB
:1021600017DD2246294630461FF06CF9002820F082
:10217000800304DD241A002C0BDD0544F1E713F580
:10218000D24F02D04FF0FF3070BD02200FF00CFE96
:10219000E7E7002070BD00BF2DE9F043914683B012
:1021A000F2B107460E4615464FF00008B5F5806FB0
:1021B0002C4628BF4FF480640123CDF800802246CE
:1021C0003146384605F00EFA034602201BB92D1B96
:1021D00006D02644EAE7013306D10FF0E5FDE5E736
:1021E000484603B0BDE8F083014803B0BDE8F08382
:1021F0000094FFFFF0B5234C234D238817462A880F
:10220000934285B00E4626D3002303A92B8023805A
:10221000039305F039F9034600282FD1039A002AC9
:102220002ED01A4910684FF4805209F023FF019014
:10223000039806F05BFC019B14492B809F423A46B1
:10224000304628BF1A46019224F02AFB019A2280C8
:10225000104605B0F0BDD21A92B297420B490193D5
:102260003D4628BF1546194430462A4624F018FB3F
:10227000019B28462B44238005B0F0BD0448E8E7C5
:102280000448E6E77C7F00207E7F0020807F0020DE
:10229000808DFFFF0097FFFF10B5424886B04FF4D6
:1022A00000411BF03BFC4049404BD1F8FC20002092
:1022B00042F08072C1F8FC2058601A6842F00102B6
:1022C0001A605C6801F0AEFD394A3A493A4BDFF8D2
:1022D000ECC0A0FB02024B406040624508BF984240
:1022E00007BF374B374A434082EA0C023648C1E900
:1022F000003223F031F835481BF068FD34481FF0F8
:10230000E7FE3449304840F2C62223F0F5FC03468C
:10231000002839D1304C0093CDE901432F492B4897
:10232000E4221CF053F9034638BB02460121284839
:102330001FF0D2FE60BB0146059025481FF038FD16
:10234000059A234821461FF035FD204A1E492048A2
:102350001FF03AFD0346C8B90322CDE90023204906
:1023600020484FF400620FF097FA012817D01E485A
:1023700006B0BDE8104024F0F1B81C48594206B040
:10238000BDE8104024F082B81948F7E71948F5E78E
:102390004142194806B0BDE8104024F077B806B0B5
:1023A00010BD00BF20000AC000ED00E0001000E0FA
:1023B000B179379E808F0020157C4A7FB979379E8E
:1023C0009BEA8F74E6493C85908F0020888F00201F
:1023D00024910020ACBC02084D1F0008C8BB0208B5
:1023E00050800208AD20000858800208DC7F0208F7
:1023F000B87F02082C800208008002082DE9F04F07
:10240000ADF63C0D0C46DDF8607815460D213A46D8
:1024100018461E46FEF7ECF9002800F0FC80821BEF
:1024200080469146B04598BF31460CD9334602E00C
:10243000984500F0AA801A78202A194603F1010372
:10244000F6D0A8EB0102072AA8BF072217A89246D8
:1024500024F026FA17A9002301F80A304A46202161
:102460003046FEF7C5F9002800F09783804502D872
:1024700092E380457ED00378202B014600F10100D5
:10248000F7D0884540F2D7850B4602E001339845E6
:1024900072D01A78202AF9D1A3EB0109B9F1BF0F44
:1024A000A8BF4FF0BF094A460DF5BC78404624F05E
:1024B000F7F90022032F08F8092018DDB446F91EA9
:1024C00002E001328A4212D01CF8013B0D2BF8D1F8
:1024D0009CF800300A2BF4D19CF801300D2BF0D180
:1024E0009CF802300A2BECD104321644BF1A314654
:1024F00040F2FF16BE42A8BF3E4632468EA824F0E8
:10250000CFF98EA900229D4B8A55D8F800209A4217
:1025100054D09B4BB8F800202F2A08BF9846994BFF
:10252000D3F80090B9F1000F0EDDDFF85CA20026B1
:10253000330141465AF803000AEB0617FEF74CF93F
:1025400030B30136B145F3D140F2AE638F4A8021FA
:102550000DF5876024F00AF80DF58761642228469E
:10256000A0478B4940F2AE622846A0470DF63C0DCD
:10257000BDE8F08F414684E7A8EB0109B9F1BF0F30
:10258000A8BF4FF0BF094A468EE7414600225AE7EE
:10259000BE68FB687F4A009680210DF5876023F0B6
:1025A000E5FF0DF5876102462846A0477968324667
:1025B0002846A0470DF63C0DBDE8F08F98F8043092
:1025C0002F2BA6D15F9A744B9A4200F009816B4B76
:1025D000D8F800209A4223D0684BD8F800209A42BD
:1025E00054D0664BD8F800209A4200F09580122310
:1025F0006A4A60210DF5876023F0B8FF0DF5876109
:102600005A222846A047664912222846A0470DF6BE
:102610003C0DBDE8F08F06EB0708B9463A4601E7E6
:102620005F9A604B9A42D7D1609A5F4B9A42D3D15E
:102630009DF88491B9F1000FCED1179A5B4B9A4265
:1026400000F0E3825A4BA3F11002CDE90123A3F17C
:1026500020020092303B574A4FF480710DF587609D
:1026600023F084FF4D4A0346602106463AA823F032
:102670007DFF3AA902462846A04732460DF58761FC
:102680002846A0470DF63C0DBDE8F08F5F9A4A4BF7
:102690009A42A6D1609A494B9A42A2D19DF8846190
:1026A000002E9ED146498EA824F0BCF868B13A218C
:1026B00024F097F848B1013023F088FD002840F05D
:1026C0009884404A107000F01DFE3F498EA824F007
:1026D000A9F868B13A2124F084F848B1013023F018
:1026E00075FD3A4B002840F07E84187001F056F9D1
:1026F0000B232A4A60210DF5876023F037FF0DF583
:1027000087615A222846A04731490B222846A04714
:102710000DF63C0DBDE8F08F2E4A5F9B93427FF48F
:1027200066AFBDF8803147F2654293427FF45FAFF8
:102730009DF88231002B7FF45AAF0B23174A60219A
:102740000DF5876023F012FF0DF587615A222846A8
:10275000A0471F490B222846A04764200FF024FB06
:10276000BFF34F8F1C491D4BCA6802F4E06213434C
:10277000CB60BFF34F8F00BFFDE700BF2F617069D3
:102780007480020874BF020878BF02082C83020814
:10279000A0120408DC8202082F686172E48102083A
:1027A000C88202082F6E6574776F726B504F535456
:1027B000C8910020748202082F636F6E74726F6C70
:1027C00018890208E1910020B4820208E0910020FB
:1027D000688202082F72657300ED00E00400FA05BC
:1027E000609ABC4B9A427FF4F2AEBDF88431652BFF
:1027F0007FF4EDAEB84F3868002800F0FE814FF04E
:10280000FF3110F0EBFB0DF15409484600F0B2FC2B
:102810000DF1640A8046504600F048FF06463868CD
:1028200020B100231A4619460FF01CFFB8F1000F23
:1028300004D00023A9F80430C9F80030002E00F0BD
:10284000B08100230026CAF80830CAF80430CAF85C
:102850000030CAF81430CAF81030CAF80C30CAF880
:102860002030CAF81C30CAF81830B0463AA89B4944
:1028700013903346424623F0ABFEDAF804600021A1
:102880003046FDF741FF8046002840F08A833046FD
:10289000FDF762FF0746FDF745FD01463046FDF7AF
:1028A0008BFC8F49FDF792FD4FF07C51FDF786FCC4
:1028B000FDF752FF7A1C0928CCBF1746034687490B
:1028C0003EA8C8BF43463A46834623F081FEDAF865
:1028D000086000213046FDF717FF8046002840F0D1
:1028E0003D833046FDF738FF0746FDF71BFD0146E7
:1028F0003046FDF761FC7A49FDF768FD4FF07C51E9
:10290000FDF75CFCFDF728FF7A1C0928C4BF1746B9
:1029100043460DF58478D8BF034670493A46404691
:1029200023F056FEDAF80C6000213046FDF7ECFE8D
:102930000E90002840F0F0823046FDF70DFF07466C
:10294000FDF7F0FC01463046FDF736FC6449FDF723
:102950003DFD4FF07C51FDF731FCFDF7FDFE7A1C8B
:102960000928C8BF17460E9A5C49CCBF13460346D8
:102970003A4646A80E9023F02BFEDAF8107000219C
:102980003846FDF7C1FE0F90002840F0A38238467C
:10299000FDF7E2FE0646FDF7C5FC01463846FDF7A9
:1029A0000BFC4F49FDF712FD4FF07C51FDF706FC83
:1029B000FDF7D2FE721C0928C8BF16460F9A474978
:1029C000CCBF1346034632464AA80F9023F000FEC0
:1029D000DAF8147000213846FDF796FE10900028B2
:1029E00040F056823846FDF7B7FE0646FDF79AFCE2
:1029F00001463846FDF7E0FB3949FDF7E7FC4FF0AB
:102A00007C51FDF7DBFBFDF7A7FE721C0928C8BF50
:102A10001646109A3149CCBF1346034632464EA89B
:102A2000109023F0D5FDDAF8187000213846FDF734
:102A30006BFE1190002840F009823846FDF78CFEAD
:102A40000646FDF76FFC01463846FDF7B5FB244905
:102A5000FDF7BCFC4FF07C51FDF7B0FBFDF77CFEB1
:102A6000721C0928C8BF1646119A1C49CCBF1346D0
:102A70000346324652A8119023F0AAFDDAF81C70E2
:102A800000213846FDF740FE1290002840F0BC813E
:102A90003846FDF761FE0646FDF744FC0146384620
:102AA000FDF78AFB0E49FDF791FC4FF07C51FDF7D5
:102AB00085FBFDF751FE721C0928C8BF1646129A05
:102AC0000649CCBF13460346324656A8129023F05F
:102AD0007FFD07E064776172DC91002024810208A9
:102AE00000002041DAF820A000215046FDF70CFE3E
:102AF0000746002840F066815046FDF72DFE064649
:102B0000FDF710FC01465046FDF756FB9D49FDF7C9
:102B10005DFC4FF07C51FDF751FBFDF71DFE0928D0
:102B200006F10102D8BF32465AAED8BF03469649D5
:102B3000C8BF3B46304623F04BFD129B0993119BC7
:102B40000893109B07930F9B06930E9B0A96CDE963
:102B50000483CDF80CB0B9F80430139ACDE90132F2
:102B6000B9F80210B9F8003000918849884A09780C
:102B70000C91884909780B910DF587604FF48061BD
:102B800023F0F4FC844A03466021064622A823F081
:102B9000EDFC22A902466EE58046002241469146A0
:102BA00082E4DAF8007000213846FDF7ADFD002818
:102BB00000F0278207F100473846FDF7CDFD80463B
:102BC000FDF7B0FB01463846FDF7F6FA6D49FDF713
:102BD000FDFB4FF07C51FDF7F1FAFDF7BDFD0A2832
:102BE00008F10102B8BF03466C493AA8ACBF3346AE
:102BF0004246139023F0ECFC3FE601200FF004FF67
:102C0000386000283FF4FFADF9E565498EA823F050
:102C100009FE00B3222123F0E4FDE0B101302221BE
:102C200023F0DFFDB8B1461C2221304623F0D9FD48
:102C300088B1871B132FA8BF132731463A463AA8FD
:102C400023F02EFE0F2200F807900146554823F08E
:102C5000D6FD80F80F9054498EA823F0E3FD08B309
:102C6000222123F0BEFDE8B12221013023F0B9FD7D
:102C7000C0B1461C2221304623F0B3FD90B1871B22
:102C8000132FA8BF132731463A463AA823F008FE6F
:102C90003AAB0026DE55194644480F2223F0AFFD1B
:102CA000404BDE7742498EA823F0BCFD10B32221B1
:102CB00023F097FDF0B12221013023F092FDC8B13D
:102CC000461C2221304623F08CFD98B1871B132F20
:102CD000A8BF132731463A463AA823F0E1FD3AABA4
:102CE0000026DE55194633480F2223F088FD2D4B70
:102CF00083F82F6030498EA823F094FD10B3222171
:102D000023F06FFDF0B12221013023F06AFDC8B13C
:102D1000461C2221304623F064FD98B1871B132FF7
:102D2000A8BF132731463A463AA823F0B9FD3AAB7B
:102D30000026DE5519462148112223F060FD194B6B
:102D400083F841601748FEF75DFF164815A907F0A4
:102D5000B9FB00283FF4CCAC144819A907F0B2FB2A
:102D600000283FF4C5AC134822A907F0ABFB0028AC
:102D70003FF4BEAC124822AB19AA15A908F04CFCCE
:102D8000B6E400BF0000204124810208E091002049
:102D90002C810208E1910020E48102081C810208D4
:102DA00070A902089891002058820208A89100207A
:102DB00060820208B891002064820208C891002055
:102DC000F87E00200AF1004A5046FDF7C5FC064691
:102DD000FDF7A8FA01465046FDF7EEF99849FDF7D0
:102DE000F5FA4FF07C51FDF7E9F9FDF7B5FC09283C
:102DF000C8BF013632465AAE03469249C8BF0023C7
:102E0000304623F0E5FB98E607F100473846FDF72A
:102E1000A3FC0646FDF786FA01463846FDF7CCF9D5
:102E20008749FDF7D3FA4FF07C51FDF7C7F9FDF75D
:102E300093FC0928C8BF01360346824956A8C8BF7B
:102E400000233246129023F0C3FB4BE607F1004704
:102E50003846FDF781FC0646FDF764FA0146384620
:102E6000FDF7AAF97649FDF7B1FA4FF07C51FDF76D
:102E7000A5F9FDF771FC0928C8BF01360346714961
:102E800052A8C8BF00233246119023F0A1FBF5E5FC
:102E900007F100473846FDF75FFC0646FDF742FAAA
:102EA00001463846FDF788F96549FDF78FFA4FF07E
:102EB0007C51FDF783F9FDF74FFC0928C8BF0136A7
:102EC000034660494EA8C8BF00233246109023F045
:102ED0007FFBA8E507F100473846FDF73DFC0646B5
:102EE000FDF720FA01463846FDF766F95449FDF72B
:102EF0006DFA4FF07C51FDF761F9FDF72DFC0928C3
:102F0000C8BF013603464F494AA8C8BF002332460E
:102F10000F9023F05DFB5BE506F100463046FDF7C0
:102F20001BFC0746FDF7FEF901463046FDF744F964
:102F30004349FDF74BFA4FF07C51FDF73FF9FDF7A0
:102F40000BFC0928C8BF013703463E4946A8C8BF45
:102F500000233A460E9023F03BFB0EE506F10046B7
:102F60003046FDF7F9FB0746FDF7DCF90146304630
:102F7000FDF722F93249FDF729FA4FF07C51FDF7B0
:102F80001DF9FDF7E9FB0928C8BF01370DF5847865
:102F900003462C49C8BF00233A46404623F018FB9D
:102FA000C0E406F100463046FDF7D6FB0746FDF7C4
:102FB000B9F901463046FDF7FFF82149FDF706FA59
:102FC0004FF07C51FDF7FAF8FDF7C6FB0928C8BFA2
:102FD000013703461B493EA8C8BF00233A46834633
:102FE00023F0F6FA73E401221A7000F0BBFCFFF73D
:102FF0007FBB154B012230461A7000F077F9FFF7BE
:1030000064BB3846FDF7A8FB8046FDF78BF9014607
:103010003846FDF7D1F80A49FDF7D8F94FF07C5151
:10302000FDF7CCF8FDF798FB092802DD08F101084F
:103030001CE406461AE400229146FFF735BA00BFA9
:10304000000020411C810208E1910020104B0FCBB1
:1030500070B5104C104EA446ACE807000F4AACF80F
:1030600000300FCA04F1100507C52B8096E80F0049
:1030700004F1200EAEE8070004F1300C084C8EF885
:1030800000300FCCACE80F002368ACF8003070BD06
:103090009083020898910020B0830208A083020860
:1030A000C083020870B52E4A2E4CD2F8FC302E4D4B
:1030B00043F0807386B0C2F8FC302368002243F0EE
:1030C0000103236062602A68284BA3FB023242F2AC
:1030D0001071920C01FB02F2616863685B1A9A42FC
:1030E000FBD80A21042201230DF1170602918DF865
:1030F0001720CDE900631E4800223C2102F0B6FAF9
:1031000050BB174A1949D2F8FC3043F08073C2F81B
:10311000FC30236843F00103236060602A68606824
:10312000A1FB021244F62063920C0E4903FB02F24B
:103130004B681B1A9A42FBD80A220123CDE90132BF
:1031400003240B48009600223C218DF8174002F022
:103150008DFA08B906B070BD4FF0FF30FAE700BF36
:1031600000ED00E0001000E08000002083DE1B4343
:10317000E89100202DE9F0410A2486B0074604AD0D
:10318000A0460126CDE901681A4800950123224690
:103190003C2102F069FB40BB0134A4B2102C05F1C4
:1031A0000105EFD19DF910209DF81030824205DB1A
:1031B0009DF8110003F0030343EA80009DF81430EA
:1031C000BDF812203A805A06B8800CD49DF815201C
:1031D000120103F00F0302F47C72134300207B8082
:1031E00006B0BDE8F0810023F8E74FF0FF3006B0ED
:1031F000BDE8F081E89100202DE9104889B01F4B0F
:10320000002400941A6C42F480021A641A6C02F4CE
:1032100080020092009A01941A6B42F080021A63B5
:103220001B6B3020122103F08003CDE902010193D2
:103230001348019A04234FF0030C02A94FF0010B2D
:103240000693CDE904BC01F055F90E480E490F4A2A
:1032500004624FF48043C0E90012C0E90244C0E9AF
:103260000434C0E9064401F057FF10B909B0BDE8C5
:103270001088FEF7FBFB09B0BDE81088003802405B
:10328000001C0240E891002000580040A086010088
:103290002DE91048002289B0CDE90522114B019299
:1032A0001A6B114842F002021A631B6B03F002030F
:1032B0004FF0010C0124019302A94FF0030BCDE95B
:1032C00002BC019B049401F015F922460648022134
:1032D00001F014FB04482246214601F00FFB09B01F
:1032E000BDE810880038024000040240024604484D
:1032F00012B9022101F002BB0022012101F0FEBA45
:103300000004024038B900F1804000F5013001228C
:10331000022101F0F3BA01220148114601F0EEBA90
:103320000004024030B900F1804000F50130022174
:1033300001F0E8BA0148012101F0E4BA00040240BA
:103340002DE9F04387B001240DF1130300210A2772
:1033500000938DF81310CDE90147C7482346752225
:10336000D02102F081FA002840F09A819DF81330B4
:10337000712B40F0958105AECDE901472346054606
:103380008DF814006B22D021BB48009602F06EF934
:10339000BA4ABB4CD2F8FC30BA4F43F08073C2F843
:1033A000FC30236843F0010323606560B64B3A6844
:1033B0006168A3FB0232920C42F2107303FB02F22B
:1033C00063685B1A9A42FBD801254FF00A0807236D
:1033D0008DF8143019222B46D021CDE90158A6488A
:1033E000009602F043F903238DF814301A222B467D
:1033F000D021CDE90158A048009602F037F91823F2
:103400008DF814301B222B46D021CDE901589A4863
:10341000009602F02BF910238DF814301C222B4655
:10342000D021CDE901589448009602F01FF92023DD
:103430008DF814306A222B46D021CDE901588E48F0
:10344000009602F013F90D222B468DF81420D0219E
:103450002422CDE901588848009602F007F9874AEE
:10346000D2F8FC3043F08073C2F8FC3023680022AD
:103470002B4323606260844B3A686168804CA3FBF5
:103480000232920C41F2883303FB02F263685B1A4A
:103490009A42FBD8012519234FF00A088DF8143001
:1034A000CDE90158744800962B462522D02102F020
:1034B000DDF8002840F0908010238DF81430CDE91D
:1034C00001586D4800962B462622D02102F0CEF8F6
:1034D000002840F0818083228DF81420CDE9015826
:1034E000654800962B462722D02102F0BFF800281D
:1034F00072D1624A6449D2F8FC3043F08073C2F85A
:10350000FC3023682B43236060603A686068A1FB4D
:103510000212920C4FF4FA63594903FB02F24B6812
:103520001B1A9A42FBD8354649244FF00A094FF03E
:103530000108CDE901895048009501232246D02198
:1035400002F092F9002847D10134A4B24C2C05F1C5
:103550000105EED19DF814004C4CFCF7E3FE4FF052
:103560008641FCF729FE4FF07C51FCF72FFF4FF00E
:103570007051FCF72BFF4FF07E51FCF71FFE034606
:1035800023609DF81500FCF7CDFE4FF08641FCF757
:1035900013FE4FF07C51FCF719FF4FF07051FCF710
:1035A00015FF4FF07E51FCF709FE034663609DF85E
:1035B0001600FCF7B7FE4FF08641FCF7FDFD4FF01B
:1035C0007C51FCF703FF4FF07051FCF7FFFE4FF00A
:1035D0007E51FCF7F3FDA060012418230A258DF825
:1035E0001430CDE901452448009623462522D021F8
:1035F00002F03CF8002856D1CDE901451E4800965E
:1036000023462622D0218DF8145002F02FF80028EE
:1036100049D116238DF81430CDE90145164800969E
:1036200023466322D02102F021F800283BD18120DB
:103630008DF81400CDE901450F4800962346272256
:10364000D02102F013F870BB0C4A0D49D2F8FC30BF
:103650000D4C43F08073C2F8FC300B6843F001035B
:103660000B6048603A684868A4FB02424FF4FA6372
:10367000920C03FB02F20BE0E891002000ED00E069
:10368000001000E08000002083DE1B43700000205B
:103690004B681B1A9A42FBD8002007B0BDE8F083A4
:1036A0004FF0FF30F9E76FF00100F6E72DE9F04346
:1036B00089B00A26062406AD0746CDE901467148C1
:1036C000009501233B22D02102F0CEF8002840F0E3
:1036D000D280BDF81800C0BAFCF724FE4FF0665146
:1036E000FCF774FE3860BDF81A00C0BAFCF71AFE89
:1036F0004FF06651FCF76AFE7860BDF81C00C0BA56
:10370000FCF710FE4FF06651FCF760FE0123B86035
:103710004322CDE901465B480095D02102F0A4F890
:10372000002840F0AB80BDF81800C0BAFCF7FAFDE5
:103730005549FCF7FFFEBDF81A30F860D8BAFCF71F
:10374000F1FD5149FCF7F6FEBDF81C303861D8BADE
:10375000FCF7E8FD4C49FCF7EDFE012419230DF1BF
:1037600017088DF81730252278612346CDE90146E8
:103770004448CDF80080D02101F078FF002877D1AF
:1037800003238DF81730CDE901463E48CDF800807F
:1037900023462622D02101F069FF002868D1862027
:1037A0008DF81700CDE901463648CDF80080234654
:1037B0002722D02101F05AFF002859D1334A344939
:1037C000D2F8FC3043F08073C2F8FC300B6823431E
:1037D0000B60304B48601A682F4B4868A3FB0232DD
:1037E000920C4FF4FA6303FB02F24B681B1A9A42E5
:1037F000FBD849244FF00A094FF00108CDE90189AF
:103800002048009501232246D02102F02DF80646DB
:1038100070BB0134A4B24F2C05F10105EED1BDF807
:1038200018001E4CC0BAFCF77DFD1D49FCF7CEFD0B
:103830002168FCF7CBFDBDF81A30B861D8BAFCF7A7
:1038400071FD1749FCF7C2FD6168FCF7BFFDBDF8CB
:103850001C30F861D8BAFCF765FD1149FCF7B6FDDC
:10386000A168FCF7B3FD3862304609B0BDE8F083CB
:103870006FF00200F9E74FF0FF30F6E76FF001005C
:10388000F3E700BFE89100203333834100ED00E00F
:10389000001000E08000002083DE1B437000002049
:1038A0009A99193E30B585B06423FF2100930DF13C
:1038B0000F0201238DF80F102548264C264D40217C
:1038C00001F0F8FC254AD2F8FC3043F08073C2F8CE
:1038D000FC302368002243F0010323606260204B28
:1038E0002A686168A3FB0232920C4CF2503303FB4E
:1038F00002F263685B1A9A42FBD864237F2100932B
:103900000DF10F0201238DF80F101148402101F035
:10391000D1FC124A1249D2F8FC3043F08073C2F84D
:10392000FC302368002043F00103236060602A68B4
:103930006068A1FB02124CF25033920C054903FB64
:1039400002F24B681B1A9A42FBD805B030BD00BF8B
:10395000E8910020001000E08000002000ED00E071
:1039600083DE1B4300B5DFF82CC09CF8000085B057
:1039700000F0FE00642300938DF80F008CF8000027
:1039800001230DF10F024021034801F093FC05B023
:1039900000BD00BF7C000020E891002000B5DFF8EA
:1039A0002CC09CF8000085B040F001006423009317
:1039B0008DF80F008CF8000001230DF10F0240215B
:1039C000034801F077FC05B000BD00BF7C0000207B
:1039D000E89100202DE9F041002494B0CDE90C4499
:1039E000CDE90E44CDE91044A34B00941294089401
:1039F0009A6B42F001029A639A6B02F00102009204
:103A0000009A01941A6B42F020021A631A6B02F0BA
:103A100020020192019A02941A6B42F004021A6386
:103A20001A6B02F004020292029A03941A6B42F09B
:103A300040021A631A6B02F040020392039A049444
:103A40001A6B42F010021A631A6B02F01002049211
:103A5000049A05941A6B42F008021A631B6B032147
:103A6000099103F008034FF63F000221CDE906015A
:103A700005938248059A0C2306A90A9300F03AFDA3
:103A80000D237F48069306A900F034FD48F2371352
:103A90007C48069306A900F02DFD4FF683737A4803
:103AA000069306A900F026FD4CF2037377480693AF
:103AB00006A900F01FFD7649764A0A600823012511
:103AC000C1E902530D9306234FF40062CDE90E3392
:103AD00002230A620C930A46129310274023C2E97C
:103AE00004734FF4C07393614FF480564FF4005346
:103AF0004E624C609362CC611046022302220CA9F4
:103B0000CDE9102303F0EAF9002840F0AD80044627
:103B100032460CA95E480C950E950D970F9403F054
:103B2000FFF95D4A5D49D2F8FC3043F08073C2F87A
:103B3000FC300B6843F001030B60594B4C601A6872
:103B4000584BA3FB02320546920C4FF47A73486837
:103B500003FB02F24B681B1A9A42FBD80223102780
:103B6000012600244FF480520CA949480F94CDE956
:103B70000C370E9603F0D4F903234FF480520CA9AE
:103B8000804643480F940C93CDE90D7603F0C8F9B5
:103B90004FF40C7304460F933D4804234FF48052B6
:103BA0000CA9CDE90D760C9303F0BAF900285FD18A
:103BB000241A18BF4FF0FF34B8EB000318BF4FF0C2
:103BC000FF332D1A44EA030418BF4FF0FF352C438E
:103BD0004ED140F2AB212E4803F0C4F9324BDFF84E
:103BE000CCE00FCB0CAD85E80F002146DEF800607D
:103BF00026F0030505F1404505F580702B4643F896
:103C0000041B9842FBD10CAF3A682B4643F8042BB7
:103C10009842FBD14FF0000C04E00CF1040CBCF511
:103C2000807F11D055F80C309A42F6D006F1404111
:103C300055F80C301E48614422F028FC4FF0FF3448
:103C4000204614B0BDE8F081043710ABBB42DBD195
:103C5000184B0EF1040E9E45C8D1174822F07EFC89
:103C6000204614B0BDE8F081144822F077FCE5E767
:103C7000134822F073FCE1E70038024000140240D0
:103C8000000802400018024000100240000C0240F0
:103C900040920020400100A000ED00E0001000E094
:103CA0008000002083DE1B43687B02085019040853
:103CB0000C8402085C19040840840208D4830208BA
:103CC000EC83020810B588B01D4B002400940494C6
:103CD0005A6C42F010025A645A6C02F010020092C0
:103CE000009A01941A6B42F001021A631B6B4FF4A5
:103CF000C060022103F00103CDE902010193032218
:103D000007231048DDF804C002A9CDE9052300F01F
:103D1000F1FB0D480D494FF4E1320C23C0E90012CC
:103D2000C0E90244C0E90443C0E9064400F0F6FDDE
:103D300008B908B010BDFDF799FE08B010BD00BF6E
:103D4000003802400000024078920020001001403C
:103D50000138012810B508D814464FF0FF3392B24D
:103D6000054800F06DFE204610BD22F093FD0923AA
:103D700003604FF0FF3010BD78920020704700BF05
:103D8000DFF834D00D480E490E4A002302E0D45823
:103D9000C4500433C4188C42F9D30B4A0B4C002393
:103DA00001E013600432A242FBD3FFF7E7FFFCF708
:103DB00027FFFDF771FE7047000003200000002080
:103DC000B0000020DC290408B000002070100120A1
:103DD000FEE70000704700BF08B50B4B1A6842F4BD
:103DE00000721A601A6842F480621A601A6842F41B
:103DF00080721A60032000F02DF80F20FDF704FFF9
:103E0000FFF7E8FF002008BD003C0240034A044BD6
:103E100011681B780B441360704700BFBC920020F0
:103E200084000020014B1868704700BFBC9200203E
:103E300038B50446FFF7F6FF631C054602D0044B75
:103E40001B781C44FFF7EEFF401BA042FAD338BD9D
:103E5000840000200749CA6803024FF6FF0003F4FC
:103E6000E0630240134343F0BF6343F40033CB608D
:103E7000704700BF00ED00E0164BDB68C3F3022380
:103E8000A3F1030CBCF1040F00B519D84FF0FF3EAD
:103E9000C3F107030EFA03F30EFA0CFE22EA0E0238
:103EA000DB43194001FA0CF1114300284FEA0111DC
:103EB0000ADB00F1604000F5614080F8001300BDAE
:103EC00000220F239446ECE7034B00F00F00C318C9
:103ED000197600BD00ED00E0FCEC00E0002807DBF7
:103EE000044A4109012300F01F00834042F82130B9
:103EF000704700BF00E100E0002800F06B8170B562
:103F00000368DD0782B0044630D59F498A6802F015
:103F10000C02042A00F0F1808A6802F00C02082AE0
:103F200000F0E7806368B3F5803F00F0F080B3F500
:103F3000A02F00F07C8194490A6822F480320A6044
:103F40000A6822F480220A60002B40F0E580FFF727
:103F500069FF054605E0FFF765FF401B642800F296
:103F60000781894B1B689E03F5D423689D0729D5DB
:103F7000854A916811F00C0F00F09480916801F06F
:103F80000C01082900F08A80E368002B00F0118101
:103F90007E4B01221A60FFF745FF054605E0FFF75B
:103FA00041FF401B022800F2E380774B1B689E070D
:103FB000F5D5754922690B6823F0F80343EAC2037B
:103FC0000B6023681A0754D45D0731D56E4A136C11
:103FD00013F0805300F0818000266D4B1B68D805DC
:103FE00040F1B480A368012B00F0C580052B00F0E0
:103FF0002E8165490A6F22F001020A670A6F22F0DA
:1040000004020A67002B40F0BB80FFF70BFF054658
:1040100007E0FFF707FF41F28833401B984200F2A8
:10402000A780594B1B6F9B07F3D4002E40F00981EA
:10403000A369DBB1544A926802F00C02082A00F02E
:10404000CB80022B514B4FF000021A6600F0098121
:10405000FFF7E8FE044605E0FFF7E4FE001B022838
:1040600000F28680484B1B689B01F5D4002002B00B
:1040700070BD636903B3454B0122C3F8802EFFF77F
:10408000D1FE054604E0FFF7CDFE401B02286FD8A5
:104090003D4B5B6F9B07F6D5236895E7526851024D
:1040A0003FF572AF384A1268920743D5E268012A99
:1040B00040D0012002B070BD344AC2F8803EFFF704
:1040C000B1FE054604E0FFF7ADFE401B02284FD8C5
:1040D0002D4B5B6F9E07F6D4DEE70193136C43F024
:1040E00080531364136C03F080530193019B0126EA
:1040F00073E74A6851027FF515AF234A12689203AD
:104100007FF534AF6268002A7FF430AFD1E71E4AF2
:10411000136843F480331360FFF784FE054604E020
:10412000FFF780FE401B642822D8174B1B689B03B7
:10413000F6D51AE7144920690A6822F0F80242EA23
:10414000C0020A601A077FF53FAF92E7104A136872
:1041500043F480731360FFF765FE05460C4B1B6844
:10416000D9053FF53FAFFFF75DFE401B0228F5D9AB
:10417000032002B070BD044A136F43F001031367BC
:10418000FFF750FE05460CE00038024000004742B1
:1041900000700040FFF746FE41F28833401B984212
:1041A000E6D8484B1B6F9A07F4D5002E3FF440AF7A
:1041B00047E0454A1360FFF735FE054604E0FFF788
:1041C00031FE401B0228D3D83E4B1B689907F6D41A
:1041D0002368F7E601207047012B3FF46AAF394BA3
:1041E000E2695B6803F4800191427FF462AF226A66
:1041F00003F03F0191427FF45CAF616A47F6C07201
:104200001A40B2EB811F7FF454AFA26A520803F444
:104210004031013AB1EB024F7FF44BAFE26A03F059
:104220007063B3EB026F14BF012000201FE7254B22
:104230001A6842F480221A601A6842F480321A60C6
:104240006AE7204A136C23F080531364F0E61D4B99
:104250001A6F42F004021A671A6F42F001021A67DD
:104260008EE7FFF7DFFD054605E0FFF7DBFD401BAE
:1042700002283FF67DAF134B1B689901F5D4D4E9B2
:104280000731626A0B4343EA8213D4E90A205208D9
:104290000D490C4C43EA0063013A0A4843EA0243E1
:1042A000012243600A66FFF7BDFD054605E0FFF702
:1042B000B9FD401B02283FF65BAF23689A01F6D593
:1042C000D4E600BF0038024000004742164908B556
:1042D0008B6803F00C03042B1BD0082B01D0134870
:1042E00008BD4A684B68496813F4800302F03F0236
:1042F00011D10E48C1F38811A1FB0001FCF752FA5D
:10430000094B5B68C3F3014301335B00B0FBF3F07F
:1043100008BD074808BD0648C1F388110023A1FB6A
:104320000001FCF73FFAEBE7003802400024F400FC
:1043300040787D0158B1474A136803F00F038B4260
:1043400007D21170136803F00F038B4201D00120D4
:10435000704703689A072DE9F04114D55F0704D52B
:104360003D4CA26842F4E052A2601E0704D53A4CCC
:10437000A26842F46042A260374C8568A26822F0CD
:10438000F0022A43A260DD078846074621D542682D
:10439000012A58D0931E012B2F4B1B6850D9990727
:1043A00024D52D4CA36823F003031343A360FFF728
:1043B00039FD41F28835064604E0FFF733FD801BE6
:1043C000A84245D8A3687A6803F00C03B3EB820FC8
:1043D000F3D1204A136803F00F03434509D982F84B
:1043E0000080126802F00F02424502D00120BDE8B1
:1043F000F0813B685A0706D51749F8688A6822F4A5
:10440000E05202438A601B0707D5134A3969936853
:1044100023F4604343EAC1039360FFF757FF0E4A5A
:104420000E4C92680E49C2F303120346A25C0D487B
:10443000D34000680B60FDF7E7FB0020BDE8F0818A
:104440009801AED4D2E7044B1B689C03A9D4CDE7F6
:104450000320CCE7003C0240003802406419040805
:104460008000002088000020014B1868704700BFC2
:1044700080000020044B05499B68054A0868C3F387
:104480008223D35CD840704700380240800000206F
:104490005C190408044B05499B68054A0868C3F386
:1044A0004233D35CD840704700380240800000207F
:1044B0005C1904080D4BDFF838C00F2202609A68BF
:1044C00002F0030242609A6802F0F00282609A6889
:1044D00002F4E052C2609B68DB0803F4E05303611E
:1044E000DCF8003003F00F030B6070470038024027
:1044F000003C02402DE9F04FB04A0B68904287B073
:104500004FF0000200F0E380DFF8B4C24FF0010B7F
:104510008A4603E00132102A00F0AF800BFA02F164
:1045200001EA03059943F5D1DAF8044004F00306E3
:10453000771E51004FF0030E012F0EFA01FE63D9D2
:10454000032E08D0C76827EA0E08DAF808708F40F3
:1045500047EA0807C76006FA01F1066826EA0E0670
:10456000314314F4403F0160D4D0964E00210591B0
:10457000716C41F480417164716C01F4804105916A
:10458000059922F0030101F1804101F59C3102F00F
:1045900003078E68BF004FF00F0E0EFA07FE26EAE3
:1045A0000E06DFF824E270456AD0DFF820E270459D
:1045B00000F07981DFF818E2704500F07A81DFF8C9
:1045C00014E2704500F08181DFF80CE2704500F0E4
:1045D0008281DFF808E2704500F07181DFF800E2C7
:1045E000704500F07E81DFF8FCE1704500F07F81CE
:1045F000DFF8F4E170450CBF4FF0090E4FF00A0EE2
:104600000EFA07F73E4340E0876827EA0E08DAF81B
:104610000C708F4047EA08078760476827EA05085B
:10462000C4F30017974047EA08074760C76827EABE
:104630000E08DAF808708F4047EA0807022EC760B4
:1046400089D14FEAD20900EB890902F00708D9F8AD
:1046500020700097DAF810704FEA880807FA08F718
:1046600001970F2707FA08F8009F27EA0808019F1B
:1046700047EA0807C9F820706DE707B0BDE8F08F7A
:104680004FF0010E0EFA07F73E438E60DCF808107B
:10469000E60254BFA9432943CCF80810DCF80C10FB
:1046A000A70254BFA9432943CCF80C10DCF804102E
:1046B000A60354BFA9432943CCF80410DCF800102A
:1046C000E40354BFA9432943CCF8001022E7DFF8E4
:1046D000F4B03B4D4FF0010902E00132102ACCD07A
:1046E00009FA02F403EA04079C43F6D14E6806F087
:1046F000030808F1FF3C54004FF0030EBCF1010F1A
:104700000EFA04FA72D9B8F1030F0BD0D0F80CE00E
:10471000D1F808C02EEA0A0E0CFA04FC4CEA0E0C82
:10472000C0F80CC0D0F800C008FA04F42CEA0A0C57
:1047300044EA0C0416F4403F0460CED000240594F3
:10474000DBF8444044F48044CBF84440DBF8444078
:1047500004F480440594059C22F0030404F1804491
:1047600004F59C3402F0030C4FF00F0E4FEA8C0C52
:104770000EFA0CFCD4F808E02EEA0C0CC4F808C0C1
:1047800016F4801FAC6840F08C8024EA0704AC600B
:1047900016F4001FEC6840F0828024EA0704EC6005
:1047A00016F4003F6C6878D124EA07046C60F603C5
:1047B0002C6870D424EA07042C608EE700000240C5
:1047C000003C014000380240000402400008024062
:1047D000000C024000100240001402400018024089
:1047E000001C02400020024000240240D0F808E0F3
:1047F000D1F80CC02EEA0A0E0CFA04FC4CEA0E0C9E
:10480000C0F808C0D0F804E0C6F3001C2EEA070E7A
:104810000CFA02FC4CEA0E0CC0F804C0D0F80CE014
:10482000D1F808C02EEA0A0E0CFA04FC4CEA0E0C71
:10483000B8F1020FC0F80CC07FF474AF4FEAD20C8D
:104840004FEA8C0C0CF1804C02F0070E0CF5003C8A
:104850004FEA8E0ECDE900ECDCF820E0CDF808E060
:10486000D1F810C0DDF800E00CFA0EFCCDF80CC059
:10487000DDF800C04FF00F0E0EFA0CFEDDF808C098
:104880002CEA0E0EDDF80CC04CEA0E0EDDF804C06A
:10489000CCF820E046E73C438EE73C4386E73C43C8
:1048A0007DE73C4373E74FF0020E0EFA07F73E43F5
:1048B000EBE64FF0030E0EFA07F73E43E5E64FF046
:1048C000060E0EFA07F73E43DFE64FF0040E0EFA2F
:1048D00007F73E43D9E64FF0050E0EFA07F73E43C1
:1048E000D3E64FF0070E0EFA07F73E43CDE64FF042
:1048F000080E0EFA07F73E43C7E600BF02B90904E7
:1049000081617047436901EA030221EA030141EA38
:1049100002418161704700BF704700BF002800F06E
:10492000868038B590F83D30044603F0FF02002B36
:1049300078D02368E068242284F83D20DA6822F4E5
:104940000052DA601969A26821F4405101432069DC
:10495000196102436069D9680243E06921F4164194
:1049600021F00C0102430A43DA605A69A069314917
:1049700022F4407202438B425A6135D02E4A934250
:1049800032D0FFF777FDE2691921B2F5004FD4E983
:104990000053A0FB01012AD09A009B0FFBF702FFF6
:1049A000264AA2FB00C35B09642101FB130000013E
:1049B0003230A2FB00201B0103EB5013AB602B69CC
:1049C00023F490432B616B6923F02A036B61EB683E
:1049D0000021202243F40053EB60216484F83D2041
:1049E00084F83E20084638BDFFF754FDCBE7DA18BF
:1049F0004FF000035B41FBF7D5FE104AA2FB00C15C
:104A00004909642303FB1103DB003233A2FB0323B8
:104A1000C3F342121B0902EB011203F4F8731344AF
:104A2000AB60CCE780F83C20FFF776FF81E7012000
:104A3000704700BF00100140001401401F85EB517A
:104A40002DE9F041044690F83D00202840F0858093
:104A50000D46002951D01746002A4ED094F83C202C
:104A6000012A7AD01E460123212284F83C300023FB
:104A7000236484F83D20FFF7D5F9A268A784B2F536
:104A8000805F8046E7846BD00027E28C002392B2DF
:104A900084F83C302368002A68D0711C42D07EB371
:104AA0001A6810062FD4FFF7BDF9A0EB0800864264
:104AB0002368F5D203F10C0252E8002F22F4D072E1
:104AC00003F10C0040E800210029F3D103F11402A6
:104AD00052E8002F22F0010203F1140040E8002107
:104AE0000029F3D1202384F83D3084F83E300023A0
:104AF00084F83C300320BDE8F0810120BDE8F0815E
:104B00001A681106D6D5A5B12A785A60E28C013A06
:104B1000E284E28C92B2013542B3721CBFD11A68B2
:104B20001006F1D41A681206EDD41A681206F9D5E7
:104B3000E9E73A88C2F308025A60E28C013AE2845B
:104B4000E28C92B202378AB1711CA8D11A6812069F
:104B5000EFD41A681206E8D5D5E70220BDE8F08147
:104B60002269002A90D12F4615468EE7751C23D066
:104B70005EB31B68590622D4FFF754F9A0EB080274
:104B800096422368F5D203F10C0252E8002F22F47A
:104B9000D07203F10C0040E800210029F3D103F1A9
:104BA000140252E8002F22F0010203F1140040E841
:104BB00000210029F3D195E71A685006FCD520237F
:104BC00084F83D300020BDE8F0811A685206DAD53D
:104BD000F5E700BF30B5044600681D46036885B0A0
:104BE00043F480730360089BB3F1FF3F27D0002B91
:104BF00000F08D804369DB0758D4CDE90012FFF740
:104C000011F9099B089AC31A9A422068DDE900123B
:104C1000F0D200222023226384F83D3084F83E2025
:104C2000236C84F83C2043F0200323640368DA05F6
:104C300002D54FF400732364032005B030BD4369EF
:104C4000DB07FCD501F0FE0101614369990709D436
:104C500043695B0503D53FE0416949053CD441699F
:104C60008B07F9D500230393436903938369039367
:104C7000039B436919066CD443695905F9D5002390
:104C80006FF4806120224161236384F83D2084F821
:104C90003E30236C43F004032364236C0022042B76
:104CA00084F83C202DD0012005B030BD01F0FE017C
:104CB00001614369DB4313F0020361D043695B0583
:104CC0000AD40092FFF7AEF8099B089AC31A9A42D9
:104CD00031D32068009AECE7036843F40073036063
:104CE000002220236FF480614161226384F83D300B
:104CF00084F83E20236C84F83C2043F004032364B2
:104D0000D1E72268136843F400731360CBE743696B
:104D1000DB0703D4FFF786F820687AE701F0FE018D
:104D200001614369DB4313F0020359D043695D0518
:104D3000D2D4FFF777F800222023226384F83D3095
:104D400084F83E20236C84F83C2043F02003236445
:104D5000A9E7012D0FD0130A036143691D060AD488
:104D6000436959058BD4F8E7012D04D0130A036178
:104D700043691B063DD5D2B20261002005B030BDAB
:104D800003934369039383690393039B4369190660
:104D900010D443695B053FF572AF0092FFF742F80C
:104DA000099B089AC31A9A4229D32068009A43693A
:104DB0001906EED5012DDED0130A036143691B06E7
:104DC000D9D443695D053FF55AAF0092FFF72AF841
:104DD000099B089AC31A9A4211D32068009AEDE7FA
:104DE00003934369039383690393039B43691B06FE
:104DF000BAD443695A053FF542AFFFF713F80023D1
:104E00002022236384F83D2084F83E30236C134332
:104E1000236442E7F0B5044600688E46016841F419
:104E2000806183B00160016841F48071016008997C
:104E30004D1C26D01F4616467546002900F081807D
:104E40004369DB0763D4FEF7EDFF099B089AC31A99
:104E50009A422068F4D200222023226384F83D3055
:104E600084F83E20236C84F83C2043F02003236424
:104E70000368D80502D54FF400732364032003B000
:104E8000F0BD4169C907FCD50EF0FE01016102E0E9
:104E90004169490526D441698D07F9D50021019161
:104EA00041690191816901910199416909066AD4B9
:104EB00041694905F9D500236FF4806120224161E1
:104EC000236384F83D2084F83E30236C43F00403D0
:104ED0002364236C0022042B84F83C202BD0012077
:104EE00003B0F0BD036843F4007303600022202385
:104EF0006FF480614161226384F83D3084F83E2084
:104F0000236C84F83C2043F004032364E7E705F0B6
:104F1000FE0303614369DB4313F002033ED04369A0
:104F20005B05DFD4FEF77EFF099B089AC31A9A42FD
:104F30001BD32068EEE72268136843F40073136004
:104F4000CDE74369DA0703D4FEF76CFF206882E7F8
:104F50000EF0FE0303614369DB4313F0020367D0E5
:104F600043695D05BED4FEF75DFF00222023226366
:104F700084F83D3084F83E20236C84F83C2043F0D4
:104F800020032364ABE7012B33D0130A0361436989
:104F900019062ED4436959058DD4F8E70193436966
:104FA000019383690193019B43691A060DD44369F8
:104FB0005B0580D4FEF736FF099B089AC31A9A4214
:104FC00045D3206843691A06F1D5012F4AD0330A28
:104FD000036143691B0645D443695F053FF56BAF29
:104FE000FEF720FF099B089AC31A9A422FD3206824
:104FF000EFE7D2B2026143691F0604D443695B053F
:105000003FF559AFF7E7036843F4807303604369E2
:10501000DD07FCD54EF00103DBB2036103E0436919
:105020005F053FF55FAF43699E07F8D5002057E75E
:1050300001934369019383690193019B43691B06B3
:105040004AD443695F053FF536AFFEF7EBFE002318
:105050002022236384F83D2084F83E30236C1343E0
:10506000236436E7F3B2036143691E060CD4436937
:1050700059053FF520AFFEF7D5FE099B089AC31AE4
:105080009A42E4D32068EFE7036843F48073036037
:105090004369DE0708D4FEF7C5FE099B089AC31AC8
:1050A0009A422068F4D2D6E645F00103DBB20361F0
:1050B00043699A07BAD443695B053FF513AFFEF71E
:1050C000B1FE099B089AC31A9A42FFF44EAF2068BA
:1050D00043699A07AAD4EEE7012F04D0330A03618B
:1050E00043691A06ADD5F3B2036143691A06A8D520
:1050F000036843F4807303604369DB077FF524AFE3
:1051000045F00103DBB20361436999077FF528AFDE
:105110008CE700BF704700BF002800F0BE8038B5A4
:1051200090F83D30044603F0FF02002B00F0A18010
:105130002368242284F83D201A6822F001021A60B4
:105140001A6842F400421A601A6822F400421A6097
:10515000FFF790F9524B62689A4227D8514B984218
:1051600027D951495300A1FB002C421EB2FBF3F298
:105170002368596821F03F0141EA9C415960196A4E
:105180004FEA9C4E0EF1010E21F03F0141EA0E0163
:105190001962D96940F6FC70013221F44F41024294
:1051A00021F0FF0175D0C2F30B0238E03F4B98426B
:1051B00001D8012038BD3C4B3D4DA3FB003E236888
:1051C000D3F804C02CF03F0C4CEA9E4CC3F804C04A
:1051D0004FEA9E414FF4967C0CFB01F1A5FB01C107
:1051E000D3F820C0A568890901312CF03F0C41EAB1
:1051F0000C011962D96921F44F41013821F0FF01F6
:10520000002D3BD002EB820202EB8202B0FBF2F2F5
:105210000132C2F30B02002A3DD042F440420A435D
:10522000DA61D4E907201968024321F0C0010A437A
:105230001A609968D4E9030221F40341024321F082
:10524000FF010A439A60D4E90520D968024321F09E
:10525000FF010A43DA601968002241F001012020B1
:105260001960226484F83D00226384F83E201046D1
:1052700038BD80F83C20FFF74DFF59E702EB4202B2
:10528000B0FBF2F20132C2F30B0222B142F400424F
:10529000C5E70422C3E70122C1E70120704700BF30
:1052A000A08601007F841E0083DE1B43FF083D00B3
:1052B000D34D62102DE9F047044682B099460A9E0C
:1052C00088469246FEF7AEFD94F83D30202B03D081
:1052D000022002B0BDE8F087054605E0FEF7A2FD1A
:1052E000401B192800F2F48022689169C94311F02B
:1052F0000207F3D094F83C30012BE9D0012384F865
:105300003C301368D90740F1DE801368934923F4D9
:1053100000631360212384F83D30102384F83E306D
:1053200000232364A4F82A90638DE1622385E36A55
:10533000C4F824A0082B06D0012B04D08B4202D045
:10534000236B122B03D1136843F480731360731C17
:1053500023D0002E00F054815369D80700F11D813D
:10536000FEF760FD401B86422268F5D20021202313
:10537000216384F83D3084F83E10236C84F83C109F
:1053800043F0200323641368DA0502D54FF4007359
:105390002364012002B0BDE8F0875369DF07FCD524
:1053A0002369B3F5804F40F0C68008F0FE03136117
:1053B00053699B0706D45369590500F1A6805369C8
:1053C0009B07F8D500230193536901939369B4F8BF
:1053D00028C00193019BBCF1000F67D0701C24D141
:1053E0005369190636D453695F05F9D500236FF464
:1053F000806020215061236384F83D1084F83E30A2
:10540000236C43F004032364236C0022042B84F8F0
:105410003C20BED12268136843F400731360B8E7E0
:10542000B4F828C0BCF1000F40D0002E00F0A080DE
:1054300053691B060CD453695F05D7D4FEF7F2FC01
:10544000431B9E42C0F09E80226853691B06F2D522
:10545000B4F828C0676A38460CF1FF3310F8011B16
:105460001161618D60620139618551699BB24907A3
:1054700023850BD553B17B781361638DACF1020C9E
:105480000237013BA4F828C067626385771C2CD1E2
:105490005369580705D453695B05A7D45369580766
:1054A000F9D5B4F828C0BCF1000F99D113680020D9
:1054B00043F400732021136084F83D1084F83C000D
:1054C00084F83E0005E7136843F0010313601CE70E
:1054D0002023276384F83D3084F83E70236C84F8E1
:1054E0003C7043F020032364F2E6002E38D0536969
:1054F000590795D453695B053FF578AFFEF792FCE9
:10550000431B9E423ED32268F1E7136843F40073C5
:10551000136000216FF4806020235061216384F8C0
:105520003D3084F83E10236C84F83C1043F00403B3
:10553000236401202EE74FEAE81303F0060343F04B
:10554000F003136102E053695805DED4536919076B
:10555000F9D55FFA88F3136131E700BF0000FFFF60
:1055600053695F0708D5B4F828C0BCF1000F9DD07F
:10557000536918063FF56EAF536958053FF536AFCE
:10558000FEF750FC00232022236384F83D2084F89A
:105590003E30236C1343236436E72369B3F5804F11
:1055A0002AD04FEAE81303F0060343F0F003136137
:1055B00053691B070BD453695F05A6D4FEF732FC71
:1055C000431B9E4237D3226853691B07F3D55FFA0A
:1055D00088F3136153699F073FF5F4AE536958058B
:1055E00093D4FEF71FFC431B9E4224D322685369C9
:1055F0009F073FF5E7AEF1E708F0FE031361E9E727
:105600005369D90703D4FEF70DFC2268AEE623697F
:10561000B3F5804F1DD04FEAE81303F0060343F0C3
:10562000F003136153691B071BD453695B053FF5F6
:105630006CAFFEF7F7FB00222023226384F83D3095
:1056400084F83E20236C84F83C2043F0200323643C
:105650009FE608F0FE031361536999073FF5B2AE68
:10566000E3E75FFA88F31361F6E700BF2DE9F0473F
:10567000044682B09A46BDF82C7088469146FEF7E3
:10568000D1FB94F83D30202B04D00227384602B0DD
:10569000BDE8F087054605E0FEF7C4FB401B19286E
:1056A00000F29E8020688369DB4313F00206F3D08A
:1056B00094F83C30012BE8D0012384F83C30036897
:1056C000DE0740F18280066826F4006606600A98CC
:1056D00060620C9800902120019584F83D004020E4
:1056E00084F83E00002020646785608D20855D4839
:1056F000E06253464A4641462046FFF76BFA0746AA
:1057000000BB228D2368002A34D00C9A511C4CD146
:105710005A6916061BD45A695005F9D500226FF450
:10572000806020215861226384F83D1084F83E2077
:10573000236C43F004032364236C0022042B84F8BD
:105740003C2047D00127384602B0BDE8F087606AA8
:10575000B4F828C0014611F8012B1A61668D616208
:10576000013E668559690CF1FF3292B24E072285DF
:1057700016D54AB90C9A511C4FD15A6952073FD4D9
:105780005A695005CAD4F8E741781961618DACF1C6
:10579000020C1FFA8CF202300139606222856185A9
:1057A000002AE7D00C9A511CB2D0002A46D05A6980
:1057B0001006CCD45A695105B0D4FEF733FB0C9ACD
:1057C000431B9A4243D32368F1E7036843F0010384
:1057D000036078E72268136843F400731360B1E74D
:1057E0002023266384F83D3084F83E60236C84F8DF
:1057F0003C6043F02003236447E75A69510720D5F2
:105800001A68002142F4007220201A6084F83D00DA
:1058100084F83C1084F83E1038E7002AEDD05A692D
:105820005607EDD45A6950053FF578AFFEF7FAFAFE
:105830000C9A431B9A420AD32368F0E75A6912066E
:1058400085D45A6952053FF569AFFEF7EBFA00239C
:105850002022236384F83D2084F83E30236C1343D8
:10586000236469E70000FFFF2DE9F04F044687B08D
:105870009B46BDF84470129D89469246FEF7D2FAC7
:1058800094F83D30202B04D00227384607B0BDE8FD
:10589000F08F064605E0FEF7C5FA801B192800F2D6
:1058A000AC8020688369DB4313F00208F3D094F8DE
:1058B0003C30012BE8D0012384F83C300368D90741
:1058C00052D5D0F800C02CF4006CC0F800C010987D
:1058D00060622220CDE9005684F83D00402084F823
:1058E0003E00002020646785608D20859548E06239
:1058F0005B46524649462046FFF78CFA0746002889
:105900002DD1228D2368002A33D102905A69029248
:105910009A690292029A1A6842F400721A6000238D
:10592000202284F83D2084F83C3084F83E30ACE7F7
:105930005A69520600F195805A69D10600F1178123
:10594000FEF770FA00222023226384F83D3084F8A9
:105950003E20236C84F83C2043F02003236401277D
:10596000384607B0BDE8F08F036843F001030360D9
:10597000A7E7012A00F01D81022A53D0059059693A
:105980000591996905910599032A5AD8012A00F0D1
:10599000DB80022A00F0AA80691C3CD0002D00F0B8
:1059A000FD805A69510708D4FEF73CFA801B8542F6
:1059B000C8D323685A695107F6D51A68616A22F478
:1059C00080621A601B690B70638D616A228D0131E0
:1059D000013A013B681C61622285638565D0002D18
:1059E00000F0E18022685369590700F1D580FEF785
:1059F00019FA801B8542F5D2A4E72023C4F8308031
:105A000084F83D3084F83E80236C84F83C8043F079
:105A10002003236438E75A695007CED45A695007E7
:105A2000F9D5CAE7196821F480611960196841F451
:105A3000006119600490596904919969049104996D
:105A4000A2E75DB974E75A69D00600F19080FEF7CD
:105A5000E9F9801B8542FFF475AF23685A69520645
:105A6000F1D5626A1B691370638D2068228D616AAB
:105A7000013B63854369013A92B201F1010C5B0776
:105A80002285C4F824C00BD503694B70636A228D4C
:105A900001336362638D013A92B2013B22856385D3
:105AA000002A3FF43CAF23686EE7226853695B0726
:105AB000FCD5136843F40073136013690B70628D97
:105AC000606A238D2168013A62850A69013B411CA5
:105AD000238561624270228D616A638D013A0131D2
