:020000040800F2
:10000000000003206DAB0008616100086361000817
:100010006561000867610008696100080000000070
:100020000000000000000000000000009112010824
:100030006B61000800000000E1120108351401089E
:10004000BDAB0008BDAB0008BDAB0008BDAB0008F0
:10005000BDAB0008BDAB0008BDAB0008BDAB0008E0
:10006000BDAB0008BDAB0008BDAB0008BDAB0008D0
:10007000BDAB0008BDAB0008BDAB0008BDAB0008C0
:10008000BDAB0008BDAB0008BDAB0008BDAB0008B0
:10009000BDAB0008BDAB0008BDAB0008896100081E
:1000A000BDAB0008BDAB0008BDAB0008BDAB000890
:1000B000BDAB0008BDAB0008BDAB0008BDAB000880
:1000C000BDAB0008BDAB0008BDAB0008BDAB000870
:1000D000BDAB0008BDAB0008BDAB00080DA5000816
:1000E000BDAB0008BDAB0008BDAB0008BDAB000850
:1000F000BDAB0008BDAB0008BDAB0008BDAB000840
:10010000BDAB0008BDAB0008BDAB0008BDAB00082F
:10011000BDAB0008BDAB0008BDAB00086D610008B9
:10012000BDAB0008BDAB0008BDAB00084D98000892
:10013000BDAB0008BDAB0008BDAB0008BDAB0008FF
:10014000BDAB0008BDAB0008BDAB00087D61000879
:10015000BDAB0008BDAB0008BDAB0008BDAB0008DF
:10016000BDAB0008BDAB0008BDAB0008BDAB0008CF
:10017000BDAB0008BDAB0008BDAB0008BDAB0008BF
:10018000BDAB0008BDAB0008BDAB0008BDAB0008AF
:10019000BDAB0008BDAB0008BDAB0008BDAB00089F
:0C01A000BDAB0008BDAB0008BDAB000803
:1001B00080F0004002E000BF81F0004142001FBF1C
:1001C0005FEA410392EA030F7FEA226C7FEA236C25
:1001D0006AD04FEA1262D2EB1363C1BFD21841401A
:1001E00048404140B8BF5B42192B88BF704710F0B0
:1001F000004F40F4000020F07F4018BF404211F053
:10020000004F41F4000121F07F4118BF494292EABA
:10021000030F3FD0A2F1010241FA03FC10EB0C00E6
:10022000C3F1200301FA03F100F0004302D5494273
:1002300060EB4000B0F5000F13D3B0F1807F06D320
:1002400040084FEA310102F10102FE2A51D2B1F118
:10025000004F40EBC25008BF20F0010040EA03000D
:100260007047490040EB0000013A28BFB0F5000F8D
:10027000EDD2B0FA80FCACF1080CB2EB0C0200FA43
:100280000CF0AABF00EBC25052421843BCBFD04092
:100290001843704792F0000F81F4000106BF80F40C
:1002A00000000132013BB5E74FEA41037FEA226CCF
:1002B00018BF7FEA236C21D092EA030F04D092F09A
:1002C000000F08BF0846704790EA010F1CBF0020CE
:1002D000704712F07F4F04D1400028BF40F000402B
:1002E000704712F100723CBF00F50000704700F04B
:1002F000004343F0FE4040F4000070477FEA226272
:1003000016BF08467FEA23630146420206BF5FEA42
:10031000412390EA010F40F4800070474FF0000342
:1003200004E000BF10F0004348BF40425FEA000C09
:1003300008BF704743F0964301464FF000001CE0B1
:1003400050EA010208BF70474FF000030AE000BF07
:1003500050EA010208BF704711F0004302D5404245
:1003600061EB41015FEA010C02BF844601460020B7
:1003700043F0B64308BFA3F18053A3F50003BCFAD2
:100380008CF2083AA3EBC25310DB01FA02FC63447F
:1003900000FA02FCC2F12002BCF1004F20FA02F286
:1003A00043EB020008BF20F00100704702F1200279
:1003B00001FA02FCC2F1200250EA4C0021FA02F2DA
:1003C00043EB020008BF20EADC7070474FF0FF0CDF
:1003D0001CEAD0521EBF1CEAD15392EA0C0F93EADA
:1003E0000C0F6FD01A4480EA010C400218BF5FEA7C
:1003F00041211ED04FF0006343EA501043EA5111EF
:10040000A0FB01310CF00040B1F5000F3EBF4900E8
:1004100041EAD3715B0040EA010062F17F02FD2AEC
:100420001DD8B3F1004F40EBC25008BF20F00100CF
:10043000704790F0000F0CF0004C08BF49024CEAE6
:10044000502040EA51207F3AC2BFD2F1FF0340EA78
:10045000C250704740F400004FF00003013A5DDCE9
:1004600012F1190FDCBF00F000407047C2F100022A
:10047000410021FA02F1C2F1200200FA02FC5FEA17
:10048000310040F1000053EA4C0308BF20EADC7061
:10049000704792F0000F00F0004C02BF400010F4D3
:1004A000000F013AF9D040EA0C0093F0000F01F080
:1004B000004C02BF490011F4000F013BF9D041EAA2
:1004C0000C018FE70CEAD15392EA0C0F18BF93EAA4
:1004D0000C0F0AD030F0004C18BF31F0004CD8D1CE
:1004E00080EA010000F00040704790F0000F17BF55
:1004F00090F0004F084691F0000F91F0004F14D09B
:1005000092EA0C0F01D142020FD193EA0C0F03D1F2
:100510004B0218BF084608D180EA010000F00040F5
:1005200040F0FE4040F40000704740F0FE4040F4D0
:10053000400070474FF0FF0C1CEAD0521EBF1CEA6F
:10054000D15392EA0C0F93EA0C0F69D0A2EB03028D
:1005500080EA010C49024FEA402037D04FF0805327
:1005600043EA111143EA10130CF000408B4238BFEC
:100570005B0042F17D024FF4000C8B4224BF5B1AFA
:1005800040EA0C00B3EB510F24BFA3EB510340EA48
:100590005C00B3EB910F24BFA3EB910340EA9C00F6
:1005A000B3EBD10F24BFA3EBD10340EADC001B0166
:1005B00018BF5FEA1C1CE0D1FD2A3FF650AF8B420A
:1005C00040EBC25008BF20F0010070470CF0004C17
:1005D0004CEA50207F32C2BFD2F1FF0340EAC25042
:1005E000704740F400004FF00003013A37E792F003
:1005F000000F00F0004C02BF400010F4000F013A61
:10060000F9D040EA0C0093F0000F01F0004C02BF5B
:10061000490011F4000F013BF9D041EA0C0195E7C4
:100620000CEAD15392EA0C0F08D142027FF47DAF5D
:1006300093EA0C0F7FF470AF084676E793EA0C0F4D
:1006400004D14B023FF44CAF08466EE730F0004C4B
:1006500018BF31F0004CCAD130F000427FF45CAFDB
:1006600031F000437FF43CAF5FE700BF4FF0FF3C49
:1006700006E000BF4FF0010C02E000BF4FF0010C9C
:100680004DF804CD4FEA40024FEA41037FEA226C65
:1006900018BF7FEA236C11D001B052EA530C18BF87
:1006A00090EA010F58BFB2EB030088BFC81738BFEC
:1006B0006FEAE17018BF40F0010070477FEA226CDA
:1006C00002D15FEA402C05D17FEA236CE4D15FEAD6
:1006D000412CE1D05DF8040B704700BF844608460A
:1006E0006146FFE70FB5FFF7C9FF002848BF10F1CB
:1006F000000F0FBD4DF808EDFFF7F4FF0CBF012010
:1007000000205DF808FB00BF4DF808EDFFF7EAFF99
:1007100034BF012000205DF808FB00BF4DF808ED54
:10072000FFF7E0FF94BF012000205DF808FB00BF49
:100730004DF808EDFFF7D2FF94BF012000205DF8CF
:1007400008FB00BF4DF808EDFFF7C8FF34BF0120DC
:1007500000205DF808FB00BF4FEA4002B2F1FE4FF7
:100760000FD34FF09E03B3EB12620DD94FEA002373
:1007700043F0004310F0004F23FA02F018BF40424C
:1007800070474FF00000704712F1610F01D1420233
:1007900005D110F0004008BF6FF0004070474FF0E7
:1007A0000000704753B94AB9002908BF00281CBF90
:1007B0004FF0FF314FF0FF3000F00CB8ADF1080CF6
:1007C0006DE904CE34F0DAF9DDF804E0DDE9022366
:1007D00004B07047704700BF10F8012B11F8013BBF
:1007E000012A28BF9A42F7D0D01A7047034613F85F
:1007F000012B002AFBD1181A0138704700000000B5
:1008000001F0FF01102A2BDB10F0070F08D010F8C1
:10081000013B013A8B422DD010F0070F42B3F6D1C5
:10082000F0B441EA012141EA014122F007047FF0DE
:1008300000070023F0E80256083C85EA010586EA35
:10084000010685FA47F5A3FA87F586FA47F6A5FA71
:1008500087F68EB9EED1F0BC01F0FF0102F007027D
:1008600032B110F8013B013A83EA010313B1F8D128
:100870000020704701387047002D06BF3546033809
:10088000073815F0010F07D1013015F4807F02BF42
:10089000013015F4C03F0130F0BC0138704700BF93
:1008A0000348044B834202D0034B03B118477047FF
:1008B000D0010020D0010020000000000548064BB8
:1008C0001B1AD90F01EBA301491002D0034B03B14E
:1008D00018477047D0010020D00100200000000020
:1008E00010B5064C237843B9FFF7DAFF044B13B178
:1008F0000448AFF300800123237010BDD001002015
:10090000000000008056030808B5054B1BB10549DF
:100910000548AFF30080BDE80840FFF7CFBF00BF38
:1009200000000000D4010020805603080244034662
:10093000934200D1704703F8011BF9E770B50D4BE6
:100940000D4C00261D1BB6EBA50F09D134F098FE07
:100950000A4C0B4B00261D1BB6EBA50F05D170BD35
:1009600054F8043B98470136EDE754F8043B9847A8
:100970000136F1E7F4290708F4290708F4290708E4
:10098000F82907087047704737B5002944D051F857
:10099000043C0190002BA1F10404B8BFE41800F05E
:1009A000DDF81E4A0198136833B96360146003B020
:1009B000BDE8304000F0D8B8A34208D925686119D5
:1009C0008B4201BF19685B6849192160EDE71A463F
:1009D0005B680BB1A342FAD911685518A5420BD137
:1009E000246821445418A3421160E0D11C685B685C
:1009F00053600C441460DAE702D90C230360D6E795
:100A0000256861198B4204BF19685B68636004BF85
:100A1000491921605460CAE703B030BD300300209B
:100A200070B50F4C0E462168054611B900F0A2F8CA
:100A300020603146284600F09DF8431C03D14FF05A
:100A4000FF34204670BDC41C24F00304A042F8D03B
:100A5000211A284600F08EF80130F2D1EFE700BFEE
:100A60002C0300202DE9F843CD1C25F003050835A3
:100A70000C2D38BF0C25002D064601DBA94204D9F8
:100A80000C2333600020BDE8F883334F00F066F894
:100A90003B681C463CBB29463046FFF7C1FF431C60
:100AA000044656D13C68A046B8F1000F40D1002C56
:100AB00049D023684146304604EB030900F05AF858
:100AC000814540D121686D1A29463046FFF7A8FFBD
:100AD000013038D023682B4423603B685A685ABBE6
:100AE000C7F800800EE02268521B1ED40B2A16D9CC
:100AF0006119A342256018BF5960636808BF396057
:100B000062514B60304600F02FF804F10B00231DBA
:100B100020F00700C21A1CBF1B1AA350B3E762687B
:100B2000A3420CBF3A605A60ECE723466468B1E721
:100B30004446D8F80480B7E71A465B68A342FBD165
:100B400000235360DEE70C233360304600F00CF8DE
:100B500098E70560D6E700BF300300200148FFF7A3
:100B600011BF00BF280300200148FFF70CBF00BFE2
:100B70002803002038B5064C0023054608462360AC
:100B800005F00AFB431C02D1236803B12B6038BD7A
:100B900024030020030A420923F4FF6323F0070320
:100BA00002F4FC6213439BB2C0F3C40018437047C5
:100BB00070B504460D46164620F02CFE32462946F6
:100BC000204620F02EFE32462946204620F014FE14
:100BD00032462946204620F016FE70BD38B5044640
:100BE00010211BF0EFFF00252A464FF000012046A0
:100BF00020F01EFE2A46FF21204620F020FE2A4635
:100C000029462046FFF7D4FF38BD000010B500206C
:100C10002DF05EFF1C4C208000202DF070FF1B4B40
:100C20001880B4F90030002B15DD002816DD174BB5
:100C3000B3F800C0ACF16A031BB21D2B00DC1E230D
:100C4000143B134981FB0321A1EBE37109B2114B62
:100C5000198000220FE001222280E6E70B4B0122DF
:100C60001A80E4E701F10A0312FB03F32A330A486E
:100C700020F812300132022AF4DDACF1380C074BB7
:100C8000A3F800C010BD00BF400300203E030020B9
:100C900056555555360300203803002034030020F4
:100CA00008B52DF00FFF19F013F808BD08B50A4B71
:100CB000186820B130F0CAFB074B00221A60FFF71A
:100CC000EFFF20F0D5FE5C2200210448FFF72EFE46
:100CD000034B00221A7008BDA40300204403002027
:100CE000A1030020F8B50F4616461D4633F010F854
:100CF00004460022294620F0BEFD0698FFF74AFF71
:100D000001460022204620F0AFFD00221146204679
:100D100020F095FD002211462046FFF749FF079974
:100D2000204633F09BFB3246394620461CF064FFD8
:100D30002046F8BD30B583B00D4606990191009369
:100D400013462A460021FFF7CDFF0446084BB3F9AE
:100D500000101CF05BFF00220221204620F092FDD3
:100D60002A46002120461CF047FF204603B030BD34
:100D70004003002030B583B00446FFF791FF0546DD
:100D8000FFF794FFFFF742FF2846FFF727FF6CB1FC
:100D90000094074B074A00212846FFF7CBFF0023AA
:100DA0001A4609211CF0BEFF03B030BD024CEFE72C
:100DB000DCD6D20050C70308AC5F0308034B1B7896
:100DC00013B1034B01221A70704700BFA10300202A
:100DD000A0030020002846D070B514461D46844666
:100DE000002943D0002A44D0002B45D00378FF2BA4
:100DF00045D1407800F0E003E02B43D1C0F3C103BC
:100E00009CF80220C2F3810E12099CF803C04FEA3D
:100E10009C1C664600F00600022836D1032B18D031
:100E2000022B1AD0A3BB03464FF0010C0EEB830E2E
:100E30001C4B33F81E3073B302EB0C1C1A4A32F809
:100E40001C205AB30B60032E0BD020702A600020A8
:100E500070BD4FF0000C6346E8E74FF0010C6346AD
:100E6000E4E70120F1E74FF0FF3070474FF0FF302B
:100E7000EEE74FF0FF30EBE74FF0FF30E8E74FF0E1
:100E8000FF30E5E74FF0FF30E2E74FF0FF30DFE7FC
:100E90004FF0FF30DCE74FF0FF30D9E74FF0FF3085
:100EA000D6E700BF68730308287303082DE9F041F3
:100EB00082B0054690F8586290F85932DB0803FB7F
:100EC00006F6D0F86C72D0F870329F4209D9884685
:100ED000FF1AB7FBF6F7974228BF17460FB1002459
:100EE00028E0012385F88D320024204602B0BDE8B9
:100EF000F081012385F88D32F7E7012385F88D32E3
:100F0000F3E7324B1B788DF8003095F85822012A10
:100F100035D92E4A50788DF80100803B1B021BB258
:100F20008038000200B2A20028F82430931C28F870
:100F300003000134BC4226D2B6F5807FDDD801AB78
:100F400032462249284618F09BF80028D1D1019B4F
:100F5000B342CED195F85932082BD2D01B4A137820
:100F60005278120212B2134395F85822012A08D976
:100F7000164A9078D278120212B21043D3E718467C
:100F8000C9E71846CFE7D5F8702207FB0622C5F857
:100F90007022D5F86C329A4202D3012385F88D3243
:100FA000D5F8543295F8581201FB03F395F859120D
:100FB000C90801FB03F32BB14FF47A7101FB02F274
:100FC000B2FBF3F3C5F864323C468EE7A803002079
:100FD00098B3F8B50C46054649B3FFF707FC07463A
:100FE0002046FFF703FC0646874222D3381A002327
:100FF00002E094451FD10133B34216D2C21815F84E
:1010000002C0E25CACF14101C9B2192903D80CF16C
:10101000200C5FFA8CFCA2F1410E5FFA8EFEBEF14D
:10102000190FE6D82032D2B2E3E7012002E00846E9
:1010300000E00020F8BD0020FCE7704770B58CB0E0
:1010400005460022002318F0DFFA0BAB0C2208A99A
:10105000284618F015F8002840F0C8800B9B0C2B90
:1010600040F0C88004226B4908A833F0A5FF00288F
:1010700040F0C480042268490AA833F09DFF064668
:1010800000284AD04FF0FF331E46ACE00BAB1022D5
:1010900002A9284617F0F4FF002877D10B9B102BEC
:1010A00074D19DF808109DF8093041EA03219DF89C
:1010B0000A309DF80B2043EA02230FFA83FC1846FE
:1010C0009DF80C309DF80D2043EA02239DF80E2078
:1010D00043EA02439DF80F2043EA02639DF816207D
:1010E0009DF817E042EA0E2212B201294BD10028E6
:1010F00050D05FFA8CF185F85812C5F8543285F853
:101100005922AA6BC5F868222346102C38BF102339
:10111000103BC5F86C32102C3ED80BAB0822694648
:10112000284617F0ADFF002843D10B9B082B40D178
:101130009DF804309DF8052043EA02239DF806201F
:1011400043EA02439DF8072043EA0264009B0693AA
:101150008DF81C0004223149684633F02DFF002829
:1011600094D004222E49684633F026FFD0B1621C89
:1011700022F00102A96BEB6B521843F100032846E1
:1011800018F042FAC9E7274803F038FE4FF0FF3362
:101190001E4628E00121AEE71A440023284618F035
:1011A00033FABAE7AB6BC5F86832C5F86C42C5F8DC
:1011B0007002D5F868322BB3D5F8543233B395F8B2
:1011C000582202FB03F395F85922D20802FB03F3DD
:1011D0003BB1D5F86C224FF47A7101FB02F2B2FBFD
:1011E000F3F3C5F8603230460CB070BD4FF0FF33FA
:1011F0001E46F8E74FF0FF331E46F4E74FF0FF338B
:101200001E46F0E74FF0FF331E46ECE74FF0FF338A
:101210001E46E8E7FC560308045703080C5703086A
:10122000305703081457030838B50446D0F8801225
:101230000B4618460133D4F87C2293420FD2D4F8DF
:10124000782212F800C0BCF1FF0FF2D1D25C02F09C
:10125000E002E02AEDD1C4F88002012008E079B173
:10126000531A1D4605D1C4F87C520020C4F88002F0
:1012700038BDD4F878021A46014433F0ADFEF2E7E7
:101280000846F5E72DE9F04188B004460E461746BA
:10129000002542E0C4F87C820023C4F8803294F830
:1012A0008D32002B52D1544A136801331360D4F8A5
:1012B0007802D4F87C1202ABC1F58052014420467A
:1012C00017F0DEFE00283ED1D4F87C32029A134497
:1012D000C4F87C3212B9012384F88D32D4F87C2210
:1012E000D4F88012D4F8780202AB0093434B1B6809
:1012F000521A0144D4F8740202F0D3FE002836DCFE
:10130000029B002B5EDDD4F880221A44C4F88022B0
:10131000D4F884221344C4F88432BD4216D2D4F8DF
:101320008012D4F87C229142D8D300230293002962
:10133000B5D0B2EB0108ADD0D4F8780242460144F2
:1013400033F04AFEA6E7012384F88D32D4F88822D0
:101350004AB1D4F884324FF4FA5101FB03F3B3FBE2
:10136000F2F3C4F86432284608B0BDE8F081D4F83E
:101370008022029B1A44C4F88022D4F884221344A9
:10138000C4F8843294F85832B0FBF3FC002307E031
:101390007246A80026F825E00230325201350133AA
:1013A0006345BAD2BD42B8D2144A116894F85822A3
:1013B00003FB02F031F910E0012AE9D9013031F9DB
:1013C0001020E6E72046FFF72FFF40B994F88D3252
:1013D000002BBBD1C4F88032C4F87C329DE7D4F82E
:1013E00080320133C4F88032D4F87C22934294D303
:1013F000C4F8802291E700BFAC040020B8040020AC
:1014000070B586B0002800F054810D4604460029CE
:1014100000F053814FF424720021FFF787FA2E2148
:10142000284633F000FE50B3A6492846FFF7D0FD0A
:1014300020B9A5492846FFF7CBFDD0B1012384F898
:10144000503201222946204617F078FC0246F0B9B6
:101450002369C4F85C3294F850323BBB2046FFF756
:10146000EDFD0646D8B9012384F85132304606B066
:1014700070BD96492846FFF7ABFD0028E1D129460B
:10148000934803F0BBFC4FF0FF331E46EEE72946BE
:10149000904803F0B3FC4FF0FF331E46E6E72046CA
:1014A00018F0A2F84FF0FF331E46DFE741F60C209C
:1014B00010F0F8F8C4F874024FF4805010F0F2F80D
:1014C000C4F878024FF4905010F0ECF80346824ACA
:1014D0001060D4F87402002862D0D4F87822002A70
:1014E0005ED0002B5CD041F60C220021FFF71EFAE3
:1014F0000023059305AB4FF48052D4F878122046B0
:1015000017F0BEFD00286AD1059BC4F87C32C4F8F0
:101510008002C4F88402D4F8740202F0BCFD2046B4
:10152000FFF782FE002873D00023039302228DF878
:101530000B200493D4F87C32D4F880021B1A032BBE
:1015400040F2828004AB0DF10B0203A9D4F878C2FB
:101550006044FFF73FFC0646002840F091809DF86C
:101560000B3084F85832039AC4F85422102184F8BE
:1015700059120499C4F8881249B1D4F85C024FF4A6
:10158000FA5C0CFB00F0B0FBF1F0C4F86002012043
:1015900084F8510200912946504803F02FFC65E77A
:1015A000D4F8782201464E4803F028FC204618F073
:1015B0001BF8D4F8740210F019F90025C4F874521D
:1015C000D4F8780210F012F9C4F87852424C20682E
:1015D00010F00CF925604FF0FF331E4646E7204619
:1015E00018F002F8D4F8740210F000F90025C4F8DD
:1015F0007452D4F8780210F0F9F8C4F87852364CE6
:10160000206810F0F3F825604FF0FF331E462DE7F9
:10161000344803F0F3FB204617F0E6FFD4F87402D9
:1016200010F0E4F80025C4F87452D4F8780210F0F1
:10163000DDF8C4F87852284C206810F0D7F82560FF
:101640004FF0FF331E4611E7274803F0D7FB204633
:1016500017F0CAFFD4F8740210F0C8F80025C4F8D7
:101660007452D4F8780210F0C1F8C4F878521A4CC9
:10167000206810F0BBF825604FF0FF331E46F5E6FA
:101680001A4803F0BBFB204617F0AEFFD4F87402F3
:1016900010F0ACF80025C4F87452D4F8780210F0B9
:1016A000A5F8C4F878520C4C206810F09FF825601B
:1016B000E2E74FF0FF331E46D8E64FF0FF331E46F9
:1016C000D4E600BF385703084057030848570308BB
:1016D0005057030874570308B804002044580308FF
:1016E00094570308CC570308F05703081C58030805
:1016F00030B310B5044690F8513203B910BD17F05D
:1017000073FFD4F8740220B110F070F80023C4F80D
:101710007432D4F8780220B110F068F80023C4F8CD
:101720007832084B186820B110F060F8054B0022A1
:101730001A604FF4247200212046FFF7F7F8DDE726
:10174000704700BFB804002038B51C46F0B105460C
:1017500090F85132D3B1C9B1DCB190F88D32DBB918
:1017600090F85032DBB9FFF7A1FB0E4A1368013342
:1017700013600D4A13680344136095F88D3213B15A
:101780000A4B01221A602060002038BD0CB10023F2
:1017900023604FF0FF30F8E700202060F5E7FFF707
:1017A00071FDE2E7B4040020B0040020A80400208A
:1017B000002800F0A28038B5044690F85132002B82
:1017C00000F09E80642900D9642194F85052002DC5
:1017D0004BD0D4F85C02A1FB0010C1F313030A0D37
:1017E00042EA0032C2F313021344C0F3132213443B
:1017F00003EB1073444AA2FB0352D20802EB8202AD
:1018000002EB82029B1AC91A60F100003F4A404B6A
:1018100001FB03F302FB0033A1FB021213448A080D
:1018200042EA837215460023204617F0EDFED4F8F5
:10183000740208B102F02FFC0023C4F88032C4F80F
:101840007C32C4F88452012284F88C2284F88D32D0
:10185000D4F888322BB14FF4FA5202FB05F5B5FBF0
:10186000F3F3C4F86432002038BD94F8580294F8B9
:101870005932DB0803FB00F0D4F86C32A1FB031CE7
:10188000C1F313030A0D42EA0C32C2F313021344EC
:10189000CCF31322134403EB1C731B4AA2FB03E299
:1018A000D20802EB820202EB82029B1AC91A6CF187
:1018B000000C164A164B01FB03F302FB0C33A1FB91
:1018C000021213448A0842EA8372B2FBF0F200FB70
:1018D00002F2C4F87022D4F868321A442B4620462B
:1018E00017F092FED4F87022D4F86C329A4200D3EA
:1018F000012584F88D520020B6E74FF0FF30704785
:101900004FF0FF30B0E700BF1F85EB51295C8FC25D
:10191000F5285C8F016000234360D200826070472D
:1019200030B5426802F0070E01EB0E0C0468D510CA
:1019300004EBE2030A44426081688A4219DC013305
:10194000625DFF2141FA0EF10A404FF0000E05E002
:101950008A404EEA020E13F8012B8C46ACF10801C6
:101960000029F5DCCCF1080C22FA0CF040EA0E005C
:1019700030BD0020FCE70378FF2B01D0002070472A
:10198000437803F0F002F02A05D003F0FE02E22AC9
:1019900001D00020704713F0060F0BD083781A098E
:1019A0000F2A09D0C3F38103032B01D00120704714
:1019B00000207047002070470020704738B505466A
:1019C0000C460846FFF7D7FF28B16B786278534082
:1019D000012B01D9002038BDAA78A37882EA03013F
:1019E00011F00C0F0DD10F2A94BF002201220F2BF2
:1019F0008CBF002301239A4201D00120EBE7002095
:101A0000E9E70020E7E700004378C3F3C002C3F32F
:101A10004103013B81780909C3EB031302EB420246
:101A2000C2EB02121344024A1344585C4000704750
:101A3000A48F03088378C3F38103084A52F8232054
:101A40004378C3F3C00181F0010122FA01F0C3F32E
:101A5000001383F00103D840704700BF00900308D3
:101A6000437803F00602062A09D003F00E03022B86
:101A700002D04FF4906070474FF4107070474FF4ED
:101A8000C070704770B505460E46FFF7E9FF044683
:101A90002846FFF7B9FF00FB04F3C3EB431203EB47
:101AA00082042846FFF7C6FFB4FBF0F319466A78B4
:101AB00002F00602062A03D001B10E46304670BD80
:101AC00023F00301F8E7837813F0020F08D043787E
:101AD00003F00603062B01D0012070470420704755
:101AE00000207047F8B50C46C3789D09032D23D01C
:101AF000012D1AD020231F46437803F00602062A40
:101B00001DD013F0080F30D08378C3F38106FFF7A0
:101B10007BFFEB1E18BF0123D8401BD037281AD8F3
:101B2000022E14D00822164821E01B099B0003F066
:101B30000C0304331F46DFE700231F46DCE72023A6
:101B400084F800330F48FBB284F80133F8BD0C224F
:101B50000B480CE0C0205F280FD9012E02D01E22B6
:101B6000094804E01B22084801E01E220748D3B2BE
:101B700084F80033BA42E7DBE5E71B220248F6E7C8
:101B80007878030898780308807803088C7803082D
:101B90002DE9F04F83B083460E4601929A46002706
:101BA00029E0454635E00C9B43F8040B64100C9388
:101BB00004B32C42F7D006215846FFF7B1FEA8F136
:101BC000020303EB4302164B83FB0013A3EBE0730A
:101BD000194603EB4303C31A1344124A52F82390E5
:101BE0004FF400100841FEF79DFB01464846FEF702
:101BF000EDFBD8E7013757450EDA16F8018BB8F13F
:101C0000000FCED0019BDB5D13251D4105F00305C0
:101C1000043500200424CBE703B0BDE8F08F00BFFB
:101C200056555555A07703082DE9F04F85B0039020
:101C3000884614461146FFF755FF8346364F4FF04E
:101C40000009CA464D4614E09BF802309A449BF8BE
:101C500001901BF8037B304B1F4410E0494640467F
:101C6000FFF75EFE3A5C18E00136264486F8023340
:101C7000013594F80033AB4215DD5545E4D04946B3
:101C80004046FFF74DFE3A5C6E0004EB450383F8D7
:101C9000022394F80133AB42E0DC94F80133002BCB
:101CA000E2D01346E0E700250AE002214046FFF7B4
:101CB00037FEC0B200E00620631983F84203013505
:101CC00094F800235300B5EB420F0CDA631993F834
:101CD0000233002BEFD0039B5B7803F00603062B47
:101CE000E3D10220E8E7009404F2423204F2023128
:101CF0004046FFF74DFF94F8012306E053000133FF
:101D00002344002183F80213013294F800339342F4
:101D1000F4DC05B0BDE8F08F9C7803082DE9F04FA6
:101D200085B08B4601921F464FF4107A4FF00009A0
:101D3000039048E049465846FFF7F2FD801BFEF746
:101D4000F1FA44F825000135BD42F3DB04EB8A04C7
:101D5000CAF1120A08F10108019B93F80033B8EBAD
:101D6000430F2CDA019B434493F80293B9F1000F1F
:101D7000ECD0B9F1100F06DC09F1FF3201269640D4
:101D8000013E0025E0E7A9F1110302269E4001363D
:101D9000A6EBD60102315846FFF7C2FD00250BE045
:101DA000B0FBF6F906FB1900A0EB5600FEF7BAFAF5
:101DB00044F8250001354846BD42F1DBC6E7DDF8B1
:101DC000089009F10109B9F1030F09DC07FB09F4D7
:101DD000039B03EB84044FF00008CDF80890BBE7A9
:101DE000B80005B0BDE8F08F2DE9F04F83B005468F
:101DF0000C46914692F80280C8F381085278C2F3EB
:101E0000C003C2F300110B4403EB430318EB0308B8
:101E100014BF01230023A8EB030899F8033003F053
:101E2000C003C02B14D04FF0020A12F0080F12D0DA
:101E30004FEA4A0A09212846FFF772FD01900AF18C
:101E400007012846FFF76CFD07464FF0000B6DE0D9
:101E50004FF0010AE9E70AF108012846FFF760FDA3
:101E600020FA0AF301930027EFE73F0164E009211C
:101E70007DE027F0F0073F053F0D58B90823A37414
:101E800008EB8802694B03EBC203236060732723CE
:101E9000A37397E008EB8802654B03EBC203236052
:101EA00099F8013013F0080F04D0082363731E2340
:101EB000A37387E00623F9E7E07220730F21284619
:101EC000FFF72EFD064604212846FFF729FDA074E2
:101ED00003212846FFF724FDE074FF232375C6F392
:101EE0008723E373C6F34413237406F01F06667456
:101EF00099F8013013F0080F79D12089B0F5FA7FF5
:101F000034BF00200120207601212846FFF708FD7C
:101F1000607601212846FFF703FDA076C7F303335F
:101F2000E3763F011C34BAF1010A66D099F8033018
:101F300003F0C003C02B98D00C212846FFF7F0FC1B
:101F400080B2A080834409212846FFF7E9FC80B2D3
:101F5000E080B0F5907F5DD808212846FFF7E0FCCF
:101F6000A07299F8013013F0080F80D004212846A0
:101F7000FFF7D6FC208108EB4803C8EBC3032D4ACA
:101F800013442360162363730023A373012128469F
:101F9000FFF7C6FC00288FD002212846FFF7C0FCBF
:101FA000C0B2E07200283CD001212846FFF7B8FCFF
:101FB000C0B220730723A374FF23E374E37A022BD8
:101FC0003FF457AF0A212846FFF7AAFC4601032138
:101FD0002846FFF7A5FC607503212846FFF7A0FC03
:101FE000A07503212846FFF79BFCE07577E70121E8
:101FF0002846FFF795FCC0B285E76B6803EB0B0240
:10200000AB68019903EBC1039A4206DD4FF0FF3341
:10201000019302E04FF0FF330193019803B0BDE854
:10202000F08F4FF0FF330193F7E700BFAC8D03084B
:102030006C8C0308EC8E0308F8B504460D462E465A
:10204000782DA8BF782606F003020A4B53F82270B9
:10205000B3104FF080401841FEF764F93946FEF79F
:10206000B5F901462046FEF7B1F90446AD1B002D37
:10207000E5DCF8BDD48B0308F8B50446802837DDCD
:10208000B0F5806F39DAC40010231F46650005F0F3
:10209000400504F03F00401BFEF744F9064624F0DB
:1020A0003F002844FEF73EF901463046FEF742FA6B
:1020B00006462C44A4111034124B53F82440124904
:1020C000FEF784F91149FEF779F83146FEF77EF9FB
:1020D0004FF07E51FEF772F801462046FEF776F982
:1020E00004463846FEF71EF92146FEF76FF9F8BDA3
:1020F0001034044B53F82400F9E74FF480731F4663
:10210000C4E700BF0C900308398E633EABAAAA3F18
:102110002DE9F04F8DB080468E4693469C46169A28
:10212000BBF80610DBF80060DEF80040DEF80400C3
:102130000346002821DBDD1004EBE303645D5D78DA
:1021400005EB04259C7804EB0524DD7805EB0425DC
:1021500000F007008540A0F1080403F104094FF0E6
:10216000000A002301935346CDF82CE08E46CDF8AB
:1021700028B0E24616923246FDE0C31DDBE78D40F3
:102180000C4406F00701C1F1200225FA02F2A2EB8D
:10219000E6063BF91660002EF1DB31128D400C444F
:1021A0004FF0000A029703932DE019F8013BA3407A
:1021B0001D43083C002CF8DA3846FFF75DFF019913
:1021C000FEF704F9002D06DB4FF07E51FEF7FEF816
:1021D000C8F800000DE0BB49F8E7EB0FA7EB0313CD
:1021E00010330199B84A52F82300FEF7EFF8C8F807
:1021F0000000003F18BF0127BD403C440AF1010A1E
:1022000008F104083611BAF1010F0CDC06F00F07D3
:102210000F2FE2D1049AC2F1200325FA03F31F44E1
:1022200095401444C6E7029F039B04E019F8012B74
:10223000A2401543083C002CF8DA013B04D0E90E1B
:102240003BF911600521A6E7BE460599069E5A4650
:10225000079FDDF820A0AEEB070EBEF1000F40F3A4
:102260008880013E14D40B7801315F08F346BE45E7
:10227000A8BFBB46DAF8003001930AF1040A0591C1
:102280005B460696934607977746CDF820A0D6E79B
:102290000A466FE0134672460896BE4652E09540E5
:1022A000144406F00702C2F1200325FA03F3A3EB5E
:1022B000E6063EF91660002EF1DB3212954014441A
:1022C000DDF810B0CDF80890F24618E006F00F09DE
:1022D000EB0FA9EB0313103301997B4A52F823004B
:1022E000FEF774F848F8040BB9F1000918BF4FF075
:1022F000010905FA09F54C440BF1010B3611BBF14C
:10230000010FE3DDDDF80890D64604E019F8013B43
:10231000A3401D43083C002CF8DA013F04D0EA0E2C
:102320003EF912600522C6E7039A059BDDF818B056
:10233000DDF81CA0A2EB0B02002A34DD089901395C
:10234000089113D41F7801334FEA570B17465A45AB
:10235000A8BF5F46DAF8001001910AF1040A03925F
:102360000593CDF818B0CDF81CA0D8E796461A46CC
:1023700000E00A46099BBEF1000F17DD0A99CE184E
:10238000F07B01330993B67C504B33F91070504BFE
:1023900003EB47074F4B1B5C0493002B3FF47AAFD2
:1023A00011463A465FE796461A46E3E771461646F7
:1023B000DDF82CE0DDF828B0D446169AC1F1010111
:1023C000019F019617E0DFF810A11AE007F1004322
:1023D00045E007F100434CE007F100435DE007F101
:1023E000004364E019F8013BA3401D43083C002C66
:1023F000F8DA08F110089BF81A30002BE3D0DFF868
:10240000DCA02B0F1AF80360304616F0080F09D134
:102410002B0106F00300C0F12000C34003EBE603EC
:102420001AF8030000F007039D401C44DEF800305A
:10243000A9EB0303033B04EBC30393423CDC0139E8
:1024400007D1019B13F8011B490835D05CF8047BC8
:10245000019310F0800F06D0002DB7DB3B46C8F883
:1024600000306D00013410F0400F06D0002DB0DBBD
:102470003B46C8F804306D000134013907D1019B97
:1024800013F8011B490817D05CF8047B019310F086
:10249000200F06D0002D9FDB3B46C8F808306D00AA
:1024A000013410F0100FA2D0002D98DB3B46C8F885
:1024B0000C306D0001349AE7CEF804200DB0BDE871
:1024C000F08F00BF000080BF0C900308948B0308BE
:1024D000AC7A03088C7A0308607A03087C7A0308D4
:1024E0002DE9F8430746894600F51068002410E0FE
:1024F00057F8245058F8246031462846FDF75EFE10
:1025000047F8240031462846FDF756FE48F82400D7
:1025100001344C45ECDBBDE8F8832DE9F843054672
:102520000F4691469846002410E004F51076414687
:1025300055F82400FDF74AFF45F82600494655F8AE
:102540002400FDF743FF45F824000134BC42ECDBD6
:10255000BDE8F8832DE9F04706460F4691469A46B6
:102560004FF0FF33CAF80830CAF80430CAF8003018
:1025700000250EE0154B83FB0523A3EBE57303EB6E
:102580004303EB1A4AF8235098F8003006EB830611
:1025900001354D4517DA002407EB05087B5DA342A2
:1025A000F2DD002156F82400FEF7A4F80028E1D05F
:1025B00004F1010C002156F82C00FEF79BF80028CE
:1025C000D8D00234E8E7BDE8F08700BF565555552E
:1025D0002DE9F04F85B005468A4690469B465B78CC
:1025E00013F0080F03D007230293002423E04023B5
:1025F0000293FAE74FF07E5301933BE0791C4908C0
:102600000F9B99404FF07E50FFF716FD039017F097
:10261000010F03D14FF07E53039338E04FF07E500B
:1026200035E09BF8033013F0200F3FD199F80030CC
:1026300005EB8305013408EB040918F80460002E4B
:1026400039D01AF804701D4AA2FB043222F00103AB
:1026500003EB5203E31A0E9A52F82330A342E0DA56
:10266000029BBB42DDD99BF8033013F0200FC1D091
:10267000134B01939BF8013013F0080FBED07F007D
:10268000104B53F827200392013753F82700019984
:10269000FDF79CFE074601990398FDF797FE024659
:1026A0003B4631462846FFF738FFBFE7314628460C
:1026B000FFF716FFBAE705B0BDE8F08FABAAAAAAEC
:1026C000F304B53F287A03082DE9F04387B081462B
:1026D0000E4615461F4692F80D80937B9844C3B171
:1026E000032403AB4246296809F51060FFF732FF67
:1026F0006B7B5BB1039B049A9342B8BF1346059A68
:102700009342B8BF13460593049303934FF0000C14
:1027100008E00124E5E700230BE0DBB206F80E3009
:102720000CF1010CA44512DA7B7813F0080FF2D0FB
:102730000323A8EB040EE644AEEB040206A901EB6A
:102740008C0151F80C1C9142E7DAB35CE6E7AB8CE4
:1027500003F00103019303AB00933B462A68314623
:102760004846FFF735FF07B0BDE8F0832DE9F04F8D
:1027700083B00546019134E004F1120B55F82BA00B
:10278000C4F1110655F82680DFF8689059F82470D6
:1027900051463846FDF71AFE009004F1080359F837
:1027A000239041464846FDF711FE01460098FDF78B
:1027B00003FD45F82B0051464846FDF707FE8146CC
:1027C00041463846FDF702FE01464846FDF7F6FC55
:1027D00045F826000134072CCEDD019B013B019317
:1027E0004835019B002B01DD0024F4E703B0BDE870
:1027F000F08F00BFE87903082DE9F04F85B004465B
:10280000D0F80090D0F808800669D0F818A0076AC0
:102810004FF07C515046FDF7D9FD4946FDF7CEFCFF
:10282000054651464846FDF7C7FC834631464046BB
:10283000FDF7C4FC5A49FDF7C9FD824639464046BA
:10284000FDF7BCFC5749FDF7C1FD00903946304605
:10285000FDF7B2FC5449FDF7B9FD814641463846C3
:10286000FDF7AAFC3146FDF7A9FC06464FF07C5166
:10287000FDF7ACFD01465F465846FDF79DFC8346DB
:1028800031463846FDF79AFC2061009E31462846C5
:10289000FDF792FC4946FDF791FC07465146284654
:1028A000FDF78AFC3146FDF789FC804651462846F3
:1028B000FDF784FC4946FDF77FFC0090D4F80490B6
:1028C000D4F814A0E6693949E068FDF77FFD0546B4
:1028D00051464846FDF772FC3549FDF777FD0390F8
:1028E00031465046FDF768FC3249FDF76FFD019017
:1028F00031464846FDF762FC2F49FDF767FD02901F
:1029000051464846FDF758FC3146FDF755FC27492E
:10291000FDF75CFD81462946039E3046FDF74CFCE1
:102920000299FDF749FC824629460198FDF744FCCF
:102930003146FDF741FC064601992846FDF73EFC6D
:102940000299FDF739FC054631460098FDF734FC45
:10295000206049465846FDF731FC606029464046F4
:10296000FDF72AFCA06051463846FDF727FCE060E1
:1029700051463846FDF720FC606129464046FDF788
:102980001DFCA06149465846FDF716FCE061314642
:102990000098FDF713FC206205B0BDE8F08F00BF82
:1029A000B28F703F7D1B443FD4D0313ED7B35D3FE3
:1029B0005C1C7C3F441DAF3EBB8D243F2DE9F04F96
:1029C00099B08246019117461D464FF00009CDF897
:1029D0001090C1E0340104F1040904F1080BC6F1C0
:1029E00004075AF80B105AF80900FDF7E5FB18AB7D
:1029F00003EBC70747F8240C770007F101085AF8E2
:102A00000B105AF80900FDF7D9FB18AB03EB880847
:102A100048F8480C06F101084FEA08160C34C7F1D3
:102A200007075AF804105AF80600FDF7C5FB18AB63
:102A300003EB870747F8240C5AF806105AF80400ED
:102A4000FDF7BCFB464600F1004018AB03EBC8089D
:102A500048F8480C032EBDDD009F06A8FFF7CCFE0A
:102A60000FA8FFF7C9FE109B03F100431093129BC0
:102A700003F100431293149B03F100431493169B3C
:102A800003F1004316930024CDF80CA0059556E001
:102A9000019B53F8248018AA02EB840959F848AC2A
:102AA00004F10906354D55F826200092114650468E
:102AB000FDF78CFC029059F8249C55F824B0594637
:102AC0004846FDF783FC01460298FDF777FB054673
:102AD00059465046FDF77AFC824649460098FDF774
:102AE00075FC01465046FDF767FB019B43F8240047
:102AF000414657F82400FDF769FC8146294657F8FE
:102B00002600FDF763FC01464846FDF755FBDDF85E
:102B10000C9049F82400414657F82600FDF756FC72
:102B20000646294657F82400FDF750FC0146C4F13B
:102B300011053046FDF742FB49F825000134082C09
:102B4000A6DDDDF80CA0059D049B013304930AF17A
:102B5000480A019B24330193049BAB420ADADAF85A
:102B6000003003F100430693DAF844300F93002657
:102B700000976FE719B0BDE8F08F00BFF878030841
:102B80002DE9F0410646084690461C460F49FDF7E0
:102B90001DFC05464FF07C514046FDF717FC0146F1
:102BA00037463046FDF708FB064639464046FDF7F6
:102BB00005FB606031462846FDF700FB2060294692
:102BC0003046FDF7F9FAA060BDE8F081D7B35D3F6C
:102BD0002DE9F04F8BB00446039101920568876997
:102BE000D0F80C80416A006BFDF7E8FA06464146D2
:102BF0003846FDF7E3FA014605F1004007AB3246DF
:102C0000FFF7BEFF266B676AE168A069FDF7D4FA9B
:102C1000054639463046FDF7CFFA014604AB2A4651
:102C2000E06BFFF7ADFF059B03F100430593002424
:102C300056E0019B53F824700AAA02EB840555F86C
:102C40000CACE31C294E56F8238041465046FDF754
:102C5000BDFB029055F8189C56F824B059464846DA
:102C6000FDF7B4FB01460298FDF7A8FA0546594660
:102C70005046FDF7ABFB824649464046FDF7A6FBB2
:102C800001465046FDF798FA019B43F82400C4F131
:102C9000020356F8239039464846FDF797FB8246D3
:102CA000C4F1050856F8286029463046FDF78EFB2A
:102CB00001465046FDF780FADDF80CA04AF82400E2
:102CC00039463046FDF782FB064629464846FDF761
:102CD0007DFB01463046FDF771FA4AF828000134C1
:102CE000022CA6DD0BB0BDE8F08F00BF40790308D1
:102CF00000F1480100200AE051F8232002F10042CF
:102D000041F823200233112BF6DD023090311F28C9
:102D100001DC0123F7E770472DE9F04FA9B04FF030
:102D20000009CB4607900691A5E104EBC40357F8D0
:102D300033A0C4F10F0303EBC30357F8335004F17E
:102D4000100303EBC30357F83360C4F11F0303EB15
:102D5000C30357F833B059465046FDF72FFA029097
:102D600031462846FDF72AFA019031462846FDF7FC
:102D700023FA04EB4405DFF8289259F82510FDF7F3
:102D800025FB064659465046FDF716FA6B1C59F8C6
:102D90002310FDF71BFB82460199DDF808B0584669
:102DA000FDF70CFAC8F8000001995846FDF704FA3F
:102DB000023559F825502946FDF708FBC8F82000D0
:102DC00051463046FDF7FAF9C8F840003146504602
:102DD000FDF7F2F901462846FDF7F8FAC8F8600059
:102DE000013408F10408072C9FDDDDF80CB008ACB5
:102DF00000230193CDF814B0C8E0D4F800A0D4F8B3
:102E00000480A668E768029725696769D4F8189076
:102E1000D4F81CB059465046FDF7CEF903905946F8
:102E20005046FDF7CBF9824649464046FDF7C4F9C6
:102E3000834649464046FDF7C1F98146394630464A
:102E4000FDF7BAF9804639463046FDF7B7F9064630
:102E50002946029F3846FDF7AFF9029029463846C9
:102E6000FDF7ACF9074601465046FDF7A5F90546C2
:102E700039465046FDF7A2F9074631464846FDF768
:102E80009BF9824631464846FDF798F906460146C9
:102E90003846FDF793F9206031463846FDF78CF946
:102EA0004049FDF793FA206102994046FDF786F903
:102EB000064641465846FDF781F93A49FDF786FA3C
:102EC00007465946DDF80CB05846FDF777F98146BC
:102ED00051462846FDF772F93249FDF777FA8046E8
:102EE00031494846FDF772FA01463046FDF764F96C
:102EF00082462E49FDF76AFA4946FDF75FF9064614
:102F00002949FDF763FA01465046FDF755F9814618
:102F100039465846FDF750F9824639465846FDF77E
:102F20004DF9074601463046FDF748F92049FDF7BF
:102F30004DFA606041462846FDF740F91D49FDF70E
:102F400045FAA06049465046FDF736F91A49FDF7A3
:102F50003DFAE06051464846FDF730F91749FDF764
:102F600035FA606141462846FDF726F91449FDF718
:102F70002DFAA06131463846FDF71EF91149FDF7DB
:102F800025FAE061019B013301932034019B032B5F
:102F90007FF733AFDDF814B00024049F5AE000BF80
:102FA00040770308F304353FAFAF4B3E15EFC33E08
:102FB000F781023FD48B0A3FBDF1193FD764663FCA
:102FC000753DA73FCF06244028AB03EB840353F89D
:102FD000803C3B6004F1100328AA02EB830304F158
:102FE000180902EB890959F8801C53F8800CFDF789
:102FF000E5F804F1010A04F1190828AB03EB88088D
:1030000058F8801CFDF7DAF8B86404F1080328AA20
:1030100002EB830304F1090228A901EB820252F8B2
:10302000801C53F8800CFDF7C9F8C7F890001134E4
:1030300028AB03EB840459F8801C54F8800CFDF78E
:10304000BDF858F8801CFDF7B9F8C7F8D80007F5A7
:1030500090775446062CB7DD0F9B3B6027991F984D
:10306000FDF7ACF8B864179BC7F89030279BC7F8FA
:10307000D8300BF1010B069B9B4509DA079B03EB4C
:103080008B0704970DF120080024CDF80CB0AAE6B8
:1030900029B0BDE8F08F00BF08B54FF07C51FDF7B7
:1030A0008DF8FDF759FBA0EBD07000F30F0000B2D4
:1030B00008BD0000F8B505460F4614461168D2F861
:1030C000000EFDF779F85249FDF780F90646D4F86D
:1030D000001DD4F80001FDF771F84E49FDF776F9AF
:1030E0003146FDF76BF80646D4F80012D4F8000C10
:1030F000FDF762F84849FDF769F93146FDF75EF8DA
:103100000646D4F8001BD4F80003FDF757F84349EE
:10311000FDF75CF93146FDF751F80646D4F8001486
:10312000D4F8000AFDF748F83D49FDF74FF931465C
:10313000FDF744F80646D4F80019D4F80005FDF769
:103140003DF83849FDF742F93146FDF737F80646B4
:10315000D4F80016D4F80008FDF72EF83249FDF730
:1031600035F93146FDF72AF806463049D4F800070C
:10317000FDF72CF93146FDF721F8FFF78DFF288088
:103180002B49D4F8080EFDF721F906462949D4F851
:10319000080CFDF71BF93146FDF710F806462649E5
:1031A000D4F8080AFDF712F93146FDF707F806468C
:1031B0002249D4F80808FDF709F93146FCF7FEFF6B
:1031C00006461F49D4F80806FDF700F93146FCF71A
:1031D000F5FF06461B49D4F80804FDF7F7F8314619
:1031E000FCF7ECFF06461849D4F80802FDF7EEF8A4
:1031F0003146FCF7E3FF06461449A068FDF7E6F800
:103200003146FCF7DBFF7C01FFF746FF2853F8BD92
:103210000000E841000055430080E54300A0FE4463
:103220000008A1450070CD4500711247008F9247FC
:103230000000D04200E0C34400FC174600137A4768
:1032400000DC1BC6000034C2000012430000A0C016
:103250002DE9F04F95B083460E46099110460A922B
:103260001C46531E03EBC3031A020BEB0325079501
:1032700000F10043013B01EB4307089704F5706838
:10328000DBF88034C4F8F03FD5F88034C4F8F43F5C
:10329000DBF80030C4F8F83F5BF80230C4F8FC3FBC
:1032A000DBF8842404F58053C3F8F020D5F8842497
:1032B000C3F8F420DBF80420C3F8F8206A68C3F8E8
:1032C000FC2004F1F402054601463846FFF7F2FE01
:1032D0002B46AD0104F5FA72194638461F4600EB3D
:1032E0008310FFF7E7FE04F1F00239463046FFF79E
:1032F000E1FE04F5F87239467019FFF7DBFE934BD7
:103300000E2203924746CDF82CB080E2A5005BF870
:10331000248049464046FDF759F80646019B53F87C
:10332000247051463846FDF751F801463046FCF707
:1033300045FF05F150030DEB030545F8100C514610
:103340004046FDF743F8064649463846FDF73EF845
:1033500001463046FCF730FF45F8200C0134032CC1
:10336000D4DD029D049B059FD3F808A0D3F80C90F0
:1033700005F18052A2F1100107EB01110191E03A31
:1033800007EB02120292002404950593069733E09E
:1033900014AB03EB840555F810BC019B53F8247063
:1033A00049463846FDF712F80646029B53F824803A
:1033B00051464046FDF70AF801463046FCF7FEFE4E
:1033C00001465846FCF7FAFE45F8100C55F8206CFB
:1033D00049464046FCF7FAFF804651463846FCF71E
:1033E000F5FF01464046FCF7E7FE01463046FCF794
:1033F000E5FE45F8200C0134032CC9DD049D059B36
:10340000069FD3F810A0D3F8149005F18052A2F1D2
:10341000200107EB01110191D03A07EB0212029251
:10342000002433E014AB03EB840555F810BC019B7A
:1034300053F8248049464046FCF7C8FF0646029BE5
:1034400053F8247051463846FCF7C0FF0146304619
:10345000FCF7B4FE01465846FCF7B0FE45F8100CE8
:1034600055F8206C51464046FCF7B0FF804649466F
:103470003846FCF7ABFF01464046FCF79DFE01468F
:103480003046FCF79BFE45F8200C0134032CC9DDC7
:10349000049D059B069FD3F818A0D3F81C9005F156
:1034A0008052A2F1300107EB01110191C03A07EB04
:1034B00002120292002433E014AB03EB840555F8AA
:1034C00010BC019B53F8247049463846FCF77EFF38
:1034D0000646029B53F8248051464046FCF776FF8F
:1034E00001463046FCF76AFE01465846FCF766FE88
:1034F00045F8100C55F8206C49464046FCF766FF2D
:10350000804651463846FCF761FF01464046FCF7CD
:1035100053FE01463046FCF751FE45F8200C0134BD
:10352000032CC9DD049D059B069FD3F820A0D3F88A
:10353000249005F18052A2F1400107EB01110191A5
:10354000B03A07EB02120292002435E080730308C0
:1035500014AB03EB840555F810BC019B53F8248091
:1035600049464046FCF732FF0646029B53F824705A
:1035700051463846FCF72AFF01463046FCF71EFE4E
:1035800001465846FCF71AFE45F8100C55F8206C19
:1035900051464046FCF71AFF804649463846FCF73C
:1035A00015FF01464046FCF707FE01463046FCF792
:1035B00005FE45F8200C0134032CC9DD049D059B54
:1035C000069FD3F828A0D3F82C9005F18052A2F1E1
:1035D000500107EB01110191A03A07EB0212029290
:1035E000002433E014AB03EB840555F810BC019BB9
:1035F00053F8247049463846FCF7E8FE0646029B1D
:1036000053F8248051464046FCF7E0FE0146304620
:10361000FCF7D4FD01465846FCF7D0FD45F8100CE8
:1036200055F8206C49464046FCF7D0FE804651468E
:103630003846FCF7CBFE01464046FCF7BDFD01468F
:103640003046FCF7BBFD45F8200C0134032CC9DDE6
:10365000049D059B069FD3F830A0D3F8349005F164
:103660008052A2F1600107EB01110191903A07EB42
:1036700002120292002433E014AB03EB840555F8E8
:1036800010BC019B53F8248049464046FCF79EFE3F
:103690000646029B53F8247051463846FCF796FEC6
:1036A00001463046FCF78AFD01465846FCF786FD88
:1036B00045F8100C55F8206C51464046FCF786FE44
:1036C000804649463846FCF781FE01464046FCF7F5
:1036D00073FD01463046FCF771FD45F8200C0134BE
:1036E000032CC9DD049D059B069FD3F838A003F188
:1036F000400BD3F83C9005F18053A3F1700207EB27
:1037000002120192803B07EB0313029300240497FB
:10371000CDF814B033E014AB03EB840555F810BCBE
:10372000019B53F8247049463846FCF74FFE064685
:10373000029B53F8248051464046FCF747FE014661
:103740003046FCF73BFD01465846FCF737FD45F88F
:10375000100C55F8206C49464046FCF737FE804671
:1037600051463846FCF732FE01464046FCF724FD40
:1037700001463046FCF722FD45F8200C0134032CAD
:10378000C9DD049FDDF814B0DDF80C80C8F10F0529
:103790000A9E06FB05F50D98FFF77EFCDDF82090EC
:1037A00029F8150008F1110406FB04F41198FFF73D
:1037B00073FC29F814000C98FFF76EFCDDF824A0C8
:1037C0002AF815001098FFF767FC2AF81400C8F1D2
:1037D0002F0506FB05F50F98FFF75EFC29F815008D
:1037E00008F1310406FB04F41398FFF755FC29F89F
:1037F00014000E98FFF750FC2AF815001298FFF7F6
:103800004BFC2AF8140008F1FF3303935B46039A3C
:10381000002A4BDB039CC4F11F0202EBC200C00074
:103820002546210107EB041B0B9E34587C500C1DD0
:10383000DDF81CC05CF80000385102EBC2025200F7
:10384000013201F1080056F822403C500C315CF87E
:1038500022207A506A1C02EBC2004000013005F1C0
:103860001001090156F820407C5004315CF820001A
:10387000785002EBC202D200A5F11001090101F15A
:103880000800B4583C500C315CF802207A50D3F850
:1038900000A0D3F8049005F18052F03A07EB021231
:1038A0000192002402950493059758E515B0BDE8F0
:1038B000F08F00BF2DE9F047064689469046002765
:1038C0003D46092F1BDC06EB050A41465046FEF734
:1038D000D9F804465046FEF7F6F804442544EB1C9C
:1038E0004B4507DA71193046FEF768F8034638B1E0
:1038F0000137E6E7002FD4BF0023012300E00123B6
:103900001846BDE8F0872DE9F04F85B005468B4697
:1039100001920393002640E00134B9F1000F28D151
:10392000B4F5106F25DA06EB4403534521DA2F195D
:1039300039462846FEF742F80028EDD02846FEF723
:10394000C2F8A4EB00083846FEF7BDF8404433192E
:10395000034403335B45DFDA204429182846FEF789
:103960002DF80028D8D0019BC3F800800294C146EE
:10397000D2E7B9F1000F0AD0029BF3185B4506DCD1
:103980004A46ABEB06012846FFF794FFF8B9DEB1D3
:103990000023019A136001360135ABF1040AB245E8
:1039A00019DD2846FDF7E7FF0028F4D0019B1968D0
:1039B0002846FEF767F881462846FEF784F800EBB4
:1039C000090302930424A8E7029B5B45E0D1039B13
:1039D000029A1A6003E00023039A13605E463046A1
:1039E00005B0BDE8F08F2DE9F04705460E4690463C
:1039F0001F468C684B68E41A30D4E41005F58053F8
:103A0000D3F800389A46BB42A8BFBA4608F10C0961
:103A100005F5C0510C31DB1B5246002BA8BFC9185D
:103A2000484631F01EFB31687368002B18DB2246D4
:103A300001EBE30109EB0A0031F013FB04EB0A028E
:103A400049464046FDF766FF05F58050D0F800086E
:103A5000B842B4BF00200120BDE8F0870734CCE7AE
:103A60000733E4E72DE9F04F85B006460F46029292
:103A70000193DDF83C904FF000080AE02A463946F1
:103A8000304631F0EEFA2F442E4408F101084FEA97
:103A90004909B8F1030F3DDC019B13F80850CDB381
:103AA00019F00804EAD1029B13F808B0BBF1000F2B
:103AB0000AD12A4659463046FCF738FF2A4659466D
:103AC0003846FCF733FFDEE7B9F1000F06DB4FF0B5
:103AD000FF3ACDF80C80DDF838800EE04FF0010A97
:103AE0000AFA0BFA0AF1FF3ACDF80C80DDF83880BB
:103AF00003E0FF233B5530550134AC4207DA594609
:103B00004046FDF70DFF8245F3D0C3B2F2E7DDF882
:103B10000C80B8E70023B3707370337005B0BDE854
:103B2000F08F00002DE9F04F91B082468B46039252
:103B30001C461A9E9A7B5B7BB3FA83F35B09002ACF
:103B400018BF0133C3EBC303614A02EB8308657EF0
:103B50000135E27E437813F0080F1DD023895D49BB
:103B6000CB5C99088DF83C108DF83D1003F00303F1
:103B70008DF83E308DF83F300192039B0093434611
:103B80000FAA594605A8FFF76DFFA37B002B75D040
:103B9000C5F1030100225BE0C37813F0100F03D0DE
:103BA0001B9B43B9194600E0002123890B41494280
:103BB00001F00C011AE00121F7E793FBF0FE0CEB9A
:103BC0000102454FBA5C9EFBF2F902FB19EE0CF1C3
:103BD00040070DEB070909F804EC02FB00F00CF1BB
:103BE000FF3CBCF1000FE8DA1B1A0431002B03DBA9
:103BF00001204FF0030CF4E788446FF00F02BBE79D
:103C0000637B134440336B4413F82C0C94F815C0B9
:103C10000CFA01FC604403F82C0C637B1344413321
:103C20006B4413F82C0C94F816C00CFA01FC604499
:103C300003F82C0C637B134442336B4413F82C0CB5
:103C400094F817C00CFA01FC604403F82C0C033202
:103C5000A37B9342D4DCA17AD6399AF8033003F0DF
:103C6000E003602B1DD00023C91AC1F12C014FF0D5
:103C70008A40FEF7E1F98046002720E0237E002BF2
:103C8000E9D000230AE003F14B026A4412F82C1C2D
:103C90001248C05C014402F82C1C0133092BF2DDF0
:103CA000D9E70223E0E707F140036B4413F82C1C2B
:103CB000A9404046FEF7C0F946F827000137637B6C
:103CC000A27B1344BB42EEDC11B0BDE8F08F00BF15
:103CD000188C0308088C0308F08B0308E48B030896
:103CE00038B50346054608461146844614E01C686C
:103CF000CCF8004053F82240CCF8044053F832404E
:103D0000CCF808400EF1010E04330CF10C0C964572
:103D1000EDDB033103EBC2030A7812B14FF0000E62
:103D2000F5E7ACEB00020146284631F09AF938BDC0
:103D30002DE9F04192B004460D46174626E0482290
:103D40002146684631F08DF929686B68A868EA68F1
:103D500021606360A060E26029696B692161636131
:103D600005F11806324604F118016846FEF730FFE7
:103D7000324604F1300101A8FEF72AFF32462946F7
:103D800002A8FEF725FF013F24354834002FD6DC7A
:103D900012B0BDE8F0810000F8B50D4617461C468C
:103DA00083B9022F1FD0032F14BF0022012202EB80
:103DB000C202C4F120030F4901EBC2022946FEF7FB
:103DC000FDFDF8BD0B4A0E460546FEF7F7FD04EB78
:103DD000C4032A4605EBC303184604EBC40306EBF1
:103DE00083031D46DDE7C4F120022946FFF7A0FF4B
:103DF000E7E700BF587903082DE9F04F85B0814609
:103E00000E460393002493462CE07268E500C4EB51
:103E1000C4080BEB8808B8F8043002EB030A04EB83
:103E20008401C4EBC10101F57C511831314406F520
:103E3000EB571C370194009743463246043109F58D
:103E4000C0500830FFF76EFE2819000200F67830E7
:103E50003044CDF800A03B46424631460430FEF7E0
:103E600057F90134039B9C42CFDB5F4609F5805331
:103E700093F80B3813F0100F05D103F0E003602B1B
:103E80000DD0002548E009F5C05308335A4606F521
:103E90007D51033106F67C30FEF716FCF1E74FF456
:103EA000107106F67C30FEF71BFBEAE7984609F531
:103EB000805292F80A38C3F3810392F80918C1F3CB
:103EC000C002C1F300110A4402EB42021344022B68
:103ED00014BF0023012308FA03F8BB7B2BBB4FF070
:103EE0001F0B4FEAC50A05EBC504240204F678341B
:103EF0003444043459462046FEF738FC0AEB0501E9
:103F00004346FA7A09EBC1112046FFF745FF2046E8
:103F1000FEF7EEFE01351C37039B9D421BDA3B7B0F
:103F2000002BC3D04FF00208C1E708F1FF3B05EBBF
:103F3000C5031B0203F678333344043308EBC8008F
:103F400039687A7B0A4406F5F0511C3103EBC00056
:103F5000FFF7C6FEC5E705B0BDE8F08F2DE9F843D1
:103F600081460F46154690F8013303EBC301C900A3
:103F700001F5106099F80023D21A02EBC202D200B8
:103F80002944284431F06DF84FF0000816E03968F4
:103F900055F82400FCF71AFA45F8240004F51076C9
:103FA000F96855F82600FCF711FA45F826000134A7
:103FB0000B2CECDD08F101084835183799F800336F
:103FC000434501DD0024F3E7BDE8F8832DE9F04720
:103FD0000646894614469846DDF820A0099D00272C
:103FE00007E007EBC700214609EB0020FEF794FE2F
:103FF00001374745F5DB4FF470623146284631F012
:1040000030F800270BE008FB07F105EB07234246D9
:104010000AEB811109EB8700FFF71AF90237A74273
:10402000F1DBB8F1010F0DD1002306E003EB8411A1
:1040300055F8211046F823100233B3F5707FF5DBF5
:10404000BDE8F0874FF4706205EB0421304631F093
:1040500008F8F5E738B505464B680733D8088C688B
:10406000E408A4EBD304B4F5007F11DBA4F2FF1441
:10407000204440F2FF140C312246014405F5C050A3
:104080000C3030F0A9FF05F58053C3F8004838BD67
:10409000002CF0DCF7E700F58050002380F80838AA
:1040A00070472DE9F04FADF5864D83B00546884643
:1040B00091461F460DF5864330331C6800230DF5ED
:1040C000864104310B60042A05DD00F5805393F826
:1040D0000838FF2B50D00DF5864304331E68002EA0
:1040E00074D0002008EB000658F8002005F5805336
:1040F000C3F808280DF5864304331B680344236086
:104100006060F37803F0C003C02B7AD00223A36071
:104110003046FDF78FFCE0607378C3F34103C3F1D1
:10412000040323613046FDF76FFC6061002F6AD005
:104130000DF5864304331A68043A311D0DF58540A8
:104140007830FDF7E7FB737813F0010F60D0236937
:10415000032B64D002AA0DF5854178313046FDF776
:1041600063FD4FF4905200210DF60870FCF7DEFB62
:104170004FF000084646B9E0414600F5C05008300F
:10418000FDF71CFC0028A6D005F58053D3F80418D1
:104190004046FDF777FC06464046FDF794FC304468
:1041A0000DF5864304331860484594D0C31C4B4535
:1041B00006DA08EB00014046FDF700FC00288AD132
:1041C00000230DF586420432136084E741F60C2289
:1041D00031462846FCF7AAFB0DF58643043305F566
:1041E000C052043249464046FFF78DFB0DF5864329
:1041F00004331B681BB103444B457FF773AF20604A
:10420000B7E0012383E73046FDF72AFC0646B0E01D
:1042100010210DF585407830FDF782FB97E7324697
:104220000DF698610DF585407830FDF7DDFD031E34
:1042300008DB0DF585427C3211680DF58642126867
:10424000914204DD2846FFF726FF002691E0E3AA0D
:104250000DF5854178312846FFF7C5FB834620B927
:10426000E3A92846FFF7F6FE7BE000239A462CE000
:1042700001239A45F4DA0DF572780DF608794FF4BA
:10428000905200214846FCF751FBA3680AFB03F259
:10429000C2EBC2020DF6986101EB8202E3A9284647
:1042A000FFF7AAFD08F5EF5301930097A3681222C8
:1042B000494605F51060FFF789FE534601339A46DB
:1042C000A36803EBC30307EBC317737813F0080F5E
:1042D000CED00223CDE70DF585437C331A680DF56A
:1042E00086431B689A4235DC08F10108B8F1020FD9
:1042F00035DC236943F0010302AA0DF585417831CD
:104300000DF6087000EB8600FDF708FD06440C2E44
:10431000E1D10DF6087602A8324600EB8801FFF7DE
:104320001DFEF2AB03F5EF5301930097A3680C2237
:10433000314605F51060FFF749FE4FF49052002119
:104340003046FCF7F3FAA36803EB430307EB0327BC
:104350000026C0E72846FFF79EFE002609E001235D
:104360009B4605F5C0500830FDF77AFB5E4600FB22
:1043700006F630460DF5864D03B0BDE8F08F00001F
:10438000F8B51F4B1B68834237D904460E461D4DB6
:104390002846FDF7ADF905F099F905F0EBF94FF472
:1043A000B072194B02FB04331F4619462846FDF72D
:1043B00027F8054678B9134BD3F8540205F090F965
:1043C000124B1C60AEB1124B03221A70114B01222A
:1043D0001A702846F8BD39460F4800F00FFD0B4B08
:1043E0001C6000230A4A13700A4A13704FF0FF350D
:1043F000EFE7074B02221A70EBE74FF0FF35E8E7D3
:1044000078070020E00400207C07002074070020CB
:10441000710700207007002074580308914200D3F0
:10442000704708B50B46521A9200002100EB83003A
:10443000FCF77CFA08BD000070B582B01B4A136817
:104440000133136005F07CF9044605F07FF9054659
:10445000174E01AB024621463046FDF775F92A4654
:1044600001992046FFF7DAFF04EB85046B462A46E4
:1044700021463046FDF768F92A4600992046FFF7A5
:10448000CDFF05F005F9019B1BB9009B13B101237A
:1044900000E00123DBB2074A13700BB902B070BD14
:1044A000054A136801331360F8E700BFC404002015
:1044B000E004002071070020D404002038B5044631
:1044C0000D46094B186818B14FF0FF310CF06EFC27
:1044D00029462046FFF754FF0446034B186808B1ED
:1044E0000CF00AFA204638BDBC04002010B51A4A68
:1044F000136801331360194B1B680BB101240AE0E8
:10450000174B00221A7005F0E1F805F033F94FF06F
:10451000FF331FE00134114B1A68A24211D3114B33
:104520001B682344B3FBF2F0012102FB1030FFF7BC
:10453000C5FF03460028EDD1094A1278012AE9D1C6
:1045400008E0074B00221A7005F0C0F805F012F9D8
:104550004FF0FF33184610BDC80400207807002034
:10456000710700207407002030B583B010E0334B92
:1045700000221A70FFF760FF1CE0314B1B78012B03
:1045800003D1304B93F85132DBB928200BF0B6FC45
:104590002A4B1B78002BF0D02B4B186818B14FF02A
:1045A000FF310CF003FC254B1B781BB1244B1B780F
:1045B000032BDCD0244B18680028E9D00CF09CF9C0
:1045C000E6E705F0C7F8044605F0C0F8054605F033
:1045D000B7F805FB04F400EB84041B4B186818B112
:1045E0004FF0FF310CF0E2FB154B1B78012B06D08E
:1045F000154B18680028CBD00CF07EF9C8E7114B9A
:1046000093F85132002BF3D001AB2A4621460D48D6
:10461000FDF79AF8019919B10C4A13680133136038
:10462000A942E5D20A4A1368013313602A4620469C
:10463000FFF7F4FEFFF75AFFDAE700BF700700202C
:1046400071070020E0040020BC040020D0040020FA
:10465000CC04002010B582B0294B1B78002B4BD125
:10466000284B1B682BB305F0DFFF80BB1022022113
:104670004AF6444004F058FF044678BB4620224BDB
:10468000187005F0ADFF214B019301230093002327
:104690004FF400521E491F480BF03EFA012824D166
:1046A000174B01221A701C4800F0A8FB204602B0EC
:1046B00010BD04200CF014F9124B18600028D2D160
:1046C000164800F09BFB4FF0FF331C46EEE7144802
:1046D00000F094FB4FF0FF331C46E7E7114800F071
:1046E0008DFB4FF0FF331C46E0E70F4800F086FBE0
:1046F0004FF0FF331C46D9E700231C46D6E700BF26
:10470000D8040020BC04002050000020C004002079
:10471000EC5803086945000810590308905803082D
:10472000B4580308D0580308F4580308F0B5E7B0AC
:1047300004460021414B19604FF4B0424048FCF759
:10474000F5F802AD23463F4A2021284630F0CCFB45
:10475000294652A815F08DF8002847D104460AA929
:1047600052A815F0E6F8002857D19DF84230002BEA
:1047700053D09DF8343013F0100FF0D10DF14200FA
:10478000FCF734F80328EAD904380DF142031A186B
:104790001B5C2E2B31D02E2BE1D153786D2B01D009
:1047A0004D2BDCD19378702B01D0502BD7D1D378FF
:1047B000332BD4D13F2C30D84FF4B07504FB05F522
:1047C0000DF14206009602AB1F4A4FF490711C4F48
:1047D000781930F089FB05F5907000963F231B4A4D
:1047E0004021384430F080FB0134B8E702462946C6
:1047F000174800F003FB00241CE05178772901D012
:104800005729C8D19178612901D04129C3D1D178E4
:104810007629CFD05629BED1CCE752A815F07FF823
:10482000064B1C600B4B00221A6002AA21460A4864
:1048300000F0E4FA204667B0F0BD00BF7807002022
:104840007C070020245903085059030858590308CD
:10485000305903087407002060590308014B186899
:10486000704700BF78070020014B1878704700BFE1
:104870007107002010B5184B186818B14FF0FF31C0
:104880000CF094FA154B1B68FBB1154B1B78012BF0
:104890001FD0022B0CD1134B93F8513243B1104B64
:1048A00003221A70104B01221A7000231C4605E0E7
:1048B00001210E4B1868FFF763FD0446064B18688C
:1048C00008B10CF019F8204610BD4FF0FF331C461C
:1048D000F4E700231C46F1E7BC0400207807002021
:1048E00071070020E00400207007002074070020FA
:1048F00008B50D4B186818B14FF0FF310CF056FA9F
:104900000A4B1B78012B06D0074B186808B10BF037
:10491000F3FF002008BD04F0D9FE04F02BFF034B89
:1049200002221A70F0E700BFBC04002071070020CB
:1049300010B50C4B186818B14FF0FF310CF036FA77
:10494000094B1B78012B09D0FFF794FF0446054B58
:10495000186808B10BF0D0FF204610BDFFF7C8FF64
:104960000446F4E7BC0400207107002008B50D4B95
:10497000186818B14FF0FF310CF018FA04F0A6FED9
:1049800004F0F8FE0848FCF7B3FE0023074A137052
:10499000074A1370034B186808B10BF0ADFF0020F5
:1049A00008BD00BFBC040020E00400207107002007
:1049B0007007002010B5124B186818B14FF0FF3186
:1049C0000CF0F4F90F4B1A68AAB10F4B19780129B2
:1049D00000D000210D4B1B680133B3FBF2F002FB4A
:1049E0001030FFF7CDFC0446054B186808B10BF0FA
:1049F00083FF204610BD4FF0FF331C46F4E700BF95
:104A0000BC040020780700207107002074070020F4
:104A100010B5124B186818B14FF0FF310CF0C6F901
:104A20000F4B1A68B2B10F4B1978012900D0002141
:104A30000D4B1B681344013BB3FBF2F002FB10303B
:104A4000FFF79EFC0446054B186808B10BF054FFB5
:104A5000204610BD4FF0FF331C46F4E7BC04002095
:104A600078070020710700207407002010B5044665
:104A70000E4B186818B14FF0FF310CF097F9642C09
:104A800000D964240A4B93F851325BB1214608489F
:104A9000FCF78EFE0446054B186808B10BF02CFF9E
:104AA000204610BD4FF0FF34F5E700BFBC040020E6
:104AB000E004002008B5642800D96420024B187077
:104AC00005F08EFD002008BD50000020014B187835
:104AD000704700BF50000020014B1868704700BFAE
:104AE00074070020074B1B6853B1074B18684FF43D
:104AF000B07303FB00F000F59070044B184470474E
:104B00000348704778070020740700207C070020C6
:104B1000AC5F0308044B93F851321BB1024BD3F83E
:104B20006402704718467047E0040020044B93F875
:104B300051321BB1024BD3F86002704718467047E0
:104B4000E0040020024B00221A700120704700BFD1
:104B50007C61002008B502E001200BF0CFF9024B88
:104B60001B78002BF8D108BD7C61002008B501201E
:104B70000BF0B6FE024B1860003818BF012008BDCC
:104B80008061002008B5044B186818B14FF0FF3160
:104B90000CF04CF808BD00BF8061002008B5044B44
:104BA000186820B100231A4619460BF0D5FD08BD40
:104BB0008061002010B518B101280BD0012010BD74
:104BC00004460130C0B20FF00FF908B12046F6E7F5
:104BD0000220F4E704F0CAFE08B10020EFE702204B
:104BE000EDE708B510B1012801D0012008BD04F09F
:104BF000BDFE08B10020F9E70220F7E72DE9F041FA
:104C000084B00E4617461D46804628B1012816D0AE
:104C1000042004B0BDE8F08101301B4B01221A7062
:104C200000210291194B0193ADB200953B463246EB
:104C3000C0B20FF04FFAFFF78DFF4046E9E7FDB134
:104C400011F0030F11D00024AC4217D20122E11958
:104C50000F4804F091FEA8B94FF400720C4906EB1E
:104C6000442030F0FEF90134EEE72A46394630465A
:104C700004F082FE0028CCD04046CAE70020C8E7F6
:104C80000420C6E74046C4E77C610020454B00088D
:104C90007C5F00202DE9F04385B00F4690461D460D
:104CA000814628B1012816D0042005B0BDE8F08364
:104CB00001301C4B01221A70002102911A4B019302
:104CC000ADB2009543463A46C0B20FF05FFAFFF727
:104CD00041FF4846E9E70DB311F0030F13D000245C
:104CE000AC4219D2114E4FF4007207EB442130460A
:104CF00030F0B7F9012204EB0801304604F068FEF9
:104D000070B90134ECE72A464146384604F060FEAB
:104D10000028CAD04846C8E70020C6E70420C4E7F8
:104D20004846C2E77C610020454B00087C5F0020BC
:104D300070B582B00C4616460546F0B90130C0B2D7
:104D4000022914D00BD8002944D0012905D1002113
:104D50000FF02EF83060284612E0042010E00329FE
:104D600003D10123136028460AE0042008E0002153
:104D70000FF02CF83080284602E0012802D00420F1
:104D800002B070BD002301934FF40073ADF8023000
:104D9000022904D84BB253B9C1B90846F0E7032938
:104DA00003D1012313600020EAE70420E8E70DF1B6
:104DB000020101A804F038FE50B9012C03D0BDF85F
:104DC00002303380DCE7019B3360D9E70420D7E76A
:104DD0002846D5E70846D3E700B5B1B002460B46F2
:104DE000C021684630F0DAF8011E05DBBF2900DD7E
:104DF000BF21684605F0D8FA31B000BD0FB400B548
:104E000083B004A951F8040B0191FFF7E5FF03B04B
:104E10005DF804EB04B0704710B5002405E00020F5
:104E200003F094FE64200BF069F80134054A82FB1C
:104E30000432E317C3EB620303EB83039C42EED01F
:104E4000F0E700BF6766666610B504460BF0FEF932
:104E5000022803D0204605F0DFFE10BDE30E6101FD
:104E6000091B63F100039B0043EA91738900091950
:104E700043F10003DC004FF47A720023C80044EAD7
:104E80005171FBF78FFC0BF039F8E6E700B583B002
:104E900072B6012003F05AFE00230193019A034BDE
:104EA0009A42F6D8019B01330193F7E7FEFF010018
:104EB00010B594B008AC302200212046FBF736FD37
:104EC0000023039304930593069307930193204AC9
:104ED000116C41F080511164126C02F08052019209
:104EE000019A02931B4B1A6842F440421A601B68F5
:104EF00003F440430293029B012308934FF4803351
:104F0000099302230E934FF480020F9219221092FC
:104F10004FF4A8721192129307231393204605F0C1
:104F2000FBFE88B90F2303930223049305904FF4EB
:104F3000A05306934FF480530793052103A806F06E
:104F40003DF918B914B010BDFFF7A0FFFFF79EFFA1
:104F5000003802400070004000B583B005F030FE1C
:104F6000FFF7A6FF03F0B0FD002003F0DBFD0120FA
:104F700003F0D8FD05F0C4F93C48FFF73FFF02F00D
:104F800049F902F093F97F2003F0C0FF3848FFF79A
:104F900035FF04F02DF83748FFF730FF04F00CF927
:104FA0003548FFF72BFF3548FFF728FF04F096FE42
:104FB00020B13348FFF722FFFFF768FF3148FFF7C2
:104FC0001DFF31480CF052FC3048FFF717FFFFF788
:104FD000CDFD20B92E48FFF711FFFFF757FF01F075
:104FE000DBFC20B92B48FFF709FFFFF74FFF2A48EA
:104FF000FFF704FF002401940323009323464FF49A
:105000008062264926480AF087FD01940423009314
:1050100023464FF40072234923480AF07DFD019492
:1050200001231D46009323464FF400721F49204878
:105030000AF072FD0194009523464FF480721D49D9
:105040001D480AF069FD01940223009323464FF4A2
:1050500000521A491A480AF05FFD01F003F884F380
:10506000118862B60AF098FDFFF710FF8459030813
:1050700094590308AC590308BC590308E0590308C4
:10508000F4590308085A030854000020185A03086A
:10509000485A0308605A0308785A0308945A0308C8
:1050A000D96900089C5A0308BD610008A45A030886
:1050B000A15C0008AC5A0308194E0008B05A030856
:1050C0006D63000808B5FFF7E1FE08B5FFF7DEFEE7
:1050D00008B5FFF7DBFE030A420923F4FF6323F060
:1050E000070302F4FC6213439BB2C0F3C4001843ED
:1050F0007047000010B504460E4B186818F050FEBB
:1051000000FB04F40C4BA3FB043444F34F14012CB8
:105110000DDD2146094B186818F078FD611F6FF00E
:10512000030209B2064B186818F066FD10BD022490
:10513000EFE700BFAC6100201F85EB51A8610020A4
:10514000A46100202DE9F04782B0FFF7EFFC044690
:10515000FFF7E0FC8046002C7FD0642300FB03F3C4
:10516000B3FBF4F31F46FFF779FB0646FFF7AEFCEF
:10517000054681463D4B186818F019FE00FB05F105
:105180003B4BA3FB013141F34F139A46394B1D684A
:105190002DB1002E63D1384928462FF05FF9374BE7
:1051A0001D683DB1FFF798FC3346421C3449284640
:1051B0002FF091F93846FFF79DFF324B186890B1F8
:1051C000314BA3FB0832314BA3FB08318909304B2B
:1051D000A3FB01535B09C3EB0313A1EB8303920B06
:1051E0002C492FF078F92C4B186890B1264AA2FB75
:1051F0000432264BA3FB0434A409254BA3FB041360
:105200005B09C3EB0313A4EB8303920B21492FF03B
:1052100062F9224B1C683CB1FFF726FB012822D023
:105220001F4920462FF01AF91E4B186818B14A463C
:105230001D492FF050F91D4B186858B1514618F010
:10524000FCFC002300930422084909681748006801
:1052500019F0E6FE02B0BDE8F087274683E7FFF7C6
:1052600041FC014698E71249DBE700BF946100204A
:105270001F85EB51B4610020B45A0308B0610020CF
:10528000DC5A0308A061002073B2E745D34D6210D9
:1052900089888888E85A03089C610020986100206A
:1052A000D45A03088C610020F45A0308906100204E
:1052B000CC5A030870B582B015F062FE01A915F052
:1052C000C3FE104E306818F06BFD0546BDF8044073
:1052D000306818F041FD80B2231A1BB2002B0FDB9F
:1052E000AB4200DD2B46642202FB03F393FBF5F592
:1052F0002846FFF7BBFB2846FFF7FCFE02B070BD57
:105300000023EDE7AC61002008B529F0DBFB14F0C9
:10531000DFFC08BD70B504460D4616461CF07AFA4F
:105320003246294620461CF07CFA32462946204661
:105330001CF062FA3246294620461CF064FA70BD21
:10534000F8B50F4616461D462EF0E2FC0446002234
:1053500029461CF090FA0698FFF7BDFE0146002290
:1053600020461CF081FA0022114620461CF067FA04
:10537000002211462046FFF7CDFF079920462FF067
:105380006DF8BDF92010204618F040FC3246394631
:10539000204618F031FC2046F8BD08B514F0FAFD9F
:1053A00040B1012809D002280AD00A280BD00B28C6
:1053B00013D008BDFFF72CFBFBE7FFF7B9FAF8E7BE
:1053C000FFF7F8FAF5E7FFF781FB053803D4C0B221
:1053D000FFF770FBEDE70020F9E7FFF777FB0530FB
:1053E000642800DD6420C0B2FFF764FBE1E7000041
:1053F000F8B50D4617461E462EF0DCFB0446304A33
:1054000000211CF076F8BDF918203146204618F02E
:105410002BFC3A462946204618F0EEFB002241F6C6
:10542000051120461CF004FA0022FF2120461CF042
:1054300006FA002248F2524120461CF007FA0022E8
:10544000012120461CF009FA0022062120461CF00A
:1054500020FA002211462046FFF75CFF102120466B
:1054600017F0B0FB20462EF053FC054600221549EC
:105470001CF001FA00224DF2BB6128461CF0F4F941
:105480000022114628461CF0DAF90022114628466F
:10549000FFF740FF079928462EF0E0FF00231A4649
:1054A0000921284618F03EFC0221284617F08AFB05
:1054B000089B07220449204614F082FD2046F8BDCF
:1054C000FFFF0F0050C703089B5300082DE9F04F62
:1054D00089B0FFF719FF04461CF0CAFA00252A46D6
:1054E0004FF0000120461CF0A3F92A46FF21204678
:1054F0001CF0A5F92A4629462046FFF70BFF10218C
:10550000204617F05FFB284629F0E2FACA4E3080A9
:10551000284629F0F4FAC94B1880B6F90030AB429E
:1055200040F34582002840F34582C34FB7F900306D
:1055300003EBD3724FEA62090293C14B0193DFF888
:105540000483CDF80080C04B0E2200212046FFF7D7
:10555000F7FEBE4B1860002202211CF093F9DFF821
:10556000F0B2B7F900300293BA4B0193BA4B0093F3
:105570005B462E2200212046FFF7E2FEB74B186063
:10558000002202211CF07EF9B7F80080A8F118086B
:105590000FFA88F8DFF8A4A2BAF90000FAF7C2FE01
:1055A000AF49FAF713FFFBF7D7F806B2204617F01A
:1055B000FDFAAC4D2860AC4A00211BF09AFF0E2288
:1055C0004146286818F050FB32460C21286818F034
:1055D00013FB002241F2A30128681CF029F90022E4
:1055E000FF2128681CF02BF90022042128681CF0F8
:1055F00050F91021286817F0E5FA0221286817F001
:105600006FFDDFF86882002302224146286814F00B
:10561000D7FC002307224146286814F0D1FC2868F3
:1056200017F0C4FADFF84882C8F800008E4A00215B
:105630001BF05FFF0E220221D8F8000018F014FBC7
:1056400000221146D8F8000018F0D6FA00224DF2D8
:10565000BB61D8F800001CF0EBF80022FF21D8F85D
:1056600000001CF0ECF80221D8F8000017F0AAFAAC
:10567000286817F09BFA7F4D28607B4A00211BF0B9
:1056800038FF16220A21286818F0EEFA6FF003029C
:105690006FF00201286818F0AFFA002248F2524178
:1056A00028681CF0C5F80022FF2128681CF0C7F804
:1056B0000221286817F086FAA6F116052DB25023AC
:1056C00002936D4E0196DFF87C81CDF800805B4639
:1056D0002A460C212046FFF733FE684B18603988B4
:1056E0005C39502302930196CDF800805B462A4630
:1056F00009B22046FFF724FE614B18600022032107
:105700001CF0C0F81FFA89F6A6F1A2031AB204929F
:10571000BAF90000FAF706FE5A49FAF757FEFBF706
:105720001BF80FFA80F800250295574B01934FF0B4
:105730004009CDF800905C23424604992046FFF7CB
:1057400057FEA6F12E0101220292504B0193CDF893
:1057500000905C23424609B22046FFF749FE2946E5
:105760001CF0C8F84A4B186006F14601022202926A
:10577000484B0193CDF800905C23424609B2204685
:10578000FFF736FE3F88A7F16C080FFA88F8BAF9E0
:105790000000FAF7C7FD06463F49FAF717FEFAF789
:1057A000DBFF0FFA80F93D493046FAF70FFEFAF7B2
:1057B000D3FF86B2A6F170039AB2059219B2069190
:1057C000483F3FB2CDF81090BDF810A00AF1380361
:1057D0001FFA83F918B20790AAF11A025023029314
:1057E0002F4B01931C4B00935B4612B2414620465F
:1057F000FFF7A6FD0B2302932A4B01934FF02C0BCE
:10580000CDF800B06023049A41462046FFF7F0FD32
:1058100006EB0A0292B22C3A0A230293224B01931E
:10582000CDF800B0602312B241462046FFF7E0FDFC
:10583000204617F0BBF939E0866100208461002022
:10584000F85A0308DCD6D20050C70308B461002020
:105850006CC70308085B030890888000B0610020D3
:10586000A470BD3EAC610020FFFF0F00B5520008E0
:10587000A8610020A4610020105B0308A061002043
:105880009C61002052B81E3F185B0308D45A0308DD
:1058900098610020245B03083333B33EB81E053FF4
:1058A000305B0308385B03083C5B0308434E306001
:1058B000434A29461BF01DFE069A1821306818F04D
:1058C000D3F9079A3946306818F096F92A4641F21A
:1058D000A30130681BF0ACFF2A46FF2130681BF0A3
:1058E000AEFF2A4648F2524130681BF0AFFF2A460D
:1058F000012130681BF0B1FF2A46042130681BF0FB
:10590000C8FF1021306817F05DF9306817F04EF9C4
:10591000DFF8B080C8F80000294A29461BF0E9FDED
:105920002A461821D8F8000018F09EF92A464DF2B0
:10593000BB61D8F800001BF07BFF2A46FF21D8F896
:1059400000001BF07CFF0221D8F8000017F03AF9A4
:1059500000952B4604223168D8F8000019F060FB4E
:10596000059A4A4492B206323C230293164B0193A5
:10597000DFF85880CDF80080154B12B2394620462A
:10598000FFF7DEFC134B18602A4602211BF07AFF5A
:10599000114B186808B12BF059FD002264210F4803
:1059A0002BF034FD0C4B186009B0BDE8F08F0122DC
:1059B0003280B7E50A4B01221A80B6E594610020D7
:1059C000FFFF0F0090610020405B0308DCD6D2008F
:1059D00050C703088C6100208861002045510008F1
:1059E00084610020003818BF0120014B1860704707
:1059F000B861002010B582B000230193ADF80230E9
:105A00001E4B1B6823B100231C46204602B010BD6C
:105A100003F072FF48B11A4B1B6813B101231C46F7
:105A2000F3E71848FFF7EAF9F8E70DF1020101A8DA
:105A300003F0FAFF0199890ABDF8022002FB01F187
:105A4000890A1148FFF7DAF9FFF79CF801220F499C
:105A50000F4813F047F90446FFF7A0F834B9074B95
:105A600001221A600B48FFF7C9F9CEE721460A4820
:105A7000FFF7C4F901231C46C7E700BFBC61002043
:105A8000B8610020445B03086C5B0308985B030863
:105A9000C0610020C05B03089C5B030808B5094B8C
:105AA0001B6813B903F056FF08BDFFF76BF800221F
:105AB0000549104613F016F9FFF770F8014B002264
:105AC0001A60EFE7BC610020985B030808B5034645
:105AD00008461146D3F800C0BCF1000F05D0064AB5
