:020000040800F2
:100000000000032059A40008815B0008835B0008FE
:10001000855B0008875B0008895B00080000000022
:10002000000000000000000000000000D1070108EF
:100030008B5B000800000000210801087509010819
:10004000A9A40008A9A40008A9A40008A9A400085C
:10005000A9A40008A9A40008A9A40008A9A400084C
:10006000A9A40008A9A40008A9A40008A9A400083C
:10007000A9A40008A9A40008A9A40008A9A400082C
:10008000A9A40008A9A40008A9A40008A9A400081C
:10009000A9A40008A9A40008A9A40008A95B000855
:1000A000A9A40008A9A40008A9A40008A9A40008FC
:1000B000A9A40008A9A40008A9A40008A9A40008EC
:1000C000A9A40008A9A40008A9A40008A9A40008DC
:1000D000A9A40008A9A40008A9A40008159E000866
:1000E000A9A40008A9A40008A9A40008A9A40008BC
:1000F000A9A40008A9A40008A9A40008A9A40008AC
:10010000A9A40008A9A40008A9A40008A9A400089B
:10011000A9A40008A9A40008A9A400088D5B0008F0
:10012000A9A40008A9A40008A9A40008A9A400087B
:10013000A9A40008A9A40008A9A40008A9A400086B
:10014000A9A40008A9A40008A9A400089D5B0008B0
:10015000A9A40008A9A40008A9A40008A9A400084B
:10016000A9A40008A9A40008A9A40008A9A400083B
:10017000A9A40008A9A40008A9A40008A9A400082B
:10018000A9A40008A9A40008A9A40008A9A400081B
:10019000A9A40008A9A40008A9A40008A9A400080B
:0C01A000A9A40008A9A40008A9A4000854
:1001B00080F0004002E000BF81F0004142001FBF1C
:1001C0005FEA410392EA030F7FEA226C7FEA236C25
:1001D0006AD04FEA1262D2EB1363C1BFD21841401A
:1001E00048404140B8BF5B42192B88BF704710F0B0
:1001F000004F40F4000020F07F4018BF404211F053
:10020000004F41F4000121F07F4118BF494292EABA
:10021000030F3FD0A2F1010241FA03FC10EB0C00E6
:10022000C3F1200301FA03F100F0004302D5494273
:1002300060EB4000B0F5000F13D3B0F1807F06D320
:1002400040084FEA310102F10102FE2A51D2B1F118
:10025000004F40EBC25008BF20F0010040EA03000D
:100260007047490040EB0000013A28BFB0F5000F8D
:10027000EDD2B0FA80FCACF1080CB2EB0C0200FA43
:100280000CF0AABF00EBC25052421843BCBFD04092
:100290001843704792F0000F81F4000106BF80F40C
:1002A00000000132013BB5E74FEA41037FEA226CCF
:1002B00018BF7FEA236C21D092EA030F04D092F09A
:1002C000000F08BF0846704790EA010F1CBF0020CE
:1002D000704712F07F4F04D1400028BF40F000402B
:1002E000704712F100723CBF00F50000704700F04B
:1002F000004343F0FE4040F4000070477FEA226272
:1003000016BF08467FEA23630146420206BF5FEA42
:10031000412390EA010F40F4800070474FF0000342
:1003200004E000BF10F0004348BF40425FEA000C09
:1003300008BF704743F0964301464FF000001CE0B1
:1003400050EA010208BF70474FF000030AE000BF07
:1003500050EA010208BF704711F0004302D5404245
:1003600061EB41015FEA010C02BF844601460020B7
:1003700043F0B64308BFA3F18053A3F50003BCFAD2
:100380008CF2083AA3EBC25310DB01FA02FC63447F
:1003900000FA02FCC2F12002BCF1004F20FA02F286
:1003A00043EB020008BF20F00100704702F1200279
:1003B00001FA02FCC2F1200250EA4C0021FA02F2DA
:1003C00043EB020008BF20EADC7070474FF0FF0CDF
:1003D0001CEAD0521EBF1CEAD15392EA0C0F93EADA
:1003E0000C0F6FD01A4480EA010C400218BF5FEA7C
:1003F00041211ED04FF0006343EA501043EA5111EF
:10040000A0FB01310CF00040B1F5000F3EBF4900E8
:1004100041EAD3715B0040EA010062F17F02FD2AEC
:100420001DD8B3F1004F40EBC25008BF20F00100CF
:10043000704790F0000F0CF0004C08BF49024CEAE6
:10044000502040EA51207F3AC2BFD2F1FF0340EA78
:10045000C250704740F400004FF00003013A5DDCE9
:1004600012F1190FDCBF00F000407047C2F100022A
:10047000410021FA02F1C2F1200200FA02FC5FEA17
:10048000310040F1000053EA4C0308BF20EADC7061
:10049000704792F0000F00F0004C02BF400010F4D3
:1004A000000F013AF9D040EA0C0093F0000F01F080
:1004B000004C02BF490011F4000F013BF9D041EAA2
:1004C0000C018FE70CEAD15392EA0C0F18BF93EAA4
:1004D0000C0F0AD030F0004C18BF31F0004CD8D1CE
:1004E00080EA010000F00040704790F0000F17BF55
:1004F00090F0004F084691F0000F91F0004F14D09B
:1005000092EA0C0F01D142020FD193EA0C0F03D1F2
:100510004B0218BF084608D180EA010000F00040F5
:1005200040F0FE4040F40000704740F0FE4040F4D0
:10053000400070474FF0FF0C1CEAD0521EBF1CEA6F
:10054000D15392EA0C0F93EA0C0F69D0A2EB03028D
:1005500080EA010C49024FEA402037D04FF0805327
:1005600043EA111143EA10130CF000408B4238BFEC
:100570005B0042F17D024FF4000C8B4224BF5B1AFA
:1005800040EA0C00B3EB510F24BFA3EB510340EA48
:100590005C00B3EB910F24BFA3EB910340EA9C00F6
:1005A000B3EBD10F24BFA3EBD10340EADC001B0166
:1005B00018BF5FEA1C1CE0D1FD2A3FF650AF8B420A
:1005C00040EBC25008BF20F0010070470CF0004C17
:1005D0004CEA50207F32C2BFD2F1FF0340EAC25042
:1005E000704740F400004FF00003013A37E792F003
:1005F000000F00F0004C02BF400010F4000F013A61
:10060000F9D040EA0C0093F0000F01F0004C02BF5B
:10061000490011F4000F013BF9D041EA0C0195E7C4
:100620000CEAD15392EA0C0F08D142027FF47DAF5D
:1006300093EA0C0F7FF470AF084676E793EA0C0F4D
:1006400004D14B023FF44CAF08466EE730F0004C4B
:1006500018BF31F0004CCAD130F000427FF45CAFDB
:1006600031F000437FF43CAF5FE700BF4FF0FF3C49
:1006700006E000BF4FF0010C02E000BF4FF0010C9C
:100680004DF804CD4FEA40024FEA41037FEA226C65
:1006900018BF7FEA236C11D001B052EA530C18BF87
:1006A00090EA010F58BFB2EB030088BFC81738BFEC
:1006B0006FEAE17018BF40F0010070477FEA226CDA
:1006C00002D15FEA402C05D17FEA236CE4D15FEAD6
:1006D000412CE1D05DF8040B704700BF844608460A
:1006E0006146FFE70FB5FFF7C9FF002848BF10F1CB
:1006F000000F0FBD4DF808EDFFF7F4FF0CBF012010
:1007000000205DF808FB00BF4DF808EDFFF7EAFF99
:1007100034BF012000205DF808FB00BF4DF808ED54
:10072000FFF7E0FF94BF012000205DF808FB00BF49
:100730004DF808EDFFF7D2FF94BF012000205DF8CF
:1007400008FB00BF4DF808EDFFF7C8FF34BF0120DC
:1007500000205DF808FB00BF4FEA4002B2F1FE4FF7
:100760000FD34FF09E03B3EB12620DD94FEA002373
:1007700043F0004310F0004F23FA02F018BF40424C
:1007800070474FF00000704712F1610F01D1420233
:1007900005D110F0004008BF6FF0004070474FF0E7
:1007A0000000704753B94AB9002908BF00281CBF90
:1007B0004FF0FF314FF0FF3000F00CB8ADF1080CF6
:1007C0006DE904CE33F07AFCDDF804E0DDE90223C4
:1007D00004B07047704700BF10F8012B11F8013BBF
:1007E000012A28BF9A42F7D0D01A7047034613F85F
:1007F000012B002AFBD1181A0138704700000000B5
:1008000001F0FF01102A2BDB10F0070F08D010F8C1
:10081000013B013A8B422DD010F0070F42B3F6D1C5
:10082000F0B441EA012141EA014122F007047FF0DE
:1008300000070023F0E80256083C85EA010586EA35
:10084000010685FA47F5A3FA87F586FA47F6A5FA71
:1008500087F68EB9EED1F0BC01F0FF0102F007027D
:1008600032B110F8013B013A83EA010313B1F8D128
:100870000020704701387047002D06BF3546033809
:10088000073815F0010F07D1013015F4807F02BF42
:10089000013015F4C03F0130F0BC0138704700BF93
:1008A0000348044B834202D0034B03B118477047FF
:1008B000CC010020CC010020000000000548064BC0
:1008C0001B1AD90F01EBA301491002D0034B03B14E
:1008D00018477047CC010020CC0100200000000028
:1008E00010B5064C237843B9FFF7DAFF044B13B178
:1008F0000448AFF300800123237010BDD001002015
:1009000000000000C04B030808B5054B1BB10549AA
:100910000548AFF30080BDE80840FFF7CFBF00BF38
:1009200000000000D4010020C04B0308024403462D
:10093000934200D1704703F8011BF9E770B50D4BE6
:100940000D4C00261D1BB6EBA50F09D134F038F96C
:100950000A4C0B4B00261D1BB6EBA50F05D170BD35
:1009600054F8043B98470136EDE754F8043B9847A8
:100970000136F1E7C01B0708C01B0708C01B0708AA
:10098000C41B07087047704737B5002944D051F899
:10099000043C0190002BA1F10404B8BFE41800F05E
:1009A000DDF81E4A0198136833B96360146003B020
:1009B000BDE8304000F0D8B8A34208D925686119D5
:1009C0008B4201BF19685B6849192160EDE71A463F
:1009D0005B680BB1A342FAD911685518A5420BD137
:1009E000246821445418A3421160E0D11C685B685C
:1009F00053600C441460DAE702D90C230360D6E795
:100A0000256861198B4204BF19685B68636004BF85
:100A1000491921605460CAE703B030BD300300209B
:100A200070B50F4C0E462168054611B900F0A2F8CA
:100A300020603146284600F09DF8431C03D14FF05A
:100A4000FF34204670BDC41C24F00304A042F8D03B
:100A5000211A284600F08EF80130F2D1EFE700BFEE
:100A60002C0300202DE9F843CD1C25F003050835A3
:100A70000C2D38BF0C25002D064601DBA94204D9F8
:100A80000C2333600020BDE8F883334F00F066F894
:100A90003B681C463CBB29463046FFF7C1FF431C60
:100AA000044656D13C68A046B8F1000F40D1002C56
:100AB00049D023684146304604EB030900F05AF858
:100AC000814540D121686D1A29463046FFF7A8FFBD
:100AD000013038D023682B4423603B685A685ABBE6
:100AE000C7F800800EE02268521B1ED40B2A16D9CC
:100AF0006119A342256018BF5960636808BF396057
:100B000062514B60304600F02FF804F10B00231DBA
:100B100020F00700C21A1CBF1B1AA350B3E762687B
:100B2000A3420CBF3A605A60ECE723466468B1E721
:100B30004446D8F80480B7E71A465B68A342FBD165
:100B400000235360DEE70C233360304600F00CF8DE
:100B500098E70560D6E700BF300300200148FFF7A3
:100B600011BF00BF280300200148FFF70CBF00BFE2
:100B70002803002038B5064C0023054608462360AC
:100B800005F01AF8431C02D1236803B12B6038BD6D
:100B900024030020030A420923F4FF6323F0070320
:100BA00002F4FC6213439BB2C0F3C40018437047C5
:100BB00070B504460D46164620F0CCF8324629465C
:100BC000204620F0CEF832462946204620F0B4F8E0
:100BD00032462946204620F0B6F870BD38B50446A6
:100BE00010211BF08FFA00252A464FF00001204605
:100BF00020F0BEF82A46FF21204620F0C0F82A4601
:100C000029462046FFF7D4FF38BD000010B500206C
:100C10002DF0FEF91C4C208000202DF010FA1B4B0B
:100C20001880B4F90030002B15DD002816DD174BB5
:100C3000B3F800C0ACF16A031BB21D2B00DC1E230D
:100C4000143B134981FB0321A1EBE37109B2114B62
:100C5000198000220FE001222280E6E70B4B0122DF
:100C60001A80E4E701F10A0312FB03F32A330A486E
:100C700020F812300132022AF4DDACF1380C074BB7
:100C8000A3F800C010BD00BF400300203E030020B9
:100C900056555555360300203803002034030020F4
:100CA00008B52DF0AFF918F0B3FA08BD08B50A4B36
:100CB000186820B12FF06AFE074B00221A60FFF778
:100CC000EFFF20F075F95C2200210448FFF72EFEAB
:100CD000034B00221A7008BDA40300204403002027
:100CE000A1030020F8B50F4616461D4632F0B0FAB3
:100CF00004460022294620F05EF80698FFF74AFFD6
:100D000001460022204620F04FF8002211462046DE
:100D100020F035F8002211462046FFF749FF0799D9
:100D2000204632F03BFE3246394620461CF004FA9B
:100D30002046F8BD30B583B00D4606990191009369
:100D400013462A460021FFF7CDFF0446084BB3F9AE
:100D500000101CF0FBF900220221204620F032F89E
:100D60002A46002120461CF0E7F9204603B030BD9A
:100D70004003002030B583B00446FFF791FF0546DD
:100D8000FFF794FFFFF742FF2846FFF727FF6CB1FC
:100D90000094074B074A00212846FFF7CBFF0023AA
:100DA0001A4609211CF05EFA03B030BD024CEFE791
:100DB000DCD6D2001CB90308A05D0308034B1B78E6
:100DC00013B1034B01221A70704700BFA10300202A
:100DD000A00300202DE9F04182B0044690F858624B
:100DE00090F85932DB0803FB06F6D0F86C72D0F8A5
:100DF00070329F4209D98846FF1AB7FBF6F797422F
:100E000028BF17460FB100252EE004F580540123BA
:100E100084F889320025284602B0BDE8F08104F547
:100E20008054012384F88932F5E704F580540123C6
:100E300084F88932EFE7334B1B788DF8003094F853
:100E40005822012A35D92F4A50788DF80100803B6D
:100E50001B021BB28038000200B2AA0028F825301D
:100E6000931C28F803000135BD4226D2B6F5807FD9
:100E7000DBD801AB32462349204617F0A1FB0028FE
:100E8000CDD1019BB342CAD194F85932082BD2D0AC
:100E90001C4A13785278120212B2134394F8582263
:100EA000012A08D9174A9078D278120212B2104358
:100EB000D3E71846C9E71846CFE7D4F8702207FBF6
:100EC0000622C4F87022D4F86C329A4204D304F596
:100ED0008053012183F88912D4F8543294F85812BF
:100EE00001FB03F394F85912C90801FB03F32BB17A
:100EF0004FF47A7101FB02F2B2FBF3F3C4F86432EF
:100F00003D4688E7A803002098B3F8B50C4605468F
:100F100049B3FFF76BFC07462046FFF767FC064620
:100F2000874222D3381A002302E094451FD10133AF
:100F3000B34216D2C21815F802C0E25CACF141010E
:100F4000C9B2192903D80CF1200C5FFA8CFCA2F16C
:100F5000410E5FFA8EFEBEF1190FE6D82032D2B2F2
:100F6000E3E7012002E0084600E00020F8BD002091
:100F7000FCE7704770B58CB005460022002317F0DF
:100F8000E3FD0BAB0C2208A9284617F019FB00283B
:100F900040F0C8800B9B0C2B40F0C88004226B49AA
:100FA00008A833F0A9FA002840F0C4800422684958
:100FB0000AA833F0A1FA064600284AD04FF0FF33C2
:100FC0001E46ACE00BAB102202A9284617F0F8FA37
:100FD000002877D10B9B102B74D19DF808109DF839
:100FE000093041EA03219DF80A309DF80B2043EABD
:100FF00002230FFA83FC18469DF80C309DF80D2053
:1010000043EA02239DF80E2043EA02439DF80F2095
:1010100043EA02639DF816209DF817E042EA0E228B
:1010200012B201294BD1002850D05FFA8CF185F81B
:101030005812C5F8543285F85922AA6BC5F86822AF
:101040002346102C38BF1023103BC5F86C32102CEF
:101050003ED80BAB08226946284617F0B1FA0028A3
:1010600043D10B9B082B40D19DF804309DF80520FF
:1010700043EA02239DF8062043EA02439DF8072035
:1010800043EA0264009B06938DF81C000422314958
:10109000684633F031FA002894D004222E4968467D
:1010A00033F02AFAD0B1621C22F00102A96BEB6B7B
:1010B000521843F10003284617F046FDC9E72748B8
:1010C00003F056FD4FF0FF331E4628E00121AEE746
:1010D0001A440023284617F037FDBAE7AB6BC5F872
:1010E0006832C5F86C42C5F87002D5F868322BB387
:1010F000D5F8543233B395F8582202FB03F395F830
:101100005922D20802FB03F33BB1D5F86C224FF40D
:101110007A7101FB02F2B2FBF3F3C5F8603230469C
:101120000CB070BD4FF0FF331E46F8E74FF0FF33B1
:101130001E46F4E74FF0FF331E46F0E74FF0FF3353
:101140001E46ECE74FF0FF331E46E8E73C4C030831
:10115000444C03084C4C0308704C0308544C0308DF
:1011600038B5044600F58053D3F87C120B46184678
:10117000013304F58052D2F87822934211D222181A
:1011800092F87822FF2AF2D1E21892F8782202F03F
:10119000E002E02AEBD104F58054C4F87C0201207F
:1011A0000AE089B1531A1D4607D104F58054C4F8EA
:1011B00078520020C4F87C0238BD04F51E701A462F
:1011C000014433F0A9F9F0E70846F5E72DE9F041CD
:1011D00088B004460E461746002549E004F58053C2
:1011E000C3F878820022C3F87C2204F5805393F878
:1011F0008932002B59D104F51E7104F58053D3F8C0
:10120000780202ABC0F580520144204617F0D8F9AD
:10121000002845D104F58051D1F87832029A134460
:10122000C1F8783212B9012281F8892204F580537D
:10123000D3F87822D3F87C0204F51E7102AB009338
:101240004B4B121A0144D4F8740202F05EFE0028DF
:101250003EDC029B002B69DD04F58052D2F87C1243
:101260001944C2F87C12D2F880120B44C2F88032C2
:10127000BD421AD204F58053D3F87C12D3F87822F9
:101280009142D3D3002302930029AED0B2EB0108E0
:10129000A4D004F51E704246014433F03DF99DE7A9
:1012A00004F58053012283F8892204F58053D3F892
:1012B00084224AB1D3F880324FF4FA5101FB03F390
:1012C000B3FBF2F3C4F86432284608B0BDE8F081FD
:1012D00004F58053D3F87C12029A1144C3F87C12AF
:1012E000D3F880120A44C3F8802294F85832B0FB35
:1012F000F3F1002307E06246A80026F825C002307B
:101300003252013501338B42B2D2BD42B0D294F891
:10131000582203FB02F0DFF858C03CF910C0012A44
:10132000E9D90130124A32F91020E5E72046FFF7EB
:1013300017FF60B904F5805393F88932002BB4D1BC
:1013400004F58053C3F87C02C3F8780290E704F5F3
:101350008052D2F87C320133C2F87C32D2F8782243
:10136000934285D304F58053C3F87C2280E700BF05
:10137000A8040020002800F0F58070B58AB00D4662
:101380000446002900F0F18041F290220021FFF78D
:10139000CDFA2E21284633F0E6F840B374492846AA
:1013A000FFF7B2FD20B973492846FFF7ADFDC0B184
:1013B000012384F8503201222946204616F05EFFB0
:1013C0000246D8B92369C4F85C3294F8503213BB92
:1013D0002046FFF7CFFDC0B9012384F851320AB08F
:1013E00070BD65492846FFF78FFD0028E3D12946E7
:1013F000624803F0BDFB4FF0FF30F0E7294660483C
:1014000003F0B6FB4FF0FF30E9E7204617F08CFB06
:101410004FF0FF30E3E741F60C200FF0E3FBC4F898
:10142000740200286BD041F60C220021FFF77EFAEF
:101430000023099304F51E7319461E4609AB4FF4A9
:101440008052204617F0BCF800285ED104F5805386
:10145000099AC3F87822C3F87C02C3F88002D4F852
:10146000740202F04CFD2046FFF77AFE002859D0A6
:1014700004F58053D3F87C12D3F8782203AB0093A1
:10148000404B521A304608440146D4F8740202F028
:101490003CFD002856DD059A002A53D0DDF818C01F
:1014A000BCF1000F4ED084F85822C4F854C2102367
:1014B00084F85932089B04F58051C1F88432D1F880
:1014C0007C02DDF80CE07044C1F87C02C1F88002B7
:1014D0004BB1D4F85C124FF4FA5000FB01F1B1FBB0
:1014E000F3F1C4F86012012184F851120093D3B2D1
:1014F00062462946244803F03BFB00206FE7204664
:1015000017F012FB4FF0FF3069E7204617F00CFB95
:10151000D4F874020FF00AFC0023C4F874324FF0C0
:10152000FF305CE7194803F023FB204617F0FCFA74
:10153000D4F874020FF0FAFB0023C4F874324FF0B1
:10154000FF304CE7124803F013FB204617F0ECFA8B
:10155000D4F874020FF0EAFB0023C4F874324FF0A1
:10156000FF303CE74FF0FF3070474FF0FF3036E779
:10157000784C0308804C0308884C0308904C0308FF
:10158000B44C0308A8040020204D0308D44C0308E1
:10159000F84C0308B0B110B5044690F8513203B9C5
:1015A00010BD17F0C1FAD4F8740220B10FF0BEFBE1
:1015B0000023C4F8743241F2902200212046FFF744
:1015C000B5F9EDE7704710B51C4698B1034690F8A1
:1015D000510278B171B184B103F5805090F889025D
:1015E00070B993F8500270B91846FFF7F3FB20600A
:1015F000002010BD0CB1002323604FF0FF30F8E74E
:1016000000202060F5E71846FFF7E0FDEFE7000057
:10161000002800F0A68038B5044690F85132002B1F
:1016200000F0A280642900D9642194F85052002D62
:101630004DD0D4F85C02A1FB0010C1F313030A0DD6
:1016400042EA0032C2F313021344C0F313221344DC
:1016500003EB1073464AA2FB0352D20802EB82024C
:1016600002EB82029B1AC91A60F10000414A424B08
:1016700001FB03F302FB0033A1FB021213448A08AF
:1016800042EA837215460023204617F05DFAD4F82B
:10169000740208B102F033FC04F580530022C3F851
:1016A0007C22C3F87822C3F88052012183F8881283
:1016B00083F88922D3F884322BB14FF4FA5202FB1B
:1016C00005F5B5FBF3F3C4F86432002038BD94F897
:1016D000580294F85932DB0803FB00F0D4F86C325E
:1016E000A1FB031CC1F313030A0D42EA0C32C2F33F
:1016F00013021344CCF31322134403EB1C731C4A50
:10170000A2FB03E2D20802EB820202EB82029B1AE6
:10171000C91A6CF1000C174A174B01FB03F302FBCB
:101720000C33A1FB021213448A0842EA8372B2FB13
:10173000F0F200FB02F2C4F87022D4F868321A44C6
:101740002B46204617F000FAD4F87022D4F86C32F9
:101750009A4200D3012504F5805484F88952002070
:10176000B4E74FF0FF3070474FF0FF30AEE700BFF7
:101770001F85EB51295C8FC2F5285C8F0160002327
:101780004360D2008260704730B5426802F0070EB5
:1017900001EB0E0C0468D51004EBE2030A4442602E
:1017A00081688A4219DC0133625DFF2141FA0EF142
:1017B0000A404FF0000E05E08A404EEA020E13F890
:1017C000012B8C46ACF108010029F5DCCCF1080CAA
:1017D00022FA0CF040EA0E0030BD0020FCE703784E
:1017E000FF2B01D000207047437803F0F002F02A6D
:1017F00005D003F0FE02E22A01D00020704713F06A
:10180000060F0BD083781A090F2A09D0C3F381037E
:10181000032B01D001207047002070470020704743
:101820000020704738B505460C460846FFF7D7FF3D
:1018300028B16B7862785340012B01D9002038BD64
:10184000AA78A37882EA030111F00C0F0DD10F2AB8
:1018500094BF002201220F2B8CBF002301239A4248
:1018600001D00120EBE70020E9E70020E7E70000D6
:101870004378C3F3C002C3F34103013B81780909F4
:10188000C3EB031302EB4202C2EB02121344024AFF
:101890001344585C40007047A08103088378C3F369
:1018A0008103084A52F823204378C3F3C00181F032
:1018B000010122FA01F0C3F3001383F00103D840C1
:1018C000704700BFFC810308437803F00602062A34
:1018D00009D003F00E03022B02D04FF49060704742
:1018E0004FF4107070474FF4C070704770B50546E4
:1018F0000E46FFF7E9FF04462846FFF7B9FF00FB55
:1019000004F3C3EB431203EB82042846FFF7C6FF40
:10191000B4FBF0F319466A7802F00602062A03D0F7
:1019200001B10E46304670BD23F00301F8E783781D
:1019300013F0020F08D0437803F00603062B01D002
:10194000012070470420704700207047F8B50C460E
:10195000C3789D09032D23D0012D1AD020231F46C3
:10196000437803F00602062A1DD013F0080F30D08A
:101970008378C3F38106FFF77BFFEB1E18BF0123BB
:10198000D8401BD037281AD8022E14D00822164867
:1019900021E01B099B0003F00C0304331F46DFE723
:1019A00000231F46DCE7202384F800330F48FBB2F6
:1019B00084F80133F8BD0C220B480CE0C0205F28EE
:1019C0000FD9012E02D01E22094804E01B2208482C
:1019D00001E01E220748D3B284F80033BA42E7DBA5
:1019E000E5E71B220248F6E7746A0308946A0308D5
:1019F0007C6A0308886A03082DE9F04F83B08346A8
:101A00000E4601929A46002729E0454635E00C9B98
:101A100043F8040B64100C9304B32C42F7D0062156
:101A20005846FFF7B1FEA8F1020303EB4302164B41
:101A300083FB0013A3EBE073194603EB4303C31AC4
:101A40001344124A52F823904FF400100841FEF755
:101A500069FC01464846FEF7B9FCD8E7013757450F
:101A60000EDA16F8018BB8F1000FCED0019BDB5DCA
:101A700013251D4105F00305043500200424CBE7A0
:101A800003B0BDE8F08F00BF565555559C6903085B
:101A90002DE9F04F85B00390884614461146FFF7B4
:101AA00055FF8346364F4FF00009CA464D4614E0B5
:101AB0009BF802309A449BF801901BF8037B304B53
:101AC0001F4410E049464046FFF75EFE3A5C18E0CE
:101AD0000136264486F80233013594F80033AB42D0
:101AE00015DD5545E4D049464046FFF74DFE3A5CCA
:101AF0006E0004EB450383F8022394F80133AB42F4
:101B0000E0DC94F80133002BE2D01346E0E7002537
:101B10000AE002214046FFF737FEC0B200E006208F
:101B2000631983F84203013594F800235300B5EBA1
:101B3000420F0CDA631993F80233002BEFD0039BAA
:101B40005B7803F00603062BE3D10220E8E700945C
:101B500004F2423204F202314046FFF74DFF94F89E
:101B6000012306E0530001332344002183F80213CC
:101B7000013294F800339342F4DC05B0BDE8F08FF5
:101B8000986A03082DE9F04F85B08B4601921F46F5
:101B90004FF4107A4FF00009039048E04946584648
:101BA000FFF7F2FD801BFEF7BDFB44F82500013571
:101BB000BD42F3DB04EB8A04CAF1120A08F1010802
:101BC000019B93F80033B8EB430F2CDA019B43449D
:101BD00093F80293B9F1000FECD0B9F1100F06DCC5
:101BE00009F1FF3201269640013E0025E0E7A9F108
:101BF000110302269E400136A6EBD601023158465B
:101C0000FFF7C2FD00250BE0B0FBF6F906FB19005B
:101C1000A0EB5600FEF786FB44F825000135484648
:101C2000BD42F1DBC6E7DDF8089009F10109B9F121
:101C3000030F09DC07FB09F4039B03EB84044FF05B
:101C40000008CDF80890BBE7B80005B0BDE8F08FFC
:101C50002DE9F04F83B005460C46914692F802807C
:101C6000C8F381085278C2F3C003C2F300110B44D9
:101C700003EB430318EB030814BF01230023A8EB75
:101C8000030899F8033003F0C003C02B14D04FF0C1
:101C9000020A12F0080F12D04FEA4A0A0921284618
:101CA000FFF772FD01900AF107012846FFF76CFD6E
:101CB00007464FF0000B6DE04FF0010AE9E70AF12B
:101CC00008012846FFF760FD20FA0AF30193002778
:101CD000EFE73F0164E009217DE027F0F0073F05D1
:101CE0003F0D58B90823A37408EB8802694B03EB36
:101CF000C203236060732723A37397E008EB880275
:101D0000654B03EBC203236099F8013013F0080F11
:101D100004D0082363731E23A37387E00623F9E727
:101D2000E07220730F212846FFF72EFD064604219E
:101D30002846FFF729FDA07403212846FFF724FD5C
:101D4000E074FF232375C6F38723E373C6F34413BC
:101D5000237406F01F06667499F8013013F0080F1B
:101D600079D12089B0F5FA7F34BF00200120207698
:101D700001212846FFF708FD607601212846FFF77C
:101D800003FDA076C7F30333E3763F011C34BAF1B9
:101D9000010A66D099F8033003F0C003C02B98D035
:101DA0000C212846FFF7F0FC80B2A0808344092173
:101DB0002846FFF7E9FC80B2E080B0F5907F5DD85F
:101DC00008212846FFF7E0FCA07299F8013013F0D3
:101DD000080F80D004212846FFF7D6FC208108EBAD
:101DE0004803C8EBC3032D4A1344236016236373CF
:101DF0000023A37301212846FFF7C6FC00288FD0DB
:101E000002212846FFF7C0FCC0B2E07200283CD097
:101E100001212846FFF7B8FCC0B220730723A37442
:101E2000FF23E374E37A022B3FF457AF0A212846DD
:101E3000FFF7AAFC460103212846FFF7A5FC6075C1
:101E400003212846FFF7A0FCA07503212846FFF7D1
:101E50009BFCE07577E701212846FFF795FCC0B2AF
:101E600085E76B6803EB0B02AB68019903EBC103D9
:101E70009A4206DD4FF0FF33019302E04FF0FF334B
:101E80000193019803B0BDE8F08F4FF0FF33019349
:101E9000F7E700BFA87F0308687E0308E88003080F
:101EA000F8B504460D462E46782DA8BF782606F0D4
:101EB00003020A4B53F82270B3104FF080401841D0
:101EC000FEF730FA3946FEF781FA01462046FEF762
:101ED0007DFA0446AD1B002DE5DCF8BDD07D03087E
:101EE000F8B50446802837DDB0F5806F39DAC400D4
:101EF00010231F46650005F0400504F03F00401B1D
:101F0000FEF710FA064624F03F002844FEF70AFACE
:101F100001463046FEF70EFB06462C44A411103451
:101F2000124B53F824401249FEF750FA1149FEF7BC
:101F300045F93146FEF74AFA4FF07E51FEF73EF979
:101F400001462046FEF742FA04463846FEF7EAF913
:101F50002146FEF73BFAF8BD1034044B53F8240039
:101F6000F9E74FF480731F46C4E700BF08820308F7
:101F7000398E633EABAAAA3F2DE9F04F8DB0804663
:101F80008E4693469C46169ABBF80610DBF8006016
:101F9000DEF80040DEF804000346002821DBDD10F7
:101FA00004EBE303645D5D7805EB04259C7804EBAA
:101FB0000524DD7805EB042500F007008540A0F13D
:101FC000080403F104094FF0000A0023019353466B
:101FD000CDF82CE08E46CDF828B0E2461692324677
:101FE000FDE0C31DDBE78D400C4406F00701C1F1A5
:101FF000200225FA02F2A2EBE6063BF91660002E5B
:10200000F1DB31128D400C444FF0000A029703932C
:102010002DE019F8013BA3401D43083C002CF8DAE1
:102020003846FFF75DFF0199FEF7D0F9002D06DB7A
:102030004FF07E51FEF7CAF9C8F800000DE0BB4929
:10204000F8E7EB0FA7EB031310330199B84A52F8E6
:102050002300FEF7BBF9C8F80000003F18BF0127B6
:10206000BD403C440AF1010A08F104083611BAF1F6
:10207000010F0CDC06F00F070F2FE2D1049AC2F11A
:10208000200325FA03F31F4495401444C6E7029F3A
:10209000039B04E019F8012BA2401543083C002CD7
:1020A000F8DA013B04D0E90E3BF911600521A6E7FF
:1020B000BE460599069E5A46079FDDF820A0AEEB66
:1020C000070EBEF1000F40F38880013E14D40B7858
:1020D00001315F08F346BE45A8BFBB46DAF80030C1
:1020E00001930AF1040A05915B4606969346079709
:1020F0007746CDF820A0D6E70A466FE01346724631
:102100000896BE4652E09540144406F00702C2F11C
:10211000200325FA03F3A3EBE6063EF91660002E32
:10212000F1DB321295401444DDF810B0CDF8089080
:10213000F24618E006F00F09EB0FA9EB031310337A
:1021400001997B4A52F82300FEF740F948F8040B46
:10215000B9F1000918BF4FF0010905FA09F54C441F
:102160000BF1010B3611BBF1010FE3DDDDF8089037
:10217000D64604E019F8013BA3401D43083C002C5F
:10218000F8DA013F04D0EA0E3EF912600522C6E7F4
:10219000039A059BDDF818B0DDF81CA0A2EB0B023A
:1021A000002A34DD08990139089113D41F780133CE
:1021B0004FEA570B17465A45A8BF5F46DAF800109A
:1021C00001910AF1040A03920593CDF818B0CDF8F5
:1021D0001CA0D8E796461A4600E00A46099BBEF1C5
:1021E000000F17DD0A99CE18F07B01330993B67CF6
:1021F000504B33F91070504B03EB47074F4B1B5CB0
:102200000493002B3FF47AAF11463A465FE79646B7
:102210001A46E3E771461646DDF82CE0DDF828B0F3
:10222000D446169AC1F10101019F019617E0DFF82B
:1022300010A11AE007F1004345E007F100434CE02C
:1022400007F100435DE007F1004364E019F8013B4A
:10225000A3401D43083C002CF8DA08F110089BF855
:102260001A30002BE3D0DFF8DCA02B0F1AF8036044
:10227000304616F0080F09D12B0106F00300C0F11B
:102280002000C34003EBE6031AF8030000F0070345
:102290009D401C44DEF80030A9EB0303033B04EB34
:1022A000C30393423CDC013907D1019B13F8011BA6
:1022B000490835D05CF8047B019310F0800F06D0FC
:1022C000002DB7DB3B46C8F800306D00013410F03C
:1022D000400F06D0002DB0DB3B46C8F804306D003F
:1022E0000134013907D1019B13F8011B490817D0AC
:1022F0005CF8047B019310F0200F06D0002D9FDBCB
:102300003B46C8F808306D00013410F0100FA2D021
:10231000002D98DB3B46C8F80C306D0001349AE77D
:10232000CEF804200DB0BDE8F08F00BF000080BFE4
:1023300008820308907D0308A86C0308886C0308D2
:102340005C6C0308786C03082DE9F843074689465E
:1023500000F51068002410E057F8245058F8246065
:1023600031462846FDF72AFF47F824003146284623
:10237000FDF722FF48F8240001344C45ECDBBDE8B2
:10238000F8832DE9F84305460F4691469846002408
:1023900010E004F51076414655F82400FEF716F8D3
:1023A00045F82600494655F82400FEF70FF845F891
:1023B00024000134BC42ECDBBDE8F8832DE9F04792
:1023C00006460F4691469A464FF0FF33CAF808304A
:1023D000CAF80430CAF8003000250EE0154B83FB24
:1023E0000523A3EBE57303EB4303EB1A4AF82350F1
:1023F00098F8003006EB830601354D4517DA0024C6
:1024000007EB05087B5DA342F2DD002156F82400AE
:10241000FEF770F90028E1D004F1010C002156F814
:102420002C00FEF767F90028D8D00234E8E7BDE8B1
:10243000F08700BF565555552DE9F04F85B005463C
:102440008A4690469B465B7813F0080F03D007231B
:102450000293002423E040230293FAE74FF07E53D7
:1024600001933BE0791C49080F9B99404FF07E5047
:10247000FFF716FD039017F0010F03D14FF07E53C5
:10248000039338E04FF07E5035E09BF8033013F0B3
:10249000200F3FD199F8003005EB8305013408EB9C
:1024A000040918F80460002E39D01AF804701D4A87
:1024B000A2FB043222F0010303EB5203E31A0E9A4B
:1024C00052F82330A342E0DA029BBB42DDD99BF8ED
:1024D000033013F0200FC1D0134B01939BF8013050
:1024E00013F0080FBED07F00104B53F82720039243
:1024F000013753F827000199FDF768FF0746019956
:102500000398FDF763FF02463B4631462846FFF736
:1025100038FFBFE731462846FFF716FFBAE705B098
:10252000BDE8F08FABAAAAAAF304B53F246C030858
:102530002DE9F04387B081460E4615461F4692F8B6
:102540000D80937B9844C3B1032403AB42462968B2
:1025500009F51060FFF732FF6B7B5BB1039B049AB8
:102560009342B8BF1346059A9342B8BF13460593EA
:10257000049303934FF0000C08E00124E5E70023E7
:102580000BE0DBB206F80E300CF1010CA44512DAB8
:102590007B7813F0080FF2D00323A8EB040EE64477
:1025A000AEEB040206A901EB8C0151F80C1C914220
:1025B000E7DAB35CE6E7AB8C03F00103019303AB0E
:1025C00000933B462A6831464846FFF735FF07B07F
:1025D000BDE8F0832DE9F04F83B00546019134E06A
:1025E00004F1120B55F82BA0C4F1110655F8268002
:1025F000DFF8689059F8247051463846FDF7E6FE3A
:10260000009004F1080359F8239041464846FDF72D
:10261000DDFE01460098FDF7CFFD45F82B00514641
:102620004846FDF7D3FE814641463846FDF7CEFECB
:1026300001464846FDF7C2FD45F826000134072C47
:10264000CEDD019B013B01934835019B002B01DD51
:102650000024F4E703B0BDE8F08F00BFE46B03088B
:102660002DE9F04F85B00446D0F80090D0F80880EE
:102670000669D0F818A0076A4FF07C515046FDF764
:10268000A5FE4946FDF79AFD054651464846FDF729
:1026900093FD834631464046FDF790FD5A49FDF7CC
:1026A00095FE824639464046FDF788FD5749FDF7BD
:1026B0008DFE009039463046FDF77EFD5449FDF70A
:1026C00085FE814641463846FDF776FD3146FDF7E9
:1026D00075FD06464FF07C51FDF778FE01465F46DA
:1026E0005846FDF769FD834631463846FDF766FDDD
:1026F0002061009E31462846FDF75EFD4946FDF704
:102700005DFD074651462846FDF756FD3146FDF76B
:1027100055FD804651462846FDF750FD4946FDF7D8
:102720004BFD0090D4F80490D4F814A0E669394920
:10273000E068FDF74BFE054651464846FDF73EFD75
:102740003549FDF743FE039031465046FDF734FD11
:102750003249FDF73BFE019031464846FDF72EFD1C
:102760002F49FDF733FE029051464846FDF724FD00
:102770003146FDF721FD2749FDF728FE8146294610
:10278000039E3046FDF718FD0299FDF715FD8246C0
:1027900029460198FDF710FD3146FDF70DFD06466F
:1027A00001992846FDF70AFD0299FDF705FD05464A
:1027B00031460098FDF700FD206049465846FDF778
:1027C000FDFC606029464046FDF7F6FCA0605146DE
:1027D0003846FDF7F3FCE06051463846FDF7ECFC67
:1027E000606129464046FDF7E9FCA061494658462C
:1027F000FDF7E2FCE06131460098FDF7DFFC206266
:1028000005B0BDE8F08F00BFB28F703F7D1B443F25
:10281000D4D0313ED7B35D3F5C1C7C3F441DAF3EFE
:10282000BB8D243F2DE9F04F99B0824601911746A8
:102830001D464FF00009CDF81090C1E0340104F1BD
:10284000040904F1080BC6F104075AF80B105AF8F2
:102850000900FDF7B1FC18AB03EBC70747F8240CE0
:10286000770007F101085AF80B105AF80900FDF734
:10287000A5FC18AB03EB880848F8480C06F10108E2
:102880004FEA08160C34C7F107075AF804105AF833
:102890000600FDF791FC18AB03EB870747F8240C03
:1028A0005AF806105AF80400FDF788FC464600F175
:1028B000004018AB03EBC80848F8480C032EBDDDF8
:1028C000009F06A8FFF7CCFE0FA8FFF7C9FE109BDC
:1028D00003F100431093129B03F100431293149BE6
:1028E00003F100431493169B03F100431693002455
:1028F000CDF80CA0059556E0019B53F8248018AA4A
:1029000002EB840959F848AC04F10906354D55F835
:102910002620009211465046FDF758FD029059F8C6
:10292000249C55F824B059464846FDF74FFD014612
:102930000298FDF743FC054659465046FDF746FD13
:10294000824649460098FDF741FD01465046FDF795
:1029500033FC019B43F82400414657F82400FDF75F
:1029600035FD8146294657F82600FDF72FFD014623
:102970004846FDF721FCDDF80C9049F8240041465B
:1029800057F82600FDF722FD0646294657F8240091
:10299000FDF71CFD0146C4F111053046FDF70EFCA4
:1029A00049F825000134082CA6DDDDF80CA0059DB2
:1029B000049B013304930AF1480A019B24330193D9
:1029C000049BAB420ADADAF8003003F100430693C5
:1029D000DAF844300F93002600976FE719B0BDE88E
:1029E000F08F00BFF46A03082DE9F041064608465F
:1029F00090461C460F49FDF7E9FC05464FF07C5117
:102A00004046FDF7E3FC014637463046FDF7D4FB70
:102A1000064639464046FDF7D1FB60603146284600
:102A2000FDF7CCFB206029463046FDF7C5FBA060D2
:102A3000BDE8F081D7B35D3F2DE9F04F8BB0044680
:102A40000391019205688769D0F80C80416A006B98
:102A5000FDF7B4FB064641463846FDF7AFFB01469D
:102A600005F1004007AB3246FFF7BEFF266B676AF1
:102A7000E168A069FDF7A0FB054639463046FDF741
:102A80009BFB014604AB2A46E06BFFF7ADFF059BBD
:102A900003F100430593002456E0019B53F8247092
:102AA0000AAA02EB840555F80CACE31C294E56F833
:102AB000238041465046FDF789FC029055F8189C4A
:102AC00056F824B059464846FDF780FC0146029866
:102AD000FDF774FB054659465046FDF777FC8246E4
:102AE00049464046FDF772FC01465046FDF764FB3F
:102AF000019B43F82400C4F1020356F823903946A1
:102B00004846FDF763FC8246C4F1050856F8286084
:102B100029463046FDF75AFC01465046FDF74CFB6E
:102B2000DDF80CA04AF8240039463046FDF74EFC8B
:102B3000064629464846FDF749FC01463046FDF762
:102B40003DFB4AF828000134022CA6DD0BB0BDE89D
:102B5000F08F00BF3C6B030800F1480100200AE041
:102B600051F8232002F1004241F823200233112BB7
:102B7000F6DD023090311F2801DC0123F7E77047B2
:102B80002DE9F04FA9B04FF00009CB460790069110
:102B9000A5E104EBC40357F833A0C4F10F0303EB22
:102BA000C30357F8335004F1100303EBC30357F882
:102BB0003360C4F11F0303EBC30357F833B0594626
:102BC0005046FDF7FBFA029031462846FDF7F6FA2B
:102BD000019031462846FDF7EFFA04EB4405DFF893
:102BE000289259F82510FDF7F1FB06465946504644
:102BF000FDF7E2FA6B1C59F82310FDF7E7FB82465C
:102C00000199DDF808B05846FDF7D8FAC8F8000079
:102C100001995846FDF7D0FA023559F82550294652
:102C2000FDF7D4FBC8F8200051463046FDF7C6FA40
:102C3000C8F8400031465046FDF7BEFA0146284626
:102C4000FDF7C4FBC8F86000013408F10408072C44
:102C50009FDDDDF80CB008AC00230193CDF814B073
:102C6000C8E0D4F800A0D4F80480A668E76802970A
:102C700025696769D4F81890D4F81CB059465046B5
:102C8000FDF79AFA039059465046FDF797FA8246A7
:102C900049464046FDF790FA834649464046FDF7CF
:102CA0008DFA814639463046FDF786FA8046394628
:102CB0003046FDF783FA06462946029F3846FDF75F
:102CC0007BFA029029463846FDF778FA0746014616
:102CD0005046FDF771FA054639465046FDF76EFA43
:102CE000074631464846FDF767FA82463146484670
:102CF000FDF764FA064601463846FDF75FFA2060A4
:102D000031463846FDF758FA4049FDF75FFB206130
:102D100002994046FDF752FA064641465846FDF7ED
:102D20004DFA3A49FDF752FB07465946DDF80CB01B
:102D30005846FDF743FA814651462846FDF73EFACC
:102D40003249FDF743FB804631494846FDF73EFBDB
:102D500001463046FDF730FA82462E49FDF736FB34
:102D60004946FDF72BFA06462949FDF72FFB014698
:102D70005046FDF721FA814639465846FDF71CFAC0
:102D8000824639465846FDF719FA0746014630464D
:102D9000FDF714FA2049FDF719FB6060414628460B
:102DA000FDF70CFA1D49FDF711FBA060494650469E
:102DB000FDF702FA1A49FDF709FBE0605146484663
:102DC000FDF7FCF91749FDF701FB60614146284614
:102DD000FDF7F2F91449FDF7F9FAA06131463846DA
:102DE000FDF7EAF91149FDF7F1FAE061019B0133C2
:102DF00001932034019B032B7FF733AFDDF814B030
:102E00000024049F5AE000BF3C690308F304353FE7
:102E1000AFAF4B3E15EFC33EF781023FD48B0A3F65
:102E2000BDF1193FD764663F753DA73FCF062440EB
:102E300028AB03EB840353F8803C3B6004F11003A0
:102E400028AA02EB830304F1180902EB890959F857
:102E5000801C53F8800CFDF7B1F904F1010A04F16C
:102E6000190828AB03EB880858F8801CFDF7A6F971
:102E7000B86404F1080328AA02EB830304F10902F1
:102E800028A901EB820252F8801C53F8800CFDF750
:102E900095F9C7F89000113428AB03EB840459F876
:102EA000801C54F8800CFDF789F958F8801CFDF758
:102EB00085F9C7F8D80007F590775446062CB7DD9A
:102EC0000F9B3B6027991F98FDF778F9B864179B13
:102ED000C7F89030279BC7F8D8300BF1010B069B41
:102EE0009B4509DA079B03EB8B0704970DF120083C
:102EF0000024CDF80CB0AAE629B0BDE8F08F00BFE1
:102F000008B54FF07C51FDF759F9FDF725FCA0EB12
:102F1000D07000F30F0000B208BD0000F8B5054600
:102F20000F4614461168D2F8000EFDF745F95249D4
:102F3000FDF74CFA0646D4F8001DD4F80001FDF761
:102F40003DF94E49FDF742FA3146FDF737F906469D
:102F5000D4F80012D4F8000CFDF72EF94849FDF71B
:102F600035FA3146FDF72AF90646D4F8001BD4F8A5
:102F70000003FDF723F94349FDF728FA3146FDF731
:102F80001DF90646D4F80014D4F8000AFDF714F928
:102F90003D49FDF71BFA3146FDF710F90646D4F816
:102FA0000019D4F80005FDF709F93849FDF70EFAC4
:102FB0003146FDF703F90646D4F80016D4F80008A8
:102FC000FDF7FAF83249FDF701FA3146FDF7F6F858
:102FD00006463049D4F80007FDF7F8F93146FDF709
:102FE000EDF8FFF78DFF28802B49D4F8080EFDF788
:102FF000EDF906462949D4F8080CFDF7E7F9314602
:10300000FDF7DCF806462649D4F8080AFDF7DEF994
:103010003146FDF7D3F806462249D4F80808FDF7F3
:10302000D5F93146FDF7CAF806461F49D4F8080617
:10303000FDF7CCF93146FDF7C1F806461B49D4F837
:103040000804FDF7C3F93146FDF7B8F806461849FC
:10305000D4F80802FDF7BAF93146FDF7AFF8064695
:103060001449A068FDF7B2F93146FDF7A7F87C01D5
:10307000FFF746FF2853F8BD0000E8410000554324
:103080000080E54300A0FE440008A1450070CD4546
:1030900000711247008F92470000D04200E0C34405
:1030A00000FC174600137A4700DC1BC6000034C240
:1030B000000012430000A0C02DE9F04F95B08346F8
:1030C0000E46099110460A921C46531E03EBC30399
:1030D0001A020BEB0325079500F10043013B01EBBE
:1030E0004307089704F57068DBF88034C4F8F03FB4
:1030F000D5F88034C4F8F43FDBF80030C4F8F83F6A
:103100005BF80230C4F8FC3FDBF8842404F58053FC
:10311000C3F8F020D5F88424C3F8F420DBF80420A9
:10312000C3F8F8206A68C3F8FC2004F1F4020546ED
:1031300001463846FFF7F2FE2B46AD0104F5FA7260
:10314000194638461F4600EB8310FFF7E7FE04F1EF
:10315000F00239463046FFF7E1FE04F5F8723946D1
:103160007019FFF7DBFE934B0E2203924746CDF812
:103170002CB080E2A5005BF8248049464046FDF76C
:1031800025F90646019B53F8247051463846FDF751
:103190001DF901463046FDF711F805F150030DEB1E
:1031A000030545F8100C51464046FDF70FF9064659
:1031B00049463846FDF70AF901463046FCF7FCFF60
:1031C00045F8200C0134032CD4DD029D049B059F9F
:1031D000D3F808A0D3F80C9005F18052A2F11001A9
:1031E00007EB01110191E03A07EB02120292002471
:1031F00004950593069733E014AB03EB840555F86B
:1032000010BC019B53F8247049463846FDF7DEF8A0
:103210000646029B53F8248051464046FDF7D6F8F7
:1032200001463046FCF7CAFF01465846FCF7C6FF88
:1032300045F8100C55F8206C49464046FDF7C6F895
:10324000804651463846FDF7C1F801464046FCF736
:10325000B3FF01463046FCF7B1FF45F8200C0134BE
:10326000032CC9DD049D059B069FD3F810A0D3F85D
:10327000149005F18052A2F1200107EB0111019198
:10328000D03A07EB02120292002433E014AB03EBB6
:10329000840555F810BC019B53F8248049464046EC
:1032A000FDF794F80646029B53F8247051463846C1
:1032B000FDF78CF801463046FCF780FF0146584682
:1032C000FCF77CFF45F8100C55F8206C5146404641
:1032D000FDF77CF8804649463846FDF777F8014609
:1032E0004046FCF769FF01463046FCF767FF45F8AA
:1032F000200C0134032CC9DD049D059B069FD3F8E7
:1033000018A0D3F81C9005F18052A2F1300107EB10
:1033100001110191C03A07EB02120292002433E03E
:1033200014AB03EB840555F810BC019B53F82470D3
:1033300049463846FDF74AF80646029B53F8248072
:1033400051464046FDF742F801463046FCF736FF4D
:1033500001465846FCF732FF45F8100C55F8206C32
:1033600049464046FDF732F8804651463846FDF75B
:103370002DF801464046FCF71FFF01463046FCF79A
:103380001DFF45F8200C0134032CC9DD049D059B6D
:10339000069FD3F820A0D3F8249005F18052A2F123
:1033A000400107EB01110191B03A07EB02120292C2
:1033B000002435E07C65030814AB03EB840555F865
:1033C00010BC019B53F8248049464046FCF7FEFFA1
:1033D0000646029B53F8247051463846FCF7F6FF28
:1033E00001463046FCF7EAFE01465846FCF7E6FE89
:1033F00045F8100C55F8206C51464046FCF7E6FFA6
:10340000804649463846FCF7E1FF01464046FCF756
:10341000D3FE01463046FCF7D1FE45F8200C0134BE
:10342000032CC9DD049D059B069FD3F828A0D3F883
:103430002C9005F18052A2F1500107EB011101918E
:10344000A03A07EB02120292002433E014AB03EB24
:10345000840555F810BC019B53F824704946384642
:10346000FCF7B4FF0646029B53F8248051464046C1
:10347000FCF7ACFF01463046FCF7A0FE014658467B
:10348000FCF79CFE45F8100C55F8206C4946404668
:10349000FCF79CFF804651463846FCF797FF0146F3
:1034A0004046FCF789FE01463046FCF787FE45F8AA
:1034B000200C0134032CC9DD049D059B069FD3F825
:1034C00030A0D3F8349005F18052A2F1600107EBEF
:1034D00001110191903A07EB02120292002433E0AD
:1034E00014AB03EB840555F810BC019B53F8248002
:1034F00049464046FCF76AFF0646029B53F8247093
:1035000051463846FCF762FF01463046FCF756FE4E
:1035100001465846FCF752FE45F8100C55F8206C51
:1035200051464046FCF752FF804649463846FCF774
:103530004DFF01464046FCF73FFE01463046FCF792
:103540003DFE45F8200C0134032CC9DD049D059B8C
:10355000069FD3F838A003F1400BD3F83C9005F157
:103560008053A3F1700207EB02120192803B07EB3C
:103570000313029300240497CDF814B033E014AB86
:1035800003EB840555F810BC019B53F824704946A1
:103590003846FCF71BFF0646029B53F82480514631
:1035A0004046FCF713FF01463046FCF707FE014694
:1035B0005846FCF703FE45F8100C55F8206C4946B8
:1035C0004046FCF703FF804651463846FCF7FEFEB6
:1035D00001464046FCF7F0FD01463046FCF7EEFDA3
:1035E00045F8200C0134032CC9DD049FDDF814B02C
:1035F000DDF80C80C8F10F050A9E06FB05F50D9855
:10360000FFF77EFCDDF8209029F8150008F1110481
:1036100006FB04F41198FFF773FC29F814000C98CA
:10362000FFF76EFCDDF824A02AF815001098FFF7CC
:1036300067FC2AF81400C8F12F0506FB05F50F9862
:10364000FFF75EFC29F8150008F1310406FB04F4CD
:103650001398FFF755FC29F814000E98FFF750FC5B
:103660002AF815001298FFF74BFC2AF8140008F10D
:10367000FF3303935B46039A002A4BDB039CC4F1A0
:103680001F0202EBC200C0002546210107EB041B0C
:103690000B9E34587C500C1DDDF81CC05CF80000FB
:1036A000385102EBC2025200013201F1080056F813
:1036B00022403C500C315CF822207A506A1C02EB0C
:1036C000C2004000013005F11001090156F8204008
:1036D0007C5004315CF82000785002EBC202D2002A
:1036E000A5F11001090101F10800B4583C500C315A
:1036F0005CF802207A50D3F800A0D3F8049005F1CA
:103700008052F03A07EB02120192002402950493D2
:10371000059758E515B0BDE8F08F00BF2DE9F047DB
:1037200006468946904600273D46092F1BDC06EBDE
:10373000050A41465046FEF7D9F804465046FEF7C2
:10374000F6F804442544EB1C4B4507DA7119304662
:10375000FEF768F8034638B10137E6E7002FD4BF1B
:103760000023012300E001231846BDE8F0872DE97E
:10377000F04F85B005468B4601920393002640E04A
:103780000134B9F1000F28D1B4F5106F25DA06EB3A
:103790004403534521DA2F1939462846FEF742F8EB
:1037A0000028EDD02846FEF7C2F8A4EB0008384602
:1037B000FEF7BDF840443319034403335B45DFDAB9
:1037C000204429182846FEF72DF80028D8D0019B60
:1037D000C3F800800294C146D2E7B9F1000F0AD0C5
:1037E000029BF3185B4506DC4A46ABEB0601284614
:1037F000FFF794FFF8B9DEB10023019A1360013698
:103800000135ABF1040AB24519DD2846FDF7E7FFA3
:103810000028F4D0019B19682846FEF767F8814616
:103820002846FEF784F800EB090302930424A8E776
:10383000029B5B45E0D1039B029A1A6003E00023E0
:10384000039A13605E46304605B0BDE8F08F2DE95F
:10385000F04705460E4690461F468C684B68E41AB2
:1038600030D4E41005F58053D3F800389A46BB42B3
:10387000A8BFBA4608F10C0905F5C0510C31DB1B95
:103880005246002BA8BFC918484630F08AFE31685E
:103890007368002B18DB224601EBE30109EB0A00F9
:1038A00030F07FFE04EB0A0249464046FDF766FF12
:1038B00005F58050D0F80008B842B4BF00200120C0
:1038C000BDE8F0870734CCE70733E4E72DE9F04F94
:1038D00085B006460F4602920193DDF83C904FF00A
:1038E00000080AE02A463946304630F05AFE2F4496
:1038F0002E4408F101084FEA4909B8F1030F3DDCF5
:10390000019B13F80850CDB319F00804EAD1029BCB
:1039100013F808B0BBF1000F0AD12A4659463046C9
:10392000FDF704F82A4659463846FCF7FFFFDEE764
:10393000B9F1000F06DB4FF0FF3ACDF80C80DDF84F
:1039400038800EE04FF0010A0AFA0BFA0AF1FF3A4A
:10395000CDF80C80DDF8388003E0FF233B5530556F
:103960000134AC4207DA59464046FDF70DFF824567
:10397000F3D0C3B2F2E7DDF80C80B8E70023B370F0
:103980007370337005B0BDE8F08F00002DE9F04F83
:1039900091B082468B4603921C461A9E9A7B5B7BB3
:1039A000B3FA83F35B09002A18BF0133C3EBC303E7
:1039B000614A02EB8308657E0135E27E437813F0AD
:1039C000080F1DD023895D49CB5C99088DF83C1008
:1039D0008DF83D1003F003038DF83E308DF83F3035
:1039E0000192039B009343460FAA594605A8FFF78F
:1039F0006DFFA37B002B75D0C5F1030100225BE0B6
:103A0000C37813F0100F03D01B9B43B9194600E095
:103A1000002123890B41494201F00C011AE00121E8
:103A2000F7E793FBF0FE0CEB0102454FBA5C9EFBFF
:103A3000F2F902FB19EE0CF140070DEB070909F84A
:103A400004EC02FB00F00CF1FF3CBCF1000FE8DAE3
:103A50001B1A0431002B03DB01204FF0030CF4E7A9
:103A600088446FF00F02BBE7637B134440336B4421
:103A700013F82C0C94F815C00CFA01FC604403F800
:103A80002C0C637B134441336B4413F82C0C94F8D7
:103A900016C00CFA01FC604403F82C0C637B134441
:103AA00042336B4413F82C0C94F817C00CFA01FC49
:103AB000604403F82C0C0332A37B9342D4DCA17A3C
:103AC000D6399AF8033003F0E003602B1DD00023B1
:103AD000C91AC1F12C014FF08A40FEF7E1F9804686
:103AE000002720E0237E002BE9D000230AE003F129
:103AF0004B026A4412F82C1C1248C05C014402F8C4
:103B00002C1C0133092BF2DDD9E70223E0E707F192
:103B100040036B4413F82C1CA9404046FEF7C0F943
:103B200046F827000137637BA27B1344BB42EEDCDF
:103B300011B0BDE8F08F00BF147E0308047E0308B7
:103B4000EC7D0308E07D030838B5034605460846CA
:103B50001146844614E01C68CCF8004053F822401B
:103B6000CCF8044053F83240CCF808400EF1010E76
:103B700004330CF10C0C9645EDDB033103EBC2036F
:103B80000A7812B14FF0000EF5E7ACEB00020146E7
:103B9000284630F006FD38BD2DE9F04192B00446CC
:103BA0000D46174626E048222146684630F0F9FCCB
:103BB00029686B68A868EA6821606360A060E260B9
:103BC00029696B692161636105F11806324604F1C8
:103BD00018016846FEF730FF324604F1300101A8B3
:103BE000FEF72AFF3246294602A8FEF725FF013FCD
:103BF00024354834002FD6DC12B0BDE8F081000037
:103C0000F8B50D4617461C4683B9022F1FD0032F67
:103C100014BF0022012202EBC202C4F120030F49AB
:103C200001EBC2022946FEF7FDFDF8BD0B4A0E4628
:103C30000546FEF7F7FD04EBC4032A4605EBC30374
:103C4000184604EBC40306EB83031D46DDE7C4F10D
:103C500020022946FFF7A0FFE7E700BF546B0308E7
:103C60002DE9F04F85B081460E460393002493461C
:103C70002CE07268E500C4EBC4080BEB8808B8F8C8
:103C8000043002EB030A04EB8401C4EBC10101F52B
:103C90007C511831314406F5EB571C3701940097DD
:103CA00043463246043109F5C0500830FFF76EFE36
:103CB0002819000200F678303044CDF800A03B46C9
:103CC000424631460430FEF757F90134039B9C42CB
:103CD000CFDB5F4609F5805393F80B3813F0100FD4
:103CE00005D103F0E003602B0DD0002548E009F575
:103CF000C05308335A4606F57D51033106F67C3031
:103D0000FEF716FCF1E74FF4107106F67C30FEF773
:103D10001BFBEAE7984609F5805292F80A38C3F38C
:103D2000810392F80918C1F3C002C1F300110A44DB
:103D300002EB42021344022B14BF0023012308FAB2
:103D400003F8BB7B2BBB4FF01F0B4FEAC50A05EBFB
:103D5000C504240204F67834344404345946204619
:103D6000FEF738FC0AEB05014346FA7A09EBC1116C
:103D70002046FFF745FF2046FEF7EEFE01351C37D3
:103D8000039B9D421BDA3B7B002BC3D04FF0020804
:103D9000C1E708F1FF3B05EBC5031B0203F67833CF
:103DA0003344043308EBC80039687A7B0A4406F5CB
:103DB000F0511C3103EBC000FFF7C6FEC5E705B0AC
:103DC000BDE8F08F2DE9F84381460F46154690F87F
:103DD000013303EBC301C90001F5106099F800231A
:103DE000D21A02EBC202D2002944284430F0D9FB97
:103DF0004FF0000816E0396855F82400FCF7E6FAA1
:103E000045F8240004F51076F96855F82600FCF70B
:103E1000DDFA45F8260001340B2CECDD08F1010831
:103E20004835183799F80033434501DD0024F3E79E
:103E3000BDE8F8832DE9F0470646894614469846C2
:103E4000DDF820A0099D002707E007EBC700214609
:103E500009EB0020FEF794FE01374745F5DB4FF4F0
:103E600070623146284630F09CFB00270BE008FBCF
:103E700007F105EB072342460AEB811109EB8700A6
:103E8000FFF71AF90237A742F1DBB8F1010F0DD1A4
:103E9000002306E003EB841155F8211046F82310A7
:103EA0000233B3F5707FF5DBBDE8F0874FF4706245
:103EB00005EB0421304630F074FBF5E738B50546D4
:103EC0004B680733D8088C68E408A4EBD304B4F536
:103ED000007F11DBA4F2FF14204440F2FF140C31E8
:103EE0002246014405F5C0500C3030F015FB05F5B5
:103EF0008053C3F8004838BD002CF0DCF7E700F52C
:103F00008050002380F8083870472DE9F04FADF558
:103F1000864D83B00546884691461F460DF586437B
:103F200030331C6800230DF5864104310B60042AF0
:103F300005DD00F5805393F80838FF2B50D00DF5C0
:103F4000864304331E68002E74D0002008EB000660
:103F500058F8002005F58053C3F808280DF586436E
:103F600004331B68034423606060F37803F0C003EC
:103F7000C02B7AD00223A3603046FDF78FFCE060AF
:103F80007378C3F34103C3F1040323613046FDF7A3
:103F90006FFC6061002F6AD00DF5864304331A6808
:103FA000043A311D0DF585407830FDF7E7FB737855
:103FB00013F0010F60D02369032B64D002AA0DF522
:103FC000854178313046FDF763FD4FF49052002172
:103FD0000DF60870FCF7AAFC4FF000084646B9E061
:103FE000414600F5C0500830FDF71CFC0028A6D063
:103FF00005F58053D3F804184046FDF777FC0646D4
:104000004046FDF794FC30440DF5864304331860B8
:10401000484594D0C31C4B4506DA08EB00014046E6
:10402000FDF700FC00288AD100230DF586420432FA
:10403000136084E741F60C2231462846FCF776FCF3
:104040000DF58643043305F5C05204324946404617
:10405000FFF78DFB0DF5864304331B681BB103444A
:104060004B457FF773AF2060B7E0012383E730460D
:10407000FDF72AFC0646B0E010210DF585407830AA
:10408000FDF782FB97E732460DF698610DF5854006
:104090007830FDF7DDFD031E08DB0DF585427C322F
:1040A00011680DF586421268914204DD2846FFF73B
:1040B00026FF002691E0E3AA0DF5854178312846D8
:1040C000FFF7C5FB834620B9E3A92846FFF7F6FEB4
:1040D0007BE000239A462CE001239A45F4DA0DF5A3
:1040E00072780DF608794FF4905200214846FCF79B
:1040F0001DFCA3680AFB03F2C2EBC2020DF6986135
:1041000001EB8202E3A92846FFF7AAFD08F5EF5369
:1041100001930097A3681222494605F51060FFF746
:1041200089FE534601339A46A36803EBC30307EBAA
:10413000C317737813F0080FCED00223CDE70DF527
:1041400085437C331A680DF586431B689A4235DC3B
:1041500008F10108B8F1020F35DC236943F00103CF
:1041600002AA0DF5854178310DF6087000EB860046
:10417000FDF708FD06440C2EE1D10DF6087602A8E5
:10418000324600EB8801FFF71DFEF2AB03F5EF535B
:1041900001930097A3680C22314605F51060FFF7E4
:1041A00049FE4FF4905200213046FCF7BFFBA36854
:1041B00003EB430307EB03270026C0E72846FFF77E
:1041C0009EFE002609E001239B4605F5C0500830FD
:1041D000FDF77AFB5E4600FB06F630460DF5864D90
:1041E00003B0BDE8F08F914200D3704708B50B468D
:1041F000521A9200002100EB8300FCF797FB08BDE8
:1042000070B582B004F03AFF044604F03DFF054665
:10421000134E01AB024621463046FDF7D4F92A463B
:1042200001992046FFF7DFFF04EB85046B462A4621
:1042300021463046FDF7C7F92A4600992046FFF788
:10424000D2FF04F0D5FE019B1BB9009B33B10122C4
:1042500000E00122034B1A7002B070BD1A46F9E764
:10426000B016002040290020F8B51C4B1B68834283
:1042700031D904460E461A4D2846FDF78BF904F055
:10428000CDFE04F015FF4FF4B072164B02FB043361
:104290001F4619462846FDF76DF8054660B9104BD4
:1042A000D3F8540204F0C4FE0F4B1C6086B90F4BC8
:1042B00002221A702846F8BD39460D4800F058FC15
:1042C000094B1C60094B00221A704FF0FF35F1E7D3
:1042D000FFF796FFEEE74FF0FF35EBE748290020A8
:1042E000B01600204C29002044290020402900203D
:1042F000504D030838B504460D46094B186818B1EF
:104300004FF0FF310BF0EEFF29462046FFF7ACFFE0
:104310000446034B186808B10BF08AFD204638BDEF
:10432000A816002010B5184B1B680BB101240AE039
:10433000164B00221A7004F071FE04F0B9FE4FF023
:10434000FF331FE00134104B1A68A24211D3104B07
:104350001B682344B3FBF2F0012102FB1030FFF78E
:10436000C9FF03460028EDD1084A1278012AE9D195
:1043700008E0064B00221A7004F050FE04F098FE8C
:104380004FF0FF33184610BD482900204029002077
:104390004429002030B583B016E01F4B93F851320A
:1043A00093B301AB2A4621461B48FDF70CF901994E
:1043B000A94229D22A462046FFF715FFFFF7B2FF90
:1043C00022E028200BF036F8144B1B78012BF8D193
:1043D000114B93F85132002BF3D004F059FE0446F0
:1043E00004F052FE054604F049FE05FB04F400EB20
:1043F00084040B4B186818B14FF0FF310BF072FFBB
:10440000064B1B78012BC8D0054B18680028DBD061
:104410000BF00EFDD8E700BFB016002040290020A9
:10442000A816002010B582B0284B1B78002B4AD16B
:10443000274B1B6823B305F07BFD78BB10220221BC
:104440004AF6444004F022FD044670BB4620214B4E
:10445000187005F049FD00230193012200924FF4EA
:1044600000621D491D480AF0F3FD012824D1174BB5
:1044700001221A701A4800F07BFB204602B010BDE2
:1044800004200BF0C9FC124B18600028D3D115484A
:1044900000F06EFB4FF0FF331C46EEE7124800F0D1
:1044A00067FB4FF0FF331C46E7E7104800F060FB66
:1044B0004FF0FF331C46E0E70D4800F059FB4FF08A
:1044C000FF331C46D9E700231C46D6E7AC16002074
:1044D000A816002050000020C84D0308954300088E
:1044E000EC4D03086C4D0308904D0308AC4D0308D8
:1044F000D04D0308F0B5E7B004460021414B1960E8
:104500004FF4B0424048FCF711FA02AD23463F4A4F
:10451000202128462FF088FF294652A814F049FC94
:10452000002847D104460AA952A814F0A2FC00288A
:1045300057D19DF84230002B53D09DF8343013F002
:10454000100FF0D10DF14200FCF750F90328EAD921
:1045500004380DF142031A181B5C2E2B31D02E2B80
:10456000E1D153786D2B01D04D2BDCD19378702B9A
:1045700001D0502BD7D1D378332BD4D13F2C30D886
:104580004FF4B07504FB05F50DF14206009602AB41
:104590001F4A4FF490711C4F78192FF045FF05F515
:1045A000907000963F231B4A402138442FF03CFF77
:1045B0000134B8E702462946174800F0D9FA00242A
:1045C0001CE05178772901D05729C8D19178612909
:1045D00001D04129C3D1D1787629CFD05629BED177
:1045E000CCE752A814F03BFC064B1C600B4B00229E
:1045F0001A6002AA21460A4800F0BAFA204667B0BB
:10460000F0BD00BF482900204C290020004E0308BF
:104610002C4E0308344E03080C4E03084429002096
:104620003C4E0308014B1868704700BF4829002022
:10463000014B1878704700BF4029002010B5164B79
:10464000186818B14FF0FF310BF04CFE134B1B688C
:10465000DBB1134B1B78012B1BD0022B03D1114B69
:1046600093F8513263B901210F4B1868FFF7FCFD35
:104670000446094B186808B10BF0DAFB204610BD60
:10468000FFF7BEFD00231C46F3E74FF0FF331C4647
:10469000EFE700231C46ECE7A8160020482900207D
:1046A00040290020B01600204429002008B50D4BF9
:1046B000186818B14FF0FF310BF014FE0A4B1B784D
:1046C000012B06D0074B186808B10BF0B1FB002096
:1046D00008BD04F0A3FC04F0EBFC034B02221A70AB
:1046E000F0E700BFA81600204029002010B50C4BB1
:1046F000186818B14FF0FF310BF0F4FD094B1B782F
:10470000012B09D0FFF79AFF0446054B186808B142
:104710000BF08EFB204610BDFFF7C8FF0446F4E700
:10472000A81600204029002010B5124B186818B1B7
:104730004FF0FF310BF0D6FD0F4B1A68AAB10F4BAB
:104740001978012900D000210D4B1B680133B3FB00
:10475000F2F002FB1030FFF787FD0446054B1868A6
:1047600008B10BF065FB204610BD4FF0FF331C462F
:10477000F4E700BFA81600204829002040290020A7
:104780004429002010B5124B186818B14FF0FF31C2
:104790000BF0A8FD0F4B1A68B2B10F4B1978012925
:1047A00000D000210D4B1B681344013BB3FBF2F01A
:1047B00002FB1030FFF758FD0446054B186808B19E
:1047C0000BF036FB204610BD4FF0FF331C46F4E7DC
:1047D000A816002048290020402900204429002054
:1047E00010B504460E4B186818B14FF0FF310BF0AE
:1047F00079FD642C00D964240A4B93F851325BB1E3
:1048000021460848FCF704FF0446054B186808B128
:104810000BF00EFB204610BD4FF0FF34F5E700BF54
:10482000A8160020B016002008B5642800D964201E
:10483000024B187005F058FB002008BD5000002006
:10484000014B1878704700BF50000020014B1868DA
:10485000704700BF44290020074B1B6853B1074B2A
:1048600018684FF4B07303FB00F000F59070044B30
:104870001844704703487047482900204429002005
:104880004C290020A05D0308044B93F851321BB162
:10489000024BD3F86402704718467047B0160020E8
:1048A000044B93F851321BB1024BD3F860027047AE
:1048B00018467047B0160020024B00221A700120E3
:1048C000704700BF4C83002008B502E001200AF0C9
:1048D000B1FD024B1B78002BF8D108BD4C830020A2
:1048E00008B501200BF098FA024B1860003818BF89
:1048F000012008BD5083002008B5044B186818B18A
:104900004FF0FF310BF02EFC08BD00BF508300209C
:1049100008B5044B186820B100231A4619460BF05D
:10492000B7F908BD5083002010B518B101280BD08D
:10493000012010BD04460130C0B20EF0F5FC08B1F4
:104940002046F6E70220F4E704F094FC08B10020CA
:10495000EFE70220EDE708B510B1012801D00120F2
:1049600008BD04F087FC08B10020F9E70220F7E752
:104970002DE9F04184B00E4617461D46804628B109
:10498000012816D0042004B0BDE8F08101301B4B93
:1049900001221A7000210291194B0193ADB20095CA
:1049A0003B463246C0B20EF035FEFFF78DFF404663
:1049B000E9E7FDB111F0030F11D00024AC4217D28A
:1049C0000122E1190F4804F05BFCA8B94FF4007212
:1049D0000C4906EB44202FF0E4FD0134EEE72A46B3
:1049E0003946304604F04CFC0028CCD04046CAE79B
:1049F0000020C8E70420C6E74046C4E74C830020F7
:104A0000B94800084C8100202DE9F04385B00F46DD
:104A100090461D46814628B1012816D0042005B0D5
:104A2000BDE8F08301301C4B01221A700021029175
:104A30001A4B0193ADB2009543463A46C0B20EF010
:104A400045FEFFF741FF4846E9E70DB311F0030FBC
:104A500013D00024AC4219D2114E4FF4007207EB70
:104A6000442130462FF09DFD012204EB0801304621
:104A700004F032FC70B90134ECE72A46414638466E
:104A800004F02AFC0028CAD04846C8E70020C6E740
:104A90000420C4E74846C2E74C830020B948000818
:104AA0004C81002070B582B00C4616460546F0B920
:104AB0000130C0B2022914D00BD8002944D00129FA
:104AC00005D100210EF014FC3060284612E00420CD
:104AD00010E0032903D10123136028460AE00420D3
:104AE00008E000210EF012FC3080284602E0012888
:104AF00002D0042002B070BD002301934FF4007374
:104B0000ADF80230022904D84BB253B9C1B90846F6
:104B1000F0E7032903D1012313600020EAE7042012
:104B2000E8E70DF1020101A804F002FC50B9012CE4
:104B300003D0BDF802303380DCE7019B3360D9E756
:104B40000420D7E72846D5E70846D3E700B5B1B03B
:104B500002460B46C02168462FF0C0FC011E05DB53
:104B6000BF2900DDBF21684605F0A2F831B000BDC5
:104B70000FB400B583B004A951F8040B0191FFF7FD
:104B8000E5FF03B05DF804EB04B0704710B50024F6
:104B900005E0002003F06CFD64200AF04BFC0134BA
:104BA000054A82FB0432E317C3EB620303EB830382
:104BB0009C42EED0F0E700BF6766666610B504461B
:104BC0000AF0E0FD022803D0204605F09BFC10BD52
:104BD000E30E6101091B63F100039B0043EA91733B
:104BE0008900091943F10003DC004FF47A720023B5
:104BF000C80044EA5171FBF7D5FD0AF01BFCE6E75B
:104C000000B583B072B6012003F032FD002301939A
:104C1000019A034B9A42F6D8019B01330193F7E7BF
:104C2000FEFF010010B594B008AC302200212046F0
:104C3000FBF77CFE002303930493059306930793ED
:104C40000193204A116C41F080511164126C02F002
:104C500080520192019A02931B4B1A6842F440421F
:104C60001A601B6803F440430293029B01230893DC
:104C70004FF48033099302230E934FF480020F9276
:104C8000192210924FF4A8721192129307231393D2
:104C9000204605F0B7FC88B90F2303930223049341
:104CA00005904FF4A05306934FF4805307930521CA
:104CB00003A805F0F9FE18B914B010BDFFF7A0FF66
:104CC000FFF79EFF003802400070004000B583B03F
:104CD00005F0ECFBFFF7A6FF03F088FC002003F0D3
:104CE000B3FC012003F0B0FC04F08EFF3B48FFF75B
:104CF0003FFF02F021F802F06BF87F2003F098FEEE
:104D00003748FFF735FF03F005FF3648FFF730FF60
:104D100003F0E4FF3448FFF72BFF3448FFF728FF88
:104D200004F060FC20B13248FFF722FFFFF768FF74
:104D30003048FFF71DFF30480CF038F82F48FFF7D8
:104D400017FFFFF7CDFD20B92D48FFF711FFFFF743
:104D500057FF01F0B3FB20B92A48FFF709FFFFF71F
:104D60004FFF2948FFF704FF002401940323009319
:104D700023464FF48062254925480AF069F90194D9
:104D80000423009323464FF40072224922480AF07C
:104D90005FF9019401231D46009323464FF40072EE
:104DA0001E491F480AF054F90194009523464FF418
:104DB00080721C491C480AF04BF9019402230093AD
:104DC00023464FF4C062194919480AF041F984F3A7
:104DD000118862B60AF07CF9FFF712FF604E0308F3
:104DE000704E0308884E0308984E0308BC4E030813
:104DF000D04E0308E44E030854000020F44E03088C
:104E0000244F03083C4F0308544F0308704F030816
:104E1000FD640008784F0308DD5B0008804F03083D
:104E2000115A0008884F03088D4B00088C4F030867
:104E30007D5E000808B5FFF7E3FE08B5FFF7E0FE6A
:104E400008B5FFF7DDFE030A420923F4FF6323F0F0
:104E5000070302F4FC6213439BB2C0F3C40018437F
:104E60007047000010B504460E4B186818F038FA69
:104E700000FB04F40C4BA3FB043444F34F14012C4B
:104E80000DDD2146094B186818F060F9611F6FF0BD
:104E9000030209B2064B186818F04EF910BD02243F
:104EA000EFE700BF7C8300201F85EB517883002053
:104EB000748300202DE9F04782B0FFF7F1FC04462F
:104EC000FFF7E2FC8046002C7FD0642300FB03F355
:104ED000B3FBF4F31F46FFF7A5FB0646FFF7B0FC54
:104EE000054681463D4B186818F001FA00FB05F1B4
:104EF0003B4BA3FB013141F34F139A46394B1D68DD
:104F00002DB1002E63D1384928462EF047FD374B8E
:104F10001D683DB1FFF79AFC3346421C34492846D0
:104F20002EF079FD3846FFF79DFF324B186890B19F
:104F3000314BA3FB0832314BA3FB08318909304BBD
:104F4000A3FB01535B09C3EB0313A1EB8303920B98
:104F50002C492EF060FD2C4B186890B1264AA2FB1C
:104F60000432264BA3FB0434A409254BA3FB0413F2
:104F70005B09C3EB0313A4EB8303920B21492EF0CF
:104F80004AFD224B1C683CB1FFF752FB012822D09E
:104F90001F4920462EF002FD1E4B186818B14A46E4
:104FA0001D492EF038FD1D4B186858B1514618F0B8
:104FB000E4F80023009304220849096817480068B0
:104FC00019F0CEFA02B0BDE8F087274683E7FFF775
:104FD00043FC014698E71249DBE700BF64830020E9
:104FE0001F85EB5184830020904F030880830020AD
:104FF000B84F03087083002073B2E745D34D6210A9
:1050000089888888C44F03086C8300206883002047
:10501000B04F03085C830020D04F0308608300205A
:10502000A84F030870B582B015F04AFA01A915F02F
:10503000ABFA104E306818F053F90546BDF804403D
:10504000306818F029F980B2231A1BB2002B0FDB4D
:10505000AB4200DD2B46642202FB03F393FBF5F524
:105060002846FFF7BDFB2846FFF7FCFE02B070BDE7
:105070000023EDE77C83002008B528F0C3FF14F07F
:10508000C7F808BD70B504460D4616461BF062FE13
:105090003246294620461BF064FE32462946204609
:1050A0001BF04AFE3246294620461BF04CFE70BDDE
:1050B000F8B50F4616461D462EF0CAF804460022E3
:1050C00029461BF078FE0698FFF7BDFE0146002238
:1050D00020461BF069FE0022114620461BF04FFEC1
:1050E000002211462046FFF7CDFF079920462EF0FB
:1050F00055FCBDF92010204618F028F832463946F4
:10510000204618F019F82046F8BD08B514F0E2F969
:1051100040B1012809D002280AD00A280BD00B2858
:1051200013D008BDFFF72EFBFBE7FFF7DFFAF8E728
:10513000FFF7FAFAF5E7FFF783FB053803D4C0B2AF
:10514000FFF772FBEDE70020F9E7FFF779FB053089
:10515000642800DD6420C0B2FFF766FBE1E70000D1
:10516000F8B50D4617461E462DF0C4FF0446304ADA
:1051700000211BF05EFCBDF918203146204618F0D6
:1051800013F83A462946204617F0D6FF002241F68A
:10519000051120461BF0ECFD0022FF2120461BF0EC
:1051A000EEFD002248F2524120461BF0EFFD0022A6
:1051B000012120461BF0F1FD0022062120461BF0B4
:1051C00008FE002211462046FFF75CFF1021204612
:1051D00016F098FF20462EF03BF8054600221549B0
:1051E0001BF0E9FD00224DF2BB6128461BF0DCFDFF
:1051F0000022114628461BF0C2FD00221146284617
:10520000FFF740FF079928462EF0C8FB00231A46F7
:105210000921284618F026F80221284616F072FFC8
:10522000089B07220449204614F06AF92046F8BD7D
:10523000FFFF0F001CB903080B5100082DE9F04FC8
:1052400089B0FFF719FF04461BF0B2FE00252A467D
:105250004FF0000120461BF08BFD2A46FF2120461F
:105260001BF08DFD2A4629462046FFF70BFF102133
:10527000204616F047FF284628F0CAFECA4E308066
:10528000284628F0DCFEC94B1880B6F90030AB4246
:1052900040F34582002840F34582C34FB7F9003000
:1052A00003EBD3724FEA62090293C14B0193DFF81B
:1052B0000483CDF80080C04B0E2200212046FFF76A
:1052C000F7FEBE4B1860002202211BF07BFDDFF8C9
:1052D000F0B2B7F900300293BA4B0193BA4B009386
:1052E0005B462E2200212046FFF7E2FEB74B1860F6
:1052F000002202211BF066FDB7F80080A8F1180813
:105300000FFA88F8DFF8A4A2BAF90000FBF70AF850
:10531000AF49FBF75BF8FBF71FFA06B2204616F021
:10532000E5FEAC4D2860AC4A00211BF082FB0E224A
:105330004146286817F038FF32460C21286817F0DC
:10534000FBFE002241F2A30128681BF011FD0022A0
:10535000FF2128681BF013FD0022042128681BF0A0
:1053600038FD1021286816F0CDFE0221286817F0BC
:1053700057F9DFF86882002302224146286814F0BA
:10538000BFF8002307224146286814F0B9F82868BE
:1053900016F0ACFEDFF84882C8F800008E4A002103
:1053A0001BF047FB0E220221D8F8000017F0FCFE8C
:1053B00000221146D8F8000017F0BEFE00224DF280
:1053C000BB61D8F800001BF0D3FC0022FF21D8F805
:1053D00000001BF0D4FC0221D8F8000016F092FE69
:1053E000286816F083FE7F4D28607B4A00211BF061
:1053F00020FB16220A21286817F0D6FE6FF0030260
:105400006FF00201286817F097FE002248F252411F
:1054100028681BF0ADFC0022FF2128681BF0AFFCC0
:105420000221286816F06EFEA6F116052DB2502353
:1054300002936D4E0196DFF87C81CDF800805B46CB
:105440002A460C212046FFF733FE684B1860398846
:105450005C39502302930196CDF800805B462A46C2
:1054600009B22046FFF724FE614B18600022032199
:105470001BF0A8FC1FFA89F6A6F1A2031AB2049247
:10548000BAF90000FAF74EFF5A49FAF79FFFFBF707
:1054900063F90FFA80F800250295574B01934FF0FE
:1054A0004009CDF800905C23424604992046FFF75E
:1054B00057FEA6F12E0101220292504B0193CDF826
:1054C00000905C23424609B22046FFF749FE294678
:1054D0001BF0B0FC4A4B186006F146010222029212
:1054E000484B0193CDF800905C23424609B2204618
:1054F000FFF736FE3F88A7F16C080FFA88F8BAF973
:105500000000FAF70FFF06463F49FAF75FFFFBF787
:1055100023F90FFA80F93D493046FAF757FFFBF7B8
:105520001BF986B2A6F170039AB2059219B20691E0
:10553000483F3FB2CDF81090BDF810A00AF13803F3
:105540001FFA83F918B20790AAF11A0250230293A6
:105550002F4B01931C4B00935B4612B241462046F1
:10556000FFF7A6FD0B2302932A4B01934FF02C0B60
:10557000CDF800B06023049A41462046FFF7F0FDC5
:1055800006EB0A0292B22C3A0A230293224B0193B1
:10559000CDF800B0602312B241462046FFF7E0FD8F
:1055A000204616F0A3FD39E05683002054830020E6
:1055B000D44F0308DCD6D2001CB903088483002032
:1055C00038B90308E44F03089088800080830020E6
:1055D0009A99993E7C830020FFFF0F002550000818
:1055E0007883002074830020EC4F03087083002030
:1055F0006C83002052B81E3FF44F0308B04F0308DD
:105600006883002000500308295C8F3EB81E053FC8
:105610000C5003081450030818500308434E306020
:10562000434A29461BF005FA069A1821306817F0FC
:10563000BBFD079A3946306817F07EFD2A4641F2D5
:10564000A30130681BF094FB2A46FF2130681BF051
:1056500096FB2A4648F2524130681BF097FB2A46D7
:10566000012130681BF099FB2A46042130681BF0A9
:10567000B0FB1021306816F045FD306816F036FD9D
:10568000DFF8B080C8F80000294A29461BF0D1F99C
:105690002A461821D8F8000017F086FD2A464DF258
:1056A000BB61D8F800001BF063FB2A46FF21D8F845
:1056B00000001BF064FB0221D8F8000016F022FD68
:1056C00000952B4604223168D8F8000018F048FFF6
:1056D000059A4A4492B206323C230293164B019338
:1056E000DFF85880CDF80080154B12B239462046BD
:1056F000FFF7DEFC134B18602A4602211BF062FB09
:10570000114B186808B12BF041F9002264210F48B1
:105710002BF01CF90C4B186009B0BDE8F08F01228A
:105720003280B7E50A4B01221A80B6E56483002077
:10573000FFFF0F00608300201C500308DCD6D2005E
:105740001CB903085C83002058830020B54E000874
:1057500054830020003818BF0120014B18607047A7
:105760008883002010B582B000230193ADF8023089
:105770001E4B1B6823B100231C46204602B010BDFF
:1057800003F03EFD48B11A4B1B6813B101231C46C0
:10579000F3E71848FFF7ECF9F8E70DF1020101A86B
:1057A00003F0C6FD0199890ABDF8022002FB01F150
:1057B000890A1148FFF7DCF9FFF79EF801220F492B
:1057C0000F4812F02FFD0446FFF7A2F834B9074B3B
:1057D00001221A600B48FFF7CBF9CEE721460A48B1
:1057E000FFF7C6F901231C46C7E700BF8C830020E2
:1057F0008883002020500308485003087450030891
:10580000908300209C5003087850030808B5094B8A
:105810001B6813B903F022FD08BDFFF76DF80022E5
:105820000549104612F0FEFCFFF772F8014B00220A
:105830001A60EFE78C8300207450030808B5034614
:1058400008461146D3F800C0BCF1000F05D0064A47
:105850001268A2EB0C02772A04D9034A12681A6074
:10586000FFF786F908BD00BFE085002008B500F00D
:10587000BDFE08BD08B501F0ABFA38B9054B196893
:10588000013119600448FFF773F908BD0348FFF7B9
:105890006FF9FAE7CC850020B0500308DC5003080C
:1058A00038B504460D4609F047FC2846A047044693
:1058B00009F012FD204638BD194B1B881BB1013B76
:1058C000174A1380704700B583B069461548FFF743
:1058D000E7FF68B9BDF80420134B5A80BDF80020DB
:1058E0009A80BDF80220DA8001221A7003B000BD50
:1058F000FFF7C0FF69460B48FFF7D2FF02460028BA
:10590000E8D0094B00211970596B01315963044BE0
:105910000421198005490648FFF790FFE6E700BF1C
:10592000D48500206D580008E4850020105103083C
:10593000DC8500202D4B1B881BB1013B2B4A1380BB
:10594000704700B58BB001A92948FFF7A9FF10F1F6
:10595000030F1AD8274B0199D9600299196103994D
:105960005961049999610599D961069919620121D2
:105970001972214B1B780BBB1E4B00225A7200225E
:105980005A629A62DA620BB000BDFFF773FF01A999
:105990001748FFF785FF10F1030FDBD9154B0021E6
:1059A00019725972596B01315963104B04211980D6
:1059B000024612491248FFF741FFE4E748B90D4B90
:1059C000079A5A62089A9A62099ADA6201225A720E
:1059D000D9E7084B00215972596B013159630246CE
:1059E00008490748FFF72AFFCDE700BFD28500200E
:1059F000095A0008E4850020D08500204C51030896
:105A0000D88500208851030808B502F069FF08BD59
:105A100070B52048FFF7ACF800F0D0FD054660B93E
:105A20001D491E48FFF7A4F802F0DCFE044640B111
:105A300010F1030F03D01A4E04E01949F1E7194E93
:105A400000E0154E02F046FF034622463146164856
:105A5000FFF78EF81CB90123144A13700EE00023DF
:105A6000FAE7FFF729FF0FE0FFF764FF104B1A6812
:105A7000104B1A634FF4FA7009F0DCFC0C4A1368FF
:105A800001331360002DECD0002CEDD014F1030F86
:105A9000ECD1E9E7FC510308D85103082C52030864
:105AA000DC510308E451030848520308D085002064
:105AB000E0850020E485002030B589B0054600234C
:105AC0000193244B1A6C42F020021A641B6C03F001
:105AD00020030193019B02A903A805F0BBF8069BD4
