:020000040800F2
:1000000000000320958900084D21000851210008B7
:1000100055210008592100085D210008000000005A
:10002000000000000000000000000000D1FA0008FD
:10003000612100080000000021FB000865FC0008A9
:10004000E5890008E5890008E5890008E5890008D8
:10005000E5890008E5890008E5890008E5890008C8
:10006000E5890008E5890008E5890008E5890008B8
:10007000E5890008E5890008E5890008E5890008A8
:10008000E5890008E5890008E5890008E589000898
:10009000E5890008E5890008E5890008792100085C
:1000A000E5890008E5890008E5890008E589000878
:1000B000E5890008E5890008E5890008E589000868
:1000C000E5890008E5890008E5890008E589000858
:1000D000E5890008E5890008E58900085D840008D5
:1000E000E5890008E5890008E5890008E589000838
:1000F000E5890008E5890008E5890008E589000828
:10010000E5890008E5890008E5890008E589000817
:10011000E5890008E5890008E589000865210008EF
:10012000E5890008E5890008E5890008E5890008F7
:10013000E5890008E5890008E5890008E5890008E7
:10014000E5890008E5890008E589000871210008B3
:10015000E5890008E5890008E5890008E5890008C7
:10016000E5890008E5890008E5890008E5890008B7
:10017000E5890008E5890008E5890008E5890008A7
:10018000E5890008E5890008E5890008E589000897
:10019000E5890008E5890008E5890008E589000887
:0C01A000E5890008E5890008E5890008F1
:1001B00080F0004002E000BF81F0004142001FBF1C
:1001C0005FEA410392EA030F7FEA226C7FEA236C25
:1001D0006AD04FEA1262D2EB1363C1BFD21841401A
:1001E00048404140B8BF5B42192B88BF704710F0B0
:1001F000004F40F4000020F07F4018BF404211F053
:10020000004F41F4000121F07F4118BF494292EABA
:10021000030F3FD0A2F1010241FA03FC10EB0C00E6
:10022000C3F1200301FA03F100F0004302D5494273
:1002300060EB4000B0F5000F13D3B0F1807F06D320
:1002400040084FEA310102F10102FE2A51D2B1F118
:10025000004F40EBC25008BF20F0010040EA03000D
:100260007047490040EB0000013A28BFB0F5000F8D
:10027000EDD2B0FA80FCACF1080CB2EB0C0200FA43
:100280000CF0AABF00EBC25052421843BCBFD04092
:100290001843704792F0000F81F4000106BF80F40C
:1002A00000000132013BB5E74FEA41037FEA226CCF
:1002B00018BF7FEA236C21D092EA030F04D092F09A
:1002C000000F08BF0846704790EA010F1CBF0020CE
:1002D000704712F07F4F04D1400028BF40F000402B
:1002E000704712F100723CBF00F50000704700F04B
:1002F000004343F0FE4040F4000070477FEA226272
:1003000016BF08467FEA23630146420206BF5FEA42
:10031000412390EA010F40F4800070474FF0000342
:1003200004E000BF10F0004348BF40425FEA000C09
:1003300008BF704743F0964301464FF000001CE0B1
:1003400050EA010208BF70474FF000030AE000BF07
:1003500050EA010208BF704711F0004302D5404245
:1003600061EB41015FEA010C02BF844601460020B7
:1003700043F0B64308BFA3F18053A3F50003BCFAD2
:100380008CF2083AA3EBC25310DB01FA02FC63447F
:1003900000FA02FCC2F12002BCF1004F20FA02F286
:1003A00043EB020008BF20F00100704702F1200279
:1003B00001FA02FCC2F1200250EA4C0021FA02F2DA
:1003C00043EB020008BF20EADC7070474FF0FF0CDF
:1003D0001CEAD0521EBF1CEAD15392EA0C0F93EADA
:1003E0000C0F6FD01A4480EA010C400218BF5FEA7C
:1003F00041211ED04FF0006343EA501043EA5111EF
:10040000A0FB01310CF00040B1F5000F3EBF4900E8
:1004100041EAD3715B0040EA010062F17F02FD2AEC
:100420001DD8B3F1004F40EBC25008BF20F00100CF
:10043000704790F0000F0CF0004C08BF49024CEAE6
:10044000502040EA51207F3AC2BFD2F1FF0340EA78
:10045000C250704740F400004FF00003013A5DDCE9
:1004600012F1190FDCBF00F000407047C2F100022A
:10047000410021FA02F1C2F1200200FA02FC5FEA17
:10048000310040F1000053EA4C0308BF20EADC7061
:10049000704792F0000F00F0004C02BF400010F4D3
:1004A000000F013AF9D040EA0C0093F0000F01F080
:1004B000004C02BF490011F4000F013BF9D041EAA2
:1004C0000C018FE70CEAD15392EA0C0F18BF93EAA4
:1004D0000C0F0AD030F0004C18BF31F0004CD8D1CE
:1004E00080EA010000F00040704790F0000F17BF55
:1004F00090F0004F084691F0000F91F0004F14D09B
:1005000092EA0C0F01D142020FD193EA0C0F03D1F2
:100510004B0218BF084608D180EA010000F00040F5
:1005200040F0FE4040F40000704740F0FE4040F4D0
:10053000400070474FF0FF0C1CEAD0521EBF1CEA6F
:10054000D15392EA0C0F93EA0C0F69D0A2EB03028D
:1005500080EA010C49024FEA402037D04FF0805327
:1005600043EA111143EA10130CF000408B4238BFEC
:100570005B0042F17D024FF4000C8B4224BF5B1AFA
:1005800040EA0C00B3EB510F24BFA3EB510340EA48
:100590005C00B3EB910F24BFA3EB910340EA9C00F6
:1005A000B3EBD10F24BFA3EBD10340EADC001B0166
:1005B00018BF5FEA1C1CE0D1FD2A3FF650AF8B420A
:1005C00040EBC25008BF20F0010070470CF0004C17
:1005D0004CEA50207F32C2BFD2F1FF0340EAC25042
:1005E000704740F400004FF00003013A37E792F003
:1005F000000F00F0004C02BF400010F4000F013A61
:10060000F9D040EA0C0093F0000F01F0004C02BF5B
:10061000490011F4000F013BF9D041EA0C0195E7C4
:100620000CEAD15392EA0C0F08D142027FF47DAF5D
:1006300093EA0C0F7FF470AF084676E793EA0C0F4D
:1006400004D14B023FF44CAF08466EE730F0004C4B
:1006500018BF31F0004CCAD130F000427FF45CAFDB
:1006600031F000437FF43CAF5FE700BF4FF0FF3C49
:1006700006E000BF4FF0010C02E000BF4FF0010C9C
:100680004DF804CD4FEA40024FEA41037FEA226C65
:1006900018BF7FEA236C11D001B052EA530C18BF87
:1006A00090EA010F58BFB2EB030088BFC81738BFEC
:1006B0006FEAE17018BF40F0010070477FEA226CDA
:1006C00002D15FEA402C05D17FEA236CE4D15FEAD6
:1006D000412CE1D05DF8040B704700BF844608460A
:1006E0006146FFE70FB5FFF7C9FF002848BF10F1CB
:1006F000000F0FBD4DF808EDFFF7F4FF0CBF012010
:1007000000205DF808FB00BF4DF808EDFFF7EAFF99
:1007100034BF012000205DF808FB00BF4DF808ED54
:10072000FFF7E0FF94BF012000205DF808FB00BF49
:100730004DF808EDFFF7D2FF94BF012000205DF8CF
:1007400008FB00BF4DF808EDFFF7C8FF34BF0120DC
:1007500000205DF808FB00BF4FEA4002B2F1FE4FF7
:100760000FD34FF09E03B3EB12620DD94FEA002373
:1007700043F0004310F0004F23FA02F018BF40424C
:1007800070474FF00000704712F1610F01D1420233
:1007900005D110F0004008BF6FF0004070474FF0E7
:1007A0000000704753B94AB9002908BF00281CBF90
:1007B0004FF0FF314FF0FF3000F00CB8ADF1080CF6
:1007C0006DE904CE39F036FDDDF804E0DDE9022301
:1007D00004B07047704700BF10F8012B11F8013BBF
:1007E000012A28BF9A42F7D0D01A7047034613F85F
:1007F000012B002AFBD1181A0138704700000000B5
:1008000001F0FF01102A2BDB10F0070F08D010F8C1
:10081000013B013A8B422DD010F0070F42B3F6D1C5
:10082000F0B441EA012141EA014122F007047FF0DE
:1008300000070023F0E80256083C85EA010586EA35
:10084000010685FA47F5A3FA87F586FA47F6A5FA71
:1008500087F68EB9EED1F0BC01F0FF0102F007027D
:1008600032B110F8013B013A83EA010313B1F8D128
:100870000020704701387047002D06BF3546033809
:10088000073815F0010F07D1013015F4807F02BF42
:10089000013015F4C03F0130F0BC0138704700BF93
:1008A0000348044B834202D0034B03B118477047FF
:1008B000CC010020CC010020000000000548064BC0
:1008C0001B1AD90F01EBA301491002D0034B03B14E
:1008D00018477047CC010020CC0100200000000028
:1008E00010B5064C237843B9FFF7DAFF044B13B178
:1008F0000448AFF300800123237010BDD001002015
:10090000000000000CAD030808B5054B1BB10549FC
:100910000548AFF30080BDE80840FFF7CFBF00BF38
:1009200000000000D40100200CAD0308024403467F
:10093000934200D1704703F8011BF9E770B50D4BE6
:100940000D4C00261D1BB6EBA50F09D13AF0DEF9C0
:100950000A4C0B4B00261D1BB6EBA50F05D170BD35
:1009600054F8043B98470136EDE754F8043B9847A8
:100970000136F1E770B9040870B9040870B90408C9
:1009800074B904087047704737B5002944D051F84E
:10099000043C0190002BA1F10404B8BFE41800F05E
:1009A000DDF81E4A0198136833B96360146003B020
:1009B000BDE8304000F0D8B8A34208D925686119D5
:1009C0008B4201BF19685B6849192160EDE71A463F
:1009D0005B680BB1A342FAD911685518A5420BD137
:1009E000246821445418A3421160E0D11C685B685C
:1009F00053600C441460DAE702D90C230360D6E795
:100A0000256861198B4204BF19685B68636004BF85
:100A1000491921605460CAE703B030BD300300209B
:100A200070B50F4C0E462168054611B900F0A2F8CA
:100A300020603146284600F09DF8431C03D14FF05A
:100A4000FF34204670BDC41C24F00304A042F8D03B
:100A5000211A284600F08EF80130F2D1EFE700BFEE
:100A60002C0300202DE9F843CD1C25F003050835A3
:100A70000C2D38BF0C25002D064601DBA94204D9F8
:100A80000C2333600020BDE8F883334F00F066F894
:100A90003B681C463CBB29463046FFF7C1FF431C60
:100AA000044656D13C68A046B8F1000F40D1002C56
:100AB00049D023684146304604EB030900F05AF858
:100AC000814540D121686D1A29463046FFF7A8FFBD
:100AD000013038D023682B4423603B685A685ABBE6
:100AE000C7F800800EE02268521B1ED40B2A16D9CC
:100AF0006119A342256018BF5960636808BF396057
:100B000062514B60304600F02FF804F10B00231DBA
:100B100020F00700C21A1CBF1B1AA350B3E762687B
:100B2000A3420CBF3A605A60ECE723466468B1E721
:100B30004446D8F80480B7E71A465B68A342FBD165
:100B400000235360DEE70C233360304600F00CF8DE
:100B500098E70560D6E700BF300300200148FFF7A3
:100B600011BF00BF280300200148FFF70CBF00BFE2
:100B70002803002038B5064C0023054608462360AC
:100B800001F000FB431C02D1236803B12B6038BD88
:100B90002403002070B582B019F0A6FD0128064696
:100BA00024D0264C2078B0FA80F04009207006F05E
:100BB0001FFB234BD86C38B12278002A36D121494B
:100BC000019339F06DF9019B586D28B12378002B02
:100BD0002ED11D4939F064F91C4D23782A781C4820
:100BE000314602B0BDE8704000F010BE174D2B78C2
:100BF000002B0CBF012300232B7014D105F0C6FF7E
:100C00000F4B986C30B12A78B2B91249019339F080
:100C100047F9019B186D20B12B785BB90E4939F06B
:100C20003FF9064CD9E705F0BDFFE9E70B49C7E7F7
:100C30000B49CFE70B49F2E70B49E7E73403002004
:100C40004C030020CCAD0308F0AD030835030020B1
:100C500004AE03088CAD0308A8AD0308BCAD0308BF
:100C6000DCAD030894AD030884AD030810B5002083
:100C700032F048FC194C2080002032F055FCB4F9C9
:100C80000020174B002ADCBF012222800028188098
:100C90001DDDA0F16A031BB21E2BB8BF1E23114A33
:100CA000143B1BB2A2FB03235B0803F10A02383892
:100CB0000D4C0E4923804FF02A0C0D4CA1F800C0BA
:100CC0000CEB420362444A808B80208010BD0122DD
:100CD0001A806FF036000D220323E9E74403002059
:100CE00042030020ABAAAAAA380300203C0300203C
:100CF0003603002000B583B007F09EFE194A136842
:100D0000C31AB3F57A7F04D3174910600B68013317
:100D10000B6002F011FE154B1B6843B1022B15D07E
:100D2000032B0ED003B05DF804EB02F023B901935E
:100D300003F0F6F803F06CF90D4A117859B903B0D5
:100D400000BD03B05DF804EB02F0EEBC03B05DF84B
:100D500004EB01F043BF03F0FDF8019B044A13705C
:100D600003B000BDAC030020B00300204803002006
:100D7000A8030020F0B583B00F46089D01931646E6
:100D800039F080F801990022044622F0CFFC19497D
:100D90006B0903F4FC6301EA15211943C5F3C4058B
:100DA00029432046002222F0ADFC002211462046B5
:100DB00022F068FC00221146204622F043FC00226B
:100DC0001146204622F044FC00221146204622F023
:100DD0002DFC00221146204622F02EFC09992046C7
:100DE00039F05EF82046324639461DF021FB204698
:100DF00003B0F0BD00F8FFFF30B583B00D46069993
:100E0000CDE90031134600212A46FFF7B3FF094B15
:100E10000446B3F900101DF063FB204600220221B6
:100E200022F08AFC20462A4600211DF001FB2046C4
:100E300003B030BD44030020F0B583B01D460F461B
:100E400016461CF0F3FC264A0021044621F07CFDE6
:100E5000244B198818393246204609B21DF014FB7C
:100E60003A4620460C211DF0E3FA2046002241F2CA
:100E7000A30122F0F3FB20460022FF2122F002FC16
:100E80002046002248F2524122F002FC2046002275
:100E9000012122F011FC00221146204622F0D2FB53
:100EA00000221146204622F0D3FB002211462046A4
:100EB00022F0BCFB00221146204622F0BDFB20465A
:100EC00010211CF00DFD084A084BCDE90025082132
:100ED00006222046FFF74EFF204603B0F0BD00BFBC
:100EE000FFFF0F0044030020DCD6D2005CFE0308A5
:100EF00070B582B00D460193164638F013F9384AA2
:100F00000446002121F020FD20462C2248211DF01E
:100F1000BBFA3246294620461DF08AFA20460022B6
:100F200041F6051122F09AFB20460022FF2122F013
:100F3000A9FB2046002248F2524122F0A9FB20469C
:100F40000022012122F0B8FB20460022042122F0D9
:100F5000F9FB00221146204622F074FB00221146C4
:100F6000204622F075FB00221146204622F05EFB4F
:100F700000221146204622F05FFB102120461CF083
:100F8000AFFC204639F03CF9154A0021054621F016
:100F9000DBFC1422114628461DF076FA28460C2266
:100FA0001A211DF045FA28460022032122F08AFB6F
:100FB000284600224DF2BB6122F090FB2846002219
:100FC000012122F085FB01990322284639F026F9F8
:100FD000284602211CF084FC204602B070BD00BFF0
:100FE000FFFF0F0070B582B032F086FA19F026FAD2
:100FF0000446FFF73BFE204610211CF071FC002246
:101000001146204622F02AFB20460022FF2122F032
:1010100039FB00221146204622F014FB0022114623
:10102000204622F015FB00221146204622F0FEFA4F
:1010300000221146204622F0FFFA32F05DFA19F044
:10104000FDF91CF0F3FB694D694A6A4E0446002124
:1010500021F07AFC2046B5F9001022221DF014FA86
:101060000022114620461DF0E3F92046002241F2FD
:10107000A30122F0F3FA20460022FF2122F002FB16
:101080005D495E4A5E4BCDE90021204605220021E4
:10109000FFF770FEB5F9001004461DF021FA00229A
:1010A0000221204622F048FB0522002120461DF0A7
:1010B000BFF93368012B00F09380022B00F093807E
:1010C000032B00F08A8002F0DDFF32F015FA19F0F0
:1010D000B5F92D881CF0AAFB454A0021044621F0F1
:1010E00033FCA5F118012046302209B21DF0CCF9DD
:1010F000444B2046B3F900200C211DF099F92046FD
:10110000002241F2A30122F0A9FA20460022FF2189
:1011100022F0B8FA2046002248F2524122F0B8FAF2
:1011200020460022012122F0C7FA00221146204663
:1011300022F088FA00221146204622F089FA002285
:101140001146204622F072FA00221146204622F073
:1011500073FA204610211CF0C3FB2B4B0222062100
:101160002046FFF7C5FE29494FF0FF33072219F04B
:10117000D3FAA5F16601264B022209B22046FFF7F9
:10118000B7FE22490123072219F0C6FA214A224B51
:101190002046CDE900320021204B214C0E22FFF7E2
:1011A000E9FDA5F1C00109B2A0651DF099F9A06D96
:1011B0000E2254211DF03CF9A06D0022022122F0E4
:1011C000BBFA32681749A06D0423013238F0F8FEEB
:1011D000154B01221A7002B070BD02F00FFC74E7CB
:1011E00001F06CFF71E701F03FFD6EE74403002062
:1011F000FFFF0F00480300202CAE0308DCD6D2000E
:1012000040FE0308360300207CC80308711500085F
:1012100070C8030814C20308908880005CFE0308AD
:101220004C03002044AE0308A9030020F0B583B0AE
:101230000F460193BDF92050164637F073FF404A20
:101240000446002121F080FB01992A4620461DF02A
:101250001BF93246394620461DF0EAF820460022A6
:1012600041F6051122F0FAF920460022FF2122F072
:1012700009FA2046002248F2524122F009FA20469B
:101280000022012122F018FA20460022062122F035
:1012900059FA00221146204622F0D4F900221146C4
:1012A000204622F0D5F900221146204622F0BEF950
:1012B00000221146204622F0BFF9102120461CF0E2
:1012C0000FFB204638F0DEFD1E490546002222F0C5
:1012D0002DFA284600224DF2BB6122F013FA0022BB
:1012E0001146284622F0CEF900221146284622F067
:1012F000A9F900221146284622F0AAF90022114637
:10130000284622F093F900221146284622F094F94B
:101310000999284638F0C4FD00231A4628460921B9
:101320001DF048F9284602211CF0DAFA0A9B06490A
:101330000722204619F0F0F9284603B0F0BD00BF9F
:10134000FFFF0F0040FE0308950B000800B51B4B84
:10135000197883B0C1B11A491A4A00230B6013608F
:1013600007F06AFB184B194901221A70086002F055
:101370002BFE02F0EFFD02F0D3FD02F049FE144B0C
:101380001A6892B103B000BD0191FFF76FFC32F013
:10139000B3F819F053F822F0AFFA01990D485C2226
:1013A000FFF7C4FAFFF71EFED5E74FF4FA710A48BB
:1013B00035F0CCFB064B186003B000BDA90300203C
:1013C00048030020B0030020A8030020AC03002045
:1013D000B40300204C030020F50C000870B582B067
:1013E000064632F089F819F029F8304C0546206895
:1013F00018B135F0CFFB0023236032F07DF819F0EF
:101400001DF822F079FA5C2200212948FFF78EFAB4
:10141000284B00241C70FFF729FC284610211CF0E3
:101420005FFA22462146284622F018F9224628462D
:10143000FF2122F027F922462146284622F002F910
:1014400022462146284622F003F922462146284614
:1014500022F0ECF822462146284622F0EDF8164B01
:10146000164A0092A64218BF3346224601932146EF
:10147000134B2846FFF77EFC124B0546B3F90010CC
:101480001DF02EF822462846022122F055F9224668
:10149000214628461CF0CCFF234622460921284637
:1014A00002B0BDE870401DF085B800BFB403002055
:1014B0004C030020A903002014C20308DCD6D2008C
:1014C00040FE030844030020034B1B7813B1034B79
:1014D00001221A70704700BFA9030020A803002052
:1014E00010B51F4C22681044434203F0030300F080
:1014F000030058BF58420028B8BF043082422AD0A7
:10150000206031F0F9FF18F099FF22F0F5F9002181
:101510005C221448FFF70AFA134B00221A70FFF7F7
:1015200061FD216839B1022916D003290CD001F0E0
:1015300021FD216808E002F0F3FC02F045FD02F015
:1015400009FD02F065FD21680848BDE8104004224D
:10155000013100F05BB910BD01F040FB2168F3E7F9
:10156000480300204C030020A90300204CAE0308D0
:1015700008B519F0B9F8BDE80840FFF7B1BF00BFE2
:10158000024B00221A700120704700BFB8050020EE
:1015900008B501200DF0FEFA034A0346003818BFD3
:1015A0000120136008BD00BFBC050020034B186874
:1015B00018B14FF0FF310DF0B9BD7047BC050020E8
:1015C000044B186820B100231A4619460DF010B9D3
:1015D000704700BFBC05002008B520B1012818BF26
:1015E000012008D008BD012011F0F2F980F00100BF
:1015F0004000C0B208BD06F03DF9B0FA80F04009E5
:10160000400008BD18B1012802D001207047704782
:1016100008B506F02FF9B0FA80F04009400008BD87
:1016200070B50E4684B0144610B3012802D00420D1
:1016300004B070BD002BFAD08A0736D0C4EBC45278
:101640001D1901EB4226012221461E4806F018F919
:1016500003461C494FF4007206EB4420002B2ED1A8
:10166000013439F016F8AC42EDD1002004B070BD61
:10167000154D02909BB20093144C13460A46014646
:1016800001202870019411F06BFA2B78002BECD01C
:1016900001200CF04FFC2B78002BE6D001200CF041
:1016A00049FC2B78002BF3D1DFE71A462146304660
:1016B00006F0E6F8003818BF012004B070BD012024
:1016C000B6E700BFB8030020B80500208115000868
:1016D00070B50E4684B0144608B3012802D0042029
:1016E00004B070BD002BFAD08A0735D0C4EBC452C9
:1016F0001D1901EB42264FF4007206EB44211C48F1
:1017000038F0C7FF1A480122214606F0E3F8002806
:101710002CD10134AC42EED1002004B070BD154D87
:1017200002909BB20093144C13460A4601460120D6
:101730002870019411F0ACFA2B78002BECD001202A
:101740000CF0F8FB2B78002BE6D001200CF0F2FB1C
:101750002B78002BF3D1DFE71A462146304606F0FE
:10176000B9F8003818BF012004B070BD0120B7E7F8
:10177000B8030020B80500208115000810B584B01A
:1017800028B9032906D8DFE801F01E2A211C012808
:10179000034602D0042004B010BD0C4600204FF4D4
:1017A0000071022C0390ADF80A1021D85CB10DF144
:1017B0000A0103A8CDE9003206F0B6F8E0B10098BE
:1017C000E9E701231360002004B010BD00210120CF
:1017D000009211F0EFF8009A10800020F4E7002149
:1017E0000120009211F0D8F8009A10600020EBE779
:1017F000032CCFD11360E6E7012C019A0BBF039BAA
:10180000BDF80A3013601380DDE700BF0FB400B5E8
:10181000B3B034ABC02153F8042B019302A838F0C5
:10182000EBFE011E05DBBF29A8BFBF2102A806F001
:1018300059FD33B05DF804EB04B0704738B5084D7E
:101840000024013405FB04F3B3F1333F4FF00000F3
:1018500001D805F0B7F964200CF06CFBF1E700BF8C
:10186000CDCCCCCC10B504460CF01CFE0228204692
:1018700003D0BDE8104007F0E5B8BDE810400CF01B
:1018800059BB00BF00B583B072B6084C00250120DB
:1018900005F098F90195019BA342F8D8019B01330B
:1018A0000193019BA342F9D9F1E700BFFEFF0100BC
:1018B00000B597B007F09AF80023CDE90C33CDE9D5
:1018C0000E33CDE90533CDE907336049039309931E
:1018D000086C5F4A40F080500864096C01F0805148
:1018E000039103990493136843F44043136013680E
:1018F00001204FF4803103F44043CDE90A01049301
:101900004FF480010225CDE91051049807210220EF
:10191000CDE9140119224FF4A8730AA81292139367
:1019200007F0F4F800283BD103460F21CDE9051557
:101930004FF4A052079305A84FF480530521CDE939
:10194000082307F001FB044650BB05F0F1F82046E0
:1019500005F028F9012005F025F906F071FC3D4855
:10196000FFF754FF03F09EF803F0E8F87F2005F03E
:1019700027FC3948FFF74AFF05F0CCFC3748FFF752
:1019800045FF05F02DFE3648FFF740FF3548FFF7CD
:101990003DFF05F0E9FF044620B13348FFF736FF6D
:1019A000FFF770FF3148FFF731FF31480EF08AFB37
:1019B0003048FFF72BFFFFF7EBFD20B92E48FFF76C
:1019C00025FFFFF75FFF01F0C5F820B92B48FFF7AF
:1019D0001DFFFFF757FF2A48FFF718FF0323CDE944
:1019E00000342849284823464FF480620CF0A0F8C0
:1019F0000423CDE900342549254823464FF40072DD
:101A00000CF096F801231E460093224901942346C8
:101A10004FF4007220480CF08BF82346CDE90064A7
:101A20001E491F484FF480720CF082F8CDE9005433
:101A30001C491D4823464FF4C0620CF079F884F32A
:101A4000118862B60CF00AF9FFF71CFF003802405B
:101A50000070004068AE030878AE030890AE03083B
:101A6000A0AE0308C4AE0308D8AE0308ECAE03086A
:101A700050000020FCAE03082CAF030844AF03085D
:101A80005CAF030878AF0308992B000880AF030808
:101A9000A121000888AF0308391C000890AF030893
:101AA0003D18000894AF03083D23000808B5FFF770
:101AB000E9FE00BF08B5FFF7E5FE00BF08B5FFF778
:101AC000E1FE00BF0038024B18BF012018607047CC
:101AD000C005002010B51E4C84B02268002303937B
:101AE000ADF80A3012B1002004B010BD05F04CFE74
:101AF00028B1184B1B681BB3012004B010BD0DF1B9
:101B00000A0103A805F010FF0399BDF80A20124846
:101B1000890A02FB01F1890AFFF778FEFFF746FD0B
:101B20000E490F48012217F0E7FB0190FFF748FD2F
:101B3000019949B901230B482360FFF767FED2E7FB
:101B40000948FFF763FED7E70848FFF75FFED3E7D2
:101B5000C4050020C0050020C0AF0308ECAF030897
:101B6000C805002014B0030898AF0308F0AF0308BD
:101B700008B50B4B1A681AB9BDE8084005F06EBEEF
:101B8000FFF714FD00221046064917F0B5FBFFF7DA
:101B900017FD034B00221A60BDE8084005F05EBE49
:101BA000C4050020ECAF0308014B1868704700BF64
:101BB000C405002000B50E4B83B01B6800214FF414
:101BC00000720191ADF8022013B9002003B000BDEE
:101BD0000DF1020101A805F0A7FE0028F5D101983A
:101BE000BDF80230800A03FB00F0800A03B000BD9C
:101BF000C4050020E8B100B583B001900DF0FCFFF2
:101C0000DFF830E0DDF804C0BEE80F00ACE80F00FC
:101C1000BEE80F00ACE80F00BEE80F00ACE80F0014
:101C20009EE803008CE8030003B05DF804EB0EF0BF
:101C300003B870471C0800202DE9F04FB2488DB062
:101C4000FFF7E4FD02F004FB0546A0B9AF49B04838
:101C5000FFF7DCFD04F0C4FF044670B1C11C00F0C6
:101C6000F58105F0ADF9AB4903462246AA48FFF7D6
:101C7000CDFD00230AE0A749E9E705F0A1F9A34952
:101C800003462246A448FFF7C1FD0123DFF88C82FA
:101C900088F80030002D00F0BA80A14B0093A14BD2
:101CA000A14DDFF888A2DFF88892019303AE0027E8
:101CB00046E00CF04DF8304605F088F983460CF00C
:101CC0004FF81BF1030F63D80398CAF80C0005986E
:101CD000049BCAF814000798CAF81030CAF81C0010
:101CE000069B98F80000CAF818304FF0010C089BCA
:101CF000CAF820308AF808C0D9F8003000283ED051
:101D0000BBF1000F73D0DAF83400009A6044CAF8CF
:101D1000340010684FF0000C8AF809C010B1181A8E
:101D2000772807D9009A834813605946FFF76EFD5C
:101D3000D9F80030CAF830304FF4FA700CF0FAF8E5
:101D4000D9F800300133C9F800302CB92B88002BAA
:101D5000AFD0013B2B80EBE7E21C4FF4FA70F5D0DB
:101D6000CAF830300CF0E6F8D9F80030E21C03F184
:101D70000103C9F800304FF4FA70F1D1E6E78AF8B0
:101D80000900CAF82470CAF82870CAF82C70D1E784
:101D900002F0D4FE002836D1019B67481968013152
:101DA0001960FFF733FD0BF0D3FF304605F00EF955
:101DB00083460BF0D5FF1BF1030F85D9DAF83430D9
:101DC0000133CAF83430009B00201B68AAF80800D1
:101DD00004202880D9F8000013B1C31A772BA7D9A3
:101DE000009B594618605548FFF710FDA0E7099978
:101DF000CAF824100A99CAF828100B998AF809C061
:101E0000CAF82C1096E74E48FFF700FDCBE7444B8D
:101E10000093DFF81CA1434B434DDFF81091494F6D
:101E2000019303AEDAF800100131CAF800103988C6
:101E3000002942D00139398054B1E31C08D0DAF8C6
:101E40000000C9F830004FF4FA700CF073F8E9E7BD
:101E5000298811B101392980F1E70BF079FF30466B
:101E600005F0B4F883460BF07BFF1BF1030F6BD832
:101E70000398C9F80C000498C9F810000598C9F82F
:101E800014000698C9F8180098F800100798C9F8C7
:101E90001C004FF0010C0898C9F8200089F808C010
:101EA000DAF8000001BB002389F80910C9F82430D2
:101EB000C9F82830C9F82C30C3E70BF049FF304689
:101EC00002F000FA83460BF04BFFBBF1000F40F02D
:101ED0008980BDF81010A9F802100399C9F8041000
:101EE000012189F80010A7E7BBF1000F5DD1099926
:101EF000C9F824100A99C9F828100B9989F809C063
:101F0000C9F82C109DE700BF34B0030828B00308BF
:101F100064B003082CB0030880B003080808002050
:101F200010080020040800200A0800201C080020D7
:101F300018080020D0B0030890B1030820B10308AE
:101F40005CB103080C08002002F0F8FD002845D120
:101F5000019B4348196801311960FFF757FC0BF0EA
:101F6000F7FE304605F032F883460BF0F9FE1BF120
:101F7000030F7FF67DAFD9F83410009B01310020AC
:101F8000C9F834101968A9F8080004202880DAF884
:101F9000000019B1411A77297FF651AF009B5946CD
:101FA00018603048FFF732FC49E7D9F83410009B3D
:101FB0000131C9F8341019684FF0000C89F809C0D4
:101FC00019B1411A77297FF63CAF009B594618603A
:101FD0002548FFF71BFCDAF8000032E72348FFF73B
:101FE00015FCBCE702F0AAFD60BB019B1C48196808
:101FF00001311960FFF70AFC0BF0AAFE304602F02F
:1020000061F983460BF0ACFEBBF1000F3FF461AF0A
:10201000D9F83410164B01310020C9F83410196872
:1020200089F8000004203880DAF8000019B1411A5C
:1020300077297FF601AF0E4B594618600D48FFF720
:10204000E5FBF9E60948FFF7E1FBD5E704F0B8FF47
:102050000949034622460948FFF7D8FB09E600BFB5
:1020600090B1030820B10308D0B003085CB10308A5
:1020700014080020BCB10308B8B0030880B00308FE
:1020800010B58AB0274B002204921A6C42F020024D
:102090001A641B6C03F020030493044603A905A8EB
:1020A000049B07F00BF8089BEBB906F0E7FF03462B
:1020B0001D4A1E481E49A2FB03239B0C013B002224
:1020C000C0E9001340F2E733C0E9052202618260F3
:1020D000C36009F031F850B1372006F009FD012244
:1020E00010460AB010BD06F0C9FF4300E0E70F48F4
:1020F00009F0F4F80D4809F0B7F80190372006F020
:10210000F7FC019A002AEAD10F2CE8D821463720A3
:10211000019206F0BBFC019A064B10461C600AB007
:1021200010BD00BF0038024083DE1B43580800206A
:10213000001400406C010020034B02689A4200D05A
:10214000704706F06DBC00BF00140040FEE700BF02
:10215000FEE700BFFEE700BFFEE700BFFEE700BFEF
:10216000704700BF014809F0D9B800BF58080020E7
:102170000121002012F040BF014807F05FBB00BF03
:102180001C1B0020044A05491368002B08BF0B469E
:102190001844106018467047A0080020185300200B
:1021A0002DE9F0475E48FFF731FB05F09DFE38B1A1
:1021B0005C48FFF72BFB4FF47A700BF0BBFEFAE79D
:1021C00080465948FFF722FB46464746C14606F07F
:1021D0002BF882464FF47A7005F054FF044690BB0A
:1021E0003FB9002E71D106F027FC064606F01CF818
:1021F0008046002425460AE006F016F850454FF0C8
:102200000F003ED00BF096FE0025C82C15D005F02F
:102210004BFF002804F101044FF00F0005F1010508
:10222000EADC0BF087FE032DEFD1C82C05D005208A
:102230000BF080FE05F048FEC9E73C4840F6B83197
:10224000FFF7E4FAF3E7B9F1000F2CD01FB3012731
:10225000B9460024254605E00F200BF06BFE002553
:10226000C82CEAD005F020FF002804F101044FF04B
:102270000F0005F10105EFDC0BF05CFE032DEFD143
:10228000D3E72B48FFF7C2FA0F200BF053FE4FF0B5
:10229000FF3A0025B9E77EBB06F0CEFB064605F007
:1022A000C3FF8046D5E705F0BFFF01462148FFF791
:1022B000ADFA002FCBD1FEB906F0BEFB064605F005
:1022C000B3FF4FF001098046C3E706F0B5FB831B5F
:1022D000B3F57A7F8DD305F0A7FFA0EB0801B1F528
:1022E0007A7F13D8002706F0A7FB064605F09CFF6F
:1022F0008046002CADD17CE706F09EFB831BB3F536
:102300007A7F0AD200274FF00109A2E70A484FF46A
:102310007A72FFF77BFA0127E5E74FF00109DAE768
:10232000F8B103084CB203087CB203089CB303085D
:102330004CB30308B8B20308E8B203082DE9F04F24
:102340008D4885B0FFF762FA02F002FD38B18B4884
:10235000FFF75CFA4FF47A700BF0ECFDFAE70446F5
:102360001BF038FA06F0B0FA06F000FB204631F018
:10237000C9F80546204631F0D7F82946024680487C
:10238000DFF800A2804E814DDFF80482DFF804926E
:10239000DFF804B2FFF73AFA8048FFF71FF834F08D
:1023A000C1FA7F48FFF732FA0BF024FE7D4ACAF8E3
:1023B0000000A0F5FA7313600BF01CFE3378A34203
:1023C00007462ED02B783478012BE4B200F08880B9
:1023D00098F80020002A7CD199F8002042B9714A6F
:1023E0001268022BA7EB02023AD0B2F5FA7F67D24D
:1023F0006D4A127812B93278042A3CD033B9DAF82F
:10240000003042F20F72FB1A93426FD834F08AFA0E
:1024100005200BF08FFD0BF0EDFD3378A34207464E
:10242000D0D12B78012BD3D19BF80030002BEDD1EC
:102430005E4A1268002AE9D0BA1A40F2DB518A4299
:10244000E4D9CDE9023303A9012302A88BF80030B7
:1024500006F0E2F9DDE902125548FFF7D7F9D5E7B2
:1024600040F6B7339A422BD84F4B1B78002BCDD177
:102470003378042BCAD14C4B4E484FF001021A70EE
:10248000FFF7C4F94C4804F019FA00286FD104F0A2
:10249000BBFA494902464948FFF7B8F906F09CF9EA
:1024A000FEF754FF4FF001032B70404B44481F6070
:1024B000FFF7ACF92B78002BA1D0012BA6D1B3E705
:1024C000384B1F60FFF706FB002848D1012388F82E
:1024D000003099F80030BBB12B78012B88D1A3E7ED
:1024E000FEF7F2FF2B78012B9ED071E73548FEF7FF
:1024F00075FF2C4B34481F6002232B70FFF786F9C1
:102500002B78012B82D18FE7304801934FF00103E4
:1025100089F80030FFF77AF92D4804F0CFF998B91F
:1025200004F072FA2A4902462448FFF76FF906F0D0
:1025300053F9FEF70BFF4FF001032B701B4B25489F
:102540001F60FFF763F9C7E723482149FFF75EF9EA
:10255000FFF70EFB019B88F800302B78BDE70120C8
:10256000FFF7B0FA98F80030002BB5D0B1E7124968
:102570001948FFF74BF99DE7F4B303081CB40308AF
:102580004CB40308AC080020FC0A0020B708002067
:10259000B6080020B5080020A408002084B4030871
:1025A000A0B40308B0080020B4080020A808002048
:1025B00004B6030864B5030888B503081CB503080E
:1025C0008CB50308B4B50308D4B50308D0B4030828
:1025D000ECAF03083CB50308F8B4030870B51C4819
:1025E0001C4CADF51C7D17F06BFD1B4817F068FD0A
:1025F0000FCC0DF1080CACE80F0094E803008CE858
:10260000030002AC08AD26680A223146284616F0BF
:10261000B3FE024690B966683046FEF7E7F801ABB4
:1026200002463146284617F0DDF80834284617F0F0
:1026300003FBAC42E7D10DF51C7D70BD0748314668
:102640000834FFF7E3F8AC42DDD10DF51C7D70BD19
:1026500050B6030828AD030858B6030864B603084B
:10266000B1F5006F72D8704B1B68B3F5804F67D21D
:10267000C3F58043994263D82DE9F04FADF5377D1E
:102680000C460122014622A816F076FE06460028D6
:1026900061D16648DFF898912146FFF7B7F80DF150
:1026A000040802AF39464346402222A816F0BCFF78
:1026B0000146002865D1D8F80030002B53D09A1974
:1026C000B2F5006F64D83D4607EB030B08460DF1E9
:1026D000480A03E02546AB45084628D02C4614F8A6
:1026E000013B1F2B06D8093BDBB2042B94BF19F822
:1026F00003302E233F280AF8003000F10101E9D110
:10270000504605F0EFFD5C4516D023781F2B05F1F0
:10271000020518D8093BDBB2042B94BF19F803302B
:102720002E238AF80030AB454FF00100D6D118B106
:102730000146504605F0D6FDD8F800301E44B1E7FA
:102740003C48FFF763B88AF80030ECE73A484FF4AA
:102750000062FFF75BB839483146FFF757F80DF5CF
:10276000377DBDE8F08F22A817F066FA3448FFF7EE
:102770004DF82D4A1368334413600DF5377DBDE8DD
:10278000F08F3048FFF742F822A817F055FAEDE72E
:10279000B6F5006F34D0C6F500680846244E0D46E5
:1027A0000DF1480A04E0084627460135A84526D918
:1027B0003C4614F8013B1F2B05D8093BDBB2042B28
:1027C00094BFF35C2E233F280AF8003000F101018A
:1027D000E9D15046013505F085FDA84510D923788B
:1027E0001F2B07F1020716D8093BDBB2042B96BF5B
:1027F0000F492E23CB5C8AF800300120D5E768B959
:1028000022A817F019FA10484FF40061FEF7FEFFF6
:102810004FF40066AAE78AF80030EEE7014650461A
:1028200005F060FDECE700BFB8080020F4B603082F
:1028300088C80308ACB6030884B60308DCB60308EE
:1028400050B7030834B7030814B70308062900D1AA
:1028500070472DE9F043ADF52F7D054689460146C9
:1028600002A890461F4617F07DFB024600285ED165
:102870000DF1720616A902A817F0E6FB0146002822
:1028800036D19DF87230002B35D033882E2BF1D005
:1028900042F62E62934235D02846FDF7A7FF20B1BD
:1028A000284410F8013C2F2B3FD0234B234ACDE97D
:1028B00000364FF4A0712B465EA837F043FE9DF81A
:1028C0006430DB0622D53B681D4801333B605EA9BE
:1028D000FEF79CFF3B4642465EA809F10101FFF767
:1028E000B5FF16A902A817F0AFFB01460028C8D013
:1028F0001448FEF78BFF02A817F08AFB0DF52F7D19
:10290000BDE8F083B378002BB4D0C5E7D8F8003029
:10291000169A0D4801335EA9C8F80030FEF776FF1D
:1029200016995EA8FFF79CFEA4E7084BBEE708488F
:102930002946FEF76BFFE1E760B70308A8B7030875
:10294000B0B7030884B70308BCB7030814C2030870
:1029500064B703082DE9F041ADF52E7D05460E461E
:1029600002A82D4917F0FEFA00284CD12B4F16A9CA
:1029700002A817F069FB42F62E68274B284A4FF44D
:10298000A0710DF1720C00BB9DF8720008B3BCF889
:1029900000E0BEF12E0F5EA8E9D0C64520D0CDE9FB
:1029A000007C37F0CFFD9DF864301E48DB065EA941
:1029B0001CD5336801333360FEF728FF33462A46BF
:1029C0005EA80121FFF742FFD1E701461648FEF756
:1029D0001DFF02A817F01CFB0DF52E7DBDE8F08150
:1029E0009CF802E0BEF1000FC1D0D8E72B68169A20
:1029F0000E4801335EA92B60FEF708FF16995EA80A
:102A0000FFF72EFEB3E7024603490948FEF7FEFE34
:102A10000DF52E7DBDE8F081D8B7030814C2030878
:102A2000A8B70308B0B7030884B70308BCB7030806
:102A300064B70308F0B5274B274D1B68274E284F76
:102A400085B01A0CADF804308DF8062028684FF0D8
:102A5000FF310CF06BFB01200FF0BAFF0028F5D01E
:102A600003233370FEF7A2FD1E48012201A916F0D0
:102A700043FC044604231C4814BB3370CDE90244D4
:102A8000FEF7C4FEFFF7AAFD1848FEF7BFFE03A934
:102A900002A83C60FFF75EFFDDE902211448FEF763
:102AA000B5FE20200DF0F4F904460146114824B18A
:102AB000FEF7ACFE20460DF083FAFEF781FDC5E778
:102AC0000D482146FEF7A2FE05233370FEF778FD80
:102AD000BCE700BF88B50308BC080020FC0A002042
:102AE000B8080020C0080020F4B7030808B803089D
:102AF00034B8030868B80308DCB70308084810B501
:102B0000FEF784FE074A084B106802221A7030B1A3
:102B10000023BDE810401A4619460BF069BE10BDEF
:102B200098B80308BC080020FC0A002008B5064835
:102B3000FEF76CFE054B064900221A70BDE80840FE
:102B4000104616F0D9BB00BFBCB80308FC0A002031
:102B500088B5030800B5032283B0002101200BF0E3
:102B6000F7FD0A4B186070B100230222CDE9002363
:102B7000074908484FF400620AF0DAFFA0F10100AB
:102B8000B0FA80F0400903B000BD00BFBC080020CF
:102B9000D0B80308352A000800B583B005F096FCCC
:102BA0000B4B00201B8BADF8043001A90DF0FAFA95
:102BB00040B10848FEF72AFE00214FF0FF300DF02B
:102BC000C9FEF9E70448FEF721FEFEF75BFEF0E7D9
:102BD00028AD0308ECB80308D8B8030810B5174CA3
:102BE000206D68B1164B1A78FAB9164937F058F9C2
:102BF000A06C28B1124B1B78F3B1134937F050F990
:102C0000606D78B1114B1A786AB9114937F048F9FB
:102C1000E06C38B10D4B1B784BB1BDE810400D494D
:102C200037F03EB910BD0C49F0E70C49DEE7BDE8CE
:102C300010400B4937F034B90A49DFE74C03002054
:102C400035030020A8AD030884AD03083403002039
:102C5000F0AD0308BCAD0308DCAD030894AD030878
:102C6000CCAD03088CAD0308F0B587B030F044FC60
:102C700017F0E4FB374B384DB3F90010012224392B
:102C800001EBD1710292C827344A019241F34F03FC
:102C90004C103A220C21009706460593FEF7C6FA1F
:102CA000A86420F07FFE0222009704F11801286436
:102CB00002922B4A059B019209B23A223046FEF756
:102CC000B5FAE86420F06EFE264A274B1288686445
:102CD000A2F5A67212B21E2A3046B8BF1E224FF4C9
:102CE0008671FEF7A9F8214B1B7804466BB3204987
:102CF000204A214BCDE90021204620220821FEF761
:102D000039F81E4B28651B780BB31D49194A1A4B1D
:102D10001C4ECDE90021204638220821FEF72AF872
:102D2000194B5022CDE9006308216865124B2046FB
:102D3000FEF720F8154A104BCDE900620821682201
:102D40002046FEF717F807B0F0BD1149D0E711494A
:102D5000DCE700BF440300204C03002098B90308BF
:102D60009CB9030842030020A8B9030835030020DA
:102D700094AD0308DCD6D2005CFE030834030020C7
:102D8000DCAD030890888000B0B90308D4B903080B
:102D9000A8AD0308F0AD03082DE9F041074692B055
:102DA00088461046002116461C46FDF7ADFC00285B
:102DB0007DD13046FDF7D0FC0546FDF7B3FA01465C
:102DC0003046FDF7F9F96649FDF700FB4FF07C51FD
:102DD000FDF7F4F9FDF7C0FC632865DC614B624A3E
:102DE000CDE9005006AD1021284637F0ABFB00219D
:102DF0002046FDF789FC002840F08D802046FDF735
:102E0000ABFC0646FDF78EFA01462046FDF7D4F9E5
:102E10005349FDF7DBFA4FF07C51FDF7CFF9FDF791
:102E20009BFC63283DDC4F4B4F4A0AACCDE9006068
:102E30001021204637F086FB18980021FDF764FC2E
:102E400000284DD11898FDF787FC0646FDF76AFA71
:102E500001461898FDF7B0F94149FDF7B7FA4FF070
:102E60007C51FDF7ABF9FDF777FC632816DC3D4B91
:102E70003D4ACDE900600EAE1021304637F062FBCE
:102E8000199B3A4ACDE90263CDE9005443465021EB
:102E9000384637F057FB12B0BDE8F0816438013690
:102EA000E5E764380136BEE76438013596E706F198
:102EB00000463046FDF750FC0546FDF733FA014663
:102EC0003046FDF779F92649FDF780FA4FF07C513D
:102ED000FDF774F9FDF740FC632835DC244B7EE7F1
:102EE000189B03F1004318460593FDF735FC064691
:102EF000FDF718FA01460598FDF75EF91849FDF748
:102F000065FA4FF07C51FDF759F9FDF725FC632870
:102F10001EDC174BACE704F100442046FDF71CFC17
:102F20000646FDF7FFF901462046FDF745F90C4935
:102F3000FDF74CFA4FF07C51FDF740F9FDF70CFC22
:102F4000632809DC0A4B6FE7094B6438013546E713
:102F5000074B643801368BE7054B6438013663E76D
:102F60000000C84214C20308F0B90308FCB9030802
:102F700050BA030810B53F4CA6B004A8FEF73AFEBD
:102F8000606AA0B19DF81030002B62D0BDF812200D
:102F9000394937F015F83949BDF81420A06A37F0DF
:102FA0000FF83749BDF81620E06A37F009F8206BB2
:102FB000002831D09DF81830002B3ED0099A3149B5
:102FC000089B019100923049079A12A8FFF7E4FE8E
:102FD000206B12A936F064FF0C9A2C4B2C490193FC
:102FE00000920B9B0A9A12A8FFF7D6FE606B12A9FB
:102FF00036F056FF9DF81930002B36D00F9A254930
:103000000191009224490E9B0D9A12A8FFF7C4FE6D
:10301000A06B12A936F044FFE46B64B1109A119BC7
:103020000392029305F006F9DDE9023200901B4994
:10303000204636F0C5FF26B010BD194936F030FFE6
:10304000606B184936F02CFF1749A06B36F028FF4B
:10305000E2E7164936F024FFA06A154936F020FF52
:103060001449E06A36F01CFFA1E71349A06B36F063
:1030700017FFD1E74C03002014BA030824BA030851
:1030800038BA03087CBA030870BA03088CBA03087C
:1030900080BA030898BA030890BA0308E4BA030890
:1030A000B8BA0308C8BA0308D8BA030844BA030870
:1030B00054BA030864BA03089CBA03082DE9F04324
:1030C00083B030F019FA17F0B9F9384F384EB7F924
:1030D0000020B6F90010374B374D384C8046FDF7CD
:1030E000ABFE374B01930095364B202208218146D9
:1030F000FDF740FE344B00953822606208210193B1
:103100004846304BFDF736FE304BA062502200950A
:10311000019348462B4B0821FDF72CFEB7F9002000
:10312000B6F90210E0622A4B4046FDF785FE294BB6
:10313000009501932022234B08218146FDF71AFEBA
:10314000254B206338220095019308211D4B4846EA
:10315000FDF710FE214B009550226063082101937A
:103160004846184B1E4DFDF705FEB7F90020B6F98D
:103170000410A0631B4B4046FDF75EFE1A4B019303
:103180000095104B202208210646FDF7F3FD01466D
:103190000095E163154901910A4B38223046082118
:1031A000FDF7E8FD03B0BDE8F08300BF3803002061
:1031B0003C03002018BB0308DCD6D2004C030020DF
:1031C00044BA03085CFE030854BA030864BA03084F
:1031D00034BB0308B8BA0308C8BA0308D8BA03084E
:1031E0009088800050BB030860BB03086CBB0308D9
:1031F0002DE9F047374F384E384CDFF8E480DFF8E0
:10320000E49088B0002557F8043B374A20216846EF
:1032100037F098F956F8040B10B1694636F040FEC5
:10322000D8F8003020681BB9D9F80030AB423ED046
:1032300058B14FF0010A48F25241002220F028FA1A
:1032400020680022514620F037FA0135052D04F19F
:103250000404D8D1254F264E264C002557F8043BB0
:10326000254A2021684637F06DF956F8040B10B155
:10327000694636F015FED8F800302068012B1DD0C5
:1032800058B148F252414FF00109002220F000FAF3
:1032900020684946002220F00FFA6B1C022B04F133
:1032A00004044FF00105D9D108B0BDE8F08700282B
:1032B000CBD04FF0020A4DF2BB61BEE70F4B1B684B
:1032C0009D42DDD10028E8D04DF2BB614FF00209EC
:1032D000DBE700BF600B0020140B0020280B002050
:1032E000480B00206400002090BB0308580B00200E
:1032F000040B00200C0B002094BB0308500B002093
:1033000008B517F0F1F9094AC0F307231360C0B2FA
:103310002BB9074B1860BDE80840FFF769BF054BA4
:103320001860BDE80840FFF763BF00BF480B0020EE
:1033300064000020500B0020724B1B68012B08D04A
:10334000714B1B68032B00F2CD80DFE803F01E34C5
:103350004C166E4BDFF8B8C11A685CF82230002AB0
:1033600014BF3B211721C31803D49942ACBF19469F
:1033700000214CF82210FFF73BBF664AD368C31800
:1033800055D51723D360FFF733BF624AD2E900C196
:103390006044B0F5FA6F3FDA01F1FF3C40F63400CB
:1033A000BCF10B0F106040F2838091689942EADD16
:1033B0009360FFF71DBF574A51680144002927DD7C
:1033C0000C2926DC10685160022948D183077FD080
:1033D000514BDFF848C152490CFB0033B1EB331FAE
:1033E00039D21C23E1E74B4AD2E9011301F1FF3C3A
:1033F000BCF10B0F03441FD8022936D04949002BDA
:1034000051F82C1029DD9942D2DA01239360BAE7F2
:103410000C2353601F23C8E740F6340C604510DCD2
:1034200001F1FF3CBCF10B0F1060BED8CCE7172BAD
:10343000C8BF0023D360A6E7002BE6DC002393601F
:10344000A1E701F1FF3C4FF4FA60BCF10B0F1060F3
:10345000ABD8022905D11D23A7E7916093E701F1BD
:10346000FF3C304B53F82C309FE71068810700B5C4
:103470000BD1DFF8A8E028490EFB00110EF1804EB9
:103480000EF1FF3EBEEBB10F1DD32349DFF88CE0F8
:103490000EFB00112248B0EB311F14D22149002B42
:1034A00051F82C1007DC91605DF804EBFFF7A0BE2B
:1034B000022996D0D5E7994203DB9360F4E71D2BF0
:1034C000FBDD0123F9E7002BF9DC1D239360EBE71B
:1034D000114BDFF848C014490CFB0033B1EBB30FBC
:1034E000B9D375E70B4951F82320821803D53B2245
:1034F00041F8232047E73B2AC8BF002241F8232098
:1035000041E700BF480B002064000020500B002062
:10351000580B0020600B002050B81E05295C8FC29C
:103520000AD7A30090C80308285C8F022DE9F04752
:10353000DDF820A01D460E469046DDE9097935F0FC
:10354000F1FD504A044600211FF0FEF92C222946C5
:1035500020461AF099FF4246314620461AF068FF8D
:10356000002241F60511204620F078F80022FF21C4
:10357000204620F087F8002248F25241204620F0F1
:1035800087F800220121204620F096F8002204212D
:10359000204620F0D7F800221146204620F052F8AD
:1035A00000221146204620F053F800221146204602
:1035B00020F03CF800221146204620F03DF820463D
:1035C00010211AF08DF97B1E012B204627D936F0E9
:1035D00059FC2D490546002220F0A8F800224DF2A2
:1035E000BB61284620F08EF800221146284620F0C4
:1035F00049F85146284636F053FC00230921284655
:103600001A461AF0D7FF022128461AF069F94B46EC
:1036100020461E49BDE8F047072217F07DB836F076
:10362000EFFD184A002106461FF08EF914221146BC
:103630003046143D1AF028FFC5F3C03303FA85F570
:10364000691030460C221AF0F3FE304600220321A6
:1036500020F038F8304600224DF2BB6120F03EF8F1
:1036600001213046002220F033F8012F0CBF084919
:1036700008493046032236F0D1FD022130461AF0C7
:103680002FF9C4E7FFFF0F005CFE03089537000821
:10369000CCC80308C0C8030870B5194B19491A4AA9
:1036A0001A4C1B4E8AB000251D700D7015803570A8
:1036B00003F0BEFD2A46D4E9000103F059FF2A4673
:1036C000D4E90001134D04F019F8D4E900121248AE
:1036D000FEF79CF82B687BB13278D4E900316AB9E7
:1036E0000E4A019200910E4A202102A836F02AFFCC
:1036F000286802A936F0D4FB0AB070BD094AF0E789
:10370000470B0020460B0020440B0020580B0020E4
:103710004C0B0020000B00209CBB030890AD03085D
:10372000D0BB030888AD030800B591B007AA06AB6B
:10373000CDE9003203A905AB04AA02A803F044FEB8
:10374000DDE903030F4A01931021029B009008A8B2
:1037500036F0F8FEDDE906300B4ACDE900301021E5
:10376000059B0CA836F0EEFE084B186810B108A9AE
:1037700036F096FB064B186810B10CA936F090FB9A
:1037800011B000BDE4BB030824BE0308400B0020B9
:103790003C0B002030B58DB016F0A6FF042836D8BB
:1037A000DFE800F03C42490337005348534B544C88
:1037B0000021017053480180534801220170D3E970
:1037C0000001227003F0D4FE4C4B0122D3E900012A
:1037D00003F094FF494B4D48D3E90012FEF716F869
:1037E0004B4B1A681D4692B1444B2278D3E9001323
:1037F000002A4ED0474A01920093474A0B4604A83C
:10380000202136F09FFE286804A936F049FB0DB050
:1038100030BD0DB0BDE83040FFF73EBF01200DB018
:10382000BDE83040FFF788BD4FF0FF300DB0BDE878
:103830003040FFF781BD394B1B68012B2BD0002393
:1038400004AACDE9003219461A461846049303F03B
:10385000BBFD334B049819691C46DB68A268CDE9AF
:103860000010D4E9000103F0F5FDD4E903C3049A84
:103870002C48CDE90132D4E901232168CDF800C0FC
:10388000FDF7C4FFFFF750FF0DB0BDE83040FFF774
:10389000AFBC254AAFE7194C194D61682A782068FA
:1038A00003F066FED4E900012A7803F027FF2B78A5
:1038B000D4E90012DBB91D4B1D48FDF7A7FF144BDF
:1038C0001D461B68002BDFD00D4B0C491A78D1E93F
:1038D000003172B10F4A019200910F4A202104A8D1
:1038E00036F030FE286804A936F0DAFACCE7114B3E
:1038F000E2E70D4AEFE700BF460B0020580B00201F
:103900004C0B0020440B0020470B00204CBC03084C
:10391000000B002088AD0308D0BB0308480B002033
:10392000600B002020BC030890AD0308F4BB030823
:10393000F8BB0308F0BB030810B5284C207888B00A
:1039400060B1274A138801339BB2772B138036D896
:10395000244C2378002B3AD008B010BD224B1B78A2
:10396000002BF9D007AA06ABCDE90032014602468A
:1039700005AB039003F028FD1C4B059A19680398CA
:103980009142E9D15A68069B9A42E5D1079B022BE6
:10399000E2DCDFF85CC0C1EB0113DCF800E002EB15
:1039A00083039E45D8D0CCF80030012323700C4C03
:1039B0000C4B208018700F48FDF728FFCCE70E480D
:1039C000FDF724FF08B0BDE81040FFF765BE0120F9
:1039D00003F00EFC0123237008B010BD460B00203D
:1039E000440B0020470B00204C0B0020580B0020FC
:1039F0006000002090BC03086CBC03082DE9F04F68
:103A00009DB02FF079FD16F019FDD44BD4491B88D9
:103A1000D44A0D88DFF85083DFF850B3183B1BB24F
:103A2000A3F1180982FB0912A3F1080CA3F11001FC
:103A30004FEAE97911ABC9EB620A019310AB0FFAB7
:103A40008AF20093A5F5007304921BB2C84A08934A
:103A5000A5F5E67307460CEBDC7C82FB01021BB28A
:103A60004FEA6C0E00244CF34F0CA2EBE1760A9364
:103A70000EAA0FAB0DA90CA8CDF81CE0CDF824C000
:103A80000696CDE91244149403F09EFCB94B0C99B0
:103A900019600D9959600E9999600F99D960B64ACD
:103AA000109919610323136013A914AA12A803F033
:103AB0003DFDB24BB24A1C60B24B1C60129B1360BE
:103AC000139B5360B04A149B13702A21AF4B4FF4E1
:103AD00096723846FDF7B0F9AD4BAE4ACDF800808E
:103AE00080213846FDF788F9AB4BAA4ACDF8008013
:103AF000BE211860A64B3846FDF77EF9A74B18602B
:103B0000FFF712FEA5F5D072A54BA64D384612B2AE
:103B10004FF4B071FDF790F936B20AF10603DFF801
:103B200088A205938046A14627460B96404619F089
:103B30007DFE9E4A044600211EF006FF04993622AF
:103B400020461AF0A1FC0FFA89F1202220461AF033
:103B50006FFC002241F6051120461FF07FFD002278
:103B6000FF2120461FF08EFD002248F252412046E0
:103B70001FF08EFD0022012120461FF09DFD002236
:103B8000042120461FF0DEFD0022114620461FF0D2
:103B900059FD0022114620461FF05AFD0022114611
:103BA00020461FF043FD0022114620461FF044FD31
:103BB0001021204619F094FE4BF8044B204636F0B5
:103BC00061F97B49064600221FF0B0FD002248F251
:103BD000524130461FF096FD0022114630461FF03C
:103BE00051FD5AF8041B304636F05AF906230022DC
:103BF000022130461AF0DEFC204636F043F96D49CA
:103C0000286000221FF092FD55F8040B00224DF2AF
:103C1000BB611FF077FD0022114655F8040C1FF020
:103C200031FD514955F8040C36F03AF955F8040CB9
:103C30000423002209211AF0BDFC3B465E492046C0
:103C4000072216F069FD0137059B052F99447FF483
:103C50006DAF5A4B01935A4B00935C22544B0B9E11
:103C6000DFF860A1DFF86091584D00214046FDF774
:103C700081F80027404619F0D9FD4C4A044600213E
:103C80001EF062FE3622562120461AF0FDFB7942D4
:103C9000702201F05C0120461AF0CAFB002241F6B6
:103CA000051120461FF0DAFC0022FF2120461FF0FC
:103CB000E9FC002248F2524120461FF0E9FC0022B4
:103CC000012120461FF0F8FC0022042120461FF0AD
:103CD00039FD0022114620461FF0B4FC0022114697
:103CE00020461FF0B5FC0022114620461FF09EFC26
:103CF0000022114620461FF09FFC1021204619F09B
:103D0000EFFD4AF8044B204636F0BCF828498346BC
:103D100000221FF00BFD002248F2524158461FF0CE
:103D2000F1FC0022114658461FF0ACFC59F8041B68
:103D3000584636F0B5F806230022022158461AF0FC
:103D400039FC204636F09EF81A49286000221FF000
:103D5000EDFC55F8040B00223AE000BF44030020BC
:103D6000420300206766666614C20308280B002021
:103D700056555555600B002064000020500B002064
:103D8000580B0020480B00204C0B0020B4BC03084B
:103D9000DCD6D20024FE0308400B00203C0B0020A0
:103DA000C4BC0308140B0020E0C80308FFFF0F0089
:103DB0005CFE030840FE030801330008DCBC030876
:103DC000908880000C0B0020D8C80308040B00204A
:103DD0004DF2BB611FF096FC0022114655F8040C11
:103DE0001FF050FC3F4955F8040C36F059F855F8CF
:103DF000040C0423002209211AF0DCFB47F4807331
:103E000039492046072216F087FC7B1C022B4FF015
:103E100001077FF42FAF334B0193344B00937E2285
:103E2000334B344CC0214046FCF7A4FF206090B1D6
:103E3000314B324A1978D2E90032002950D1304949
:103E4000CDE9002114A820212E4A36F07BFB206802
:103E500014A936F025F8FFF7CBF9DDF820902A4BAE
:103E6000009300250124019433464A4629464046E2
:103E70000295FFF75BFB0294069C244B00930834E9
:103E8000022733464A4621B240460197FFF74EFBD0
:103E90001F480090610033464A464046029701950C
:103EA00009B2FFF743FB0A9C099E1A4B00930323B8
:103EB000029322463346294640460195FFF736FBDA
:103EC0000799154B00932246083104240195334687
:103ED00009B240460294FFF729FB1DB0BDE8F08F00
:103EE0000E49ADE714C2030801330008DCD6D20046
:103EF00040FE0308000B00204C0B0020580B002054
:103F000090AD0308D0BB0308ECBC0308F0BC030869
:103F1000F4BC0308FCBC03080CBD030888AD03080F
:103F2000074B586858B1074B07491B78052BDAB285
:103F300096BF064B064A53F8222036F041B8704728
:103F40004C030020FC0A002038BD0308F4C8030815
:103F500030BD030810B502F057FD044602F0AAFC7C
:103F6000134B9B68BBB1BCB10278312A0BD0302A0D
:103F700018D004F01E041E2C0BD0BDE810400D49D3
:103F8000184635F08DBF0C49BDE81040184635F095
:103F900087BF0A49F8E710BDBDE810400849184638
:103FA00035F07EBFBDE810400649184635F078BFB1
:103FB0004C030020BCBD030848BD030898BD03089E
:103FC000D4BD030870BD03080E4B1A68C2B100B51A
:103FD00083B0FDF7E9FD0B4B1B6850B10193FDF772
:103FE000E9FD09490246019803B05DF804EB35F09C
:103FF000E7BF0649184603B05DF804EB35F050BF43
:10400000704700BF4C030020E8BD030804BE03084E
:1040100010B5174C206984B00023CDE90233C8B134
:10402000144A1268A3F17733A3FB02C14909A3FB29
:1040300001C35B09C3EB0313A1EB8303C1EB0111C4
:10404000A2EB810100910C49A1FB0212D20A0B499B
:1040500035F0B6FF63694BB103A902A804F0DCFB9D
:10406000DDE902230649606935F0AAFF04B010BDFE
:104070004C030020B0030020C5B3A2911CBE03086E
:1040800034BE03082DE9F04F8DB02FF035FA16F04D
:10409000D5F9DFF868815A4F5A4BB8F90020B7F9C3
:1040A00000108146FCF7C8FE064600F007FE002817
:1040B00000F0A2800388544A544DDFF854B1DFF871
:1040C00054A104AC2021204636F03CFA0194524C15
:1040D000524B0094202208213046FCF74BFE504BF7
:1040E000019300944D4B382208213046FCF742FEE4
:1040F0004C4B009450222860082101933046474BD6
:10410000FCF738FE484B01933046444BCDF800B0E5
:1041100068220821FCF72EFEB8F90020B7F902103A
:10412000424B4846FCF788FE414B019300943B4BC1
:10413000202208210646FCF71DFE3E4B686038220F
:1041400001930094354B08213046FCF713FE334BA6
:10415000A860502208210094CDF804A03046FCF756
:1041600009FEE860039004F0BBFE334B334902467E
:10417000A3FB02320398920C35F022FF304B0193DF
:104180000094264B682208213046FCF7F3FD2D4BA6
:10419000CDF800B0802228610821019330461F4BE2
:1041A000FCF7E8FDB8F90020B7F904106861264B68
:1041B0004846FCF741FE254B01930094174B202203
:1041C00008210646FCF7D6FDCDE9004A134BA8614D
:1041D000382208213046FCF7CDFD0246CDF804A078
:1041E00000940E4BEA61304650220821FCF7C2FDD4
:1041F00028620DB0BDE8F08F03465CE7380300206D
:104200003C03002054BE030864BE03084C03002096
:104210009088800014C20308DCD6D2005CFE03083C
:1042200080BE03088CBE0308A8BE0308C0BE0308F6
:10423000D0BE0308E0BE030883DE1B43ECBE0308C8
:10424000FCBE030810BF03082CBF03083CBF0308D3
:1042500070B50A2088B0FDF705FB0124042332263F
:104260000DF11F058DF81F3000F0EAFBCDE9014686
:1042700013480095234600223C2106F095FCD0B956
:10428000059000F0FDFB1420FDF7ECFA03238DF8F8
:104290001F3000F0D5FBCDE9014623460848059ABA
:1042A00000953C2106F080FC044620B900F0E8FBB4
:1042B000204608B070BD00F0E3FB4FF0FF30F8E798
:1042C000800B00202DE9F04387B0804604AD0A241E
:1042D0004FF03209012700F0B3FBCDE901791E4808
:1042E000009501233C21224606F05CFD064668BB92
:1042F0000134A4B200F0C4FB102C05F10105EAD191
:104300009DF910209DF81030002A05DB9DF8116002
:1043100003F0030343EA86069DF81430BDF812202B
:10432000A8F800205A06A8F804600DD49DF81520BE
:10433000120103F00F0302F47C721343A8F8023059
:10434000002007B0BDE8F0830023F7E700F098FBFA
:104350004FF0FF30F5E700BF800B00200E490F4AF9
:10436000D1F8FC30DFF838C043F08073C1F8FC307E
:104370001368002143F0010313605160DCF8003042
:104380000849A1FB03139B0C516803FB00F0536821
:104390005B1A8342FBD3704700ED00E0001000E0A1
:1043A0006401002083DE1B4369B362B38318B3F555
:1043B000807F28D870B586B0164603900D466424D9
:1043C00000F03EFB03988DF8170001230F4800947E
:1043D0000DF11702A02105F031FF78B900943346A2
:1043E0002A46A121094806F005F9044600F048FBD9
:1043F000201E18BF0120404206B070BD00F040FBF7
:104400004FF0FF30F8E74FF0FF307047800B00208F
:10441000002946D0002A44D02DE9F0478318B3F58F
:10442000807F86B0064637D81746884600F008FBDE
:1044300000254FF0640906F00704C4F108047B1B53
:10444000A4B29BB29C4228BF1C46224608EB050141
:104450000DF10D008DF80C600CB136F01AF9631CEB
:104460001148CDF80090A0219BB203AA05F0E6FE0A
:1044700082460620BAF1000F0CD12544ADB2FDF7FB
:10448000F1F9AF422644D6D800F0FAFA504606B009
:10449000BDE8F08700F0F4FA4FF0FF3006B0BDE859
:1044A000F0874FF0FF307047800B002070B51A4C3A
:1044B00006460D4603F0CCFB2078400000F0FE00DD
:1044C00003F016FC10BB300A03F012FCF0B9F0B296
:1044D00003F00EFCD0B903F0BBFB2078400040F0A5
:1044E0000100C0B203F004FC064678B9013D044661
:1044F000E01E18BF012003F051FC0134042C05F824
:10450000010FF5D103F0CCFB304670BD03F0C8FBC2
:104510004FF0FF36F8E700BF7A0B00202DE9F04F8F
:10452000A44EA54FA54DDFF898A2A64BA6488DB086
:1045300000243F22029434603C702C708AF80040C2
:10454000347132701A6B42F080021A631A6B02F0F7
:1045500080020292029A03941A6B42F480721A63E8
:104560001B6B0A9403F480734FF001084FF48079B9
:104570004FF0020B039306A9039BCDF824B0CDF8AE
:104580001890CDE9078804F0DBFE002380228F48D5
:10459000CDF8208006A9CDE9062304F0D1FE03F072
:1045A00015FB49462246884805F0D4F80A20FDF755
:1045B00059F9494642468448DFF8149205F0CAF892
:1045C0000A20FDF74FF98022002306A97F480894AE
:1045D000CDE9062304F0B4FE6420FDF743F9802200
:1045E00000237A48CDF8208006A9CDE9062304F0FF
:1045F000A7FE5846FDF736F9CB4499F800302B70EA
:1046000001A948F240100194FFF750FF09F1010998
:1046100068B1CB452C70F0D1019B336034716D488B
:104620005D221421FDF7F2F84FF0FF385CE02C78A2
:10463000019B307180463360002CF0D066495D48A4
:10464000FCF7CAF8002853D16448654B5949224603
:10465000FDF7DCF803F0FCFA2878400000F0FE00DB
:1046600003F046FB002840F03A81802003F040FB35
:10467000002840F03481472003F03AFB002840F046
:104680002E8103F0E5FA2878400040F00100C0B226
:1046900003F02EFB002840F02281044604AE201FC8
:1046A00018BF012003F07AFB0134052C06F8010B3A
:1046B000F5D1DFF830914C4E03F0F2FA9DF810106E
:1046C000BDF81120BDF813308AF80010A9F80020B9
:1046D00033804648FDF79AF83F493648FCF77CF8A6
:1046E000002827D001233B7040460DB0BDE8F08F75
:1046F0003F493048FCF770F80028A5D03D492D48C7
:10470000FCF76AF800289FD03B492A48FCF764F878
:10471000002899D039492748FCF75EF8002893D043
:10472000374B24492D482246FDF770F83548FDF7F0
:104730006DF8CBE003F08CFA2878400000F0FE0022
:1047400003F0D6FA002840F0BC80802003F0D0FAB5
:10475000002840F0B680402003F0CAFA002840F05C
:10476000B080022003F0C4FA0446002840F0A9807B
:1047700003F096FA9AF800305F2B47D92248FDF7EC
:1047800045F803F065FA2878400000F0FE0003F0D9
:10479000AFFA48B9802003F0ABFA28B9402003F003
:1047A000A7FA08B903F0A4FA03F07AFA0A20FDF791
:1047B00059F897E768000020790B00207A0B002059
:1047C000780B00200038024000200240001C02400C
:1047D0000CC9030890BF0308DCBF0308F0BF03083F
:1047E000E8BF0308760B0020740B00207CC0030890
:1047F000E4BF030820C0030828C0030830C0030832
:1048000034C0030840C0030834C10308DFF8E4B033
:104810000BF1FF330BF1B70113F8012F8B42144456
:10482000FAD103F015FA2878400000F0FE0003F0FA
:104830005FFA00284DD1802003F05AFA002848D1B1
:10484000472003F055FA002843D19BF8000003F0FD
:104850004FFA00283DD1284B0BF1010B5B45F4D1F9
:1048600003F01EFA03F0F4F92878400000F0FE008F
:1048700003F03EFA68BB802003F03AFA48BBFF2001
:1048800003F036FA28BB6042C0B203F031FA00BB35
:10489000012003F02DFAE0B903F002FA4FF4487357
:1048A00016484FF4F072B821FCF7B0FF60238AF885
:1048B00000304FF4F073A9F800304FF448733380A0
:1048C0005FE703F0EDF90E48FCF7A0FF6FF0010879
:1048D0000AE703F0E5F90B48FCF798FF51E7DFF82A
:1048E00028900A4E03F0DCF99AF80010B9F800207D
:1048F0003388EEE610C90308C8C90308FCC00308E2
:10490000B8C00308DCC00308760B0020740B00203D
:10491000024B1878003818BF01207047790B00202F
:104920000048704768000020014B1878704700BFAE
:104930007A0B0020014B1878704700BF780B0020DD
:10494000014B1888704700BF760B0020014B188878
:10495000704700BF740B00202DE9F041364B1B78E7
:1049600082B0002B65D0002863D0002961D0DFF829
:10497000CC8007460E4603F06BF998F80000400023
:1049800000F0FE0003F0B4F9002850D1812003F0BC
:10499000AFF900284BD14E2003F0AAF9002846D1E8
:1049A00003F056F998F80000400040F00100C0B252
:1049B00003F09EF90546002839D103F0EFF900F025
:1049C0000F0403F06DF9052E28BF0526A64228BF67
:1049D0002646CEB903F03CF998F80000400000F0FC
:1049E000FE0003F085F948B9812003F081F928B968
:1049F0004E2003F07DF908B903F07AF903F050F97D
:104A0000284602B0BDE8F08148F2501401A92046C2
:104A1000FFF74CFD0028DDD10135EDB2019B47F8D1
:104A2000043B0834AE42A4B2F0D13546D2E703F0DD
:104A300037F94FF0FF35E3E7790B00207A0B0020C0
:104A400008B509F02FFD022800D008BD0B4B1868EF
:104A500028B1BDE808404FF0FF310AF067BB72B6DD
:104A60001A6822B162B618680028F2D108BD012088
:104A70000AF090F8014B1860F4E700BF7C0B0020AF
:104A800010B509F00FFD022809D1054B186830B1A7
:104A90000023BDE810401A46194609F0A9BE10BD12
:104AA0007C0B00202DE9104889B01F4B0024009496
:104AB0001A6C42F480021A641A6C02F480020092AA
:104AC000009A01941A6B42F080021A631B6B30202B
:104AD000122103F08003CDE9020101931348019AEA
:104AE00004234FF0030C02A94FF0010B0693CDE90C
:104AF00004BC04F025FC0E480E490F4A04624FF432
:104B00008043C0E90012C0E90244C0E90434C0E9AE
:104B1000064405F0A5FA10B909B0BDE81088FCF705
:104B2000B1FE09B0BDE8108800380240001C024008
:104B3000800B002000580040A0860100F0B55C4CBE
:104B40005C492268536990690A6995068DB002D55F
:104B5000810740F1A480102001210023CDE9060146
:104B600003225448089306A9CDE9092304F0E8FB81
:104B700001225048102104F0EDFDB4230193019B64
:104B80005A1E01922BB100BF019B5A1E0192002BAD
:104B9000F9D1484D0926B42700221021284604F0F7
:104BA000D9FD0397039B5A1E03922BB100BF039BB1
:104BB0005A1E0392002BF9D101221021284604F03D
:104BC000C9FD0297029B5A1E02922BB100BF029BA5
:104BD0005A1E0292002BF9D12B699A0601D4013E8C
:104BE000DAD120220123CDE9062300250323314811
:104BF000089506A9CDE9093504F0A2FB2A462D48FF
:104C0000202104F0A7FDB4230593059B5A1E0592AD
:104C10002BB100BF059B5A1E0592002BF9D1012232
:104C20002448202104F096FDB4230493049B5A1ECB
:104C300004922BB100BF049B5A1E0492002BF9D1A1
:104C40001B4805F0DDFA1A4805F00AFA3022122353
:104C5000CDE9062301220323CDE9082315480423C7
:104C600006A90A9304F06CFB1349114800234FF482
:104C70008042C4E90113C4E90332C4E90533C4E93D
:104C8000073305F0EDF980B923689B699B070CD4C5
:104C9000084B1869C0F3401001380DB0F0BD13F493
:104CA000E0607FF458AF0DB0F0BD4FF0FF30F4E797
:104CB000800B0020001C0240A086010000487047C5
:104CC000D80B0020024B1878003818BF012070471D
:104CD000D40B0020DFF870C0DCE9031200B5BCF88B
:104CE000063002FB01F100BF184AA2F8FE3000BFF7
:104CF0000023A2F80031BCF806E00EF1010E00BF5F
:104D0000A2F8FEE000BFA2F80031BCF808E000BF46
:104D1000A2F8FEE000BFA2F80031BCF808E00EF1F6
:104D2000010E00BFA2F8FEE000BFBCF804C0A2F86C
:104D30000031A2F8FEC000BF21B101339942A2F8B0
:104D40000001FAD100BD00BFD80B002000FF0760B2
:104D50002DE9F04F5C4D5D4A5D4895B000264FF45B
:104D600048714FF4F073C5E903136A604FF42C5394
:104D700032462021AE600127CDE90766CDE90966FC
:104D8000CDE90B66CDE90E66CDE91066CDE9126678
:104D9000CDE90266CDE904662E602B8106960D965C
:104DA0000196022404F0D6FC20234948019301A96E
:104DB000CDE9027704944FF0030804F0C1FA0C2304
:104DC000CDE9048343484FF6B37301A9CDE9024608
:104DD000019304F0B5FA4FF680733F48019301A99F
:104DE00004F0AEFA4FF23F033C48019301A904F0EE
:104DF000A7FA3F233A48019301A904F0A1FA394BDD
:104E00000C964FF010091846C3E90266C3E906661E
:104E1000C3E90866C3E90D661E61DE62DE635E6497
:104E20001396C3F81490304E099711230B931293E5
:104E30004FF02043C0E900364FF4805383624FF4B3
:104E400080434FF00F0A03630DAA462306A9CDE95C
:104E500006AACDE90DAA1097CDF83CA0CDF8289070
:104E6000CDF84490089306F06DFB002841F02784AC
:104E70000646142003F0E6FD00BF1C4B4FF45B42D6
:104E8000A3F8FE2000BFB3F80021ADF81820BDF84C
:104E9000180000BF4FF45C42A3F8FE2000BFB3F837
:104EA0000021ADF83420BDF83410C9B241EA002128
:104EB00089B20F482980FCF7A9FC2A880B4BB2F570
:104EC000004F41F0048415E0D80B0020002C002A8C
:104ED00000040240000C0240001002400014024096
:104EE00000180240EC0B0020040100A000FF076046
:104EF00064C1030800BF4FF200024FF0550EA3F843
:104F0000FE20A3F800E100BF4FF201004FF0AA0C11
:104F1000A3F8FE00A3F800C100BF4FF2020B4FF050
:104F20005202A3F8FEB0A3F8002100BF4FF2030C19
:104F3000A3F8FEC04FF0080CA3F800C100BF4FF269
:104F40000402A3F8FE20A3F8007100BF4FF4304222
:104F5000A3F8FE200D22A3F8002100BF4BF20101AF
:104F6000A3F8FE10A3F8002100BF4BF20201A3F842
:104F7000FE10A3F8002100BF4BF200603421A3F81B
:104F8000FE00A3F8001100BF4BF20160A3F8FE0081
:104F9000A3F8001100BF4BF20260A3F8FE00A3F8D3
:104FA000001100BF4BF2001BA3F8FEB0A3F80021D4
:104FB00000BF4BF2011EA3F8FEE0A3F8002100BFE2
:104FC0004BF20210A3F8FE00A3F8002100BF4BF241
:104FD0000072A3F8FE20A3F8001100BF4BF2017E7F
:104FE000A3F8FEE0A3F8001100BF4BF20272A3F891
:104FF000FE20A3F8001100BF4FF43242A3F8FE20B8
:10500000A3F8006100BF4BF20122A3F8FE20A3F831
:10501000006100BF4BF20222A3F8FE20A3F800615A
:1050200000BF4BF60002A3F8FE202422A3F80021C3
:1050300000BF4BF6010BA3F8FEB0A3F8002100BFA0
:105040004BF6020EA3F8FEE0A3F8002100BF4FF4D8
:105050003F40A3F8FE00A3F8007100BF4FF43340B7
:10506000A3F8FE00A3F800A100BF4BF20130A3F8A3
:10507000FE00A3F800A100BF4BF20230A3F8FE002F
:10508000A3F800A100BF4FF43940A3F8FE00A3F835
:10509000001100BF4BF60110A3F8FE00A3F80011A9
:1050A00000BF4BF60210A3F8FE00A3F8001100BFEA
:1050B0004FF43540A3F8FE00A3F800C100BF4BF247
:1050C0000150A3F8FE00A3F800C100BF4BF202504C
:1050D000A3F8FE00A3F800C100BF4FF44240A3F8BC
:1050E000FE00A3F8008100BF4FF43A40A3F8FE0091
:1050F000A3F8002100BF4BF60120A3F8FE00A3F89F
:10510000002100BF4BF60220A3F8FE00A3F8002107
:1051100000BF4BF6004AA3F8FEA0A3F8006100BF51
:105120004BF6014A7822A3F8FEA0A3F8002100BFA5
:105130004BF6024AA3F8FEA0A3F8006100BF4FF4AB
:105140003D40A3F8FE00A3F8006100BF4BF60150FC
:10515000A3F8FE00A3F8002100BF4BF60252A3F80B
:10516000FE20A3F8006100BF4FF43E42A3F8FE20EA
:10517000A3F8006100BF4BF60162A3F8FE20642291
:10518000A3F8002100BF4FF45142A3F8FE20A3F87A
:10519000006100BF4DF201123320A3F8FE20A3F8F6
:1051A000000100BF4DF20212A3F8FE20A3F8006137
:1051B00000BF4DF20312A3F8FE20A3F8001100BFB8
:1051C0004DF20412A3F8FE20A3F8006100BF4DF2D7
:1051D00005124FF03A0BA3F8FE20A3F800B100BF70
:1051E0004DF20612A3F8FE20A3F8006100BF4DF2B5
:1051F00007124FF04A0EA3F8FE20A3F800E100BF0B
:105200004DF20812A3F8FE20A3F8006100BF4DF292
:1052100009124FF05C0CA3F8FE20A3F800C100BFF8
:105220004DF20A12A3F8FE20A3F8006100BF4DF270
:105230000B12A3F8FE204FF08102A3F8002100BF5B
:105240004DF20C12A3F8FE20A3F8006100BF4DF24E
:105250000D124FF0A60AA3F8FE20A3F800A100BF8C
:105260004DF20E12A3F8FE20A3F8006100BF4DF22C
:105270000F12A3F8FE204FF0E502A3F8002100BFB3
:105280004DF21012A3F8FE20A3F8007100BF4DF2FA
:1052900011124FF0130AA3F8FE20A3F800A100BFDB
:1052A0004DF21212A3F8FE20A3F8007100BF4DF2D8
:1052B0001312A3F8FE204FF05402A3F8002100BF00
:1052C0004DF21412A3F8FE20A3F8007100BF4DF2B6
:1052D00015124FF0820AA3F8FE20A3F800A100BF28
:1052E0004DF21612A3F8FE20A3F8007100BF4DF294
:1052F0001712A3F8FE204FF0CA02A3F8002100BF46
:105300004DF21812A3F8FE20A3F8004100BF4DF2A1
:105310001912A3F8FE20A3F8006100BF4DF21A1283
:10532000A3F8FE20A3F8004100BF4DF21B12A3F822
:10533000FE20A3F8007100BF4DF21C12A3F8FE205E
:10534000A3F8004100BF4DF21D12A3F8FE20A3F800
:10535000001100BF4DF21E12A3F8FE20A3F8004179
:1053600000BF4DF21F124FF0670AA3F8FE20A3F80A
:1053700000A100BF4DF22012A3F8FE20A3F80041C7
:1053800000BF4DF22112A3F8FE204FF08402A3F8D3
:10539000002100BF4DF22212A3F8FE20A3F8004125
:1053A00000BF4DF223124FF0A40AA3F8FE20A3F889
:1053B00000A100BF4DF22412A3F8FE20A3F8004183
:1053C00000BF4DF22512A3F8FE204FF0B702A3F85C
:1053D000002100BF4DF22612A3F8FE20A3F80041E1
:1053E00000BF4DF227124FF0CF0AA3F8FE20A3F81A
:1053F00000A100BF4DF22812A3F8FE20A3F800413F
:1054000000BF4DF22912A3F8FE204FF0DE02A3F8F0
:10541000002100BF4DF22A12A3F8FE20A3F800419C
:1054200000BF4DF22B124FF0F20AA3F8FE20A3F8B2
:1054300000A100BF4DF22C12A3F8FE20A3F80041FA
:1054400000BF4DF22D12A3F8FE204FF0FE02A3F88C
:10545000002100BF4DF22E12A3F8FE20A3F8008118
:1054600000BF4DF22F12A3F8FE20A3F8009100BF59
:105470004DF23012A3F8FE20A3F8008100BF4DF2D8
:105480003112A3F8FE20A3F8000100BF4DF2321242
:10549000A3F8FE20A3F8008100BF4DF233124FF0B5
:1054A0006D0AA3F8FE20A3F800A100BF4FF45242FA
:1054B000A3F8FE20A3F8006100BF4DF2012CA3F871
:1054C000FEC0A3F8000100BF4DF2022CA3F8FEC0FD
:1054D000A3F8006100BF4DF2032CA3F8FEC0A3F8AF
:1054E000001100BF4DF2042CA3F8FEC0A3F8006128
:1054F00000BF4DF2052CA3F8FEC0A3F800B100BF19
:105500004DF2062CA3F8FEC0A3F8006100BF4DF2D7
:10551000072CA3F8FEC0A3F800E100BF4DF2082C51
:10552000A3F8FEC0A3F8006100BF4DF2092CA3F858
:10553000FEC04FF05C0CA3F800C100BF4DF20A2C76
:10554000A3F8FEC0A3F8006100BF4DF20B2CA3F836
:10555000FEC04FF0810CA3F800C100BF4DF20C2C2F
:10556000A3F8FEC0A3F8006100BF4DF20D2CA3F814
:10557000FEC04FF0A60CA3F800C100BF4DF20E2CE8
:10558000A3F8FEC0A3F8006100BF4DF20F2CA3F8F2
:10559000FEC04FF0E50CA3F800C100BF4DF2102C87
:1055A000A3F8FEC0A3F8007100BF4DF2112CA3F8C0
:1055B000FEC04FF0130CA3F800C100BF4DF2122C37
:1055C000A3F8FEC0A3F8007100BF4DF2132CA3F89E
:1055D000FEC04FF0540CA3F800C100BF4DF2142CD4
:1055E000A3F8FEC0A3F8007100BF4DF2152CA3F87C
:1055F000FEC04FF0820CA3F800C100BF4DF2162C84
:10560000A3F8FEC0A3F8007100BF4DF2172CA3F859
:10561000FEC04FF0CA0CA3F800C100BF4DF2182C19
:10562000A3F8FEC0A3F8004100BF4DF2192CA3F867
:10563000FEC0A3F8006100BF4DF21A2CA3F8FEC013
:10564000A3F8004100BF4DF21B2CA3F8FEC0A3F845
:10565000007100BF4DF21C2CA3F8FEC0A3F800415E
:1056600000BF4DF21D2CA3F8FEC0A3F8001100BF2F
:105670004DF21E2CA3F8FEC0A3F8004100BF4DF26E
:105680001F2CA3F8FEC04FF0670CA3F800C100BFA9
:105690004DF2202CA3F8FEC0A3F8004100BF4DF24C
:1056A000212CA3F8FEC04FF0840CA3F800C100BF6A
:1056B0004DF2222CA3F8FEC0A3F8004100BF4DF22A
:1056C000232CA3F8FEC04FF0A40CA3F800C100BF28
:1056D0004DF2242CA3F8FEC0A3F8004100BF4DF208
:1056E000252CA3F8FEC04FF0B70CA3F800C100BFF3
:1056F0004DF2262CA3F8FEC0A3F8004100BF4DF2E6
:10570000272CA3F8FEC04FF0CF0CA3F800C100BFB8
:105710004DF2282CA3F8FEC0A3F8004100BF4DF2C3
:10572000292CA3F8FEC04FF0DE0CA3F800C100BF87
:105730004DF22A2CA3F8FEC0A3F8004100BF4DF2A1
:105740002B2CA3F8FEC04FF0F20CA3F800C100BF51
:105750004DF22C2CA3F8FEC0A3F8004100BF4DF27F
:105760002D2CA3F8FEC04FF0FE0CA3F800C100BF23
:105770004DF22E2CA3F8FEC0A3F8008100BF4DF21D
:105780002F2CA3F8FEC0A3F8009100BF4DF2302CDF
:10579000A3F8FEC0A3F8008100BF4DF2312CA3F89E
:1057A000FEC0A3F8000100BF4DF2322CA3F8FEC0EA
:1057B000A3F8008100BF4DF2332CA3F8FEC0A3F87C
:1057C00000A100BF4DF2003CA3F8FEC0A3F80061A9
:1057D00000BF4DF2013CA3F8FEC0A3F8000100BFDA
:1057E0004DF2023CA3F8FEC0A3F8006100BF4DF2E9
:1057F000033CA3F8FEC0A3F8001100BF4DF2043C27
:10580000A3F8FEC0A3F8006100BF4DF2053CA3F869
:10581000FEC0A3F800B100BF4DF2063CA3F8FEC0E5
:10582000A3F8006100BF4DF2073CA3F8FEC0A3F847
:1058300000E100BF4DF2083CA3F8FEC0A3F80061F0
:1058400000BF4DF2093CA3F8FEC04FF05C0CA3F87A
:1058500000C100BF4DF20A3CA3F8FEC0A3F80061EE
:1058600000BF4DF20B3CA3F8FEC04FF0810CA3F833
:1058700000C100BF4DF20C3CA3F8FEC0A3F80061CC
:1058800000BF4DF20D3CA3F8FEC04FF0A60CA3F8EC
:1058900000C100BF4DF20E3CA3F8FEC0A3F80061AA
:1058A00000BF4DF20F3CA3F8FEC04FF0E50CA3F88B
:1058B00000C100BF4DF2103CA3F8FEC0A3F8007178
:1058C00000BF4DF2113CA3F8FEC04FF0130CA3F83B
:1058D00000C100BF4DF2123CA3F8FEC0A3F8007156
:1058E00000BF4DF2133CA3F8FEC04FF0540CA3F8D8
:1058F00000C100BF4DF2143CA3F8FEC0A3F8007134
:1059000000BF4DF2153CA3F8FEC04FF0820CA3F887
:1059100000C100BF4DF2163CA3F8FEC0A3F8007111
:1059200000BF4DF2173CA3F8FEC04FF0CA0CA3F81D
:1059300000C100BF4DF2183CA3F8FEC0A3F800411F
:1059400000BF4DF2193CA3F8FEC0A3F8006100BFF0
:105950004DF21A3CA3F8FEC0A3F8004100BF4DF27F
:105960001B3CA3F8FEC0A3F8007100BF4DF21C3C25
:10597000A3F8FEC0A3F8004100BF4DF21D3CA3F800
:10598000FEC0A3F8001100BF4DF21E3CA3F8FEC0FC
:10599000A3F8004100BF4DF21F3CA3F8FEC04FF03A
:1059A000670CA3F800C100BF4DF2203CA3F8FEC075
:1059B000A3F8004100BF4DF2213CA3F8FEC04FF018
:1059C000840CA3F800C100BF4DF2223CA3F8FEC036
:1059D000A3F8004100BF4DF2233CA3F8FEC04FF0F6
:1059E000A40CA3F800C100BF4DF2243CA3F8FEC0F4
:1059F000A3F8004100BF4DF2253CA3F8FEC04FF0D4
:105A0000B70CA3F800C100BF4DF2263CA3F8FEC0BE
:105A1000A3F8004100BF4DF2273CA3F8FEC04FF0B1
:105A2000CF0CA3F800C100BF4DF2283CA3F8FEC084
:105A3000A3F8004100BF4DF2293CA3F8FEC04FF08F
:105A4000DE0CA3F800C100BF4DF22A3CA3F8FEC053
:105A5000A3F8004100BF4DF22B3CA3F8FEC04FF06D
:105A6000F20CA3F800C100BF4DF22C3CA3F8FEC01D
:105A7000A3F8004100BF4DF22D3CA3F8FEC04FF04B
:105A8000FE0CA3F800C100BF4DF22E3CA3F8FEC0EF
:105A9000A3F8008100BF4DF22F3CA3F8FEC0A3F88D
:105AA000009100BF4DF2303CA3F8FEC0A3F8008186
:105AB00000BF4DF2313CA3F8FEC0A3F8000100BFC7
:105AC0004DF2323CA3F8FEC0A3F8008100BF4DF2B6
:105AD000333CA3F8FEC0A3F800A100BF4DF2004C78
